:100000004CC10000F1C30000C4C3000097C300004E
:100010006AC300003DC3000010C30000E3C200003B
:10002000B6C200006BC1000069C1000067C10000DA
:1000300065C1000063C1000061C100005FC1000034
:100040005DC100005BC1000059C1000057C1000044
:1000500055C1000053C1000051C100000C94DD0CDB
:100060004DC100000C941B090C94E00847C100002E
:1000700045C1000043C1000041C100003FC1000074
:100080003DC100003BC1000039C1000037C1000084
:100090000C94A7080C94770831C10000D0C300006D
:1000A0002DC100002BC1000029C1000027C10000A4
:1000B00025C1000023C1000021C100001FC10000B4
:1000C0001DC100001BC1000019C10000D7C70000FE
:1000D000A5C7000013C1000068C7000036C70000B4
:1000E0000DC10000C513D413E313EB13BF0F92151A
:1000F00092159215921592159215921592159215C8
:100100008B15FA14E90BEC0BDB0BDF0BE30B230C69
:10011000F00BF40BFA0BFE0B020C080C0C0C100C81
:10012000230C160C1A0C1E0C43485259534C4552C2
:100130004343445343495343414E4E45522D2D2D85
:100140002D2D2D2D2D2D2D2D2D2D2D2D2D2D2D2DDF
:100150002D00205343414E4E45522056312E34300F
:1001600020323031382000202043485259534C452A
:1001700052204343442F5343492020002D2D2D2D41
:100180002D2D2D2D2D2D2D2D2D2D2D2D2D2D2D2D9F
:100190000000002100240027002A002D0030003339
:1001A0000001010000040107010A010000220025EE
:1001B0000028002B002E0031003400020100000551
:1001C0000108010B010505050507050808080802D7
:1001D0000202020A0A0808040404040101010101E0
:1001E0000101010303030303030303040707070CCF
:1001F0000C0C0C0C0C0C0C02020202060606060685
:100200000606060B0B0B0B0B0B0B0B010210202031
:10021000080810204010204080020102010804025A
:1002200001010204081020408080402010080402D0
:100230000180040201804020100804020108040229
:10024000010102040810204080010204081020402F
:100250008000000A0B02090C0D0E080703040100C0
:10026000000000000000000000000000000000008E
:10027000000000000000000000000000001211104B
:10028000000000000000000000000000000000006E
:1002900000000000000000001B1611241FBECFEF5D
:1002A000D1E2DEBFCDBF00E00CBF12E0A0E0B2E0C3
:1002B000ECEFFFE200E00BBF02C007900D92AE35FD
:1002C000B107D9F72DE0AEE5B2E001C01D92A93E1D
:1002D000B207E1F711E0CDE4D1E000E006C02197DC
:1002E0000109802FFE010E94F017CC34D10780E075
:1002F0000807A9F70E94270D0C94FC1781CE0895DA
:10030000CF92DF92EF92FF920F931F93CF93DF93E1
:100310006C017A018B01C0E0D0E0CE15DF0581F0E1
:10032000D8016D918D01D601ED91FC910190F08184
:10033000E02DC6011995892B11F02196EECF7E0193
:10034000C701DF91CF911F910F91FF90EF90DF9048
:10035000CF90089585ED8093BC008091BC0084FD12
:10036000FCCF10928D0D08954091160D262F30E090
:10037000240F311D21323105DCF420918D0D243004
:10038000C9F4FC0180E090E0861758F43091160D16
:100390002191DC01AA50B34FA30FB11D2C930196FC
:1003A000F3CF8091160D680F6093160D80E00895CD
:1003B00081E0089582E00895089508950895E091F8
:1003C000660D8091650DE81730F4F0E0EF5BF24FB9
:1003D000808190E008958FEF9FEF08959091660DD2
:1003E0008091650D981750F4E92FF0E0EF5BF24F24
:1003F000208130E09F5F9093660D02C02FEF3FEFAA
:10040000C90108958091650D90E02091660D821BD1
:1004100091090895CF92DF92EF92FF920F931F936D
:10042000CF93DF937C01CB018A0120918E0D222393
:1004300089F0EB016B01C40ED51ECC15DD0561F012
:100440006991D701ED91FC910190F081E02DC701F8
:100450001995F3CF642F88DFC801DF91CF911F91E9
:100460000F91FF90EF90DF90CF900895CF93DF939F
:100470001F92CDB7DEB7698320918E0D2223D1F074
:100480002091B10D203240F021E030E0FC013383B7
:10049000228380E090E014C080918F0DE82FF0E07F
:1004A000E057F24F998190838F5F80938F0D8093F7
:1004B000B10D04C061E0CE01019656DF81E090E00D
:1004C0000F90DF91CF91089521E001C0220F6A952E
:1004D000EAF7DC011C962C931C971A965C934E93BA
:1004E0001997ED91FC910484F585E02D60E0199455
:1004F000DC01ED91FC910684F785E02D41E0199532
:1005000081E090E0089508950895089580E090E0D6
:10051000089581E08093F50C08950E94F8170F93D9
:100520001F93CF93DF93062F0F70423019F440E0F2
:10053000602F0EC0142FEC0170E084E07595679574
:100540008A95E1F7CE010E948C0B412F602FCE01DE
:10055000DF91CF911F910F910C948C0BFC0184853E
:100560008823A1F0218532852115310519F4611107
:1005700006C007C02130310521F4611102C0858712
:1005800001C015866585CF010E96BAC708951F92E2
:100590000F920FB60F9211240BB60F922F933F9329
:1005A0004F935F936F937F938F939F93AF93BF937B
:1005B000EF93FF93E0910E02F0910F021995FF91D6
:1005C000EF91BF91AF919F918F917F916F915F91CB
:1005D0004F913F912F910F900BBE0F900FBE0F9038
:1005E0001F9018951F920F920FB60F9211240BB601
:1005F0000F922F933F934F935F936F937F938F93BC
:100600009F93AF93BF93EF93FF93E0910C02F09110
:100610000D021995FF91EF91BF91AF919F918F912D
:100620007F916F915F914F913F912F910F900BBEF2
:100630000F900FBE0F901F9018951F920F920FB63C
:100640000F9211240BB60F922F933F934F935F930A
:100650006F937F938F939F93AF93BF93EF93FF938A
:10066000E0910202F09103021995FF91EF91BF9181
:10067000AF919F918F917F916F915F914F913F913A
:100680002F910F900BBE0F900FBE0F901F901895DB
:100690001F920F920FB60F9211240BB60F922F9349
:1006A0003F934F935F936F937F938F939F93AF93FA
:1006B000BF93EF93FF93E0910002F091010219952F
:1006C000FF91EF91BF91AF919F918F917F916F912A
:1006D0005F914F913F912F910F900BBE0F900FBEE6
:1006E0000F901F9018951F920F920FB60F92112422
:1006F0000BB60F922F933F934F935F936F937F931C
:100700008F939F93AF93BF93EF93FF93E0910A0270
:10071000F0910B021995FF91EF91BF91AF919F91CD
:100720008F917F916F915F914F913F912F910F909A
:100730000BBE0F900FBE0F901F9018951F920F9237
:100740000FB60F9211240BB60F922F933F934F9336
:100750005F936F937F938F939F93AF93BF93EF9329
:10076000FF93E0910802F09109021995FF91EF9132
:10077000BF91AF919F918F917F916F915F914F91B9
:100780003F912F910F900BBE0F900FBE0F901F90B7
:1007900018951F920F920FB60F9211240BB60F925D
:1007A0002F933F934F935F936F937F938F939F9379
:1007B000AF93BF93EF93FF93E0910602F09107028E
:1007C0001995FF91EF91BF91AF919F918F917F917B
:1007D0006F915F914F913F912F910F900BBE0F90B2
:1007E0000FBE0F901F9018951F920F920FB60F9289
:1007F00011240BB60F922F933F934F935F936F93F8
:100800007F938F939F93AF93BF93EF93FF93E09169
:100810000402F09105021995FF91EF91BF91AF91FC
:100820009F918F917F916F915F914F913F912F9108
:100830000F900BBE0F900FBE0F901F9018951F9238
:100840000F920FB60F9211240BB60F922F933F9376
:100850004F935F936F937F938F939F93AF93BF93C8
:10086000EF93FF938091B900887F803609F49CC094
:1008700068F5883209F45BC090F4803109F454C003
:1008800038F4882309F4F6C0883009F44DC0F5C067
:10089000883109F44CC0803209F45DC0EEC0803468
:1008A00009F468C048F4803309F455C0883309F06E
:1008B000E4C080938B0DD8C0803509F44FC08835D3
:1008C00009F45DC0883409F0D8C0D6C0883909F46D
:1008D000C7C0A8F4883709F467C038F4883609F42B
:1008E00063C0803709F460C0C8C0883809F4B8C054
:1008F000803909F45FC0803809F0BFC05BC0803B1D
:1009000009F486C038F4803A09F466C0883A09F4DC
:100910007FC0B3C0803C09F4A7C0883C09F4A4C0E0
:10092000883B09F48AC0A9C08091680D10C09091DD
:100930008A0D8091890D981770F5E0918A0D81E0FC
:100940008E0F80938A0DF0E0E759F24F80818093FB
:10095000BB0085EC86C080938B0D8EC0E0918A0D24
:1009600081E08E0F80938A0D8091BB00F0E0E75903
:10097000F24F808390918A0D8091890D6EC0E09135
:100980008A0D81E08E0F80938A0D8091BB00F0E08C
:10099000E759F24F808380918C0D81116DC081E009
:1009A0008093670D84EA61C083E080938D0D10927F
:1009B000380DCFCF8091380D803208F051C0E091D2
:1009C000380D81E08E0F8093380D8091BB00F0E0F0
:1009D000E85EF24F8083BDCF85EC8093BC0010921F
:1009E0008D0D8091380D803230F4E091380DF0E0BB
:1009F000E85EF24F10826091380D70E0E091610D79
:100A0000F091620D88E19DE019951092380D35C086
:100A100084E080938D0D1092170D1092160DE091C9
:100A2000630DF091640D19958091160D811105C02B
:100A300081E08093160D1092F60CE091170D81E085
:100A40008E0F8093170DF0E0EA50F34F8081809372
:100A5000BB009091170D8091160D981708F479CF6F
:100A600085E88093BC0009C085EC8093BC0010929F
:100A70008D0D03C010928B0D6DDCFF91EF91BF9136
:100A8000AF919F918F917F916F915F914F913F9126
:100A90002F910F900BBE0F900FBE0F901F901895C7
:100AA000DC01ED91FC910684F785E02D40E019947E
:100AB0008F929F92AF92BF92CF92DF92EF92FF926E
:100AC0000F931F93CF93DF93EC01423018F08C818A
:100AD00088608C834F836887222329F0413019F482
:100AE0008C8184608C8330D76B017C0184E6882EF6
:100AF000912CA12CB12C28D7DC01CB018C199D099C
:100B0000AE09BF09883E9340A105B105A0F321E0DD
:100B1000821A9108A108B10888EEC80E83E0D81E99
:100B2000E11CF11C81149104A104B10421F76C8132
:100B300064FD31C0E881F9810684F785E02D42E04B
:100B400063E0CE0119958BE496E40197F1F7E88113
:100B5000F9810684F785E02D42E063E0CE01199526
:100B600003E512E0C8010197F1F7E881F9810684F5
:100B7000F785E02D42E063E0CE011995C8010197A9
:100B8000F1F7E881F9810684F785E02D42E062E023
:100B9000CE01199514C06062CE0182DF8BE496E429
:100BA0000197F1F76C816062CE017ADF03E512E014
:100BB000C8010197F1F76C816062CE0171DFC80155
:100BC0000197F1F76C816062CE016ADF8BEE90E0F5
:100BD0000197F1F784E08D836CE0CE0161DF61E085
:100BE000CE015EDF8BE39FE10197F1F782E08E8318
:100BF00066E0CE0155DFE881F9810484F585E02DBA
:100C00006FEFCE01DF91CF911F910F91FF90EF9089
:100C1000DF90CF90BF90AF909F908F901994FF92EC
:100C20000F931F93CF93DF93EC01162F042FF22E17
:100C30008B85888B1DD6888991E090938E0D80934B
:100C4000B00D10928F0D1092B10DFED391E0811175
:100C500090E0998B811104C086EB9DE0BFDB8E870D
:100C60008989882331F01F861C8260E0CE010E96B0
:100C700047D42F2D402F612FCE01DF91CF911F91AF
:100C80000F91FF9015CFA0E8B0E01C92E1E8F0E0F2
:100C900010821092850010928400259A8C918064B5
:100CA0008C9387E090E09093890080938800808106
:100CB00089608083089580917B00877F80937B008B
:100CC0008091100220E4829FC001112480937C0057
:100CD00080917A00806480937A0080917A0086FD0A
:100CE000FCCF609178008091790070E0782B80E0F3
:100CF00090E00E94FF1620E030E040EA50E40E94BD
:100D00008D1720E030EC4FE754E40E946B1620E092
:100D100030E040E052E40E948D1720E030E040EAED
:100D200050E40E946B1620E030E048EC52E40E9450
:100D30008D170E94D316683522E0720728F41092AE
:100D40007C0210927D02089570937C0260937D0274
:100D50000895CF93C82F60E00DD5C43271F0C5322D
:100D6000B1F0C332E9F415D66093D4037093D50380
:100D70008093D6039093D70313C00BD66093D00310
:100D80007093D1038093D2039093D30309C001D60B
:100D90006093CC037093CD038093CE039093CF03E5
:100DA000CF910895F8941092460310924503109243
:100DB000030310920203789480933401E1E3F1E09D
:100DC000808188698083E2E3F1E0808186608083AE
:100DD0000895F8941092CB031092CA0310928803DE
:100DE0001092870378948093D400E1EDF0E0808145
:100DF00088698083E2EDF0E08081866080830895D9
:100E0000F89480916602909167027894891B8F73A1
:100E1000089581E08093C102F3DF8093C0020895BA
:100E2000F8949091660280916702981304C07894B8
:100E300080E092E0089578948091670290E00196B6
:100E40008F73992780936702FC01EB54F34F208145
:100E50008091B40C90E0982F8827820F911D0895FF
:100E6000F89480915E0290915F022091600230912F
:100E700061027894821B930B937008952091620213
:100E8000309163022F5F3F4F3370F89440916402BA
:100E900050916502789424173507B9F3F901EC54A1
:100EA000F74F808330936302209362028091C100E8
:100EB00080628093C1000895F89420915E02309181
:100EC0005F0280916002909161022817390721F436
:100ED000789480E092E008957894E0916002F09137
:100EE00061023196F370EC54FB4F20818091B30482
:100EF00090E0982F8827820F911D0895F8942091F3
:100F00005E0230915F028091600290916102281729
:100F1000390721F4789480E092E0089578948091E4
:100F200060029091610201969370909361028093A8
:100F30006002FC01EC54FB4F20818091B30490E0EF
:100F4000982F8827820F911D08951F920F920FB638
:100F50000F9211240BB60F928F939F93EF93FF93F1
:100F60009091030380910203981779F08091020316
:100F700090E001968F73992780930203FC01EE5352
:100F8000FD4F80818093360105C0809131018F7DB6
:100F900080933101FF91EF919F918F910F900BBE44
:100FA0000F900FBE0F901F9018951F920F920FB6C3
:100FB0000F9211240BB60F922F933F934F935F9391
:100FC0008F939F93EF93FF932091300130913601DF
:100FD00028718091460390E001968F739927409184
:100FE000450350E08417950739F080934603FC01D0
:100FF000EB5FFC4F308301C024E020930403FF919A
:10100000EF919F918F915F914F913F912F910F9011
:101010000BBE0F900FBE0F901F9018951F920F924E
:101020000FB60F9211240BB60F928F939F93EF93ED
:10103000FF939091880380918703981779F08091AE
:10104000870390E001968F73992780938703FC01B3
:10105000E95BFC4F80818093D60005C08091D10070
:101060008F7D8093D100FF91EF919F918F910F9091
:101070000BBE0F900FBE0F901F9018951F920F92EE
:101080000FB60F9211240BB60F922F933F934F93ED
:101090005F938F939F93EF93FF932091D0003091B4
:1010A000D60028718091CB0390E001968F73992729
:1010B0004091CA0350E08417950739F08093CB0321
:1010C000FC01E657FC4F308301C024E020938903E4
:1010D000FF91EF919F918F915F914F913F912F9150
:1010E0000F900BBE0F900FBE0F901F9018951F9280
:1010F0000F920FB60F9211240BB60F928F939F93FE
:10110000EF93FF939091BF028091BE02981779F000
:101110008091BE0290E001968F7399278093BE0262
:10112000FC01E258FD4F80818093CE0005C0809184
:10113000C9008F7D8093C900FF91EF919F918F919E
:101140000F900BBE0F900FBE0F901F9018951F921F
:101150000F920FB60F9211240BB60F922F933F935D
:101160004F935F938F939F93EF93FF932091C800CA
:101170003091CE0028718091660290E001968F73C5
:1011800099274091670250E08417950739F08093C2
:101190006602FC01EB54F34F308301C024E020933E
:1011A000B40CFF91EF919F918F915F914F913F917F
:1011B0002F910F900BBE0F900FBE0F901F901895A0
:1011C0001F920F920FB60F9211240BB60F922F930E
:1011D0003F938F939F93EF93FF93209162023091FF
:1011E000630280916402909165022817390789F0A3
:1011F00080916402909165020196937090936502CC
:1012000080936402FC01EC54F74F80818093C60008
:1012100005C08091C1008F7D8093C100FF91EF9147
:101220009F918F913F912F910F900BBE0F900FBE0A
:101230000F901F9018951F920F920FB60F921124C6
:101240000BB60F922F933F934F935F938F939F9380
:10125000EF93FF932091C0003091C60028718091D8
:101260005E0290915F0201969370409160025091EE
:1012700061028417950749F090935F0280935E02A4
:10128000FC01EC54FB4F308301C024E02093B304F5
:10129000FF91EF919F918F915F914F913F912F918E
:1012A0000F900BBE0F900FBE0F901F901895AF922E
:1012B000BF92CF92DF92EF92FF920F931F93CF9343
:1012C000DF93CDB7DEB7ADB6BEB6680196E0C90E06
:1012D000D11CADB7BEB7AC19BD090FB6F894BEBFEF
:1012E0000FBEADBFEDB7FEB731967F019DE31196FE
:1012F0009C93F8013296D7011196FC9311979CEFBD
:101300009C0D12969C93B0E48B9F600D1124F70105
:10131000638344830115110561F0F901ADB7BEB7D0
:101320001696200F311FE217F30719F081918D9364
:10133000FACFF701319680E00B5F1F4F9F012E1906
:101340003F092017310718F49191890FF7CFF70162
:10135000E00FF11F808384E2FCDC8701C8018E1955
:101360009F098C159D0528F4D8018D918D0186DD8E
:10137000F5CF0FB6F894BEBE0FBEADBEDF91CF91D4
:101380001F910F91FF90EF90DF90CF90BF90AF90A3
:1013900008950F931F93CF93DF938C01C0E0D0E0AB
:1013A000F801EC0FFD1F6491662339F082EC9DE09B
:1013B0009FD8892B11F02196F3CFCE01DF91CF91E9
:1013C0001F910F910895CF93DF93CDB7DEB7289784
:1013D0000FB6F894DEBF0FBECDBF40912F025091E3
:1013E000300260913102709132024D835E836F83CF
:1013F00078874091330250913402609135027091A8
:10140000360249835A836B837C832091C90D8217EE
:1014100010F08FEF820F3091CA0D90E0FE01E80FBF
:10142000F91F303121F4243011F4618101C065814C
:10143000606882EC9DE028960FB6F894DEBF0FBE80
:10144000CDBFDF91CF912CCB3091B10D313208F06F
:101450004BC080918D0D8111FCCF9091B00D22E099
:1014600020938D0D21E020938C0D2FEF20938B0D79
:1014700010928A0D3093890DE0E9FDE0A9E6BDE008
:1014800020E0321721F041914D932F5FFACF109257
:10149000680D2091680D990F922B9093680D909193
:1014A000670D913061F41092670D9091680D9093E3
:1014B000BB009091BC0093FDF8CF95EC01C095EE78
:1014C0009093BC0090918D0D9230E1F390918B0D33
:1014D0009F3F79F080918B0D803241F080918B0D90
:1014E000803331F084E005C081E003C082E001C0B8
:1014F00083E010928F0D1092B10D10928E0D089511
:10150000FC0183818823B9F0962F6181609569235E
:101510006083828191E090938E0D8093B00D109244
:101520008F0D1092B10D86EB9DE00E9436028CDF8C
:10153000282F30E002C020E030E081E090E0232B53
:1015400011F080E090E008953F924F925F926F9289
:101550007F928F929F92AF92BF92CF92DF92EF9243
:10156000FF920F931F93CF93DF934B015C016A01AE
:101570008901AB01BC01420F531F611D711D809198
:10158000E40D9091E50DA091E60DB091E70D841763
:101590009507A607B70708F4AAC0772473946624B2
:1015A0006A9495EE592E25EC422E0115110509F489
:1015B000A0C0C091DF0DD091E00DCE010197882130
:1015C0009921C81BD90BC8010132110510F080E226
:1015D00090E08C179D0708F4EC01D501C401009040
:1015E000E10D04C0B695A795979587950A94D2F713
:1015F000F090DB0DF82A70928E0DF092B00D1092E3
:101600008F0D1092B10D8091E20D9091E30D029734
:1016100041F499278B2D7A2D692D86EB9DE00E9450
:101620003602682D86EB9DE00E9436020DDF8111A7
:1016300061C080918D0D8111FCCF9C2F70928D0D1A
:1016400070928C0D60928B0D10928A0D8C2F8150B0
:101650008093890D7092680D8091680DFF0CF82AB7
:10166000F092680D8091670D813069F41092670DDA
:101670008091680D8093BB008091BC0083FDF8CF02
:101680004092BC0002C05092BC0080918D0D813010
:10169000E1F380918A0D891710F490918A0DA9E6E3
:1016A000BDE0E1E4FDE080E0891721F02D91219378
:1016B0008F5FFACF1092660D8093650D312CE32C6D
:1016C000F12CEC16FD0650F4EC0CFD1C86EB9DE0B5
:1016D0000E94EE01F70180833394F1CF8C0E9D1EA2
:1016E000A11CB11CCC0EDD1E0C1B1D0B5ECF89E0B6
:1016F00001C080E0DF91CF911F910F91FF90EF909B
:10170000DF90CF90BF90AF909F908F907F906F9021
:101710005F904F903F900895EF92FF920F931F9329
:10172000CF938C01FC0184E0C0E060FF02C095898A
:10173000C92B6695815031968111F7CF413011F454
:10174000F8014489F8018585C82BC42B7801FEE097
:10175000EF0EF11CF80162896C2BC701D1DEF80194
:10176000628960956C23C701CF911F910F91FF9003
:10177000EF90C6CE362F90E0FC01EF5AFD4F44911A
:10178000FC01E55FFD4F2491FC01EB53FE4F94916A
:10179000992309F46CC0442309F455C050E0FA01C0
:1017A0003197E231F10508F04EC08827EE57FF4F20
:1017B0008F4F0C94F017809180008F7707C0809135
:1017C00080008F7D03C080918000877F80938000A0
:1017D0003AC084B58F7702C084B58F7D84BD33C095
:1017E0008091B0008F7703C08091B0008F7D80938F
:1017F000B00029C0809190008F7707C08091900041
:101800008F7D03C080919000877F809390001BC0E4
:101810008091A0008F7707C08091A0008F7D03C0CA
:101820008091A000877F8093A0000DC0809120014F
:101830008F7707C0809120018F7D03C080912001A8
:10184000877F80932001E92FF0E0EE0FFF1FE55521
:10185000FE4FA591B4919FB7F894311104C08C91BB
:101860002095282302C0EC912E2B2C939FBF089526
:101870001092660D1092650D10928F0D1092B10DA1
:1018800010928D0D81E080938C0D1092670D61E0B8
:1018900084E170DF61E085E16DDFE9EBF0E08081FC
:1018A0008E7F808380818D7F808388E48093B800E1
:1018B00085E48093BC008CED91E09093640D80935F
:1018C000630D8DED91E09093620D8093610D08950D
:1018D000CF93DF9390E0FC01E55FFD4F2491FC0185
:1018E000EB53FE4F8491882361F190E0880F991F9C
:1018F000FC01EF56FE4FC591D491FC01E555FE4F1A
:10190000A591B491611109C09FB7F8948881209581
:1019100082238883EC912E230BC0623061F49FB741
:10192000F8948881322F309583238883EC912E2B75
:101930002C939FBF06C08FB7F894E8812E2B288385
:101940008FBFDF91CF9108953FB7F89480913D0DFF
:1019500090913E0DA0913F0DB091400D26B5A89BF2
:1019600005C02F3F19F00196A11DB11D3FBFBA2F31
:10197000A92F982F8827820F911DA11DB11DBC0191
:10198000CD0142E0660F771F881F991F4A95D1F756
:1019900008952FB7F8946091390D70913A0D8091A8
:1019A0003B0D90913C0D2FBF0895F3DFE2EBFDE07E
:1019B000908381837283638308951F920F920FB681
:1019C0000F9211242F933F938F939F93AF93BF93C5
:1019D0008091390D90913A0DA0913B0DB0913C0D45
:1019E0003091E80D23E0230F2D3720F40196A11D3F
:1019F000B11D05C026E8230F0296A11DB11D20933D
:101A0000E80D8093390D90933A0DA0933B0DB09360
:101A10003C0D80913D0D90913E0DA0913F0DB091F8
:101A2000400D0196A11DB11D80933D0D90933E0D7B
:101A3000A0933F0DB093400DBF91AF919F918F91B7
:101A40003F912F910F900FBE0F901F901895CF933D
:101A5000DF93CDB7DEB727970FB6F894DEBF0FBE82
:101A6000CDBF789484B5826084BD84B5816084BD27
:101A700085B5826085BD85B5816085BD80916E002C
:101A8000816080936E00109281008091810082605D
:101A9000809381008091810081608093810080919A
:101AA00080008160809380008091B1008460809389
:101AB000B1008091B00081608093B000809191006E
:101AC0008260809391008091910081608093910069
:101AD000809190008160809390008091A10082604D
:101AE0008093A1008091A10081608093A1008091EA
:101AF000A00081608093A00080912101826080938A
:101B00002101809121018160809321018091200138
:101B100081608093200180917A00846080937A00B4
:101B200080917A00826080937A0080917A0081604F
:101B300080937A0080917A00806880937A00109276
:101B4000C10062E082E0C4DE62E083E0C1DE61E009
:101B500083E2BEDE61E084E2BBDE61E085E2B8DE06
:101B600060E086E3B5DE83E2F4D884E2F2D885E271
:101B7000F0D861E086E1ACDE61E087E1A9DE61E0FA
:101B800088E1A6DE61E089E1A3DE61E08AE1A0DE12
:101B900061E08BE19DDE61E08CE19ADE61E08DE148
:101BA00097DE61E086E1E6DD61E087E1E3DD60E0AC
:101BB00088E1E0DD60E089E1DDDD60E08AE1DADD39
:101BC00060E08BE1D7DD60E08CE1D4DD60E08DE1A9
:101BD000D1DD9FE088E10FB6F894A895809360006E
:101BE0000FBE9093600089E097E09093010280938C
:101BF000000280916A008C7F826080936A00EC9A78
:101C000089E892E0909303028093020280916A0037
:101C1000837F886080936A00ED9AF89410925F0247
:101C200010925E02109261021092600210926302A2
:101C3000109262021092650210926402789483E01E
:101C40008093C4008091C10088698093C100809115
:101C5000C20086608093C200F894109266021092CF
:101C600067021092BF021092BE0278948FE78093B1
:101C7000CC008091C90088698093C9008091CA0016
:101C800086608093CA008FE7A4D88FE78BD8F0DDF9
:101C90008CE08093B8008091DB0D91E090938E0DE5
:101CA0008093B00D10928F0D1092B10D8091E20DC6
:101CB0009091E30D029729F460E086EB9DE00E948D
:101CC000360260E086EB9DE00E943602BDDB882391
:101CD00061F08FEF898301E010E09E012F5F3F4F9D
:101CE0004AEF6FE080E0E3DA9EC022E030E04AE7AE
:101CF00052E060E070E0CB0127DC882371F089833B
:101D000001E010E09E012F5F3F4F4CEF6FE080E05D
:101D1000CEDA10927A0210927B0228E030E042E79D
:101D200052E062E070E080E090E00EDC8823D1F0C9
:101D3000898301E010E09E012F5F3F4F4CEF6FE081
:101D400080E0B5DA1092720210927302109274025F
:101D50001092750210927602109277021092780219
:101D60001092790228E030E04AE652E06AE070E042
:101D700080E090E0E9DB8823D1F0898301E010E086
:101D80009E012F5F3F4F4CEF6FE080E090DA1092A2
:101D90006A0210926B0210926C0210926D02109205
:101DA0006E0210926F02109270021092710221E086
:101DB00030E049E652E06FEF70E080E090E0C4DB95
:101DC000882361F0898301E010E09E012F5F3F4F7F
:101DD0004CEF6FE080E06BDA1092690210926802BB
:101DE000C12CD12C760121E030E0AE014F5F5F4F76
:101DF000C701B601A9DB90E0009711F4898103C007
:101E000091958195910990916802890F809368025C
:101E10002FEFC21AD20AE20AF20A3FEFC316D10428
:101E2000E104F10401F720E044E064E182EC9DE08C
:101E30000E940F066FEF82EC9DE00E94AE0261E00F
:101E400082EC9DE00E9450050BE31FE1C801019761
:101E5000F1F762E082EC9DE00E945005C801019715
:101E6000F1F78CE791E095DA81E0ADDA87E691E071
:101E700090DA82E0A8DA82E591E08BDA83E0A3DAF7
:101E80008DE391E086DA81E0809310020E945B0688
:101E90000E944306E8E2F1E0A8EDB3E084918D935F
:101EA000319643E0AD3EB407C9F7F89480916002E3
:101EB0009091610290935F0280935E027894F8940F
:101EC0008091640290916502909363028093620214
:101ED0007894F89480916702809366027894F894DD
:101EE0008091BE028093BF027894F8948091CA03D7
:101EF0008093CB037894F894809187038093880330
:101F00007894F89480914503809346037894F894EC
:101F10008091020380930303789481E0898301E038
:101F200010E09E012F5F3F4F40E060E080E0BFD9AE
:101F300055245394A8950E945B060E94300703978E
:101F400058F11B825FEF5A8383E20E94A90621DDCC
:101F50006B017C0110E00E943007892B19F01111F0
:101F600004C036C3112309F44CC301E010E09E0104
:101F70002E5F3F4F46E06FE080E099D90DC01127FA
:101F80000130110509F423C508F01AC5FDD50FB6B7
:101F9000F8943EBE0FBE2DBE80911102882309F435
:101FA0007AC08091C102882309F4B5C08091C00233
:101FB000882309F440C0CDB6DEB68091C00290E01F
:101FC00004962DB73EB7281B390B0FB6F8943EBFC9
:101FD0000FBE2DBF4DB75EB74F5F5F4F7A01E5DC97
:101FE0008091B20DF70180838091B30D8183809140
:101FF000B40D82838091B50D838310E08091C0027F
:10200000181740F40E941007F701E10FF11D8483B7
:102010001F5FF4CF0091C00210E00C5F1F4F9701CB
:1020200041E067E081E043D91092C0020FB6F89416
:10203000DEBE0FBECDBE80910E04882349F120E0A4
:1020400080910D04281700F5E22FF0E0E351FC4FDA
:1020500030818091BF0290E001968F739927F894A8
:102060004091BE02789450E084179507C1F3FC01BB
:10207000E258FD4F30838093BF028091C900806297
:102080008093C9002F5FDCCF10920D0410920E04D4
:102090001092C10240C00E9400078823E1F1CDB632
:1020A000DEB690E004962DB73EB7281B390B0FB66D
:1020B000F8943EBF0FBE2DBF4DB75EB74F5F5F4F69
:1020C0007A0173DC8091B20DF70180838091B30DAA
:1020D00081838091B40D82838091B50D838310E05C
:1020E0008091C002181740F40E941007F701E10F19
:1020F000F11D84831F5FF4CF0091C00210E00C5FDC
:102100001F4F970141E067E081E0D1D80FB6F89406
:10211000DEBE0FBECDBE80911402882309F4D7C164
:1021200080911302882309F4E5C0F894F090CB0362
:102130008091CA03F81A8F2D8F73F82E7894882314
:1021400009F448C0E12C2091A40430E0F894909167
:10215000CB038091CA03981304C0789480E092E086
:1021600014C078948091CA0390E001968F739927E8
:102170008093CA03FC01E657FC4F4081809189039C
:1021800090E0982F8827840F911DF901EC57FB4FA1
:1021900080838091A4048F5F803218F48093A4041C
:1021A0000DC01092A404F2E0F98301E010E09E015A
:1021B0002F5F3F4F47E06FE080E079D8E394EF1066
:1021C000C2CFE7DB60938004709381048093820424
:1021D00090938304DEDB00918004109181042091B0
:1021E000820430918304DC01CB01801B910BA20B94
:1021F000B30B85369105A105B10508F44EC0B0902A
:10220000A404BB2009F449C0CDB6DEB60B2D10E006
:102210000C5F1F4F8DB79EB7801B910B0FB6F894C4
:102220009EBF0FBE8DBFEDB7FEB731967F01BDDB00
:102230008091B20DF70180838091B30D81838091ED
:10224000B40D82838091B50D8383A4E8B4E0349605
:1022500080E09D9191938F5FB812FBCF970140E092
:1022600067E082E024D81092A40480917C049091CD
:102270007D04A0917E04B0917F040196A11DB11D43
:1022800080937C0490937D04A0937E04B0937F049C
:102290000FB6F894DEBE0FBECDBE80917B048823BE
:1022A00049F120E080917A04281700F5E22FF0E050
:1022B000E65AFB4F30818091880390E001968F733E
:1022C0009927F89440918703789450E084179507F4
:1022D000C1F3FC01E95BFC4F30838093880380915C
:1022E000D10080628093D1002F5FDCCF10927A04FE
:1022F00010927B0480911202882309F4E8C0F894BC
:10230000F090460380914503F81A8F2D8F73F82EB5
:102310007894882309F449C0E12C2091590430E0D5
:10232000F8949091460380914503981304C07894E3
:1023300080E092E014C078948091450390E001968B
:102340008F73992780934503FC01EB5FFC4F40811D
:102350008091040390E0982F8827840F911DF90144
:10236000E75CFB4F8083809159048F5F803218F4C3
:10237000809359040EC01092590423E0298301E090
:1023800010E09E012F5F3F4F47E06FE080E00E942A
:102390005709E394EF10C1CFFCDA609335047093D2
:1023A00036048093370490933804F3DA00913504AF
:1023B000109136042091370430913804DC01CB01B0
:1023C000801B910BA20BB30B85369105A105B105BE
:1023D00008F450C0B0905904BB2009F44BC0CDB6EE
:1023E000DEB60B2D10E00C5F1F4F2DB73EB7201B44
:1023F000310B0FB6F8943EBF0FBE2DBF4DB75EB781
:102400004F5F5F4F7A01D1DA8091B20DF70180837F
:102410008091B30D81838091B40D82838091B50D3D
:102420008383A9E3B4E0349680E09D9191938F5F1C
:10243000B812FBCF970140E067E083E00E945709A4
:10244000109259048091310490913204A091330488
:10245000B09134040196A11DB11D80933104909375
:102460003204A0933304B09334040FB6F894DEBE64
:102470000FBECDBE80913004882349F120E08091C9
:102480002F04281700F5E22FF0E0E15FFB4F3081C9
:102490008091030390E001968F739927F8944091FF
:1024A0000203789450E084179507C1F3FC01EE53C2
:1024B000FD4F3083809303038091310180628093CC
:1024C00031012F5FDCCF10922F041092300461DABB
:1024D0004B015C016093A9047093AA048093AB0440
:1024E0009093AC0480911902882321F18091A50476
:1024F0009091A604A091A704B091A804B501A401ED
:10250000481B590B6A0B7B0B8091150290911602A8
:10251000A0E0B0E0481759076A077B0758F080929F
:10252000A5049092A604A092A704B092A80485E204
:102530000E94A906C0901702D0901802E12CF12C3D
:102540008091D4039091D503A091D603B091D70385
:10255000A5019401281B390B4A0B5B0B2C153D057B
:102560004E055F0518F061E083E204D98091D00345
:102570009091D103A091D203B091D303A50194010E
:10258000281B390B4A0B5B0B2C153D054E055F05CF
:1025900018F061E084E2EED88091CC039091CD03F5
:1025A000A091CE03B091CF03881A990AAA0ABB0A58
:1025B0008C149D04AE04BF0418F061E085E2DAD803
:1025C00040E050E0452B09F4B5CC0E940000B0CCAF
:1025D0000E945C078D33A9F00E945C078E3389F05E
:1025E0000E947E07D6D9DC01CB018C199D09AE096A
:1025F000BF0911E0893C9105A105B10508F0ABCCFC
:10260000A9CC0E943007892B09F4C6CC0E947E0712
:102610008D3309F041C02DB63EB60E947E078E83F1
:102620000E947E07482E8E818D831C82EC80FD8067
:10263000E40CF11C87010F5F1F4F92E0E91AF108CB
:10264000EBEFEE16E3E0FE0638F001E010E09E014D
:102650002E5F3F4F41E01BC09CD94B015C01D12C48
:102660000E94300780179107A0F5DD2019F101E0E5
:1026700010E09E012E5F3F4F46E009C0841509F42B
:102680006AC001E010E09E012E5F3F4F45E06FE021
:1026900080E00E9457097BCC8E3309F07DCC0AE1A3
:1026A00012E0F80181918F01882309F475CC0E9412
:1026B0003E07F7CF6ED9DC01CB0188199909AA0929
:1026C000BB09DD24D39485369105A105B10540F6FB
:1026D000C6CFD110CCCF0E947E075C010E947E073E
:1026E0008C018F833701F1E06F1A71082DB73EB767
:1026F0002E193F090FB6F8943EBF0FBE2DBF4DB740
:102700005EB74F5F5F4F6A01E114F10479F04A014F
:102710000E947E07F40181934F01CF018C199D091E
:102720008E159F05A8F39924939401C0912C0E94C3
:102730007E07FE814F0E4A0C400E992009F49ECF71
:10274000F6019F012C193D092E153F0508F096CF83
:102750009191490EF6CF8A2D8F70F501FF27B4E0D5
:10276000F595E795BA95E1F7E370E23009F47CC19D
:10277000E33009F499C1E13009F443C190E0FC0170
:102780008827EE58FF4F8F4F2BC401E010E09E01C9
:102790002D5F3F4F40E060E080E00E94570960E01D
:1027A00085E20E94BA0BFFCF05E110E028ED33E08F
:1027B00040E061E080E00E9457092F81213009F05C
:1027C000E6CBE2D115C101E010E09E012D5F3F4F45
:1027D00040E062E05DCF112701301105A1F128F042
:1027E0000230110509F458C096C1992009F456C069
:1027F00034E0E316F10408F451C0F601808190E062
:10280000982F88272181820F911D009719F410922B
:10281000190206C090931602809315025092190275
:10282000F601228130E0322F22274381240F311D0F
:10283000892B21F0309318022093170204E010E056
:10284000960140E0BBC0992049F1F60180818823C0
:1028500019F08130A1F022C0809111028823F1F09B
:102860001092110210928000109281001092850047
:1028700010928400109289001092880008C09091F4
:10288000110291110BC0809311020E94430601E0D6
:1028900010E0960141E092C0911007C001E010E005
:1028A0009E012E5F3F4F44E0F2CEF6018081182F4B
:1028B0001170082F087082FD36C0111112C050929D
:1028C00013021092120261E086E10E94BA0B61E0ED
:1028D00087E10E94BA0B60E088E10E94BA0B60E0D9
:1028E00011C0109213025092120260E086E10E9421
:1028F000BA0B60E087E10E94BA0B61E088E10E94B8
:10290000BA0B61E089E10E94BA0B60E08AE10E94A3
:10291000BA0B60E08BE10E94BA0B60E08CE10E9490
:10292000BA0B60E024C0111103C05092130202C020
:102930005092120260E086E10E94BA0B60E087E1EB
:102940000E94BA0B60E088E10E94BA0B60E089E166
:102950000E94BA0B61E08AE10E94BA0B61E08BE150
:102960000E94BA0B61E08CE10E94BA0B61E08DE13C
:102970000E94BA0B9091130280911202992329F0C0
:10298000882339F05092140204C0811102C01092C1
:102990001402111108C0011102C08FE701C08FE0BD
:1029A0000E94E90607C0011102C08FE701C08FE055
:1029B0000E94D20601E010E0960142E063E068CE9A
:1029C0000230110561F00330110591F0A4C00E949E
:1029D000D50C04E010E022EB3DE041E007C00E948E
:1029E0005B0602E010E02CE732E042E065E050CE0A
:1029F000A0D0CDCA01E010E09E012D5F3F4F40E026
:102A000046CE863009F08EC011270130110509F03D
:102A100051C0E114F10409F441CF20E0822F90E08D
:102A20008E159F0550F4FC01E351FC4FD601A80F11
:102A3000B91F8C9180832F5FF1CFE0920D04EDEEF2
:102A4000F3E080E09F012D5E33402615370518F432
:102A50009191890FF7CFF301E351FC4F90819813C7
:102A6000808350920E0493CA863009F05BC0112710
:102A700001301105F9F4E114F10409F40FCF20E05D
:102A8000822F90E08E159F0550F4FC01E65AFB4F13
:102A9000D601A80FB91F8C9180832F5FF1CFE092F0
:102AA0007A0450927B0473CA8630E1F51127013015
:102AB0001105B1F00130110558F00230110559F53A
:102AC000E98301E010E09E012F5F3F4F42E021C00B
:102AD000E98301E010E09E012F5F3F4F40E019C005
:102AE000E114F10409F4DACE20E0822F90E08E1593
:102AF0009F0550F4FC01E15FFB4FD601A80FB91F01
:102B00008C9180832F5FF1CFE0922F04509230049C
:102B10003ECA66E0BDCD01E010E09E012E5F3F4F52
:102B200043E0B5CD01E010E09E012E5F3F4F42E053
:102B3000AECD0F931F93CF93DF931F921F92CDB70C
:102B4000DEB7809169029091680289130AC01982E8
:102B50008A8302E010E09E012F5F3F4F43E065E073
:102B600009C089839A8302E010E09E012F5F3F4FE6
:102B70004BEF6FE080E00E9457090F900F90DF91BC
:102B8000CF911F910F9108950F931F93CF93DF93D0
:102B9000CDB7DEB76A970FB6F894DEBF0FBECDBFD4
:102BA000EAE7F2E08081898381818A83E2E7F2E0CB
:102BB00080818B8381818C8382818D8383818E83CD
:102BC00084818F83858188878681898787818A87A9
:102BD000EAE6F2E080818B8781818C8782818D8714
:102BE00083818E8784818F878581888B8681898B7D
:102BF00087818A8B1B8A1C8A1D8A1E8A8CE58F8B93
:102C00008EE1888F8FE1898F8CEF8A8F0AE110E047
:102C10009E012F5F3F4F40E065E080E00E94570932
:102C20006A960FB6F894DEBF0FBECDBFDF91CF918D
:102C30001F910F910895E6EBFDE01382128288EE5A
:102C400093E0A0E0B0E084839583A683B7838BE311
:102C500092E091838083EBEDFDE020E230E032836F
:102C6000218381E083833583248390E5908340E052
:102C700050E160E070E0418752876387748722E00B
:102C800030E0308727839CE09683E2ECFDE01382FE
:102C900012822DE432E031832083108A9FEF9787E0
:102CA0001686118A97E293871486158612861186F6
:102CB00094E0928B92E0938B848B80E1858B80E211
:102CC000868B80E4878B80E8808F40E050E063E073
:102CD000CF010C9464020CD0E6C0DED040F0D5D019
:102CE00030F021F45F3F19F0C7C0511110C1CAC0C4
:102CF000EBD098F39923C9F35523B1F3951B550BEA
:102D0000BB27AA2762177307840738F09F5F5F4FBE
:102D1000220F331F441FAA1FA9F333D00E2E3AF0FF
:102D2000E0E830D091505040E695001CCAF729D019
:102D3000FE2F27D0660F771F881FBB1F2617370768
:102D40004807AB07B0E809F0BB0B802DBF01FF2798
:102D500093585F4F2AF09E3F510568F08DC0D7C051
:102D60005F3FECF3983EDCF3869577956795B795D2
:102D7000F7959F5FC9F7880F911D9695879597F9ED
:102D80000895E1E0660F771F881FBB1F6217730766
:102D90008407BA0720F0621B730B840BBA0BEE1F7B
:102DA00088F7E095089598D088F09F5790F0B92F54
:102DB0009927B751A0F0D1F0660F771F881F991F90
:102DC0001AF0BA95C9F712C0B13081F09FD0B1E0C6
:102DD00008959CC0672F782F8827B85F39F0B93FD6
:102DE000CCF3869577956795B395D9F73EF4909592
:102DF0008095709561957F4F8F4F9F4F0895E89410
:102E000009C097FB3EF490958095709561957F4F32
:102E10008F4F9F4F9923A9F0F92F96E9BB279395E0
:102E2000F695879577956795B795F111F8CFFAF4F0
:102E3000BB0F11F460FF1BC06F5F7F4F8F4F9F4F21
:102E400016C0882311F096E911C0772321F09EE87F
:102E5000872F762F05C0662371F096E8862F70E0E5
:102E600060E02AF09A95660F771F881FDAF7880FBF
:102E70009695879597F9089597F99F6780E870E090
:102E800060E008959FEF80EC089500240A941616E0
:102E9000170618060906089500240A941216130648
:102EA000140605060895092E0394000C11F48823D6
:102EB00052F0BB0F40F4BF2B11F460FF04C06F5FF2
:102EC0007F4F8F4F9F4F089557FD9058440F551FC8
:102ED00059F05F3F71F04795880F97FB991F61F09C
:102EE0009F3F79F087950895121613061406551F13
:102EF000F2CF4695F1DF08C0161617061806991F7F
:102F0000F1CF86957105610508940895E894BB2773
:102F100066277727CB0197F908950BD0C4CFB5DF8B
:102F200028F0BADF18F0952309F0A6CFABCF112413
:102F3000EECFCADFA0F3959FD1F3950F50E0551F58
:102F4000629FF001729FBB27F00DB11D639FAA27FE
:102F5000F00DB11DAA1F649F6627B00DA11D661F4D
:102F6000829F2227B00DA11D621F739FB00DA11D6E
:102F7000621F839FA00D611D221F749F3327A00D28
:102F8000611D231F849F600D211D822F762F6A2FC4
:102F900011249F5750408AF0E1F088234AF0EE0F49
:102FA000FF1FBB1F661F771F881F91505040A9F756
:102FB0009E3F510570F060CFAACF5F3FECF3983E83
:102FC000DCF3869577956795B795F795E7959F5FBD
:102FD000C1F7FE2B880F911D9695879597F9089557
:102FE000EE0FFF1F881F8BBF0790F691E02D1994FD
:0C2FF00081E090E0F89400C0F894FFCF5E
:102FFC007F017F017F017F017F017F017F017F01C5
:10300C00010101010188133200014920474F54206E
:10301C00594F5552204D455353414745210A000005
:10302C00401454004010500000000036020A028682
:10303C0002DE010202EE01DF0100000000780280D6
:0E304C0001860285020F066402AE028F0200AA
:00000001FF
