:020000040000FA
:100000000C943D070C948E350C9463350C94383564
:100010000C940D350C94E2340C94B7340C948C345D
:100020000C9461340C946E070C946E070C946E075C
:100030000C946E070C946E070C946E070C946E076C
:100040000C946E070C94B9350C946E070C946E07E3
:100050000C946E070C946E070C946E070C94173476
:100060000C946E070C9423390C94DE380C946E07B4
:100070000C946E070C946E070C946E070C946E072C
:100080000C9406360C946E070C946E070C946E0755
:100090000C9459360C9426360C946E070C949A36B0
:1000A0000C946E070C946E070C946E070C946E07FC
:1000B0000C946E070C946E070C946E070C946E07EC
:1000C0000C946E070C946E070C946E070C948F388A
:1000D0000C944E380C946E070C94FF370C94BE377A
:1000E0000C946E070C9455080C948B080C94F8072C
:1000F0000C9478080C94044B0C94FF420C94AB08BD
:100100000C94A1080C94320C0C94C2440C947C3DC9
:100110000C94850B0C94620B0C948D070C945A086C
:100120000C940D430C9493080C94A7080C94740839
:100130000C94600C0C94E34E0C947B080C943643A6
:100140000C949D080C94B5240C94DE090C94334354
:100150000C94B90B0C9499080C94F3090C946C084A
:100160000C94FD4A0C9485080C948C070C9481081F
:100170000C948C0B0C9493440C940E110C947008FA
:100180000C94720B0C94DD090C94310C0C948F08B8
:100190000C94630B37800280FA000144F810B71604
:1001A000F820378700A2F8303787015AF8403787A0
:1001B000019AF84537870038B6DAF511FA00012EB2
:1001C000B7D217657C0C7601B7F417EA7C0F37B508
:1001D0000043FA00015427F717657C0D76427840FA
:1001E000B6F217E57C0F27F737B00001B6F627F710
:1001F000274CF546FA00012EFA000144379CFA001C
:10020000012EFA00014417FA01B4FA00012EFA0097
:10021000014417FA01B517FC01B4FA00012EFA00E7
:10022000014417FA015CFA00012EFA00014417FAA2
:10023000015DFA00012EC500FA00012E3C012731B4
:10024000015CB6EE3780FF4E274CF521FA00012EF7
:10025000FA000144379CFA00012EFA00014417FA13
:1002600001B4FA00012EFA00014417FA01B5FA00B0
:10027000012E17FC01B4FA000268FA00025237B5E9
:10028000001F37FA029E2A107922000EFA0002524D
:10029000FA00023C2731029EB718FA000244FA0025
:1002A000023237B60080B7DAFA00023237B6007889
:1002B000B6D0F522B000FA000232FA00012EFA00A0
:1002C000023C3780FED037B500708A00850027F7E2
:1002D00037B500508A0027F737B500208A0037B5B8
:1002E00000D08A0027F737E5790A37B1F42437EAD6
:1002F000791617E579222810792227F71725791E14
:10030000F50617EA792127F7F531FA00012EFA00F0
:1003100002A0FA00037C2775FA00014427DA7C0169
:100320003778029EB6EE2775F522FA00012E378047
:10033000FE64274CFA00014417FA029EFA00012ECF
:10034000FA00014417FA029FFA00012E27F7F5413F
:10035000FA00012EFA00034EFA00037CFA00023C78
:10036000FA000268FA00025237B5001F37FA01B4EA
:100370002A107922000EFA000252FA00023C2731BC
:1003800001B4B748FA00023237B60080B7DE2795CD
:1003900037B8FFFFB72037B50040278A2795278A4F
:1003A000FA00023237B60078B6C27C023778029E75
:1003B000B6AAFA000346F522B014FA0003462785D0
:1003C0002790B6002785B0DEFA000346F501B0FE9F
:1003D000F580FA00012E3780FDBC37B500FF278A73
:1003E00027F7FA000144379CFA00012EFA00014475
:1003F00017FA01B4FA00012EFA00014417FA01B508
:10040000FA00012EFA0002A017FC01B4277527F7A5
:10041000F500379D37BD038627F7373B00E0F50F22
:10042000379E37BE8000F500379F37BF07F617E5C8
:100430007A02F883B70037BF0FF6371527FA379DD2
:1004400037B5014837EA7A0028807A2137B500CFDE
:1004500037EA7A4437B5040537EA7A4837EA7A4CFE
:1004600037B568F037EA7A4A37B570F037EA7A4E2E
:1004700037B5FF8837EA7A5437B5783037EA7A5695
:1004800037B5F88137EA081437E5081237B70001A5
:1004900037EA081237B5000037EA08182729080696
:1004A000FFFF2729080803FF27F53735082427AA67
:1004B0007C0437380838B3F41725792027280860DA
:1004C0002000FA00043CF522FA00012E3780FCC619
:1004D00037B5408837EA7C007506176A7C0475FEDC
:1004E000176A7C057533176A7C1675F8176A7C15D0
:1004F00075FE176A7C1737B5810837EA7C1837B55F
:10050000100037EA7C1A37B5000037EA7C1C75000A
:10051000176A7C1E37354242376A7D413735020201
:10052000376A7D433735C202376A7D453735C24267
:10053000376A7D4837B5010037EA7D2437B50202B6
:1005400037EA7C1CFA0004B627F728807C1F298034
:100550007C1A37053701B70A2A807C1FFFF62880EE
:100560007C1F3706B002373B010037FC27F7378086
:1005700000ACFA000198F810B702F820B758B6EEB0
:10058000F511FA000182FA00019817FA01B017F587
:1005900001B0FA000182FA00019817FA01B117F5CB
:1005A00001B1FA000182F500379C37BC0200FA0065
:1005B0000198CA00C500FA0001823C01273101B050
:1005C000B6E837B50FA0FA0001A8F504379C37BC90
:1005D0008000F514FA000182B094F521FA0001823E
:1005E000FA000200B088FA000198FA00018227F7A9
:1005F00017657C0C7601B7F417EA7C0F37B50190CC
:10060000FA0001A827F717657C0D76427840B6F20C
:1006100017E57C0F27F737B00001B6F627F7274C10
:10062000373B00E0F50F379E37BE8000F500379F5F
:1006300037BF07F6371527FA379DF504379C37BCC7
:10064000800037B5014837EA7A0028807A2137B52B
:1006500000CF37EA7A4437B5040537EA7A4837EAF3
:100660007A4C37B568F037EA7A4A37B570F037EA2E
:100670007A4E37B5FF8837EA7A5437B5783037EA9B
:100680007A5637B5F88137EA081437E5081237B7D4
:10069000000137EA081237B5000037EA08182729A1
:1006A0000806FFFF2729080803FF27F53735082428
:1006B00027AA7C0437380838B3F217257920272871
:1006C00008602000FA000264F522FA0001827A0034
:1006D000010437B5408837EA7C007506176A7C0448
:1006E00075FE176A7C057533176A7C1675F8176AEC
:1006F0007C1575FE176A7C1737B5810837EA7C18B8
:1007000037B5100037EA7C1A37B5000037EA7C1C91
:100710007500176A7C1E37354242376A7D4137358E
:100720000202376A7D433735C202376A7D45373565
:10073000C242376A7D4837B5010037EA7D2437B5B4
:10074000020237EA7C1CFA0002DE27F728807C1FB1
:1007500029807C1A37053701B70A2A807C1FFFF6EB
:1007600028807C1F3706B004373B010037FCF5A515
:1007700027F7378000ACFA000198F810B702F8208C
:10078000B758B6EEF511FA000182FA00019817FA8F
:1007900001B017F501B0FA000182FA00019817FACA
:1007A00001B117F501B1FA000182F500379C37BCA1
:1007B0000200FA000198CA00C500FA0001823C015B
:1007C000273101B0B6E837B50FA0FA0001A8F5044B
:1007D000379C37BC8000F514FA000182B094F521F3
:1007E000FA000182FA000200B088FA000198FA00CB
:1007F000018227F717657C0C7601B7F417EA7C0FA6
:1008000037B50190FA0001A827F717657C0D7642ED
:100810007840B6F217E57C0F27F737B00001B6F63F
:1008200027F7274C373B00E0F50F379E37BE800097
:10083000F500379F37BF07F6371527FA379DF504C0
:10084000379C37BC800037B5014837EA7A002880EA
:100850007A2137B500CF37EA7A4437B5040437EA4E
:100860007A4837EA7A4C37B568F037EA7A4A37B5CA
:1008700070F037EA7A4E37B5FF8837EA7A5437B5E1
:10088000783037EA7A5637B5F88137EA081437E511
:10089000081237B7000137EA081237B5000037EA07
:1008A000081827290806FFFF2729080803FF27F54E
:1008B0003735082427AA7C0437380838B3F21725BF
:1008C0007920272808602000FA000264F522FA0047
:1008D00001827A00010437B5408837EA7C0075064A
:1008E000176A7C0475FE176A7C057533176A7C16D7
:1008F00075F8176A7C1575FE176A7C1737B581087D
:1009000037EA7C1837B5100037EA7C1A37B5000093
:1009100037EA7C1C7500176A7C1E37354242376AFD
:100920007D4137350202376A7D433735C202376A67
:100930007D453735C242376A7D4837B5010037EA11
:100940007D2437B5020237EA7C1CFA0002DE27F765
:1009500028807C1F29807C1A37053701B70A2A8036
:100960007C1FFFF628807C1F3706B004373B010050
:1009700037FCF5A527F74343442F53434900202074
:1009800000205343414E4E45522056004348525991
:10099000534C4552204343442F534349002D2D2DA2
:1009A0002D2D2D2D2D2D2D2D2D2D2D2D2D2D2D2D77
:1009B0002D0020202020002020205343414E4E4572
:1009C00052205600202043485259534C4552204350
:1009D00043442F5343492020002D2D2D2D2D2D2D07
:1009E0002D2D2D2D2D2D2D2D2D2D2D2D2D0020207E
:1009F00020203072706D00202030204320202020E5
:100A000020302E306B5061002020306B6D2F68201D
:100A1000202020203072706D002020202020302ED9
:100A20003030306B6D20202020202020200020300E
:100A30002E302F20302E3056202020202020202025
:100A40002020002020302F20203020432020202074
:100A500020302E306B5061002020306B6D2F6820CD
:100A60002020203072706D20202030250020202092
:100A7000203072706D002020302046202020202061
:100A8000302E30707369002020306D706820202077
:100A90002020203072706D002020202020302E3049
:100AA00030306D6920202020202020200020302E92
:100AB000302F20302E3056202020202020202020B3
:100AC00020002020302F20203020462020202020F1
:100AD000302E30707369002020306D706820202027
:100AE00020203072706D2020203025000000210071
:100AF000240027002A002D003000330001010000EF
:100B0000040107010A0100002200250028002B0033
:100B10002E003100340002010000050108010B0124
:100B200005050505070508080808020202020A0A69
:100B30000808040404040101010101010101030387
:100B4000030303030303040707070C0C0C0C0C0C32
:100B50000C0C0202020206060606060606060B0B2F
:100B60000B0B0B0B0B0B0102102020080810204070
:100B70001020408002010201080402010102040861
:100B800010204080804020100804020180040201EF
:100B90008040201008040201080402010102040838
:100BA00010204080010204081020408000000A0B41
:100BB00002090C0D0E0807030401000000000000EC
:100BC0000000000000000000000000000000000025
:100BD00000000000000000001211100000000000E2
:100BE0000000000000000000000000000000000005
:100BF0000000F504379C37BC000037B500008A00C0
:100C0000FA000226B50CC500FA0002AE3C012731FD
:100C100002D4B6EEB0E627F7FA000232B400373B52
:100C2000010027F7FA0002BCF833B708F835B7001F
:100C30003710B05EF522B05AF534FA0002AEFA0071
:100C400002BC3707F104379C3717FA0002AEFA00EE
:100C500002BC17FA02D4FA0002AEFA0002BC17FA7C
:100C600002D517FC02D4FA0002AEFA0002BC17FA51
:100C700002D4FA0002AEFA0002BC17FA02D5FA005A
:100C800002AE37F502D437B80000B704373AFEFF9A
:100C900027F5B006F580FA0002AE373B010027F7D2
:100CA00017657C0C7601B7F417EA7C0F27F71765F8
:100CB0007C0D76427840B6F217E57C0F27F737B007
:100CC0000001B6F627F7274CF504379C37BC000027
:100CD00037B53E80FA00025437B500908A00C5014E
:100CE000FA000236C503FA00023637B5FFFF8A0064
:100CF00037B5FFFF8A0037B500008A0027F7176570
:100D00007C0C7601B7F417EA7C0F27F717657C0D8A
:100D100076427840B6F217E57C0F27F737B000012E
:100D2000B6F627F7373501E8FA0002E6B50E760881
:100D3000B602FA000254B000FA00021EFA0002667F
:100D400027F737AD370737AC3405F504379D37BD86
:100D5000020055017804B20E370B3717379CDC02BE
:100D600037350014FA00033AB000FA000254355047
:100D7000379C3717379D27F737350014F5FFFA00F2
:100D800002C037300001B6F027F7373501E2FA002C
:100D900002E634013717FA0002C03540FA0002C0FB
:100DA0007C02373801E6B6E2373501E9FA0002E69F
:100DB00034013717FA0002C03540FA0002C0373557
:100DC00001E7FA0002E634013717FA0002C03540A5
:100DD000FA0002C0373501EFFA0002E63717FA00D1
:100DE00002C027F717657C0C7601B7F417EA7C0F71
:100DF00037B50190FA00034A27F717657C0D764254
:100E00007840B6F217E57C0F27F727FB3704370445
:100E10003704770337EA7D3037B5090837EA7C1C99
:100E2000FA000314B50C37E57D123706B004373BE2
:100E3000010037FCF55A27F728807C1F29807C1A8F
:100E400037053701B70A2A807C1FFFF628807C1FF0
:100E50003706B004373B010037FCF5A527F7C5007E
:100E6000FA0002C03C0137300001B6EE27F737B078
:100E70000001B6F627F77C3DE34E11241FBECFEFED
:100E8000D1E2DEBFCDBF00E00CBF13E0A0E0B2E0D6
:100E9000EAE6F9EA00E00BBF02C007900D92AE311E
:100EA000B107D9F725E1AEE1B3E001C01D92A93148
:100EB000B207E1F717E0CCE3D7E000E006C02197E6
:100EC0000109802FFE010E94A353CB33D10780E09C
:100ED0000807A9F70E94D23D0C94A3540C9400007B
:100EE000F8949091E70F8091E60F981304C07894DE
:100EF00080E092E008957894E091E60FEF5FF0E0F3
:100F0000EA51F14F20819091E50E892F90E0982FC2
:100F10008827820F911D0895089508952091FD0F4F
:100F2000222309F447C0E22FE695E695E695F0E026
:100F3000E15DFF4E808190E0277002C09595879516
:100F40002A95E2F780FD36C0809129108823A9F107
:100F500080910D10823088F1E0910D10E15090E009
:100F600080E020E08E1740F4DC01A451B04F519690
:100F70003C91230F0196F6CFF0E0E451F04F8189C8
:100F800028130DC080E090910D10891718F5E82FF7
:100F9000F0E0E451F04F918990838F5FF4CFE091BE
:100FA0005110F0915210309729F060E970E090E014
:100FB00080E0199510920D10089580E090910D1029
:100FC000891740F4E82FF0E0E451F04F91899083C5
:100FD0008F5FF4CF60910D106093FC0FE0914F1084
:100FE000F0915010309731F38CEE9FE01995E2CFDD
:100FF000AF92BF92CF92DF92EF92FF920F931F9327
:10100000CF93DF936C017B018B01040F151FEB0164
:101010005E01AE18BF08C017D10759F06991D6011B
:10102000ED91FC910190F081E02DC6011995892B7D
:1010300079F7C501DF91CF911F910F91FF90EF904C
:10104000DF90CF90BF90AF900895282F30E0F90146
:10105000E455F44F9491F901EA59F44F4491205E1C
:10106000344FF9012491222309F435C0992311F159
:1010700091509231F8F4E92FF0E08827ED5BF74FBB
:101080008F4F0C94A3537408780855086C087008A7
:101090005A087B08810885088B088F0893089908EF
:1010A0009D085A08A108A708AB08809180008F7797
:1010B00080938000E22FF0E0EE0FFF1FEA5FF44F15
:1010C000A591B4918FB7F894EC91611148C0409507
:1010D0004E234C938FBF0895809180008F7DE8CF81
:1010E00080918000877FE4CF84B58F7784BDE2CF85
:1010F00084B58F7DFBCF8091B0008F778093B00057
:10110000D9CF8091B0008F7DF9CF809190008F77FB
:1011100080939000CFCF809190008F7DF9CF809108
:101120009000877FF5CF8091A0008F778093A000FB
:10113000C1CF8091A0008F7DF9CF8091A000877FE3
:10114000F5CF809120018F7780932001B3CF8091DC
:1011500020018F7DF9CF80912001877FF5CF4E2B25
:10116000B8CFCF93DF9390E0FC01EA59F44F24917C
:10117000805E944FFC0184918823C9F090E0880F31
:10118000991FFC01E451F54FA591B491FC01EA5F70
:10119000F44FC591D49161110DC09FB7F8948C9113
:1011A000209582238C938881282328839FBFDF91F9
:1011B000CF910895623051F49FB7F8943C91822FFB
:1011C000809583238C93E8812E2BEFCF8FB7F894F3
:1011D000EC912E2B2C938FBFEACF863308F08653E9
:1011E00020917B00982F9870277F922B90937B0003
:1011F00020914B0290E4299F900111248770822B4B
:1012000080937C0080917A00806480937A00809142
:101210007A0086FDFCCF8091780090917900089546
:101220003FB7F89480917A0E90917B0EA0917C0E3E
:10123000B0917D0E26B5A89B05C02F3F19F00196F1
:10124000A11DB11D3FBFBA2FA92F982F8827BC0120
:10125000CD01620F711D811D911D42E0660F771F48
:10126000881F991F4A95D1F708958F929F92AF9248
:10127000BF92CF92DF92EF92FF924B015C010E94EE
:1012800010096B017C010E9410096C197D098E09FF
:101290009F09683E734081059105A8F321E0821AF9
:1012A0009108A108B10888EEC80E83E0D81EE11CA1
:1012B000F11C81149104A104B10429F7FF90EF906F
:1012C000DF90CF90BF90AF909F908F9008952FB7F1
:1012D000F8946091760E7091770E8091780E9091CF
:1012E000790E2FBF08950E9467096093E10E7093F5
:1012F000E20E8093E30E9093E40EEDEDFEE090831A
:101300008183728363830895CF92DF92EF92FF927D
:10131000582FFC0130E020E0261748F44191D90114
:10132000A451B04F92964C932F5F3F4FF5CF209131
:101330002A102223A9F0623098F02FEF260FFC012B
:1013400040E03191430F3E2F351B3217D0F330E090
:10135000F901E451F04F42A3820F931FFC01408337
:1013600010921E1060931F100E9467096B017C0190
:1013700080E090912110911111C081111CC00E9438
:101380006709AB01BC014C195D096E097F0981E059
:10139000483E53406105710560F7EACF81110BC0EB
:1013A0008091C90080628093C90080E0FF90EF9037
:1013B000DF90CF90089582E0F9CF089510928500D4
:1013C00010928400E1E8F0E0808185608083ED98F0
:1013D0008DED99E09093570280935602ECEEFFE07A
:1013E00015AA16AA0895649B05C0109221101092A8
:1013F000221008951092950010929400809191000F
:1014000085608093910081E08093211080910D1080
:1014100081110C948E0708952091520E260F3327C8
:10142000331F21323105ECF420917910FC0190E05A
:1014300080E0243069F082E00895A091520E21915D
:10144000AC014E5C514FA40FB52FB11D2C930196EA
:10145000861798F38091520E680F6093520E80E0C9
:10146000089581E008951092791081E080937810BA
:101470001092531061E084E10E94250861E085E14B
:101480000E942508E9EBF0E080818E7F80838081D7
:101490008D7F808388E48093B80085E48093BC00CE
:1014A0000895CF93DF9391E09093310E8823B9F0A4
:1014B000C091B800D091BA008091BC008A7B809323
:1014C000BC0060E084E10E94250860E085E10E94A4
:1014D00025080E94330AD093BA00C093B800DF9168
:1014E000CF9108958F929F92AF92BF92CF92DF9249
:1014F000EF92FF920F931F93CF93DF93D091A2109F
:10150000D13208F0D7C0182FC091A1100E94100945
:101510006B017C018091791081116BC082E0809316
:101520007910109378108FEF8093771010927610C7
:10153000D0937510A1E8B0E1E5E5F0E180E0D813C3
:1015400091C01092541080915410CC0FC82BC093AE
:10155000541080915310813009F088C010925310BC
:101560000E9410096B017C01809154108093BB0094
:1015700080917B1090917C10A0917D10B0917E1095
:10158000892B8A2B8B2BA1F00E94100900917B10D4
:1015900010917C1020917D1030917E106C197D0986
:1015A0008E099F09061717072807390708F442C054
:1015B0008091BC0083FDD8CF85EC8093BC000E9455
:1015C00010096B017C0180917910823009F450C0C0
:1015D000809177108F3F09F46FC08091771080322F
:1015E00009F46CC080917710803309F469C084E0FD
:1015F00026C080917B1090917C10A0917D10B091BD
:101600007E10892B8A2B8B2B09F484CF0E94100922
:1016100080907B1090907C10A0907D10B0907E10F8
:101620006C197D098E099F0986169706A806B906CA
:1016300008F070CF80917A100E94510A85E01092D4
:1016400080101092A21010927F10DF91CF911F9105
:101650000F91FF90EF90DF90CF90BF90AF909F9051
:101660008F9008959D9191938F5F69CF85EEA5CF5F
:1016700080917B1090917C10A0917D10B0917E1094
:10168000892B8A2B8B2B09F49ECF0E941009009185
:101690007B1010917C1020917D1030917E106C1980
:1016A0007D098E099F09061717072807390708F0D3
:1016B0008ACFC0CF81E0C3CF80E0C1CF82E0BFCF6F
:1016C00083E0BDCF0895E091DC0E8091DB0EE8173A
:1016D00030F4F0E0E954F14F808190E008958FEF0D
:1016E0009FEF08959091DC0E8091DB0E2FEF3FEF7E
:1016F000981748F4E92FF0E0E954F14F208130E0E9
:101700009F5F9093DC0EC90108958091DB0E90914C
:10171000DC0E891B990B0895CF92DF92EF92FF9216
:101720000F931F93CF93DF937C01CB018A0120910C
:101730007F10222389F0EB016B01C40ED51ECC155E
:10174000DD0569F06991D701ED91FC910190F0817F
:10175000E02DC7011995F3CF642F0E940C0AC80130
:10176000DF91CF911F910F91FF90EF90DF90CF907D
:101770000895CF93DF931F92CDB7DEB76983209191
:101780007F102223F9F02091A210203258F021E09E
:1017900030E0FC013383228390E080E00F90DF9102
:1017A000CF91089580918010E82FF0E0EF57FF4E21
:1017B000998190838F5F809380108093A21081E045
:1017C00090E0ECCF61E0CE0101960E940C0AF7CFC9
:1017D000682F83EA90E10C94B90B1092DC0E109202
:1017E000DB0E0E94330A8CE897E09093D80E80932A
:1017F000D70E8DE897E09093DA0E8093D90E8CE0A7
:101800008093B8008091C11091E090937F108093F5
:10181000A110109280101092A2108091C810909187
:10182000C910029721F490E080E00E94E80B90E05C
:1018300080E00E94E80B81E00C94720AFC01248194
:1018400031E030937F102093A110109280101092FD
:10185000A2108385862B90E00E94E80B81E00C9417
:10186000720A089590E080E00895CF93C82F60E059
:101870000E942508C43271F0C532B9F00E94670990
:101880006093AF0E7093B00E8093B10E9093B20E32
:10189000CF9108950E9467096093AB0E7093AC0ED0
:1018A0008093AD0E9093AE0EF3CF0E9467096093C4
:1018B000A70E7093A80E8093A90E9093AA0EE8CF5E
:1018C0002091A813222381F0282FA3EBB3E1FC0180
:1018D0008E2F821B861718F481918D93F9CF70E0BB
:1018E0007093D4136093D31308954F925F926F92C5
:1018F0007F928F929F92AF92BF92CF92DF92EF92A0
:10190000FF92CF93DF9310922D0E10922E0E109215
:101910002F0E1092300E1092290E10922A0E109255
:101920002B0E10922C0EC0E8D0E087E30E94ED0849
:10193000092E000CAA0BBB0B40912D0E50912E0EC0
:1019400060912F0E7091300E4C015D01840E951E3A
:10195000A61EB71E80922D0E90922E0EA0922F0ED4
:10196000B092300E219709F7C0E8D0E088E30E94DA
:10197000ED086C01990FEE08FF088091290E9091F7
:101980002A0EA0912B0EB0912C0E8C0D9D1DAE1D1C
:10199000BF1D8093290E90932A0EA0932B0EB09317
:1019A0002C0E219719F727E0B694A7949794879463
:1019B0002A95D1F780922D0E90922E0EA0922F0E86
:1019C000B092300E6C017D0137E0F694E794D79425
:1019D000C7943A95D1F7C092290ED0922A0EE09280
:1019E0002B0EF0922C0E6091490270914A0290E009
:1019F00080E00E94BA5020E030E048EC52E40E94BF
:101A0000F1522B013C01C501B4010E94BA50A3015F
:101A100092010E941B5120E030EC4FE754E40E94F9
:101A2000F15220E030E04AE754E40E941B510E944A
:101A30006A53EB01C701B6010E94BA50A30192019B
:101A40000E941B5120E030EC4FE754E40E94F15219
:101A500020E030E04AE754E40E941B510E946A53A0
:101A6000D0939F0EC093A00E7093A10E6093A20E10
:101A7000DF91CF91FF90EF90DF90CF90BF90AF902C
:101A80009F908F907F906F905F904F9008954F92AE
:101A90005F926F927F928F929F92AF92BF92CF92FE
:101AA000DF92EF92FF92CF93DF931092250A10926C
:101AB000260A1092270A1092280AC0E8D0E086E38E
:101AC0000E94ED086C01990FEE08FF088091250A2D
:101AD0009091260AA091270AB091280A8C0D9D1D8D
:101AE000AE1DBF1D8093250A9093260AA093270A56
:101AF000B093280A219719F76C017D0187E0F694CD
:101B0000E794D794C7948A95D1F7C092250AD092CA
:101B1000260AE092270AF092280A60914502709105
:101B2000460290E080E00E94BA504B015C01609157
:101B3000490270914A0290E080E00E94BA5020E091
:101B400030E048EC52E40E94F1522B013C01C70105
:101B5000B6010E94BA509B01AC01C301B2010E94C0
:101B60001B5120E030EC4FE754E40E94F1526B012E
:101B70007C01609147027091480290E080E00E94F1
:101B8000BA50A50194010E9485529B01AC01C70186
:101B9000B6010E941B51A50194010E94F15220E060
:101BA00030E04AE754E40E941B510E946A536037B8
:101BB00027E17207A8F41092A30E1092A40E1092BF
:101BC000240ADF91CF91FF90EF90DF90CF90BF90EC
:101BD000AF909F908F907F906F905F904F900895FF
:101BE0007093A30E6093A40E81E08093240AE9CF42
:101BF000FC012191241741F09F01281B390B261766
:101C00003707B8F380E0089581E00895F894809153
:101C1000E60F8093E70F78940895F8948091E70F8A
:101C20009091E60F7894891B08959091940E21E08D
:101C3000290F30E0F8944091950E789442171306DE
:101C4000C9F32C5D364FF90180839F5F9093940E0A
:101C5000809131018062809331010895F8949091D0
:101C6000E70F8091E60F981304C0789480E092E02B
:101C7000089578948091E60FE1E0E80FF0E08F5F3F
:101C80008093E60FEA51F14F20819091E50E892F64
:101C900090E0982F8827820F911D0895F894109254
:101CA000E70F1092E60F1092940E1092950E789412
:101CB0009093350180933401E1E3F1E080818869FC
:101CC0008083E2E3F1E08081866080830895F89468
:101CD000809123098093220978940895F894809143
:101CE00021098093200978940895F894809120091F
:101CF000909121097894891B08959091220921E0FF
:101D0000290F30E0F8944091230978944217130684
:101D1000C9F3205E374FF90180839F5F90932209BA
:101D20008091D10080628093D10008959C01F89445
:101D30009091200980912109981304C0789480E043
:101D400092E00895789490912109E92FF0E031967E
:101D5000E20FF31FFF27E05EF84F208190911F07ED
:101D6000892F90E0982F8827820F911D0895F8946D
:101D70009091200980912109981304C0789480E003
:101D800092E00895789480912109E1E0E80FF0E075
:101D90008F5F80932109E05EF84F208190911F07AB
:101DA000892F90E0982F8827820F911D0895F8942D
:101DB00010922009109221091092220910922309F1
:101DC00078949093D5008093D400E1EDF0E0808189
:101DD00088698083E2EDF0E08081866080830895E9
:101DE000F8948091990E90919A0E20919B0E3091CB
:101DF0009C0E7894821B930B93700895F894209115
:101E0000990E30919A0E80919B0E90919C0E2817FE
:101E1000390721F4789480E092E0089578948091D5
:101E20009B0E90919C0E0196937090939C0E8093C4
:101E30009B0E815E9C4FFC01208190911E03892F97
:101E400090E0982F8827820F911D08952F923F923E
:101E50004F925F926F927F928F929F92AF92BF92BA
:101E6000CF92DF92EF92FF920F931F93CF93DF9366
:101E70006B017C014A01590133243394A114B1044C
:101E800009F41AC1C091C510D091C610CE010197B6
:101E90008C219D21C81BD90BC50121E2A216B104DA
:101EA00010F080E290E08C179D0708F4EC0180911F
:101EB000C710A701960104C05695479537952795F9
:101EC0008A95D2F72090C110222A30927F1020925A
:101ED000A110109280101092A2108091C8109091C1
:101EE000C910029741F499278F2D7E2D6D2D83EA1D
:101EF00090E10E94B90B6C2D83EA90E10E94B90B2E
:101F000081E00E94720A082F8111D7C00E94100937
:101F10002B013C0180917910811166C01C2F3092F9
:101F20007910309278103FEF30937710109276103E
:101F30008C2F8150809375103092541080915410E2
:101F4000220C282A2092541080915310813009F0DD
:101F500084C0109253100E9410092B013C01809103
:101F600054108093BB0080917B1090917C10A091C5
:101F70007D10B0917E10892B8A2B8B2BA1F00E94B3
:101F8000100920917B1030917C1040917D10509170
:101F90007E106419750986099709261737074807BF
:101FA000590708F442C08091BC0083FDD8CF45ECAE
:101FB0004093BC000E9410092B013C0180917910D4
:101FC000813009F44EC080917610811710F4109181
:101FD0007610E5E5F0E1A7EBBEE080E0811751F176
:101FE00091919D938F5FFACF80917B1090917C109F
:101FF000A0917D10B0917E10892B8A2B8B2B09F438
:1020000089CF0E94100920917B1030917C10409163
:102010007D1050917E10641975098609970926175D
:1020200037074807590708F075CF80917A100E944A
:10203000510A10E01092DC0E1093DB0E602E712C12
:102040006C167D0680F583EA90E10E94720BF40124
:10205000E60DF71D80830F5FF1CF55EE5093BC0066
:10206000A9CF80917B1090917C10A0917D10B091B0
:102070007E10892B8A2B8B2B09F4A0CF0E9410098C
:1020800020917B1030917C1040917D1050917E10FA
:1020900064197509860997092617370748075907EC
:1020A00008F08CCFC2CFCC0EDD1EE11CF11C8C0ED3
:1020B0009D1EAC1ABD0AE2CE00E0802FDF91CF91C9
:1020C0001F910F91FF90EF90DF90CF90BF90AF9056
:1020D0009F908F907F906F905F904F903F902F9048
:1020E0000895CF92DF92EF92FF920F931F93CF93B9
:1020F000DF931F92CDB7DEB76B017C012FEFC21AC1
:10210000D20AE20AF20A0091CA101091CB10209173
:10211000CC103091CD100C151D052E053F05B0F0EB
:1021200021E030E0AE014F5F5F4F0E94260F90E04C
:10213000009771F4898190E00F90DF91CF911F910A
:102140000F91FF90EF90DF90CF90089589E0EFCF4F
:10215000919581959109F0CF0F931F93CF938C01A7
:10216000C62F0E941E0C6C2F6460C8010E941E0CBA
:102170006C2F6B7FC8010E941E0C83EC90E00197CE
:10218000F1F7CF911F910F9108950F931F93CF9364
:10219000DF938C01D62FC42F607F642B0E94AC107C
:1021A00080E1D89FB00111246C2BC801DF91CF9141
:1021B0001F910F910C94AC10CF93DF9300D000D0FF
:1021C0001F921F92CDB7DEB798E0EEE6F2E0DE0197
:1021D000119601900D929A95E1F79091BE10961785
:1021E00010F46FEF690F262F30E0220F331F41E00C
:1021F00050E04C0F5D1F240F351FF9016081680FFF
:10220000606840E085EB90E128960FB6F894DEBF59
:102210000FBECDBFDF91CF910C94C51041E00E945D
:10222000C51081E090E008950F931F93CF93DF9343
:102230008B0198E0899FB0011124606440E085EB38
:1022400090E10E94C510E801085F1F4F699185EB7E
:1022500090E10E940E11C017D107C1F7DF91CF9115
:102260001F910F9108950F931F93CF93DF938C01CC
:10227000D0E0C0E0F801EC0FFD1F6491662339F057
:1022800041E085EB90E10E94C5102196F3CFCE018D
:10229000DF91CF911F910F91089540E061E085EBB0
:1022A00090E10E94C5108BE39FE10197F1F708953B
:1022B0000E944D118091E90F843171F58091E80FF2
:1022C000843009F042C060E080E00E94DC1087EDBD
:1022D0009AE00E94331161E080E00E94DC1082EC01
:1022E0009AE00E94331162E080E00E94DC108DEAE7
:1022F0009AE00E94331163E080E00E94DC1088E9DC
:102300009AE00E94331161E087E00E94DC1065E0F2
:1023100085EB90E10C940E118031B9F48091E80FB7
:10232000823099F460E080E00E94DC1087E89AE057
:102330000E94331161E080E00E94DC1086E79AE0A1
:102340000E94331161E083E0E0CF60E080E00E9412
:10235000DC108DE69AE00C9433110E944D118091AF
:10236000E90F843171F58091E80F843009F042C0A3
:1023700060E080E00E94DC1088E59AE00E94331162
:1023800061E080E00E94DC1083E49AE00E94331157
:1023900062E080E00E94DC108EE29AE00E9433113D
:1023A00063E080E00E94DC1089E19AE00E94331132
:1023B00061E087E00E94DC1065E085EB90E10C9421
:1023C0000E118031B9F48091E80F823099F460E009
:1023D00080E00E94DC1088E09AE00E94331161E006
:1023E00080E00E94DC1087EF99E00E94331161E0E9
:1023F00083E0E0CF60E080E00E94DC108EEE99E0A8
:102400000C943311FC0101900020E9F73197AF01E2
:10241000481B590BBC0185EB90E10C94F8078F9297
:102420009F92AF92BF920F931F93CF93DF93CDB73D
:10243000DEB7A1970FB6F894DEBF0FBECDBF19A2CD
:10244000423008F44AE08E010F5D1F4F842E912C1C
:10245000B12CA12CA50194010E945352E62FB90181
:10246000CA01EA30F4F4E05DD801EE938D01232B2C
:10247000242B252B79F790E080E0109719F0CD01FF
:102480000E940212A1960FB6F894DEBF0FBECDBF18
:10249000DF91CF911F910F91BF90AF909F908F9040
:1024A0000895E95CE1CFBC0190E080E04AE00C9443
:1024B0000F120C9402124F925F926F927F928F9242
:1024C0009F92AF92BF92CF92DF92EF92FF920F93C3
:1024D0001F93CF936B017C01B42EAC019B010E9432
:1024E0009E53882399F089EF92E0CF911F910F912D
:1024F000FF90EF90DF90CF90BF90AF909F908F9024
:102500007F906F905F904F900C94021226013701DC
:10251000E89477F82FEF3FEF4FE75FE7C301B20191
:102520000E949E5381110DC02FEF3FEF4FE75FE7F1
:10253000C301B2010E94B55018161CF48DEF92E051
:10254000D4CF2FEF3FEF4FE75FE4C701B6010E9402
:10255000995318161CF481E093E0C7CF2FEF3FEF9B
:102560004FE75FECC701B6010E94B55087FDF3CF7E
:1025700020E030E0A901C701B6010E94B55010E08B
:1025800000E087FF0CC041E06DE285EB90E10E9426
:10259000C510F7FAF094F7F8F09401E010E0CB2DB5
:1025A000A12C60E070E080E09FE3AB1440F420E0F9
:1025B00030E040E251E40E94F152A394F6CFA7012B
:1025C00096010E9485522B013C010E946A536B01C7
:1025D0007C014AE00E940F12080F191FBB20B1F1C5
:1025E000C701B6010E94BA509B01AC01C301B20100
:1025F0000E9484524B015C0141E06EE285EB90E168
:102600000E94C5100F5F1F4FC15000F120E030E065
:1026100040E251E4C501B4010E941B512B013C0171
:102620000E946A534B01CB010E945312080F191FDD
:10263000B40190E080E00E94BA509B01AC01C3015C
:10264000B2010E9484524B015C01DECFC801CF91E0
:102650001F910F91FF90EF90DF90CF90BF90AF90C0
:102660009F908F907F906F905F904F9008958F9282
:102670009F92AF92BF92EF92FF920F931F93CF93CF
:10268000DF93CDB7DEB72C970FB6F894DEBF0FBE41
:10269000CDBF81E080934D02F090E80FE090E90F0C
:1026A0008091A60E1092B8101092B7108093B910B6
:1026B0008E818093BA108F818093BB108885809320
:1026C000BC10E092BD10F092BE101092BF1018E046
:1026D0001093C0101092DC0E1092DB0E109280103E
:1026E0001092A2100E94330A8CE897E09093D80EC3
:1026F0008093D70E8DE897E09093DA0E8093D90EF1
:102700001092BA108091BE10823010F01093BA105F
:102710009091BF10992339F0813029F48091BA103B
:1027200084608093BA1062E370E080E090E00E94E1
:1027300035096091C01085EB90E10E941E0C68EE97
:1027400073E080E090E00E94350960E385EB90E162
:102750000E94AC100BE416E4C8010197F1F760E3A6
:1027600085EB90E10E94AC10C8010197F1F760E39E
:1027700085EB90E10E94AC1083E592E00197F1F7C0
:1027800060E285EB90E10E94AC106091BA1060624B
:1027900040E085EB90E10E94C51084E08093BB107F
:1027A00040E06CE085EB90E10E94C5100E944D1165
:1027B00082E08093BC1040E066E085EB90E10E94EF
:1027C000C51040E062E085EB90E10E94C5100BE38C
:1027D0001FE1C8010197F1F788E08093C01060E025
:1027E00085EB90E10E941E0C0E944D1140E062E0DA
:1027F00085EB90E10E94C510C8010197F1F7609147
:102800008E0E70918F0E76276727762790E080E0F6
:102810000E94BA5020E030E048EC52E40E94F152AD
:102820004B015C0184E1E81257C084E0F8126FC0EC
:1028300089ED99E00E94331161E080E00E94DC1094
:1028400084EC99E00E94331162E080E00E94DC1089
:1028500087EB99E00E94331142E050E0C501B401DA
:102860000E945B1282EB99E00E94331163E080E0EA
:102870000E94DC108DE999E00E94331168E272E059
:1028800080E00E94141160E272E081E00E94141165
:1028900068E172E082E00E94141160E172E083E07E
:1028A0000E94141168E072E084E00E94141160E05C
:1028B00072E085E02C960FB6F894DEBF0FBECDBF58
:1028C000DF91CF911F910F91FF90EF90BF90AF904C
:1028D0009F908F900C94141180E1E81218C082E050
:1028E000F81215C08CE899E00E94331161E080E095
:1028F0000E94DC1081E899E00E94331142E050E030
:10290000C501B4010E945B128EE799E0B5CF86E75E
:1029100099E0B2CFCF92DF92EF92FF9240E054E283
:1029200064EF75E4409323105093241060932510B6
:1029300070932610809327108AE08093281081E0FE
:102940008093291080932A101092FC0F80932110FD
:1029500080932210F89410920D1010921E10109275
:102960001F101092201020E030E040E851E4609108
:1029700023107091241080912510909126100E94B0
:102980001B519B01AC0160E074E284E79BE40E9470
:10299000F15220E030E040E85FE30E9484520E9460
:1029A0006A537F707093CD006093CC008091C90012
:1029B00088698093C9008091CA0086608093CA00AC
:1029C000789483E090E090932E1080932D10F894EB
:1029D0001092900010929100109295001092940025
:1029E00080912D1090912E109093990080939800D3
:1029F0008091910088608093910080917100826045
:102A0000809371007894EFE2F0E180E2DF011D92A3
:102A10008A95E9F78091271062E0882309F43DC088
:102A200082E00E94B10883EF99E090935502809371
:102A3000540280916A008C7F816080936A00EC9AD6
:102A400087E090E090932C1080932B10F8941092D4
:102A50008000109281001092850010928400259AC7
:102A60008091800080648093800080912B109091F1
:102A70002C10909389008093880080916F008D7F47
:102A800080936F00809181008960809381007894A9
:102A9000FF90EF90DF90CF90089583E00E94B108FF
:102AA0008EED99E0909357028093560280916A00D0
:102AB000837F886080936A00ED9A20912310309183
:102AC0002410409125105091261060E070E080E8BD
:102AD0009FE30E94F15220E034E244E75BE40E946D
:102AE0001B516B017C016091281070E090E080E048
:102AF0000E94BC5020E030E040E251E40E94855248
:102B00009B01AC01C701B6010E941B5120E030E0DF
:102B100040E85AE30E941B5120E030E040E85FE3C8
:102B20000E9484520E946A5370932C1060932B1061
:102B3000F8941092800010928100109285001092FB
:102B40008400259880912B1090912C1090938900EF
:102B500080938800809181008860809381008091BB
:102B60006F00826080936F0092CF2F923F924F92BE
:102B70005F926F927F928F929F92AF92BF92CF920D
:102B8000DF92EF92FF920F931F93CF93DF93CDB716
:102B9000DEB70DB71EB79091EB0F992349F12DB613
:102BA0003EB62DB73EB7241B31090FB6F8943EBF91
:102BB0000FBE2DBFEDB7FEB731967F01442311F450
:102BC0000C94EF21262FDF01FB019E2F921B9417FF
:102BD00018F491919D93F9CF90915302913001F1A6
:102BE000923009F4BEC50FB6F8943EBE0FBE2DBE9E
:102BF0000FB6F8941EBF0FBE0DBFDF91CF911F918E
:102C00000F91FF90EF90DF90CF90BF90AF909F908B
:102C10008F907F906F905F904F903F902F9008958E
:102C2000813009F7F70180818C3809F403C108F07D
:102C300041C0843209F49CC08234A9F6443098F231
:102C4000618170E090E080E00E94BC5026E636E6AC
:102C500046E25FE30E941B516B017C0120E030E003
:102C6000A9010E94995320E030E040E05FE387FD36
:102C7000C5C0C701B6010E9485520E946353F62E5B
:102C80008091E90F843109F0AECF8091E80F843054
:102C900009F0A9CFF9E0FF1508F4B5C060E080E1C4
:102CA0000E94DC1088E093E00E9459128F2D0E9450
:102CB0000B3A99CF843D09F4DFC2843E09F4ABC3DB
:102CC0008E3C09F090CF463008F48DCF618172813F
:102CD000838194810E94AB532091EA0F211111C28C
:102CE0000E94BA5020E030E040E05EE30E941B51B9
:102CF0006B017C0120E030E0A9010E94995320E0A3
:102D000030E040E05FE387FD11C2C701B6010E94D9
:102D100085520E9463530E94BC5020E030E04AE795
:102D200054E40E94F1526B017C018091E90F8431DF
:102D300009F059CF8091E80F843009F054CF20E09A
:102D400030E040E251E4C701B6010E94B55087FF70
:102D5000F2C163E080E00E94DC1085E093E00E9415
:102D6000591243E050E0C701B6010E945B123BCF0D
:102D7000443008F438CF8091EA0F811119C0F180F6
:102D80008091E90F8431D1F48091E80F843009F00B
:102D90002ACFF9E0FF15D8F060E080E00E94DC1057
:102DA00088E093E00E9459128F2D0E940B3A1BCFAE
:102DB000813011F4F280E4CFF12CE2CF803109F0C0
:102DC00012CF8091E80F823009F00DCFE2CF86EF6D
:102DD0008F0D60E08A3558F480E00E94DC1089E0B5
:102DE00093E00E9459128F2D0E940B3AFCCE80E096
:102DF0000E94DC108F2D0E940B3AF5CEC701B60160
:102E00000E9484523ACF86EF8F0D60E08A3558F4E5
:102E100080E10E94DC1089E093E00E9459128F2D1E
:102E20000E940B3AE0CE80E10E94DC108F2D0E94C0
:102E30000B3AD9CE443008F4D6CE8091EA0F8111F6
:102E40007DC0618170E090E080E00E94BC5026E689
:102E500036E646EE5FE30E941B5126E636E646E480
:102E600053E40E9484522B013C0120E030E0A90190
:102E70000E94995320E030E040E05FE387FD54C0BA
:102E8000C301B2010E9485520E9463536B01F70196
:102E9000628170E090E080E00E94BC5026E636E659
:102EA00046EE5FE30E941B5126E636E646E453E415
:102EB0000E9484522B013C0120E030E0A9010E94D5
:102EC000995320E030E040E05FE387FD32C0C3016A
:102ED000B2010E9485520E9463537B018091E90FE9
:102EE000843109F0B1C08091E80F843009F07BCEC5
:102EF0009DE9C9169FEFD9069CF561E080E00E942C
:102F0000DC108CE093E00E9459122DE9E2162FEFBD
:102F1000F2060CF052C061E084E00E94DC108CE00C
:102F200093E00E9459125FCEC301B2010E94845205
:102F3000ABCFC301B2010E948452CDCF813059F48E
:102F40006181262F2058330B69016281862F8058BA
:102F5000990B7C01C3CFF12CE12CD12CC12CBECF1D
:102F6000C6018D599F4F61E08A35910510F161E0EE
:102F7000E7EFCE16EFEFDE06B0F4FAE0CF16D1049D
:102F800060F461E080E00E94DC1088E093E00E9441
:102F90005912C6010E94123AB8CFC6010A9761E0E1
:102FA0008A35910530F480E00E94DC1089E093E0DE
:102FB000EECF80E00E94DC10ECCFC7018D599F4F0F
:102FC0008A35910540F461E084E00E94DC10C7017D
:102FD0000E94123A08CE37EFE3163FEFF30660F097
:102FE00061E084E00E94DC1089E093E00E945912C5
:102FF000C7010E94123AF7CD8AE0E816F10460F4A6
:1030000061E084E00E94DC1088E093E00E945912A5
:10301000C7010E94123AE7CDC7010A9761E08A35DD
:10302000910558F484E00E94DC1089E093E00E944E
:103030005912C7010E94123AD6CD84E00E94DC10DA
:10304000C7010E94123ACFCD803109F0CCCD8091DA
:10305000E80F823009F0C7CD9DE9C9169FEFD90668
:103060004CF461E080E00E94DC108CE093E00E9470
:103070005912B9CDC6018D599F4F8A35910540F43B
:1030800061E080E00E94DC10C6010E94123AABCDE4
:10309000E7EFCE16EFEFDE0660F061E080E00E9421
:1030A000DC1089E093E00E945912C6010E94123A96
:1030B0009ACDFAE0CF16D10460F461E080E00E947E
:1030C000DC1088E093E00E945912C6010E94123A77
:1030D0008ACDC6010A9761E08A35910558F480E0EF
:1030E0000E94DC1089E093E00E945912C6010E9400
:1030F000123A79CD80E00E94DC10C6010E94123A9B
:1031000072CDC12CD12C7601213009F00ECE0E9457
:10311000BA5022E03BE249EC54E40E941B5120E00B
:1031200030E04AEF55E40E94F152E2CDC701B6010A
:103130000E948452EECD20E030E040E251E4C7012D
:10314000B6010E94995387FD19C020E030E048EC99
:1031500052E4C701B6010E94B55087FF0FC063E07B
:1031600080E00E94DC1086E093E00E94591243E068
:1031700050E0C701B6010E945B1235CD20E030E07F
:1031800048EC52E4C701B6010E94995387FD19C06B
:1031900020E030E04AE754E4C701B6010E94B55090
:1031A00087FF0FC063E080E00E94DC1087E093E0BF
:1031B0000E94591243E050E0C701B6010E945B1221
:1031C00012CD20E030E04AE754E4C701B6010E9486
:1031D000995387FD19C020E030E44CE156E4C70163
:1031E000B6010E94B55087FF0FC063E080E00E94E7
:1031F000DC1088E093E00E94591243E050E0C701E0
:10320000B6010E945B12EFCC20E030E44CE156E4C2
:10321000C701B6010E94995387FD19C020E030E52F
:1032200043EC57E4C701B6010E94B55087FF0FC0B9
:1032300063E080E00E94DC1089E093E00E94591274
:1032400043E050E0C701B6010E945B12CCCC20E005
:1032500030E543EC57E4C701B6010E94995387FD5E
:10326000C2CC63E080E00E94DC1043E050E0C70184
:10327000B6010E945B12B7CC443008F4B4CC618133
:1032800070E090E080E00E94BC5020E030E040E23E
:1032900051E40E941B5120E030E040E85DE30E94D1
:1032A0001B512B013C0120E030E0A9010E94995301
:1032B00020E030E040E05FE387FD7FC0C301B20162
:1032C0000E9485520E9463530E94BC504B015C01D6
:1032D000F701628170E090E080E00E94BC5020E045
:1032E00030E040E251E40E941B5120E030E040E831
:1032F0005DE30E941B516B017C0120E030E0A901DD
:103300000E94995320E030E040E05FE387FD5AC01F
:10331000C701B6010E9485520E9463530E94BC50AF
:103320002B013C018091E90F843109F05CCC809144
:10333000E80F843009F057CC20E030E040E251E45F
:10334000C501B4010E94F1526B017C0120E030E024
:1033500040E251E40E94B55087FF39C062E080E04E
:103360000E94DC1089E093E00E94591241E050E095
:10337000C701B6010E945B1220E030E040E251E458
:10338000C301B2010E94F1526B017C0120E030E0E8
:1033900040E251E40E94B55087FF28C062E085E01A
:1033A0000E94DC1089E093E00E94591241E050E055
:1033B000C701B6010E945B1216CCC301B2010E9484
:1033C000845280CFC701B6010E948452A5CF20E06D
:1033D00030E040E251E4C701B6010E94995387FDF5
:1033E000CBCF62E080E00E94DC10C0CF20E030E074
:1033F00040E251E4C701B6010E94995387FDF3CB27
:1034000062E085E00E94DC1041E050E0C701B601B7
:103410000E945B12E8CB443008F4E5CB8091EA0FC0
:10342000811168C0C180F0E2CF9E60011124F701D4
:10343000628170E090E080E00E94BC5020E030E0CB
:1034400040E251E40E941B5125EB32EC44E75DE37E
:103450000E941B512B013C0120E030E0A9010E9499
:10346000995320E030E040E05FE387FD61C0C30195
:10347000B2010E9485520E9463530E94BC5020E01A
:1034800030E040E251E40E94F1522B013C01809176
:10349000E90F843109F0A6C08091E80F843009F06B
:1034A00026C1FAE0CF16D10408F047C060E088E0FA
:1034B0000E94DC1087E093E00E945912C6010E942E
:1034C000531220E030E040E251E4C301B2010E9417
:1034D000B55087FF4FC061E08DE00E94DC1089E0AD
:1034E00093E00E94591241E050E0C301B2010E94F2
:1034F0005B1279CB412C512C3201D12CC12C813063
:1035000031F6C180F0E2CF9E60011124F7016281A3
:1035100070E090E080E00E94BC5020E030E040E2AB
:1035200051E40E941B5129ED31EA4CED50E48ACF61
:10353000C301B2010E9484529ECFC6010A978A3508
:10354000910538F460E088E00E94DC1088E093E0A8
:10355000B3CFC6018456910960E08438934030F4BB
:1035600088E00E94DC1089E093E0A6CF88E00E940A
:10357000DC10A4CF20E030E040E251E4C301B2010E
:103580000E94995387FD15C020E030E048EC52E4DA
:10359000C301B2010E94B55087FF0BC061E08DE00E
:1035A0000E94DC1041E050E0C301B2010E945B12B6
:1035B0001ACB20E030E048EC52E4C301B2010E9493
:1035C000995387FD10CB61E08DE00E94DC1089E00B
:1035D00093E00E94591250E040E0C301B2010E9402
:1035E0005B1201CB803109F082C08091E80F8230FC
:1035F00009F07DC03AE0C316D10420F560E089E00F
:103600000E94DC1087E093E00E945912C6010E94DC
:10361000531220E030E040E251E4C301B2010E94C5
:10362000B55087FF2CC061E089E00E94DC1089E082
:1036300093E00E94591241E050E0C301B2010E94A0
:103640005B12D1CAC6010A978A35910538F460E049
:1036500089E00E94DC1088E093E0D6CFC601845652
:10366000910960E08438934030F489E00E94DC10D6
:1036700089E093E0C9CF89E00E94DC10C7CF20E049
:1036800030E040E251E4C301B2010E94995387FD4A
:1036900015C020E030E048EC52E4C301B2010E94C2
:1036A000B55087FF0BC061E089E00E94DC1041E06B
:1036B00050E0C301B2010E945B1295CA20E030E0E5
:1036C00048EC52E4C301B2010E94995387FD8BCAB2
:1036D00061E089E00E94DC1089E093E00E945912C9
:1036E00050E040E0C301B2010E945B127CCAFAE0E4
:1036F000CF16D10460F460E081E00E94DC1087E026
:1037000093E00E945912C6010E9453126CCAC6016E
:103710000A978A35910560F460E081E00E94DC1030
:1037200088E093E00E945912C6010E9453125BCABE
:10373000C6018456910960E08438934058F481E0D2
:103740000E94DC1089E093E00E945912C6010E9499
:10375000531249CA81E00E94DC10C6010E94531234
:1037600042CA823009F03FCAF7018081843109F0F2
:103770003ACA433008F437CA81818B3009F4ADC2AC
:1037800070F5853009F451C18A3009F436C28130B0
:1037900009F029CA8091EA0F811188C0E280F12CDA
:1037A0008091E90F843109F0EBC08091E80F8430FB
:1037B00009F019CAFDE9EF16FFEFFF060CF4ABCBD9
:1037C000C7018D599F4F8A35910508F0A0C061E06F
:1037D00084E00E94DC10C7010E94123A04CA8432BD
:1037E00009F4F7C418F5813109F0FDC9E280F0E26F
:1037F000EF9E700111248091E90F843109F066C4B5
:103800008091E80F843009F0A6C42AE0E216F104A2
:103810000CF02FC460E088E00E94DC1087E093E0A9
:103820000E945912C7010E945312DDC9813409F464
:1038300040C5863409F0D7C9628170E090E080E02D
:103840000E94BC5020E73EEC48EC5EE30E941B5116
:103850006B017C0120E030E0A9010E94995320E037
:1038600030E040E05FE387FD9CC5C701B6010E94E0
:1038700085520E946353F62E8091E90F843109F03E
:10388000B2C98091E80F843009F0ADC9F9E0FF15A5
:1038900008F48CC560E080E10E94DC1088E093E0D1
:1038A0000E9459128F2D0E940B3A9DC9813061F5FB
:1038B000628170E090E080E00E94BC502BEE38E323
:1038C0004EE05FE30E941B5125EE38E34EE851E4E1
:1038D0000E9484526B017C0120E030E0A9010E942B
:1038E000995320E030E040E05FE387FD08C0C70166
:1038F000B6010E9485520E9463537B0151CFC701DC
:10390000B6010E948452F7CFF12CE12C49CF27EF6A
:10391000E2162FEFF20660F061E084E00E94DC1016
:1039200089E093E00E945912C7010E94123A5BC9D4
:103930003AE0E316F10460F461E084E00E94DC10F8
:1039400088E093E00E945912C7010E94123A4BC9C5
:10395000C7010A9761E08A35910558F484E00E9416
:10396000DC1089E093E00E945912C7010E94123ACC
:103970003AC984E00E94DC10C7010E94123A33C9A0
:10398000803109F030C98091E80F823009F02BC9ED
:103990008DE9E8168FEFF8060CF4BDCAC7018D5902
:1039A0009F4F8A35910540F461E084E00E94DC106D
:1039B000C7010E94123A17C997EFE9169FEFF9065F
:1039C00060F061E084E00E94DC1089E093E00E94F6
:1039D0005912C7010E94123A06C9EAE0EE16F10434
:1039E00060F461E084E00E94DC1088E093E00E94D3
:1039F0005912C7010E94123AF6C8C7010A9761E03E
:103A00008A35910558F484E00E94DC1089E093E047
:103A10000E945912C7010E94123AE5C884E00E9430
:103A2000DC10C7010E94123ADEC88091EA0F8111B2
:103A300049C0628170E090E080E00E94BC5026E6C0
:103A400036E646EE5FE30E941B5126E636E646E484
:103A500053E40E9484526B017C0120E030E0A90114
:103A60000E94995320E030E040E05FE387FD25C0ED
:103A7000C701B6010E9485520E9463537B01809169
:103A8000E90F843109F062C08091E80F843009F0B9
:103A9000AAC83DE9E3163FEFF3060CF4E2CAC701FA
:103AA0008D599F4F8A359105C0F461E080E00E94F6
:103AB000DC10C7010E94123A96C8C701B6010E94E5
:103AC0008452DACF813031F46281262F2058330BB3
:103AD0007901D5CFF12CE12CD2CF87EFE8168FEF0B
:103AE000F80660F061E080E00E94DC1089E093E07D
:103AF0000E945912C7010E94123A75C89AE0E9164D
:103B0000F10460F461E080E00E94DC1088E093E062
:103B10000E945912C7010E94123A65C8C7010A974C
:103B200061E08A35910558F480E00E94DC1089E05C
:103B300093E00E945912C7010E94123A54C880E0D3
:103B40000E94DC10C7010E94123A4DC8803109F072
:103B50004AC88091E80F823009F045C8EDE9EE16B9
:103B6000EFEFFE060CF47DCAC7018D599F4F8A35D1
:103B7000910540F461E080E00E94DC10C7010E94E2
:103B8000123A31C8F7EFEF16FFEFFF0660F061E081
:103B900080E00E94DC1089E093E00E945912C70186
:103BA0000E94123A20C82AE0E216F10460F461E0B3
:103BB00080E00E94DC1088E093E00E945912C70167
:103BC0000E94123A10C8C7010A9761E08A35910530
:103BD00060F480E00E94DC1089E093E00E945912BA
:103BE000C7010E94123A0C94F31580E00E94DC1089
:103BF000C7010E94123A0C94F315628170E090E0C4
:103C000080E00E94BC5020E030E040E251E40E949D
:103C10001B5120E030E040E85DE30E941B516B0146
:103C20007C0120E030E0A9010E94995320E030E0BF
:103C300040E05FE387FD34C0C701B6010E948552B2
:103C40000E9463530E94BC502091E90F243111F06F
:103C50000C94F3152091E80F243011F00C94F31517
:103C600020E030E040E251E40E94F1526B017C011F
:103C700020E030E040E251E40E94B55087FF15C0DB
:103C800062E080E00E94DC1089E093E00E9459121B
:103C900041E050E0C701B6010E945B120C94F3159D
:103CA000C701B6010E948452CBCF20E030E040E251
:103CB00051E4C701B6010E94995387FF02C00C94DA
:103CC000F31562E080E00E94DC1041E050E0C701A3
:103CD000B6010E945B120C94F3158091EA0F8111DA
:103CE0004EC0628170E090E080E00E94BC5020E015
:103CF00030E040E251E40E941B5125EB32EC44E7F6
:103D00005DE30E941B516B017C0120E030E0A901C2
:103D10000E94995320E030E040E05FE387FD3EC021
:103D2000C701B6010E9485520E9463530E94BC5095
:103D300020E030E040E251E40E94F1526B017C014E
:103D40008091E90F843109F0D4C08091E80F84306C
:103D500011F00C94F31520E030E046EC52ECC70172
:103D6000B6010E94B550181614F161E08DE00E9472
:103D7000DC108BE093E00E9459120C94F315813013
:103D800091F4628170E090E080E00E94BC5029EDE7
:103D900031EA4CED50E40E941B51A9CFC701B60196
:103DA0000E948452C1CFC12CD12C7601C9CF20E012
:103DB00030E046EC52ECC701B6010E949953181648
:103DC000D4F420E030E040E251ECC701B6010E949B
:103DD000B550181684F061E08DE00E94DC1089E097
:103DE00093E00E94591250E040E0C701B6010E94E2
:103DF0005B120C94F31520E030E040E251ECC70177
:103E0000B6010E9499531816ACF420E030E0A901E5
:103E1000C701B6010E94B55087FF0CC061E08DE07C
:103E20000E94DC1041E050E0C701B6010E945B1225
:103E30000C94F31520E030E0A901C701B6010E94FF
:103E4000995387FD1AC020E030E040E251E4C701F9
:103E5000B6010E94B55087FF10C061E08DE00E945E
:103E6000DC1089E093E00E94591241E050E0C70164
:103E7000B6010E945B120C94F31520E030E040E2A2
:103E800051E4C701B6010E94995387FD16C020E096
:103E900030E048EC52E4C701B6010E94B55087FFFC
:103EA0000CC061E08DE00E94DC1041E050E0C701F1
:103EB000B6010E945B120C94F31520E030E048EC50
:103EC00052E4C701B6010E94995387FF02C00C94C7
:103ED000F31561E08DE00E94DC1089E093E00E9420
:103EE000591250E040E0C701B6010E945B120C94E9
:103EF000F315803111F00C94F3158091E80F8230A6
:103F000011F00C94F31520E030E046EC52ECC701C0
:103F1000B6010E94B550181654F061E089E00E9485
:103F2000DC108BE093E00E9459120C94F31520E012
:103F300030E046EC52ECC701B6010E9499531816C6
:103F4000D4F420E030E040E251ECC701B6010E9419
:103F5000B550181684F061E089E00E94DC1089E019
:103F600093E00E94591250E040E0C701B6010E9460
:103F70005B120C94F31520E030E040E251ECC701F5
:103F8000B6010E9499531816ACF420E030E0A90164
:103F9000C701B6010E94B55087FF0CC061E089E0FF
:103FA0000E94DC1041E050E0C701B6010E945B12A4
:103FB0000C94F31520E030E0A901C701B6010E947E
:103FC000995387FD1AC020E030E040E251E4C70178
:103FD000B6010E94B55087FF10C061E089E00E94E1
:103FE000DC1089E093E00E94591241E050E0C701E3
:103FF000B6010E945B120C94F31520E030E040E221
:1040000051E4C701B6010E94995387FD16C020E014
:1040100030E048EC52E4C701B6010E94B55087FF7A
:104020000CC061E089E00E94DC1041E050E0C70173
:10403000B6010E945B120C94F31520E030E048ECCE
:1040400052E4C701B6010E94995387FF02C00C9445
:10405000F31561E089E00E94DC1089E093E00E94A2
:10406000591250E040E0C701B6010E945B120C9467
:10407000F315C7010A978A35910568F460E088E076
:104080000E94DC1088E093E00E945912C7010E9450
:1040900053120C94F315C7018456910960E08438DB
:1040A000934060F488E00E94DC1089E093E00E9475
:1040B0005912C7010E9453120C94F31588E00E9414
:1040C000DC10C7010E9453120C94F315803109F0E3
:1040D00042C08091E80F8230F1F58AE0E816F104E1
:1040E0006CF460E089E00E94DC1087E093E00E94BD
:1040F0005912C7010E9453120C94F315C7010A9775
:104100008A35910568F460E089E00E94DC1088E05F
:1041100093E00E945912C7010E9453120C94F315A8
:10412000C7018456910960E08438934060F489E0C7
:104130000E94DC1089E093E00E945912C7010E949E
:1041400053120C94F31589E00E94DC10C7010E9401
:1041500053120C94F315FAE0EF16F1046CF460E0DE
:1041600081E00E94DC1087E093E00E945912C701B1
:104170000E9453120C94F315C7010A978A359105D2
:1041800068F460E081E00E94DC1088E093E00E9427
:104190005912C7010E9453120C94F315C70184569B
:1041A000910960E08438934060F481E00E94DC1063
:1041B00089E093E00E945912C7010E9453120C94A7
:1041C000F31581E00E94DC10C7010E9453120C9489
:1041D000F315628170E090E080E00E94BC5020E026
:1041E00030E040E251E40E941B5120E030E040E822
:1041F0005DE30E941B516B017C0120E030E0A901CE
:104200000E94995320E030E040E05FE387FD34C036
:10421000C701B6010E9485520E9463530E94BC50A0
:104220002091E90F243111F00C94F3152091E80F3F
:10423000243011F00C94F31520E030E040E251E41A
:104240000E94F1526B017C0120E030E040E251E439
:104250000E94B55087FF15C062E085E00E94DC1027
:1042600089E093E00E94591241E050E0C701B60195
:104270000E945B120C94F315C701B6010E94845290
:10428000CBCF20E030E040E251E4C701B6010E940C
:10429000995387FF02C00C94F31562E085E00E94F9
:1042A000DC1041E050E0C701B6010E945B120C94A3
:1042B000F3158091EA0F81113AC0628170E090E0BD
:1042C00080E00E94BC5020E030E040E05FE30E94CC
:1042D0001B516B017C0120E030E0A9010E94995341
:1042E00020E030E040E05FE387FD30C0C701B60169
:1042F0000E9485520E946353F62E8091E90F84310B
:1043000061F58091E80F843011F00C94F315F9E019
:10431000FF1570F160E080E00E94DC1088E093E01F
:104320000E9459128F2D0E940B3A0C94F315813084
:1043300091F4628170E090E080E00E94BC502CEF2C
:104340003EEF4DEC5FE30E941B51BDCFC701B601AC
:104350000E948452CFCFF12CD0CF803111F00C9439
:10436000F3158091E80F823011F00C94F315CFCF44
:1043700086EF8F0D60E08A3560F480E00E94DC10EB
:1043800089E093E00E9459128F2D0E940B3A0C9401
:10439000F31580E00E94DC108F2D0E940B3A0C94E4
:1043A000F315C701B6010E94845263CA86EF8F0DD0
:1043B00060E08A3560F480E10E94DC1089E093E0DF
:1043C0000E9459128F2D0E940B3A0C94F31580E134
:1043D0000E94DC108F2D0E940B3A0C94F3150FB63F
:1043E000F8941EBF0FBE0DBF0C94F8158F929F92CC
:1043F000AF92BF92CF92DF92EF92FF920F931F93F3
:10440000CF93DF93CDB7DEB769018DB69EB6580165
:10441000882309F447C02AE0A20EB11CEDB7FEB70D
:10442000EA19FB090FB6F894FEBF0FBEEDBF2DB71A
:104430003EB72F5F3F4F79019DE391839501245053
:104440003109F70131839CEF9A0D9283F0E18F9F40
:1044500090011124622B6058F70163834483011596
:10446000110551F10C0D1D1DF601ADB7BEB7169625
:104470008823E1F00E9473098091DD0EF7018583A6
:104480008091DE0E86838091DF0E87838091E00E1F
:104490008087F601D70119960E171F0769F08191E1
:1044A0008D93FACF36E0A30EB11CB8CFE017F10719
:1044B00019F081918D93FACFC50101978701F7011A
:1044C00020E0AF014E195F094817590718F43191E0
:1044D000230FF7CF8E0D9F1DFC01208384E20E94E5
:1044E000350CEA0CFB1CE016F10601F1F8012191F4
:1044F0008F018091900E9091910E01969370F89497
:104500004091920E5091930E789484179507B9F3C9
:10451000FC01E75DF54F20839093910E8093900E00
:104520008091C10080628093C100DDCF0FB6F89406
:104530009EBE0FBE8DBEDF91CF911F910F91FF9058
:10454000EF90DF90CF90BF90AF909F908F900895A5
:104550000F931F93CF93DF93CDB7DEB7E7970FB6D7
:10456000F894DEBF0FBECDBF8091960E89838091F7
:10457000970E8A838091980E8B8380919E0E88235C
:1045800009F44DC181E08C831D821E820E94730953
:104590008091DD0E8F838091DE0E88878091DF0E03
:1045A00089878091E00E8A87209115153091161524
:1045B000CE01C6962115310509F033C189519541C7
:1045C0009FAB8EAB8EA99FA99B878C870E94470DBE
:1045D0008091240A882309F427C181E08D87809186
:1045E000A30E8E878091A40E8F878091AC13888B49
:1045F00080910B1590910C15A0910D15B0910E1591
:10460000B98B80910B1590910C15A0910D15B0915F
:104610000E15AA8B80910B1590910C15A0910D157C
:10462000B0910E159B8B80910B1590910C15A0915C
:104630000D15B0910E158C8B80910F159091101562
:10464000A0911115B0911215BD8B80910F1590910D
:104650001015A0911115B0911215AE8B80910F1508
:1046600090911015A0911115B09112159F8B80910A
:104670000F1590911015A0911115B0911215888FFA
:1046800080913F12898F80919E1390919F13A091EA
:10469000A013B091A113BA8F80919E1390919F1394
:1046A000A091A013B091A113AB8F80919E13909114
:1046B0009F13A091A013B091A1139C8F80919E1382
:1046C00090919F13A091A013B091A1138D8F809111
:1046D000A2139091A313A091A413B091A513BE8F20
:1046E0008091A2139091A313A091A413B091A5134C
:1046F000AF8F8091A2139091A313A091A413B091B6
:10470000A51398A38091A2139091A313A091A41331
:10471000B091A51389A38091D2108AA38091311200
:1047200090913212A0913312B0913412BBA38091B8
:10473000311290913212A0913312B0913412ACA385
:104740008091311290913212A0913312B0913412B3
:104750009DA38091311290913212A0913312B091A9
:1047600034128EA38091351290913612A091371297
:10477000B0913812BFA38091351290913612A0915A
:104780003712B0913812A8A7809135129091361245
:10479000A0913712B091381299A78091351290915B
:1047A0003612A0913712B09138128AA78091EB0F80
:1047B0008823E1F181E08BA78091A60E8CA78091E0
:1047C000E90F8DA78091E80F8EA78091A50E8FA786
:1047D0008091EA0F88AB8091530289AB809150029F
:1047E000909151029AAB8BAB80914E0290914F0207
:1047F0009CAB8DAB05E310E09E012F5F3F4F40E087
:1048000062E080E00E94F621E7960FB6F894DEBFE2
:104810000FBECDBFDF91CF911F910F9108951C82E4
:10482000B3CE821B930BCCCE1D86D9CE1BA6C4CF94
:104830000F931F93CF93DF93CDB7DEB7A0970FB63B
:10484000F894DEBF0FBECDBFEEE8FEE08081898325
:1048500081818A83E6E8FEE080818B8381818C837D
:1048600082818D8383818E8384818F8385818887F4
:104870008681898787818A87EEE7FEE080818B8742
:1048800081818C8782818D8783818E8784818F87C8
:104890008581888B8681898B87818A8B1B8A99E0A9
:1048A0009C8B87E08D8B1E8A22E62F8B2AEA288F2D
:1048B000898F24E52A8F1B8E9C8F8D8F1E8E00E2A0
:1048C00010E09E012F5F3F4F41E065E080E00E94D5
:1048D000F621A0960FB6F894DEBF0FBECDBFDF91D4
:1048E000CF911F910F9108950C94E951EF92FF928F
:1048F0000F931F93CF93DF93EC017B018A01888193
:104900009981009729F02A813B812417350788F483
:10491000B8016F5F7F4F0E94B253009791F0998367
:1049200088831B830A832C813D81232B11F4FC0196
:1049300010821D830C83B701888199810E949C5449
:104940000CC088819981009711F00E94884F1982CC
:1049500018821D821C821B821A82CE01DF91CF91A8
:104960001F910F91FF90EF900895CF93DF9300D0A8
:1049700000D0CDB7DEB72091A813222301F1672B19
:10498000F1F066E173E0892B11F460E173E01A82C3
:1049900019821C821B821E821D82FB010190002055
:1049A000E9F73197AF01461B570BCE0101960E94E4
:1049B000762489819A81009711F00E94884F26966B
:1049C0000FB6F894DEBF0FBECDBFDF91CF91089533
:1049D00085ED8093BC0080917B1090917C10A0911C
:1049E0007D10B0917E100796A11DB11D23E0B695F4
:1049F000A795979587952A95D1F72091BC0024FD1E
:104A000003C010927910089540917B1050917C1052
:104A100060917D1070917E10452B462B472B69F3DA
:104A20000097A105B10541F025E32A95F1F70000B3
:104A30000197A109B109E1CF80917A100C94510A34
:104A40001F93CF93DF93EC01162F0E94E9511817A3
:104A500039F0612FCE01DF91CF911F910C94135249
:104A6000DF91CF911F9108950F931F93CF93DF9301
:104A70001F92CDB7DEB7182F082F0F7B85FFABC075
:104A800007FF6DC081E08093CE1010923B128091A1
:104A9000CE10882309F440C014FF74C081E08093D5
:104AA000D11060E086E10E94250860E087E10E9465
:104AB000250860E08AE10E94250860E08BE10E9401
:104AC000250860E012FF61C088E10E94250860E0CF
:104AD00089E10E94250861E08CE10E94250861E0DF
:104AE0008DE10E94250813FF5EC081E08093D01005
:104AF0001370123009F461C0133009F465C011302D
:104B000009F454C08FEF93E00E944E0E8FEF93E0B4
:104B10009093D4108093D3100093D210602F85E22D
:104B200090E00E94202560913F126F7760933F12C2
:104B300084E290E00E9420258091D210898301E0D8
:104B400010E09E012F5F3F4F43E063E080E00E9452
:104B5000F6210F90DF91CF911F910F910895109240
:104B6000CE1060E088E10E94250860E089E10E94A3
:104B7000250860E08CE10E94250860E08DE10E943C
:104B8000250885CF1092D1108CCF8CE10E9425088A
:104B900060E08DE10E94250861E088E10E9425081F
:104BA00061E089E19ECF1092D010A2CF8FE790E014
:104BB0000E944E0E8FE790E0ABCF8FE090E00E9416
:104BC0004E0E8FE090E0A4CF87E090E00E944E0E62
:104BD00087E090E09DCF07FF5DC081E080933B12AE
:104BE0001092CE1080913B12882309F440C014FF2C
:104BF00064C081E080933E1260E088E10E94250855
:104C000060E089E10E94250860E08CE10E942508AF
:104C100060E08DE10E94250860E012FF51C086E14E
:104C20000E94250860E087E10E94250861E08AE192
:104C30000E94250861E08BE10E94250813FF4EC009
:104C400081E080933D121370123009F451C013308B
:104C500009F455C0113009F444C08FEF93E00E946D
:104C6000D70E8FEF93E09093411280934012009300
:104C70003F12602F84E290E00E9420256091D210C4
:104C80006F776093D21085E290E00E94202580919A
:104C90003F1254CF10923B1260E086E10E9425083B
:104CA00060E087E10E94250860E08AE10E94250813
:104CB00060E08BE10E94250895CF10923E129CCFB8
:104CC0008AE10E94250860E08BE10E94250861E0EE
:104CD00086E10E94250861E087E1AECF10923D1287
:104CE000B2CF8FE790E00E94D70E8FE790E0BBCF66
:104CF0008FE090E00E94D70E8FE090E0B4CF87E085
:104D000090E00E94D70E87E090E0ADCF2F923F92C7
:104D10004F925F926F927F92AF92BF92CF92DF924B
:104D2000EF92FF920F931F93CF93DF931F921F92E7
:104D3000CDB7DEB7CDB6DEB680913B1281113EC055
:104D4000F12C8091CE10882311F40C944C312091D9
:104D5000D3103091D4108091D7102F37310511F036
:104D60000C94CC2F811106C08091D810882311F4A7
:104D70000C94022F0E940D0E882311F40C94022F24
:104D80001092D7101092D8100E940D0E90E09093C0
:104D9000FA108093F91010E08091F9109091FA10B8
:104DA000A12EB12CA816B90608F0D5C70E942E0E68
:104DB000F501E253FF4E83871F5FEECF2091401233
:104DC00030914112809144122F37310509F0E2C031
:104DD00081110DC080914512811109C0809171131C
:104DE000811105C080917613882309F460C10E9467
:104DF000750E882309F45BC110924412109245127B
:104E00000E94750E90E0909367128093661210E0F6
:104E10008091661290916712E12EF12CE816F90646
:104E200040F40E94B70EF701E55CFD4E83871F5FDB
:104E3000EFCF8C0126E432E141E067E082E00E949E
:104E4000F6214091661266E472E182E00E94B51597
:104E500080914612823141F480913F128E7F8268A8
:104E600080933F120E94342520917C13222349F124
:104E700030916A133130D9F54091801350918113EC
:104E800080E0E82FF0E0E417F50740F4E55CFD4E24
:104E900035A59385391320E08F5FF3CF222319F0D6
:104EA00081E080937D1380917F13882351F01092CD
:104EB00069131092681310927C1310927D13109254
:104EC0007E130E946E0E80919E1390919F13A0916D
:104ED000A013B091A1130196A11DB11D80939E1343
:104EE00090939F13A093A013B093A113E0C032300E
:104EF000D0F280918013909181136091681370912A
:104F000069137B014FEFE41AF40A40E0E42FF0E06C
:104F1000E817F90768F4E55CFD4E8F010E0D1F1DC3
:104F2000D8019D961C915385151320E04F5FEECF5D
:104F3000222309F4B8CF41E040937D1320916B13F5
:104F40002F5F20936B13860F971F01969093691321
:104F500080936813855C9D4EFC0185A590E090933D
:104F600081138093801332139ECF10926B13109293
:104F70006913109268138091681290E090938113E6
:104F80008093801380917E13882309F48CCF409303
:104F90007F1389CF2F30310509F0D8C1882309F458
:104FA0006EC00E94750E882309F481C0EDB6FEB66E
:104FB00010924412109245120E94750E082F10E0B4
:104FC000109367120093661270906A13F1E040919B
:104FD00068127F1629F021E0271570F440916912BC
:104FE00060E170E085E392E00E94F80D882321F0F3
:104FF000000F111F015011098DB79EB7801B910B37
:105000000FB6F8949EBF0FBE8DBFADB7BEB7119659
:105010005D011093671200936612B1E07B12E2C04B
:1050200070906812472D60E170E085E392E00E9485
:10503000F80D512C882309F4C4C0F50170820E9438
:10504000B70E512C852D90E0209168133091691393
:105050008217930708F0F5C03C01660C771C6A0CB8
:105060007B1C855C9D4EDC019E968C91F3018183B7
:105070000E94B70ED30112968C935394E3CF809184
:10508000451281118ECF0E94670900916C13109117
:105090006D1320916E1330916F13601B710B820B97
:1050A000930B643171058105910508F07ACF8091E9
:1050B0007C138823C1F10E94750E811134C00E94B7
:1050C00067096093E10E7093E20E8093E30E909374
:1050D000E40E00918E1310918F1320919013309154
:1050E00091132B013C01401A510A620A730A009184
:1050F0008C1310918D1330E020E0401651066206AB
:10510000730688F060938E1370938F1380939013BF
:105110009093911380917D13882329F081E08093EF
:10512000701310927D13E0907013EE2009F408CEF6
:105130000E94750E182F811103CE209140123091DC
:10514000411280916A132F37310509F004C3813071
:1051500009F036C280913E12882309F485C101E02E
:10516000812F90E020916813309169138217930783
:1051700008F095C1855C9D4EFC0185A50E947D0EC1
:105180000E94670960936C1370936D1380936E1384
:1051900090936F130E94670940906C1350906D13A9
:1051A00060906E1370906F136419750986099709E2
:1051B000643671058105910568F3009345121F5F00
:1051C000CFCF652C712C8091661290916712681672
:1051D0007906B8F50E94B70EF501E60DF71D80833C
:1051E0005394EFCFB1E0B71590F5E0916813F091CB
:1051F0006913E55CFD4E86A5F50180830E94B70E1C
:10520000512C852D90E020918013309181138217CD
:105210009307B8F43C01660C771C6A0C7B1CE09188
:105220006813F0916913E55CFD4EE80FF91F87A53F
:10523000D30111968C930E94B70EF301828353948D
:10524000E0CF950142E067E082E00E94F621D501BF
:105250008C918E3F41F480913F128D7F81688093C5
:105260003F120E94342580917C138823A1F0309155
:105270006A13313091F530937D1380917F13882329
:1052800051F0109269131092681310927C131092CF
:105290007D1310927E134091661266E472E182E003
:1052A0000E94B5150E946E0E80919E1390919F13DF
:1052B000A091A013B091A1130196A11DB11D8093DF
:1052C0009E1390939F13A093A013B093A1130FB6B6
:1052D000F894FEBE0FBEEDBEEACE323070F241E071
:1052E00040937D1320916B132F5F20936B1380915C
:1052F0006813909169136091801370918113860FE8
:10530000971F01969093691380936813855C9D4E57
:10531000FC0185A590E09093811380938013321354
:10532000ACCF10926B131092691310926813809196
:10533000681290E0909381138093801380917E1384
:10534000882309F49ACF40937F1397CF811105C02A
:1053500080914512882309F4AACE0E94750E8823F5
:1053600009F4A5CE10924412109245120E94750EB7
:1053700090E0909367128093661210E0809166121D
:1053800090916712E12EF12CE816F90640F40E9484
:10539000B70EF701E55CFD4E83871F5FEFCF8C01F1
:1053A00026E432E141E067E082E00E94F62180914C
:1053B0007C138823A1F030916A133130C1F430930B
:1053C0007D1380917F13882351F0109269131092FE
:1053D000681310927C1310927D1310927E134091EB
:1053E000661266E472E182E00E94B5156ACD323041
:1053F00040F341E040937D1320916B132F5F209386
:105400006B13809168139091691360918013709170
:105410008113860F971F01969093691380936813E9
:10542000855C9D4EDC019D968C9190E0909381135C
:10543000809380133213C5CF10926B1310926913AF
:10544000109268138091681290E09093811380937A
:10545000801380917E13882309F4B3CF40937F1388
:10546000B0CF01111CC01F5FE12EF12C8091681399
:1054700090916913E816F90690F40E9467092B01D0
:105480003C01F701E55CFD4E85A50E947D0E00E024
:105490000E94750E181728F3002309F443C081E019
:1054A0008093441280916813909169130297F0F0F1
:1054B000809168128331D1F4809169128823B1F010
:1054C0000E9467092B013C0110E00E94750E833099
:1054D00010F41123A9F162E070E080E090E00E94F6
:1054E0003509111103C083E10E947D0E90E080E038
:1054F0000E94960E482F65E070E080E392E00E94E3
:10550000F80D882309F453C00E94750E182FF12C52
:105510000E94750E181710F0FF2001F181E08093B2
:105520004512D8C10E94670964197509860997094F
:1055300001E0643171058105910508F0A9CFA7CF7D
:105540000E946709641975098609970911E0643199
:1055500071058105910508F0B8CFB6CF0E946709A3
:1055600040906C1350906D1360906E1370906F1399
:105570006419750986099709FF24F3946436710547
:105580008105910528F6C3CF0E94670900916C132D
:1055900010916D1320916E1330916F13601B710B7E
:1055A000820B930B643671058105910520F40E94EE
:1055B000750E813148F381E080934512F12C8AC148
:1055C0008230E0F300913E12109168131F5F0023B8
:1055D00009F440C0F12CEE24E394212F30E08091B7
:1055E0006813909169134091801350918113840F37
:1055F000951F01962817390708F06CC1255C3D4EB0
:10560000D9019D968C910E947D0E0E94670960933E
:105610006C1370936D1380936E1390936F130E94AD
:10562000670940906C1350906D1360906E137090EA
:105630006F13641975098609970964367105810528
:10564000910568F3E09245121F5FF02EC6CFB110AE
:105650002CC01F5FE12EF12C80916813909169138B
:105660002091801330918113820F931F0196E816C9
:10567000F906D8F40E9467092B013C01F701E55CAB
:10568000FD4E85A50E947D0EB12C0E94750E2091C5
:10569000681330916913209530952E0D3F1D8217A8
:1056A000130609F0A0F6BB20F1F081E080934412CC
:1056B00090E080E00E94960E482F65E070E080E365
:1056C00092E00E94F80D882391F10E94750E182F28
:1056D0000E94750E181710F0002399F081E0809356
:1056E0004512F02EF7C00E946709641975098609F2
:1056F0009709BB24B394643171058105910528F69F
:10570000C3CF0E94670940906C1350906D13609056
:105710006E1370906F13641975098609970901E07B
:10572000643671058105910598F600E0D1CF0E949D
:10573000670900916C1310916D1320916E133091D5
:105740006F13601B710B820B930B6436710581051F
:10575000910568F330CF2F30310509F0DFC181307A
:1057600009F056C100916812402F60E170E085E3B6
:1057700092E00E94F80DF82E8091681390916913C1
:10578000FF2009F478C0029788F0809169128F3F5A
:1057900069F4E9E6F2E180E081938F5F803FE1F711
:1057A00081EF90E0909369138093681300913E120B
:1057B0000023C1F1F12CEE24E394812F90E020919D
:1057C0006813309169138217930708F0A7CE855CA0
:1057D0009D4EFC0185A50E947D0E0E946709609385
:1057E0006C1370936D1380936E1390936F130E94DC
:1057F000670940906C1350906D1360906E13709019
:105800006F13641975098609970964367105810556
:10581000910568F3E09245121F5FF02ECECFF11094
:105820007DCE1F5FE12EF12C80916813909169135A
:10583000E816F90608F070C10E9467092B013C01C7
:10584000F701E55CFD4E85A50E947D0EF12C0E94BE
:10585000750E181720F3F11061CE0E9467096419C4
:10586000750986099709FF24F39465307105810550
:10587000910568F7EBCF053419F0033309F07CC0CC
:10588000069709F079C0A12EB12C809168139091F0
:105890006913A816B90608F044C00E9467092B01D5
:1058A0003C01F501E55CFD4E85A50E947D0E00E002
:1058B0000E94750E181720F1002331F101E010E06D
:1058C0002CE432E04EEF6FE080E00E94F6210E946F
:1058D0006E0EFE2C109270138091A2139091A31360
:1058E000A091A413B091A5130196A11DB11D8093A1
:1058F000A2139093A313A093A413B093A51321CA4A
:105900000111DCCF1F5FBFCF0E94670964197509C1
:105910008609970901E0653071058105910540F61A
:10592000C6CF00916C1210916D121027012710271D
:105930000E9467092B013C010B5F1F4F0E94750EEF
:105940008017110609F088F4F110B8CF0E9467099A
:105950006419750986099709FF24F394643F71401F
:105960008105910558F7F12CE9CFFF2009F423CEEA
:10597000A5CF01111BC01F5FA12EB12C8091681310
:1059800090916913A816B90600F50E9467092B01CA
:105990003C01F501E55CFD4E85A50E947D0E00E011
:1059A0000E94750E181728F3002329F18FEF8983C1
:1059B00001E010E09E012F5F3F4F4AEF6FE080E073
:1059C0000E94F6210E946E0EFE2C0E946709009133
:1059D0006C1310916D1320916E1330916F13601B37
:1059E000710B820B930B643171058105910568F38E
:1059F000F11070CFE0CD0E9467096419750986091E
:105A0000970901E0643671058105910548F6C7CF15
:105A1000823008F4D3CD00913E12109168131F5FBD
:105A2000002309F440C0F12CEE24E394212F30E050
:105A30008091681390916913409180135091811364
:105A4000840F951F01962817390708F067CD255C4C
:105A50003D4ED9019D968C910E947D0E0E94670952
:105A600060936C1370936D1380936E1390936F1308
:105A70000E94670940906C1350906D1360906E13F4
:105A800070906F136419750986099709643671055A
:105A90008105910568F3E09245121F5FF02EC6CF95
:105AA000F1103CCD1F5FA12EB12C80916813909115
:105AB00069132091801330918113820F931F0196F7
:105AC000A816B90648F50E9467092B013C01F501AB
:105AD000E55CFD4E85A50E947D0EF12C0E94750EA1
