:1000000076C1000045C4000018C40000EBC3000026
:10001000BEC3000091C3000064C3000037C30000EA
:100020000AC3000095C1000093C1000091C1000007
:100030008FC100008DC100008BC1000089C100008C
:1000400087C1000085C1000083C1000081C100009C
:100050007FC100007DC100007BC100000C94A20E96
:1000600077C100000C94440A0C94090A71C1000085
:100070006FC100006DC100006BC1000069C10000CC
:1000800067C1000065C1000063C1000061C10000DC
:100090000C94D0090C94A0095BC1000024C400009A
:1000A00057C1000055C1000053C1000051C10000FC
:1000B0004FC100004DC100004BC1000049C100000C
:1000C00047C1000045C1000043C100000C9467090E
:1000D0000C9437093DC100000C94FE080C94CE0826
:1000E00037C100004F165E166D167516E116CD1756
:1000F000CD17CD17CD17CD17CD17CD17CD17CD17E0
:1001000002172317760D790D680D6C0D700DB00D6B
:100110007D0D810D870D8B0D8F0D950D990D9D0D0D
:10012000B00DA30DA70DAB0D2D2D2D2D2D2D2D2D8E
:100130002D2D2D2D2D2D2D2D2D2D2D2D00205343ED
:10014000414E4E45522056312E3430203230313817
:100150002000202043485259534C455220434344E9
:100160002F5343492020002D2D2D2D2D2D2D2D2DAC
:100170002D2D2D2D2D2D2D2D2D2D2D002020202010
:1001800020302E3030306B6D202020202020202089
:10019000002020302E302F2020302E3020432020F1
:1001A00020202020200020302E306B506120202085
:1001B00020302E302F20302E3056002020306B6D16
:1001C0002F68202020203072706D202020302500E4
:1001D00043485259534C4552434344534349534374
:1001E000414E4E455200002100240027002A002DD8
:1001F000003000330001010000040107010A010082
:10020000002200250028002B002E003100340002BF
:10021000010000050108010B01050505050705089A
:10022000080808020202020A0A0808040404040179
:10023000010101010101010303030303030303049B
:100240000707070C0C0C0C0C0C0C0C02020202062B
:10025000060606060606060B0B0B0B0B0B0B0B011B
:1002600002102020080810204010204080020102C7
:10027000010804020101020408102040808040208F
:1002800010080402018004020180402010080402CA
:100290000108040201010204081020408001020448
:1002A000081020408000000A0B02090C0D0E080700
:1002B0000304010000000000000000000000000036
:1002C000000000000000000000000000000000002E
:1002D00000121110000000000000000000000000EB
:1002E0000000000000000000000000006D19112453
:1002F0001FBECFEFD1E2DEBFCDBF00E00CBF12E0EA
:10030000A0E0B2E0E8E3FDE300E00BBF02C007902D
:100310000D92A03AB107D9F720E1A0EAB2E001C0FE
:100320001D92AB3BB207E1F711E0C7E7D1E000E077
:1003300006C021970109802FFE010E94651CC63767
:10034000D10780E00807A9F70E94EC0E0C949A1ED2
:1003500057CE0895CF92DF92EF92FF920F931F93A3
:10036000CF93DF936C017A018B01C0E0D0E0CE1512
:10037000DF0581F0D8016D918D01D601ED91FC91E1
:100380000190F081E02DC6011995892B11F021967D
:10039000EECF7E01C701DF91CF911F910F91FF90AA
:1003A000EF90DF90CF90089585ED8093BC00809111
:1003B000BC0084FDFCCF1092591008954091E20FCB
:1003C000262F30E0240F311D21323105DCF420913D
:1003D00059102430C9F4FC0180E090E0861758F4ED
:1003E0003091E20F2191DC01AE53B04FA30FB11D4C
:1003F0002C930196F3CF8091E20F680F6093E20F88
:1004000080E0089581E0089582E0089508950895B8
:100410000895E091121080911110E81730F4F0E087
:10042000ED5EFF4E808190E008958FEF9FEF08957D
:100430009091121080911110981750F4E92FF0E06C
:10044000ED5EFF4E208130E09F5F9093121002C05E
:100450002FEF3FEFC90108958091111090E0209196
:100460001210821B91090895CF92DF92EF92FF92B2
:100470000F931F93CF93DF937C01CB018A012091CF
:100480005A10222389F0EB016B01C40ED51ECC1546
:10049000DD0561F06991D701ED91FC910190F0814A
:1004A000E02DC7011995F3CF642F88DFC801DF91D4
:1004B000CF911F910F91FF90EF90DF90CF90089513
:1004C000CF93DF931F92CDB7DEB7698320915A1087
:1004D0002223D1F020917D10203240F021E030E045
:1004E000FC013383228380E090E014C080915B1094
:1004F000E82FF0E0E45AFF4E998190838F5F80935C
:100500005B1080937D1004C061E0CE01019656DF40
:1005100081E090E00F90DF91CF91089521E001C03C
:10052000220F6A95EAF7DC011C962C931C971A9609
:100530005C934E931997ED91FC910484F585E02D21
:1005400060E01994DC01ED91FC910684F785E02DC3
:1005500041E0199581E090E0089508950895089587
:1005600080E090E0089581E08093C10F08950E949B
:100570006E1E0F931F93CF93DF93062F0F704230A1
:1005800019F440E0602F0EC0142FEC0170E084E0FD
:10059000759567958A95E1F7CE010E94190D412F57
:1005A000602FCE01DF91CF911F910F910C94190D07
:1005B000FC0184858823A9F0218532852115310528
:1005C00019F4611106C007C02130310521F4611111
:1005D00002C0858701C015866585CF010E960C94F3
:1005E000F50C0895B2C708950F931F93CF93DF932F
:1005F000EC0188819981009729F02A813B81261797
:10060000370788F48B016F5F7F4F0E948E1D009724
:1006100061F0998388831B830A832C813D81232B7E
:1006200011F4FC01108281E001C080E0DF91CF91E4
:100630001F910F9108951F920F920FB60F921124E0
:100640000BB60F922F933F934F935F936F937F93CC
:100650008F939F93AF93BF93EF93FF93E0910E021D
:10066000F0910F021995FF91EF91BF91AF919F917A
:100670008F917F916F915F914F913F912F910F904B
:100680000BBE0F900FBE0F901F9018951F920F92E8
:100690000FB60F9211240BB60F922F933F934F93E7
:1006A0005F936F937F938F939F93AF93BF93EF93DA
:1006B000FF93E0910C02F0910D021995FF91EF91DB
:1006C000BF91AF919F918F917F916F915F914F916A
:1006D0003F912F910F900BBE0F900FBE0F901F9068
:1006E00018951F920F920FB60F9211240BB60F920E
:1006F0002F933F934F935F936F937F938F939F932A
:10070000AF93BF93EF93FF93E0910202F091030246
:100710001995FF91EF91BF91AF919F918F917F912B
:100720006F915F914F913F912F910F900BBE0F9062
:100730000FBE0F901F9018951F920F920FB60F9239
:1007400011240BB60F922F933F934F935F936F93A8
:100750007F938F939F93AF93BF93EF93FF93E0911A
:100760000002F09101021995FF91EF91BF91AF91B5
:100770009F918F917F916F915F914F913F912F91B9
:100780000F900BBE0F900FBE0F901F9018951F92E9
:100790000F920FB60F9211240BB60F922F933F9327
:1007A0004F935F936F937F938F939F93AF93BF9379
:1007B000EF93FF93E0910A02F0910B021995FF91DC
:1007C000EF91BF91AF919F918F917F916F915F91C9
:1007D0004F913F912F910F900BBE0F900FBE0F9036
:1007E0001F9018951F920F920FB60F9211240BB6FF
:1007F0000F922F933F934F935F936F937F938F93BA
:100800009F93AF93BF93EF93FF93E0910802F09112
:1008100009021995FF91EF91BF91AF919F918F912F
:100820007F916F915F914F913F912F910F900BBEF0
:100830000F900FBE0F901F9018951F920F920FB63A
:100840000F9211240BB60F922F933F934F935F9308
:100850006F937F938F939F93AF93BF93EF93FF9388
:10086000E0910602F09107021995FF91EF91BF9177
:10087000AF919F918F917F916F915F914F913F9138
:100880002F910F900BBE0F900FBE0F901F901895D9
:100890001F920F920FB60F9211240BB60F922F9347
:1008A0003F934F935F936F937F938F939F93AF93F8
:1008B000BF93EF93FF93E0910402F0910502199525
:1008C000FF91EF91BF91AF919F918F917F916F9128
:1008D0005F914F913F912F910F900BBE0F900FBEE4
:1008E0000F901F9018951F920F920FB60F92112420
:1008F0000BB60F922F933F934F935F936F937F931A
:100900008F939F93AF93BF93EF93FF938091B90021
:10091000887F803609F49CC068F5883209F45BC092
:1009200090F4803109F454C038F4882309F4F6C0F7
:10093000883009F44DC0F5C0883109F44CC08032CC
:1009400009F45DC0EEC0803409F468C048F4803317
:1009500009F455C0883309F0E4C080935710D8C01B
:10096000803509F44FC0883509F45DC0883409F03A
:10097000D8C0D6C0883909F4C7C0A8F4883709F4AC
:1009800067C038F4883609F463C0803709F460C062
:10099000C8C0883809F4B8C0803909F45FC080380D
:1009A00009F0BFC05BC0803B09F486C038F4803AD0
:1009B00009F466C0883A09F47FC0B3C0803C09F4EA
:1009C000A7C0883C09F4A4C0883B09F48AC0A9C028
:1009D0008091341010C09091561080915510981746
:1009E00070F5E091561081E08E0F80935610F0E084
:1009F000EB5CFF4E80818093BB0085EC86C08093CA
:100A000057108EC0E091561081E08E0F80935610E3
:100A10008091BB00F0E0EB5CFF4E8083909156101C
:100A2000809155106EC0E091561081E08E0F80933A
:100A300056108091BB00F0E0EB5CFF4E808380910C
:100A4000581081116DC081E08093331084EA61C039
:100A500083E08093591010920410CFCF809104103E
:100A6000803208F051C0E091041081E08E0F809335
:100A700004108091BB00F0E0EC51F04F8083BDCFBB
:100A800085EC8093BC001092591080910410803244
:100A900030F4E0910410F0E0EC51F04F10826091DE
:100AA000041070E0E0910D10F0910E1084EE9FE0C4
:100AB00019951092041035C084E08093591010925B
:100AC000E30F1092E20FE0910F10F09110101995C2
:100AD0008091E20F811105C081E08093E20F1092B6
:100AE000C20FE091E30F81E08E0F8093E30FF0E0FF
:100AF000EE53F04F80818093BB009091E30F809183
:100B0000E20F981708F479CF85E88093BC0009C0FC
:100B100085EC8093BC001092591003C010925710BE
:100B200043DCFF91EF91BF91AF919F918F917F91A6
:100B30006F915F914F913F912F910F900BBE0F904E
:100B40000FBE0F901F901895DC01ED91FC9106846B
:100B5000F785E02D40E019940F931F93CF93DF9317
:100B6000EC01423018F08C8188608C834F83688759
:100B7000222329F0413019F48C8184608C8364E64F
:100B800070E080E090E00E94560E6C8164FD31C000
:100B9000E881F9810684F785E02D42E063E0CE012B
:100BA00019958BE496E40197F1F7E881F9810684C1
:100BB000F785E02D42E063E0CE01199503E512E0F0
:100BC000C8010197F1F7E881F9810684F785E02DE6
:100BD00042E063E0CE011995C8010197F1F7E88181
:100BE000F9810684F785E02D42E062E0CE01199597
:100BF00014C06062CE01A8DF8BE496E40197F1F7A0
:100C00006C816062CE01A0DF03E512E0C8010197AC
:100C1000F1F76C816062CE0197DFC8010197F1F7AF
:100C20006C816062CE0190DF8BEE90E00197F1F76E
:100C300084E08D836CE0CE0187DF61E0CE0184DF4C
:100C40008BE39FE10197F1F782E08E8366E0CE01AE
:100C50007BDFE881F9810484F585E02D6FEFCE011B
:100C6000DF91CF911F910F911994FF920F931F93D2
:100C7000CF93DF93EC01162F042FF22E8B85888BF8
:100C800084D7888991E090935A1080937C101092B9
:100C90005B1010927D10D7D491E0811190E0998B78
:100CA000811104C082E890E1C3DB8E8789898823A3
:100CB00031F01F861C8260E0CE010E9696D62F2D55
:100CC000402F612FCE01DF91CF911F910F91FF90A7
:100CD00043CFA0E8B0E01C92E1E8F0E0108210926F
:100CE000850010928400259A8C9180648C9387E013
:100CF00090E0909389008093880080818960808350
:100D0000089586E3AED7BC0180E090E00E94831A8C
:100D100020E030E040EA50E40E94C01A20E030ECCD
:100D20004FE754E40E94D11B20E030E040E052E461
:100D30000E94C01A20E030E040EA50E40E94D11B3B
:100D400020E030E048EC52E40E94C01A0E94391CB6
:100D5000683522E0720728F41092C2041092C3048E
:100D600008957093C2046093C3040895CF93C82F6D
:100D700060E08DD6C43271F0C532B1F0C332E9F40F
:100D8000CDD7609398057093990580939A059093B9
:100D90009B0513C0C3D7609394057093950580930A
:100DA00096059093970509C0B9D760939005709305
:100DB00091058093920590939305CF910895F894AF
:100DC00080914A05909149057894891B8F73089505
:100DD0002091C00230E02F5F3F4F2F733327F894EC
:100DE0004091C102789450E024173507C1F3F9010E
:100DF000EF57F04F80832093C002809131018062D1
:100E0000809331010895F89410924A051092490593
:100E10001092C0021092C102789480933401E1E3F1
:100E2000F1E0808188698083E2E3F1E0808186607F
:100E300080830895F89480918D0590918C05789425
:100E4000891B8F7308952091BE0230E02F5F3F4FC2
:100E50002F733327F8944091BF02789450E0241701
:100E60003507C1F3F901EF5BF04F80832093BE0299
:100E70008091D10080628093D1000895F8941092FF
:100E80008D0510928C051092BE021092BF027894CC
:100E90008093D400E1EDF0E0808188698083E2ED09
:100EA000F0E08081866080830895CF93DF93C82F20
:100EB000D82FD1708470C1FF80C081112EC0D11194
:100EC00010C081E0809342021092410261E086E10D
:100ED000DED561E087E1DBD560E088E1D8D560E070
:100EE0000FC01092420281E08093410260E086E1EF
:100EF000CED560E087E1CBD561E088E1C8D561E07F
:100F000089E1C5D560E08AE1C2D560E08BE1BFD55B
:100F100060E08CE1BCD560E01EC081E0D11103C06F
:100F20008093420202C08093410260E086E1AFD527
:100F300060E087E1ACD560E088E1A9D560E089E1B7
:100F4000A6D561E08AE1A3D561E08BE1A0D561E09F
:100F50008CE19DD561E08DE19AD5809142028111AD
:100F60000BC090914102911107C080914102811103
:100F700008C01092430205C091E090934302882379
:100F8000A1F3C870D1110CC029F48FE777DF10925C
:100F90008F055CC08FE072DF81E080938F0556C0C3
:100FA000C11105C08FE72FDF10928E054FC08FE073
:100FB0002ADF81E080938E0549C060E081111EC068
:100FC00086E165D560E087E162D560E088E15FD5C4
:100FD00060E089E15CD560E08AE159D560E08BE1B1
:100FE00056D560E08CE153D560E08DE150D510928C
:100FF0004202109241021092430228C086E1D111B0
:1010000013C045D560E087E142D560E088E13FD577
:1010100060E089E13CD560E08AE139D560E08BE1B0
:1010200036D51092420212C032D560E087E12FD54A
:1010300060E088E12CD560E089E129D560E08CE1B1
:1010400026D560E08DE123D510924102DF91CF914A
:101050000895F8948091BC029091BD027894891B08
:101060008F73089581E080930705F3DF8093060571
:101070000895F8949091BC028091BD02981304C029
:10108000789480E092E0089578948091BD0290E099
:1010900001968F7399278093BD02FC01EF5FF04F9B
:1010A00020818091000F90E0982F8827820F911D5A
:1010B0000895F8948091B4029091B5022091B602FF
:1010C0003091B7027894821B930B9370089520910E
:1010D000B8023091B9022F5F3F4F3370F8944091BE
:1010E000BA025091BB02789424173507B9F3F9017D
:1010F000E050F54F80833093B9022093B80280917D
:10110000C10080628093C1000895F8942091B402D8
:101110003091B5028091B6029091B7022817390735
:1011200021F4789480E092E008957894E091B602FA
:10113000F091B7023196F370E050F94F2081809121
:10114000FF0690E0982F8827820F911D0895F8944C
:101150002091B4023091B5028091B6029091B7020D
:101160002817390721F4789480E092E00895789464
:101170008091B6029091B702019693709093B70256
:101180008093B602FC01E050F94F20818091FF0668
:1011900090E0982F8827820F911D08951F920F923B
:1011A0000FB60F9211240BB60F928F939F93EF936C
:1011B000FF939091C0028091C102981779F08091BD
:1011C000C10290E001968F7399278093C102FC01C0
:1011D000EF57F04F80818093360105C08091310137
:1011E0008F7D80933101FF91EF919F918F910F90AF
:1011F0000BBE0F900FBE0F901F9018951F920F926D
:101200000FB60F9211240BB60F922F933F934F936B
:101210005F938F939F93EF93FF93209130013091D1
:101220003601287180914A0590E001968F739927C5
:101230004091490550E08417950739F080934A059D
:10124000FC01E75FFA4F308301C024E020930805DA
:10125000FF91EF919F918F915F914F913F912F91CE
:101260000F900BBE0F900FBE0F901F9018951F92FE
:101270000F920FB60F9211240BB60F928F939F937C
:10128000EF93FF939091BE028091BF02981779F07F
:101290008091BF0290E001968F7399278093BF02DF
:1012A000FC01EF5BF04F80818093D60005C08091F8
:1012B000D1008F7D8093D100FF91EF919F918F910D
:1012C0000F900BBE0F900FBE0F901F9018951F929E
:1012D0000F920FB60F9211240BB60F922F933F93DC
:1012E0004F935F938F939F93EF93FF932091D00041
:1012F0003091D600287180918D0590E001968F7312
:10130000992740918C0550E08417950739F0809318
:101310008D05FC01E45BFA4F308301C024E020938B
:101320004B05FF91EF919F918F915F914F913F916D
:101330002F910F900BBE0F900FBE0F901F9018951E
:101340001F920F920FB60F9211240BB60F928F932C
:101350009F93EF93FF939091050580910405981753
:1013600079F08091040590E001968F73992780931E
:101370000405FC01EC53FB4F80818093CE0005C037
:101380008091C9008F7D8093C900FF91EF919F915B
:101390008F910F900BBE0F900FBE0F901F9018955E
:1013A0001F920F920FB60F9211240BB60F922F932C
:1013B0003F934F935F938F939F93EF93FF9320916E
:1013C000C8003091CE0028718091BC0290E0019657
:1013D0008F7399274091BD0250E08417950739F02B
:1013E0008093BC02FC01EF5FF04F308301C024E02A
:1013F0002093000FFF91EF919F918F915F914F91FB
:101400003F912F910F900BBE0F900FBE0F901F902A
:1014100018951F920F920FB60F9211240BB60F92D0
:101420002F933F938F939F93EF93FF932091B80255
:101430003091B9028091BA029091BB022817390706
:1014400089F08091BA029091BB02019693709093BB
:10145000BB028093BA02FC01E050F54F808180937B
:10146000C60005C08091C1008F7D8093C100FF91AF
:10147000EF919F918F913F912F910F900BBE0F9005
:101480000FBE0F901F9018951F920F920FB60F92DC
:1014900011240BB60F922F933F934F935F938F932B
:1014A0009F93EF93FF932091C0003091C600287165
:1014B0008091B4029091B502019693704091B6026A
:1014C0005091B7028417950749F09093B502809325
:1014D000B402FC01E050F94F308301C024E02093B6
:1014E000FF06FF91EF919F918F915F914F913F91F7
:1014F0002F910F900BBE0F900FBE0F901F9018955D
:101500003FB7F8948091091090910A10A0910B10A8
:10151000B0910C1026B5A89B05C02F3F19F001967D
:10152000A11DB11D3FBFBA2FA92F982F8827820F69
:10153000911DA11DB11DBC01CD0142E0660F771FB9
:10154000881F991F4A95D1F70895CF93DF93CCE573
:10155000D2E08991882311F0BADDFBCFDF91CF91E2
:101560000895AF92BF92CF92DF92EF92FF920F93C6
:101570001F93CF93DF93CDB7DEB7ADB6BEB668018C
:1015800096E0C90ED11CADB7BEB7AC19BD090FB6F8
:10159000F894BEBF0FBEADBFEDB7FEB731967F0169
:1015A0009DE311969C93F8013296D7011196FC9316
:1015B00011979CEF9C0D12969C93B0E48B9F600D4D
:1015C0001124F701638344830115110561F0F901CA
:1015D000ADB7BEB71696200F311FE217F30719F00B
:1015E00081918D93FACF0B5F1F4FF701319680E009
:1015F0009F012E193F092017310718F49191890F87
:10160000F7CFF701E00FF11F808384E2AFDB8701A2
:10161000C8018E199F098C159D0528F4D8018D915C
:101620008D0155DDF5CF0FB6F894BEBE0FBEADBE31
:10163000DF91CF911F910F91FF90EF90DF90CF90AE
:10164000BF90AF90089530917D10313208F04BC0BB
:10165000809159108111FCCF90917C1022E0209351
:10166000591021E0209358102FEF2093571010921B
:10167000561030935510ECE5F0E1A5E3B0E120E021
:10168000321721F041914D932F5FFACF1092341011
:1016900020913410990F922B909334109091331025
:1016A000913061F410923310909134109093BB00FC
:1016B0009091BC0093FDF8CF95EC01C095EE90930E
:1016C000BC00909159109230E1F3909157109F3FD8
:1016D00079F080915710803241F08091571080331B
:1016E00031F084E005C081E003C082E001C083E006
:1016F00010925B1010927D1010925A1008953F9234
:101700004F925F926F927F928F929F92AF92BF9211
:10171000CF92DF92EF92FF920F931F93CF93DF93BD
:101720004B015C016A018901AB01BC01420F531FEF
:10173000611D711D8091B0109091B110A091B210F7
:10174000B091B31084179507A607B70708F4AAC08D
:101750007724739466246A9495EE592E25EC422ED4
:101760000115110509F4A0C0C091AB10D091AC10C7
:10177000CE01019788219921C81BD90BC8010132DC
:10178000110510F080E290E08C179D0708F4EC0141
:10179000D501C4010090AD1004C0B695A7959795EA
:1017A00087950A94D2F7F090A710F82A70925A10F1
:1017B000F0927C1010925B1010927D108091AE1010
:1017C0009091AF10029741F499278B2D7A2D692DB6
:1017D00082E890E10E946002682D82E890E10E9418
:1017E000600231DF811161C0809159108111FCCFFD
:1017F0009C2F70925910709258106092571010924E
:1018000056108C2F81508093551070923410809117
:101810003410FF0CF82AF09234108091331081308C
:1018200069F410923310809134108093BB00809142
:10183000BC0083FDF8CF4092BC0002C05092BC00B7
:10184000809159108130E1F380915610891710F47E
:1018500090915610A5E3B0E1E3E1F0E180E0891753
:1018600021F02D9121938F5FFACF10921210809367
:101870001110312CE32CF12CEC16FD0650F4EC0C7D
:10188000FD1C82E890E10E941802F70180833394E6
:10189000F1CF8C0E9D1EA11CB11CCC0EDD1E0C1BAD
:1018A0001D0B5ECF89E001C080E0DF91CF911F91D9
:1018B0000F91FF90EF90DF90CF90BF90AF909F90EF
:1018C0008F907F906F905F904F903F900895EF9230
:1018D000FF920F931F93CF93DF938B01877098E054
:1018E000899FB001112460648EE890E12DD983E7CF
:1018F00090E00197F1F7E801085F1F4F8BE9E82EB0
:10190000F12C69918EE890E10E94A202C701019733
:10191000F1F7C017D107A9F7DF91CF911F910F9170
:10192000FF90EF9008950F931F93CF93DF938C0157
:10193000C0E0D0E0F801EC0FFD1F6491662341F098
:101940008EE890E10E94A202892B11F02196F2CF3D
:10195000CE01DF91CF911F910F9108950F931F93A7
:10196000CF93DF93CDB7DEB728970FB6F894DEBFDD
:101970000FBECDBF00915402109155022091560226
:10198000309157020D831E832F83388700915802B0
:101990001091590220915A0230915B0209831A83F7
:1019A0002B833C8390919510691710F06FEF690FAE
:1019B00040919610262F30E0FE01E20FF31F4031D8
:1019C00021F4943011F4618101C06581680F606871
:1019D0008EE890E128960FB6F894DEBF0FBECDBF1B
:1019E000DF91CF911F910F91AFC8FC0183818823B4
:1019F000B9F0962F6181609569236083828191E0BF
:101A000090935A1080937C1010925B1010927D106E
:101A100082E890E10E94600216DE282F30E002C0CA
:101A200020E030E081E090E0232B11F080E090E0B6
:101A30000895EF92FF920F931F93CF938C01FC01B7
:101A400084E0C0E060FF02C09589C92B6695815093
:101A500031968111F7CF413011F4F8014489F80132
:101A60008585C82BC42B7801FEE0EF0EF11CF80130
:101A700062896C2BC701B9DFF801628960956C231C
:101A8000C701CF911F910F91FF90EF90AECF362FEE
:101A900090E0FC01EB55FD4F4491FC01E15AFD4FF4
:101AA0002491FC01E75EFD4F9491992309F46CC0E9
:101AB000442309F455C050E0FA013197E231F105B1
:101AC00008F04EC08827EE57FF4F8F4F0C94651CCF
:101AD000809180008F7707C0809180008F7D03C048
:101AE00080918000877F809380003AC084B58F7793
:101AF00002C084B58F7D84BD33C08091B0008F77E4
:101B000003C08091B0008F7D8093B00029C0809188
:101B100090008F7707C0809190008F7D03C08091E7
:101B20009000877F809390001BC08091A0008F77EA
:101B300007C08091A0008F7D03C08091A000877FA7
:101B40008093A0000DC0809120018F7707C0809105
:101B500020018F7D03C080912001877F8093200129
:101B6000E92FF0E0EE0FFF1FE150FE4FA591B49179
:101B70009FB7F894311104C08C912095282302C09E
:101B8000EC912E2B2C939FBF08951092121010925F
:101B9000111010925B1010927D101092591081E07C
:101BA000809358101092331061E084E170DF61E09F
:101BB00085E16DDFE9EBF0E080818E7F80838081BD
:101BC0008D7F808388E48093B80085E48093BC0097
:101BD00086E092E09093101080930F1087E092E0DF
:101BE00090930E1080930D100895CF93DF9390E0A3
:101BF000FC01E15AFD4F2491FC01E75EFD4F849109
:101C0000882361F190E0880F991FFC01EB51FE4F92
:101C1000C591D491FC01E150FE4FA591B4916111A1
:101C200009C09FB7F8948881209582238883EC911E
:101C30002E230BC0623061F49FB7F8948881322F55
:101C4000309583238883EC912E2B2C939FBF06C065
:101C50008FB7F894E8812E2B28838FBFDF91CF9127
:101C60000895863308F0865390917B00282F2870C2
:101C7000977F922B90937B002091490290E4299FBB
:101C8000900111248770822B80937C0080917A00D0
:101C9000806480937A0080917A0086FDFCCF8091E9
:101CA00078002091790090E0922B08958F929F9276
:101CB000AF92BF92CF92DF92EF92FF926B017C01C5
:101CC0001FDC4B015C01C114D104E104F104E9F013
:101CD00017DCDC01CB0188199909AA09BB09883EE8
:101CE0009340A105B10578F321E0C21AD108E108BB
:101CF000F10888EE880E83E0981EA11CB11CC11467
:101D0000D104E104F10421F7DECFFF90EF90DF90E2
:101D1000CF90BF90AF909F908F9008952FB7F89479
:101D20006091051070910610809107109091081035
:101D30002FBF0895F3DFEEE7F0E190838183728394
:101D4000638308951F920F920FB60F9211242F9361
:101D50003F938F939F93AF93BF9380910510909182
:101D60000610A0910710B09108103091B41023E034
:101D7000230F2D3720F40196A11DB11D05C026E8C3
:101D8000230F0296A11DB11D2093B410809305105E
:101D900090930610A0930710B0930810809109103B
:101DA00090910A10A0910B10B0910C100196A11DFA
:101DB000B11D8093091090930A10A0930B10B0935B
:101DC0000C10BF91AF919F918F913F912F910F90E8
:101DD0000FBE0F901F901895CF93DF93CDB7DEB74E
:101DE0002E970FB6F894DEBF0FBECDBF789484B5A2
:101DF000826084BD84B5816084BD85B5826085BD07
:101E000085B5816085BD80916E00816080936E0094
:101E10001092810080918100826080938100809186
:101E20008100816080938100809180008160809337
:101E300080008091B10084608093B1008091B000F7
:101E400081608093B00080919100826080939100C6
:101E500080919100816080939100809190008160D9
:101E6000809390008091A10082608093A100809176
:101E7000A10081608093A1008091A0008160809387
:101E8000A000809121018260809321018091210135
:101E900081608093210180912001816080932001E5
:101EA00080917A00846080937A0080917A008260C9
:101EB00080937A0080917A00816080937A0080918B
:101EC0007A00806880937A001092C10062E082E01C
:101ED0008CDE62E083E089DE61E083E286DE61E041
:101EE00084E283DE61E085E280DE60E086E37DDE21
:101EF00083E20E94B60684E20E94B60685E20E9452
:101F0000B60661E086E171DE61E087E16EDE61E0E8
:101F100088E16BDE61E089E168DE61E08AE165DE2F
:101F200061E08BE162DE61E08CE15FDE61E08DE12A
:101F30005CDE82E00E94550782E398E09093010204
:101F40008093000280916A008C7F826080936A0097
:101F5000EC9A83EB92E090930302809302028091CB
:101F60006A00837F886080936A00ED9AF8941092EB
:101F7000B5021092B4021092B7021092B6021092FB
:101F8000B9021092B8021092BB021092BA02789471
:101F900083E08093C4008091C10088698093C10070
:101FA0008091C20086608093C200F8941092BC02B7
:101FB0001092BD02109205051092040578948FE7E7
:101FC0008093CC008091C90088698093C90080917A
:101FD000CA0086608093CA008FE70E943E078FE7A1
:101FE0000E940307D2DD8CE08093B8008091A71097
:101FF00091E090935A1080937C1010925B10109295
:102000007D108091AE109091AF10029729F460E09E
:1020100082E890E10E94600260E082E890E10E9424
:10202000600211DB8823A1F18FEF8F8301E010E0C4
:102030009E01295F3F4F4AEF6FE080E092DA1092F5
:10204000B2021092B3021092AA021092AB02109246
:10205000AC021092AD021092AE021092AF0210923A
:10206000B0021092B1021092A2021092A30210923A
:10207000A4021092A5021092A6021092A70210923A
:10208000A8021092A9021092A1021092A0029EC072
:1020900022E030E042EB52E060E070E0CB012FDB69
:1020A000882371F08F8301E010E09E01295F3F4F8C
:1020B0004CEF6FE080E055DA1092B2021092B3025A
:1020C00028E030E04AEA52E062E070E080E090E030
:1020D00016DB8823D1F08F8301E010E09E01295F99
:1020E0003F4F4CEF6FE080E03CDA1092AA02109272
:1020F000AB021092AC021092AD021092AE0210929E
:10210000AF021092B0021092B10228E030E042EA31
:1021100052E06AE070E080E090E0F1DA8823D1F0EC
:102120008F8301E010E09E01295F3F4F4CEF6FE08D
:1021300080E017DA1092A2021092A3021092A40279
:102140001092A5021092A6021092A7021092A80265
:102150001092A90221E030E041EA52E06FEF70E016
:1021600080E090E0CCDA882361F08F8301E010E01A
:102170009E01295F3F4F4CEF6FE080E0F2D9109253
:10218000A1021092A002C12CD12C760121E030E0F6
:10219000AE014F5F5F4FC701B601B1DA90E0009723
:1021A00011F4898103C09195819591099091A002C4
:1021B000890F8093A0022FEFC21AD20AE20AF20A14
:1021C0003FEFC316D104E104F10401F720E044E03D
:1021D00064E18EE890E10E9435066FEF8EE890E1B1
:1021E0000E94D80261E08EE890E10E94A4050BE312
:1021F0001FE1C8010197F1F762E08EE890E10E94CB
:10220000A405C8010197F1F787E691E08CDB61E056
:1022100080E0A4DB82E591E086DB62E080E09EDB8B
:102220008DE391E080DB63E080E098DB88E291E081
:102230007ADB68E372E080E04ADB60E372E081E031
:1022400046DB68E272E082E042DB60E272E083E05B
:102250003EDB68E172E084E03ADB60E172E085E059
:1022600036DB81E0809349020E9481060E94690664
:1022700081E0F7DCBC01990F880B990B61157105A2
:102280008105910511F00E94501AE0EDF1E0ADE1F9
:10229000B6E084918D93319646E0A233B407C9F736
:1022A000F8948091B6029091B7029093B502809312
:1022B000B4027894F8948091BA029091BB02909302
:1022C000B9028093B8027894F8948091BD0280930B
:1022D000BC027894F8948091040580930505789465
:1022E000F89480918C0580938D057894F894809172
:1022F000BF028093BE027894F89480914905809340
:102300004A057894F8948091C1028093C002789431
:1023100060ED77E080E090E0C9DC60E080E01EDB0B
:102320008BEB91E000DB61E080E018DB86EA91E076
:10233000FADA62E080E012DB81E991E0F4DA63E04E
:1023400080E00CDB8CE791E0EEDA62E08BE006DB0C
:1023500065E08EE890E10E94A20281E0898301E0BD
:1023600010E09E012F5F3F4F40E060E080E0F9D831
:102370009FE088E10FB6F894A895809360000FBEA7
:1023800090936000A8950E9481060E945908892BAD
:1023900009F4BCC083E20E94B6060E94A7089927F0
:1023A0008D33910519F0CE9741F1B0C04DB65EB6B0
:1023B00019865FEF5F83B2DC6B017C0110E00E9445
:1023C0005908029708F0D5C3112309F4C3C301E0EB
:1023D00010E09E01295F3F4F46E006C001E010E09B
:1023E0009E01295F3F4F41E06FE080E0BAD80FB611
:1023F000F8945EBE0FBE4DBE89C01A8219821C823F
:102400001B821E821D8260E070E0CE0101960E9458
:10241000F40229813A8181110DC02115310519F08D
:10242000C9010E94051D1A8219821E821D821C820A
:102430001B8207C01E821D8269E972E0C9010E94E9
:10244000841E0E945908892BE1F30E94A7088A3054
:10245000E9F08D30D9F08F8318860D811E810F5FD2
:102460001F4FB801CE0101960E94F402882349F360
:1024700029813A818D819E81BE01695F7F4F820FE4
:10248000931F0E94841E1E830D83DBCF0E9485084C
:102490000A9709F49DC60E9485080D9709F498C60D
:1024A0000D811E810038110508F064C60115110563
:1024B00009F055C610929D0584E20E94B6068091EF
:1024C0009C0581110FC068E972E08DE995E0F1D7B4
:1024D00002EC12E0009709F051C680919C05882318
:1024E00009F46BC680E8EDE9F5E011928A95E9F709
:1024F000E2ECF2E020E032E0119221503040E1F7CE
:1025000010929C0589819A810E94051D809140024C
:10251000882309F403C180910705882309F43FC18A
:1025200080910605882309F440C0CDB6DEB68091BF
:10253000060590E004964DB75EB7481B590B0FB6E1
:10254000F8945EBF0FBE4DBF8DB79EB701967C015C
:10255000F1DB80917E10F701808380917F10818371
:1025600080918010828380918110838310E080911C
:102570000605181740F40E943908F701E10FF11D14
:1025800084831F5FF4CF0091060510E00C5F1F4F9E
:10259000970141E067E081E00E94B10A10920605D0
:1025A0000FB6F894DEBE0FBECDBE80915A068823CA
:1025B00009F484C0009158061091590601151105BF
:1025C00009F47CC0ABDBC0905406D0905506E09077
:1025D0005606F09057069B01AC012C193D094E0997
:1025E0005F0969017A0120E030E00C151D052E0518
:1025F0003F0508F063C060935406709355068093BE
:1026000056069093570601D723E030E040E050E0B3
:102610000E94741BDC01CB010396A11DB11D8093A8
:102620005306F12C0F2D10E08091530690E09C0191
:10263000225031090217130794F4E7D60D5C194FA5
:102640002DEF30E040E050E00E94741BDC01CB0134
:102650000196A11DB11DF8018083F394E3CF01978A
:10266000E3E3F6E020E0AF01435356404817590733
:1026700018F43191230FF7CFFC01ED5CF94F208363
:1026800081E080933206C1D620EB34E040E050E098
:102690000E94741BDC01CB01845D9E4FAF4FBF4F86
:1026A00090935906809358062091530630E001E03C
:1026B00010E041E06EE080E00E94B10A80913206B5
:1026C000882349F120E080915306281700F5E22F76
:1026D000F0E0ED5CF94F30818091050590E00196C6
:1026E0008F739927F89440910405789450E08417EB
:1026F0009507C1F3FC01EC53FB4F30838093050534
:102700008091C90080628093C9002F5FDCCF109256
:102710005306109232061092070541C00E94290804
:102720008823E9F1CDB6DEB690E004962DB73EB72A
:10273000281B390B0FB6F8943EBF0FBE2DBF4DB707
:102740005EB74F5F5F4F7A01F5DA80917E10F70137
:10275000808380917F10818380918010828380911B
:102760008110838310E080910605181740F40E94C1
:102770003908F701E10FF11D84831F5FF4CF009149
:10278000060510E00C5F1F4F970141E067E081E014
:102790000E94B10A0FB6F894DEBE0FBECDBE809186
:1027A0004302882309F452C180914202882309F42C
:1027B000A4C00E941A07882309F43BC040E090910E
:1027C000F006F89430918D0520918C05321304C0E9
:1027D000789420E032E015C0789420918C0530E0A8
:1027E0002F5F3F4F2F73332720938C05F901E45B54
:1027F000FA4F508120914B0530E0322F2227250FD0
:10280000311DE92FF0E0E053F94F20839091F0065D
:102810009F5F9093F006903218F44F5F8413CFCFF0
:102820007DDA6093CC067093CD068093CE069093AC
:10283000CF0674DA0091CC061091CD062091CE0619
:102840003091CF06DC01CB01801B910BA20BB30BA7
:10285000B090F00685369105A105B10518F0B110CC
:10286000A3C324C0F0E2BF1221C09EC3970140E081
:1028700067E082E00E94B10A1092F0068091C806DB
:102880009091C906A091CA06B091CB060196A11DF0
:10289000B11D8093C8069093C906A093CA06B09351
:1028A000CB060FB6F894DEBE0FBECDBE8091C70634
:1028B000882319F10E941A07882309F4A2C31DC0B6
:1028C000011117C01F5F8091C606181790F426DA11
:1028D0006B017C01E12FF0E0EA55F94F80810E9405
:1028E000230700E00E941A07181750F3002309F489
:1028F000B8C31092C6061092C70680914102882381
:1029000009F4A4C00E94DF06882309F43BC040E01C
:102910009091A506F89430914A052091490532130B
:1029200004C0789420E032E015C0789420914905E5
:1029300030E02F5F3F4F2F73332720934905F90174
:10294000E75FFA4F50812091080530E0322F2227AF
:10295000250F311DE92FF0E0EB57F94F20839091BF
:10296000A5069F5F9093A506903218F44F5F8413DD
:10297000CFCFD4D96093810670938206809383066B
:1029800090938406CBD90091810610918206209104
:10299000830630918406DC01CB01801B910BA20BD6
:1029A000B30BB090A50685369105A105B10518F0C9
:1029B000B11067C324C020E2B21221C062C39701E4
:1029C00040E067E083E00E94B10A1092A506809182
:1029D0007D0690917E06A0917F06B09180060196BB
:1029E000A11DB11D80937D0690937E06A0937F0666
:1029F000B09380060FB6F894DEBE0FBECDBE8091B8
:102A00007C06882319F10E94DF06882309F467C336
:102A10001DC0011117C01F5F80917B06181790F42D
:102A20007DD96B017C01E12FF0E0E55AF94F8081FF
:102A30000E94E80600E00E94DF06181750F300230A
:102A400009F47DC310927B0610927C0667D96B0156
:102A50007C016093F5067093F6068093F7069093D9
:102A6000F80680914802882321F18091F106909127
:102A7000F206A091F306B091F406B701A601481B37
:102A8000590B6A0B7B0B8091460290914702A0E0A4
:102A9000B0E0481759076A077B0758F0C092F10663
:102AA000D092F206E092F306F092F40685E20E94DC
:102AB000B6068090440290904502A12CB12C8091E2
:102AC000980590919905A0919A05B0919B05A70151
:102AD0009601281B390B4A0B5B0B281539054A0553
:102AE0005B0520F061E083E20E94470D8091940530
:102AF00090919505A0919605B0919705A701960133
:102B0000281B390B4A0B5B0B281539054A055B0559
:102B100020F061E084E20E94470D80919005909141
:102B20009105A0919205B0919305C81AD90AEA0AB5
:102B3000FB0AC814D904EA04FB0420F061E085E232
:102B40000E94470D40E050E0452B09F41BCC0E9449
:102B5000000018CCE3D8DC01CB018C199D09AE092B
:102B6000BF0911E0893C9105A105B10508F027CC0A
:102B700025CC11112CCC0E94A708382E0E94A70842
:102B8000282E3D861C86AC84BD84A80EB11C350160
:102B90008FEF681A780A92E0A91AB108EBEFAE1627
:102BA000E3E0BE0608F01ACCB9D86B017C0110C076
:102BB00011110DCCB3D8DC01CB018C199D09AE09E4
:102BC000BF0911E085369105A105B10508F410E0B3
:102BD0000E9459088615970558F31111F8CB0E94E9
:102BE000A7086C010E94A7088C018E8795012150CF
:102BF00031093B872A874DB75EB74A195B090FB683
:102C0000F8945EBF0FBE4DBF8DB79EB701967C0195
:102C1000A114B10479F04C010E94A708F40181933A
:102C20004F01CF018E199F098A159B05A8F399249E
:102C3000939401C0912C0E94A708320C3C0C300EDA
:102C4000992051F0F7019F012E193F092A153B05E4
:102C500018F49191390EF7CF831539F001E010E0A7
:102C60009E01295F3F4F45E0BFCB8C2D8F70F60151
:102C7000FF2794E0F595E7959A95E1F7E370E23048
:102C800009F423C1E33009F445C1E13009F4E2C09D
:102C900090E0FC018827EE58FF4F8F4F16C601E0E9
:102CA00010E09E01275F3F4F40E060E080E00E941F
:102CB000B10A60E085E20E94470DFFCF05E110E018
:102CC0002DE136E040E061E080E00E94B10AFE853F
:102CD000F13009F08CCB7FD282C001E010E09E0180
:102CE000275F3F4F40E062E080CB112701301105A4
:102CF000A9F128F00230110509F457C047C1992005
:102D000009F44CC024E0A216B10408F447C0F7014E
:102D1000808190E0982F88272181820F911D009754
:102D200019F41092480207C090934702809346021C
:102D300081E080934802F701828190E0982F8827F4
:102D40002381820F911D009721F09093450280937B
:102D5000440204E010E0970140E031C09920F1F016
:102D6000F7018081882339F08130C1F480934002DB
:102D70000E9469060EC010924002109280001092CC
:102D800081001092850010928400109289001092A8
:102D9000880001E010E0970141E011C001E010E07F
:102DA0009E01295F3F4F44E01FCB9920B9F3F70103
:102DB00080810E94550701E010E0970142E063E046
:102DC00014CB11270130110561F048F002301105D4
:102DD00081F00330110509F0D9C0FDD108CB26D20E
:102DE00006CB0E949A0E04E010E02EE730E141E0AD
:102DF00007C00E94810602E010E022EC34E042E0CD
:102E000065E0F3CA013009F0C1C0F701808181306B
:102E100099F480935A06F9D220EB34E040E050E078
:102E200063D4DC01CB01845D9E4FAF4FBF4F9093C5
:102E3000590680935806DBCA10925A06109259061A
:102E400010925806D4CA01E010E09E01275F3F4F60
:102E500040E0CACA863009F0A0C011270130110530
:102E600009F05FC0F4E06F1A710820E26216710485
:102E700008F094CF20E0822F90E08A159B0550F453
:102E8000FC01ED5CF94FD701A80FB91F8C9180832D
:102E90002F5FF1CFA0925306E3E3F6E080E09F01BD
:102EA000235336404A855B852417350718F49191E2
:102EB000890FF5CFEA85FB85ED5CF94F908198137A
:102EC000808381E08093320692CA863009F065C023
:102ED00011270130110529F554E0651A710880E2C7
:102EE0006816710408F05ACF20E0822F90E08A150E
:102EF0009B0550F4FC01EA55F94FD701A80FB91F03
:102F00008C9180832F5FF1CFA092C60681E08093E1
:102F1000C7066DCA863009F040C01127013011057F
:102F2000B9F00130110558F00230110579F5E98347
:102F300001E010E09E012F5F3F4F42E007C0E983B0
:102F400001E010E09E012F5F3F4F40E066E04DCA78
:102F500094E0691A7108E0E26E16710408F01ECF61
:102F600020E0822F90E08A159B0550F4FC01E55A81
:102F7000F94FD701A80FB91F8C9180832F5FF1CF34
:102F8000A0927B0681E080937C0631CA01E010E0CC
:102F90009E01295F3F4F43E027CA01E010E09E01F8
:102FA000295F3F4F42E020CACDB6DEB60B2D10E0C0
:102FB0000C5F1F4F8DB79EB7801B910B0FB6F89417
:102FC0009EBF0FBE8DBFEDB7FEB731967F010E9449
:102FD0009A0E80917E10F701808380917F1081830B
:102FE000809180108283809181108383A0EDB6E070
:102FF000349680E0B81609F439CC9D9191938F5F97
:10300000F9CF80918F0510E0882309F45CCC18C0BB
:1030100001116FCC0E948E0EDC01CB018C199D0931
:10302000AE09BF0901E0893C9105A105B10508F48D
:1030300000E00E941A07181758F701115ACC1F5FB9
:103040008091C606181708F054CC0E948E0E6B01B2
:103050007C01E12FF0E0EA55F94F80810E942307BF
:10306000E7CF0E948E0EDC01CB018C199D09AE09C1
:10307000BF0901E0893C9105A105B10508F032CCFA
:1030800030CCCDB6DEB60B2D10E00C5F1F4F2DB748
:103090003EB7201B310B0FB6F8943EBF0FBE2DBFBD
:1030A0004DB75EB74F5F5F4F7A010E949A0E8091D5
:1030B0007E10F701808380917F1081838091801042
:1030C0008283809181108383A5E8B6E0349680E006
:1030D000B81609F474CC9D9191938F5FF9CF8091CC
:1030E0008E0510E0882309F497CC18C00111AACCF2
:1030F0000E948E0EDC01CB018C199D09AE09BF091F
:1031000001E0893C9105A105B10508F400E00E94A9
:10311000DF06181758F7011195CC1F5F80917B06C9
:10312000181708F08FCC0E948E0E6B017C01E12FE6
:10313000F0E0E55AF94F80810E94E806E7CF0E944F
:103140008E0EDC01CB018C199D09AE09BF0901E08F
:10315000893C9105A105B10508F06DCC6BCC698166
:103160007A81A8018DE995E0D6D5F801E356FA4FAA
:103170001082A2C981E080939C05A1C922EC34E0B1
:103180002017310709F4A9C9FC0101900020E9F7D3
:103190003197E81BF90BE034F10558F4BC01C80184
:1031A000B3D568E972E080E090E083D1005C1F4F06
:1031B00091C981E080939C0590C96AE972E082EC34
:1031C00092E099D5892B09F08DC90E94F2028AC933
:1031D0000E94A70865C90F931F93CF93DF931F9297
:1031E0001F92CDB7DEB78091A1029091A002891302
:1031F0000AC019828A8302E010E09E012F5F3F4FD0
:1032000043E065E009C089839A8302E010E09E01F3
:103210002F5F3F4F4BEF6FE080E00E94B10A0F90AD
:103220000F90DF91CF911F910F9108950F931F93EE
:10323000CF93DF93CDB7DEB76A970FB6F894DEBFB2
:103240000FBECDBFE2EBF2E08081898381818A836A
:10325000EAEAF2E080818B8381818C8382818D8395
:1032600083818E8384818F83858188878681898706
:1032700087818A87E2EAF2E080818B8781818C876F
:1032800082818D8783818E8784818F878581888BDA
:103290008681898B87818A8B1B8A1C8A1D8A1E8A5C
:1032A0008DE58F8B83E6888F82E8898F8CED8A8FFE
:1032B0000AE110E09E012F5F3F4F40E065E080E0B3
:1032C0000E94B10A6A960FB6F894DEBF0FBECDBF5A
:1032D000DF91CF911F910F910895E2E8F0E1138201
:1032E000128288EE93E0A0E0B0E084839583A68309
:1032F000B78386E792E091838083E7EAF0E120E2FA
:1033000030E03283218381E083833583248390E519
:10331000908340E050E160E070E04187528763872E
:10332000748722E030E0308727839CE09683EEE8C4
:10333000F0E11382128228E832E031832083108A80
:103340009FEF97871686118A97E2938714861586D2
:103350001286118694E0928B92E0938B848B80E1AD
:10336000858B80E2868B80E4878B80E8808F40E0CD
:1033700050E063E0CF010C948E028F929F92AF9247
:10338000BF92CF92DF92EF92FF92CF93DF93EC0147
:10339000688179818A819B8161157105810591051B
:1033A00021F464E279ED8BE597E02DE133EF41E024
:1033B00050E09AD149015A019B01AC01A7EAB1E45E
:1033C000AFD16B017C01ACEEB4EFA5019401B4D197
:1033D000DC01CB018C0D9D1DAE1DBF1DB7FF03C0D1
:1033E0000197A109B04888839983AA83BB83BC0154
:1033F000CD019F77DF91CF91FF90EF90DF90CF903D
:10340000BF90AF909F908F9008958F929F92AF92B0
:10341000BF92CF92DF92EF92FF9260914A02709139
:103420004B0280914C0290914D026115710581050E
:10343000910521F464E279ED8BE597E02DE133EF1E
:1034400041E050E051D149015A019B01AC01A7EA8A
:10345000B1E466D16B017C01ACEEB4EFA50194013F
:103460006BD1DC01CB018C0D9D1DAE1DBF1DB7FFC7
:1034700003C00197A109B04880934A0290934B0280
:10348000A0934C02B0934D02BC01CD019F77FF90F9
:10349000EF90DF90CF90BF90AF909F908F90089566
:1034A00060934A0270934B0280934C0290934D02BA
:1034B000089545EB50E100C0FA01A191B081009759
:1034C00019F41097E1F0CD01DC01CD010D90002041
:1034D00011F4C00113C0FB012191222319F0201522
:1034E000D9F7F3CFFB012191201519F41E92119603
:1034F00006C02223C1F70D900020A1F7D001FA01E8
:10350000A193B0830895E89409C097FB3EF4909589
:103510008095709561957F4F8F4F9F4F9923A9F0AC
:10352000F92F96E9BB279395F6958795779567953B
:10353000B795F111F8CFFAF4BB0F11F460FF1BC07F
:103540006F5F7F4F8F4F9F4F16C0882311F096E912
:1035500011C0772321F09EE8872F762F05C06623C0
:1035600071F096E8862F70E060E02AF09A95660F79
:10357000771F881FDAF7880F9695879597F9089532
:103580000BD078C069D028F06ED018F0952309F0E0
:103590005AC05FC01124A2C07ED0A0F3959FD1F382
:1035A000950F50E0551F629FF001729FBB27F00DF1
:1035B000B11D639FAA27F00DB11DAA1F649F662746
:1035C000B00DA11D661F829F2227B00DA11D621F95
:1035D000739FB00DA11D621F839FA00D611D221F4F
:1035E000749F3327A00D611D231F849F600D211D33
:1035F000822F762F6A2F11249F5750408AF0E1F0D6
:1036000088234AF0EE0FFF1FBB1F661F771F881F1E
:1036100091505040A9F79E3F510570F014C05EC014
:103620005F3FECF3983EDCF3869577956795B79509
:10363000F795E7959F5FC1F7FE2B880F911D969533
:10364000879597F9089597F99F6780E870E060E0A3
:1036500008959FEF80EC089500240A94161617062B
:1036600018060906089500240A9412161306140673
:1036700005060895092E0394000C11F4882352F0D6
:10368000BB0F40F4BF2B11F460FF04C06F5F7F4F8E
:103690008F4F9F4F089557FD9058440F551F59F075
:1036A0005F3F71F04795880F97FB991F61F09F3F2F
:1036B00079F087950895121613061406551FF2CF58
:1036C0004695F1DF08C0161617061806991FF1CFA8
:1036D00086957105610508940895E894BB276627CF
:1036E0007727CB0197F90895052E97FB16F40094E0
:1036F0000FD057FD05D024D007FC02D046F408C0F7
:1037000050954095309521953F4F4F4F5F4F08950D
:1037100090958095709561957F4F8F4F9F4F08953D
:1037200031D0A59F900DB49F900DA49F800D911D49
:1037300011240895B7FFF4CFF3DF821B930B089594
:10374000A1E21A2EAA1BBB1BFD010DC0AA1FBB1FA5
:10375000EE1FFF1FA217B307E407F50720F0A21B17
:10376000B30BE40BF50B661F771F881F991F1A9484
:1037700069F760957095809590959B01AC01BD01AE
:10378000CF010895A29FB001B39FC001A39F700D08
:10379000811D1124911DB29F700D811D1124911D59
:1037A00008950CD067CF5FDF40F056DF30F021F492
:1037B0005F3F19F048CF511191CF4BCF6CDF98F399
:1037C0009923C9F35523B1F3951B550BBB27AA27A2
:1037D00062177307840738F09F5F5F4F220F331F14
:1037E000441FAA1FA9F333D00E2E3AF0E0E830D0E0
:1037F00091505040E695001CCAF729D0FE2F27D0E3
:10380000660F771F881FBB1F261737074807AB07B0
:10381000B0E809F0BB0B802DBF01FF2793585F4F25
:103820002AF09E3F510568F00ECF58CF5F3FECF372
:10383000983EDCF3869577956795B795F7959F5FEA
:10384000C9F7880F911D9695879597F90895E1E03E
:10385000660F771F881FBB1F621773078407BA079D
:1038600020F0621B730B840BBA0BEE1F88F7E095F8
:10387000089519DF88F09F5790F0B92F9927B75115
:10388000A0F0D1F0660F771F881F991F1AF0BA9524
:10389000C9F712C0B13081F020DFB1E008951DCF2B
:1038A000672F782F8827B85F39F0B93FCCF386951A
:1038B00077956795B395D9F73EF490958095709577
:1038C00061957F4F8F4F9F4F0895EE0FFF1F881F09
:1038D0008BBF0790F691E02D19940F931F93CF9310
:1038E000DF938230910510F482E090E0E091B9100E
:1038F000F091BA1020E030E0A0E0B0E0309719F18C
:10390000408151810281138148175907C8F08417FB
:10391000950769F4109731F012960C93129713964D
:103920001C9327C00093B9101093BA1022C0211520
:10393000310519F04217530718F49A01BD01EF0140
:10394000DF01F801DBCF21153105F9F0281B390B18
:103950002430310580F48A819B816115710521F045
:10396000FB019383828304C09093BA108093B910B3
:10397000FE01329644C0FE01E20FF31F8193919342
:1039800022503109398328833AC02091B7103091F1
:10399000B810232B41F42091500230915102309302
:1039A000B8102093B71020914E0230914F0221158C
:1039B000310541F42DB73EB7409152025091530268
:1039C000241B350BE091B710F091B810E217F30704
:1039D000A0F42E1B3F0B2817390778F0AC014E5F7F
:1039E0005F4F2417350748F04E0F5F1F5093B810F4
:1039F0004093B7108193919302C0E0E0F0E0CF01D3
:103A0000DF91CF911F910F910895CF93DF9300978E
:103A100009F481C0FC01329713821282A091B9107F
:103A2000B091BA10109781F420813181820F931FD9
:103A30002091B7103091B8102817390751F5F0933D
:103A4000B810E093B71067C0ED0120E030E0CE176A
:103A5000DF0740F44A815B819E0141155105F1F079
:103A6000EA01F5CFD383C28340815181840F951F32
:103A7000C817D90759F488819981840F951F029638
:103A8000918380838A819B81938382832115310571
:103A900029F4F093BA10E093B9103DC0E901FB831B
:103AA000EA8349915991C40FD51FEC17FD0761F4C2
:103AB00080819181840F951F0296E9019983888303
:103AC000828193819B838A83E0E0F0E012968D915E
:103AD0009C911397009719F0FD01DC01F7CF8D91B0
:103AE0009C9111979D012E5F3F4F820F931F209154
:103AF000B7103091B8102817390769F4309729F4B6
:103B00001092BA101092B91002C013821282B093B0
:103B1000B810A093B710DF91CF9108956F927F9264
:103B20008F929F92AF92BF92CF92DF92EF92FF92CD
:103B30000F931F93CF93DF93009781F4CB01DF9115
:103B4000CF911F910F91FF90EF90DF90CF90BF909A
:103B5000AF909F908F907F906F90BFCEFC01E60F4B
:103B6000F71F9C0122503109E217F30708F4A5C0A2
:103B7000EC01D9010D911C91119706171707A8F0B8
:103B80000530110508F497C0C801049786179707F8
:103B900008F491C002501109061B170B01931193F1
:103BA0006D937C93CF0131DF86C05B01A01AB10A0F
:103BB0004C01800E911EA091B910B091BA10612CE9
:103BC000712CE12CF12C109709F446C08D919C9139
:103BD0001197A815B905B1F56C0142E0C40ED11CCE
:103BE000CA14DB0478F14C018A189B08640142E096
:103BF000C40ED11C1296BC9012971396AC91B5E0EE
:103C0000CB16D10440F0B282A38391828082D90185
:103C10006D937C9309C00E5F1F4F800F911FF901B8
:103C200091838083EB2DFA2FE114F10431F0D70159
:103C30001396FC93EE9312973EC0F093BA10E09364
:103C4000B91039C06816790608F43C017D01129656
:103C50000D90BC91A02DB7CF8091B7109091B81066
:103C600088169906E1F466167706C8F480914E022C
:103C700090914F02009741F48DB79EB74091520248
:103C800050915302841B950BE817F907B0F4F09399
:103C9000B810E093B710F901718360830CC0CB01B9
:103CA0001CDE7C01009749F0A801BE011BD0CE01AB
:103CB000ACDEC70104C0CE0102C080E090E0DF911D
:103CC000CF911F910F91FF90EF90DF90CF90BF9019
:103CD000AF909F908F907F906F90089581E090E0DB
:103CE000F89428C0FB01DC0102C001900D92415004
:103CF0005040D8F70895FB01DC018D9101908019A7
:103D00000110D9F3990B0895FB01DC0101900D928C
:103D10000020E1F70895FB01DC014150504048F0DC
:103D200001900D920020C9F701C01D9241505040F2
:083D3000E0F70895F894FFCFBD
:103D3800A901A901A901A901A901A901A901A9012B
:103D48000609090600000000000105091F08040013
:103D58000004021F020400000004081F08040000F9
:103D6800000404150E04000000040E1504040000ED
:103D78000101010132008813010101000000000067
:103D8800BB10800000401454004010503E492047AA
:103D98004F5420594F5552204D45535341474521C3
:103DA8000A000000000060023402B00208022C027F
:103DB8001802090200000000A202AA01B002AF0224
:103DC80035068E02D802B902200068656C700000C2
:020000023000CC
:10E000000D9489F10D94B2F10D94B2F10D94B2F129
:10E010000D94B2F10D94B2F10D94B2F10D94B2F1F0
:10E020000D94B2F10D94B2F10D94B2F10D94B2F1E0
:10E030000D94B2F10D94B2F10D94B2F10D94B2F1D0
:10E040000D94B2F10D94B2F10D94B2F10D94B2F1C0
:10E050000D94B2F10D94B2F10D94B2F10D94B2F1B0
:10E060000D94B2F10D94B2F10D94B2F10D94B2F1A0
:10E070000D94B2F10D94B2F10D94B2F10D94B2F190
:10E080000D94B2F10D94B2F10D94B2F10D94B2F180
:10E090000D94B2F10D94B2F10D94B2F10D94B2F170
:10E0A0000D94B2F10D94B2F10D94B2F10D94B2F160
:10E0B0000D94B2F10D94B2F10D94B2F10D94B2F150
:10E0C0000D94B2F10D94B2F10D94B2F10D94B2F140
:10E0D0000D94B2F10D94B2F10D94B2F10D94B2F130
:10E0E0000D94B2F141546D656761323536300041AF
:10E0F000726475696E6F206578706C6F72657220DE
:10E1000073746B3530305632206279204D4C530099
:10E11000426F6F746C6F616465723E004875683F52
:10E1200000436F6D70696C6564206F6E203D200048
:10E130004350552054797065202020203D20005FF9
:10E140005F4156525F415243485F5F3D2000415658
:10E1500052204C696243205665723D20004743437C
:10E160002056657273696F6E203D20004350552024
:10E1700049442020202020203D20004C6F7720663D
:10E18000757365202020203D20004869676820665F
:10E190007573652020203D200045787420667573D6
:10E1A00065202020203D20004C6F636B2066757336
:10E1B000652020203D20004D617220203720323024
:10E1C000313300312E362E3800342E332E350056A2
:10E1D00023202020414444522020206F7020636F70
:10E1E00064652020202020696E73747275637469E1
:10E1F0006F6E2061646472202020496E74657272B3
:10E20000757074006E6F20766563746F7200726A49
:10E210006D702020006A6D70200057686174207056
:10E220006F72743A00506F7274206E6F7420737541
:10E2300070706F72746564004D7573742062652030
:10E2400061206C6574746572002000577269747483
:10E25000696E672045450052656164696E672045B7
:10E26000450045452065727220636E743D00504F35
:10E27000525400303D5A65726F2061646472003FF1
:10E280003D43505520737461747300403D454550C3
:10E29000524F4D207465737400423D426C696E6B41
:10E2A000204C454400453D44756D70204545505215
:10E2B0004F4D00463D44756D7020464C415348001B
:10E2C000483D48656C70004C3D4C69737420492F83
:10E2D0004F20506F72747300513D51756974005234
:10E2E0003D44756D702052414D00563D73686F7707
:10E2F00020696E7465727275707420566563746FF0
:10E30000727300593D506F727420626C696E6B00BD
:10E310002A0011241FBECFEFD1E2DEBFCDBF01E046
:10E320000CBF12E0A0E0B2E0EEE1FDEF03E00BBFB6
:10E3300002C007900D92A030B107D9F712E0A0E01B
:10E34000B2E001C01D92AE30B107E1F70F9460F367
:10E350000D948DFE01E20EBF0FEF0DBF11241FBE05
:10E360000D9460F30D9400F020E030E040ED57E0B4
:10E3700005C0FA013197F1F72F5F3F4F2817390792
:10E38000C0F308959C01260F311DC901A0E0B0E043
:10E390002F5F3F4FABBFFC018791882361F08093D3
:10E3A000C6008091C00086FFFCCF8091C0008064D1
:10E3B0008093C000EACF08958DE08093C6008091DD
:10E3C000C00086FFFCCF8091C00080648093C000B5
:10E3D0008AE08093C6008091C00086FFFCCF8091C8
:10E3E000C00080648093C00008950F94C2F10F9420
:10E3F000DCF10895FC019081992359F09093C600B7
:10E400008091C00086FFFCCF8091C0008064809323
:10E41000C0003196992379F70895282F982F929567
:10E420009F70892F805D8A3308F0895F8093C600D2
:10E430008091C00086FFFCCF8091C00080648093F3
:10E44000C000822F8F70982F905D9A3308F0995FEB
:10E450009093C6008091C00086FFFCCF8091C000E1
:10E4600080648093C00008959C01FB01853691056E
:10E470001CF46330710594F0C90164E670E00F94F8
:10E480002EFE605D7F4F6093C6008091C00086FFC6
:10E49000FCCF8091C00080648093C0002B30310598
:10E4A00014F43297B4F0C90164E670E00F942EFEC4
:10E4B0006AE070E00F942EFE605D7F4F6093C600AF
:10E4C0008091C00086FFFCCF8091C0008064809363
:10E4D000C000C9016AE070E00F942EFEC0968093E0
:10E4E000C6008091C00086FFFCCF8091C000806490
:10E4F0008093C00008951F93182F8EE692EE60E07F
:10E500000F94C2F11093C6008091C00086FFFCCF2B
:10E510008091C00080648093C0000F94DCF11F9153
:10E5200008952F923F924F925F926F927F928F92B7
:10E530009F92AF92BF92CF92DF92EF92FF920F9392
:10E540001F93DF93CF93CDB7DEB762970FB6F894E2
:10E55000DEBF0FBECDBF382E622ECA01DB015C01CB
:10E560006D01772420E2222E2E010894411C511CBB
:10E570008BC081E0A81680E0B80681E0C80680E084
:10E58000D80628F0C601AA27BB270F940DF2BB2797
:10E59000AD2D9C2D8B2D0F940DF28A2D0F940DF225
:10E5A0002092C6008091C00086FFFCCF8091C00001
:10E5B00080648093C0009DE29093C6008091C0006B
:10E5C00086FFFCCF8091C00080648093C0002092C1
:10E5D000C6008091C00086FFFCCF8091C00080649F
:10E5E0008093C00019828601750188249924A1E0D6
:10E5F0003A1651F03A1620F0B2E03B1661F409C029
:10E600000BBFF701779007C0C7010F9477FE782EF4
:10E6100002C0F7017080872D0F940DF22092C60082
:10E620008091C00086FFFCCF8091C0008064809301
:10E63000C000872D8052F401EF70F0708F3520F408
:10E64000E40DF51D708204C0E40DF51D8EE280839B
:10E650000894E11CF11C011D111D0894811C911CE2
:10E6600090E18916910409F0C2CF80E190E0A0E02A
:10E67000B0E0A80EB91ECA1EDB1E198AC2010F9493
:10E68000FAF10F94DCF16A94662009F072CF629679
:10E690000FB6F894DEBF0FBECDBFCF91DF911F91B3
:10E6A0000F91FF90EF90DF90CF90BF90AF909F9031
:10E6B0008F907F906F905F904F903F902F90089534
:10E6C0002F923F924F925F926F927F928F929F9282
:10E6D000AF92BF92CF92DF92EF92FF920F931F9370
:10E6E000DF93CF93CDB7DEB7CD53D1400FB6F894BB
:10E6F000DEBF0FBECDBF01E20EBF0FEF0DBF94B75F
:10E70000F894A89514BE80916000886180936000A1
:10E7100010926000789493FF05C0E0910002F091A0
:10E7200001021995279A2F9A8091C00082608093E8
:10E73000C00080E18093C40088E18093C1000000A4
:10E74000EE24FF24870144E0A42EB12CCC24DD2448
:10E7500024C0C5010197F1F70894E11CF11C011DCB
:10E76000111D21E2E2162EE4F20620E0020720E06D
:10E77000120718F031E0C32ED12CC801B70127ECE5
:10E780003BE140E050E00F9441FE611571058105C9
:10E79000910519F485B1805885B98091C00087FD35
:10E7A00003C0C114D104A9F2A6014F5F5F4FC25E3E
:10E7B000DE4F59834883CE51D140C25EDE4F8881FF
:10E7C0009981CE51D140019711F00D9410FEC05D9A
:10E7D000DE4F19821882C053D14060E0C15DDE4F28
:10E7E0001882CF52D14088249924C35DDE4F19820C
:10E7F0001882CD52D140C05EDE4F188219821A8233
:10E800001B82C052D140CE5CDE4F188219821A8220
:10E810001B82C253D140EE24FF2487010BBFF701B6
:10E8200007911691C45CDE4F19830883CC53D14005
:10E830000D940BFEC25EDE4F28813981CE51D1404E
:10E840002130310509F52091C600C25EDE4F1982E4
:10E850001882CE51D14022C02F5F3F4F4F4F5F4FA4
:10E86000213082E138078AE7480780E0580780F0C6
:10E87000C45CDE4FE881F981CC53D140EF5FFF4F9C
:10E8800019F0EE27FF27099420E030E040E050E047
:10E890008091C00087FFE0CF2091C600C35DDE4FAE
:10E8A00048815981CD52D1404F5F5F4FC35DDE4FEC
:10E8B00059834883CD52D140213209F063C64A3092
:10E8C000510508F05FC60894811C911C53E0851621
:10E8D000910409F059C600E010E018C081E280936D
:10E8E000C6008091C00086FFFCCF8091C00080648C
:10E8F0008093C0002F5F3F4F2931310579F70F9486
:10E90000DCF10F5F1F4F0530110519F020E030E0FA
:10E91000E5CF10920A0210920B0210920C02109294
:10E920000D02109206021092070210920802109235
:10E930000902109202021092030210920402109235
:10E9400005028FEE90EE60E00F94F5F180E191EE1C
:10E9500060E00F94C2F18091C00087FFFCCF9091DE
:10E96000C600903608F09F759032B8F09093C600BC
:10E970008091C00086FFFCCF8091C00080648093AE
:10E98000C000A0E2A093C6008091C00086FFFCCF2B
:10E990008091C00080648093C000983409F4D7C18E
:10E9A0009934B8F4923409F459C1933458F490333B
:10E9B00019F1903308F4E3C59F33A1F1903409F0C5
:10E9C000DEC5BDC0953409F470C1963409F0D7C5D1
:10E9D00098C1923509F42BC2933538F49C3409F46C
:10E9E000F5C1913509F0CBC518C2963509F445C279
:10E9F000993509F0C4C567C483E792EE62E00F94CD
:10EA0000F5F110920602109207021092080210927D
:10EA1000090210920A0210920B0210920C0210923C
:10EA20000D0213C18FE792EE62E00F94F5F18FEEC5
:10EA300090EE60E00F94F5F181E291EE60E00F94CA
:10EA4000C2F187EB91EE60E00F94F5F180E391EE77
:10EA500060E00F94C2F184EE90EE60E00F94F5F167
:10EA60008FE391EE60E00F94C2F186E090E061E008
:10EA700070E00F9434F20F94DCF18DE591EE60E0DC
:10EA80000F94C2F189EC91EE60E00F94F5F18EE401
:10EA900091EE60E00F94C2F183EC91EE60E00F9490
:10EAA000F5F18CE691EE60E00F94C2F18EE10F94E7
:10EAB0000DF288E90F940DF281E00F940DF20F949E
:10EAC000DCF18BE791EE60E00F94C2F119E0E0E039
:10EAD000F0E010935700E4918E2F0F940DF20F94F5
:10EAE000DCF18AE891EE60E00F94C2F1E3E0F0E03F
:10EAF00010935700E4918E2F0F940DF20F94DCF1D8
:10EB000089E991EE60E00F94C2F1E2E0F0E0109349
:10EB10005700E4918E2F0F940DF20F94DCF188EAE8
:10EB200091EE60E00F94C2F1E1E0F0E01093570045
:10EB30001491812F0F940DF20F94DCF107CF8BE825
:10EB400092EE62E00F94F5F18BE492EE60E00F94A8
:10EB5000F5F10F94DCF100E010E019C0C8016F2D51
:10EB60000F947FFEFF2031F489E492EE60E00F9471
:10EB7000C2F10BC0F092C6008091C00086FFFCCFAE
:10EB80008091C00080648093C0000F5F1F4FC80158
:10EB900081519F41A0E0B0E0ABBFFC01F790BAE229
:10EBA000FB1621F0E2E000301E07C1F60F94DCF105
:10EBB0000F94DCF187E592EE60E00F94F5F10F948D
:10EBC000DCF1CC24DD2400E010E01EC0C8010F946D
:10EBD00077FEF82E882331F489E492EE60E00F94FA
:10EBE000C2F10BC08093C6008091C00086FFFCCFAD
:10EBF0008091C00080648093C000FE1419F00894D6
:10EC0000C11CD11C0F5F1F4FC80181519F41A0E063
:10EC1000B0E0ABBFFC01E790FAE2EF1621F022E092
:10EC20000030120799F60F94DCF10F94DCF182E6C4
:10EC300092EE60E00F94C2F1C60161E070E00F94C3
:10EC400034F20F94DCF10F94DCF110920202109276
:10EC50000302109204021092050278CE89E992EE26
:10EC600062E00F94F5F1279A2F9A16C02F9880E052
:10EC700090E0E0EDF7E03197F1F7019684369105E9
:10EC8000C1F72F9A80E090E0E0EDF7E03197F1F7DF
:10EC9000019684369105C1F78091C00087FFE6CFC9
:10ECA0008091C00087FFFCCF64C485EA92EE62E0E9
:10ECB0000F94F5F140910202509103026091040219
:10ECC0007091050281E020E10F9491F2809102029F
:10ECD00090910302A0910402B091050280509F4FD1
:10ECE000AF4FBF4F8093020290930302A0930402A0
:10ECF000B093050280509041A040B04008F426CE69
:10ED0000A4CF83EB92EE62E00F94F5F140910602FE
:10ED100050910702609108027091090280E020E1A1
:10ED20000F9491F28091060290910702A09108023F
:10ED3000B091090280509F4FAF4FBF4F80930602A2
:10ED400090930702A0930802B0930902FFCD80ECD4
:10ED500092EE62E00F94F5F183E792EE60E00F949B
:10ED6000F5F18FE792EE60E00F94F5F18BE892EE0B
:10ED700060E00F94F5F189E992EE60E00F94F5F10F
:10ED800085EA92EE60E00F94F5F183EB92EE60E09D
:10ED90000F94F5F180EC92EE60E00F94F5F187ECC2
:10EDA00092EE60E00F94F5F188ED92EE60E00F9442
:10EDB000F5F18FED92EE60E00F94F5F18AEE92EEB0
:10EDC00060E00F94F5F183E093EEBDCD87EC92EE19
:10EDD00062E00F94F5F181E40F947BF282E40F94EA
:10EDE0007BF283E40F947BF284E40F947BF285E45E
:10EDF0000F947BF286E40F947BF287E40F947BF20E
:10EE000088E40F947BF28AE40F947BF28BE40F94F6
:10EE10007BF28CE40F947BF299CD88ED92EE62E068
:10EE20000F94F5F1772473948824992409C48FED05
:10EE300092EE62E00F94F5F140910A0250910B02BC
:10EE400060910C0270910D0282E020E10F9491F22A
:10EE500080910A0290910B02A0910C02B0910D02D8
:10EE600080509F4FAF4FBF4F80930A0290930B0289
:10EE7000A0930C02B0930D0269CD8AEE92EE62E08F
:10EE80000F94F5F184EE90EE60E00F94F5F18FECC5
:10EE900091EE60E00F94F5F1662477244301CC5D98
:10EEA000DE4F19821882C452D140D401C301B695F5
:10EEB000A79597958795CA5DDE4F88839983AA8326
:10EEC000BB83C652D140CC5DDE4FA881B981C4520C
:10EED000D1401196CC5DDE4FB983A883C452D14096
:10EEE000CD0162E070E00F9434F2B0E2B093C6005E
:10EEF0008091C00086FFFCCF8091C0008064809329
:10EF0000C000EDE2E093C6008091C00086FFFCCF18
:10EF10008091C00080648093C000F0E2F093C6004E
:10EF20008091C00086FFFCCF8091C00080648093F8
:10EF3000C000CA5DDE4FE880F9800A811B81C6529D
:10EF4000D140BB27A12F902F8F2D0F940DF2CA5DBA
:10EF5000DE4F8881C652D1400F940DF2B0E2FB2EF5
:10EF6000F092C6008091C00086FFFCCF8091C00067
:10EF700080648093C0000DE30093C6008091C000C0
:10EF800086FFFCCF8091C00080648093C00010E2B7
:10EF90001093C6008091C00086FFFCCF8091C00016
:10EFA00080648093C0008BBEF3012791C65DDE4F65
:10EFB0002883CA52D140A22EBB24CC24DD2408943D
:10EFC000611C711C811C911C8BBEF3018791282E42
:10EFD0003324442455240894611C711C811C911C09
:10EFE0008BBEF3013791C55DDE4F3883CB52D140E4
:10EFF0000894611C711C811C911C8BBEF30147910C
:10F00000C45DDE4F4883CC52D140ADEFEA2EAFEF66
:10F01000FA2EAFEF0A2FAFEF1A2F6E0C7F1C801E57
:10F02000911E142D032DF22CEE24EA0CFB1C0C1D5A
:10F030001D1D0F940DF220E22093C6008091C000A8
:10F0400086FFFCCF8091C00080648093C000C65DC5
:10F05000DE4F8881CA52D1400F940DF230E23093D6
:10F06000C6008091C00086FFFCCF8091C000806404
:10F070008093C000C45DDE4F8881CC52D1400F9494
:10F080000DF240E24093C6008091C00086FFFCCFA5
:10F090008091C00080648093C000C55DDE4F888190
:10F0A000CB52D1400F940DF250E25093C6008091A4
:10F0B000C00086FFFCCF8091C00080648093C000B8
:10F0C0008FEFE8168FEFF80680E0080780E018075A
:10F0D00031F484E092EE60E00F94C2F1DFC0D80119
:10F0E000C7018070907CA070B0708050904CA040A0
:10F0F000B040D1F52FEF3FE340E050E0E222F322B1
:10F1000004231523CA5DDE4FA880B980CA80DB8046
:10F11000C652D140AE0CBF1CC01ED11EAA0CBB1CD7
:10F12000CC1CDD1C8EE092EE60E00F94C2F1BB2798
:10F13000A12F902F8F2D0F940DF28E2D0F940DF285
:10F1400030E23093C6008091C00086FFFCCF8091F2
:10F15000C00080648093C0004EE34093C60080915D
:10F16000C00086FFFCCF87C08EE09EEFA0E0B0E03D
:10F17000E822F9220A231B239CE0E91694E9F90608
:10F1800090E0090790E0190709F088C0C45DDE4FE0
:10F19000A881CC52D140EA2EFF2400E010E0102FCD
:10F1A0000F2DFE2CEE24C55DDE4FB881CB52D14031
:10F1B000EB0EF11C011D111DD601C501817090706F
:10F1C000A070B070DC0199278827E80EF91E0A1F8D
:10F1D0001B1F20EF30E040E050E0A222B322C42207
:10F1E000D52241E1AA0CBB1CCC1CDD1C4A95D1F7F1
:10F1F000EA0CFB1C0C1D1D1D81E090E0A0E0B0E0BE
:10F20000282239224A225B2235E1220C331C441C7D
:10F21000551C3A95D1F7E20CF31C041D151D57013E
:10F220006801AA0CBB1CCC1CDD1C85E192EE60E0E1
:10F230000F94C2F1C801AA27BB270F940DF2BB2778
:10F24000A12F902F8F2D0F940DF28E2D0F940DF274
:10F2500090E29093C6008091C00086FFFCCF809121
:10F26000C00080648093C000AEE3A093C60080918C
:10F27000C00086FFFCCF8091C00080648093C000F6
:10F28000C601AA27BB270F940DF2BB27AD2D9C2DDD
:10F290008B2D0F940DF28A2D0F940DF20F94DCF14B
:10F2A000CC5DDE4FE881F981C452D140F99709F471
:10F2B0004DCBF4E0EF2EF12C012D112D6E0C7F1CA7
:10F2C000801E911EF2CD83E093EE62E00F94F5F183
:10F2D0008AE192EE60E00F94C2F18091C00087FF56
:10F2E000FCCF1091C6001F751093C6008091C0001E
:10F2F00086FFFCCF8091C00080648093C0000F9493
:10F30000DCF1812F81548A3108F036C1163409F4BA
:10F3100095C0173490F4133409F44EC0143430F40B
:10F320001134F1F0123409F01DC130C0143409F465
:10F3300059C0153409F016C16BC01A3409F4C4C0A1
:10F340001B3438F4173409F48FC0183409F00AC19B
:10F35000A1C01B3409F4D2C01C3409F003C1E8C0B9
:10F360008FEF81B90DC082B1809582B980E090E0C5
:10F37000E0EDF7E03197F1F70196883C9105C1F790
:10F380008091C00087FFEFCF12B8EFC08FEF84B934
:10F390000DC085B1809585B980E090E0E0EDF7E0A3
:10F3A0003197F1F70196883C9105C1F78091C00033
:10F3B00087FFEFCF15B8D9C08FEF87B90DC088B1DF
:10F3C000809588B980E090E0E0EDF7E03197F1F7C3
:10F3D0000196883C9105C1F78091C00087FFEFCF6F
:10F3E00018B8C3C08FEF8AB90DC08BB180958BB9A7
:10F3F00080E090E0E0EDF7E03197F1F70196883C8E
:10F400009105C1F78091C00087FFEFCF1BB8ADC059
:10F410008FEF8DB90DC08EB180958EB980E090E0F0
:10F42000E0EDF7E03197F1F70196883C9105C1F7DF
:10F430008091C00087FFEFCF1EB897C08FEF80BBD1
:10F440000DC081B3809581BB80E090E0E0EDF7E0F6
:10F450003197F1F70196883C9105C1F78091C00082
:10F4600087FFEFCF11BA81C08FEF83BB0DC084B38C
:10F47000809584BB80E090E0E0EDF7E03197F1F714
:10F480000196883C9105C1F78091C00087FFEFCFBE
:10F4900014BA6BC08FEF809301010FC080910201FD
:10F4A00080958093020180E090E0E0EDF7E03197F5
:10F4B000F1F70196883C9105C1F78091C00087FF64
:10F4C000EDCF1092020151C08FEF809304010FC065
:10F4D0008091050180958093050180E090E0E0ED4A
:10F4E000F7E03197F1F70196883C9105C1F78091DB
:10F4F000C00087FFEDCF1092050137C08FEF8093DA
:10F5000007010FC08091080180958093080180E079
:10F5100090E0E0EDF7E03197F1F70196883C910536
:10F52000C1F78091C00087FFEDCF109208011DC088
:10F530008FEF80930A010FC080910B01809580931B
:10F540000B0180E090E0E0EDF7E03197F1F70196F4
:10F55000883C9105C1F78091C00087FFEDCF1092E4
:10F560000B0103C085E292EEEEC98091C00087FFD7
:10F57000FCCF8091C600EAC988E392EEE4C98CE131
:10F5800091EEE1C988249924933011F1943028F444
:10F59000913089F09230B8F408C0953061F195301F
:10F5A000F0F0963009F048C043C02B3109F042C951
:10F5B00091E06BE13FC96227C15DDE4F2883CF52E6
:10F5C000D14092E037C9B22FA0E0622793E032C960
:10F5D000822F90E0A82BB92B622794E02BC92E3004
:10F5E00009F039C3622795E0C05DDE4F19821882A9
:10F5F000C053D1401FC9E1E0F0E0EC0FFD1FC05D3A
:10F60000DE4F08811981C053D140E00FF11F2083E4
:10F610000F5F1F4FC05DDE4F19830883C053D14079
:10F6200062270A171B0709F005C9D80196E002C92D
:10F63000261709F010C303C0973009F0FBC87724E0
:10F640009981933109F412C19431C8F4963009F4C8
:10F65000D8C0973050F4923009F406C1933009F4C1
:10F660006DC0913009F059C253C0913109F477C08F
:10F67000923108F0BBC0903109F04FC2F5C098310B
:10F6800009F487C0993150F4953109F4EFC09531F0
:10F6900008F4C6C1963109F040C2C2C19A3109F4DA
:10F6A0006CC09A3108F491C09B3109F45BC09D3164
:10F6B00009F033C29D81903359F48F81882311F46E
:10F6C0009EE11CC0813011F091E018C098E916C08D
:10F6D000892F807591F0903539F4E0E0F0E089E011
:10F6E0008093570094910AC0983539F4E3E0F0E034
:10F6F00089E080935700949101C090E01A821B82A8
:10F700008D818C831D829E831F8227E030E009C299
:10F710001A8288E08B8381E48C8386E58D8382E581
:10F720008E8389E48F8383E5888780E589878FE5E9
:10F730008A8782E38B872BE030E0F3C18A818139AD
:10F7400041F0823941F0803911F48FE005C080E04A
:10F7500003C082E001C08AE01A828B8344C0772410
:10F76000739482C08D81882311F48EE12CC0813086
:10F7700011F081E028C088E926C01A82E1E0F0E0BB
:10F7800089E08093570084918B831C8224E030E0D1
:10F79000C8C18B81803589F48C81883039F4E2E0EE
:10F7A000F0E089E08093570084910DC0E0E0F0E044
:10F7B00089E080935700849106C0E3E0F0E089E09F
:10F7C0008093570084911A82DFCF8D81836C99E0FA
:10F7D000E1E0F0E0082E90935700E89507B600FCB2
:10F7E000FDCF1A821B8223E030E09BC180EC8A832C
:10F7F000CE5CDE4F188219821A821B82C253D1401E
:10F800008EC18A8190E0A0E0B0E0582F44273327D2
:10F8100022278B8190E0A0E0B0E0DC0199278827C7
:10F82000282B392B4A2B5B2B8D8190E0A0E0B0E098
:10F83000282B392B4A2B5B2B8C8190E0A0E0B0E089
:10F84000BA2FA92F982F8827282B392B4A2B5B2BCF
:10F85000220F331F441F551FC05EDE4F288339839C
:10F860004A835B83C052D1401A8259C13A81C95C34
:10F87000DE4F3883C753D140CA5CDE4F1882C6536F
:10F88000D1408B81C82EDD24CA5CDE4F488159816E
:10F89000C653D140C42AD52A933109F082C0CE5C28
:10F8A000DE4F88819981AA81BB81C253D1408050AB
:10F8B000904CA340B04030F583E0CE5CDE4FE88052
:10F8C000F9800A811B81C253D140F70100935B008C
:10F8D00080935700E89507B600FCFDCFCE5CDE4F65
:10F8E000088119812A813B81C253D14000501F4FAA
:10F8F0002F4F3F4FCE5CDE4F088319832A833B8313
:10F90000C253D140C05EDE4F488159816A817B81FC
:10F91000C052D140DE011B9631E08C9111962C91A2
:10F9200011971296C75CDE4F2883C953D140C85C3B
:10F93000DE4F1882C853D14090E0C85CDE4FE881AA
:10F94000F981C853D1408E2B9F2B0C01FA01609393
:10F950005B0030935700E89511244E5F5F4F6F4F67
:10F960007F4F0EEFE02E0FEFF02ECE0CDF1CC114F8
:10F97000D10499F685E0C05EDE4F088119812A81A5
:10F980003B81C052D140F80120935B008093570027
:10F99000E89507B600FCFDCF81E180935700E8951C
:10F9A00035C0C05EDE4F88819981AA81BB81C0527B
:10F9B000D140B695A795979587957C018601ABE0D8
:10F9C000AA2EB12CAC0EBD1E0BC0D5016D915D01F0
:10F9D000C7010F947FFE0894E11CF11C01501040F8
:10F9E0000115110591F7A60160E070E0440F551F65
:10F9F000661F771FC05EDE4FE880F9800A811B8199
:10FA0000C052D1404E0D5F1D601F711F1A82C05E33
:10FA1000DE4F488359836A837B83C052D1407FC0C5
:10FA2000FA80C55CDE4FF882CB53D140C65CDE4F16
:10FA30001882CA53D1408B81C82EDD24C65CDE4FAC
:10FA400008811981CA53D140C02AD12A1A828981DA
:10FA5000BE016D5F7F4F843121F59601C05EDE4FA0
:10FA6000E880F9800A811B81C052D1400BBFF701A9
:10FA700087919691DB018C9311969C936E5F7F4FDB
:10FA8000D801C7010296A11DB11DC05EDE4F88835B
:10FA90009983AA83BB83C052D14022503040F1F6F3
:10FAA00036C0C05EDE4F288139814A815B81C052F9
:10FAB000D1400894C108D108760100E010E0089414
:10FAC000C11CD11C0894E11CF11C011D111DE20E8A
:10FAD000F31E041F151F21BDBB27A52F942F832FB5
:10FAE00082BD2F5F3F4F4F4F5F4FF89A80B5DB01CC
:10FAF0008D93BD012E153F054007510761F7C05E8C
:10FB0000DE4F288339834A835B83C052D1409601FC
:10FB10002D5F3F4FFB01108204C080EC8A8322E0FE
:10FB200030E08BE18093C6008091C00086FFFCCF5F
:10FB30008091C00080648093C000C15DDE4FF88179
:10FB4000CF52D140F093C6008091C00086FFFCCF19
:10FB50008091C00080648093C000432F3093C60022
:10FB60008091C00086FFFCCF8091C00080648093AC
:10FB7000C000922F2093C6008091C00086FFFCCF6A
:10FB80008091C00080648093C0008EE08093C600A6
:10FB90008091C00086FFFCCF8091C000806480937C
:10FBA000C00065E1C15DDE4FE880CF52D1406E25D7
:10FBB00069276427FE01319610C090819093C6009A
:10FBC0008091C00086FFFCCF31968091C000806498
:10FBD0008093C0006927215030402115310569F715
:10FBE0006093C6008091C00086FFFCCF8091C0006A
:10FBF00080648093C00085B1805885B9772081F4F6
:10FC0000C15DDE4F0881CF52D1400F5FC15DDE4F35
:10FC10000883CF52D14090E0A0E0B0E00D941AF4F8
:10FC200027982F9880E090E020ED37E0F901319798
:10FC3000F1F7019684369105C9F700008091C00064
:10FC40008D7F8093C00081E180935700E895EE2777
:10FC5000FF270994FFCF90E00D941AF497FB092E2B
:10FC600007260AD077FD04D02ED006D000201AF443
:10FC7000709561957F4F0895F6F7909581959F4F08
:10FC80000895A1E21A2EAA1BBB1BFD010DC0AA1FDD
:10FC9000BB1FEE1FFF1FA217B307E407F50720F0F5
:10FCA000A21BB30BE40BF50B661F771F881F991F70
:10FCB0001A9469F760957095809590959B01AC01B9
:10FCC000BD01CF010895AA1BBB1B51E107C0AA1FAC
:10FCD000BB1FA617B70710F0A61BB70B881F991FED
:10FCE0005A95A9F780959095BC01CD010895F99991
:10FCF000FECF92BD81BDF89A992780B50895262F31
