:10000000B4C100000C9456240C942B240C940024AE
:100010000C94D5230C94AA230C947F230C94542382
:100020000C942923D3C10000D1C10000CFC100002E
:10003000CDC10000CBC10000C9C10000C7C1000094
:10004000C5C10000C3C10000C1C10000BFC10000A4
:10005000BDC10000BBC10000B9C100000C94DF228B
:10006000B5C100000C941B270C94E026AFC1000022
:10007000ADC10000ABC10000A9C10000A7C10000D4
:100080000C941926A3C10000A1C100009FC100006B
:100090000C94D8250C94A52599C100000C948124BA
:1000A00095C1000093C1000091C100008FC1000004
:1000B0008DC100008BC1000089C1000087C1000014
:1000C00085C1000083C1000081C100000C9491260D
:1000D0000C9450267BC1000079C1000077C100005C
:1000E00075C100004343442F53434900205343410B
:1000F0004E4E45522056312E34582020004348524F
:1001000059534C4552204343442F534349002D2D0E
:100110002D2D2D2D2D2D2D2D2D2D2D2D2D2D2D2D0F
:100120002D2D002020205343414E4E455220563164
:100130002E34582020202000202043485259534C70
:100140004552204343442F5343492020002D2D2D59
:100150002D2D2D2D2D2D2D2D2D2D2D2D2D2D2D2DCF
:100160002D00202020203072706D00202030204390
:100170002020202020302E306B5061002020306B5A
:100180006D2F6820202020203072706D00202020EC
:100190002020302E3030306B6D2020202020202079
:1001A000200020302E302F20302E305620202020CE
:1001B000202020202020002020302F20203020430D
:1001C0002020202020302E306B5061002020306B0A
:1001D0006D2F68202020203072706D202020302567
:1001E00000202020203072706D002020302046201A
:1001F00020202020302E30707369002020306D7058
:10020000682020202020203072706D0020202020C7
:1002100020302E3030306D692020202020202020FA
:100220000020302E302F20302E305620202020204D
:100230002020202020002020302F20203020462089
:1002400020202020302E30707369002020306D7007
:100250006820202020203072706D20202030250062
:1002600000002100240027002A002D003000330068
:1002700001010000040107010A010000220025001D
:1002800028002B002E00310034000201000005017F
:1002900008010B0105050505070508080808020205
:1002A00002020A0A08080404040401010101010110
:1002B00001010303030303030303040707070C0CF3
:1002C0000C0C0C0C0C0C02020202060606060606BA
:1002D00006060B0B0B0B0B0B0B0B0102102020085F
:1002E0000810204010204080020102010804020191
:1002F0000102040810204080804020100804020100
:100300008004020180402010080402010804020158
:1003100001020408102040800102040810204080DF
:1003200000000A0B02090C0D0E080703040100006F
:1003300000000000000000000000000000000000BD
:10034000000000000000000000000000121110007A
:10035000000000000000000000000000000000009D
:100360000000000000001129DA3911241FBECFEF70
:10037000D1E2DEBFCDBF00E00CBF13E0A0E0B2E0F1
:10038000E8E5FFE700E00BBF02C007900D92AA303E
:10039000B107D9F726E1AAE0B3E001C01D92A93365
:1003A000B207E1F711E0C4EBD1E000E006C021970D
:1003B0000109802FFE010E94843EC33BD10780E0EB
:1003C0000807A9F70E94602A0C949B3F19CE089554
:1003D000F89420911213309113138091101390917F
:1003E00011132817390721F4789480E092E00895DA
:1003F0007894E0911013F09111133196F370E05F4F
:10040000F04F208190910F0F892F90E0982F88272F
:10041000820F911D089520910A0F81E0213208F08A
:1004200044C08091E60E8111FCCF8091090F92E0CB
:100430009093E60E91E09093E50E9FEF9093E40E7B
:100440001092E30E2093E20EA9EEBEE0E2ECFEE095
:1004500090E0291331C01092C10E9091C10E880F07
:10046000892B8093C10E8091C00E813049F5109286
:10047000C00E8091C10E8093BB008091BC0083FDB3
:10048000F8CF85EC8093BC008091E60E8230E1F3DA
:100490008091E40E8F3FB1F08091E40E8032A1F0A4
:1004A0008091E40E803391F084E01092E80E109277
:1004B0000A0F1092E70E08953D9131939F5FC9CFC7
:1004C00085EEE0CF80E0F1CF82E0EFCF83E0EDCFAB
:1004D0000895089580915113882371F18091351307
:1004E000823050F1E0913513E15090E080E020E05F
:1004F0008E1740F4DC01AC5EBC4E51963C91230F4C
:100500000196F6CFF0E0EC5EFC4E818928130DC019
:1005100080E0909135138917E0F4E82FF0E0EC5E6D
:10052000FC4E918990838F5FF4CF10922413109228
:10053000351310924A13089580E09091351389176E
:1005400040F4E82FF0E0EC5EFC4E918990838F5FE1
:10055000F4CF8091351380932413E9CFAF92BF92EB
:10056000CF92DF92EF92FF920F931F93CF93DF937F
:100570006C017B018B01040F151FEB015E01AE18AE
:10058000BF08C017D10759F06991D601ED91FC91D0
:100590000190F081E02DC6011995892B79F7C501ED
:1005A000DF91CF911F910F91FF90EF90DF90CF904F
:1005B000BF90AF900895282F30E0F901E05EFC4F26
:1005C0009491F901E652FD4F44912C563D4FF901AB
:1005D0002491222309F435C0992311F191509231CD
:1005E000F8F4E92FF0E08827E750FD4F8F4F0C9487
:1005F000843E2A032E030B03220326031003310338
:1006000037033B034103450349034F0353031003DF
:1006100057035D036103809180008F778093800092
:10062000E22FF0E0EE0FFF1FE658FD4FA591B491C9
:100630008FB7F894EC91611148C040954E234C93CC
:100640008FBF0895809180008F7DE8CF80918000DA
:10065000877FE4CF84B58F7784BDE2CF84B58F7D6B
:10066000FBCF8091B0008F778093B000D9CF80917D
:10067000B0008F7DF9CF809190008F7780939000AC
:10068000CFCF809190008F7DF9CF80919000877FB0
:10069000F5CF8091A0008F778093A000C1CF80918B
:1006A000A0008F7DF9CF8091A000877FF5CF80914A
:1006B00020018F7780932001B3CF809120018F7D1F
:1006C000F9CF80912001877FF5CF4E2BB8CF1092C4
:1006D0009F0E10929E0E1092E80E10920A0F10922A
:1006E000E60E81E08093E50E1092C00E61E084E199
:1006F00062DF61E085E15FDFE9EBF0E080818E7F22
:10070000808380818D7F808388E48093B80085E436
:100710008093BC0088E692E090939D0E80939C0E9F
:1007200089E692E090939B0E80939A0E0895CF9362
:10073000DF9390E0FC01E652FD4F24918C569D4FD3
:10074000FC0184918823C9F090E0880F991FFC0177
:10075000E05AFD4FA591B491FC01E658FD4FC591BB
:10076000D49161110DC09FB7F8948C91209582238C
:100770008C938881282328839FBFDF91CF91089590
:10078000623051F49FB7F8943C91822F8095832377
:100790008C93E8812E2BEFCF8FB7F894EC912E2B12
:1007A0002C938FBFEACFCF92DF92EF92FF9240E07F
:1007B00054E264EF75E440934B1350934C136093F1
:1007C0004D1370934E1380934F138AE08093501310
:1007D00081E08093511380935213109224138093DD
:1007E0004A13F8941092351310924613109247133F
:1007F0001092481378941092CD008FE78093CC002C
:100800008091C90088698093C9008091CA00866080
:100810008093CA0080914F13882309F454C087E065
:1008200090E09093541380935313F89410928000A7
:10083000109281001092850010928400259A809178
:1008400080008064809380008091531390915413B2
:1008500090938900809388008091810089608093C3
:10086000810062E082E063DF62E083E060DF8BE3CF
:1008700098E090934F0280934E0280916A008C7FA3
:10088000826080936A00EC9A84E298E0909351022F
:100890008093500280916A00837F886080936A0011
:1008A000ED9A7894809191008A7F809391001092C4
:1008B00095001092940081E080934913FF90EF908F
:1008C000DF90CF900895F8941092800010928100EC
:1008D0001092850010928400109289001092880076
:1008E00062E083E024DF84E298E0909351028093F9
:1008F000500280916A00837F886080936A00ED9A3D
:10090000EC9887EE91E090934F0280934E0278949A
:1009100020914B1330914C1340914D1350914E1335
:1009200060E070E080E89FE30E94E33D20E034E275
:1009300044E75BE40E94343C6B017C0160915013FE
:1009400070E090E080E00E94D53B20E030E040E2A3
:1009500051E40E947F3D9B01AC01C701B6010E949A
:10096000343C20E030E040E85AE30E94343C20E090
:1009700030E040E85FE30E947E3D0E94503E70936D
:10098000561360935513F8941092900010929100B2
:1009900010929500109294008091551390915613E7
:1009A0009093990080939800809191008D6080933E
:1009B00091008091710082608093710078947BCF68
:1009C000863308F0865320917B00982F9870277FFC
:1009D000922B90937B002091460290E4299F9001F6
:1009E00011248770822B80937C0080917A00806430
:1009F00080937A0080917A0086FDFCCF8091780008
:100A00009091790008953FB7F8948091E70B909109
:100A1000E80BA091E90BB091EA0B26B5A89B05C0A5
:100A20002F3F19F00196A11DB11D3FBFBA2FA92F6D
:100A3000982F8827BC01CD01620F711D811D911D6A
:100A400042E0660F771F881F991F4A95D1F70895D6
:100A50008F929F92AF92BF92CF92DF92EF92FF92CE
:100A60004B015C01D0DF6B017C01CDDF6C197D098E
:100A70008E099F09683E734081059105B0F321E01E
:100A8000821A9108A108B10888EEC80E83E0D81E2A
:100A9000E11CF11C81149104A104B10431F7FF9011
:100AA000EF90DF90CF90BF90AF909F908F90089580
:100AB0002FB7F8946091E30B7091E40B8091E50BF4
:100AC0009091E60B2FBF0895F3DFEBE0FFE09083FA
:100AD000818372836383089585ED8093BC00809148
:100AE000BC0084FDFCCF1092E60E08952091BF0B50
:100AF000260F3327331F21323105ECF42091E60E07
:100B0000FC0190E080E0243069F082E00895A0913B
:100B1000BF0B2191AC014156544FA40FB52FB11D0D
:100B20002C930196861798F38091BF0B680F609302
:100B3000BF0B80E0089581E008950895E0919F0E35
:100B400080919E0EE81730F4F0E0E056F14F80817E
:100B500090E008958FEF9FEF089590919F0E809100
:100B60009E0E2FEF3FEF981748F4E92FF0E0E05684
:100B7000F14F208130E09F5F90939F0EC90108954F
:100B800080919E0E90919F0E891B990B0895CF9294
:100B9000DF92EF92FF920F931F93CF93DF937C012D
:100BA000CB018A012091E70E222389F0EB016B0132
:100BB000C40ED51ECC15DD0561F06991D701ED910C
:100BC000FC910190F081E02DC7011995F3CF642FBE
:100BD0008DDFC801DF91CF911F910F91FF90EF90B2
:100BE000DF90CF900895CF93DF931F92CDB7DEB7FC
:100BF00069832091E70E2223F9F020910A0F203219
:100C000058F021E030E0FC013383228390E080E063
:100C10000F90DF91CF9108958091E80EE82FF0E0DA
:100C2000E751F14F998190838F5F8093E80E809315
:100C30000A0F81E090E0ECCF61E0CE01019656DF33
:100C4000F8CF682F87E593E1CECF21E001C0220FD6
:100C50006A95EAF7DC011C962C931C971A965C9314
:100C60004E931997ED91FC910484F585E02D60E099
:100C70001994DC01ED91FC910684F785E02D41E0AB
:100C8000199581E090E008950F931F93CF93DF9320
:100C90008C01D0E0C0E0F801EC0FFD1F64916623E9
:100CA00039F083E693E1E5DF892B11F02196F3CF4C
:100CB000CE01DF91CF911F910F910895DC01ED914D
:100CC000FC910684F785E02D40E019940F931F9363
:100CD000CF93DF9300D000D01F921F92CDB7DEB725
:100CE000009168021091690220916A0230916B02B2
:100CF0000D831E832F83388700916C0210916D0243
:100D000020916E0230916F0209831A832B833C83FA
:100D100090916A13691710F06FEF690F262F30E07A
:100D200040916B132C0F3D1FF901403191F4943029
:100D300081F46181680F606883E693E128960FB6BD
:100D4000F894DEBF0FBECDBFDF91CF911F910F9101
:100D5000B5CF6581EFCFEF92FF920F931F93CF93A3
:100D6000DF938B0198E0899FB0011124606483E6D2
:100D700093E1A4DF83E790E00197F1F7E801085FD2
:100D80001F4F8BE9E82EF12C699183E693E171DF27
:100D9000C7010197F1F7C017D107B1F7DF91CF91E4
:100DA0001F910F91FF90EF90089561E087DF8BE333
:100DB0009FE10197F1F708950F931F93CF93DF936E
:100DC000EC01423018F08C8188608C834F836887F7
:100DD000222329F0413019F48C8184608C8364E6ED
:100DE00070E080E090E034DE6C8164FD53C0E88107
:100DF000F9810684F785E02D42E063E0CE01199584
:100E00008BE496E40197F1F7E881F9810684F78590
:100E1000E02D42E063E0CE01199503E512E0C80140
:100E20000197F1F7E881F9810684F785E02D42E02A
:100E300063E0CE011995C8010197F1F7E881F981C6
:100E40000684F785E02D42E062E0CE011995C801E5
:100E50000197F1F76C816062CE0130DF8BEE90E09C
:100E60000197F1F784E08D836CE0CE0127DFCE019E
:100E70009CDF82E08E8366E0CE0120DFE881F9818D
:100E80000484F585E02D6FEFCE01DF91CF911F91A6
:100E90000F9119946062CE0111DF8BE496E4019703
:100EA000F1F76C816062CE0109DF03E512E0C80151
:100EB0000197F1F76C816062CE0100DFC8CF089521
:100EC0000895089590E080E00895FC012381222395
:100ED000E1F0262F6181609562236083828191E039
:100EE0009093E70E8093090F1092E80E10920A0F6C
:100EF00087E593E178DE8FDA282F30E081E090E01B
:100F0000232B11F090E080E0089530E020E0F6CF50
:100F1000EF92FF920F931F93CF938C01FC0184E01B
:100F2000C0E0262F30E060FF02C09589C92BB901CF
:100F300075956795815031968111F3CF413011F449
:100F4000F8014489F8016585C62BC42B7801FEE0C1
:100F5000EF0EF11CF80162896C2BC701B6DFF801B6
:100F6000628960956C23C701CF911F910F91FF900B
:100F7000EF90ABCF0F931F93CF93DF93062F0F709C
:100F8000423039F440E0602FDF91CF911F910F91F3
:100F9000BFCF142FEC0170E084E0759567958A95BA
:100FA000E1F7CE01B5DF412F602FCE01EDCFFC017F
:100FB0008485882399F0218532852115310521F416
:100FC000611107C0158606C021303105D9F76111BE
:100FD000F9CF85876585CF010E9677CF0895EF927B
:100FE000FF920F931F93CF93DF93EC01062FF42E04
:100FF000E22E8B85888B6BDB888911E01093E70EDE
:101000008093090F1092E80E10920A0F04DA8111F2
:1010100019C0198B87E593E1A0DD8E878989882324
:1010200031F01F861C8260E0CE010E964EDF2E2D21
:101030004F2D602FCE01DF91CF911F910F91FF9027
:10104000EF90BACE198AEACF80914F13811110C068
:10105000ED9887EE91E090935102809350021092A8
:10106000950010929400809191008560809391008A
:1010700010924913089581E08093491380913513AC
:10108000811128CA089583E693E18FDE8091970E3F
:10109000843121F58091960E843009F034C060E0EF
:1010A00080E014DE8BE492E0EFDD61E080E00EDEB4
:1010B00086E392E0E9DD62E080E008DE81E292E032
:1010C000E3DD63E080E002DE8CE092E0DDDD61E004
:1010D00087E0FCDD65E083E693E1CBCD803199F4D8
:1010E0008091960E823079F460E080E0EFDD8BEF46
:1010F00091E0CADD61E080E0E9DD8AEE91E0C4DDE7
:1011000061E083E0E6CF60E080E0E0DD81EE91E049
:10111000BBCD83E693E149DE8091970E843121F5C2
:101120008091960E843009F034C060E080E0CEDD1E
:101130008CEC91E0A9DD61E080E0C8DD87EB91E017
:10114000A3DD62E080E0C2DD82EA91E09DDD63E044
:1011500080E0BCDD8DE891E097DD61E087E0B6DD01
:1011600065E083E693E185CD803199F48091960E18
:10117000823079F460E080E0A9DD8CE791E084DDE5
:1011800061E080E0A3DD8BE691E07EDD61E083E05D
:10119000E6CF60E080E09ADD82E691E075CD20E068
:1011A0004091960E6091970E83E693E118DF6FEF02
:1011B00083E693E1FCDE83E693E1F7DD62E083E61C
:1011C00093E17CDD8BE39FE10197F1F78091970E2E
:1011D000843109F032C08091960E843009F03CC011
:1011E0008DE491E051DD61E080E070DD88E391E025
:1011F0004BDD62E080E06ADD83E291E045DD63E0A3
:1012000080E064DD8EE091E03FDD6EE272E080E040
:10121000A2DD66E272E081E09EDD6EE172E082E0D6
:101220009ADD66E172E083E096DD6EE072E084E0D4
:1012300092DD66E072E085E08ECD803169F48091C8
:10124000960E823049F48DEF90E01EDD61E080E083
:101250003DDD8CEE90E0D8CF84EE90E0D5CF4F927C
:101260005F926F927F928F929F92AF92BF92CF9236
:10127000DF92EF92FF92CF93DF9310926F0B109259
:10128000700B1092710B1092720B10926B0B1092EC
:101290006C0B10926D0B10926E0BC8ECD0E087E3D4
:1012A0008FDB092E000CAA0BBB0B40916F0B5091EA
:1012B000700B6091710B7091720B4C015D01840E8B
:1012C000951EA61EB71E80926F0B9092700BA09277
:1012D000710BB092720B219711F7C8ECD0E088E344
:1012E0006FDB092E000CAA0BBB0B40916B0B5091CE
:1012F0006C0B60916D0B70916E0B6C017D01C40ED7
:10130000D51EE61EF71EC0926B0BD0926C0BE092BE
:101310006D0BF0926E0B219711F788EC482E512C33
:10132000612C712CC501B401A30192010E944D3DB5
:1013300049015A0180926F0B9092700BA092710B31
:10134000B092720BC701B601A30192010E944D3DFC
:1013500069017A01C0926B0BD0926C0BE0926D0B1D
:10136000F0926E0B609104027091050290E080E0B3
:101370000E94D33B20E030E048EC52E40E94E33D81
:101380002B013C01C501B4010E94D33BA301920192
:101390000E94343C20E030EC4FE754E40E94E33DEF
:1013A00020E030E048EC52E40E94343C0E94503E81
:1013B000EB01C701B6010E94D33BA30192010E9439
:1013C000343C20E030EC4FE754E40E94E33D20E061
:1013D00030E048EC52E40E94343C0E94503ED093EE
:1013E000790EC0937A0E70937B0E60937C0E81E031
:1013F0008093730BDF91CF91FF90EF90DF90CF90B0
:10140000BF90AF909F908F907F906F905F904F9024
:1014100008954F925F926F927F928F929F92AF92B8
:10142000BF92CF92DF92EF92FF92CF93DF93109211
:10143000670B1092680B1092690B10926A0BC8EC44
:10144000D0E086E3BDDABC01990F880B990BC09000
:10145000670BD090680BE090690BF0906A0B6C0DF5
:101460007D1D8E1D9F1D6093670B7093680B80938D
:10147000690B90936A0B219721F728EC30E040E04C
:1014800050E00E944D3D49015A018092670B9092B5
:10149000680BA092690BB0926A0B60910002709188
:1014A000010290E080E00E94D33B6B017C016091DF
:1014B00004027091050290E080E00E94D33B20E09E
:1014C00030E048EC52E40E94E33D2B013C01C501B1
:1014D000B4010E94D33B9B01AC01C301B2010E9445
:1014E000343C20E030EC4FE754E40E94E33D4B01F4
:1014F0005C01609102027091030290E080E00E9422
:10150000D33BA70196010E947F3D9B01AC01C50121
:10151000B4010E94343CA70196010E94E33D20E003
:1015200030E048EC52E40E94343C0E94503E683562
:1015300022E07207A8F410927D0E10927E0E109297
:10154000730BDF91CF91FF90EF90DF90CF90BF9022
:10155000AF909F908F907F906F905F904F90089585
:1015600070937D0E60937E0E81E08093730BE9CFC4
:10157000CF93C82F60E01FD8C43269F0C532A9F0FC
:1015800097DA60938A0E70938B0E80938C0E9093F3
:101590008D0ECF9108958CDA6093860E7093870E2E
:1015A0008093880E9093890EF4CF82DA6093820E36
:1015B0007093830E8093840E9093850EEACFF894F7
:1015C0008091560B8093550B78940895F8948091F0
:1015D000550B9091560B7894891B08959091F10BBF
:1015E00021E0290F30E0F8944091F20B78944217F3
:1015F0001306C9F32B5A354FF90180839F5F9093EF
:10160000F10B8091D10080628093D10008959C01FC
:10161000F8949091550B8091560B981304C07894D0
:1016200080E092E0089578949091560BE92FF0E0D5
:101630003196E20FF31FFF27EB5AF64F208190916E
:101640005409892F90E0982F8827820F911D0895C3
:10165000F8949091550B8091560B981304C0789490
:1016600080E092E0089578948091560BE1E0E80FD5
:10167000F0E08F5F8093560BEB5AF64F20819091EC
:101680005409892F90E0982F8827820F911D089583
:10169000F8941092550B1092560B1092F10B109279
:1016A000F20B78949093D5008093D400E1EDF0E0B4
:1016B000808188698083E2EDF0E0808186608083AC
:1016C0000895F894809112139091131320911013A0
:1016D000309111137894821B930B9370089520918D
:1016E000ED0B3091EE0B2F5F3F4F3370F89440912C
:1016F000EF0B5091F00B789424173507B9F3F901EB
:10170000EC5AFA4F80833093EE0B2093ED0B8091CF
:10171000C10080628093C1000895CF93DF93CCE92C
:10172000D2E08991882311F0DADFFBCFDF91CF91EE
:101730000895F8942091121330911313809110138F
:10174000909111132817390721F4789480E092E0E2
:1017500008957894809110139091111301969370CD
:101760009093111380931013805F904FFC012081A0
:1017700090910F0F892F90E0982F8827820F911D4D
:1017800008953F924F925F926F927F928F929F92B5
:10179000AF92BF92CF92DF92EF92FF920F931F937F
:1017A000CF93DF932B013C015A017901BC01A201C7
:1017B000420F531F611D711D8091851390918613F7
:1017C000A0918713B091881319E084179507A60795
:1017D000B70708F4A9C001E033243A9495EE992E96
:1017E00025EC822EE114F10409F49DC0C091801310
:1017F000D0918113CE01019784219521C81BD90B6B
:10180000C70121E2E216F10410F080E290E08C17AB
:101810009D0708F4EC0180918213A301920104C09A
:1018200056954795379527958A95D2F7D0907C1392
:10183000D22A0093E70ED092090F1092E80E109270
:101840000A0F8091831390918413029739F499279A
:10185000872D762D652D87E593E1C5D9642D87E524
:1018600093E1C1D90E940B02182F81115DC08091B4
:10187000E60E8111FCCF9C2F0093E60E0093E50E3F
:101880003092E40E1092E30E8C2F81508093E20E82
:101890000093C10E8091C10EDD0CD82AD092C10EEA
:1018A0008091C00E813079F51092C00E8091C10EEA
:1018B0008093BB008091BC0083FDF8CF8092BC0078
:1018C0008091E60E8130E1F38091E30E891710F4E8
:1018D0009091E30EE2ECFEE0A0EABEE080E0891326
:1018E00015C010929F0E80939E0EC12ED12CCC1647
:1018F000DD0680F487E593E130D9F501EC0DFD1D9F
:1019000080831F5FF2CF9092BC00DACF21912D939C
:101910008F5FE5CF4C0E5D1E611C711CAC0EBD1EB1
:10192000EC1AFD0A5FCF10E0812FDF91CF911F915C
:101930000F91FF90EF90DF90CF90BF90AF909F906E
:101940008F907F906F905F904F903F900895CF93CE
:10195000DF931F92CDB7DEB721E030E0AE014F5FDD
:101960005F4F0FDF90E0009731F4898190E00F9096
:10197000DF91CF910895919581959109F8CFFC0160
:1019800001900020E9F73197AF01481B590BBC01CA
:1019900083E693E10C94AE028F929F92AF92BF9236
:1019A0000F931F93CF93DF93CDB7DEB7A1970FB6F9
:1019B000F894DEBF0FBECDBF19A2423008F44AE052
:1019C0008E010F5D1F4F842E912CB12CA12CA501EF
:1019D00094010E944D3DE62FB901CA01EA30ECF4B2
:1019E000E05DD801EE938D01232B242B252B79F775
:1019F00090E080E0109711F0CD01C1DFA1960FB605
:101A0000F894DEBF0FBECDBFDF91CF911F910F9134
:101A1000BF90AF909F908F900895E95CE2CFBC019A
:101A200090E080E04AE0B8CFAACFAF92BF92CF92C9
:101A3000DF92EF92FF920F931F93CF93DF9300D02B
:101A400000D01F92CDB7DEB7522F932FCDB6DEB6A2
:101A5000E0913516F09136169E012F5F3F4F30977B
:101A6000D9F5F901E953F641FA83E983E981FA816D
:101A7000D801D896EA17FB07A0F587E0E0E7F2E087
:101A8000D90101900D928A95E1F789017E01B8E0B4
:101A9000EB0EF11CF80181918F0121DEE016F106B9
:101AA000C9F70FB6F894DEBE0FBECDBE0FB6F894E0
:101AB000DEBE0FBECDBE27960FB6F894DEBF0FBEBA
:101AC000CDBFDF91CF911F910F91FF90EF90DF90ED
:101AD000CF90BF90AF900895D901AE1BBF0BFD0111
:101AE000C3CF5801F6E0AF0EB11C2DB73EB72A198F
:101AF0003B090FB6F8943EBF0FBE2DBFADB7BEB7C2
:101B000011967D012DE3EDB7FEB7218398012E5F7D
:101B10003F4F11963C9311972CEF2A0D12962C9360
:101B200012978295880F880F807C680F13966C93AC
:101B3000139714964C9314970115110561F0E52F36
:101B4000F92F15969F01200F311FE217F30719F0A7
:101B500081918D93FACF0B5F1F4FF701319680E093
:101B60009F012E193F092017310718F49191890F11
:101B7000F7CF0E0D1F1DD8018C9384E2F9DC87018D
:101B8000C8018E199F098A159B0508F08ACFF801B4
:101B900081918F01A4DDF4CF0F931F93CF93DF9337
:101BA0001F921F92CDB7DEB7182F85FF34C084FF78
:101BB0007EC083FF45C081E08093911381E08093D4
:101BC0008F1360E012FF3FC086E10E94DB0260E0FD
:101BD00087E10E94DB0260E088E10E94DB0260E0B6
:101BE00089E10E94DB0261E08AE10E94DB0261E0A0
:101BF0008BE10E94DB02812F837009F042C08FEFDE
:101C000093E046DD8FEF93E09093941380939313CA
:101C10001F7D109392131A821982809192138A83E6
:101C200002E010E09E012F5F3F4F43E063E080E061
:101C3000FCDE0F900F90DF91CF911F910F910895CF
:101C400010929113BBCF8AE10E94DB0260E08BE12E
:101C50000E94DB0260E08CE10E94DB0260E08DE12B
:101C60000E94DB0260E088E10E94DB0260E089E123
:101C70000E94DB0261E086E10E94DB0261E087E115
:101C8000B8CF813031F48FE790E002DD8FE790E04C
:101C9000BBCF823031F48FE090E0FADC8FE090E04F
:101CA000B3CF87E090E0F4DC87E090E0ADCF109216
:101CB0008F1360E086E10E94DB0260E087E10E9412
:101CC000DB0260E08AE10E94DB0260E08BE10E94BF
:101CD000DB029ECF0F931F93CF93DF931F921F9230
:101CE000CDB7DEB78091F30B8093740B8091F40B2A
:101CF0008093750B8091F50B8093760B8091780E15
:101D0000882309F427C181E08093770B8091810EAD
:101D10008093780B8091800E8093790B0E946405EC
:101D200080910B0F80937A0B80910C0F80937B0B2B
:101D300080910D0F80937C0B80910E0F80937D0B13
:101D40002091351630913616CE01019621153105B8
:101D500009F003C1895396419A83898389819A81C5
:101D600090937E0B80937F0B54DB8091730B8823C1
:101D700009F4F6C081E08093800B80917D0E809302
:101D8000810B80917E0E8093820B8091E41480936E
:101D9000830B80912B1690912C16A0912D16B0914B
:101DA0002E16B093840B80912B1690912C16A09137
:101DB0002D16B0912E16A093850B80912B16909125
:101DC0002C16A0912D16B0912E169093860B809113
:101DD0002B1690912C16A0912D16B0912E16809353
:101DE000870B80912F1690913016A0913116B091EB
:101DF0003216B093880B80912F1690913016A091D7
:101E00003116B0913216A093890B80912F169091C4
:101E10003016A0913116B091321690938A0B8091B2
:101E20002F1690913016A0913116B09132168093F2
:101E30008B0B8091921380938C0B8091D91490918D
:101E4000DA14A091DB14B091DC14B0938D0B809167
:101E5000D9149091DA14A091DB14B091DC14A09302
:101E60008E0B8091D9149091DA14A091DB14B0916B
:101E7000DC1490938F0B8091D9149091DA14A09177
:101E8000DB14B091DC148093900B8091DD14909161
:101E9000DE14A091DF14B091E014B093910B809107
:101EA000DD149091DE14A091DF14B091E014A093A2
:101EB000920B8091DD149091DE14A091DF14B0910B
:101EC000E0149093930B8091DD149091DE14A09117
:101ED000DF14B091E0148093940B8091990E8823C5
:101EE00009F441C081E08093950B8091970E809317
:101EF000960B8091960E8093970B80917F0E809326
:101F0000980B8091980E8093990B80914D0280934D
:101F10009A0B80914A0290914B0290939B0B809375
:101F20009C0B809148029091490290939D0B809365
:101F30009E0B0BE210E024E73BE040E062E080E033
:101F400074DD90E080E00F900F90DF91CF911F91B2
:101F50000F9108951092770BD9CE821B930BFCCE74
:101F60001092800B0ACF1092950BBFCF0F931F9347
:101F7000CF93DF93CDB7DEB765970FB6F894DEBF8A
:101F80000FBECDBF85E1E7E7F2E0DE0111960190DB
:101F90000D928A95E1F705E110E09E012F5F3F4F1A
:101FA00040E061E080E041DD90E080E065960FB6C2
:101FB000F894DEBF0FBECDBFDF91CF911F910F917F
:101FC000089501E010E027E73EE040E060E080E0B7
:101FD0002CDD60E085E20E94DB02FFCF0F931F93B0
:101FE000CF93DF93CDB7DEB76E970FB6F894DEBF11
:101FF0000FBECDBFEBEEFBE08081898381818A83B8
:10200000EFE5FBE080818B8381818C8382818D83EE
:1020100083818E8384818F83858188878681898768
:1020200087818A87E7E5FBE080818B8781818C87C8
:1020300082818D8783818E8784818F878581888B3C
:102040008681898B87818A8B1B8A81E08C8B8D8B23
:102050001E8A9FE59F8B9EE4988F90E8998F9DEA5A
:102060009A8F1B8E8C8F8D8F1E8E0EE110E09E013D
:102070002F5F3F4F41E065E080E0D7DC6E960FB602
:10208000F894DEBF0FBECDBFDF91CF911F910F91AE
:102090000895CF92DF92EF92FF920F931F93CF9309
:1020A000DF931F921F92CDB7DEB70E9467038CE0CB
:1020B0008093B80080917C1391E09093E70E809319
:1020C000090F1092E80E10920A0F809183139091DD
:1020D0008413029721F490E080E00E94210690E0B2
:1020E00080E00E9421060E940B02882309F45DC053
:1020F0001092780E1092EB0B80E98093EC0B10920B
:102100005F0B1092600B1092610B1092620B109299
:10211000630B1092640B1092650B1092660B109279
:10212000570B1092580B1092590B10925A0B109299
:102130005B0B10925C0B10925D0B10925E0B84EFA8
:1021400091E0909305028093040288E799E69093CA
:1021500003028093020288E893E190930102809346
:1021600000021092990E84E18093970E84E0809390
:10217000960E81E080937F0E1092980E1092810E41
:102180001092800E01E010E027E432E04BEF6FE0A8
:1021900080E04BDC0F900F90DF91CF911F910F915A
:1021A000FF90EF90DF90CF90089581E08093780EBC
:1021B00022E030E04BEE5BE060E070E0CB01E1DA82
:1021C000882361F01092EB0B1092EC0B01E010E011
:1021D00027E432E04CEF6FE080E027DC28E030E0DD
:1021E0004FE55BE062E070E080E090E0CADA8823CF
:1021F000C1F010925F0B1092600B1092610B109265
:10220000620B1092630B1092640B1092650B10928C
:10221000660B01E010E027E432E04CEF6FE080E075
:1022200004DC28E030E047E55BE06AE070E080E055
:1022300090E0A7DA8823C1F01092570B1092580B48
:102240001092590B10925A0B10925B0B10925C0B70
:1022500010925D0B10925E0B01E010E027E432E07B
:102260004CEF6FE080E0E1DB22E030E0AE014F5F59
:102270005F4F62E170E080E090E083DA882309F448
:1022800036C184EF91E0909305028093040201E04F
:1022900010E027E432E04CEF6FE080E0C6DB22E0A4
:1022A00030E0AE014F5F5F4F64E170E080E090E0AE
:1022B00068DA882309F42AC188E799E69093030233
:1022C0008093020201E010E027E432E04CEF6FE07F
:1022D00080E0ABDB22E030E0AE014F5F5F4F66E1B4
:1022E00070E080E090E04DDA882309F41EC18CEEA6
:1022F00093E1909301028093000201E010E027E453
:1023000032E04CEF6FE080E090DB21E030E0AE01A6
:102310004F5F5F4F68E170E080E090E032DA882341
:1023200009F412C11092990E01E010E027E432E0A6
:102330004CEF6FE080E079DB21E030E0AE014F5FF1
:102340005F4F69E170E080E090E01BDA882309F4D8
:1023500005C184E18093970E01E010E027E432E0AC
:102360004CEF6FE080E061DB21E030E0AE014F5FD9
:102370005F4F6AE170E080E090E003DA882309F4BF
:10238000F5C084E08093960E01E010E027E432E08F
:102390004CEF6FE080E049DB21E030E0AE014F5FC1
:1023A0005F4F6BE170E080E090E0EBD9882309F4A7
:1023B000E5C084E180937F0E01E010E027E432E085
:1023C0004CEF6FE080E031DB21E030E0AE014F5FA9
:1023D0005F4F6CE170E080E090E0D3D9882309F48E
:1023E000D5C01092980E01E010E027E432E04CEFE7
:1023F0006FE080E01ADB21E030E0AE014F5F5F4F1D
:102400006DE170E080E090E0BCD9882309F4C7C09A
:1024100081E080934D0201E010E027E432E04CEFD0
:102420006FE080E002DB22E030E0AE014F5F5F4F03
:102430006EE170E080E090E0A4D9882309F4B9C08F
:1024400088E893E190934B0280934A0201E010E008
:1024500027E432E04CEF6FE080E0E7DA22E030E0A2
:10246000AE014F5F5F4F60E270E080E090E089D99D
:10247000882309F4B2C082E390E0909349028093EC
:10248000480201E010E027E432E04CEF6FE080E02A
:10249000CCDA21E030E041E85EE06FEF70E080E010
:1024A00090E06FD9882351F01092810E01E010E086
:1024B00027E432E04CEF6FE080E0B7DA1092800E54
:1024C000C12CD12C7601C701B60141DA9091800E62
:1024D000890F8093800E8FEFC81AD80AE80AF80A8D
:1024E0008FEFC816D104E104F10469F753CE898156
:1024F0009A81982789279827009729F090930502B9
:1025000080930402CCCE84EF91E0F8CF89819A8148
:10251000982789279827009729F0909303028093A2
:102520000202D8CE88E799E6F8CF89819A81982768
:1025300089279827009729F0909301028093000241
:10254000E4CE8CEE93E1F8CF898180FF04C081E076
:102550008093990EF1CE1092990EEECE8981882348
:1025600019F08093970E00CF84E1FBCF89818823F7
:1025700019F08093960E10CF84E0FBCF89818823D9
:1025800019F080937F0E20CF84E1FBCF89818230C8
:1025900018F48093980E2FCF1092980E2CCF89812B
:1025A0009FEF980F933018F480934D023CCF81E059
:1025B000FBCF898190E0982F88272A81820F911D77
:1025C00090934B0280934A02892B21F081E0809303
:1025D0004C0244CF10924C0241CF898190E0982F59
:1025E00088272A81820F911D009729F09093490234
:1025F000809348024ECF82E390E0F8CF0F931F9371
:1026000081110AC001E010E027E432E043E063E01A
:102610000CDA1F910F910895982F929596959695A3
:1026200093709230B1F71F910F91B6CA4F925F929B
:102630006F927F928F929F92AF92BF92CF92DF92D2
:10264000EF92FF920F931F93CF93DF93CDB7DEB737
:102650000DB71EB79091990E992351F1ADB6BEB644
:102660009CEF940F2DB73EB7291B31090FB6F89494
:102670003EBF0FBE2DBFEDB7FEB731964F01992378
:1026800009F4BFC6FB013496D40124E0241720F4DA
:1026900031913D932F5FFACF20914D022130F1F01F
:1026A000223009F4D0C50FB6F894BEBE0FBEADBE41
:1026B0000FB6F8941EBF0FBE0DBFDF91CF911F91D3
:1026C0000F91FF90EF90DF90CF90BF90AF909F90D1
:1026D0008F907F906F905F904F900895813019F7A1
:1026E000F40180818C3809F401C108F040C08432C3
:1026F00009F4B6C08234B9F69430A8F2618170E072
:1027000090E080E00E94D53B26E636E646E25FE3B5
:102710000E94343C6B017C0120E030E0A9010E9462
:102720007C3E20E030E040E05FE387FDD1C0C701A0
:10273000B6010E947F3D0E944B3E0E94D53B2091F6
:10274000970E243109F0AFCF2091960E243009F076
:10275000AACF0E94503EF62EF9E0F61708F4BDC04D
:1027600060E080E10E9466068BEE92E09AC0843DB4
:1027700009F43DC3843E09F4FFC38E3C09F093CFB6
:10278000963008F490CF618170E090E080E0962F61
:10279000882777276627C280D12CF12CE12C76017F
:1027A000DD24CC246C0D7D1D8E1D9F1D2481620FA8
:1027B000711D811D911DC380D12CF12CE12CFE2CAB
:1027C000ED2CDC2CCC246C0D7D1D8E1D9F1D2091CD
:1027D000980E211177C20E94D33B20E030E040E008
:1027E0005EE30E94343C6B017C0120E030E0A901F3
:1027F0000E947C3E20E030E040E05FE387FD77C24E
:10280000C701B6010E947F3D0E944B3E0E94D53B0E
:1028100020E030E04AE754E40E94E33D6B017C0194
:102820008091970E843109F03ECF8091960E8430CE
:1028300009F039CF20E030E040E251E4C701B601B1
:102840000E94CF3B87FF58C263E080E00E9466068B
:1028500088EE92E0E9D843E050E0C701B601F8C342
:10286000943008F420CF8091980E81111FC0F18020
:102870008091970E8431F9F48091960E843009F09E
:1028800012CFF9E060E080E0FF1508F06BCF86EF33
:102890008F0D60E08A35C0F480E00E9466068CEE01
:1028A00092E0C2D88F2D0E943328FDCEF12C8130CA
:1028B000F9F6F280DDCF803109F0F5CE8091960EE9
:1028C000823009F0F0CEDDCF80E00E946606EACFCC
:1028D000C701B6010E947E3D2ECF86EF8F0D60E0CE
:1028E0008A3510F480E1D9CF80E1EFCF943008F43D
:1028F000DACE8091980E811187C0618170E090E0FE
:1029000080E00E94D53B26E636E646EE5FE30E9475
:10291000343C26E636E646E453E40E947E3D6B01F5
:102920007C0120E030E0A9010E947C3E20E030E004
:1029300040E05FE387FD63C0C701B6010E947F3DB1
:102940000E944B3E0E94D53B6B017C01F4016281E9
:1029500070E090E080E00E94D53B26E636E646EE49
:102960005FE30E94343C26E636E646E453E40E94E8
:102970007E3D2B013C0120E030E0A9010E947C3E1D
:1029800020E030E040E05FE387FD9DC0C301B2017D
:102990000E947F3D0E944B3E0E94D53B2B013C0193
:1029A0008091970E843109F077C18091960E843022
:1029B00009F079CE20E030E048EC52ECC701B601D6
:1029C0000E94CF3B18160CF483C061E080E00E94A7
:1029D000660684EE92E028D820E030E048EC52EC25
:1029E000C301B2010E94CF3B18160CF4E5C061E0B0
:1029F00084E00E94660684EE92E016D854CEC701A9
:102A0000B6010E947E3D9CCF412C512C32017301B6
:102A10006201813029F6618170E090E080E00E94DF
:102A2000D53B26E636E646EE5FE30E94343C26E6DA
:102A300036E646E453E40E947E3D2BEE38E34EE05A
:102A40005FE30E94343C25EE38E34EE851E40E94F7
:102A50007E3D6B017C0120E030E0A9010E947C3EBC
:102A600020E030E040E05FE387FD28C0C701B60109
:102A70000E947F3D0E944B3E0E94D53B6B017C0132
:102A8000F401628170E090E080E00E94D53B26E690
:102A900036E646EE5FE30E94343C26E636E646E440
:102AA00053E40E947E3D2BEE38E34EE05FE30E944C
:102AB000343C25EE38E34EE851E459CFC701B60166
:102AC0000E947E3DD7CFC301B2010E947E3D62CFFE
:102AD00020E030E048EC52ECC701B6010E947C3E99
:102AE00018167CF420E030E040E251ECC701B6015A
:102AF0000E94CF3B18162CF061E080E00E94660631
:102B000035C020E030E040E251ECC701B6010E9440
:102B10007C3E181684F420E030E0A901C701B6011C
:102B20000E94CF3B87FF07C061E080E00E946606FD
:102B30008CEE92E019C020E030E0A901C701B60197
:102B40000E947C3E87FD19C020E030E040E251E465
:102B5000C701B6010E94CF3B87FF0FC061E080E054
:102B60000E9466068BEE92E00E94140D50E040E059
:102B7000C701B6010E943A282FCF20E030E040E2A2
:102B800051E4C701B6010E947C3E87FD0AC020E0E7
:102B900030E048EC52E4C701B6010E94CF3B87FD0C
:102BA000C3CF20E030E048EC52E4C701B6010E94F8
:102BB0007C3E87FD11CFA0CF20E030E048EC52EC06
:102BC000C301B2010E947C3E18168CF420E030E074
:102BD00040E251ECC301B2010E94CF3B18163CF019
:102BE00061E084E00E94660650E040E02FC220E0F1
:102BF00030E040E251ECC301B2010E947C3E181665
:102C000084F420E030E0A901C301B2010E94CF3B6F
:102C100087FF07C061E084E00E9466068CEE92E0C8
:102C200019C020E030E0A901C301B2010E947C3E3E
:102C300087FD13C020E030E040E251E4C301B2015F
:102C40000E94CF3B87FF09C061E084E00E946606D6
:102C50008BEE92E00E94140DC7CF20E030E040E2FE
:102C600051E4C301B2010E947C3E87FD0AC020E00E
:102C700030E048EC52E4C301B2010E94CF3B87FD33
:102C8000C9CF20E030E048EC52E4C301B2010E9419
:102C90007C3E87FD08CDA4CF803109F004CD809122
:102CA000960E823009F0FFCC20E030E048EC52EC88
:102CB000C701B6010E94CF3B18160CF432C361E085
:102CC00080E097CEC12CD12C7601213009F0A8CD1F
:102CD0000E94D33B21EB3AE249EC54E40E94343C9D
:102CE00020E030E04AEF55E40E94E33D7CCDC7018F
:102CF000B6010E947E3D88CD20E030E040E251E404
:102D0000C701B6010E947C3E87FD11C020E030E083
:102D100048EC52E4C701B6010E94CF3B87FF07C0D1
:102D200063E080E00E94660689EE92E093CD20E0A9
:102D300030E048EC52E4C701B6010E947C3E87FDBA
:102D400011C020E030E04AE754E4C701B6010E9418
:102D5000CF3B87FF07C063E080E00E9466068AEEF3
:102D600092E078CD20E030E04AE754E4C701B601B4
:102D70000E947C3E87FD11C020E030E44CE156E427
:102D8000C701B6010E94CF3B87FF07C063E080E028
:102D90000E9466068BEE92E05DCD20E030E44CE1CF
:102DA00056E4C701B6010E947C3E87FD11C020E0B9
:102DB00030E543EC57E4C701B6010E94CF3B87FFE3
:102DC00007C063E080E00E9466068CEE92E042CD90
:102DD00020E030E543EC57E4C701B6010E947C3E99
:102DE00087FD61CC63E080E00E94660634CD9430BC
:102DF00008F459CC618170E090E080E00E94D53BFE
:102E000020E030E040E251E40E94343C23EB3BE719
:102E100042E75DE30E94343C6B017C0120E030E03E
:102E2000A9010E947C3E20E030E040E05FE387FDA6
:102E30007BC0C701B6010E947F3D0E944B3E0E94AD
:102E4000D53B6B017C01F401628170E090E080E091
:102E50000E94D53B20E030E040E251E40E94343C47
:102E600023EB3BE742E75DE30E94343C2B013C014E
:102E700020E030E0A9010E947C3E20E030E040E00C
:102E80005FE387FD56C0C301B2010E947F3D0E94EF
:102E90004B3E0E94D53B2B013C018091970E843123
:102EA00009F001CC8091960E843009F0FCCB20E033
:102EB00030E040E251E4C701B6010E94E33D6B01FE
:102EC0007C0120E030E040E251E40E94CF3B87FFEC
:102ED00035C062E080E00E9466068CEE92E00E94BF
:102EE000140D41E050E0C701B6010E943A2820E0ED
:102EF00030E040E251E4C301B2010E94E33D6B01C6
:102F00007C0120E030E040E251E40E94CF3B87FFAB
:102F100024C062E085E00E9466068CEE92E00E948A
:102F2000140D41E050E099CCC701B6010E947E3DEE
:102F300084CFC301B2010E947E3DA9CF20E030E0E2
:102F400040E251E4C701B6010E947C3E87FDCFCF2D
:102F500062E080E00E946606C4CF20E030E040E2FC
:102F600051E4C701B6010E947C3E87FD9CCB62E024
:102F700085E00E946606D5CF943008F494CB80910A
:102F8000980E811168C0E180F0E2EF9E700111247B
:102F9000F401628170E090E080E00E94D53B20E087
:102FA00030E048EC52E40E94343C25EB32EC44E73C
:102FB0005DE30E94343C2B013C0120E030E0A9019C
:102FC0000E947C3E20E030E040E05FE387FD61C08E
:102FD000C301B2010E947F3D0E944B3E0E94D53B3F
:102FE00020E030E048EC52E40E94E33D2B013C013C
:102FF0008091970E843109F094C08091960E8430B0
:1030000009F0F4C0FAE0EF16F10408F047C060E000
:1030100088E00E9466068AEE92E00E94140DC701C5
:103020000E940F0D20E030E040E251E4C301B20104
:103030000E94CF3B87FF4FC061E08DE00E94660693
:103040008CEE92E00E94140D41E050E0C301B20109
:103050000E943A2828CB412C512C3201F12CE12C32
:10306000813031F6E180F0E2EF9E70011124F4012D
:10307000628170E090E080E00E94D53B20E030E08B
:1030800048EC52E40E94343C29ED31EA4CED50E426
:103090008ACFC301B2010E947E3D9ECFC7010A972D
:1030A0008A35910538F460E088E00E9466068BEE70
:1030B00092E0B3CFC7018456910960E08438934011
:1030C00030F488E00E9466068CEE92E0A6CF88E09D
:1030D0000E946606A4CF20E030E040E251E4C30144
:1030E000B2010E947C3E87FD0FC020E030E048EC3A
:1030F00052E4C301B2010E94CF3B87FF05C061E0EB
:103100008DE00E946606A0CF20E030E048EC52E45B
:10311000C301B2010E947C3E87FDC5CA61E08DE01B
:103120007BCD803109F062C08091960E823009F02B
:103130005DC03AE0E316F104C0F460E089E00E946B
:1031400066068AEE92E00E94140DC7010E940F0DE0
:1031500020E030E040E251E4C301B2010E94CF3BE5
:1031600087FF20C061E089E069CFC7010A978A35EF
:10317000910538F460E089E00E9466068BEE92E0EB
:10318000E2CFC7018456910960E08438934030F45F
:1031900089E00E9466068CEE92E0D5CF89E00E941D
:1031A0006606D3CF20E030E040E251E4C301B20133
:1031B0000E947C3E87FD0DC020E030E048EC52E4E8
:1031C000C301B2010E94CF3B87FF03C061E089E0E9
:1031D00098CF20E030E048EC52E4C301B2010E94F5
:1031E0007C3E87FD60CA61E089E016CDFAE0EF160B
:1031F000F10460F460E081E00E9466068AEE92E0ED
:103200000E94140DC7010E940F0D4DCAC7010A97F5
:103210008A35910538F460E081E00E9466068BEE05
:1032200092E0EECFC7018456910960E08438934064
:1032300030F481E00E9466068CEE92E0E1CF81E0FE
:103240000E946606DFCF823009F02DCAF40180812A
:10325000843109F028CA933008F425CA8181853069
:1032600009F021CA8091980E811134C0628170E00A
:1032700090E080E00E94D53B27EE36EE46EE5FE31D
:103280000E94343C26E636E646EA52E40E947E3D41
:103290006B017C0120E030E0A9010E947C3E20E02F
:1032A00030E040E05FE387FD37C0C701B6010E9410
:1032B0007F3D0E944B3E0E94D53B6B017C0180917B
:1032C000970E843109F0E8CC8091960E843009F095
:1032D000EAC9EACCC12CD12C7601813081F7628118
:1032E00070E090E080E00E94D53B27EE36EE46EE9F
:1032F0005FE30E94343C26E636E646EA52E40E944A
:103300007E3D2BEE38E34EE05FE30E94343C25EE39
:1033100038E34EE851E4BACFC701B6010E947E3DC2
:10332000C8CF20E030E048EC52ECC701B6010E9463
:103330007C3E18167CF420E030E040E251ECC701FE
:10334000B6010E94CF3B18162CF061E080E00E948D
:10335000660635C020E030E040E251ECC701B6011E
:103360000E947C3E181684F420E030E0A901C701D9
:10337000B6010E94CF3B87FF07C061E080E00E945A
:1033800066068CEE92E019C020E030E0A901C7018A
:10339000B6010E947C3E87FD15C020E030E040E28F
:1033A00051E4C701B6010E94CF3B87FF0BC061E02B
:1033B00080E00E9466068BEE92E00E94140D50E0C1
:1033C00040E04BCA20E030E040E251E4C701B601E2
:1033D0000E947C3E87FD0AC020E030E048EC52E4C9
:1033E000C701B6010E94CF3B87FDC7CF20E030E088
:1033F00048EC52E4C701B6010E947C3E87FD53C9E8
:10340000A4CF0FB6F8941EBF0FBE0DBF51C94F9287
:103410005F926F927F928F929F92AF92BF92CF9264
:10342000DF92EF92FF920F931F93CF93DF9300D021
:1034300000D01F92CDB7DEB7CDB6DEB68091931324
:10344000909194138F37910509F022C38091B214A3
:10345000811134C18091B414811130C10E9458058A
:103460000091AD141091AE142091AF143091B014AE
:10347000601B710B820B930B633371058105910502
:1034800008F417C20E94E60A882309F412C2ADB6F6
:10349000BEB60E94E60A8093A8138091A81390E01C
:1034A00004968DB69EB6881A990A0FB6F8949EBEF9
:1034B0000FBE8DBE2DB73EB72F5F3F4F79010E94E3
:1034C000640580910B0FF701808380910C0F81833D
:1034D00080910D0F828380910E0F838310E0809185
:1034E000A813181740F40E94280BF701E10FF11DF3
:1034F00084831F5FF4CF0091A81310E00C5F1F4F6F
:10350000970141E067E082E00E94150D4091A81309
:103510004C5FB70182E08AD8F7018481823139F4A7
:10352000809192138E7F82638093921367D89091DB
:10353000B614992349F18091B81481117DC020916E
:10354000AB142130E1F52091BC14EAEAF3E1D70194
:103550001496281731F041913D91431390E08F5F0D
:10356000F8CF992319F081E08093B7148091BB14B0
:10357000882351F01092AA141092B6141092B71426
:103580001092B8141092BA140E94DF0A8091D914D4
:103590009091DA14A091DB14B091DC140196A11D76
:1035A000B11D8093D9149093DA14A093DB14B093D7
:1035B000DC140FB6F894BEBE0FBEADBE7AC1223089
:1035C000A8F28091BC144091AA14A42FB0E0A55594
:1035D000BC4EF701349630E0831731F06D91519174
:1035E000651390E03F5FF8CF992309F4BFCF31E036
:1035F0003093B7149091AC149F5F9093AC14E82F64
:10360000E40FEF5FE093AA14F0E0E157FC4E838DE6
:103610008093BC142913AACF1092AC141092AA1450
:103620008091AA138093BC148091BA14882309F462
:103630009DCF3093BB149ACF2091A8138091BC14D6
:1036400090E001962817190621F581E08093B714C0
:103650001092CD148091BB14882309F495CF109259
:10366000AA141092BC141092B6141092B7141092AF
:10367000B8141092BA14198282E08A8302E010E032
:103680009E012F5F3F4F41E066E080E00E94150DF4
:103690007BCF81E08093B1148091CD148F5F8093B4
:1036A000CD148B3020F01092B6141092CD1464EF2C
:1036B00071E080E090E00E942805CCCF0E94580580
:1036C0000091AD141091AE142091AF143091B0144C
:1036D000601B710B820B930B6B307105810591059B
:1036E00008F4E7C00E94E60A882309F4E2C090E0EB
:1036F00080E00E94070B439709F447C090E080E008
:103700000E94070B8A9709F086C081E090E00E9432
:10371000070B892B09F07FC0ADB6BEB60E94E60A42
:103720008093A8138091A81390E004968DB69EB65E
:10373000881A990A0FB6F8949EBE0FBE8DBE2DB79B
:103740003EB72F5F3F4F79010E9464051092B41479
:103750001092B51480910B0FF701808380910C0FAC
:10376000818380910D0F828380910E0F838310E0FF
:103770008091A813181708F070C00E94280BF70159
:10378000E10FF11D84831F5FF3CF81E090E00E9481
:10379000070B892B09F0B2CF82E090E00E94070B63
:1037A000892B09F0ABCFADB6BEB60E94E60A809376
:1037B000A8138091A81390E004968DB69EB6881A3F
:1037C000990A0FB6F8949EBE0FBE8DBE2DB73EB7B8
:1037D0002F5F3F4F79010E9464051092B21410923E
:1037E000B31480910B0FF701808380910C0F8183BC
:1037F00080910D0F828380910E0F838310E0809162
:10380000A813181750F50E94280BF701E10FF11DBE
:1038100084831F5FF4CF0E94E60A8093A8130E945E
:10382000640580910B0F898380910C0F8A838091AE
:103830000D0F8B8380910E0F8C838091B214909129
:10384000B414811107C1992309F40BC1811109C175
:103850008AE28D838091B51403C10091A81310E012
:103860000C5F1F4F970141E067E082E00E94150D59
:103870004091A8134C5FB70182E00E9416130FB667
:10388000F894BEBE0FBEADBE0E94DF0A8091D9146F
:103890009091DA14A091DB14B091DC140196A11D73
:1038A000B11D8093D9149093DA14A093DB14B093D4
:1038B000DC148091B6148823B9F10E94E60A8111C4
:1038C00033C00E9458050091C9141091CA14209168
:1038D000CB143091CC144B015C01801A910AA20ADE
:1038E000B30A950184014091C7145091C8144A014C
:1038F000B12CA12C80169106A206B306A8F4609301
:10390000C9147093CA148093CB149093CC148091F3
:10391000B714882349F08091B8148111FCC181E06B
:103920008093B1141092B7148091B114882309F4D4
:103930001EC30E94E60A182F811119C32091931308
:10394000309194138091AB142F37310509F074C373
:10395000813009F036C38091AA141817E8F40E9448
:1039600058054B015C01E12FF0E0E157FC4E838DDF
:103970000E94EE0A00E00E94E60A181708F4ABC2A3
:10398000002309F4ACC201E010E027E432E04EEF7E
:103990006FE080E00E94150D8091AA14823008F437
:1039A000D1C20E94E60A823020F190E080E00E94BD
:1039B000070B4397F1F481E090E00E94070B892BFD
:1039C000C1F00E9458054B015C0110E00E94E60A1C
:1039D0009091AA14981708F490C2112309F499C27F
:1039E00001E010E027E432E04EEF6FE080E00E945B
:1039F000150D8091AA14823008F4A4C20E94E60A30
:103A0000823008F49FC290E080E00E94070B8A9702
:103A100009F098C281E090E00E94070B892B09F41D
:103A200091C20E9458054B015C0110E00E94E60A19
:103A30009091AA14981708F47AC2112309F4B3C21A
:103A400001E010E027E432E04EEF6FE080E00E94FA
:103A5000150D78C29111F7CE83E18D838091B31457
:103A60008E830E94280B8F8307E010E09E012F5F5A
:103A70003F4F41E067E082E00E94150D4091A8139E
:103A80004C5FBE016F5F7F4F82E00E941613FCCE39
:103A90000F9709F0AFC00E94E60A882309F409CF06
:103AA000ADB6BEB60E94E60A8093A8130091A81393
:103AB00010E0000F111F0D5F1F4F8DB69EB6801ACC
:103AC000910A0FB6F8949EBE0FBE8DBE2DB73EB7BD
:103AD0002F5F3F4F79010E94640580910B0FF70122
:103AE000808380910C0F818380910D0F8283809160
:103AF0000E0F83838091AB148130E9F48091AA1377
:103B000084830E94280B712C8091AA147816D8F512
:103B1000872D90E04C01880C991C8E0C9F1C8157BE
:103B20009C4EFC01848DF40185830E94280BF401D6
:103B300086837394E9CF823060F1E091AA14F0E0BB
:103B4000E157FC4E848DF70184830E94280B712C71
:103B50008091BC147816B8F4872D90E04C01880C45
:103B6000991C8E0C9F1CE091AA14F0E0E157FC4ECA
:103B7000E80FF91F858DF40185830E94280BF4015D
:103B800086837394E5CF970142E067E082E00E946C
:103B9000150DF70184818E3F41F4809192138D7F42
:103BA0008163809392130E94FE128091B614882341
:103BB000C9F08091B8148111A1C09091AB149130DB
:103BC00009F071C09093B7148091BB14882351F011
:103BD0001092AA141092B6141092B7141092B8143E
:103BE0001092BA144091A8134C5FB70182E00E9472
:103BF0001613CACC0E9458050091AD141091AE1452
:103C00002091AF143091B014601B710B820B930B99
:103C1000633371058105910508F44BCE0E94E60AD5
:103C2000882309F446CEADB6BEB60E94E60A80935C
:103C3000A8138091A81390E004968DB69EB6881ABA
:103C4000990A0FB6F8949EBE0FBE8DBE2DB73EB733
:103C50002F5F3F4F79010E94640580910B0FF701A0
:103C6000808380910C0F818380910D0F82838091DE
:103C70000E0F838310E08091A813181740F40E9460
:103C8000280BF701E10FF11D84831F5FF4CF009132
:103C9000A81310E00C5F1F4F970141E067E082E03E
:103CA0000E94150D82CF923008F48ECF21E0209330
:103CB000B7148091AC148F5F8093AC14E091AA1478
:103CC0003091BC14E30FEF5FE093AA14F0E0E157EA
:103CD000FC4E338D3093BC14981376CF1092AC14F5
:103CE0001092AA148091AA138093BC148091BA14E4
:103CF000882309F469CF2093BB1466CF81E08093B9
:103D0000B7148091BB14882309F46CCF1092AA14C5
:103D10001092BC145FCF2091BC14243009F04DC028
:103D20008091AA14811113C08091BD149091BE148A
:103D30003091BF144091C0144093AA133093AB1339
:103D40009093AC138093AD132093AA14E8CD6091A7
:103D5000AA137091AB138091AC139091AD130E9494
:103D60008C3E8090C5149090C614B12CA12CDC011F
:103D7000CB01880D991DAA1DBB1DB093AA13A0935A
:103D8000AB139093AC138093AD132093AA14880EB9
:103D9000991EAA1EBB1E0091C1141091C21420913D
:103DA000C3143091C414081519052A053B0508F001
:103DB000B6CD81E08093BB14B2CD233009F045C06D
:103DC0008091AA1481110DC08091BD149091BE14F0
:103DD0003091BF143093AA139093AB138093AC131C
:103DE000B3CF3091AA138091AB1390E0B0E0A0E084
:103DF000BA2FA92F982F8827A32B3091AC13832B90
:103E00004091C5145091C61470E060E0840F951F76
:103E1000A61FB71FA093AA139093AB138093AC1364
:103E20002093AA14840F951FA61FB71F4091C11499
:103E30005091C2146091C3147091C414481759076B
:103E40006A077B0708F4B5CF6ACD223029F5809147
:103E5000AA14811109C08091BD149091BE14909351
:103E6000AA138093AB1370CF4091C5145091C61420
:103E70008091AA139091AB13982789279827840FD4
:103E8000951F9093AA138093AB132093AA14840FC9
:103E9000951FB0E0A0E0CACF213009F040CD80915D
:103EA000AA14811108C08091BD148093AA1381E0E7
:103EB0008093AA1434CD2091C5143091C6148091FA
:103EC000AA13820F8093AA1391E09093AA14820FF1
:103ED000932F911DDECF011156CD1F5F3CCD0E9467
:103EE0005805681979098A099B0901E0653171054E
:103EF0008105910508F03FCD3DCD111171CD81E0D7
:103F00008093B2148091AB138093B3140E94DF0AA4
:103F100070CD0E945805681979098A099B0911E03A
:103F2000653671058105910508F050CD4ECD111112
:103F300087CD81E08093B4148091AB138093B51446
:103F40000E94DF0A1092B1148091DD149091DE146A
:103F5000A091DF14B091E0140196A11DB11D8093D2
:103F6000DD149093DE14A093DF14B093E0140FB629
:103F7000F894DEBE0FBECDBE27960FB6F894DEBF16
:103F80000FBECDBFDF91CF911F910F91FF90EF90AA
:103F9000DF90CF90BF90AF909F908F907F906F9069
:103FA0005F904F9008950E945805681979098A0911
:103FB0009B0911E0653671058105910508F036CD44
:103FC00034CD823008F4BECF1091AA141F5FE12EC9
:103FD000F12C8091AA1490E001962091BC14820FDC
:103FE000911DE816F9060CF0ADCF0E9458052B0183
:103FF0003C01F701E157FC4E838D0E94EE0A00E080
:104000008091AA145701A81AB1080E94E60A8A15DD
:104010001B047CF4011114CD0E9458056419750924
:104020008609970901E0653171058105910540F721
:10403000E6CF002359F204CD2F30310509F0A5C099
:104040008130D9F52091AA13E6E3F2E086E492E00C
:104050003191231709F408C18E179F07C9F701E0B2
:1040600010E02AEA33E149EFF0CCB11030C190E022
:1040700080E00E94070B2091AA1328171906D9F097
:104080000E94DF0A1F5F1A3008F410C101E010E03F
:104090002AEA33E148EFD9CC0E9458056419750922
:1040A00086099709BB24B394663071058105910593
:1040B00008F005C103C10F5FEAC0823008F442CFA7
:1040C0000091AA14E02FF0E0E157FC4E248DE6E3C6
:1040D000F2E086E492E03191231709F405C18E17CE
:1040E0009F07C9F7BCCF911046C090E080E00E94C6
:1040F000070BE091AA14F0E0E157FC4E248D28173D
:104100001906A1F00E94DF0A1F5F1A3020F1BECF0E
:104110000E94580564197509860997099924939492
:104120006630710581059105F8F41DC0A394B02E89
:10413000BA0C4A2D50E08091AA1490E0019620918B
:10414000BC14820F911D481759070CF0FBCE9A0141
:1041500026553C4E79010E9458052B013C01F70180
:1041600080810E94EE0A912C0E94E60AB81608F49B
:10417000BACF992069F2E091AA14F0E0E057FC4E22
:10418000838D8983EB0DF11DA6C0813041F58091AF
:10419000AA14181708F0D6CE0E9458054B015C01EE
:1041A000E12FF0E0E157FC4E838D0E94EE0A00E023
:1041B0000E94E60A181778F0011142CC0E945805B7
:1041C000681979098A099B0901E065317105810542
:1041D000910570F7ECCF011133CC1F5FD8CF82303F
:1041E00008F4B0CEB090AA1411E01B0DB0940B2DC2
:1041F000010FE12EF12C8091AA1490E001962091FC
:10420000BC14820F911DE816F9060CF09BCE0E949B
:1042100058052B013C01F701E157FC4E838D0E94AC
:10422000EE0AF12C0E94E60A081760F0FF2071F0F8
:10423000E091AA14F0E0E057FC4E838D8983E00FF3
:10424000F11D49C0F110F4CF1F5FD1CF0E94580576
:104250006419750986099709FF24F394653171057E
:1042600081059105F8F6DDCF8091AA14823070F0B7
:104270008091AB138F3F51F4EBEAF3E180E081933F
:104280008F5F803FE1F781EF8093AA1400E0809177
:10429000AA14081708F056CE802F90E09C012157F1
:1042A0003C4E790149013BE1830E911C0E94580567
:1042B0002B013C01F40180810E94EE0AB12C0E9486
:1042C000E60A081708F4D1CEBB2009F4E5CE8091A8
:1042D000AA138983F701838D8A8302E010E09E018F
:1042E0002F5F3F4F4AEFB1CBAA24A394A00E0095B5
:1042F0001ECFCF92DF92EF92FF92CF93DF93582F92
:10430000FC0130E020E0261748F44191D901AC5E71
:10431000BC4E92964C932F5F3F4FF5CF2091521396
:104320002223A9F0623098F02FEF260FFC0140E025
:104330003191430F3E2F351B3217D0F330E0F90196
:10434000EC5EFC4E42A3820F931FEC014883109257
:104350004613609347130E9458056B017C0180E06F
:1043600090914913911111C08111CDC00E9458053F
:10437000AB01BC014C195D096E097F0981E0493E22
:1043800053406105710560F7EACF8111BCC05091BF
:104390004F138091C900552359F080628093C90062
:1043A00080E0DF91CF91FF90EF90DF90CF90089564
:1043B00087748093C900109249135298539A5A9A5D
:1043C0005B9A60913613EBEEF3E03197F1F700C0A2
:1043D00000004A9B71C05B9880E0CFEFD0E021974E
:1043E000F1F700C000004A9B02C05B9A892FEFEFF3
:1043F000F0E03197F1F700C0000030E020E040E04D
:10440000E62FF0E0A1E0B0E081115BC07F01022E59
:1044100002C0F594E7940A94E2F7E0FE4FC05B9A7D
:10442000592FCFEFD0E02197F1F700C0000071E0E5
:104430004A9949C070E07513892FCFEFD0E02197DA
:10444000F1F700C000002F5F3F4F28303105E1F643
:10445000811101C05B9AEFEFF0E03197F1F700C0F6
:1044600000004A9B892FCFEFD0E02197F1F700C0E1
:1044700000004093251391E09093351381112BC0D8
:10448000641329C0909346138091C9008869809372
:10449000C9008091C90080628093C90084E298E0DD
:1044A000909351028093500280916A00837F8860CC
:1044B00080936A00ED9A74CF892F8FCF5B9850E07C
:1044C000B0CF5B9AAECF7D01022E01C0EE0C0A94F4
:1044D000EAF74E29B0CF10924613109247138091FD
:1044E000C90088698093C90084E298E090935102E2
:1044F0008093500280916A00837F886080936A0075
:10450000ED9A83E04ECF82E04CCF84E20E94B80A5D
:104510000E948D0B90E080E008950E946F3F0F9302
:104520001F93CF93DF93EC0188819981009759F015
:104530002A813B812617370730F081E0DF91CF9148
:104540001F910F9108958B016F5F7F4F0E94933EE3
:10455000009759F0998388831B830A832C813D81BE
:10456000232B59F7FC011082E8CF80E0E7CFCF93EF
:10457000DF93EC01198218821B821A821D821C8231
:1045800070E060E0CCDF2881398181110FC02115F6
:10459000310519F0C9010E947E3A198218821D82E4
:1045A0001C821B821A82DF91CF9108951D821C828A
:1045B0006DEE72E0C901DF91CF910C94853F1F929F
:1045C0000F920FB60F9211242F933F938F939F93C7
:1045D000AF93BF938091E30B9091E40BA091E50B17
:1045E000B091E60B3091E20B23E0230F2D3758F505
:1045F0000196A11DB11D2093E20B8093E30B9093D4
:10460000E40BA093E50BB093E60B8091E70B909140
:10461000E80BA091E90BB091EA0B0196A11DB11D29
:104620008093E70B9093E80BA093E90BB093EA0B10
:10463000BF91AF919F918F913F912F910F900FBE9E
:104640000F901F90189526E8230F0296A11DB11D0B
:10465000D2CF1F920F920FB60F9211240BB60F926A
:104660002F933F934F935F936F937F938F939F937A
:10467000AF93BF93EF93FF93E0915C02F0915D02E3
:104680001995FF91EF91BF91AF919F918F917F917C
:104690006F915F914F913F912F910F900BBE0F90B3
:1046A0000FBE0F901F9018951F920F920FB60F928A
:1046B00011240BB60F922F933F934F935F936F93F9
:1046C0007F938F939F93AF93BF93EF93FF93E0916B
:1046D0005A02F0915B021995FF91EF91BF91AF9152
:1046E0009F918F917F916F915F914F913F912F910A
:1046F0000F900BBE0F900FBE0F901F9018951F923A
:104700000F920FB60F9211240BB60F922F933F9377
:104710004F935F936F937F938F939F93AF93BF93C9
:10472000EF93FF93E0915002F09151021995FF91A0
:10473000EF91BF91AF919F918F917F916F915F9119
:104740004F913F912F910F900BBE0F900FBE0F9086
:104750001F9018951F920F920FB60F9211240BB64F
:104760000F922F933F934F935F936F937F938F930A
:104770009F93AF93BF93EF93FF93E0914E02F0911D
:104780004F021995FF91EF91BF91AF919F918F913A
:104790007F916F915F914F913F912F910F900BBE41
:1047A0000F900FBE0F901F9018951F920F920FB68B
:1047B0000F9211240BB60F922F933F934F935F9359
:1047C0006F937F938F939F93AF93BF93EF93FF93D9
:1047D000E0915802F09159021995FF91EF91BF9124
:1047E000AF919F918F917F916F915F914F913F9189
:1047F0002F910F900BBE0F900FBE0F901F9018952A
:104800001F920F920FB60F9211240BB60F922F9397
:104810003F934F935F936F937F938F939F93AF9348
:10482000BF93EF93FF93E0915602F09157021995D1
:10483000FF91EF91BF91AF919F918F917F916F9178
:104840005F914F913F912F910F900BBE0F900FBE34
:104850000F901F9018951F920F920FB60F92112470
:104860000BB60F922F933F934F935F936F937F936A
:104870008F939F93AF93BF93EF93FF93E091540275
:10488000F09155021995FF91EF91BF91AF919F91D2
:104890008F917F916F915F914F913F912F910F90E9
:1048A0000BBE0F900FBE0F901F9018951F920F9286
:1048B0000FB60F9211240BB60F922F933F934F9385
:1048C0005F936F937F938F939F93AF93BF93EF9378
:1048D000FF93E0915202F09153021995FF91EF91ED
:1048E000BF91AF919F918F917F916F915F914F9108
:1048F0003F912F910F900BBE0F900FBE0F901F9006
:1049000018951F920F920FB60F9211240BB60F92AB
:104910002F933F934F935F936F937F938F939F93C7
:10492000AF93BF93EF93FF938091B900887F803658
:1049300009F44DC008F040C0883209F4A9C028F538
:10494000803109F49DC0C8F4882309F4FBC0883085
:1049500009F496C0FF91EF91BF91AF919F918F9114
:104960007F916F915F914F913F912F910F900BBE6F
:104970000F900FBE0F901F901895883109F488C0D2
:10498000803241F78093E40E14C0803409F49DC056
:1049900040F48033B9F38833E9F68093E40E85EC74
:1049A000B0C0803509F485C0883509F496C08834D4
:1049B00089F60E946C05CECF883909F48CC038F591
:1049C000883729F050F4883611F0803719F683E0E3
:1049D0008093E60E1092E10B57C0883809F47BC033
:1049E000803919F0803809F0B5CF8091E10B803221
:1049F00008F071C0E091E10B81E08E0F8093E10B34
:104A00008091BB00F0E0EF53F44F80833DC0803BCA
:104A100039F0E0F4803A09F479C0883A09F09ACF85
:104A200084E08093E60E1092C00B1092BF0BE091D1
:104A30009C0EF0919D0E19958091BF0B81110FC0B6
:104A400081E08093BF0B10929F0B09C0803C09F45A
:104A5000A6CF883C09F4A3CF883B09F07BCFE09137
:104A6000C00B81E08E0F8093C00BF0E0E156F44F55
:104A700080818093BB009091C00B8091BF0B29C0B7
:104A80008091C10E8093BB0085EC8093BC0062CF07
:104A90009091E30E8091E20E981758F5E091E30EA5
:104AA00081E08E0F8093E30EF0E0EE53F14F8081B2
:104AB000E9CFE091E30E81E08E0F8093E30E8091C9
:104AC000BB00F0E0EE53F14F80839091E30E8091B4
:104AD000E20E9817C8F285E8D8CFE091E30E81E0A6
:104AE0008E0F8093E30E8091BB00F0E0EE53F14F08
:104AF00080838091E50E81115CCF81E08093C00EB0
:104B000084EA8093BC001092E60E24CF85EC80935B
:104B1000BC001092E60E8091E10B803230F4E091FF
:104B2000E10BF0E0EF53F44F10826091E10B70E085
:104B3000E0919A0EF0919B0E81EC9BE019951092FA
:104B4000E10B08CF1092E40E34CF1F920F920FB6F4
:104B50000F9211240BB60F928F939F93EF93FF93B5
:104B600090914613809147139817C0F4E091461333
:104B7000F0E0EC5EFC4E82A18093CE008091461363
:104B80008F5F80934613FF91EF919F918F910F90CC
:104B90000BBE0F900FBE0F901F9018958091C9000B
:104BA0008F7D8093C9001092461310924713EBCF6C
:104BB0001F920F920FB60F9211240BB60F922F93E4
:104BC0008F939F93EF93FF938091C8009091CE00B5
:104BD000887120913513203150F5E0913513F0E0C4
:104BE000EC5EFC4E918B909135139F5F9093351343
:104BF0008093481380914F1381110DC084E298E097
:104C0000909351028093500280916A00837F886064
:104C100080936A00ED9AFF91EF919F918F912F9170
:104C20000F900BBE0F900FBE0F901F9018958460D1
:104C3000DFCF1F920F920FB60F9211240BB60F9277
:104C40002F933F934F935F936F937F938F939F9394
:104C5000AF93BF93EF93FF93809191008A7F8093EE
:104C60009100109295001092940081E08093491376
:104C70008091351381110E946A02FF91EF91BF91DB
:104C8000AF919F918F917F916F915F914F913F91E4
:104C90002F910F900BBE0F900FBE0F901F90189585
:104CA0001F920F920FB60F9211240BB60F922F93F3
:104CB0003F938F939F93EF93FF939091F10B80918C
:104CC000F20B981741F18091F20BE1E0E80FF0E070
:104CD0008F5F8093F20B80919113EB5AF54F811106
:104CE00010C080818093D600FF91EF919F918F91AA
:104CF0003F912F910F900BBE0F900FBE0F901F9002
:104D000018952081808190E1299F9001112482953E
:104D10008F70822BE7CF8091D1008F7D8093D1005F
:104D2000E3CF1F920F920FB60F9211240BB60F9282
:104D30002F933F934F935F936F937F938F939F93A3
:104D4000AF93BF93EF93FF938091D0009091D600E3
:104D500088712091550BE1E0E20FF0E03091560BA5
:104D60003E171F0659F12F5F2093550B2091911389
:104D7000EB5AF64F211120C09083809354090E9472
:104D800058056093AD147093AE148093AF14909354
:104D9000B014FF91EF91BF91AF919F918F917F914F
:104DA0006F915F914F913F912F910F900BBE0F909C
:104DB0000FBE0F901F9018959295DECF84E0DDCF47
:104DC0001F920F920FB60F9211240BB60F922F93D2
:104DD0003F938F939F93EF93FF932091ED0B30912F
:104DE000EE0B8091EF0B9091F00B28173907E9F04B
:104DF0008091EF0B9091F00B019693709093F00BD4
:104E00008093EF0B8C5A9A4FFC0180818093C600EF
:104E1000FF91EF919F918F913F912F910F900BBE3A
:104E20000F900FBE0F901F9018958091C1008F7D3D
:104E30008093C100EDCF1F920F920FB60F921124F5
:104E40000BB60F922F933F934F935F938F939F9344
:104E5000EF93FF932091C0003091C6008091121310
:104E60009091131301969370409110135091111368
:104E700048175907D1F02871909313138093121398
:104E8000805F904FFC01308320930F0FFF91EF91D3
:104E90009F918F915F914F913F912F910F900BBEFA
:104EA0000F900FBE0F901F90189524E0EDCF3F920A
:104EB0004F925F926F927F928F929F92AF92BF922A
:104EC000CF92DF92EF92FF920F931F93CF93DF93D6
:104ED0002B013C017A01890120E2C22ED12C33241E
:104EE00033943BECA32E37E0B32E0115110509F4E2
:104EF00086C0C0918013D0918113809183139091CB
:104F000084139E012150310924213521C21BD30B6A
:104F10009601281B390B0217130708F498012C1768
:104F20003D0708F4E90120918213B301A20104C0F6
:104F300076956795579547952A95D2F790907C136B
:104F4000942A3092E70E9092090F1092E80E109278
:104F50000A0F029741F49927872D762D652D87E555
:104F600093E10E94F305642D87E593E10E94F30528
:104F7000AE01B70187E593E10E94C7050E940B02CD
:104F8000811122C084E6882EC5010197F1F7309285
:104F9000E70E9092090F1092E80E10920A0F80917E
:104FA000831390918413029721F490E080E00E9493
:104FB000210690E080E00E9421060E940B028823D7
:104FC000A9F08A948110E0CFDF91CF911F910F91CA
:104FD000FF90EF90DF90CF90BF90AF909F908F9019
:104FE0007F906F905F904F903F9008954C0E5D1EA4
:104FF000611C711CEC0EFD1E0C1B1D0B76CF80E09E
:10500000E3CFCF92DF92EF92FF920F931F93CF9354
:10501000DF931F92CDB7DEB749836B017C012FEF81
:10502000C21AD20AE20AF20A00918513109186137D
:1050300020918713309188130C151D052E053F050F
:1050400080F021E030E0AE014F5F5F4F30DF0F9026
:10505000DF91CF911F910F91FF90EF90DF90CF9054
:10506000089589E0F4CF682F70E090E080E04AE096
:105070000C94CC0C4F925F926F927F928F929F9282
:10508000AF92BF92CF92DF92EF92FF92CF93DF93D6
:105090006B017C01D42FAC019B010E94803E8823D0
:1050A00091F088ED92E0DF91CF91FF90EF90DF904B
:1050B000CF90BF90AF909F908F907F906F905F90B8
:1050C0004F900C94BF0C26013701E89477F82FEF2E
:1050D0003FEF4FE75FE7C301B2010E94803E8111BD
:1050E0000DC02FEF3FEF4FE75FE7C301B2010E9412
:1050F000CF3B18161CF48CED92E0D5CF2FEF3FEF8D
:105100004FE75FE4C701B6010E947C3E18161CF40D
:1051100080EE92E0C8CF2FEF3FEF4FE75FECC70183
:10512000B6010E94CF3B87FDF3CF20E030E0A9011C
:10513000C701B6010E94CF3B912C812C87FF0AC08A
:105140006DE283E693E10E9439064C01F7FAF09490
:10515000F7F8F094CD2FA12C60E070E080E09FE3A1
:10516000AD1640F420E030E040E251E40E94E33D1F
:10517000A394F6CFA70196010E947F3D2B013C012D
:105180000E94503E5B016C014AE00E94CC0C7C0105
:10519000E80CF91CDD23A9F1C601B5010E94D33B3F
:1051A0009B01AC01C301B2010E947E3D4B015C0139
:1051B0006EE283E693E10E943906E80EF91EC150C3
:1051C00000F120E030E040E251E4C501B4010E946A
:1051D000343C2B013C010E94503E4B01CB010E940C
:1051E0000F0DE80EF91EB40190E080E00E94D33B61
:1051F0009B01AC01C301B2010E947E3D4B015C01E9
:10520000DECFC701DF91CF91FF90EF90DF90CF907D
:10521000BF90AF909F908F907F906F905F904F90D6
:105220000895CF93E7E5F3E11382128288EE93E0CD
:10523000A0E0B0E084839583A683B78386EB92E0F9
:1052400091838083E1EEF4E1C1E0C0831182128298
:1052500013822FE730E035832483C6831782108EB4
:10526000118E128E1092FC151092FD151092FE15E3
:105270001092FF151092001610920116109202164D
:10528000109203161092041610920516109206162C
:1052900010920716109208161092091610920A160C
:1052A00010920B1610920C16C0930D1610920E163B
:1052B00010920F16109210161092111610921216CC
:1052C00010921316109214161092151610921616AC
:1052D00081E090E0909318168093171610921A169A
:1052E0001092191610921B1610921C1610921D1671
:1052F00010921E1610921F1610922016109222164F
:10530000109221161092241610922316109226162F
:105310001092251610922716109228161092291610
:1053200010922A1610922B1610922C1610922D16EF
:1053300010922E1610922F161092301610923116CF
:1053400010923216EFE8F3E1C083118212821382C9
:1053500035832483C6831782108E118E128E10928D
:10536000AA141092AB141092AC141092AD141092B7
:10537000AE141092AF141092B0141092B114109297
:10538000B2141092B3141092B4141092B514109277
:10539000B6141092B7141092B8141092B914109257
:1053A000BA14C093BB141092BC141092BD14109286
:1053B000BE141092BF141092C0141092C114109217
:1053C000C2141092C3141092C4149093C614809304
:1053D000C5141092C8141092C7141092C9141092D8
:1053E000CA141092CB141092CC141092CD141092B7
:1053F000CE141092D0141092CF141092D214109296
:10540000D1141092D4141092D3141092D514109277
:10541000D6141092D7141092D8141092D914109256
:10542000DA141092DB141092DC141092DD14109236
:10543000DE141092DF141092E01489E893E197D8FB
:10544000ECE7F3E180E290E092838183C38395836C
:10545000848380E5808380E090E1A0E0B0E08187F4
:105460009287A387B48782E090E0908787838CE05F
:105470008683E3E6F3E11382128288EC92E0918363
:105480008083108A8FEF87871686118A87E2838749
:10549000148615861286118684E0828B82E0838BC7
:1054A000C48B80E1858B80E2868B80E4878B80E8EB
:1054B000808F50E040E063E0CF01CF910C9425064F
:1054C000CF93DF93CDB7DEB763970FB6F894DEBF07
:1054D0000FBECDBF789484B5826084BD84B58160F1
:1054E00084BD85B5826085BD85B5816085BD8091AF
:1054F0006E00816080936E00109281008091810027
:10550000826080938100809181008160809381001E
:10551000809180008160809380008091B1008460E0
:105520008093B1008091B00081608093B000809141
:1055300091008260809391008091910081608093BE
:105540009100809190008160809390008091A100F3
:1055500082608093A1008091A10081608093A1006E
:105560008091A00081608093A000809121018260E1
:10557000809321018091210181608093210180919C
:10558000200181608093200180917A008460809363
:105590007A0080917A00826080937A0080917A000C
:1055A000816080937A0080917A00806880937A008D
:1055B0001092C10061E083E20E94970361E084E2FF
:1055C0000E94970361E085E20E94970360E086E312
:1055D0000E94970360E087E30E94970360E088E3FE
:1055E0000E94970361E08DE00E94970361E08DE0E7
:1055F0000E94DB0283E20E94B80A84E20E94B80A99
:1056000085E20E94B80A61E086E10E94970361E0AA
:1056100087E10E94970361E088E10E94970361E0BF
:1056200089E10E94970361E08AE10E94970361E0AB
:105630008BE10E94970361E08CE10E94970361E097
:105640008DE10E9497030E944910F8941092131361
:105650001092121310921113109210131092EE0B5D
:105660001092ED0B1092F00B1092EF0B78941092B9
:10567000C50083E08093C4008091C1008869809355
:10568000C1008091C20086608093C2008091EC0BC3
:10569000803908F4C3C080E00E94D3038FE790E014
:1056A0000E94480B81E0809346020E94090A0E94F2
:1056B0002F0983E00E94E004BC01990F880B990B2D
:1056C000611571058105910511F00E949C3B81E2F5
:1056D000F0E0E0E080935700E491E093F30BE2E028
:1056E000F0E080935700E491E093F40BE4E0F0E005
:1056F0008093570084918093F50BF8948091101358
:105700009091111390931313809312137894F8943B
:105710008091EF0B9091F00B9093EE0B8093ED0B3B
:1057200078940E94DF0AF8948091F20B8093F10B39
:1057300078940E94CF0860ED77E080E090E00E94CE
:1057400028058091990E882339F08091980E813038
:1057500009F466C00E94430881E58093E41481EB5C
:105760000E94CC0D84E690E090931A16809319164F
:1057700022E030E030931816209317169093C81447
:105780008093C71481E090E09093C6148093C51471
:1057900001E010E027E73EE041E060E080E00E94A9
:1057A000150D0E94EE0F0E946A0E88E19FE00FB671
:1057B000F894A895809360000FBE90936000A89520
:1057C0000E94610B892B69F083E20E94B80A0E9453
:1057D000990B99278D33910531F1CE9711F40C94E3
:1057E000F4358091E114882311F40C94943880915D
:1057F0004A1381110C94403790912413891710F0AB
:105800000C94A536282F30E0F901EC5EFC4E908117
:1058100027513B4ED9019C938F5FEECF81E03CCF67
:105820000E94890899CFCDB6DEB6DF86CE860E946B
:1058300058056B017C01912C0E94610B029708F5C1
:10584000992089F001E010E027E432E046E06FE0C3
:1058500080E00E94150DCE84DF840FB6F894DEBE82
:105860000FBECDBEBECF0E9458056C197D098E09B2
:105870009F0999249394693C710581059105E0F68F
:10588000DACF9110DFCF0E94990B8A870E94990B83
:105890008C87DA84D98A188A28883988282A61016D
:1058A00022E0C21AD1083BEFC31633E0D30630F032
:1058B00001E010E027E432E041E0C9CF0E94580542
:1058C0002B013C0181010F5F1F4F0E94610B80176C
:1058D000910788F49110B6CF0E9458056419750994
:1058E0008609970999249394653671058105910578
:1058F00060F7912CEACF9110A5CF0E94990B5C0123
:105900000E94990B8C01682E4DB75EB74C195D094A
:105910000FB6F8945EBF0FBE4DBF8DB79EB7019610
:105920007C01C114D10471F04C010E94990BD40187
:105930008D934D01CD018E199F098C159D05A8F3FE
:10594000992493940E94990B7A84BC857B0E7A0CDF
:10595000700E992051F0F7019F012E193F092C1567
:105960003D0518F49191790EF7CF871531F001E0DC
:1059700010E027E432E045E06ACFC501F4E09595F8
:105980008795FA95E1F78370EA2DEF70823009F47C
:10599000BEC7833011F40C94ED35813009F44DC647
:1059A000F0E08827E952F34D8F4F0C94843EE72CAA
:1059B000E92C082D0B2D102F1733173317331733FE
:1059C00017331733173317331733582F11330E94F8
:1059D000E10F11270115110569F001301105A1F042
:1059E00001E010E027E432E043E06FE080E00E9455
:1059F000150D02C00E94B60FEE84FF840FB6F89416
:105A0000FEBE0FBEEDBEEDCE0E94B60F0E94EE0FA1
:105A10000E946A0EF1CF11270330110509F494C1D9
:105A200008F50130110509F4BFC002301105C1F6B7
:105A3000992009F4BFC0B2E0CB16D10408F4BAC073
:105A4000F7018081882309F440C1813009F455C1F0
:105A500001E010E027E432E044E06FE080E00E94E3
:105A6000150D3AC10430110509F476C10530110550
:105A700009F0B6CF992009F49DC0B6E0CB16D10449
:105A800008F498C0F7018081813009F4BDC11092FB
:105A9000990ED70111968C9111978093970E1296BB
:105AA0008C9112978093960E13968C9113978093F6
:105AB0007F0E14968C9114978093980E15968C9166
:105AC000159780934D026A9A72984C9168E170E044
:105AD00080E090E096DA4091970E69E170E080E016
