:1000000042C100000C9417160C94EC150C94C11509
:100010000C9496150C946B150C9440150C941515B6
:100020000C94EA1461C100005FC100005DC10000D2
:100030005BC1000059C1000057C1000055C100005C
:1000400053C1000051C100004FC100004DC100006C
:100050004BC1000049C1000047C100000C949A192F
:1000600043C100000C9477100C943C103DC100007B
:100070003BC1000039C1000037C1000035C100009C
:1000800033C1000031C100002FC100002DC10000AC
:100090000C94F10F0C94C10F27C100000C94421670
:1000A00023C1000021C100001FC100001DC10000CC
:1000B0001BC1000019C1000017C1000015C10000DC
:1000C00013C1000011C100000FC100000C94760F95
:1000D0000C94470F09C100000C94FC0E0C94CD0E3B
:1000E00003C100009C02D701A402A6027103E60727
:1000F000E607E607E607E607E607E607E607E60798
:10010000A6032C05A618A91898189C18A018E01882
:10011000AD18B118B718BB18BF18C518C918CD1835
:10012000E018D318D718DB182D2D2D2D2D2D2D2DA2
:100130002D2D2D2D2D2D2D2D2D2D2D2D00205343ED
:10014000414E4E45522056312E3430203230313817
:100150002000202043485259534C455220434344E9
:100160002F5343492020002D2D2D2D2D2D2D2D2DAC
:100170002D2D2D2D2D2D2D2D2D2D2D00000021006F
:10018000240027002A002D00300033000101000068
:10019000040107010A0100002200250028002B00AD
:1001A0002E003100340002010000050108010B019E
:1001B00005050505070508080808020202020A0AE3
:1001C0000808040404040101010101010101030301
:1001D000030303030303040707070C0C0C0C0C0CAC
:1001E0000C0C0202020206060606060606060B0BA9
:1001F0000B0B0B0B0B0B01021020200808102040EA
:1002000010204080020102010804020101020408DA
:100210001020408080402010080402018004020168
:1002200080402010080402010804020101020408B1
:1002300010204080010204081020408000000A0BBA
:1002400002090C0D0E080703040100000000000065
:10025000000000000000000000000000000000009E
:10026000000000000000000012111000000000005B
:10027000000000000000000000000000000000007E
:1002800000009728242811241FBECFEFD1E2DEBF43
:10029000CDBF00E00CBF12E0A0E0B2E0E2E2FEE57C
:1002A00000E00BBF02C007900D92A63FB107D9F73F
:1002B00026E1A6EFB2E001C01D92AE3FB207E1F722
:1002C00011E0C2E4D1E000E006C021970109802FCF
:1002D000FE010E94E52DC134D10780E00807A9F78F
:1002E0000E94721A0C94002F8BCE2F923F924F9245
:1002F0005F926F927F928F929F92AF92BF92CF92B6
:10030000DF92EF92FF920F931F93CF93DF93CDB7BE
:10031000DEB72C970FB6F894DEBF0FBECDBF2DB75A
:100320003EB73C872B8783E20E94CB0B0E94A60E30
:1003300099278D33910541F0CE9709F0D9C6CE01AA
:1003400001960E94B31061C02DB63EB60E948E1970
:100350002B013C01F12C0E947A0E029748F4FF20F9
:1003600009F458C001E010E026E532E046E01AC08A
:10037000F110F8CF0E94A60E89870E94A60E8A87E8
:10038000B984A12CA82A650132E0C31AD1088BEFE9
:10039000C81683E0D80608F44EC001E010E026E558
:1003A00032E041E06FE080E00E94121106C01127A8
:1003B0000115110509F0C1C0C1D60FB6F8943EBEB3
:1003C0000FBE2DBE95C60E94A60E8A3009F404C643
:1003D0008D3009F401C68F8318860D811E810F5F51
:1003E0001F4FB801CE0101960E94C314882369F003
:1003F00029813A818D819E81BE01695F7F4F820F85
:10040000931F0E94EA2E1E830D830E947A0E892B71
:10041000E1F3D9CF0E948E19DC01CB018419950933
:10042000A609B709FF24F394893C9105A105B105FC
:1004300008F091CF8FCF0E948E192B013C018501CE
:100440000F5F1F4F0E947A0E8017910798F4F110EA
:1004500089CF0E948E19DC01CB0184199509A60968
:10046000B709FF24F39485369105A105B10550F72E
:10047000F12CE8CFF11076CF0E94A60E3C010E942D
:10048000A60E8C01260191E0491A5108ADB7BEB7FE
:10049000AC19BD090FB6F894BEBF0FBEADBFEDB726
:1004A000FEB731967F01C114D10479F04F010E944B
:1004B000A60ED4018D934D01CD018E199F098C1587
:1004C0009D05A8F39924939401C0912C0E94A60E37
:1004D0009985BA859B0F960D900F992051F0F701E1
:1004E0009F012E193F092C153D0518F42191920FFB
:1004F000F7CF891731F001E010E026E532E045E062
:1005000051CF862D8F70F301FF2774E0F595E795A5
:100510007A95E1F7E370E23009F43EC3E33009F481
:1005200040C4E13009F49EC290E0FC018827EE58F7
:10053000FF4F8F4F0C94E52D2BD60130110509F09C
:100540003FC5FCD50E94750B01D737CF112703306B
:10055000110509F463C038F40130110569F0023067
:100560001105C9F12DC50430110509F45FC005302E
:10057000110509F4B3C024C5992021F0E4E0CE169A
:10058000D10430F401E010E026E532E044E00ACF87
:10059000D7018D919C91982789279827009719F466
:1005A00010925B0207C090935A028093590281E037
:1005B00080935B02F701828193819827892798278E
:1005C000009721F0909358028093570204E010E0C6
:1005D000970141E081C09920A9F2D7018C9188232D
:1005E00031F0813079F680936F15E0D512C010920A
:1005F0006F15109280001092810010928500109269
:10060000840010928900109288000E94410E0E947E
:100610003A0E01E010E0970142E05EC0992009F433
:10062000B1CFF70180810E94EE0CC7CE992009F46A
:10063000A9CFF5E0CF16D10408F4A4CFD7018C914F
:100640008230E1F0833069F1813009F041C01196C8
:100650008D919C91129798278927982790939316AC
:100660008093921613968D919C91149798278927C1
:10067000982790939116809390162AC0F701818154
:10068000928198278927982790935615809355151E
:100690008381948198278927982790935415809374
:1006A0005315D70111968D919C9112979827892700
:1006B0009827909319148093181413968D919C91F8
:1006C00014979827892798279093171480931614C6
:1006D00005E010E0970144E063E065CE9110BCC1F5
:1006E00051CF11270230110571F030F4013011059E
:1006F00009F066C4FAD761CE0330110561F0043009
:10070000110581F05DC40E94091104E010E024EBA2
:100710003EE042E019C062D502E010E02FE636E08C
:1007200043E012C080910B03882329F19091F802D5
:100730008091F70221E029839A838B8303E010E004
:100740009E012F5F3F4F44E065E02DCE1127023020
:10075000110509F477C0A8F003301105B1F4992010
:1007600009F410CFF3E0CF16D10408F40BCF809139
:100770000B0381118AC001E010E026E532E04BEF67
:1007800011CE0130110531F01BC40430110509F4FC
:10079000CAC016C4992009F4F5CEB5E0CB16D10431
:1007A00008F4F0CEF7018081882319F0813081F0C0
:1007B000E9CE1092991610929D1610929C161092E6
:1007C0009F1610929E1610929B1610929A1634C085
:1007D00080939916C180D280DC24CD24DC24D09271
:1007E0009D16C0929C168380948098248924982416
:1007F00090929F1680929E16A12CB12CE12CF12C88
:10080000C814D904EA04FB049CF48C189D08AE08B3
:10081000BF0839F00E94202BA50194010E948F2C63
:1008200003C060E070E0CB01C60ED71EE81EF91EC3
:10083000D0929B16C0929A1601E010E021E736E0B4
:1008400041E06FC0992009F49DCEB2E0CB16D104EF
:1008500008F498CE80910B03882309F48CCFF7011C
:10086000008111816081718176276727762780E07A
:1008700090E00E94071309831A838B8303E010E042
:100880009E012F5F3F4F42E04CC0D701CD90DC90DE
:100890001197DC24CD24DC24AC901196BC901197E8
:1008A00012964C916A9A7298E12CF12CC701B6010C
:1008B0000E94F428882351F001E010E026E532E0A0
:1008C0004DEF6FE080E00E9412111DC0412C512CB1
:1008D000320110E0C301B2010E940713180FBFEFED
:1008E0004B1A5B0A6B0A7B0AEFEF4E165104610448
:1008F000710481F7412F6FEF70E080E090E00E947B
:10090000F4288111D9CF729AC701B6010E9407134A
:10091000A982BA828B8303E010E09E012F5F3F4FD4
:1009200043E06EE040CD992009F42CCEF2E0CF16E2
:10093000D10408F427CED7018C918230B9F18330ED
:1009400009F45FC0813009F01DCE11968C91823080
:10095000B9F050F4813009F015CE8FEF93E00E948A
:10096000600E8FEF93E012C08330C9F0843009F03D
:1009700009CE87E090E00E94600E87E090E006C01C
:100980008FE790E00E94600E8FE790E090937215E1
:10099000809371150E94410E0E943A0E5DC08FE057
:1009A00090E00E94600E8FE090E0F0CFF70181812F
:1009B0008230A9F048F4813009F0E4CD8FEF93E064
:1009C000F3D78FEF93E016C0833079F0843009F0CD
:1009D000D9CD87E090E0E8D787E090E00BC08FE7C3
:1009E00090E0E2D78FE790E005C08FE090E0DCD7A1
:1009F0008FE090E090933514809334146ED766D7CF
:100A00002BC0D70111968C918230A9F048F4813027
:100A100009F0B8CD8FEF93E03FD78FEF93E016C08A
:100A2000833079F0843009F0ADCD87E090E034D7A1
:100A300087E090E00BC08FE790E02ED78FE790E043
:100A400005C08FE090E028D78FE090E09093F812F7
:100A50008093F712D8D6D0D601E010E021E736E037
:100A600040E0A0CC863009F0B1C211270230110558
:100A700009F10330110509F44CC00130110509F0EA
:100A80009FC21092771610928116109282161092C1
:100A90008316E09384161092851610928616109293
:100AA0008716109294161092951610929616109220
:100AB00097169FC1992009F465CDB1E2CB16D104F8
:100AC00008F060CD20E0822F90E08C159D0550F459
:100AD000FC01E159FA4ED701A80FB91F8C9180870C
:100AE0002F5FF1CFC0927716EFE6F5E180E09F012E
:100AF0002F5635412415350520F49085890F319600
:100B0000F6CFF201E159FA4E808781E080937C169E
:100B100054CCE5E0AE1AB108FEE1AF16B10408F01E
:100B200031CDD7018C91882321F0813009F445CC57
:100B300029CD22E0822F90E08C159D0550F4FC0118
:100B4000E159FA4ED701A80FB91F8C9186832F5F08
:100B5000F1CFF7018181809387168093771690E01B
:100B60000197EFE6F5E120E0AF014F5655414817F8
:100B7000590720F43085230F3196F6CFFC01E15957
:100B8000FA4E208781E0809381168093821610921E
:100B90008316109284160BC2863009F017C21127F3
:100BA0000230110509F103301105C1F101301105C1
:100BB00009F006C210924415109245151092461580
:100BC00081E08093471510924815109249151092B4
:100BD0004A151092571510925815109259151092E7
:100BE0005A1510923A1505C1992009F4CBCCF1E0C1
:100BF000CF16DF0608F0C6CCAAE3B4E1F701CF01B7
:100C00008E199F098C159D0518F481918D93F7CF4E
:100C1000C0923A1581E080933F15CFCBC50105976F
:100C20008E3F910508F0AECCD7019C91992319F025
:100C30009130F1F0A7CCF7013296AAE3B4E1CF01ED
:100C40008E199F098C159D0518F481918D93F7CF0E
:100C5000F701818180934A1580933A1581E0809352
:100C6000441580934515109246151092471597C06C
:100C7000F6E0AF1AB10827E0A216B10408F082CC62
:100C8000D70111968C91119780934A1510923A15BD
:100C900090934415909345159093461510924715DF
:100CA000843009F512966D917D918D919C911597E7
:100CB0000E94ED2D60934B1570934C1580934D154C
:100CC00090934E1516966D917D918D919C911997EB
:100CD0000E94ED2D60934F15709350158093511520
:100CE000909352155CC0833011F5F7012281838106
:100CF00090E0A0E0B0E0BA2FA92F982F8827A22B70
:100D00002481822B80934B1590934C15A0934D1505
:100D1000B0934E152581868190E0A0E0B0E0BA2F17
:100D2000A92F982F8827A22B2781822B30C08230B1
:100D3000C9F4D70112968D919C9113979827892712
:100D40009827A0E0B0E080934B1590934C15A093AA
:100D50004D15B0934E15F701848195819827892709
:100D6000982713C08130D9F4D70112968C9190E066
:100D7000A0E0B0E080934B1590934C15A0934D15D7
:100D8000B0934E15F701838190E0A0E0B0E080932E
:100D90004F1590935015A0935115B093521582E0C2
:100DA00006C1863009F012C111270230110549F140
:100DB0000330110509F43FC00130110509F000C1ED
:100DC00010920714109208141092091481E0809375
:100DD0000A1410920B1410920C1410920D1410920D
:100DE0001A1410921B1410921C1410921D141092BD
:100DF000FD13E093F30601E010E023EF36E041E05D
:100E0000DDC0992009F4BECBF1E0CF16DF0608F073
:100E1000B9CBADEFB2E1F701CF018E199F098C1567
:100E20009D0518F481918D93F7CFC092FD1381E059
:100E300080930214C2CA25E0A21AB1083EEFA3169D
:100E4000B10408F09FCBD7019C91992319F0913000
:100E5000F1F098CBF7013296ADEFB2E1CF018E19E8
:100E60009F098C159D0518F481918D93F7CFF7019B
:100E7000818180930D148093FD1381E0809307148A
:100E8000809308141092091410920A148FC0D7018D
:100E900011968C91119780930D141092FD139093DD
:100EA0000714909308149093091410920A14843034
:100EB00009F512966D917D918D919C9115970E94E7
:100EC000ED2D60930E1470930F1480931014909373
:100ED000111416966D917D918D919C9119970E9498
:100EE000ED2D609312147093131480931414909347
:100EF00015145CC0833011F5F7012281838190E0E5
:100F0000A0E0B0E0BA2FA92F982F8827A22B248128
:100F1000822B80930E1490930F14A0931014B0930F
:100F200011142581868190E0A0E0B0E0BA2FA92FAE
:100F3000982F8827A22B2781822B30C08230C9F4BA
:100F4000D70112968D919C911397982789279827FE
:100F5000A0E0B0E080930E1490930F14A0931014AF
:100F6000B0931114F70184819581982789279827D8
:100F700013C08130D9F4D70112968C9190E0A0E093
:100F8000B0E080930E1490930F14A0931014B093BC
:100F90001114F701838190E0A0E0B0E08093121477
:100FA00090931314A0931414B093151483E08093BA
:100FB000F30601E010E023EF36E043E066E0F3C91A
:100FC00001E010E026E532E043E0ECC901E010E08A
:100FD00026E532E042E0E6C90E94DB100A9709F4F8
:100FE00085C00E94DB100D9709F480C00D811E8121
:100FF0000038110590F40115110519F410927306CB
:101000000FC069817A81A80183E796E00E94F12EE2
:10101000F801ED58F94F108203C081E08093720609
:101020008091720681114AC067ED72E083E796E015
:101030000E94742B0FE614E02FE6E22E26E0F22E3B
:101040000097E9F0E016F106D1F0FC0101900020D4
:10105000E9F73197E81BF90BE034F10568F4BC01BE
:10106000C8010E94EA2E67ED72E080E090E00E94E5
:10107000742B005C1F4FE4CF81E0809372069FE6E3
:10108000E92E92E0F92E00E010E0D7016D917D91FC
:101090007D018FE694E00E94E12E892B51F4000F30
:1010A000111FF801E959FD4F0190F081E02D1995CC
:1010B00005C00F5F1F4F0430110539F780E8E3E7E3
:1010C000F6E0DF011D928A95E9F780E092E0EFE615
:1010D000F4E0DF019C011D9221503040E1F71092B5
:1010E000720689819A810E944F2A02C02FD67ECF34
:1010F0008B859C850FB6F8949EBF0FBE8DBF2C9636
:101100000FB6F894DEBF0FBECDBFDF91CF911F9118
:101110000F91FF90EF90DF90CF90BF90AF909F9096
:101120008F907F906F905F904F903F902F90089599
:10113000EFE6F5E181E08583148208950F931F9314
:10114000CF93DF93CDB7DEB765970FB6F894DEBFC8
:101150000FBECDBF85E1E7E7F2E0DE011196019019
:101160000D928A95E1F705E110E09E012F5F3F4F58
:1011700040E061E080E00E94121165960FB6F8949D
:10118000DEBF0FBECDBFDF91CF911F910F910895AC
:1011900001E010E021E736E040E060E080E00E94FE
:1011A000121160E085E20E947718FFCFA0E8B0E05E
:1011B0001C92E1E8F0E01082109285001092840009
:1011C000259A8C9180648C9387E090E090938900BD
:1011D0008093880080818960808308954F925F9218
:1011E0006F927F928F929F92AF92BF92CF92DF9237
:1011F000EF92FF920F931F93CF93DF931092FB0D0B
:101200001092FC0D1092FD0D1092FE0DC8EED3E071
:1012100086E30E943119092E000CAA0BBB0B4091EA
:10122000FB0D5091FC0D6091FD0D7091FE0D8C0138
:101230009D01040F151F261F371FC901B801009318
:10124000FB0D1093FC0D2093FD0D3093FE0D2197A7
:10125000F9F628EE33E040E050E00E94BB2C490153
:101260005A012093FB0D3093FC0D4093FD0D5093DC
:10127000FE0D609110027091110280E090E00E94DA
:101280009E2B6B017C01609114027091150280E02D
:1012900090E00E949E2B20E030E048EC52E40E9457
:1012A000512D2B013C01C501B4010E949E2B9B01D5
:1012B000AC01C301B2010E94DB2B20E030EC4FE710
:1012C00054E40E94512D4B015C0160911202709117
:1012D000130280E090E00E949E2BA70196010E94DD
:1012E000ED2C9B01AC01C501B4010E94DB2BA701D1
:1012F00096010E94512D20E030E048EC52E40E941B
:10130000DB2B0E94B92D683512E0710738F410927A
:101310006F06109270061092FF0D07C070936F0653
:101320006093700681E08093FF0DDF91CF911F9154
:101330000F91FF90EF90DF90CF90BF90AF909F9074
:101340008F907F906F905F904F9008950F931F93B1
:10135000CF93DF931F921F92CDB7DEB7809110031A
:101360008093000E809111038093010E80911203EF
:101370008093020E809109038093030E80910A03EB
:101380008093040E809101038093050E80910203E7
:101390008093060E809103038093070E80910403CF
:1013A0008093080E809105038093090E80910603B7
:1013B00080930A0E8091070380930B0E809108039F
:1013C00080930C0E8091F90280930D0E8091FA02A9
:1013D00080930E0E8091FB0280930F0E8091FC0291
:1013E0008093100E8091FD028093110E8091FE0279
:1013F0008093120E8091FF028093130E8091000360
:101400008093140E1092150E1092160E1092170E55
:101410001092180E8EE58093190E8EE480931A0EAA
:1014200087EA80931B0E81EB80931C0E80910B0347
:10143000882321F081E080931D0E02C010921D0EC2
:101440008091F80280931E0E8091F70280931F0E08
:10145000E0D68091B40E8093200E8091B50E8093DB
:10146000210E8091B60E8093220E8091B70E80934C
:10147000230E2091FA163091FB16CE01019621150C
:10148000310519F48E5F964102C0821B930B9A833B
:10149000898389819A819093240E8093250E9EDE04
:1014A0008091FF0D882321F081E08093260E02C0F9
:1014B0001092260E80916F068093270E8091700601
:1014C0008093280E80916F15882321F081E080930E
:1014D000290E02C01092290E8091A4169091A51693
:1014E000A091A616B091A716B0932A0E8091A416CB
:1014F0009091A516A091A616B091A716A0932B0EB9
:101500008091A4169091A516A091A616B091A71649
:1015100090932C0E8091A4169091A516A091A616DA
:10152000B091A71680932D0E8091A8169091A916C0
:10153000A091AA16B091AB16B0932E0E8091A8166A
:101540009091A916A091AA16B091AB16A0932F0E58
:101550008091A8169091A916A091AA16B091AB16E9
:101560009093300E8091A8169091A916A091AA167A
:10157000B091AB168093310E80913314982F907FE9
:101580008091F6128F70892B8093320E80916715AF
:1015900090916815A0916915B0916A15B093330EBA
:1015A0008091671590916815A0916915B0916A15A1
:1015B000A093340E8091671590916815A0916915DC
:1015C000B0916A159093350E8091671590916815CA
:1015D000A0916915B0916A158093360E80916B15B4
:1015E00090916C15A0916D15B0916E15B093370E5A
:1015F00080916B1590916C15A0916D15B0916E1541
:10160000A093380E80916B1590916C15A0916D157B
:10161000B0916E159093390E80916B1590916C1569
:10162000A0916D15B0916E1580933A0E80912A1499
:1016300090912B14A0912C14B0912D14B0933B0ECB
:1016400080912A1490912B14A0912C14B0912D14F8
:10165000A0933C0E80912A1490912B14A0912C14ED
:10166000B0912D1490933D0E80912A1490912B14DB
:10167000A0912C14B0912D1480933E0E80912E14C5
:1016800090912F14A0913014B0913114B0933F0E6B
:1016900080912E1490912F14A0913014B091311498
:1016A000A093400E80912E1490912F14A09130148D
:1016B000B09131149093410E80912E1490912F147B
:1016C000A0913014B09131148093420E03E410E0E5
:1016D00020E03EE040E062E080E0A4D50F900F9073
:1016E000DF91CF911F910F9108950F931F93CF9387
:1016F000DF93CDB7DEB76A970FB6F894DEBF0FBEA3
:10170000CDBFE9E0F3E08081898381818A83E1E0D4
:10171000F3E080818B8381818C8382818D838381BF
:101720008E8384818F83858188878681898787815D
:101730008A87E9EFF2E080818B8781818C878281C3
:101740008D8783818E8784818F878581888B868131
:10175000898B87818A8B1B8A1C8A1D8A1E8A8EE54B
:101760008F8B8EE4888F87EA898F81EB8A8F0AE1DD
:1017700010E09E012F5F3F4F41E065E080E052D5D1
:101780006A960FB6F894DEBF0FBECDBFDF91CF9142
:101790001F910F910895CF93C82F60E00E94771892
:1017A000C43279F0C532C1F0C33201F50E948E19FE
:1017B000609363047093640480936504909366045B
:1017C00015C00E948E1960935F047093600480932B
:1017D0006104909362040AC00E948E1960935B04B6
:1017E00070935C0480935D0490935E04CF910895A0
:1017F00084E2D1DF02C50895F8948091FA0D8093B8
:10180000F90D78940895F8948091590480935A04BE
:1018100078940895F89480915A049091590478949A
:10182000891B08952091F90D30E02F5F3F4FA901EA
:101830005527F8946091FA0D789470E04617570791
:10184000C1F3FA01E750F34F80832093F90D8091A3
:1018500031018062809331010895F89490915A0487
:1018600080915904981304C0789480E092E0089520
:1018700078948091590490E00196FC01FF278093B1
:101880005904E75AFC4F20818091580390E0982F2B
:101890008827820F911D0895F89410925A0410928F
:1018A00059041092F90D1092FA0D78949F7090934C
:1018B000350180933401E1E3F1E080818869808320
:1018C000E2E3F1E08081866080830895F89480915E
:1018D000F80C8093F70C78940895F8948091F60CA6
:1018E0008093F50C78940895F8948091F50C90917C
:1018F000F60C7894891B08952091F70C30E02F5F47
:101900003F4FA9015527F8946091F80C789470E046
:1019100046175707C1F3FA01EB50F44F8083209329
:10192000F70C8091D10080628093D1000895F894E3
:101930003091F50C2091F60C321304C0789480E0BD
:1019400092E008957894E091F60CF0E03196E80F7B
:10195000F91FFF27EB50F54F20818091F40A90E0AA
:10196000982F8827820F911D0895F8949091F50C77
:101970008091F60C981304C0789480E092E008956A
:1019800078948091F60C90E00196FC01FF278093FB
:10199000F60CEB50F54F20818091F40A90E0982FDF
:1019A0008827820F911D0895F8941092F50C1092DB
:1019B000F60C1092F70C1092F80C78949F7090939C
:1019C000D5008093D400E1EDF0E0808188698083C8
:1019D000E2EDF0E080818660808308950F931F938D
:1019E000CF93DF931F92CDB7DEB7182F87FF94C038
:1019F00080913314982F9F7716FF79C0892F8064C8
:101A00008093331460E015FF1EC086E10E947718B2
:101A100060E087E10E94771860E088E10E94771813
:101A200060E089E10E94771861E08AE10E947718FE
:101A300061E08BE10E94771881E0809332148091FD
:101A4000331480622BC08AE10E94771860E08BE13A
:101A50000E94771860E08CE10E94771860E08DE1C9
:101A60000E94771860E088E10E94771860E089E1C1
:101A70000E94771861E086E10E94771861E087E1B3
:101A80000E94771881E0809332141092F5128091B1
:101A9000331482FD02C08F7D01C08B7D809333148F
:101AA000809134149091351414FF10C08F37910534
:101AB00099F58FE090E078DF8FE090E09093351417
:101AC000809334148091331480610EC00F9721F5F8
:101AD0008FE790E069DF8FE790E090933514809373
:101AE0003414809133148F7E8093331415C08F7318
:101AF000809333141092321460E086E10E947718CC
:101B000060E087E10E94771860E08AE10E94771820
:101B100060E08BE10E94771813FF94C08091F61269
:101B2000982F977F12FF79C0892F84608093F612D7
:101B300060E011FF1EC086E10E94771860E087E137
:101B40000E94771860E088E10E94771860E089E1E0
:101B50000E94771861E08CE10E94771861E08DE1C6
:101B60000E94771881E08093F5128091F6128260CE
:101B70002BC08AE10E94771860E08BE10E94771801
:101B800060E08CE10E94771860E08DE10E94771898
:101B900060E086E10E94771860E087E10E94771894
:101BA00061E088E10E94771861E089E10E9477187E
:101BB00081E08093F512109232148091F61286FD26
:101BC00002C08D7F01C08D7B8093F6128091F71249
:101BD0009091F81210FF10C08F37910599F58FE0A2
:101BE00090E05ADE8FE090E09093F8128093F71225
:101BF0008091F61281600EC00F9721F58FE790E07B
:101C00004BDE8FE790E09093F8128093F71280916B
:101C1000F6128E7F8093F61215C0837F8093F612A2
:101C20001092F51260E088E10E94771860E089E187
:101C30000E94771860E08CE10E94771860E08DE1E7
:101C40000E94771880913314982F907F8091F6121C
:101C50008F70892B898301E010E09E012F5F3F4F39
:101C600043E063E080E0DED20F90DF91CF911F91DF
:101C70000F910895F89480913303809334037894FE
:101C80000895F894809156038093570378940895AB
:101C9000F89480915703909156037894891B8F7123
:101CA0000895CF93DF93CFE6D5E181E08C831D8249
:101CB000EFDF8E838F818F5F8F83DF91CF910895C8
:101CC000F894109257031092560310923403109216
:101CD000330378949F709093CD008093CC00E9EC0F
:101CE000F0E0808188698083EAECF0E080818660A2
:101CF00080830895F8948091BB129091BC1220913A
:101D0000B9123091BA127894821B930B9370089594
:101D100020910C0330910D032F5F3F4F3370F894E7
:101D200040910E0350910F03789424173507B9F3AF
:101D3000F901EC50F94F808330930D0320930C038D
:101D40008091C10080628093C1000895F894209131
:101D5000BB123091BC128091B9129091BA1228171F
:101D6000390721F4789480E092E008957894809186
:101D7000B9129091BA12019693709093BA1280930F
:101D8000B912FC01E754F14F20818091B80E90E028
:101D9000982F8827820F911D08951F920F920FB6DA
:101DA0000F9211240BB60F928F939F93EF93FF9393
:101DB0009091F90D8091FA0D981771F08091FA0DBC
:101DC00090E00196FC01FF278093FA0DE750F34F56
:101DD00080818093360105C0809131018F7D809391
:101DE0003101FF91EF919F918F910F900BBE0F905A
:101DF0000FBE0F901F9018951F920F920FB60F9263
:101E000011240BB60F922F933F934F935F936F93D1
:101E10007F938F939F93AF93BF93EF93FF93209103
:101E2000300130913601287180915A0490E001967A
:101E3000AC0155276091590470E04617570739F0F7
:101E400080935A04FA01E75AFC4F308301C024E022
:101E5000209358030E948E196093FE137093FF1312
:101E60008093001490930114FF91EF91BF91AF9173
:101E70009F918F917F916F915F914F913F912F91A2
:101E80000F900BBE0F900FBE0F901F9018951F92D2
:101E90000F920FB60F9211240BB60F928F939F9350
:101EA000EF93FF939091F70C8091F80C981771F0D5
:101EB0008091F80C90E00196FC01FF278093F80CCC
:101EC000EB50F44F80818093D60005C08091D10003
:101ED0008F7D8093D100FF91EF919F918F910F9013
:101EE0000BBE0F900FBE0F901F9018951F920F9270
:101EF0000FB60F9211240BB60F922F933F934F936F
:101F00005F936F937F938F939F93AF93BF93EF9361
:101F1000FF932091D0003091D60028718091F50C6C
:101F200090E00196AC0155276091F60C70E04617E1
:101F3000570739F08093F50CFA01EB50F54F3083D9
:101F400001C024E02093F40A0E948E1960933B158F
:101F500070933C1580933D1590933E15FF91EF9142
:101F6000BF91AF919F918F917F916F915F914F91B1
:101F70003F912F910F900BBE0F900FBE0F901F90AF
:101F800018951F920F920FB60F9211240BB60F9255
:101F90008F939F93EF93FF9390913403809133033A
:101FA000981779F08091330390E001968F7199270B
:101FB00080933303FC01ED5EFC4F80818093CE0063
:101FC00005C08091C9008F7D8093C900FF91EF917A
:101FD0009F918F910F900BBE0F900FBE0F901F908F
:101FE00018951F920F920FB60F9211240BB60F92F5
:101FF0002F933F934F935F936F937F938F939F9311
:10200000AF93BF93EF93FF932091C8003091CE0020
:1020100028718091570390E001968F719927409124
:10202000560350E08417950739F080935703FC015D
:10203000EA5CFC4F308301C024E0209335030E940A
:102040008E19609378167093791680937A16909310
:102050007B16FF91EF91BF91AF919F918F917F91EF
:102060006F915F914F913F912F910F900BBE0F9009
:102070000FBE0F901F9018951F920F920FB60F92E0
:1020800011240BB60F922F933F938F939F93EF934F
:10209000FF9320910C0330910D0380910E039091DA
:1020A0000F032817390789F080910E0390910F03D1
:1020B0000196937090930F0380930E03FC01EC50F4
:1020C000F94F80818093C60005C08091C1008F7D4B
:1020D0008093C100FF91EF919F918F913F912F913C
:1020E0000F900BBE0F900FBE0F901F9018951F9270
:1020F0000F920FB60F9211240BB60F922F933F93AE
:102100004F935F938F939F93EF93FF932091C00022
:102110003091C60028718091BB129091BC1201963B
:1021200093704091B9125091BA128417950749F0F3
:102130009093BC128093BB12FC01E754F14F3083A3
:1021400001C024E02093B80EFF91EF919F918F91F1
:102150005F914F913F912F910F900BBE0F900FBE4B
:102160000F901F901895CF93DF93EC01198218827E
:102170001B821A821D821C8260E070E004D42881D8
:10218000398181110FC02115310519F0C9010E9453
:102190004F2A198218821D821C821B821A82DF91AB
:1021A000CF9108951D821C8268ED72E0C901DF9114
:1021B000CF910C94EA2EF8942091BB123091BC126E
:1021C0008091B9129091BA122817390721F47894A6
:1021D00080E092E008957894E091B912F091BA12FB
:1021E0003196F370E754F14F20818091B80E90E062
:1021F000982F8827820F911D0895CF93DF93C3E90D
:10220000D2E08991882311F083DDFBCFDF91CF915C
:1022100008950E948E19E4EBFEE09083818372831F
:1022200063830895AF92BF92CF92DF92EF92FF92B5
:102230000F931F93CF93DF93CDB7DEB727970FB6DA
:10224000F894DEBF0FBECDBF582FCDB6DEB6E091FD
:10225000FA16F091FB16CE010196309721F4FC019D
:10226000EE5FF64104C0DC01AE1BBF0BFD01FA833B
:10227000E983E981FA81D801D896EA17FB07A8F427
:1022800027E0ECE8F2E0DC0101900D922A95E1F7FD
:102290008C017E01B8E0EB0EF11CF80181918F01F9
:1022A00037DDE016F106C9F756C05801F6E0AF0E6B
:1022B000B11C8DB79EB78A199B090FB6F8949EBFC3
:1022C0000FBE8DBFADB7BEB711967D018DE3EDB7E3
:1022D000FEB78183C801029611969C9311978CEFEB
:1022E0008A0D12968C931297F0E45F9F600D112473
:1022F00013966C93139714964C931497011511052C
:1023000051F0F9011596200F311FE217F30719F06C
:1023100081918D93FACF0B5F1F4FF701319680E0CB
:102320009F012E193F092017310718F49191890F49
:10233000F7CFF701E00FF11F808384E22CDA8701E9
:10234000C8018E199F098A159B0528F4D8018D9123
:102350008D01DEDCF5CF0FB6F894DEBE0FBECDBE2C
:102360000FB6F894DEBE0FBECDBE27960FB6F8941A
:10237000DEBF0FBECDBFDF91CF911F910F91FF90B8
:10238000EF90DF90CF90BF90AF9008953091B30E53
:10239000313208F04BC080918F0E8111FCCF9091AB
:1023A000B20E22E020938F0E21E020938E0E2FEFAD
:1023B00020938D0E10928C0E30938B0EE2E9FEE08E
:1023C000ABE6BEE020E0321721F041914D932F5F44
:1023D000FACF10926A0E20916A0E990F922B909369
:1023E0006A0E9091690E913061F41092690E90918D
:1023F0006A0E9093BB009091BC0093FDF8CF95ECD2
:1024000001C095EE9093BC0090918F0E9230E1F355
:1024100090918D0E9F3F79F080918D0E803241F02A
:1024200080918D0E803331F084E005C081E003C0DF
:1024300082E001C083E01092910E1092B30E1092D0
:10244000900E08953F924F925F926F927F928F927B
:102450009F92AF92BF92CF92DF92EF92FF920F9333
:102460001F93CF93DF934B015C016A018901AB019C
:10247000BC01420F531F611D711D8091EB129091A1
:10248000EC12A091ED12B091EE1284179507A607F9
:10249000B70708F4A7C07724739466246A9495EE6E
:1024A000592E25EC422E0115110509F49DC0C0914D
:1024B000E612D091E712CE01019788219921C81B1D
:1024C000D90BC8010132110510F080E290E08C17A1
:1024D0009D0708F4EC01D501C4010090E81204C086
:1024E000B695A795979587950A94D2F7F090E21242
:1024F000F82A7092900EF092B20E1092910E1092F5
:10250000B30E8091E9129091EA12029739F499275B
:102510008B2D7A2D692D8DEB92E17CD1682D8DEB81
:1025200092E178D133DF811160C080918F0E8111EB
:10253000FCCF9C2F70928F0E70928E0E60928D0E3B
:1025400010928C0E8C2F815080938B0E70926A0E9D
:1025500080916A0EFF0CF82AF0926A0E8091690E43
:10256000813069F41092690E80916A0E8093BB00ED
:102570008091BC0083FDF8CF4092BC0002C0509215
:10258000BC0080918F0E8130E1F380918C0E891711
:1025900010F490918C0EABE6BEE0E9E4FEE080E042
:1025A000891721F02D9121938F5FFACF1092480E59
:1025B0008093470E312CE32CF12CEC16FD0648F4E9
:1025C000EC0CFD1C8DEB92E1DDD0F70180833394A0
:1025D000F2CF8C0E9D1EA11CB11CCC0EDD1E0C1B5F
:1025E0001D0B61CF89E001C080E0DF91CF911F9189
:1025F0000F91FF90EF90DF90CF90BF90AF909F90A2
:102600008F907F906F905F904F903F900895CF9301
:10261000DF931F92CDB7DEB721E030E0AE014F5F10
:102620005F4F10DF90E0009719F4898190E003C0BC
:102630009195819591090F90DF91CF910895682F21
:102640008DEB92E1E7C01092480E1092470E109267
:10265000910E1092B30E10928F0E81E080938E0E29
:102660001092690E61E084E142D561E085E13FD5D9
:10267000E9EBF0E080818E7F808380818D7F808395
:1026800088E48093B80085E48093BC0080EB93E1FC
:102690009093460E8093450E81EB93E19093440E08
:1026A0008093430E08950895CF92DF92EF92FF92A8
:1026B0000F931F93CF93DF936C017A018B01C0E0DE
:1026C000D0E0CE15DF0581F0D8016D918D01D601E6
:1026D000ED91FC910190F081E02DC6011995892BB7
:1026E00011F02196EECF7E01C701DF91CF911F91AE
:1026F0000F91FF90EF90DF90CF90089585ED80933C
:10270000BC008091BC0084FDFCCF10928F0E089518
:102710004091CC16262F30E0240F311D2132310597
:10272000DCF420918F0E2430C9F4FC0180E090E0AD
:10273000861758F43091CC162191DC01A455B94E7E
:10274000A30FB11D2C930196F3CF8091CC16680F87
:102750006093CC1680E0089581E0089582E00895AA
:10276000089508950895E091480E8091470EE81766
:1027700030F4F0E0E75BF14F808190E008958FEF57
:102780009FEF08959091480E8091470E981750F44E
:10279000E92FF0E0E75BF14F208130E09F5F9093FD
:1027A000480E02C02FEF3FEFC90108958091470EF8
:1027B00090E02091480E821B91090895CF92DF92FC
:1027C000EF92FF920F931F93CF93DF937C01CB0186
:1027D0008A012091900E222389F0EB016B01C40E37
:1027E000D51ECC15DD0561F06991D701ED91FC9105
:1027F0000190F081E02DC7011995F3CF642F88DF98
:10280000C801DF91CF911F910F91FF90EF90DF9062
:10281000CF900895CF93DF931F92CDB7DEB7698332
:102820002091900E2223D1F02091B30E203240F05F
:1028300021E030E0FC013383228380E090E014C08B
:102840008091910EE82FF0E0EE56F14F9981908340
:102850008F5F8093910E8093B30E04C061E0CE0130
:10286000019656DF81E090E00F90DF91CF910895BF
:1028700021E001C0220F6A95EAF7DC011C962C9337
:102880001C971A965C934E931997ED91FC910484D2
:10289000F585E02D60E01994DC01ED91FC91068452
:1028A000F785E02D41E0199581E090E008950E94C0
:1028B000D42E0F931F93CF93DF93062F0F704230C8
:1028C00019F440E0602F0DC0142FEC0170E084E09B
:1028D000759567958A95E1F7CE01DBD3412F602F7F
:1028E000CE01DF91CF911F910F91D3C3FC0184855D
:1028F0008823A1F0218532852115310519F4611154
:1029000006C007C02130310521F4611102C085875E
:1029100001C015866585CF010E9698C30895FF9274
:102920000F931F93CF93DF93EC01162F042FF22EFA
:102930008B85888B88DE888991E09093900E8093B8
:10294000B20E1092910E1092B30E20DD91E0811123
:1029500090E0998B811104C08DEB92E113DF8E879B
:102960008989882331F01F861C8260E0CE010E9693
:102970006DD32F2D402F612FCE01DF91CF911F916D
:102980000F91FF9027C50F931F93CF93DF93EC0117
:1029900088819981009729F02A813B812617370782
:1029A00088F48B016F5F7F4F0E94F42D009761F0D8
:1029B000998388831B830A832C813D81232B11F407
:1029C000FC01108281E001C080E0DF91CF911F9176
:1029D0000F9108951F920F920FB60F9211240BB60C
:1029E0000F922F933F934F935F936F937F938F93A8
:1029F0009F93AF93BF93EF93FF93E0910E02F091FB
:102A00000F021995FF91EF91BF91AF919F918F9117
:102A10007F916F915F914F913F912F910F900BBEDE
:102A20000F900FBE0F901F9018951F920F920FB628
:102A30000F9211240BB60F922F933F934F935F93F6
:102A40006F937F938F939F93AF93BF93EF93FF9376
:102A5000E0910C02F0910D021995FF91EF91BF9159
:102A6000AF919F918F917F916F915F914F913F9126
:102A70002F910F900BBE0F900FBE0F901F901895C7
:102A80001F920F920FB60F9211240BB60F922F9335
:102A90003F934F935F936F937F938F939F93AF93E6
:102AA000BF93EF93FF93E0910202F0910302199517
:102AB000FF91EF91BF91AF919F918F917F916F9116
:102AC0005F914F913F912F910F900BBE0F900FBED2
:102AD0000F901F9018951F920F920FB60F9211240E
:102AE0000BB60F922F933F934F935F936F937F9308
:102AF0008F939F93AF93BF93EF93FF93E091000267
:102B0000F09101021995FF91EF91BF91AF919F91C3
:102B10008F917F916F915F914F913F912F910F9086
:102B20000BBE0F900FBE0F901F9018951F920F9223
:102B30000FB60F9211240BB60F922F933F934F9322
:102B40005F936F937F938F939F93AF93BF93EF9315
:102B5000FF93E0910A02F0910B021995FF91EF911A
:102B6000BF91AF919F918F917F916F915F914F91A5
:102B70003F912F910F900BBE0F900FBE0F901F90A3
:102B800018951F920F920FB60F9211240BB60F9249
:102B90002F933F934F935F936F937F938F939F9365
:102BA000AF93BF93EF93FF93E0910802F091090276
:102BB0001995FF91EF91BF91AF919F918F917F9167
:102BC0006F915F914F913F912F910F900BBE0F909E
:102BD0000FBE0F901F9018951F920F920FB60F9275
:102BE00011240BB60F922F933F934F935F936F93E4
:102BF0007F938F939F93AF93BF93EF93FF93E09156
:102C00000602F09107021995FF91EF91BF91AF91E4
:102C10009F918F917F916F915F914F913F912F91F4
:102C20000F900BBE0F900FBE0F901F9018951F9224
:102C30000F920FB60F9211240BB60F922F933F9362
:102C40004F935F936F937F938F939F93AF93BF93B4
:102C5000EF93FF93E0910402F09105021995FF9123
:102C6000EF91BF91AF919F918F917F916F915F9104
:102C70004F913F912F910F900BBE0F900FBE0F9071
:102C80001F9018951F920F920FB60F9211240BB63A
:102C90000F922F933F934F935F936F937F938F93F5
:102CA0009F93AF93BF93EF93FF938091B900887F79
:102CB000803609F49CC068F5883209F45BC090F452
:102CC000803109F454C038F4882309F4F6C0883000
:102CD00009F44DC0F5C0883109F44CC0803209F4C4
:102CE0005DC0EEC0803409F468C048F4803309F454
:102CF00055C0883309F0E4C080938D0ED8C080356C
:102D000009F44FC0883509F45DC0883409F0D8C093
:102D1000D6C0883909F4C7C0A8F4883709F467C059
:102D200038F4883609F463C0803709F460C0C8C03D
:102D3000883809F4B8C0803909F45FC0803809F0D8
:102D4000BFC05BC0803B09F486C038F4803A09F408
:102D500066C0883A09F47FC0B3C0803C09F4A7C0BC
:102D6000883C09F4A4C0883B09F48AC0A9C08091BA
:102D70006A0E10C090918C0E80918B0E981770F592
:102D8000E0918C0E81E08E0F80938C0EF0E0E5597F
:102D9000F14F80818093BB0085EC86C080938D0EBF
:102DA0008EC0E0918C0E81E08E0F80938C0E80910E
:102DB000BB00F0E0E559F14F808390918C0E80913B
:102DC0008B0E6EC0E0918C0E81E08E0F80938C0E86
:102DD0008091BB00F0E0E559F14F808380918E0E29
:102DE00081116DC081E08093690E84EA61C083E047
:102DF00080938F0E1092EE16CFCF8091EE16803218
:102E000008F051C0E091EE1681E08E0F8093EE162F
:102E10008091BB00F0E0E253F94E8083BDCF85EC9A
:102E20008093BC0010928F0E8091EE16803230F4A9
:102E3000E091EE16F0E0E253F94E10826091EE164A
:102E400070E0E091430EF091440E8EEC96E11995FE
:102E50001092EE1635C084E080938F0E1092CD163E
:102E60001092CC16E091450EF091460E1995809186
:102E7000CC16811105C081E08093CC161092AC165F
:102E8000E091CD1681E08E0F8093CD16F0E0E455F1
:102E9000F94E80818093BB009091CD168091CC1625
:102EA000981708F479CF85E88093BC0009C085ECB9
:102EB0008093BC0010928F0E03C010928D0E1EDC0A
:102EC000FF91EF91BF91AF919F918F917F916F9102
:102ED0005F914F913F912F910F900BBE0F900FBEBE
:102EE0000F901F901895DC01ED91FC910684F785F9
:102EF000E02D40E019943FB7F8948091F41690913A
:102F0000F516A091F616B091F71626B5A89B05C048
:102F10002F3F19F00196A11DB11D3FBFBA2FA92F58
:102F2000982F8827820F911DA11DB11DBC01CD01D5
:102F300042E0660F771F881F991F4A95D1F70895C1
:102F4000EF92FF920F931F93CF93DF938B018770C4
:102F500098E0899FB0011124606489EC92E1C3DF9D
:102F600083E790E00197F1F7E801085F1F4F8BE9D5
:102F7000E82EF12C699189EC92E18EDCC701019772
:102F8000F1F7C017D107B1F7DF91CF911F910F91E2
:102F9000FF90EF9008950F931F93CF93DF938C01D1
:102FA000C0E0D0E0F801EC0FFD1F6491662339F01A
:102FB00089EC92E171DC892B11F02196F3CFCE01DF
:102FC000DF91CF911F910F910895CF93DF93CDB7EC
:102FD000DEB728970FB6F894DEBF0FBECDBF409185
:102FE000CF025091D0026091D1027091D2024D83F4
:102FF0005E836F8378874091D3025091D4026091B1
:10300000D5027091D60249835A836B837C832091C9
:10301000D012821710F08FEF820F3091D11290E012
:10302000FE01E80FF91F303121F4243011F46181E1
:1030300001C06581606889EC92E128960FB6F8942A
:10304000DEBF0FBECDBFDF91CF914DCFFC0183819D
:103050008823B1F0962F6181609569236083828116
:1030600091E09093900E8093B20E1092910E109278
:10307000B30E8DEB92E1CEDB89D9282F30E002C070
:1030800020E030E081E090E0232B11F080E090E040
:103090000895EF92FF920F931F93CF938C01FC0141
:1030A00084E0C0E060FF02C09589C92B669581501D
:1030B00031968111F7CF413011F4F8014489F801BC
:1030C0008585C82BC42B7801FEE0EF0EF11CF801BA
:1030D00062896C2BC701BADFF801628960956C23A5
:1030E000C701CF911F910F91FF90EF90AFCF362F77
:1030F00090E0FC01E45CFD4F4491FC01EA50FE4F7E
:103100002491FC01E055FE4F9491992309F46CC081
:10311000442309F455C050E0FA013197E231F1053A
:1031200008F04EC08827EE57FF4F8F4F0C94E52DC7
:10313000809180008F7707C0809180008F7D03C0D1
:1031400080918000877F809380003AC084B58F771C
:1031500002C084B58F7D84BD33C08091B0008F776D
:1031600003C08091B0008F7D8093B00029C0809112
:1031700090008F7707C0809190008F7D03C0809171
:103180009000877F809390001BC08091A0008F7774
:1031900007C08091A0008F7D03C08091A000877F31
:1031A0008093A0000DC0809120018F7707C080918F
:1031B00020018F7D03C080912001877F80932001B3
:1031C000E92FF0E0EE0FFF1FEA56FE4FA591B491F4
:1031D0009FB7F894311104C08C912095282302C028
:1031E000EC912E2B2C939FBF0895CF93DF9390E00B
:1031F000FC01EA50FE4F2491FC01E055FE4F849102
:10320000882361F190E0880F991FFC01E458FE4F7C
:10321000C591D491FC01EA56FE4FA591B49161117C
:1032200009C09FB7F8948881209582238883EC9108
:103230002E230BC0623061F49FB7F8948881322F3F
:10324000309583238883EC912E2B2C939FBF06C04F
:103250008FB7F894E8812E2B28838FBFDF91CF9111
:103260000895863308F0865390917B00282F2870AC
:10327000977F922B90937B0020915C0290E4299F92
:10328000900111248770822B80937C0080917A00BA
:10329000806480937A0080917A0086FDFCCF8091D3
:1032A00078002091790090E0922B08958F929F9260
:1032B000AF92BF92CF92DF92EF92FF926B017C01AF
:1032C0001ADE4B015C01C114D104E104F104E9F000
:1032D00012DEDC01CB0188199909AA09BB09883ED5
:1032E0009340A105B10578F321E0C21AD108E108A5
:1032F000F10888EE880E83E0981EA11CB11CC11451
:10330000D104E104F10421F7DECFFF90EF90DF90CC
:10331000CF90BF90AF909F908F9008952FB7F89463
:103320006091F0167091F1168091F2169091F3165B
:103330002FBF08951F920F920FB60F9211242F9353
:103340003F938F939F93AF93BF938091F01690918B
:10335000F116A091F216B091F3163091EF1623E01A
:10336000230F2D3720F40196A11DB11D05C026E8BD
:10337000230F0296A11DB11D2093EF168093F01626
:103380009093F116A093F216B093F3168091F41671
:103390009091F516A091F616B091F7160196A11D21
:1033A000B11D8093F4169093F516A093F616B09382
:1033B000F716BF91AF919F918F913F912F910F90F1
:1033C0000FBE0F901F90189508950895089580E0FE
:1033D00090E008950F931F93CF93DF93EC01423059
:1033E00018F08C8188608C834F836887222329F0B2
:1033F000413019F48C8184608C8364E670E080E055
:1034000090E054DF6C8164FD31C0E881F98106846D
:10341000F785E02D42E063E0CE0119958BE496E458
:103420000197F1F7E881F9810684F785E02D42E004
:1034300063E0CE01199503E512E0C8010197F1F7A9
:10344000E881F9810684F785E02D42E063E0CE0152
:103450001995C8010197F1F7E881F9810684F7858C
:10346000E02D42E062E0CE01199514C06062CE0109
:103470003ADD8BE496E40197F1F76C816062CE014E
:1034800032DD03E512E0C8010197F1F76C8160625B
:10349000CE0129DDC8010197F1F76C816062CE0190
:1034A00022DD8BEE90E00197F1F784E08D836CE0F4
:1034B000CE0119DD61E0CE0116DD8BE39FE10197BE
:1034C000F1F782E08E8366E0CE010DDDE881F981BF
:1034D0000484F585E02D6FEFCE01DF91CF911F9130
:1034E0000F911994CF93DF93CDB7DEB729970FB61D
:1034F000F894DEBF0FBECDBF789484B5826084BDE2
:1035000084B5816084BD85B5826085BD85B58160E7
:1035100085BD80916E00816080936E001092810065
:103520008091810082608093810080918100816020
:1035300080938100809180008160809380008091E1
:10354000B10084608093B1008091B000816080936D
:10355000B0008091910082608093910080919100F1
:1035600081608093910080919000816080939000B1
:103570008091A10082608093A1008091A100816070
:103580008093A1008091A00081608093A000809131
:1035900021018260809321018091210181608093CB
:1035A00021018091200181608093200180917A0027
:1035B000846080937A0080917A00826080937A00A0
:1035C00080917A00816080937A0080917A0080688F
:1035D00080937A001092C10062E082E006DE62E031
:1035E00083E003DE61E083E200DE61E084E2FDDD92
:1035F00061E085E2FADD60E086E3F7DD83E20E94C8
:10360000CB0B84E20E94CB0B85E20E94CB0B61E0E6
:1036100086E1EBDD61E087E1E8DD61E088E1E5DDA1
:1036200061E089E1E2DD61E08AE1DFDD61E08BE11B
:10363000DCDD61E08CE1D9DD61E08DE1D6DD81E5A5
:103640009EE0909301028093000280916A008C7F3B
:10365000826080936A00EC9A88E998E09093030274
:103660008093020280916A00837F886080936A0061
:10367000ED9AF8941092BC121092BB121092BA12EA
:103680001092B91210920D0310920C0310920F03B6
:1036900010920E0378941092C50083E08093C400CA
:1036A0008091C10088698093C1008091C2008660CA
:1036B0008093C2008FE790E00E94600E8FE790E059
:1036C0000E94D40C8FE790E00E944C0C0E942313C0
:1036D0008CE08093B8008091E21291E09093900E7C
:1036E0008093B20E1092910E1092B30E8091E91257
:1036F0009091EA12029721F480E090E00E941F135B
:1037000080E090E00E941F130E94C611882309F4F4
:1037100046C010920B031092090310920A031092F4
:1037200001031092020310920303109204031092FB
:1037300005031092060310920703109208031092DB
:10374000F9021092FA021092FB021092FC021092FF
:10375000FD021092FE021092FF021092000384EF0D
:1037600091E0909315028093140288E799E6909374
:1037700013028093120288E893E1909311028093E0
:1037800010021092F8021092F70201E010E026E514
:1037900032E04BEF6FE080E00E9412111FC181E028
:1037A00080930B0322E030E049E053E060E070E0FA
:1037B000CB010E942212882369F010920903109213
:1037C0000A0301E010E026E532E04CEF6FE080E014
:1037D0000E94121128E030E041E053E062E070E026
:1037E00080E090E00E9422128823C9F01092010329
:1037F0001092020310920303109204031092050327
:1038000010920603109207031092080301E010E0E3
:1038100026E532E04CEF6FE080E00E94121128E0D4
:1038200030E049EF52E06AE070E080E090E00E9412
:1038300022128823C9F01092F9021092FA02109213
:10384000FB021092FC021092FD021092FE021092F6
:10385000FF021092000301E010E026E532E04CEF99
:103860006FE080E00E94121122E030E0AE014F5F75
:103870005F4F62E170E080E090E00E9422128823B6
:1038800081F084EF91E0909315028093140201E09F
:1038900010E026E532E04CEF6FE080E00E9412116C
:1038A00011C089819A8198278927982790931502BA
:1038B00080931402892B31F484EF91E090931502E8
:1038C0008093140222E030E0AE014F5F5F4F64E16D
:1038D00070E080E090E00E942212882381F088E767
:1038E00099E6909313028093120201E010E026E51E
:1038F00032E04CEF6FE080E00E94121111C089812C
:103900009A8198278927982790931302809312020F
:10391000892B31F488E799E6909313028093120281
:1039200022E030E0AE014F5F5F4F66E170E080E083
:1039300090E00E942212882381F08CEE93E1909314
:1039400011028093100201E010E026E532E04CEF16
:103950006FE080E00E94121111C089819A8198273E
:10396000892798279093110280931002892B31F4B4
:103970008CEE93E1909311028093100221E030E0ED
:1039800048EF52E06FEF70E080E090E00E9422127A
:10399000882359F01092F80201E010E026E532E0A9
:1039A0004CEF6FE080E00E9412111092F702812C20
:1039B000912C5401C501B4010E9407139091F702A4
:1039C000890F8093F7022FEF821A920AA20AB20A95
:1039D0003FEF83169104A104B10461F720E044E0B5
:1039E00064E189EC92E10E948F146FEF89EC92E11F
:1039F0000E94761461E089EC92E175DA0BE31FE135
:103A0000C8010197F1F762E089EC92E16CDAC80134
:103A10000197F1F787E691E0BEDA81E0D6DA82E538
:103A200091E0B9DA82E0D1DA8DE391E0B4DA83E0B3
:103A3000CCDA88E291E0AFDA6EE372E080E080DA1F
:103A400066E372E081E07CDA6EE272E082E078DACE
:103A500066E272E083E074DA6EE172E084E070DACC
:103A600066E172E085E06CDA81E080935C020E949E
:103A7000EE080E94D60881E0F4DBBC01990F880BA8
:103A8000990B611571058105910511F00E946B2B51
:103A900081E2E0E0F0E080935700E491E0931003CE
:103AA00002E010E0F8018093570094919093110385
:103AB000E4E0F0E080935700849180931203F8943F
:103AC0008091B9129091BA129093BC128093BB125C
:103AD0007894F89480910E0390910F0390930D03C6
:103AE00080930C0378940E94410E0E943A0E0E942B
:103AF0006D0C0E94660C0E94030C0E94FC0B84E675
:103B000090E09093931680939216109391160093E1
:103B1000901660ED77E080E090E0C8DB81E089837B
:103B200001E010E09E012F5F3F4F40E060E080E049
:103B30000E94121188EC0E94EE0C0E94750B9FE00F
:103B400088E10FB6F894A895809360000FBE90931B
:103B50006000FF24F394A8950E947A0E892B11F03F
:103B60000E94750180916F15882321F18091731552
:103B7000882301F180917515882309F4A4C38091ED
:103B80007615813009F09FC39BC410927C168091FA
:103B9000A8169091A916A091AA16B091AB160196FD
:103BA000A11DB11D8093A8169093A916A093AA16E3
:103BB000B093AB1680913214882309F4ABC1809185
:103BC0003414909135148F379105D1F580914015BB
:103BD00081111DC080914215811119C09FDB009198
:103BE0003B1510913C1520913D1530913E15DC019F
:103BF000CB01801B910BA20BB30BC397A105B105A1
:103C000008F406C10E94740C81110BC501C186DB4A
:103C100000913B1510913C1520913D1530913E15BA
:103C2000DC01CB01801B910BA20BB30B0B97A10501
:103C3000B10508F4EDC00E94740C811142C5E8C0C2
:103C40000F9709F099C00E94740C882309F4E0C012
:103C50006DB67EB60E94740C80933814809138142F
:103C600090E00496ADB6BEB6A81AB90A0FB6F8949D
:103C7000BEBE0FBEADBE2DB73EB72F5F3F4F690131
:103C80000E9409118091B40EF60180838091B50ED7
:103C900081838091B60E82838091B70E83830091D9
:103CA0003A15AAE3B4E1349680E0081721F09D911B
:103CB00091938F5FFACF10E00C5F1F4F960142E0A7
:103CC00067E082E00E9412118091B40EF6018083B9
:103CD0008091B50E81838091B60E82838091B70E5C
:103CE000838310E080913814181740F40E94B50CBB
:103CF000F601E10FF11D84831F5FF4CF00913814AA
:103D000010E00C5F1F4F960143E067E082E00E94E5
:103D10001211F60184818E3F41F4809133148F7E1D
:103D2000806C809333140E94EE0C8091441588239C
:103D300009F454C080914615F092451581110CC0CC
:103D40004DC09091381480914A15891708F0A5C488
:103D5000F092451510925B1580914715882309F460
:103D60003DC010923A1510924A15109244151092C7
:103D700045151092461532C0D1DA00913B151091CD
:103D80003C1520913D1530913E15DC01CB01801B87
:103D9000910BA20BB30BC397A105B105C8F10E940B
:103DA000740C81117DC534C00091381410E00C5F93
:103DB0001F4F960141E067E082E00E941211F60178
:103DC0008481823139F480913314806D809333146F
:103DD0000E94EE0C80914415811158C40E946D0C14
:103DE0008091671590916815A0916915B0916A1539
:103DF0000196A11DB11D8093671590936815A0933E
:103E00006915B0936A150FB6F8947EBE0FBE6DBEED
:103E100080914415882369F10E94740C811129C096
:103E20007DDA009157151091581520915915309150
:103E30005A155B016C01A01AB10AC20AD30A960195
:103E4000850140915515509156154A01A12CB12C70
:103E500080169106A206B30660F46093571570931E
:103E600058158093591590935A15809145158111D5
:103E700057C580913F15882309F44CC00E94740CEB
:103E8000882309F420C646C0011117C01F5F809126
:103E90003A151817D8F442DA2B013C01E12FF0E073
:103EA000EE5CFB4E80850E947C0C00E00E94740C4E
:103EB000181750F3002309F4BDC601E010E026E511
:103EC00032E04EEF6FE080E00E94121180913A15CF
:103ED000823008F04DC680913A15843008F093C6C0
:103EE00080913A15833008F09BC610923F1580915F
:103EF0006B1590916C15A0916D15B0916E15019692
:103F0000A11DB11D80936B1590936C15A0936D1539
:103F1000B0936E158091F512882309F44FC18091FA
:103F2000F7129091F8128F379105C9F4F7D90091E3
:103F3000FE131091FF132091001430910114DC0145
:103F4000CB01801B910BA20BB30BC397A105B1054D
:103F500008F4C2C00E940A0C811125C7BDC00F978A
:103F600009F07DC00E940A0C882309F4B5C06DB623
:103F70007EB60E940A0C8093FB128091FB1290E0A7
:103F80000496ADB6BEB6A81AB90A0FB6F894BEBE6E
:103F90000FBEADBE2DB73EB72F5F3F4F69010E94E8
:103FA00009118091B40EF60180838091B50E818352
:103FB0008091B60E82838091B70E83830091FD13AA
:103FC000ADEFB2E1349680E0081721F09D91919316
:103FD0008F5FFACF10E00C5F1F4F960142E067E061
:103FE00083E00E9412118091B40EF60180838091CB
:103FF000B50E81838091B60E82838091B70E838344
:1040000010E08091FB12181740F40E942D0CF6016D
:10401000E10FF11D84831F5FF4CF0091FB1210E0CC
:104020000C5F1F4F960143E067E083E00E9412118E
:10403000F60184818E3F41F48091F6128E7F8C6070
:104040008093F6120E94EE0C80910714882351F1A0
:1040500080910914811126C0F092081423C05ED902
:104060000091FE131091FF13209100143091011460
:10407000DC01CB01801B910BA20BB30BC397A105F5
:10408000B10550F10E940A0C8111D5C625C00091DE
:10409000FB1210E00C5F1F4F960141E067E083E0E8
:1040A0000E9412110E94030C80912A1490912B14EB
:1040B000A0912C14B0912D140196A11DB11D8093D7
:1040C0002A1490932B14A0932C14B0932D140FB694
:1040D000F8947EBE0FBE6DBE80910714882369F1EF
:1040E0000E940A0C811129C019D900911A1410914B
:1040F0001B1420911C1430911D145B016C01A01A3B
:10410000B10AC20AD30A9601850140911814509150
:1041100019144A01A12CB12C80169106A206B306EF
:1041200060F460931A1470931B1480931C14909382
:104130001D14809108148111B3C680910214882344
:10414000E9F10E940A0C882309F4B3C637C00111B3
:1041500017C01F5F8091FD131817D8F4DFD82B010B
:104160003C01E12FF0E0EB50FD4E80850E94120CE7
:1041700000E00E940A0C181750F3002309F429C725
:1041800001E010E026E532E04EEF6FE080E00E94B3
:1041900012111092021480912E1490912F14A0915C
:1041A0003014B09131140196A11DB11D80932E14CD
:1041B00090932F14A0933014B0933114AFD82B01E7
:1041C0003C0160936B0470936C0480936D04909336
:1041D0006E0480915B02882321F1809167049091A5
:1041E0006804A0916904B0916A04B301A201481B5C
:1041F000590B6A0B7B0B8091590290915A02A0E0F7
:10420000B0E0481759076A077B0758F040926704E7
:10421000509268046092690470926A0485E20E9478
:10422000CB0B80915702909158024C01A12CB12CDC
:104230008091630490916404A0916504B091660438
:10424000A3019201281B390B4A0B5B0B281539057A
:104250004A055B0520F061E083E20E9477188091B7
:104260005F0490916004A0916104B0916204A30185
:104270009201281B390B4A0B5B0B281539054A059F
:104280005B0520F061E084E20E94771880915B0476
:1042900090915C04A0915D04B0915E04481A590AA3
:1042A0006A0A7B0A481459046A047B0420F061E01E
:1042B00085E20E94771840E050E0452B09F44BCC92
:1042C0000E94000048CC0E94410E10927515109279
:1042D000761580919916882309F495C080919A16D5
:1042E00090919B16892B09F48EC018D80091A016C6
:1042F0001091A1162091A2163091A3165B016C01BA
:10430000A01AB10AC20AD30A9601850140919A16F1
:1043100050919B164A01A12CB12C80169106A20641
:10432000B30608F070C06093A0167093A116809336
:10433000A2169093A3160E94202B24E030E040E0C8
:1043400050E00E948F2CDC01CB010396A11DB11D12
:1043500080937716D12C0D2D10E08091771690E088
:104360009C01225031090217130774F40E94202B7C
:1043700001591A4E20E031E040E050E00E948F2CBD
:10438000F8016087D394E7CF9C0121503109EFE613
:10439000F5E181599A4E40E03196E817F90719F096
:1043A0005781450FF9CFF901E159FA4E4087F09254
:1043B0007C1680919E1690919F16A0E0B0E04090F0
:1043C0009C1650909D16612C712C481659066A0651
:1043D0007B06ACF44C015D0184189508A608B7086B
:1043E00039F00E94202BA50194010E948F2C03C05C
:1043F00060E070E0CB01460E571E681E791E509299
:104400009B1640929A1680918116882371F10E9422
:10441000480E81112AC00E948E19009194161091A5
:10442000951620919616309197165B016C01A01A93
:10443000B10AC20AD30A96018501409192165091A1
:1044400093164A01A12CB12C80169106A206B30640
:1044500060F46093941670939516809396169093DB
:104460009716809182168111D3C080917C16882383
:1044700009F4A0CB20E080917716281708F085CBAF
:10448000E22FF0E0E159FA4E30858091340390E05C
:1044900001968F719927F89440913303789450E0F6
:1044A00084179507C1F3FC01ED5EFC4F30838093C8
:1044B00034038091C90080628093C9002F5FDBCFF5
:1044C0006DB67EB68091751590E00496EDB7FEB797
:1044D000E81BF90B0FB6F894FEBF0FBEEDBF2DB76A
:1044E0003EB72F5F3F4F69010E9409118091B40EC2
:1044F000F60180838091B50E81838091B60E828310
:104500008091B70E838320E080917515281728F5D8
:10451000F8949091570380915603981304C07894AF
:1045200080E092E014C078948091560390E0019668
:104530008F71992780935603FC01EA5CFC4F308110
:104540008091350390E0982F8827830F911DF60105
:10455000E20FF11D84832F5FD7CF0091751510E016
:104560000C5F1F4F960142E067E081E00E9412114C
:1045700080918116882379F180918316811119C069
:1045800091E020917515821778F4282F30E0F90119
:10459000E159FA4ED601A20FB31F408514962C9113
:1045A000421390E08F5FEDCF9923A9F0F09282162D
:1045B00012C0F6018481823F11F4F092821680913C
:1045C0008416882341F0109277161092811610926B
:1045D000821610928316109275151092761580919E
:1045E000A4169091A516A091A616B091A7160196B3
:1045F000A11DB11D8093A4169093A516A093A61695
:10460000B093A7160FB6F8947EBE0FBE6DBE61CEF6
:1046100080918316811129CFF0927C161092821618
:1046200024CF6DB67EB60E94740C809338148091AE
:10463000381490E00496CDB6DEB6C81AD90A0FB683
:10464000F894DEBE0FBECDBE2DB73EB72F5F3F4FF5
:1046500069010E9409118091B40EF6018083809156
:10466000B50E81838091B60E82838091B70E8383CD
:1046700010E080913814181708F096CB0E94B50C02
:10468000F601E10FF11D84831F5FF3CF8091461582
:10469000811157CBF0924515A1CBF0923F15809137
:1046A0005B158F5F80935B15833120F0109244156A
:1046B00010925B1564EF71E080E090E00E94561963
:1046C0004BCB80E090E00E94970C439731F481E05F
:1046D00090E00E94970C892B41F080E090E00E94CE
:1046E000970C8A9709F090C03FC082E090E00E944A
:1046F000970C892B91F76DB67EB60E94740C80934F
:1047000038148091381490E00496ADB6BEB6A81A5D
:10471000B90A0FB6F894BEBE0FBEADBE2DB73EB7F8
:104720002F5F3F4F69010E940911109240151092AE
:1047300041158091B40EF60180838091B50E81837E
:104740008091B60E82838091B70E838310E08091B2
:104750003814181708F047C00E94B50CF601E10F95
:10476000F11D84831F5FF3CF81E090E00E94970CDE
:10477000892B09F049C06DB67EB60E94740C8093F7
:1047800038148091381490E00496ADB6BEB6A81ADD
:10479000B90A0FB6F894BEBE0FBEADBE2DB73EB778
:1047A0002F5F3F4F69010E9409111092421510922C
:1047B00043158091B40EF60180838091B50E8183FC
:1047C0008091B60E82838091B70E838310E0809132
:1047D0003814181740F40E94B50CF601E10FF11DD2
:1047E00084831F5FF4CF0091381410E00C5F1F4FDB
:1047F000960141E067E082E00E9412110FB6F89442
:104800007EBE0FBE6DBE27C00E94740C809338140C
:104810000E9409118091B40E89838091B50E8A831C
:104820008091B60E8B838091B70E8C83809140155A
:1048300090914215811125C091112AC00E94B50C9A
:104840008F8307E010E09E012F5F3F4F41E067E05C
:1048500082E00E9412110E946D0C80916715909168
:104860006815A0916915B0916A150196A11DB11D39
:104870008093671590936815A0936915B0936A1596
:10488000C7CA9111D9CF83E18D838091411506C0AC
:104890008111D4CF8AE28D83809143158E83CECF50
:1048A0006DB67EB60E94740C8093381480913814D3
:1048B00090E00496ADB6BEB6A81AB90A0FB6F89441
:1048C000BEBE0FBEADBE2DB73EB72F5F3F4F6901D5
:1048D0000E9409118091B40EF60180838091B50E7B
:1048E00081838091B60E82838091B70E838310E01E
:1048F00080913814181740F40E94B50CF601E10FAE
:10490000F11D84831F5FF4CF0091381410E00C5F19
:104910001F4F960141E067E082E00E9412115ECADB
:1049200080914615811105C0F0923F1510924515F2
:10493000A0CA20914A15243009F044C080913A154C
:10494000811111C080914B1590914C1530914D15EE
:1049500040914E1540933A1430933B1490933C147D
:1049600080933D1441C060913A1470913B14809142
:104970003C1490913D140E94ED2D4091531550919F
:104980005415DC01CB01840F951FA11DB11DB093FF
:104990003A14A0933B1490933C1480933D142093BD
:1049A0003A1500914F1510915015209151153091E5
:1049B000521580179107A207B30708F4B5CFF092FC
:1049C0004715B2CF233099F580913A1581110FC068
:1049D00080914B1590914C1530914D1530933A14B0
:1049E00090933B1480933C1420933A159DCF3091C3
:1049F0003A1480913B1490E0A0E0B0E0BA2FA92FC8
:104A0000982F8827A32B30913C14832B409153156A
:104A100050915415840F951FA11DB11DA0933A14F8
:104A200090933B1480933C1420933A153DC0223060
:104A300009F580913A15811109C080914B1590912B
:104A40004C1590933A1480933B14CECF80913A1436
:104A500090913B149827892798274091531550919E
:104A60005415840F951F90933A1480933B14209310
:104A70003A1518C0213009F057CF80913A158111AD
:104A800007C080914B1580933A14F0923A154CCFA1
:104A900090913A1480915315890F80933A14F092B3
:104AA0003A1590E0A0E0B0E040914F1550915015BC
:104AB000609151157091521584179507A607B70795
:104AC00008F07DCF31CF80913414909135148F3719
:104AD000910509F44BC00F9711F010E02CC08091A4
:104AE0003A14E6E4F2E09191891709F4F4C056E52E
:104AF000A52E52E0B52EAE16BF06A9F701E010E0D4
:104B00002AE334E149EF2DC0011126C00E948E191D
:104B1000DC01CB0184199509A609B70901E0459785
:104B2000A105B10508F400E00E94740C181760F7A5
:104B3000011112C01F5F80913A15181708F0D5C9EE
:104B40000E948E192B013C01E12FF0E0EE5CFB4E40
:104B500080850E947C0CE7CF01E010E026E532E082
:104B60004EEF6FE080E00E941211BFC910E08FC9C4
:104B70000E94740C823078F180E090E00E94970CE3
:104B8000439749F581E090E00E94970C892B09F04A
:104B900060C021C00E948E19DC01CB0184199509E7
:104BA000A609B70911E085369105A105B10508F4FC
:104BB00054C00E94740C90913A15981708F44FC095
:104BC000112341F301E010E026E532E04EEF6FE003
:104BD00080E00E94121180913A15823008F47BC95E
:104BE0000E94740C823008F476C980E090E00E9444
:104BF000970C8A9709F06FC981E090E00E94970CAA
:104C0000892BC1F568C90E94740C843008F468C906
:104C100080E090E00E94970C869709F061C965C911
:104C20000E94740C833008F460C980E090E00E9418
:104C3000970C5BC90E948E19DC01CB018419950980
:104C4000A609B70901E04597A105B10508F02EC9ED
:104C50002CC90E948E192B013C0110E0AACF111122
:104C6000B1CFF092401580913B14809341150E9482
:104C70006D0CB1CF0E948E192B013C0110E00E94F7
:104C8000740C90913A159817D8F0112351F001E067
:104C900010E026E532E04EEF6FE080E00E94121156
:104CA0001AC90E948E19DC01CB0184199509A60945
:104CB000B70911E085369105A105B10500F7DECFF2
:104CC0001111E5CFF092421580913B14809343156A
:104CD0000E946D0C00C980913A15823070F080916D
:104CE0003B148F3F51F4EBE3F4E180E081938F5F5D
:104CF000803FE1F781EF80933A15D12C00E080915D
:104D00003A15D81608F0F1C88D2D90E09C012E5C64
:104D10003B4E1901A901485F5F4F598748870E94A0
:104D20008E192B013C01E885F98580810E947C0C5D
:104D300010E00E94740CD816E8F0112369F08091FD
:104D40003A148983F10180858A8302E010E09E0194
:104D50002F5F3F4F4AEF05CF0E948E19DC01CB0138
:104D600084199509A609B70911E00697A105B105AF
:104D700000F7DECF1111E3CF80E090E00E94970CA6
:104D800020913A1430E08217930759F00E946D0C7D
:104D90000F5F0A3021F601E010E02AE334E148EF2A
:104DA000E0CED394ACCF6DB67EB60E940A0C809351
:104DB000FB128091FB1290E00496CDB6DEB6C81AC5
:104DC000D90A0FB6F894DEBE0FBECDBE2DB73EB7E2
:104DD0002F5F3F4F69010E9409118091B40EF601C7
:104DE00080838091B50E81838091B60E82838091FD
:104DF000B70E838310E08091FB12181740F40E94D5
:104E00002D0CF601E10FF11D84831F5FF4CF00919B
:104E1000FB1210E00C5F1F4F960141E067E083E05A
:104E20000E941211F6018481823109F00DC980912E
:104E3000F6128D6005C96DB67EB60E940A0C80938D
:104E4000FB128091FB1290E00496ADB6BEB6A81A94
:104E5000B90A0FB6F894BEBE0FBEADBE2DB73EB7B1
:104E60002F5F3F4F69010E9409118091B40EF60136
:104E700080838091B50E81838091B60E828380916C
:104E8000B70E838310E08091FB12181708F0FFC85B
:104E90000E942D0CF601E10FF11D84831F5FF3CFFB
:104EA00080910914811149C9F092021410920814DA
:104EB00044C98091F7129091F8128F37910509F447
:104EC00086C00F9711F010E071C08091FD12E6E4EA
:104ED000F2E09191891303C010E0312C2FC046E518
:104EE000A42E42E0B42EAE16BF0699F701E010E002
:104EF0002DEF32E149EF49C90E948E192B013C0187
:104F0000E885F98580810E94120C00E00E940A0C5D
:104F1000181728F5011126C0F89490915A04809131
:104F20005904981374C0789480E092E02091FD12A7
:104F300030E02817390709F07AC01F5F8091FD1310
:104F4000181708F026C9812F90E09C012B503D4E88
:104F50006901A901485F5F4F59874887CDCF00237A
:104F600009F446C08091FD128983F60180858A8309
:104F700002E010E09E012F5F3F4F4AEF06C901118A
:104F8000FFC80E948E19DC01CB0184199509A6097E
:104F9000B70901E04597A105B10508F400E00E94BA
:104FA0000A0C181760F70111EBC81F5F8091FD1301
:104FB000181708F0EEC80E948E192B013C01E12F52
:104FC000F0E0EB50FD4E80850E94120CE7CF10E020
:104FD000C1C80E948E19DC01CB0184199509A6096C
:104FE000B70901E04597A105B10508F0C2C8C0C8DE
:104FF0000E948E19DC01CB0184199509A609B70915
:1050000001E00697A105B10508F080CF7ECF789426
:10501000E0915904EF5FF0E0E75AFC4F2081809166
:10502000580390E0982F8827820F911D7FCF0E9410
:10503000030C3394F9E0F31508F05ECF01E010E0C3
:105040002DEF32E148EFA1C88091EF129091F0125C
:1050500026C2FC0181E0808398EC91832FE730E049
:10506000338322838483158216821782DF01A85F2F
:10507000BE4F1C9211961D921D921D921C92139769
:1050800014961C9211961C9211961C9211961C92C9
:1050900011961C9211961C9211961C9211961C92BC
:1050A00011968C9311961C9211961C9211961C923B
:1050B00011961D921D921D921C92139714961D928B
:1050C0001D921D921C921397149681E090E0119608
:1050D0009C938E93129611961C921E9212961D927C
:1050E0001D921D921C92139714961C9211961C925D
:1050F000119611961C921E92129611961C921E9257
:10510000129611961C921E9212961D921D921D923D
:105110001C92139714961D921D921D921C92139728
:10512000E75CFE4F10821182128213820895EDEB2C
:10513000F2E11382128288EE93E0A0E0B0E0848373
:105140009583A683B7838DEA92E0918380838FE66F
:1051500095E17FDF82E394E17CDF85EF92E179DF07
:105160008FEE92E10E94B310E2EEF2E120E230E035
:105170003283218381E083833583248390E5908388
:1051800040E050E160E070E04187528763877487B8
:1051900022E030E0308727839CE09683E9ECF2E15F
:1051A000138212822FEB32E031832083108A9FEF2B
:1051B00097871686118A97E293871486158612863A
:1051C000118694E0928B92E0938B848B80E1858BA7
:1051D00080E2868B80E4878B80E8808F40E050E01F
:1051E00063E0CF010C9438143F924F925F926F921C
:1051F0007F928F929F92AF92BF92CF92DF92EF9267
:10520000FF920F931F93CF93DF931F92CDB7DEB71B
:105210002B013C014983AB01BC014F5F5F4F6F4FD6
:105220007F4F8091EB129091EC12A091ED12B09112
:10523000EE1284179507A607B70708F484C0CE01BD
:1052400001967C0120E2C22ED12C992493943BEC50
:10525000A32E37E0B32E8091E6129091E7129C01C5
:105260002150310924213521821B930B2091E91211
:105270003091EA128601021B130B11F001E010E0DD
:105280008017910708F48C01D301C2010090E81245
:1052900004C0B695A795979587950A94D2F7809004
:1052A000E212882A9092900E8092B20E1092910E85
:1052B0001092B30E2230310541F49927872D762DB7
:1052C000652D8DEB92E10E940A14642D8DEB92E125
:1052D0000E940A14A801B7018DEB92E10E94DE132F
:1052E0000E94C611811130C084E6382EC501019795
:1052F000F1F79092900E8092B20E1092910E109251
:10530000B30E8091E9129091EA12029721F480E0A5
:1053100090E00E941F1380E090E00E941F130E9403
:10532000C611882321F03A943110E0CF0DC0400E11
:10533000511E611C711CE00EF11E0130110509F0B7
:105340008ACF80E001C089E00F90DF91CF911F915B
:105350000F91FF90EF90DF90CF90BF90AF909F9014
:105360008F907F906F905F904F903F9008950F9334
:105370001F93CF93DF938230910510F482E090E089
:10538000E091FC16F091FD1620E030E0A0E0B0E0E6
:10539000309719F1408151810281138148175907D3
:1053A000C8F08417950769F4109731F012960C93A2
:1053B000129713961C9327C00093FC161093FD16AA
:1053C00022C02115310519F04217530718F49A012C
:1053D000BD01EF01DF01F801DBCF21153105F9F047
:1053E000281B390B2430310580F48A819B8161159B
:1053F000710521F0FB019383828304C09093FD1615
:105400008093FC16FE01329644C0FE01E20FF31FAA
:105410008193919322503109398328833AC0209196
:10542000FA163091FB16232B41F420915F02309144
:1054300060023093FB162093FA1620915D023091A2
:105440005E022115310541F42DB73EB7409161024E
:1054500050916202241B350BE091FA16F091FB1675
:10546000E217F307A0F42E1B3F0B2817390778F03B
:10547000AC014E5F5F4F2417350748F04E0F5F1F9A
:105480005093FB164093FA168193919302C0E0E08B
:10549000F0E0CF01DF91CF911F910F910895CF934D
:1054A000DF93009709F481C0FC01329713821282C6
:1054B000A091FC16B091FD16109781F420813181E6
:1054C000820F931F2091FA163091FB162817390787
:1054D00051F5F093FB16E093FA1667C0ED0120E05A
:1054E00030E0CE17DF0740F44A815B819E01411511
:1054F0005105F1F0EA01F5CFD383C2834081518198
:10550000840F951FC817D90759F488819981840F92
:10551000951F0296918380838A819B8193838283E6
:105520002115310529F4F093FD16E093FC163DC0DA
:10553000E901FB83EA8349915991C40FD51FEC1708
:10554000FD0761F480819181840F951F0296E90126
:1055500099838883828193819B838A83E0E0F0E052
:1055600012968D919C911397009719F0FD01DC0123
:10557000F7CF8D919C9111979D012E5F3F4F820F28
:10558000931F2091FA163091FB162817390769F4FA
:10559000309729F41092FD161092FC1602C0138267
:1055A0001282B093FB16A093FA16DF91CF91089563
:1055B0008F929F92AF92BF92CF92DF92EF92FF9223
:1055C000CF93DF93EC01688179818A819B8161159A
:1055D00071058105910521F464E279ED8BE597E091
:1055E0002DE133EF41E050E09AD149015A019B018E
:1055F000AC01A7EAB1E4AFD16B017C01ACEEB4EF32
:10560000A5019401B4D1DC01CB018C0D9D1DAE1D13
:10561000BF1DB7FF03C00197A109B04888839983D4
:10562000AA83BB83BC01CD019F77DF91CF91FF900F
:10563000EF90DF90CF90BF90AF909F908F900895A4
:105640008F929F92AF92BF92CF92DF92EF92FF9292
:10565000609163027091640280916502909166028C
:10566000611571058105910521F464E279ED8BE501
:1056700097E02DE133EF41E050E051D149015A016B
:105680009B01AC01A7EAB1E466D16B017C01ACEEF1
:10569000B4EFA50194016BD1DC01CB018C0D9D1DF4
:1056A000AE1DBF1DB7FF03C00197A109B04880938D
:1056B000630290936402A0936502B0936602BC01FA
:1056C000CD019F77FF90EF90DF90CF90BF90AF908C
:1056D0009F908F900895609363027093640280930B
:1056E000650290936602089548EF56E100C0FA0102
:1056F000A191B081009719F41097E1F0CD01DC0180
:10570000CD010D90002011F4C00113C0FB012191C7
:10571000222319F02015D9F7F3CFFB012191201591
:1057200019F41E92119606C02223C1F70D90002095
:10573000A1F7D001FA01A193B0830895E89409C0BC
:1057400097FB3EF490958095709561957F4F8F4FB4
:105750009F4F9923A9F0F92F96E9BB279395F695CA
:10576000879577956795B795F111F8CFFAF4BB0F48
:1057700011F460FF1BC06F5F7F4F8F4F9F4F16C0AC
:10578000882311F096E911C0772321F09EE8872F36
:10579000762F05C0662371F096E8862F70E060E0F2
:1057A0002AF09A95660F771F881FDAF7880F96956B
:1057B000879597F908950BD078C069D028F06ED0FE
:1057C00018F0952309F05AC05FC01124A2C07ED002
:1057D000A0F3959FD1F3950F50E0551F629FF00104
:1057E000729FBB27F00DB11D639FAA27F00DB11D5D
:1057F000AA1F649F6627B00DA11D661F829F2227E6
:10580000B00DA11D621F739FB00DA11D621F839F6C
:10581000A00D611D221F749F3327A00D611D231F42
:10582000849F600D211D822F762F6A2F11249F5790
:1058300050408AF0E1F088234AF0EE0FFF1FBB1FB3
:10584000661F771F881F91505040A9F79E3F510552
:1058500070F014C05EC05F3FECF3983EDCF38695B9
:1058600077956795B795F795E7959F5FC1F7FE2BFD
:10587000880F911D9695879597F9089597F99F67D9
:1058800080E870E060E008959FEF80EC08950024C8
:105890000A941616170618060906089500240A9495
:1058A00012161306140605060895092E0394000C1B
:1058B00011F4882352F0BB0F40F4BF2B11F460FFAA
:1058C00004C06F5F7F4F8F4F9F4F089557FD9058D3
:1058D000440F551F59F05F3F71F04795880F97FBB4
:1058E000991F61F09F3F79F087950895121613066E
:1058F0001406551FF2CF4695F1DF08C0161617069D
:105900001806991FF1CF86957105610508940895D1
:10591000E894BB2766277727CB0197F90895052ED2
:1059200097FB16F400940FD057FD05D024D007FC48
:1059300002D046F408C050954095309521953F4FD0
:105940004F4F5F4F089590958095709561957F4F6B
:105950008F4F9F4F089531D0A59F900DB49F900D0C
:10596000A49F800D911D11240895B7FFF4CFF3DF9C
:10597000821B930B0895A1E21A2EAA1BBB1BFD01EB
:105980000DC0AA1FBB1FEE1FFF1FA217B307E4071E
:10599000F50720F0A21BB30BE40BF50B661F771F76
:1059A000881F991F1A9469F7609570958095909556
:1059B0009B01AC01BD01CF010895A29FB001B39F2F
:1059C000C001A39F700D811D1124911DB29F700D08
:1059D000811D1124911D08955058BB27AA270ED070
:1059E00064CF55DF30F05ADF20F031F49F3F11F4DF
:1059F0001EF44ACF0EF4E095E7FB40CFE92F66DFB7
:105A000080F3BA17620773078407950718F071F4DB
:105A10009EF57ECF0EF4E0950B2EBA2FA02D0B0134
:105A2000B90190010C01CA01A0011124FF27591BE3
:105A300099F0593F50F4503E68F11A16F040A22FE9
:105A4000232F342F4427585FF3CF4695379527955A
:105A5000A795F0405395C9F77EF41F16BA0B620B59
:105A6000730B840BBAF09150A1F0FF0FBB1F661FA0
:105A7000771F881FC2F70EC0BA0F621F731F841FE3
:105A800048F4879577956795B795F7959E3F08F009
:105A9000B3CF9395880F08F09927EE0F97958795C8
:105AA00008950CD002CFFADE40F0F1DE30F021F4A0
:105AB0005F3F19F0E3CE51112CCFE6CE07DF98F30C
:105AC0009923C9F35523B1F3951B550BBB27AA277F
:105AD00062177307840738F09F5F5F4F220F331FF1
