:100000004DC1000036C4000009C40000DCC300007C
:10001000AFC3000082C3000055C3000028C3000026
:10002000FBC200006CC100006AC1000068C1000092
:1000300066C1000064C1000062C1000060C1000030
:100040005EC100005CC100005AC1000058C1000040
:1000500056C1000054C1000052C100000C94B310FE
:100060004EC100000C94300C0C94F50B48C10000FC
:1000700046C1000044C1000042C1000040C1000070
:100080003EC100003CC100003AC1000038C1000080
:100090000C94BC0B0C948C0B32C1000015C40000F6
:1000A0002EC100002CC100002AC1000028C10000A0
:1000B00026C1000024C1000022C1000020C10000B0
:1000C0001EC100001CC100001AC100000C944F0B9F
:1000D0000C94200B14C100000C94E30A0C94B40A95
:1000E0000EC10000B0180114B218B5183019781AF2
:1000F000781A781A781A781A781A781A781A781A70
:10010000B119D219870F8A0F790F7D0F810FC10F97
:100110008E0F920F980F9C0FA00FA60FAA0FAE0F75
:10012000C10FB40FB80FBC0F2D2D2D2D2D2D2D2D42
:100130002D2D2D2D2D2D2D2D2D2D2D2D00205343ED
:10014000414E4E45522056312E3430203230313817
:100150002000202043485259534C455220434344E9
:100160002F5343492020002D2D2D2D2D2D2D2D2DAC
:100170002D2D2D2D2D2D2D2D2D2D2D00434852595A
:10018000534C45524343445343495343414E4E45D8
:100190005200002100240027002A002D00300033E7
:1001A0000001010000040107010A010000220025EE
:1001B0000028002B002E0031003400020100000551
:1001C0000108010B010505050507050808080802D7
:1001D0000202020A0A0808040404040101010101E0
:1001E0000101010303030303030303040707070CCF
:1001F0000C0C0C0C0C0C0C02020202060606060685
:100200000606060B0B0B0B0B0B0B0B010210202031
:10021000080810204010204080020102010804025A
:1002200001010204081020408080402010080402D0
:100230000180040201804020100804020108040229
:10024000010102040810204080010204081020402F
:100250008000000A0B02090C0D0E080703040100C0
:10026000000000000000000000000000000000008E
:10027000000000000000000000000000001211104B
:10028000000000000000000000000000000000006E
:100290000000000000000000021DFD1C11241FBE14
:1002A000CFEFD1E2DEBFCDBF00E00CBF12E0A0E097
:1002B000B2E0E8E8F4E400E00BBF02C007900D9262
:1002C000A83DB107D9F727E1A8EDB2E001C01D9222
:1002D000A53FB207E1F711E0CDE4D1E000E006C0B0
:1002E00021970109802FFE010E941F21CC34D107E4
:1002F00080E00807A9F70E94FD100C94332280CEFD
:100300000895CF92DF92EF92FF920F931F93CF93B6
:10031000DF936C017A018B01C0E0D0E0CE15DF05E0
:1003200081F0D8016D918D01D601ED91FC91019084
:10033000F081E02DC6011995892B11F02196EECFA1
:100340007E01C701DF91CF911F910F91FF90EF9038
:10035000DF90CF90089585ED8093BC008091BC0024
:1003600084FDFCCF10928D17089540911617262F0B
:1003700030E0240F311D21323105DCF420918D173E
:100380002430C9F4FC0180E090E0861758F43091E5
:1003900016172191DC01AA50B94EA30FB11D2C9361
:1003A0000196F3CF80911617680F6093161780E0BF
:1003B000089581E0089582E00895089508950895CC
:1003C000E091461780914517E81730F4F0E0E95BBB
:1003D000F84E808190E008958FEF9FEF08959091FF
:1003E000461780914517981750F4E92FF0E0E95B24
:1003F000F84E208130E09F5F9093461702C02FEFA8
:100400003FEFC90108958091451790E0209146176C
:10041000821B91090895CF92DF92EF92FF920F9382
:100420001F93CF93DF937C01CB018A0120918E171C
:10043000222389F0EB016B01C40ED51ECC15DD051E
:1004400061F06991D701ED91FC910190F081E02D6F
:10045000C7011995F3CF642F88DFC801DF91CF91D1
:100460001F910F91FF90EF90DF90CF900895CF9361
:10047000DF931F92CDB7DEB7698320918E172223B9
:10048000D1F02091B117203240F021E030E0FC01A2
:100490003383228380E090E014C080918F17E82F8F
:1004A000F0E0E057F84E998190838F5F80938F172B
:1004B0008093B11704C061E0CE01019656DF81E060
:1004C00090E00F90DF91CF91089521E001C0220FBD
:1004D0006A95EAF7DC011C962C931C971A965C939C
:1004E0004E931997ED91FC910484F585E02D60E021
:1004F0001994DC01ED91FC910684F785E02D41E033
:10050000199581E090E0089508950895089580E098
:1005100090E0089581E08093B11608950E9407222B
:100520000F931F93CF93DF93062F0F70423019F470
:1005300040E0602F0EC0142FEC0170E084E0759550
:1005400067958A95E1F7CE010E942A0F412F602F0F
:10055000CE01DF91CF911F910F910C942A0FFC01D6
:1005600084858823A9F0218532852115310519F468
:10057000611106C007C02130310521F4611102C0AC
:10058000858701C015866585CF010E960C94060FF0
:1005900008950F931F9305E110E02EEE32E040E046
:1005A00061E080E00E94C60C1F910F91089501E068
:1005B00010E027E135E040E060E080E00E94C60CFA
:1005C00060E085E20E94580FFFCF0F931F93CF93F7
:1005D000DF93EC0188819981009729F02A813B8182
:1005E0002617370788F48B016F5F7F4F0E94272102
:1005F000009761F0998388831B830A832C813D8156
:10060000232B11F4FC01108281E001C080E0DF9116
:10061000CF911F910F9108951F920F920FB60F92D5
:1006200011240BB60F922F933F934F935F936F93C9
:100630007F938F939F93AF93BF93EF93FF93E0913B
:100640000E02F0910F021995FF91EF91BF91AF91BA
:100650009F918F917F916F915F914F913F912F91DA
:100660000F900BBE0F900FBE0F901F9018951F920A
:100670000F920FB60F9211240BB60F922F933F9348
:100680004F935F936F937F938F939F93AF93BF939A
:10069000EF93FF93E0910C02F0910D021995FF91F9
:1006A000EF91BF91AF919F918F917F916F915F91EA
:1006B0004F913F912F910F900BBE0F900FBE0F9057
:1006C0001F9018951F920F920FB60F9211240BB620
:1006D0000F922F933F934F935F936F937F938F93DB
:1006E0009F93AF93BF93EF93FF93E0910202F0913A
:1006F00003021995FF91EF91BF91AF919F918F9157
:100700007F916F915F914F913F912F910F900BBE11
:100710000F900FBE0F901F9018951F920F920FB65B
:100720000F9211240BB60F922F933F934F935F9329
:100730006F937F938F939F93AF93BF93EF93FF93A9
:10074000E0910002F09101021995FF91EF91BF91A4
:10075000AF919F918F917F916F915F914F913F9159
:100760002F910F900BBE0F900FBE0F901F901895FA
:100770001F920F920FB60F9211240BB60F922F9368
:100780003F934F935F936F937F938F939F93AF9319
:10079000BF93EF93FF93E0910A02F0910B0219953A
:1007A000FF91EF91BF91AF919F918F917F916F9149
:1007B0005F914F913F912F910F900BBE0F900FBE05
:1007C0000F901F9018951F920F920FB60F92112441
:1007D0000BB60F922F933F934F935F936F937F933B
:1007E0008F939F93AF93BF93EF93FF93E091080292
:1007F000F09109021995FF91EF91BF91AF919F91EF
:100800008F917F916F915F914F913F912F910F90B9
:100810000BBE0F900FBE0F901F9018951F920F9256
:100820000FB60F9211240BB60F922F933F934F9355
:100830005F936F937F938F939F93AF93BF93EF9348
:10084000FF93E0910602F09107021995FF91EF9155
:10085000BF91AF919F918F917F916F915F914F91D8
:100860003F912F910F900BBE0F900FBE0F901F90D6
:1008700018951F920F920FB60F9211240BB60F927C
:100880002F933F934F935F936F937F938F939F9398
:10089000AF93BF93EF93FF93E0910402F0910502B1
:1008A0001995FF91EF91BF91AF919F918F917F919A
:1008B0006F915F914F913F912F910F900BBE0F90D1
:1008C0000FBE0F901F9018951F920F920FB60F92A8
:1008D00011240BB60F922F933F934F935F936F9317
:1008E0007F938F939F93AF93BF93EF93FF938091E9
:1008F000B900887F803609F49CC068F5883209F415
:100900005BC090F4803109F454C038F4882309F4B2
:10091000F6C0883009F44DC0F5C0883109F44CC0E8
:10092000803209F45DC0EEC0803409F468C048F438
:10093000803309F455C0883309F0E4C080938B17E5
:10094000D8C0803509F44FC0883509F45DC08834BB
:1009500009F0D8C0D6C0883909F4C7C0A8F48837D0
:1009600009F467C038F4883609F463C0803709F4A5
:1009700060C0C8C0883809F4B8C0803909F45FC0C5
:10098000803809F0BFC05BC0803B09F486C038F4F2
:10099000803A09F466C0883A09F47FC0B3C0803C4D
:1009A00009F4A7C0883C09F4A4C0883B09F48AC0B4
:1009B000A9C08091681710C090918A1780918917FB
:1009C000981770F5E0918A1781E08E0F80938A174F
:1009D000F0E0E759F84E80818093BB0085EC86C03B
:1009E00080938B178EC0E0918A1781E08E0F8093E1
:1009F0008A178091BB00F0E0E759F84E8083909110
:100A00008A17809189176EC0E0918A1781E08E0F56
:100A100080938A178091BB00F0E0E759F84E8083FD
:100A200080918C1781116DC081E08093671784EAF3
:100A300061C083E080938D1710923817CFCF8091DB
:100A40003817803208F051C0E091381781E08E0FDE
:100A5000809338178091BB00F0E0E85EF84E808309
:100A6000BDCF85EC8093BC0010928D178091381714
:100A7000803230F4E0913817F0E0E85EF84E1082F2
:100A80006091381770E0E0914117F091421788E1CA
:100A900097E119951092381735C084E080938D172F
:100AA0001092171710921617E0914317F091441700
:100AB000199580911617811105C081E08093161752
:100AC0001092F616E091171781E08E0F809317179A
:100AD000F0E0EA50F94E80818093BB0090911717A7
:100AE00080911617981708F479CF85E88093BC0099
:100AF00009C085EC8093BC0010928D1703C0109242
:100B00008B1729DCFF91EF91BF91AF919F918F914E
:100B10007F916F915F914F913F912F910F900BBEFD
:100B20000F900FBE0F901F901895DC01ED91FC9176
:100B30000684F785E02D40E019940F931F93CF931F
:100B4000DF93EC01423018F08C8188608C834F83F6
:100B50006887222329F0413019F48C8184608C83CA
:100B600064E670E080E090E00E9467106C8164FDB4
:100B700031C0E881F9810684F785E02D42E063E029
:100B8000CE0119958BE496E40197F1F7E881F9819C
:100B90000684F785E02D42E063E0CE01199503E578
:100BA00012E0C8010197F1F7E881F9810684F78521
:100BB000E02D42E063E0CE011995C8010197F1F7FD
:100BC000E881F9810684F785E02D42E062E0CE01FC
:100BD000199514C06062CE01A8DF8BE496E40197FA
:100BE000F1F76C816062CE01A0DF03E512E0C8017D
:100BF0000197F1F76C816062CE0197DFC801019720
:100C0000F1F76C816062CE0190DF8BEE90E001978E
:100C1000F1F784E08D836CE0CE0187DF61E0CE01E7
:100C200084DF8BE39FE10197F1F782E08E8366E03A
:100C3000CE017BDFE881F9810484F585E02D6FEF3B
:100C4000CE01DF91CF911F910F911994FF920F93D5
:100C50001F93CF93DF93EC01162F042FF22E8B8579
:100C6000888B0E94D60F888991E090938E1780938D
:100C7000B01710928F171092B117FAD691E0811128
:100C800090E0998B811104C086EB97E1A8DB8E87F9
:100C90008989882339F01F861C8260E0CE010E9678
:100CA0000E94060F2F2D402F612FCE01DF91CF9193
:100CB0001F910F91FF9041CFA0E8B0E01C92E1E8B6
:100CC000F0E010821092850010928400259A8C9199
:100CD00080648C9387E090E09093890080938800F3
:100CE000808189608083089586E30E944210BC0160
:100CF00080E090E00E943D1F20E030E040EA50E4B8
:100D00000E947A1F20E030EC4FE754E40E948B20D1
:100D100020E030E040E052E40E947A1F20E030E022
:100D200040EA50E40E948B2020E030E048EC52E49E
:100D30000E947A1F0E94F320683522E0720738F47F
:100D400010921805109219051092B216089570931A
:100D500018056093190581E08093B21608950F93EA
:100D60001F93CF93DF931F921F92CDB7DEB7809171
:100D7000EB028093B3168091EC028093B4168091BD
:100D8000ED028093B516809115038093B61680917D
:100D900016038093B71680910D038093B816809147
:100DA0000E038093B91680910F038093BA16809139
:100DB00010038093BB16809111038093BC16809121
:100DC00012038093BD16809113038093BE16809109
:100DD00014038093BF16809105038093C016809101
:100DE00006038093C116809107038093C2168091F9
:100DF00008038093C316809109038093C4168091E1
:100E00000A038093C51680910B038093C6168091C8
:100E10000C038093C7161092C8161092C916109230
:100E2000CA161092CB168DE58093CC168CE6809373
:100E3000CD168DEC8093CE168FEF8093CF168091D8
:100E4000D802882321F081E08093D01602C010924E
:100E5000D016809104038093D11680910303809370
:100E6000D2160E94AB108091B2178093D316809156
:100E7000B3178093D4168091B4178093D5168091C0
:100E8000B5178093D6162091F1173091F217CE0145
:100E900001962115310519F4855F974102C0821B27
:100EA000930B9A83898389819A819093D716809333
:100EB000D8161ADF8091B216882321F081E0809342
:100EC000D91602C01092D916809118058093DA16AF
:100ED000809119058093DB1680914002882321F0D0
:100EE00081E08093DC1602C01092DC1680916005D0
:100EF00090916105A0916205B0916305B093DD16F4
:100F00008091600590916105A0916205B0916305A3
:100F1000A093DE168091600590916105A091620515
:100F2000B09163059093DF16809160059091610503
:100F3000A0916205B09163058093E01680915C05F5
:100F400090915D05A0915E05B0915F05B093E116AB
:100F500080915C0590915D05A0915E05B0915F0563
:100F6000A093E21680915C0590915D05A0915E05CD
:100F7000B0915F059093E31680915C0590915D05BB
:100F8000A0915E05B0915F058093E41680914202C6
:100F90008093E516809174059091750520917605F2
:100FA000309177053093E6162093E7169093E81674
:100FB0008093E916809170059091710520917205DA
:100FC000309173053093EA162093EB169093EC164C
:100FD0008093ED1680916A0590916B0520916C05C8
:100FE00030916D053093EE162093EF169093F01626
:100FF0008093F116809166059091670520916805B0
:10100000309169053093F2162093F3169093F416FD
:101010008093F51603E410E023EB36E140E062E054
:1010200080E0B4D40F900F90DF91CF911F910F917A
:101030000895CF93C82F60E03BD7C43279F0C53212
:10104000C1F0C33201F50E949F1060938105709337
:101050008205809383059093840515C00E949F109C
:1010600060937D0570937E0580937F059093800546
:101070000AC00E949F106093790570937A0580934F
:101080007B0590937C05CF91089584E2D2DF72C4F2
:101090000895F8948091E7029091E8027894891B72
:1010A00008952091E90230E02F5F3F4FA9015527B5
:1010B000F8946091EA02789470E046175707C1F3FC
:1010C000FA01EF54FA4E80832093E90280913101B6
:1010D0008062809331010895F8949091E7028091A5
:1010E000E802981304C0789480E092E00895789420
:1010F0008091E80290E00196FC01FF278093E802CE
:10110000EF54FB4E20818091B01490E0982F8827F7
:10111000820F911D0895F8941092E7021092E80250
:101120001092E9021092EA02789480933401E1E38C
:10113000F1E0808188698083E2E3F1E0808186606C
:1011400080830895F8948091E3029091E40278946A
:10115000891B08952091E50230E02F5F3F4FA901E0
:101160005527F8946091E602789470E04617570787
:10117000C1F3FA01E055FC4E80832093E502809193
:10118000D10080628093D1000895F8949091E30299
:101190008091E402981304C0789480E092E008956E
:1011A00078948091E40290E00196FC01FF278093FF
:1011B000E402E055FD4E20818091AF1290E0982F1F
:1011C0008827820F911D0895F8941092E3021092DF
:1011D000E4021092E5021092E60278948093D40023
:1011E000E1EDF0E0808188698083E2EDF0E08081CC
:1011F0008660808308950F931F93CF93C82F87FF36
:1012000076C080914202982F9F77C6FF5FC0892FDA
:1012100080648093420260E0C5FF18C086E148D632
:1012200060E087E145D660E088E142D660E089E190
:101230003FD661E08AE13CD661E08BE139D681E0BE
:101240008093430280914202806223C08AE130D6BB
:1012500060E08BE12DD660E08CE12AD660E08DE184
:1012600027D660E088E124D660E089E121D661E0FC
:1012700086E11ED661E087E11BD681E080934302C0
:1012800010926F058091420282FD02C08F7D01C0E5
:101290008B7D8093420280917805C4FF0BC0811141
:1012A00026C08FE091DF81E0809378058091420233
:1012B000806109C08823D9F08FE786DF1092780516
:1012C000809142028F7E8093420211C08F7380937F
:1012D00042021092430260E086E1EAD560E087E1D5
:1012E000E7D560E08AE1E4D560E08BE1E1D5C3FFBA
:1012F00076C080914202982F977FC2FF5FC0892FEE
:1013000084608093420260E0C1FF18C086E1D0D5BE
:1013100060E087E1CDD560E088E1CAD560E089E191
:10132000C7D561E08CE1C4D561E08DE1C1D581E034
:1013300080936F0580914202826023C08AE1B8D514
:1013400060E08BE1B5D560E08CE1B2D560E08DE185
:10135000AFD560E086E1ACD560E087E1A9D561E07A
:1013600088E1A6D561E089E1A3D581E080936F058E
:10137000109243028091420286FD02C08D7F01C01F
:101380008D7B8093420280916E05C0FF0BC081115E
:1013900026C08FE0C0DE81E080936E05809142021E
:1013A000816009C08823D9F08FE7B5DE10926E0501
:1013B000809142028E7F8093420211C0837F80938E
:1013C000420210926F0560E088E172D560E089E129
:1013D0006FD560E08CE16CD560E08DE169D58091DE
:1013E000430281110BC090916F05911107C080914C
:1013F0006F05811108C01092440205C091E09093DE
:1014000044028823A1F301E010E022E432E042E04C
:1014100063E080E0BBD2CF911F910F910895F894C3
:101420008091E1029091E2027894891B8F73089574
:1014300081E080936505F3DF809364050895F89457
:101440009091E1028091E202981304C0789480E0C8
:1014500092E0089578948091E20290E001968F7373
:1014600099278093E202FC01E159FD4E2081809191
:101470006E1290E0982F8827820F911D0895F8949E
:101480008091D9029091DA022091DB023091DC0246
:101490007894821B930B937008952091DD02309114
:1014A000DE022F5F3F4F3370F8944091DF0250917E
:1014B000E002789424173507B9F3F901E259F14FA6
:1014C00080833093DE022093DD028091C100806230
:1014D0008093C1000895F8942091D9023091DA02E6
:1014E0008091DB029091DC022817390721F478946F
:1014F00080E092E008957894E091DB02F091DC02C4
:101500003196F370E259F54F208180916D0A90E099
:10151000982F8827820F911D0895F8942091D90261
:101520003091DA028091DB029091DC0228173907B2
:1015300021F4789480E092E0089578948091DB0221
:101540009091DC02019693709093DC028093DB0211
:10155000FC01E259F54F208180916D0A90E0982FAF
:101560008827820F911D08951F920F920FB60F9238
:1015700011240BB60F928F939F93EF93FF9390914B
:10158000E9028091EA02981771F08091EA0290E0F6
:101590000196FC01FF278093EA02EF54FA4E808106
:1015A0008093360105C0809131018F7D8093310198
:1015B000FF91EF919F918F910F900BBE0F900FBEF7
:1015C0000F901F9018951F920F920FB60F92112433
:1015D0000BB60F922F933F934F935F936F937F932D
:1015E0008F939F93EF93FF932091300130913601B9
:1015F00028718091E70290E00196AC015527609137
:10160000E80270E04617570739F08093E702FA01C5
:10161000EF54FB4E308301C024E02093B014FF91BF
:10162000EF919F918F917F916F915F914F913F913A
:101630002F910F900BBE0F900FBE0F901F9018951B
:101640001F920F920FB60F9211240BB60F928F9329
:101650009F93EF93FF939091E5028091E602981794
:1016600071F08091E60290E00196FC01FF278093E3
:10167000E602E055FC4E80818093D60005C0809143
:10168000D1008F7D8093D100FF91EF919F918F9139
:101690000F900BBE0F900FBE0F901F9018951F92CA
:1016A0000F920FB60F9211240BB60F922F933F9308
:1016B0004F935F936F937F938F939F93EF93FF93DA
:1016C0002091D0003091D60028718091E30290E003
:1016D0000196AC0155276091E40270E04617570768
:1016E00039F08093E302FA01E055FD4E308301C0EA
:1016F00024E02093AF12FF91EF919F918F917F9102
:101700006F915F914F913F912F910F900BBE0F9072
:101710000FBE0F901F9018951F920F920FB60F9249
:1017200011240BB60F928F939F93EF93FF93909199
:101730005B0580915A05981779F080915A0590E0E1
:1017400001968F73992780935A05FC01E65EFA4F44
:1017500080818093CE0005C08091C9008F7D8093E9
:10176000C900FF91EF919F918F910F900BBE0F9049
:101770000FBE0F901F9018951F920F920FB60F92E9
:1017800011240BB60F922F933F934F935F938F9338
:101790009F93EF93FF932091C8003091CE00287162
:1017A0008091E10290E001968F7399274091E202C7
:1017B00050E08417950739F08093E102FC01E1596C
:1017C000FD4E308301C024E020936E12FF91EF9113
:1017D0009F918F915F914F913F912F910F900BBEF1
:1017E0000F900FBE0F901F9018951F920F920FB67B
:1017F0000F9211240BB60F922F933F938F939F93C9
:10180000EF93FF932091DD023091DE028091DF02A1
:101810009091E0022817390789F08091DF029091BA
:10182000E002019693709093E0028093DF02FC0146
:10183000E259F14F80818093C60005C08091C100BC
:101840008F7D8093C100FF91EF919F918F913F9188
:101850002F910F900BBE0F900FBE0F901F901895F9
:101860001F920F920FB60F9211240BB60F922F9367
:101870003F934F935F938F939F93EF93FF932091A9
:10188000C0003091C60028718091D9029091DA028F
:10189000019693704091DB025091DC02841795070A
:1018A00049F09093DA028093D902FC01E259F54F96
:1018B000308301C024E020936D0AFF91EF919F9146
:1018C0008F915F914F913F912F910F900BBE0F9091
:1018D0000FBE0F901F9018953FB7F89480913D1759
:1018E00090913E17A0913F17B091401726B5A89B45
:1018F00005C02F3F19F00196A11DB11D3FBFBA2FA2
:10190000A92F982F8827820F911DA11DB11DBC0101
:10191000CD0142E0660F771F881F991F4A95D1F7C6
:101920000895CF93DF93EC01198218821B821A82EB
:101930001D821C8260E070E00E94E50228813981EE
:1019400081110FC02115310519F0C9010E94EE1D4A
:10195000198218821D821C821B821A82DF91CF910C
:1019600008951D821C826AEB72E0C901DF91CF915C
:101970000C941D22CF93DF93CDE7D2E08991882389
:1019800011F08BDDFBCFDF91CF910895AF92BF9225
:10199000CF92DF92EF92FF920F931F93CF93DF933B
:1019A000CDB7DEB7ADB6BEB6680196E0C90ED11CA4
:1019B000ADB7BEB7AC19BD090FB6F894BEBF0FBE28
:1019C000ADBFEDB7FEB731967F019DE311969C93B5
:1019D000F8013296D7011196FC9311979CEF9C0D5C
:1019E00012969C93B0E48B9F600D1124F7016383E2
:1019F00044830115110561F0F901ADB7BEB7169624
:101A0000200F311FE217F30719F081918D93FACF60
:101A10000B5F1F4FF701319680E09F012E193F09A0
:101A20002017310718F49191890FF7CFF701E00FD4
:101A3000F11F808384E2FDDA8701C8018E199F09B6
:101A40008C159D0528F4D8018D918D0126DDF5CFEB
:101A50000FB6F894BEBE0FBEADBEDF91CF911F9101
:101A60000F91FF90EF90DF90CF90BF90AF900895CF
:101A70003091B117313208F04BC080918D17811130
:101A8000FCCF9091B01722E020938D1721E0209396
:101A90008C172FEF20938B1710928A17309389178A
:101AA000E0E9F7E1A9E6B7E120E0321721F0419142
:101AB0004D932F5FFACF1092681720916817990FF6
:101AC000922B9093681790916717913061F4109260
:101AD0006717909168179093BB009091BC0093FD9D
:101AE000F8CF95EC01C095EE9093BC0090918D17C6
:101AF0009230E1F390918B179F3F79F080918B1793
:101B0000803241F080918B17803331F084E005C042
:101B100081E003C082E001C083E010928F17109231
:101B2000B11710928E1708953F924F925F926F9265
:101B30007F928F929F92AF92BF92CF92DF92EF925D
:101B4000FF920F931F93CF93DF934B015C016A01C8
:101B50008901AB01BC01420F531F611D711D8091B2
:101B6000E4179091E517A091E617B091E717841755
:101B70009507A607B70708F4AAC0772473946624CC
:101B80006A9495EE592E25EC422E0115110509F4A3
:101B9000A0C0C091DF17D091E017CE010197882136
:101BA0009921C81BD90BC8010132110510F080E240
:101BB00090E08C179D0708F4EC01D501C40100905A
:101BC000E11704C0B695A795979587950A94D2F723
:101BD000F090DB17F82A70928E17F092B0171092DF
:101BE0008F171092B1178091E2179091E317029727
:101BF00041F499278B2D7A2D692D86EB97E10E9470
:101C00003702682D86EB97E10E94370231DF8111A0
:101C100061C080918D178111FCCF9C2F70928D1720
:101C200070928C1760928B1710928A178C2F8150AC
:101C3000809389177092681780916817FF0CF82AB3
:101C4000F092681780916717813069F410926717D6
:101C5000809168178093BB008091BC0083FDF8CF12
:101C60004092BC0002C05092BC0080918D17813020
:101C7000E1F380918A17891710F490918A17A9E6E9
:101C8000B7E1E7E4F7E180E0891721F02D91219396
:101C90008F5FFACF1092461780934517312CE32CB3
:101CA000F12CEC16FD0650F4EC0CFD1C86EB97E1D4
:101CB0000E94EF01F70180833394F1CF8C0E9D1EBB
:101CC000A11CB11CCC0EDD1E0C1B1D0B5ECF89E0D0
:101CD00001C080E0DF91CF911F910F91FF90EF90B5
:101CE000DF90CF90BF90AF909F908F907F906F903C
:101CF0005F904F903F900895EF92FF920F931F9344
:101D0000CF93DF938B01877098E0899FB0011124F6
:101D1000606482EC97E10E94950583E790E001976B
:101D2000F1F7E801085F1F4F8BE9E82EF12C69916C
:101D300082EC97E10E947902C7010197F1F7C01781
:101D4000D107A9F7DF91CF911F910F91FF90EF90ED
:101D500008950F931F93CF93DF938C01C0E0D0E0E1
:101D6000F801EC0FFD1F6491662341F082EC97E1CE
:101D70000E947902892B11F02196F2CFCE01DF91DA
:101D8000CF911F910F910895CF93DF93CDB7DEB719
:101D900028970FB6F894DEBF0FBECDBF40917502F5
:101DA0005091760260917702709178024D835E8344
:101DB0006F8378874091790250917A0260917B021B
:101DC00070917C0249835A836B837C832091C9176D
:101DD000821710F08FEF820F3091CA1790E0FE014A
:101DE000E80FF91F303121F4243011F4618101C072
:101DF0006581606882EC97E128960FB6F894DEBFA3
:101E00000FBECDBFDF91CF910C949505FC0183816E
:101E10008823B9F0962F6181609569236083828160
:101E200091E090938E178093B01710928F171092B5
:101E3000B11786EB97E10E9437021ADE282F30E0B7
:101E400002C020E030E081E090E0232B11F080E040
:101E500090E00895EF92FF920F931F93CF938C0120
:101E6000FC0184E0C0E060FF02C09589C92B669543
:101E7000815031968111F7CF413011F4F801448936
:101E8000F8018585C82BC42B7801FEE0EF0EF11C0C
:101E9000F80162896C2BC701B9DFF801628960958E
:101EA0006C23C701CF911F910F91FF90EF90AECFA0
:101EB000362F90E0FC01EF5AFD4F4491FC01E55FA5
:101EC000FD4F2491FC01EB53FE4F9491992309F4AB
:101ED0006CC0442309F455C050E0FA013197E23157
:101EE000F10508F04EC08827EE57FF4F8F4F0C9436
:101EF0001F21809180008F7707C0809180008F7DA7
:101F000003C080918000877F809380003AC084B5B1
:101F10008F7702C084B58F7D84BD33C08091B000BF
:101F20008F7703C08091B0008F7D8093B00029C06F
:101F3000809190008F7707C0809190008F7D03C0C3
:101F400080919000877F809390001BC08091A000BB
:101F50008F7707C08091A0008F7D03C08091A00083
:101F6000877F8093A0000DC0809120018F7707C0EC
:101F7000809120018F7D03C080912001877F809315
:101F80002001E92FF0E0EE0FFF1FE555FE4FA59170
:101F9000B4919FB7F894311104C08C9120952823F7
:101FA00002C0EC912E2B2C939FBF089510924617E0
:101FB0001092451710928F171092B11710928D172B
:101FC00081E080938C171092671761E084E170DFE5
:101FD00061E085E16DDFE9EBF0E080818E7F808359
:101FE00080818D7F808388E48093B80085E480932E
:101FF000BC008DED91E090934417809343178EEDD4
:1020000091E090934217809341170895CF93DF9307
:1020100090E0FC01E55FFD4F2491FC01EB53FE4F86
:102020008491882361F190E0880F991FFC01EF569D
:10203000FE4FC591D491FC01E555FE4FA591B49199
:10204000611109C09FB7F894888120958223888305
:10205000EC912E230BC0623061F49FB7F894888115
:10206000322F309583238883EC912E2B2C939FBFA6
:1020700006C08FB7F894E8812E2B28838FBFDF919D
:10208000CF910895863308F0865390917B00282FD6
:102090002870977F922B90937B0020914A0290E4C6
:1020A000299F900111248770822B80937C0080915E
:1020B0007A00806480937A0080917A0086FDFCCF5C
:1020C000809178002091790090E0922B08958F9272
:1020D0009F92AF92BF92CF92DF92EF92FF926B01ED
:1020E0007C01FADB4B015C01C114D104E104F10471
:1020F000E9F0F2DBDC01CB0188199909AA09BB09D7
:10210000883E9340A105B10578F321E0C21AD108B9
:10211000E108F10888EE880E83E0981EA11CB11C2E
:10212000C114D104E104F10421F7DECFFF90EF9058
:10213000DF90CF90BF90AF909F908F9008952FB772
:10214000F8946091391770913A1780913B179091EC
:102150003C172FBF0895F3DFE2EBF7E19083818313
:102160007283638308951F920F920FB60F9211240A
:102170002F933F938F939F93AF93BF938091391782
:1021800090913A17A0913B17B0913C173091EE1700
:1021900023E0230F2D3720F40196A11DB11D05C0AA
:1021A00026E8230F0296A11DB11D2093EE17809300
:1021B000391790933A17A0933B17B0933C1780912F
:1021C0003D1790913E17A0913F17B091401701968F
:1021D000A11DB11D80933D1790933E17A0933F170B
:1021E000B0934017BF91AF919F918F913F912F91E5
:1021F0000F900FBE0F901F901895CF93DF93CDB720
:10220000DEB7A0970FB6F894DEBF0FBECDBF7894AF
:1022100084B5826084BD84B5816084BD85B58260EB
:1022200085BD85B5816085BD80916E00816080939C
:102230006E00109281008091810082608093810005
:102240008091810081608093810080918000816015
:10225000809380008091B10084608093B100809170
:10226000B00081608093B000809191008260809383
:102270009100809191008160809391008091900005
:102280008160809390008091A10082608093A10082
:102290008091A10081608093A1008091A000816065
:1022A0008093A00080912101826080932101809120
:1022B00021018160809321018091200181608093C0
:1022C000200180917A00846080937A0080917A0066
:1022D000826080937A0080917A00816080937A0096
:1022E00080917A00806880937A001092C10062E049
:1022F00082E08CDE62E083E089DE61E083E286DEFC
:1023000061E084E283DE61E085E280DE60E086E316
:102310007DDE83E20E94190884E20E94190885E2AA
:102320000E94190861E086E171DE61E087E16EDEFE
:1023300061E088E16BDE61E089E168DE61E08AE10D
:1023400065DE61E08BE162DE61E08CE15FDE61E031
:102350008DE15CDE88E19AE09093010280930002B7
:1023600080916A008C7F826080936A00EC9A8AE890
:1023700092E0909303028093020280916A00837F2F
:10238000886080936A00ED9AF8941092DA021092B5
:10239000D9021092DC021092DB021092DE0210923F
:1023A000DD021092E0021092DF02789483E08093C5
:1023B000C4008091C10088698093C1008091C200EF
:1023C00086608093C200F8941092E1021092E202BB
:1023D00010925B0510925A0578948FE78093CC0099
:1023E0008091C90088698093C9008091CA00866085
:1023F0008093CA008FE70E94E4088FE70E948B0851
:10240000D5DD8CE08093B8008091DB1791E090934C
:102410008E178093B01710928F171092B11780917A
:10242000E2179091E317029729F460E086EB97E1B9
:102430000E94370260E086EB97E10E94370218DBCA
:102440008823B1F11092D8028FEF8093410201E00E
:1024500010E021E432E04AEF6FE080E097DA10927A
:1024600015031092160310920D0310920E03109292
:102470000F03109210031092110310921203109286
:102480001303109214031092050310920603109286
:102490000703109208031092090310920A03109286
:1024A0000B0310920C031092040310920303A1C0BB
:1024B00081E08093D80222E030E045E153E060E023
:1024C00070E0CB0131DB882371F08093410201E0A1
:1024D00010E021E432E04CEF6FE080E057DA109238
:1024E00015031092160328E030E04DE053E062E05F
:1024F00070E080E090E018DB8823D1F08093410207
:1025000001E010E021E432E04CEF6FE080E03EDAE1
:1025100010920D0310920E0310920F0310921003ED
:1025200010921103109212031092130310921403CD
:1025300028E030E045E053E06AE070E080E090E0C1
:10254000F3DA8823D1F08093410201E010E021E426
:1025500032E04CEF6FE080E019DA10920503109240
:1025600006031092070310920803109209031092B9
:102570000A0310920B0310920C0321E030E044E0B8
:1025800053E06FEF70E080E090E0CEDA882361F0F6
:102590008093410201E010E021E432E04CEF6FE073
:1025A00080E0F4D91092040310920303C12CD12CC3
:1025B000760121E030E0AE014F5F5F4FC701B60109
:1025C000B3DA90E0009711F4898103C09195819569
:1025D000910990910303890F809303032FEFC21A8F
:1025E000D20AE20AF20A3FEFC316D104E104F10471
:1025F00001F720E044E064E182EC97E10E942606C6
:102600006FEF82EC97E10E94AF0261E082EC97E10C
:102610000E9495050BE31FE1C8010197F1F762E005
:1026200082EC97E10E949505C8010197F1F787E6D2
:1026300091E08FDB81E0A8DB82E591E08ADB82E03C
:10264000A3DB8DE391E085DB83E09EDB88E291E014
:1026500080DB68E372E080E04FDB60E372E081E002
:102660004BDB68E272E082E047DB60E272E083E02D
:1026700043DB68E172E084E03FDB60E172E085E02B
:102680003BDB81E080934A020E9474060E945C0654
:1026900081E0F8DCBC01990F880B990B611571057D
:1026A0008105910511F00E940A1FECE7F1E0AEEE02
:1026B000B2E084918D93319643E0A330B407C9F71B
:1026C00081E2E0E0F0E080935700E491E093EB02D8
:1026D000E2E0F0E080935700E491E093EC02E4E064
:1026E000F0E08093570084918093ED02F8948091FC
:1026F000DB029091DC029093DA028093D902789405
:10270000F8948091DF029091E0029093DE02809332
:10271000DD027894F8948091E2028093E10278944B
:10272000F89480915A0580935B057894F894809191
:10273000E4028093E3027894F8948091E602809317
:10274000E5027894F8948091E8028093E702789407
:10275000F8948091EA028093E902789460ED77E042
:1027600080E090E0B4DC81E0898301E010E09E012C
:102770002F5F3F4F40E060E080E008D98091420247
:102780000E94FB080E94AF069FE088E10FB6F89414
:10279000A895809360000FBE90936000A8950E945A
:1027A0003F0A892B09F4B7C083E20E9419080E94EE
:1027B0008D0A99278D33910539F0CE9709F0ABC07A
:1027C000CE010196AED845C04DB65EB6B8DC6B0101
:1027D0007C0110E00E943F0A029708F02DC41123EB
:1027E00009F41BC401E010E021E432E046E005C03A
:1027F00001E010E021E432E041E06FE080E0C6D883
:1028000002C00E94C9020FB6F8945EBE0FBE4DBE54
:1028100082C00E948D0A8A3009F18D30F9F08B8FC9
:102820001C8E0D811E810F5F1F4FB801CE010196D6
:102830000E94E502882369F029813A818D819E8179
:10284000BE01655E7F4F820F931F0E941D221E8373
:102850000D830E943F0A892BE1F3DBCF0E946B0AB4
:102860000A9711F40C94F91C0E946B0A0D9711F44D
:102870000C94F91C0D811E810038110510F00C9488
:10288000C91C0115110511F00C94BD1C1092860590
:102890008091850581112BC069EB72E086E895E097
:1028A0000E94131F07E113E0009711F00C94CE1C57
:1028B0008091850581111BC09DE5E92E92E0F92EDE
:1028C00000E010E0F701619171917F0187E193E0F1
:1028D0000E941422892B11F00C94F01C000F111F80
:1028E000F801EB5AFD4F0190F081E02D199580E839
:1028F000A6E8B5E01D928A95E9F7E7E1F3E020E06C
:1029000032E0119221503040E1F710928505898123
:102910009A810E94EE1D80914002882309F457C1DC
:1029200080916505882309F499C180916405882305
:1029300009F47EC0CDB6DEB68091640590E00496C1
:102940004DB75EB7481B590B0FB6F8945EBF0FBE6C
:102950004DBF6DB77EB76F5F7F4F7B01FCDB809112
:10296000B217D7018C938091B31711968C9311975E
:102970008091B41712968C9312978091B517139685
:102980008C9310E080916405181740F40E941F0A90
:10299000F701E10FF11D84831F5FF4CF00916405FF
:1029A00010E00C5F1F4F970141E067E081E00E945B
:1029B000C60C80916405909150069923F9F08C5FC4
:1029C0002DB73EB7482F50E044505109EDB7FEB740
:1029D000E41BF50B0FB6F894FEBF0FBEEDBF3196AA
:1029E000D701149694E0981720F44D9141939F5F7E
:1029F000FACF0FB6F8943EBF0FBE2DBF10926405FC
:102A00008091600590916105A0916205B091630588
:102A10000196A11DB11D8093600590936105A0935F
:102A20006205B09363050FB6F894DEBE0FBECDBE4F
:102A300080914F06882309F487C000914D061091BC
:102A40004E060115110509F47FC079DBC0904906D7
:102A5000D0904A06E0904B06F0904C069B01AC01EA
:102A60002C193D094E095F0969017A0120E030E027
:102A70000C151D052E053F0508F066C0609349063C
:102A800070934A0680934B0690934C060E94BF1E9B
:102A900023E030E040E050E00E942E20DC01CB013A
:102AA0000396A11DB11D80934806F12C0F2D10E057
:102AB0008091480690E09C012250310902171307CB
:102AC0009CF40E94BF1E085F194F2DEF30E040E0DC
:102AD00050E00E942E20DC01CB010196A11DB11D0A
:102AE000F8018083F394E2CF0197E8E0F6E020E07C
:102AF000AF01485056404817590718F43191230F39
:102B0000F7CFFC01E85FF94F208381E0809307064F
:102B10000E94BF1E20EB34E040E050E00E942E20D7
:102B2000DC01CB01845D9E4FAF4FBF4F90934E06AB
:102B300080934D062091480630E001E010E041E02E
:102B40006EE080E00E94C60C809107068823E1F1C8
:102B500020E080914806281700F5E22FF0E0E85FBA
:102B6000F94F308180915B0590E001968F73992732
:102B7000F89440915A05789450E084179507C1F372
:102B8000FC01E65EFA4F308380935B058091C900BB
:102B900080628093C9002F5FDCCF109248061092AC
:102BA000070680915C0590915D05A0915E05B0914E
:102BB0005F050196A11DB11D80935C0590935D0595
:102BC000A0935E05B0935F051092650547C00E9413
:102BD0000F0A882309F442C0CDB6DEB690E0049611
:102BE0002DB73EB7281B390B0FB6F8943EBF0FBE6A
:102BF0002DBF4DB75EB74F5F5F4F7A01ACDA809162
:102C0000B217D7018C938091B31711968C931197BB
:102C10008091B41712968C9312978091B5171396E2
:102C20008C9310E080916405181740F40E941F0AED
:102C3000F701E10FF11D84831F5FF4CF009164055C
:102C400010E00C5F1F4F970141E067E081E00E94B8
:102C5000C60C0FB6F894DEBE0FBECDBE8091440206
:102C6000882309F456C180914302882309F4A6C041
:102C70000E94A208F82E8823C9F000E060DA609371
:102C80005F0A7093600A8093610A9093620A1091C0
:102C90005E0A0E94C508E12FF0E0E25AF64F8083F9
:102CA0001F5F10935E0A0F5FF012E8CF48DA0091C1
:102CB0005F0A1091600A2091610A3091620ADC017A
:102CC000CB01801B910BA20BB30BD0905E0AC39774
:102CD000A105B10518F0D11011C430C0BFEFDB124F
:102CE0002DC00CC40FB6F8943EBF0FBE2DBF80910F
:102CF0005E09C11064C4823139F480914202806D52
:102D0000809342020E94FB0810925E0A8091740533
:102D100090917505A0917605B09177050196A11D5A
:102D2000B11D8093740590937505A0937605B093BB
:102D300077050FB6F8947EBE0FBE6DBE80915D081C
:102D40008823E1F10E94A208882309F45FC436C0F9
:102D500011111BC0B3940B2D10E080915B08909172
:102D60005C080817190788F4EAD96B017C01F8019F
:102D7000E25AF74F80810E94AA0810E00E94A20840
:102D8000B81630F3112309F465C410925C08109250
:102D90005B0810925D088091700590917105A0917B
:102DA0007205B09173050196A11DB11D8093700548
:102DB00090937105A0937205B093730580916F0590
:102DC000882309F4A6C00E944908F82E8823C9F078
:102DD00000E0B5D96093560870935708809358085F
:102DE00090935908109155080E946C08E12FF0E06B
:102DF000EB5AF84F80831F5F109355080F5FF01256
:102E0000E8CF9DD900915608109157082091580895
:102E100030915908DC01CB01801B910BA20BB30B45
:102E2000D0905508C397A105B10518F0D11082C400
:102E300030C0BFEFDB122DC07DC40FB6F8943EBF8B
:102E40000FBE2DBF80915507C110D7C4823139F410
:102E5000809142028D60809342020E94FB08109292
:102E6000550880916A0590916B05A0916C05B09111
:102E70006D050196A11DB11D80936A0590936B05A8
:102E8000A0936C05B0936D050FB6F8947EBE0FBE8F
:102E90006DBE809154068823E1F10E944908882381
:102EA00009F4D7C436C011111BC0B3940B2D10E028
:102EB00080915206909153060817190788F43FD95C
:102EC0006B017C01F801EB5AF94F80810E94510897
:102ED00010E00E944908B81630F3112309F4DDC44C
:102EE0001092530610925206109254068091660575
:102EF00090916705A0916805B09169050196A11DA3
:102F0000B11D8093660590936705A0936805B09303
:102F1000690515D96B017C016093670A7093680A93
:102F20008093690A90936A0A80914902882321F16B
:102F30008091630A9091640AA091650AB091660A33
:102F4000B701A601481B590B6A0B7B0B8091470206
:102F500090914802A0E0B0E0481759076A077B0744
:102F600058F0C092630AD092640AE092650AF09227
:102F7000660A85E20E9419088090450290904602F8
:102F8000A12CB12C8091810590918205A09183059F
:102F9000B0918405A7019601281B390B4A0B5B0BE6
:102FA000281539054A055B0520F061E083E20E949F
:102FB000580F80917D0590917E05A0917F05B0917D
:102FC0008005B701A601481B590B6A0B7B0B4815FE
:102FD00059056A057B0520F061E084E20E94580FE4
:102FE0008091790590917A05A0917B05B0917C053F
:102FF000C81AD90AEA0AFB0AC814D904EA04FB046D
:1030000020F061E085E20E94580F80E090E0892B7B
:1030100009F4C4CB0E940000C1CB91D8DC01CB01E4
:103020008C199D09AE09BF0911E0893C9105A105E4
:10303000B10508F0CFCBCDCB1111D4CB0E948D0AB6
:10304000382E0E948D0A282E38A21F8EAF8CB8A071
:10305000A80EB11C35015FEF651A750A62E0A61A69
:10306000B1087BEFA71673E0B70608F0C1CB67D8AD
:103070006B017C0110C01111B5CB61D8DC01CB0113
:103080008C199D09AE09BF0911E085369105A1058E
:10309000B10508F410E00E943F0A8615970558F321
:1030A0001111A0CB0E948D0A6C010E948D0A8C0127
:1030B000C50101979E8F8D8FADB7BEB7AA19BB0909
:1030C0000FB6F894BEBF0FBEADBFEDB7FEB73196D9
:1030D0007F01A114B10479F04F010E948D0AD4013F
:1030E0008D934D01CD018E199F098A159B05A8F37B
:1030F0009924939401C0912C0E948D0A320C3C0CAF
:10310000300E992051F0F7019F012E193F092A1521
:103110003B0518F49191390EF7CF831531F001E09A
:1031200010E021E432E045E068CB8C2D8F70F60191
:10313000FF2744E0F595E7954A95E1F7E370E23023
:1031400009F471C1E33009F498C1E13009F430C1E8
:1031500090E0FC018827EE58FF4F8F4F0C941F2101
:103160000E94D7020E94AF064ECB112701301105F5
:10317000E1F148F00230110509F460C00330110597
:1031800009F454C074C1992009F452C0B4E0AB16DC
:10319000B10408F44DC0F701808190E0982F882792
:1031A0002181820F911D009719F41092490207C0E6
:1031B000909348028093470281E080934902D701AF
:1031C00012968C91129790E0982F882713962C9145
:1031D000820F911D009721F0909346028093450243
:1031E00004E010E0970140E01FC0992009F1F701C9
:1031F0008081882339F08130D9F4809340020E9485
:103200005C060EC010924002109280001092810065
:10321000109285001092840010928900109288000C
:1032200001E010E0970141E063E0E8CA91100DC0B1
:1032300001E010E021E432E044E0DFCA9920C1F36C
:10324000D7018C910E94FB08DECAF70180818111B1
:1032500003C0109250060BC181E08093500607C155
:1032600011270130110509F453C048F0023011054F
:1032700009F456C00330110509F45AC0F8C0809112
:1032800015038983809116038A8380910D038B83B4
:1032900080910E038C8380910F038D8380911003A6
:1032A0008E83809111038F83809112038887809190
:1032B00013038987809114038A87809105038B8784
:1032C000809106038C87809107038D878091080386
:1032D0008E87809109038F8780910A03888B809164
:1032E0000B03898B80910C038A8B1B8A1C8A1D8A95
:1032F0001E8A8DE58F8B8CE6888F8DEC898F8FEF02
:103300008A8F0AE110E09E012F5F3F4F40E01EC010
:103310000E94AB1004E010E022EB37E141E016C060
:103320000E94740602E010E028E135E042E00EC0A1
:10333000809104039091030389130AC019828A8340
:1033400002E010E09E012F5F3F4F43E065E056CA68
:1033500089839A8302E010E09E012F5F3F4F4BEF7D
:103360004CCA013009F083C0D7018C91813099F4A7
:1033700080934F0604D520EB34E040E050E06ED659
:10338000DC01CB01845D9E4FAF4FBF4F90934E0643
:1033900080934D0638CA10924F0610924E06109236
:1033A0004D0631CA01E010E027E135E040E025CAD2
:1033B000863009F09DC011270130110509F063C066
:1033C000B4E06B1A7108E0E46E16710408F030CFB7
:1033D00020E0822F90E08A159B0550F4FC01E85F05
:1033E000F94FD701A80FB91F8C9180832F5FF1CFC0
:1033F000A0924806E8E0F6E080E09F0128503640C1
:103400004D8D5E8D2417350718F49191890FF5CFF6
:10341000ED8DFE8DE85FF94F90819813808381E0F8
:1034200080930706F0C9863009F062C01127013089
:10343000110549F554E0651A71086FEF66167104BD
:1034400011F008F0F5CED701EEE5F8E0CF018E558A
:1034500098408A159B0518F48D918193F7CFB0920F
:103460005C08A0925B0881E080935D08CCC901E014
:1034700010E021E432E043E0C0C98630C9F51127ED
:1034800001301105B1F00130110558F0023011057D
:1034900071F7E093060601E010E026E036E042E036
:1034A00025C0E093060601E010E026E036E040E0AB
:1034B0001DC074E0671A71088FEF6816710411F06F
:1034C00008F0B6CEF701A5E5B6E0CD0185559640EA
:1034D0008A159B0518F481918D93F7CFB09253060E
:1034E000A092520681E0809354068DC966E086C999
:1034F00001E010E021E432E042E07FC96DB67EB623
:103500008D2C912C54E0850E911C6DB77EB76819F7
:1035100079090FB6F8947EBF0FBE6DBF8DB79EB709
:1035200001967C010E94AB10C0907805D7011496DB
:103530005D01C1104CC08091B217F701808380916A
:10354000B31781838091B41782838091B5178383E9
:10355000AEE5B9E0F50180E0D81621F09D91919398
:103560008F5FFACF84019701CC2011F042E001C0B7
:1035700040E067E082E00E94C60C809150068823FC
:1035800009F4B5CB44E04D0D2DB73EB7842F90E044
:1035900004976DB77EB7681B790B0FB6F8947EBFA2
:1035A0000FBE6DBFEDB7FEB7319684E0841708F00B
:1035B00099CBD5019D915D0191938F5FF7CF8E3FA0
:1035C00009F0A2CB809142028F7E806C99CB8091D2
:1035D000B217F70180838091B31781838091B4176C
:1035E00082838091B5178383AEE5B8E0F50180E072
:1035F000D81621F09D9191938F5FFACF84019701A6
:1036000041E067E082E00E94C60C95CF809178058A
:103610008823F1F000915E08E5E6F2E085E792E0AC
:103620002191021731F18E179F07D1F701E010E0C9
:1036300021E432E044E06FE080E00E94C60C10928A
:103640005C0810925B0810925D0810925A08A3CB98
:10365000B12C81CB0E949F10DC01CB018C199D09FC
:10366000AE09BF0911E04597A105B10508F086CB69
:1036700084CB0E949F106B017C0110E00E94A20885
:10368000811105C0112359F110925A0807C0111178
:10369000FBCF0E94C50881E080935A0880915A08A8
:1036A000882309F478CBB12C0B2D10E080915B08B6
:1036B00090915C080817190710F60E949F106B0183
:1036C0007C01F801E25AF74F80810E94AA0810E0BD
:1036D0000E94A208B81650F11111B1CF19C0802F65
:1036E0000E94AA0865E070E080E090E00E94671008
:1036F0000E949F10DC01CB018C199D09AE09BF0906
:1037000011E0893C9105A105B10508F0B7CFB5CF0F
:103710000E949F10DC01CB018C199D09AE09BF09E5
:1037200011E00697A105B10598F6D1CF111187CF09
:10373000B394BACF6DB67EB68D2C912CF4E08F0E7B
:10374000911C2DB73EB7281939090FB6F8943EBF22
:103750000FBE2DBF4DB75EB74F5F5F4F7A010E941E
:10376000AB10C0906E05B7016C5F7F4F5B01C1105D
:103770004CC08091B217F70180838091B317818389
:103780008091B41782838091B5178383A5E5B7E054
:10379000F50180E0D81621F09D9191938F5FFACFCB
:1037A00084019701CC2011F042E001C040E067E0C5
:1037B00083E00E94C60C80915006882309F442CB16
:1037C00044E04D0D2DB73EB7842F90E004976DB7C0
:1037D0007EB7681B790B0FB6F8947EBF0FBE6DBF26
:1037E000EDB7FEB7319684E0841708F026CBD501FB
:1037F0009D915D0191938F5FF7CF8E3F09F02FCBA5
:10380000809142028E7F8C6026CB8091B217D701C7
:103810008C938091B31711968C9311978091B41764
:1038200012968C9312978091B51713968C93A5E5F9
:10383000B6E0FB0180E0D81621F09D9191938F5F57
:10384000FACF8401970141E067E083E00E94C60C53
:1038500090CF80916E058823F1F000915506E5E642
:10386000F2E085E792E02191021731F18E179F0770
:10387000D1F701E010E021E432E044E06FE080E0C5
:103880000E94C60C109253061092520610925406D3
:10389000109251062BCBB12C09CB0E949F10DC015A
:1038A000CB018C199D09AE09BF0911E04597A1050F
:1038B000B10508F00ECB0CCB0E949F106B017C0170
:1038C00010E00E944908811105C0112359F110929E
:1038D000510607C01111FBCF0E946C0881E0809354
:1038E000510680915106882309F400CBB12C0B2D91
:1038F00010E080915206909153060817190710F6B0
:103900000E949F106B017C01F801EB5AF94F8081F6
:103910000E94510810E00E944908B81650F1111198
:10392000B1CF19C0802F0E94510865E070E080E09F
:1039300090E00E9467100E949F10DC01CB018C195F
:103940009D09AE09BF0911E0893C9105A105B105AA
:1039500008F0B7CFB5CF0E949F10DC01CB018C19C6
:103960009D09AE09BF0911E00697A105B10598F6BA
:10397000D1CF111187CFB394BACF69817A81A801D1
:1039800086E895E061D5F801EA57FA4F10820C9469
:10399000481481E0809385050C944814A7E1B5E0B4
:1039A000A017B10711F40C945814FC0101900020E9
:1039B000E9F73197E81BF90BE034F10560F4BC013D
:1039C000C8013BD569EB72E080E090E02CD2005C4E
:1039D0001F4F0C94541481E0809385050C94581467
:1039E0000F5F1F4F0430110511F00C9462140C94FA
:1039F00077140E948D0A0C943A148091E8179091E4
:103A0000E917ECC0E6EBF7E11382128288EE93E04F
:103A1000A0E0B0E084839583A683B78387E992E032
:103A20009183808388EE97E10E94910CEBEDF7E1A2
:103A300020E230E03283218381E083833583248355
:103A400090E5908340E050E160E070E0418752876C
:103A50006387748722E030E0308727839CE0968379
:103A6000E2ECF7E11382128229EA32E0318320830B
:103A7000108A9FEF97871686118A97E2938714869C
:103A800015861286118694E0928B92E0938B848B3C
:103A900080E1858B80E2868B80E4878B80E8808F55
:103AA00040E050E063E0CF010C9465020F931F9358
:103AB000CF93DF938230910510F482E090E0E091A3
:103AC000F317F091F41720E030E0A0E0B0E0309779
:103AD00019F1408151810281138148175907C8F0BB
:103AE0008417950769F4109731F012960C9312978A
:103AF00013961C9327C00093F3171093F41722C05A
:103B00002115310519F04217530718F49A01BD0128
:103B1000EF01DF01F801DBCF21153105F9F0281B9A
:103B2000390B2430310580F48A819B816115710540
:103B300021F0FB019383828304C09093F417809358
:103B4000F317FE01329644C0FE01E20FF31F81938A
:103B5000919322503109398328833AC02091F1177B
:103B60003091F217232B41F420914D0230914E02F7
:103B70003093F2172093F11720914B0230914C02B1
:103B80002115310541F42DB73EB740914F025091B8
:103B90005002241B350BE091F117F091F217E21758
:103BA000F307A0F42E1B3F0B2817390778F0AC0160
:103BB0004E5F5F4F2417350748F04E0F5F1F50933D
:103BC000F2174093F1178193919302C0E0E0F0E087
:103BD000CF01DF91CF911F910F910895CF93DF9384
:103BE000009709F481C0FC01329713821282A091E0
:103BF000F317B091F417109781F420813181820F6F
:103C0000931F2091F1173091F2172817390751F5BA
:103C1000F093F217E093F11767C0ED0120E030E078
:103C2000CE17DF0740F44A815B819E0141155105A3
:103C3000F1F0EA01F5CFD383C28340815181840F33
:103C4000951FC817D90759F488819981840F951F4A
:103C50000296918380838A819B819383828321153D
:103C6000310529F4F093F417E093F3173DC0E9010F
:103C7000FB83EA8349915991C40FD51FEC17FD07C7
:103C800061F480819181840F951F0296E9019983E7
:103C90008883828193819B838A83E0E0F0E012969F
:103CA0008D919C911397009719F0FD01DC01F7CFDE
:103CB0008D919C9111979D012E5F3F4F820F931F15
:103CC0002091F1173091F2172817390769F43097CE
:103CD00029F41092F4171092F31702C01382128283
:103CE000B093F217A093F117DF91CF9108958F92BF
:103CF0009F92AF92BF92CF92DF92EF92FF92CF93BB
:103D0000DF93EC01688179818A819B81611571055E
:103D10008105910521F464E279ED8BE597E02DE1D1
:103D200033EF41E050E09AD149015A019B01AC01C7
:103D3000A7EAB1E4AFD16B017C01ACEEB4EFA50111
:103D40009401B4D1DC01CB018C0D9D1DAE1DBF1DB6
:103D5000B7FF03C00197A109B04888839983AA835C
:103D6000BB83BC01CD019F77DF91CF91FF90EF9096
:103D7000DF90CF90BF90AF909F908F9008958F92DB
:103D80009F92AF92BF92CF92DF92EF92FF9260919B
:103D90005102709152028091530290915402611528
:103DA00071058105910521F464E279ED8BE597E0D9
:103DB0002DE133EF41E050E051D149015A019B011F
:103DC000AC01A7EAB1E466D16B017C01ACEEB4EFC3
:103DD000A50194016BD1DC01CB018C0D9D1DAE1DA5
:103DE000BF1DB7FF03C00197A109B04880935102DE
:103DF00090935202A0935302B0935402BC01CD01A0
:103E00009F77FF90EF90DF90CF90BF90AF909F9003
:103E10008F900895609351027093520280935302E1
:103E20009093540208954FEE57E100C0FA01A1911A
:103E3000B081009719F41097E1F0CD01DC01CD01BC
:103E40000D90002011F4C00113C0FB012191222329
:103E500019F02015D9F7F3CFFB012191201519F4A2
:103E60001E92119606C02223C1F70D900020A1F7E3
:103E7000D001FA01A193B0830895E89409C097FB9B
:103E80003EF490958095709561957F4F8F4F9F4F31
:103E90009923A9F0F92F96E9BB279395F695879575
:103EA00077956795B795F111F8CFFAF4BB0F11F438
:103EB00060FF1BC06F5F7F4F8F4F9F4F16C08823DF
:103EC00011F096E911C0772321F09EE8872F762F15
:103ED00005C0662371F096E8862F70E060E02AF056
:103EE0009A95660F771F881FDAF7880F9695879542
:103EF00097F908950BD078C069D028F06ED018F0EB
:103F0000952309F05AC05FC01124A2C07ED0A0F34F
:103F1000959FD1F3950F50E0551F629FF001729F5E
:103F2000BB27F00DB11D639FAA27F00DB11DAA1F7D
:103F3000649F6627B00DA11D661F829F2227B00DCA
:103F4000A11D621F739FB00DA11D621F839FA00D55
:103F5000611D221F749F3327A00D611D231F849FA5
:103F6000600D211D822F762F6A2F11249F575040FC
:103F70008AF0E1F088234AF0EE0FFF1FBB1F661F97
:103F8000771F881F91505040A9F79E3F510570F050
:103F900014C05EC05F3FECF3983EDCF386957795E6
:103FA0006795B795F795E7959F5FC1F7FE2B880F4B
:103FB000911D9695879597F9089597F99F6780E8E1
:103FC00070E060E008959FEF80EC089500240A946B
:103FD0001616170618060906089500240A941216E4
:103FE0001306140605060895092E0394000C11F417
:103FF000882352F0BB0F40F4BF2B11F460FF04C0C4
:104000006F5F7F4F8F4F9F4F089557FD9058440F1C
:10401000551F59F05F3F71F04795880F97FB991F27
:1040200061F09F3F79F087950895121613061406E4
:10403000551FF2CF4695F1DF08C016161706180671
:10404000991FF1CF86957105610508940895E8944C
:10405000BB2766277727CB0197F90895052E97FB95
:1040600016F400940FD057FD05D024D007FC02D0E1
:1040700046F408C050954095309521953F4F4F4FDD
:104080005F4F089590958095709561957F4F8F4F04
:104090009F4F089531D0A59F900DB49F900DA49F80
:1040A000800D911D11240895B7FFF4CFF3DF821B1B
:1040B000930B0895A1E21A2EAA1BBB1BFD010DC094
:1040C000AA1FBB1FEE1FFF1FA217B307E407F507C8
:1040D00020F0A21BB30BE40BF50B661F771F881FA4
:1040E000991F1A9469F760957095809590959B013A
:1040F000AC01BD01CF010895A29FB001B39FC001E3
:10410000A39F700D811D1124911DB29F700D811D03
:104110001124911D08950CD067CF5FDF40F056DF6A
:1041200030F021F45F3F19F048CF511191CF4BCFC0
:104130006CDF98F39923C9F35523B1F3951B550B05
:10414000BB27AA2762177307840738F09F5F5F4F6A
:10415000220F331F441FAA1FA9F333D00E2E3AF0AB
:10416000E0E830D091505040E695001CCAF729D0C5
:10417000FE2F27D0660F771F881FBB1F2617370714
:104180004807AB07B0E809F0BB0B802DBF01FF2744
:1041900093585F4F2AF09E3F510568F00ECF58CFDD
:1041A0005F3FECF3983EDCF3869577956795B7957E
:1041B000F7959F5FC9F7880F911D9695879597F999
:1041C0000895E1E0660F771F881FBB1F6217730712
:1041D0008407BA0720F0621B730B840BBA0BEE1F27
:1041E00088F7E095089519DF88F09F5790F0B92F70
:1041F0009927B751A0F0D1F0660F771F881F991F3C
:104200001AF0BA95C9F712C0B13081F020DFB1E0E1
:1042100008951DCF672F782F8827B85F39F0B93FF1
:10422000CCF3869577956795B395D9F73EF490953D
:104230008095709561957F4F8F4F9F4F0895EE0F3A
:10424000FF1F881F8BBF0790F691E02D19946F9286
:104250007F928F929F92AF92BF92CF92DF92EF9216
:10426000FF920F931F93CF93DF93009781F4CB01BD
:10427000DF91CF911F910F91FF90EF90DF90CF9042
:10428000BF90AF909F908F907F906F900FCCFC016C
:10429000E60FF71F9C0122503109E217F30708F4DB
:1042A000A5C0EC01D9010D911C91119706171707B4
:1042B000A8F00530110508F497C0C80104978617C7
:1042C000970708F491C002501109061B170B0193C0
:1042D00011936D937C93CF0181DC86C05B01A01AA2
:1042E000B10A4C01800E911EA091F317B091F41702
:1042F000612C712CE12CF12C109709F446C08D91A2
:104300009C911197A815B905B1F56C0142E0C40E56
:10431000D11CCA14DB0478F14C018A189B08640193
:1043200042E0C40ED11C1296BC9012971396AC9129
:10433000B5E0CB16D10440F0B282A3839182808293
:10434000D9016D937C9309C00E5F1F4F800F911FA1
:10435000F90191838083EB2DFA2FE114F10431F000
:10436000D7011396FC93EE9312973EC0F093F41787
:10437000E093F31739C06816790608F43C017D0113
:1043800012960D90BC91A02DB7CF8091F11790910E
:10439000F21788169906E1F466167706C8F480913C
:1043A0004B0290914C02009741F48DB79EB740911B
:1043B0004F0250915002841B950BE817F907B0F497
:1043C000F093F217E093F117F901718360830CC049
:1043D000CB016CDB7C01009749F0A801BE011BD02A
:1043E000CE01FCDBC70104C0CE0102C080E090E03A
:1043F000DF91CF911F910F91FF90EF90DF90CF90C1
:10440000BF90AF909F908F907F906F90089581E0C4
:1044100090E0F89428C0FB01DC0102C001900D92ED
:1044200041505040D8F70895FB01DC018D91019077
:1044300080190110D9F3990B0895FB01DC0101905B
:104440000D920020E1F70895FB01DC01415050403E
:1044500048F001900D920020C9F701C01D92415013
:104460005040E0F7089511E0CDE4D1E000E005C050
:10447000802FFE01E4DE2196011DCE34D10780E0BD
:084480000807B1F7F894FFCF23
:10448800800180018001800180018001800180011C
:104498000609090600000000000105091F080400BC
:1044A8000004021F020400000004081F08040000A2
:1044B800000404150E04000000040E150404000096
:1044C80001FFC801013200881301010000F51780BF
:1044D80000010000004508D702C902AF06BB02C0B0
:1044E80002C602D002F0F1F2F3F4F5F6F7F8F9FAA1
:1044F800FBFCFDFEFF00401454004010503E4920D4
:10450800474F5420594F5552204D45535341474525
:10451800210A000000000037020B028702DF0103B6
:1045280002EF01E0010000000079028101870286A4
:104538000226066502AF029002200068656C7000D2
:1045480072657365740068616E647368616B650099
:084558007374617475730000B7
:020000023000CC
:10E000000D9489F10D94B2F10D94B2F10D94B2F129
:10E010000D94B2F10D94B2F10D94B2F10D94B2F1F0
:10E020000D94B2F10D94B2F10D94B2F10D94B2F1E0
:10E030000D94B2F10D94B2F10D94B2F10D94B2F1D0
:10E040000D94B2F10D94B2F10D94B2F10D94B2F1C0
:10E050000D94B2F10D94B2F10D94B2F10D94B2F1B0
:10E060000D94B2F10D94B2F10D94B2F10D94B2F1A0
:10E070000D94B2F10D94B2F10D94B2F10D94B2F190
:10E080000D94B2F10D94B2F10D94B2F10D94B2F180
:10E090000D94B2F10D94B2F10D94B2F10D94B2F170
:10E0A0000D94B2F10D94B2F10D94B2F10D94B2F160
:10E0B0000D94B2F10D94B2F10D94B2F10D94B2F150
:10E0C0000D94B2F10D94B2F10D94B2F10D94B2F140
:10E0D0000D94B2F10D94B2F10D94B2F10D94B2F130
:10E0E0000D94B2F141546D656761323536300041AF
:10E0F000726475696E6F206578706C6F72657220DE
:10E1000073746B3530305632206279204D4C530099
:10E11000426F6F746C6F616465723E004875683F52
:10E1200000436F6D70696C6564206F6E203D200048
:10E130004350552054797065202020203D20005FF9
:10E140005F4156525F415243485F5F3D2000415658
:10E1500052204C696243205665723D20004743437C
:10E160002056657273696F6E203D20004350552024
:10E1700049442020202020203D20004C6F7720663D
:10E18000757365202020203D20004869676820665F
:10E190007573652020203D200045787420667573D6
:10E1A00065202020203D20004C6F636B2066757336
:10E1B000652020203D20004D617220203720323024
:10E1C000313300312E362E3800342E332E350056A2
:10E1D00023202020414444522020206F7020636F70
:10E1E00064652020202020696E73747275637469E1
:10E1F0006F6E2061646472202020496E74657272B3
:10E20000757074006E6F20766563746F7200726A49
:10E210006D702020006A6D70200057686174207056
:10E220006F72743A00506F7274206E6F7420737541
:10E2300070706F72746564004D7573742062652030
:10E2400061206C6574746572002000577269747483
:10E25000696E672045450052656164696E672045B7
:10E26000450045452065727220636E743D00504F35
:10E27000525400303D5A65726F2061646472003FF1
:10E280003D43505520737461747300403D454550C3
:10E29000524F4D207465737400423D426C696E6B41
:10E2A000204C454400453D44756D70204545505215
:10E2B0004F4D00463D44756D7020464C415348001B
:10E2C000483D48656C70004C3D4C69737420492F83
:10E2D0004F20506F72747300513D51756974005234
:10E2E0003D44756D702052414D00563D73686F7707
:10E2F00020696E7465727275707420566563746FF0
:10E30000727300593D506F727420626C696E6B00BD
:10E310002A0011241FBECFEFD1E2DEBFCDBF01E046
:10E320000CBF12E0A0E0B2E0EEE1FDEF03E00BBFB6
:10E3300002C007900D92A030B107D9F712E0A0E01B
:10E34000B2E001C01D92AE30B107E1F70F9460F367
:10E350000D948DFE01E20EBF0FEF0DBF11241FBE05
:10E360000D9460F30D9400F020E030E040ED57E0B4
:10E3700005C0FA013197F1F72F5F3F4F2817390792
:10E38000C0F308959C01260F311DC901A0E0B0E043
:10E390002F5F3F4FABBFFC018791882361F08093D3
:10E3A000C6008091C00086FFFCCF8091C0008064D1
:10E3B0008093C000EACF08958DE08093C6008091DD
:10E3C000C00086FFFCCF8091C00080648093C000B5
:10E3D0008AE08093C6008091C00086FFFCCF8091C8
:10E3E000C00080648093C00008950F94C2F10F9420
:10E3F000DCF10895FC019081992359F09093C600B7
:10E400008091C00086FFFCCF8091C0008064809323
:10E41000C0003196992379F70895282F982F929567
:10E420009F70892F805D8A3308F0895F8093C600D2
:10E430008091C00086FFFCCF8091C00080648093F3
:10E44000C000822F8F70982F905D9A3308F0995FEB
:10E450009093C6008091C00086FFFCCF8091C000E1
:10E4600080648093C00008959C01FB01853691056E
:10E470001CF46330710594F0C90164E670E00F94F8
:10E480002EFE605D7F4F6093C6008091C00086FFC6
:10E49000FCCF8091C00080648093C0002B30310598
:10E4A00014F43297B4F0C90164E670E00F942EFEC4
:10E4B0006AE070E00F942EFE605D7F4F6093C600AF
:10E4C0008091C00086FFFCCF8091C0008064809363
:10E4D000C000C9016AE070E00F942EFEC0968093E0
:10E4E000C6008091C00086FFFCCF8091C000806490
:10E4F0008093C00008951F93182F8EE692EE60E07F
:10E500000F94C2F11093C6008091C00086FFFCCF2B
:10E510008091C00080648093C0000F94DCF11F9153
:10E5200008952F923F924F925F926F927F928F92B7
:10E530009F92AF92BF92CF92DF92EF92FF920F9392
:10E540001F93DF93CF93CDB7DEB762970FB6F894E2
:10E55000DEBF0FBECDBF382E622ECA01DB015C01CB
:10E560006D01772420E2222E2E010894411C511CBB
:10E570008BC081E0A81680E0B80681E0C80680E084
:10E58000D80628F0C601AA27BB270F940DF2BB2797
:10E59000AD2D9C2D8B2D0F940DF28A2D0F940DF225
:10E5A0002092C6008091C00086FFFCCF8091C00001
:10E5B00080648093C0009DE29093C6008091C0006B
:10E5C00086FFFCCF8091C00080648093C0002092C1
:10E5D000C6008091C00086FFFCCF8091C00080649F
:10E5E0008093C00019828601750188249924A1E0D6
:10E5F0003A1651F03A1620F0B2E03B1661F409C029
:10E600000BBFF701779007C0C7010F9477FE782EF4
:10E6100002C0F7017080872D0F940DF22092C60082
:10E620008091C00086FFFCCF8091C0008064809301
:10E63000C000872D8052F401EF70F0708F3520F408
:10E64000E40DF51D708204C0E40DF51D8EE280839B
:10E650000894E11CF11C011D111D0894811C911CE2
:10E6600090E18916910409F0C2CF80E190E0A0E02A
:10E67000B0E0A80EB91ECA1EDB1E198AC2010F9493
:10E68000FAF10F94DCF16A94662009F072CF629679
:10E690000FB6F894DEBF0FBECDBFCF91DF911F91B3
:10E6A0000F91FF90EF90DF90CF90BF90AF909F9031
:10E6B0008F907F906F905F904F903F902F90089534
:10E6C0002F923F924F925F926F927F928F929F9282
:10E6D000AF92BF92CF92DF92EF92FF920F931F9370
:10E6E000DF93CF93CDB7DEB7CD53D1400FB6F894BB
:10E6F000DEBF0FBECDBF01E20EBF0FEF0DBF94B75F
:10E70000F894A89514BE80916000886180936000A1
:10E7100010926000789493FF05C0E0910002F091A0
:10E7200001021995279A2F9A8091C00082608093E8
:10E73000C00080E18093C40088E18093C1000000A4
:10E74000EE24FF24870144E0A42EB12CCC24DD2448
:10E7500024C0C5010197F1F70894E11CF11C011DCB
:10E76000111D21E2E2162EE4F20620E0020720E06D
:10E77000120718F031E0C32ED12CC801B70127ECE5
:10E780003BE140E050E00F9441FE611571058105C9
:10E79000910519F485B1805885B98091C00087FD35
:10E7A00003C0C114D104A9F2A6014F5F5F4FC25E3E
:10E7B000DE4F59834883CE51D140C25EDE4F8881FF
:10E7C0009981CE51D140019711F00D9410FEC05D9A
:10E7D000DE4F19821882C053D14060E0C15DDE4F28
:10E7E0001882CF52D14088249924C35DDE4F19820C
:10E7F0001882CD52D140C05EDE4F188219821A8233
:10E800001B82C052D140CE5CDE4F188219821A8220
:10E810001B82C253D140EE24FF2487010BBFF701B6
:10E8200007911691C45CDE4F19830883CC53D14005
:10E830000D940BFEC25EDE4F28813981CE51D1404E
:10E840002130310509F52091C600C25EDE4F1982E4
:10E850001882CE51D14022C02F5F3F4F4F4F5F4FA4
:10E86000213082E138078AE7480780E0580780F0C6
:10E87000C45CDE4FE881F981CC53D140EF5FFF4F9C
:10E8800019F0EE27FF27099420E030E040E050E047
:10E890008091C00087FFE0CF2091C600C35DDE4FAE
:10E8A00048815981CD52D1404F5F5F4FC35DDE4FEC
:10E8B00059834883CD52D140213209F063C64A3092
:10E8C000510508F05FC60894811C911C53E0851621
:10E8D000910409F059C600E010E018C081E280936D
:10E8E000C6008091C00086FFFCCF8091C00080648C
:10E8F0008093C0002F5F3F4F2931310579F70F9486
:10E90000DCF10F5F1F4F0530110519F020E030E0FA
:10E91000E5CF10920A0210920B0210920C02109294
:10E920000D02109206021092070210920802109235
:10E930000902109202021092030210920402109235
:10E9400005028FEE90EE60E00F94F5F180E191EE1C
:10E9500060E00F94C2F18091C00087FFFCCF9091DE
:10E96000C600903608F09F759032B8F09093C600BC
:10E970008091C00086FFFCCF8091C00080648093AE
:10E98000C000A0E2A093C6008091C00086FFFCCF2B
:10E990008091C00080648093C000983409F4D7C18E
:10E9A0009934B8F4923409F459C1933458F490333B
:10E9B00019F1903308F4E3C59F33A1F1903409F0C5
:10E9C000DEC5BDC0953409F470C1963409F0D7C5D1
:10E9D00098C1923509F42BC2933538F49C3409F46C
:10E9E000F5C1913509F0CBC518C2963509F445C279
:10E9F000993509F0C4C567C483E792EE62E00F94CD
:10EA0000F5F110920602109207021092080210927D
:10EA1000090210920A0210920B0210920C0210923C
:10EA20000D0213C18FE792EE62E00F94F5F18FEEC5
:10EA300090EE60E00F94F5F181E291EE60E00F94CA
:10EA4000C2F187EB91EE60E00F94F5F180E391EE77
:10EA500060E00F94C2F184EE90EE60E00F94F5F167
:10EA60008FE391EE60E00F94C2F186E090E061E008
:10EA700070E00F9434F20F94DCF18DE591EE60E0DC
:10EA80000F94C2F189EC91EE60E00F94F5F18EE401
:10EA900091EE60E00F94C2F183EC91EE60E00F9490
:10EAA000F5F18CE691EE60E00F94C2F18EE10F94E7
:10EAB0000DF288E90F940DF281E00F940DF20F949E
:10EAC000DCF18BE791EE60E00F94C2F119E0E0E039
:10EAD000F0E010935700E4918E2F0F940DF20F94F5
:10EAE000DCF18AE891EE60E00F94C2F1E3E0F0E03F
:10EAF00010935700E4918E2F0F940DF20F94DCF1D8
:10EB000089E991EE60E00F94C2F1E2E0F0E0109349
:10EB10005700E4918E2F0F940DF20F94DCF188EAE8
:10EB200091EE60E00F94C2F1E1E0F0E01093570045
:10EB30001491812F0F940DF20F94DCF107CF8BE825
:10EB400092EE62E00F94F5F18BE492EE60E00F94A8
:10EB5000F5F10F94DCF100E010E019C0C8016F2D51
:10EB60000F947FFEFF2031F489E492EE60E00F9471
:10EB7000C2F10BC0F092C6008091C00086FFFCCFAE
:10EB80008091C00080648093C0000F5F1F4FC80158
:10EB900081519F41A0E0B0E0ABBFFC01F790BAE229
:10EBA000FB1621F0E2E000301E07C1F60F94DCF105
:10EBB0000F94DCF187E592EE60E00F94F5F10F948D
:10EBC000DCF1CC24DD2400E010E01EC0C8010F946D
:10EBD00077FEF82E882331F489E492EE60E00F94FA
:10EBE000C2F10BC08093C6008091C00086FFFCCFAD
:10EBF0008091C00080648093C000FE1419F00894D6
:10EC0000C11CD11C0F5F1F4FC80181519F41A0E063
:10EC1000B0E0ABBFFC01E790FAE2EF1621F022E092
:10EC20000030120799F60F94DCF10F94DCF182E6C4
:10EC300092EE60E00F94C2F1C60161E070E00F94C3
:10EC400034F20F94DCF10F94DCF110920202109276
:10EC50000302109204021092050278CE89E992EE26
:10EC600062E00F94F5F1279A2F9A16C02F9880E052
:10EC700090E0E0EDF7E03197F1F7019684369105E9
:10EC8000C1F72F9A80E090E0E0EDF7E03197F1F7DF
:10EC9000019684369105C1F78091C00087FFE6CFC9
:10ECA0008091C00087FFFCCF64C485EA92EE62E0E9
:10ECB0000F94F5F140910202509103026091040219
:10ECC0007091050281E020E10F9491F2809102029F
:10ECD00090910302A0910402B091050280509F4FD1
:10ECE000AF4FBF4F8093020290930302A0930402A0
:10ECF000B093050280509041A040B04008F426CE69
:10ED0000A4CF83EB92EE62E00F94F5F140910602FE
:10ED100050910702609108027091090280E020E1A1
:10ED20000F9491F28091060290910702A09108023F
:10ED3000B091090280509F4FAF4FBF4F80930602A2
:10ED400090930702A0930802B0930902FFCD80ECD4
:10ED500092EE62E00F94F5F183E792EE60E00F949B
:10ED6000F5F18FE792EE60E00F94F5F18BE892EE0B
:10ED700060E00F94F5F189E992EE60E00F94F5F10F
:10ED800085EA92EE60E00F94F5F183EB92EE60E09D
:10ED90000F94F5F180EC92EE60E00F94F5F187ECC2
:10EDA00092EE60E00F94F5F188ED92EE60E00F9442
:10EDB000F5F18FED92EE60E00F94F5F18AEE92EEB0
:10EDC00060E00F94F5F183E093EEBDCD87EC92EE19
:10EDD00062E00F94F5F181E40F947BF282E40F94EA
:10EDE0007BF283E40F947BF284E40F947BF285E45E
:10EDF0000F947BF286E40F947BF287E40F947BF20E
:10EE000088E40F947BF28AE40F947BF28BE40F94F6
:10EE10007BF28CE40F947BF299CD88ED92EE62E068
:10EE20000F94F5F1772473948824992409C48FED05
:10EE300092EE62E00F94F5F140910A0250910B02BC
:10EE400060910C0270910D0282E020E10F9491F22A
:10EE500080910A0290910B02A0910C02B0910D02D8
:10EE600080509F4FAF4FBF4F80930A0290930B0289
:10EE7000A0930C02B0930D0269CD8AEE92EE62E08F
:10EE80000F94F5F184EE90EE60E00F94F5F18FECC5
:10EE900091EE60E00F94F5F1662477244301CC5D98
:10EEA000DE4F19821882C452D140D401C301B695F5
:10EEB000A79597958795CA5DDE4F88839983AA8326
:10EEC000BB83C652D140CC5DDE4FA881B981C4520C
:10EED000D1401196CC5DDE4FB983A883C452D14096
:10EEE000CD0162E070E00F9434F2B0E2B093C6005E
:10EEF0008091C00086FFFCCF8091C0008064809329
:10EF0000C000EDE2E093C6008091C00086FFFCCF18
:10EF10008091C00080648093C000F0E2F093C6004E
:10EF20008091C00086FFFCCF8091C00080648093F8
:10EF3000C000CA5DDE4FE880F9800A811B81C6529D
:10EF4000D140BB27A12F902F8F2D0F940DF2CA5DBA
:10EF5000DE4F8881C652D1400F940DF2B0E2FB2EF5
:10EF6000F092C6008091C00086FFFCCF8091C00067
:10EF700080648093C0000DE30093C6008091C000C0
:10EF800086FFFCCF8091C00080648093C00010E2B7
:10EF90001093C6008091C00086FFFCCF8091C00016
:10EFA00080648093C0008BBEF3012791C65DDE4F65
:10EFB0002883CA52D140A22EBB24CC24DD2408943D
:10EFC000611C711C811C911C8BBEF3018791282E42
:10EFD0003324442455240894611C711C811C911C09
:10EFE0008BBEF3013791C55DDE4F3883CB52D140E4
:10EFF0000894611C711C811C911C8BBEF30147910C
:10F00000C45DDE4F4883CC52D140ADEFEA2EAFEF66
:10F01000FA2EAFEF0A2FAFEF1A2F6E0C7F1C801E57
:10F02000911E142D032DF22CEE24EA0CFB1C0C1D5A
:10F030001D1D0F940DF220E22093C6008091C000A8
:10F0400086FFFCCF8091C00080648093C000C65DC5
:10F05000DE4F8881CA52D1400F940DF230E23093D6
:10F06000C6008091C00086FFFCCF8091C000806404
:10F070008093C000C45DDE4F8881CC52D1400F9494
:10F080000DF240E24093C6008091C00086FFFCCFA5
:10F090008091C00080648093C000C55DDE4F888190
:10F0A000CB52D1400F940DF250E25093C6008091A4
:10F0B000C00086FFFCCF8091C00080648093C000B8
:10F0C0008FEFE8168FEFF80680E0080780E018075A
:10F0D00031F484E092EE60E00F94C2F1DFC0D80119
:10F0E000C7018070907CA070B0708050904CA040A0
:10F0F000B040D1F52FEF3FE340E050E0E222F322B1
:10F1000004231523CA5DDE4FA880B980CA80DB8046
:10F11000C652D140AE0CBF1CC01ED11EAA0CBB1CD7
:10F12000CC1CDD1C8EE092EE60E00F94C2F1BB2798
:10F13000A12F902F8F2D0F940DF28E2D0F940DF285
:10F1400030E23093C6008091C00086FFFCCF8091F2
:10F15000C00080648093C0004EE34093C60080915D
:10F16000C00086FFFCCF87C08EE09EEFA0E0B0E03D
:10F17000E822F9220A231B239CE0E91694E9F90608
:10F1800090E0090790E0190709F088C0C45DDE4FE0
:10F19000A881CC52D140EA2EFF2400E010E0102FCD
:10F1A0000F2DFE2CEE24C55DDE4FB881CB52D14031
:10F1B000EB0EF11C011D111DD601C501817090706F
:10F1C000A070B070DC0199278827E80EF91E0A1F8D
:10F1D0001B1F20EF30E040E050E0A222B322C42207
:10F1E000D52241E1AA0CBB1CCC1CDD1C4A95D1F7F1
:10F1F000EA0CFB1C0C1D1D1D81E090E0A0E0B0E0BE
:10F20000282239224A225B2235E1220C331C441C7D
:10F21000551C3A95D1F7E20CF31C041D151D57013E
:10F220006801AA0CBB1CCC1CDD1C85E192EE60E0E1
:10F230000F94C2F1C801AA27BB270F940DF2BB2778
:10F24000A12F902F8F2D0F940DF28E2D0F940DF274
:10F2500090E29093C6008091C00086FFFCCF809121
:10F26000C00080648093C000AEE3A093C60080918C
:10F27000C00086FFFCCF8091C00080648093C000F6
:10F28000C601AA27BB270F940DF2BB27AD2D9C2DDD
:10F290008B2D0F940DF28A2D0F940DF20F94DCF14B
:10F2A000CC5DDE4FE881F981C452D140F99709F471
:10F2B0004DCBF4E0EF2EF12C012D112D6E0C7F1CA7
:10F2C000801E911EF2CD83E093EE62E00F94F5F183
:10F2D0008AE192EE60E00F94C2F18091C00087FF56
:10F2E000FCCF1091C6001F751093C6008091C0001E
:10F2F00086FFFCCF8091C00080648093C0000F9493
:10F30000DCF1812F81548A3108F036C1163409F4BA
:10F3100095C0173490F4133409F44EC0143430F40B
:10F320001134F1F0123409F01DC130C0143409F465
:10F3300059C0153409F016C16BC01A3409F4C4C0A1
:10F340001B3438F4173409F48FC0183409F00AC19B
:10F35000A1C01B3409F4D2C01C3409F003C1E8C0B9
:10F360008FEF81B90DC082B1809582B980E090E0C5
:10F37000E0EDF7E03197F1F70196883C9105C1F790
:10F380008091C00087FFEFCF12B8EFC08FEF84B934
:10F390000DC085B1809585B980E090E0E0EDF7E0A3
:10F3A0003197F1F70196883C9105C1F78091C00033
:10F3B00087FFEFCF15B8D9C08FEF87B90DC088B1DF
:10F3C000809588B980E090E0E0EDF7E03197F1F7C3
:10F3D0000196883C9105C1F78091C00087FFEFCF6F
:10F3E00018B8C3C08FEF8AB90DC08BB180958BB9A7
:10F3F00080E090E0E0EDF7E03197F1F70196883C8E
:10F400009105C1F78091C00087FFEFCF1BB8ADC059
:10F410008FEF8DB90DC08EB180958EB980E090E0F0
:10F42000E0EDF7E03197F1F70196883C9105C1F7DF
:10F430008091C00087FFEFCF1EB897C08FEF80BBD1
:10F440000DC081B3809581BB80E090E0E0EDF7E0F6
:10F450003197F1F70196883C9105C1F78091C00082
:10F4600087FFEFCF11BA81C08FEF83BB0DC084B38C
:10F47000809584BB80E090E0E0EDF7E03197F1F714
:10F480000196883C9105C1F78091C00087FFEFCFBE
:10F4900014BA6BC08FEF809301010FC080910201FD
:10F4A00080958093020180E090E0E0EDF7E03197F5
:10F4B000F1F70196883C9105C1F78091C00087FF64
:10F4C000EDCF1092020151C08FEF809304010FC065
:10F4D0008091050180958093050180E090E0E0ED4A
:10F4E000F7E03197F1F70196883C9105C1F78091DB
:10F4F000C00087FFEDCF1092050137C08FEF8093DA
:10F5000007010FC08091080180958093080180E079
:10F5100090E0E0EDF7E03197F1F70196883C910536
:10F52000C1F78091C00087FFEDCF109208011DC088
:10F530008FEF80930A010FC080910B01809580931B
:10F540000B0180E090E0E0EDF7E03197F1F70196F4
:10F55000883C9105C1F78091C00087FFEDCF1092E4
:10F560000B0103C085E292EEEEC98091C00087FFD7
