:1000000042C100000C94A8170C947D170C94521751
:100010000C9427170C94FC160C94D1160C94A6166D
:100020000C947B1661C100005FC100005DC100003F
:100030005BC1000059C1000057C1000055C100005C
:1000400053C1000051C100004FC100004DC100006C
:100050004BC1000049C1000047C100000C949A192F
:1000600043C100000C942C100C94F10F3DC1000012
:100070003BC1000039C1000037C1000035C100009C
:1000800033C1000031C100002FC100002DC10000AC
:100090000C94A70F0C94770F27C100000C94D31772
:1000A00023C1000021C100001FC100001DC10000CC
:1000B0001BC1000019C1000017C1000015C10000DC
:1000C00013C1000011C100000FC100000C942D0FDE
:1000D0000C94FE0E09C100000C94B40E0C94850E15
:1000E00003C100009D02C301A502A7025903C20774
:1000F000C207C207C207C207C207C207C207C207B8
:100100008E03F704B813BB13AA13AE13B213F21382
:10011000BF13C313C913CD13D113D713DB13DF13CD
:10012000F213E513E913ED132D2D2D2D2D2D2D2D6E
:100130002D2D2D2D2D2D2D2D2D2D2D2D00205343ED
:10014000414E4E45522056312E3430203230313817
:100150002000202043485259534C455220434344E9
:100160002F5343492020002D2D2D2D2D2D2D2D2DAC
:100170002D2D2D2D2D2D2D2D2D2D2D00000021006F
:10018000240027002A002D00300033000101000068
:10019000040107010A0100002200250028002B00AD
:1001A0002E003100340002010000050108010B019E
:1001B00005050505070508080808020202020A0AE3
:1001C0000808040404040101010101010101030301
:1001D000030303030303040707070C0C0C0C0C0CAC
:1001E0000C0C0202020206060606060606060B0BA9
:1001F0000B0B0B0B0B0B01021020200808102040EA
:1002000010204080020102010804020101020408DA
:100210001020408080402010080402018004020168
:1002200080402010080402010804020101020408B1
:1002300010204080010204081020408000000A0BBA
:1002400002090C0D0E080703040100000000000065
:10025000000000000000000000000000000000009E
:10026000000000000000000012111000000000005B
:10027000000000000000000000000000000000007E
:1002800000002128AA2711241FBECFEFD1E2DEBF34
:10029000CDBF00E00CBF12E0A0E0B2E0E6E3FDE578
:1002A00000E00BBF02C007900D92AE3EB107D9F738
:1002B00026E1AEEEB2E001C01D92AC3FB207E1F71D
:1002C00011E0C2E4D1E000E006C021970109802FCF
:1002D000FE010E946F2DC134D10780E00807A9F705
:1002E0000E94E4190C948A2E8BCE2F923F924F924B
:1002F0005F926F927F928F929F92AF92BF92CF92B6
:10030000DF92EF92FF920F931F93CF93DF93CDB7BE
:10031000DEB72C970FB6F894DEBF0FBECDBF2DB75A
:100320003EB73C872B8783E20E94A80B0E945E0E9B
:1003300099278D33910541F0CE9709F0B5C6CE01CE
:1003400001960E948D104DC02DB63EB60E94D0146D
:100350004B015C0110E00E94320E029708F056C07B
:10036000112309F443C001E010E026E532E046E045
:1003700005C001E010E026E532E041E06FE080E0FA
:100380000E94E31006C011270115110509F0D6C01F
:10039000B1D60FB6F8943EBE0FBE2DBE85C60E94E4
:1003A0005E0E8A3009F4F4C58D3009F4F1C58F83EF
:1003B00018860D811E810F5F1F4FB801CE01019677
:1003C0000E945416882369F029813A818D819E818B
:1003D000BE01695F7F4F820F931F0E94742E1E83A0
:1003E0000D830E94320E892BE1F3D9CF0E94D014E5
:1003F000DC01CB0188199909AA09BB0911E0893CE4
:100400009105A105B10508F0A6CFA4CF1111ABCF7E
:100410000E945E0E89870E945E0E8A87D984C12C55
:10042000C80ED11C56013FEFA31AB30A82E0C81AC6
:10043000D1089BEFC91693E0D90608F09ACF0E9425
:10044000D0142B013C0111C011118DCF0E94D0148A
:10045000DC01CB0184199509A609B70911E085369D
:100460009105A105B10508F410E00E94320E8A152D
:100470009B0550F3111177CF0E945E0E3C010E9444
:100480005E0E8C012601A1E04A1A5108EDB7FEB7B5
:10049000EC19FD090FB6F894FEBF0FBEEDBF2DB7E6
:1004A0003EB72F5F3F4F7901C114D10479F0490164
:1004B0000E945E0ED4018D934D01CD018E199F09CE
:1004C0008C159D05A8F39924939401C0912C0E944A
:1004D0005E0E9985BA859B0F960D900F992051F06D
:1004E000F7019F012E193F092C153D0518F42191A4
:1004F000920FF7CF891731F001E010E026E532E0E6
:1005000045E03CCF862D8F70F301FF2794E0F595F1
:10051000E7959A95E1F7E370E23009F40AC3E33016
:1005200009F41CC4E13009F468C290E0FC0188279A
:10053000EE58FF4F8F4F0C946F2D06D601301105EA
:1005400009F01AC5D7D50E94520BDCD622CF11274D
:100550000330110509F468C038F40130110569F061
:1005600002301105F1F108C50430110509F464C029
:100570000530110509F49AC0FFC4992021F0E4E088
:10058000CE16D10430F401E010E026E532E044E07C
:10059000F5CED7018C9190E0982F882711962C9159
:1005A000820F911D009719F410925B0207C090937F
:1005B0005A028093590281E080935B02F7018281A5
:1005C00090E0982F88272381820F911D009721F0BA
:1005D000909358028093570204E010E0970141E0A5
:1005E00063C0992081F2D7018C91882331F081304A
:1005F00051F680937315B6D512C0109273151092F0
:100600008000109281001092850010928400109258
:100610008900109288000E94F90D0E94F20D01E0FD
:1006200010E0970142E040C0992009F4ACCFF701F7
:1006300080810E94CA0CADCE992009F4A4CFF4E0C9
:10064000CF16D10408F49FCFD7012C9130E0322F80
:10065000222711968C911197280F311D30939716F0
:100660002093961612968C91129790E0982F8827D7
:1006700013964C91840F911D909395168093941628
:100680003093581520935715909356158093551510
:100690003093191420931814909317148093161400
:1006A00004E010E0970144E063E069CE911064C477
:1006B0006ACF11270230110571F030F401301105B5
:1006C00009F05AC4EFD765CE0330110561F004304C
:1006D000110581F051C40E94DC1404E010E024EB09
:1006E0003EE042E019C056D502E010E028E636E0D0
:1006F00043E012C0809103038823E9F09091F00257
:100700008091EF0221E029839A838B8303E010E03C
:100710009E012F5F3F4F44E065E031CE112702304C
:10072000110509F461C068F00330110571F480917E
:100730000303811174C001E010E026E532E04BEFC5
:100740001DCE0130110531F017C40430110509F434
:10075000B4C012C4992009F416CFB5E0CB16D10469
:1007600008F411CFF7018081882319F0813061F0FE
:100770000ACF10929D1610929E1610929F161092FC
:10078000A1161092A0162AC080939D16C280C09216
:100790009E16848080929F16912CA12CB12CD12C76
:1007A000E12CF12CC814D904EA04FB049CF48C1845
:1007B0009D08AE08BF0839F00E94AA2AA50194013D
:1007C0000E94192C03C060E070E0CB01C60ED71E5A
:1007D000E81EF91ED092A116C092A01601E010E00A
:1007E00027E636E041E067C080910303882309F4DF
:1007F000A2CFF7010081118160817181762767277F
:10080000762780E090E00E94961209831A838B83FA
:1008100003E010E09E012F5F3F4F42E04CC0D70144
:10082000CD90DC901197DC24CD24DC24AC90119683
:10083000BC90119712964C916A9A7298E12CF12C07
:10084000C701B6010E947E28882351F001E010E024
:1008500026E532E04DEF6FE080E00E94E3101DC01E
:10086000412C512C320110E0C301B2010E949612BA
:10087000180FBFEF4B1A5B0A6B0A7B0AEFEF4E169D
:1008800051046104710481F7412F6FEF70E080E043
:1008900090E00E947E288111D9CF729AC701B601DB
:1008A0000E949612A982BA828B8303E010E09E0117
:1008B0002F5F3F4F43E06EE062CD992009F463CE95
:1008C000F2E0CF16D10408F464CDD7018C918230C8
:1008D000B9F1833009F460C0813009F054CE11962B
:1008E0008C918230B9F050F4813009F04CCE8FEF0A
:1008F00093E00E94180E8FEF93E012C08330C9F08E
:10090000843009F040CE87E090E00E94180E87E026
:1009100090E006C08FE790E00E94180E8FE790E00D
:1009200090937615809375150E94F90D0E94F20D33
:100930005EC08FE090E00E94180E8FE090E0F0CF54
:10094000F70181818230B1F050F4813009F01BCE83
:100950008FEF93E00E94B00C8FEF93E016C08330CE
:1009600079F0843009F00FCE87E090E0F9D787E086
:1009700090E00BC08FE790E0F3D78FE790E005C0E1
:100980008FE090E0EDD78FE090E090933714809364
:1009900036147FD777D72BC0D70111968C91823030
:1009A000A9F048F4813009F0EECD8FEF93E050D7F5
:1009B0008FEF93E016C0833079F0843009F0E3CDF7
:1009C00087E090E045D787E090E00BC08FE790E0AC
:1009D0003FD78FE790E005C08FE090E039D78FE0F8
:1009E00090E09093F8128093F712E9D6E1D601E0F7
:1009F00010E027E636E040E0C1CC863009F0C2C204
:100A000011270230110509F10330110509F44CC01A
:100A10000130110509F0B0C210927B1610928516B4
:100A20001092861610928716E093881610928916F7
:100A300010928A1610928B16109298161092991690
:100A400010929A1610929B16B1C1B4E0AB1AB1087D
:100A5000E0E2AE16B10408F096CD20E0822F90E0DF
:100A60008C159D0550F4FC01ED58FA4ED701A80FE6
:100A7000B91F8C9180872F5FF1CFC0927B16E3E77F
:100A8000F5E180E09F01235735412415350520F419
:100A90009085890F3196F6CFF201ED58FA4E808796
:100AA00081E08093801675CCF6E0AF1AB1082EE194
:100AB000A216B10408F067CDD7018C91882321F0EC
:100AC000813009F466CC5FCD22E0822F90E08C1556
:100AD0009D0550F4FC01ED58FA4ED701A80FB91F3F
:100AE0008C9186832F5FF1CF80917B1690E00197E8
:100AF000E3E7F5E120E0AF014357554148175907B7
:100B000020F43085230F3196F6CFFC01ED58FA4ED4
:100B10002087F701818180938B1680937B1681E07B
:100B200080938516809386161092871610928816E9
:100B30006DC0863009F026C211270230110509F177
:100B400003301105C9F10130110509F015C21092E9
:100B50004615109247151092481581E0809349156B
:100B600010924A1510924B1510924C15109259156F
:100B700010925A1510925B1510925C1510923C154C
:100B800015C1F4E0AF1AB1082FEFA216B10411F0AD
:100B900008F0F9CCACE3B4E1F701CF018E199F095D
:100BA0008C159D0518F481918D93F7CFC0923C155B
:100BB00081E080934115EDCBC50106978E3F9105ED
:100BC00008F0E1CCD7019C91992319F0913039F1CB
:100BD000DACCF7013296ACE3B4E1CF018E199F096C
:100BE0008C159D0518F481918D93F7CFF7018181C4
:100BF00080934C1580933C1581E08093461580933B
:100C00004715109248151092491582E08093EB0623
:100C100001E010E02BEE36E043E066E0B0CBF7E019
:100C2000AF1AB10827E0A216B10408F0ACCCD70186
:100C300011968C91119780934C1510923C159093BE
:100C40004615909347159093481510924915843096
:100C500009F512966D917D918D919C9115970E9449
:100C6000772D60934D1570934E1580934F1590938B
:100C7000501516966D917D918D919C9119970E94BA
:100C8000772D60935115709352158093531590935F
:100C90005415BBCF833011F5F7012281838190E099
:100CA000A0E0B0E0BA2FA92F982F8827A22B24818B
:100CB000822B80934D1590934E15A0934F15B093B2
:100CC00050152581868190E0A0E0B0E0BA2FA92FD1
:100CD000982F8827A22B2781822B37C08230F9F4E6
:100CE000D70112968D919C91139798278927982761
:100CF000092E000CAA0BBB0B80934D1590934E153B
:100D0000A0934F15B0935015F701848195819827D2
:100D100089279827092E000CAA0BBB0B16C081301F
:100D200009F073CFD70112968C9190E0A0E0B0E06B
:100D300080934D1590934E15A0934F15B093501579
:100D4000F701838190E0A0E0B0E08093511590938B
:100D50005215A0935315B093541557CF863009F010
:100D600011C111270230110549F10330110509F4B1
:100D700040C00130110509F0FFC010920714109215
:100D800008141092091481E080930A1410920B1435
:100D900010920C1410920D1410921A1410921B142D
:100DA00010921C1410921D141092FD13E093EB0688
:100DB00001E010E02BEE36E041E02FCFF4E0AF1A77
:100DC000B1082FEFA216B10411F008F0DCCBADEFA3
:100DD000B2E1F701CF018E199F098C159D0518F41A
:100DE00081918D93F7CFC092FD1381E0809302141F
:100DF000D0CA36E0A31AB1088EEFA816B10408F0E5
:100E0000C2CBD7019C91992319F09130F1F0BBCB63
:100E1000F7013296ADEFB2E1CF018E199F098C1523
:100E20009D0518F481918D93F7CFF701818180930F
:100E30000D148093FD1381E08093071480930814B0
:100E40001092091410920A1495C0D70111968C9132
:100E5000119780930D141092FD13909307149093A3
:100E600008149093091410920A14843009F512960C
:100E70006D917D918D919C9115970E94772D609336
:100E80000E1470930F1480931014909311141696EF
:100E90006D917D918D919C9119970E94772D609312
:100EA000121470931314809314149093151462C049
:100EB000833011F5F7012281838190E0A0E0B0E05A
:100EC000BA2FA92F982F8827A22B2481822B8093B9
:100ED0000E1490930F14A0931014B0931114258145
:100EE000868190E0A0E0B0E0BA2FA92F982F882744
:100EF000A22B2781822B36C08230F9F4D7011296BB
:100F00008D919C911397982789279827092E000C7B
:100F1000AA0BBB0B80930E1490930F14A093101484
:100F2000B0931114F7018481958198278927982718
:100F3000092E000CAA0BBB0B15C08130D9F4D701C8
:100F400012968C9190E0A0E0B0E080930E14909304
:100F50000F14A0931014B0931114F701838190E043
:100F6000A0E0B0E08093121490931314A093141493
:100F7000B093151483E04ACE01E010E026E532E09C
:100F800043E0FCC901E010E026E532E042E0F6C9AA
:100F90000E94B5100A9709F485C00E94B5100D97FC
:100FA00009F480C00D811E810038110590F40115EF
:100FB000110519F410926B060FC069817A81A8019E
:100FC0008BE696E00E947B2EF801E559F94F1082DE
:100FD00003C081E080936A0680916A0681114AC04D
:100FE00060ED72E08BE696E00E94FE2A07E614E0D0
:100FF00027E6E22E26E0F22E0097E9F0E016F10651
:10100000D1F0FC0101900020E9F73197E81BF90BC2
:10101000E034F10568F4BC01C8010E94742E60ED53
:1010200072E080E090E00E94FE2A005C1F4FE4CF57
:1010300081E080936A069FE6E92E92E0F92E00E0B7
:1010400010E0D7016D917D917D0187E694E00E94CB
:101050006B2E892B51F4000F111FF801E959FD4F38
:101060000190F081E02D199505C00F5F1F4F0430EE
:10107000110539F780E8EBE6F6E0DF011D928A956D
:10108000E9F780E092E0E7E6F4E0DF019C011D92E1
:1010900021503040E1F710926A0689819A810E94BE
:1010A000D92902C00BD67ECF8B859C850FB6F894CC
:1010B0009EBF0FBE8DBF2C960FB6F894DEBF0FBE3D
:1010C000CDBFDF91CF911F910F91FF90EF90DF90F7
:1010D000CF90BF90AF909F908F907F906F905F90D8
:1010E0004F903F902F900895E3E7F5E181E08583ED
:1010F000148208950F931F93CF93DF93CDB7DEB77C
:1011000065970FB6F894DEBF0FBECDBF85E1E7E768
:10111000F2E0DE01119601900D928A95E1F705E16A
:1011200010E09E012F5F3F4F40E061E080E00E94B1
:10113000E31065960FB6F894DEBF0FBECDBFDF910A
:10114000CF911F910F91089501E010E027E636E05E
:1011500040E060E080E00E94E31060E085E20E94F1
:101160008913FFCFA0E8B0E01C92E1E8F0E0108224
:101170001092850010928400259A8C9180648C9343
:1011800087E090E090938900809388008081896057
:10119000808308954F925F926F927F928F929F9279
:1011A000AF92BF92CF92DF92EF92FF920F931F9375
:1011B000CF93DF931092F30D1092F40D1092F50D72
:1011C0001092F60DC8EED3E086E30E947314092E48
:1011D000000CAA0BBB0B4091F30D5091F40D6091E4
:1011E000F50D7091F60D8C019D01040F151F261F42
:1011F000371FC901B8010093F30D1093F40D20932C
:10120000F50D3093F60D2197F9F628EE33E040E026
:1012100050E00E94452C49015A012093F30D309370
:10122000F40D4093F50D5093F60D609110027091FE
:10123000110280E090E00E94282B6B017C016091FC
:1012400014027091150280E090E00E94282B20E0AB
:1012500030E048EC52E40E94DB2C2B013C01C5013C
:10126000B4010E94282B9B01AC01C301B2010E9472
:10127000652B20E030EC4FE754E40E94DB2C4B015F
:101280005C01609112027091130280E090E00E9474
:10129000282BA70196010E94772C9B01AC01C50168
:1012A000B4010E94652BA70196010E94DB2C20E06F
:1012B00030E048EC52E40E94652B0E94432D6835D3
:1012C00012E0710738F410926806109269061092C5
:1012D000F70D07C0709368066093690681E08093FC
:1012E000F70DDF91CF911F910F91FF90EF90DF905D
:1012F000CF90BF90AF909F908F907F906F905F90B6
:101300004F9008950F931F93CF93DF931F921F92D7
:10131000CDB7DEB7809108038093F80D8091090363
:101320008093F90D80910A038093FA0D8091010357
:101330008093FB0D809102038093FC0D8091F90254
:101340008093FD0D8091FA028093FE0D8091FB0247
:101350008093FF0D8091FC028093000E8091FD022E
:101360008093010E8091FE028093020E8091FF0215
:101370008093030E809100038093040E8091F1020C
:101380008093050E8091F2028093060E8091F30205
:101390008093070E8091F4028093080E8091F502ED
:1013A0008093090E8091F60280930A0E8091F702D5
:1013B00080930B0E8091F80280930C0E10920D0E0C
:1013C00010920E0E10920F0E1092100E8EE580935A
:1013D000110E83E48093120E86EF8093130E8BE739
:1013E0008093140E80910303882321F081E0809381
:1013F000150E02C01092150E8091F0028093160E09
:101400008091EF028093170E0E94DC148091B40E3D
:101410008093180E8091B50E8093190E8091B60EB0
:1014200080931A0E8091B70E80931B0E2091F816B0
:101430003091F916CE0101962115310519F48C5F12
:10144000964102C0821B930B9A83898389819A817A
:1014500090931C0E80931D0E9DDE8091F70D8823C6
:1014600021F081E080931E0E02C010921E0E80912A
:10147000680680931F0E809169068093200E8091EC
:101480007315882321F081E08093210E02C0109211
:10149000210E8091AA169091AB16A091AC16B09136
:1014A000AD16B093220E8091AA169091AB16A09122
:1014B000AC16B091AD16A093230E8091AA16909110
:1014C000AB16A091AC16B091AD169093240E8091FE
:1014D000AA169091AB16A091AC16B091AD16809360
:1014E000250E8091AE169091AF16A091B016B091D6
:1014F000B116B093260E8091AE169091AF16A091C2
:10150000B016B091B116A093270E8091AE169091AF
:10151000AF16A091B016B091B1169093280E80919D
:10152000AE169091AF16A091B016B091B1168093FF
:10153000290E80913514982F907F8091F6128F702C
:10154000892B80932A0E80916B1590916C15A09138
:101550006D15B0916E15B0932B0E80916B15909117
:101560006C15A0916D15B0916E15A0932C0E809105
:101570006B1590916C15A0916D15B0916E159093AF
:101580002D0E80916B1590916C15A0916D15B091F9
:101590006E1580932E0E80916F1590917015A0910D
:1015A0007115B0917215B0932F0E80916F159091B7
:1015B0007015A0917115B0917215A093300E8091A5
:1015C0006F1590917015A0917115B091721590934F
:1015D000310E80916F1590917015A0917115B09199
:1015E00072158093320E80912C1490912D14A0913D
:1015F0002E14B0912F14B093330E80912C1490912F
:101600002D14A0912E14B0912F14A093340E80911C
:101610002C1490912D14A0912E14B0912F1490930E
:10162000350E80912C1490912D14A0912E14B09110
:101630002F148093360E8091301490913114A09124
:101640003214B0913314B093370E809130149091CE
:101650003114A0913214B0913314A093380E8091BC
:10166000301490913114A0913214B09133149093AE
:10167000390E8091301490913114A0913214B091B0
:10168000331480933A0E03E410E028EF3DE040E08D
:1016900062E080E098D50F900F90DF91CF911F917D
:1016A0000F9108950F931F93CF93DF93CDB7DEB7BC
:1016B0006A970FB6F894DEBF0FBECDBFE1E0F3E04E
:1016C0008081898381818A83E9EFF2E080818B8345
:1016D00081818C8382818D8383818E8384818F83BA
:1016E000858188878681898787818A87E1EFF2E013
:1016F00080818B8781818C8782818D8783818E8792
:1017000084818F878581888B8681898B87818A8B6D
:101710001B8A1C8A1D8A1E8A8EE58F8B83E4888F24
:1017200086EF898F8BE78A8F0AE110E09E012F5F99
:101730003F4F41E065E080E046D56A960FB6F894E9
:10174000DEBF0FBECDBFDF91CF911F910F910895E6
:10175000CF93C82F60E0DDD7C43279F0C532C1F035
:10176000C33201F50E94D01460935B0470935C0453
:1017700080935D0490935E0415C00E94D014609322
:101780005704709358048093590490935A040AC0E4
:101790000E94D014609353047093540480935504B2
:1017A00090935604CF91089584E2D2DF00C5089546
:1017B000F8948091F20D8093F10D78940895F89447
:1017C000809151048093520478940895F894809104
:1017D0005204909151047894891B08952091F10D41
:1017E00030E02F5F3F4FA9015527F8946091F20D2B
:1017F000789470E046175707C1F3FA01EF50F34FA2
:1018000080832093F10D80913101806280933101BA
:101810000895F8949091520480915104981304C053
:10182000789480E092E0089578948091510490E05B
:101830000196FC01FF2780935104EF5AFC4F208151
:101840008091500390E0982F8827820F911D089572
:10185000F89410925204109251041092F10D1092CB
:10186000F20D78949F709093350180933401E1E3F9
:10187000F1E0808188698083E2E3F1E08081866025
:1018800080830895F8948091F00C8093EF0C789405
:101890000895F8948091EE0C8093ED0C789408955F
:1018A000F8948091ED0C9091EE0C7894891B08953A
:1018B0002091EF0C30E02F5F3F4FA9015527F8949E
:1018C0006091F00C789470E046175707C1F3FA0165
:1018D000E351F44F80832093EF0C8091D10080621C
:1018E0008093D1000895F8943091ED0C2091EE0C86
:1018F000321304C0789480E092E008957894E091E7
:10190000EE0CF0E03196E80FF91FFF27E351F54F99
:1019100020818091EC0A90E0982F8827820F911DFA
:101920000895F8949091ED0C8091EE0C981304C0FA
:10193000789480E092E0089578948091EE0C90E0A5
:101940000196FC01FF278093EE0CE351F54F2081B7
:101950008091EC0A90E0982F8827820F911D0895BE
:10196000F8941092ED0C1092EE0C1092EF0C109275
:10197000F00C78949F709093D5008093D400E1EDA3
:10198000F0E0808188698083E2EDF0E0808186600C
:10199000808308950F931F93CF93DF931F92CDB74A
:1019A000DEB7182F87FF82C080913514982F9F775C
:1019B00016FF6BC0892F80648093351460E015FF9B
:1019C00018C086E1A6D660E087E1A3D660E088E192
:1019D000A0D660E089E19DD661E08AE19AD661E017
:1019E0008BE197D681E08093341480913514806226
:1019F00023C08AE18ED660E08BE18BD660E08CE17B
:101A000088D660E08DE185D660E088E182D660E02E
:101A100089E17FD661E086E17CD661E087E179D615
:101A200081E0809334141092F5128091351482FD78
:101A300002C08F7D01C08B7D809335148091361458
:101A40009091371414FF10C08F37910579F58FE00E
:101A500090E086DF8FE090E0909337148093361407
:101A60008091351480610EC00F9701F58FE790E0EB
:101A700077DF8FE790E0909337148093361480914E
:101A800035148F7E8093351411C08F738093351475
:101A90001092341460E086E13CD660E087E139D6EC
:101AA00060E08AE136D660E08BE133D613FF82C076
:101AB0008091F612982F977F12FF6BC0892F846058
:101AC0008093F61260E011FF18C086E122D660E034
:101AD00087E11FD660E088E11CD660E089E119D675
:101AE00061E08CE116D661E08DE113D681E0809350
:101AF000F5128091F612826023C08AE10AD660E076
:101B00008BE107D660E08CE104D660E08DE101D680
:101B100060E086E1FED560E087E1FBD561E088E129
:101B2000F8D561E089E1F5D581E08093F512109256
:101B300034148091F61286FD02C08D7F01C08D7B2A
:101B40008093F6128091F7129091F81210FF10C056
:101B50008F37910579F58FE090E07ADE8FE090E0A5
:101B60009093F8128093F7128091F61281600EC064
:101B70000F9701F58FE790E06BDE8FE790E0909391
:101B8000F8128093F7128091F6128E7F8093F612EE
:101B900011C0837F8093F6121092F51260E088E105
:101BA000B8D560E089E1B5D560E08CE1B2D560E000
:101BB0008DE1AFD580913514982F907F8091F612EA
:101BC0008F70892B898301E010E09E012F5F3F4FCA
:101BD00043E063E080E0F7D20F90DF91CF911F9157
:101BE0000F910895F89480912B0380932C0378949F
:101BF0000895F89480914E0380934F03789408954C
:101C0000F89480914F0390914E037894891B8F71C3
:101C10000895CF93DF93C3E7D5E181E08C831D82E4
:101C2000EFDF8E838F818F5F8F83DF91CF91089558
:101C3000F89410924F0310924E0310922C031092BE
:101C40002B0378949F709093CD008093CC00E9ECA7
:101C5000F0E0808188698083EAECF0E08081866032
:101C600080830895F8948091BB129091BC122091CA
:101C7000B9123091BA127894821B930B9370089525
:101C800020910403309105032F5F3F4F3370F89488
:101C90004091060350910703789424173507B9F350
:101CA000F901E451F94F8083309305032093040335
:101CB0008091C10080628093C1000895F8942091C2
:101CC000BB123091BC128091B9129091BA122817B0
:101CD000390721F4789480E092E008957894809117
:101CE000B9129091BA12019693709093BA128093A0
:101CF000B912FC01E754F14F20818091B80E90E0B9
:101D0000982F8827820F911D08951F920F920FB66A
:101D10000F9211240BB60F928F939F93EF93FF9323
:101D20009091F10D8091F20D981771F08091F20D64
:101D300090E00196FC01FF278093F20DEF50F34FE6
:101D400080818093360105C0809131018F7D809321
:101D50003101FF91EF919F918F910F900BBE0F90EA
:101D60000FBE0F901F9018951F920F920FB60F92F3
:101D700011240BB60F922F933F934F935F936F9362
:101D80007F938F939F93AF93BF93EF93FF93209194
:101D900030013091360128718091520490E0019613
:101DA000AC0155276091510470E04617570739F090
:101DB00080935204FA01EF5AFC4F308301C024E0B3
:101DC00020935003EDD56093FE137093FF1380931F
:101DD000001490930114FF91EF91BF91AF919F91E7
:101DE0008F917F916F915F914F913F912F910F90C4
:101DF0000BBE0F900FBE0F901F9018951F920F9261
:101E00000FB60F9211240BB60F928F939F93EF93FF
:101E1000FF939091EF0C8091F00C981771F08091E6
:101E2000F00C90E00196FC01FF278093F00CE35149
:101E3000F44F80818093D60005C08091D1008F7DC2
:101E40008093D100FF91EF919F918F910F900BBEE6
:101E50000F900FBE0F901F9018951F920F920FB604
:101E60000F9211240BB60F922F933F934F935F93D2
:101E70006F937F938F939F93AF93BF93EF93FF9352
:101E80002091D0003091D60028718091ED0C90E027
:101E90000196AC0155276091EE0C70E0461757078C
:101EA00039F08093ED0CFA01E351F54F308301C016
:101EB00024E02093EC0A74D560933D1570933E1591
:101EC00080933F1590934015FF91EF91BF91AF9193
:101ED0009F918F917F916F915F914F913F912F9142
:101EE0000F900BBE0F900FBE0F901F9018951F9272
:101EF0000F920FB60F9211240BB60F928F939F93F0
:101F0000EF93FF9390912C0380912B03981779F016
:101F100080912B0390E001968F71992780932B037A
:101F2000FC01E55FFC4F80818093CE0005C080916D
:101F3000C9008F7D8093C900FF91EF919F918F9190
:101F40000F900BBE0F900FBE0F901F9018951F9211
:101F50000F920FB60F9211240BB60F922F933F934F
:101F60004F935F936F937F938F939F93AF93BF93A1
:101F7000EF93FF932091C8003091CE00287180919B
:101F80004F0390E001968F71992740914E0350E0E6
:101F90008417950739F080934F03FC01E25DFC4FF5
:101FA000308301C024E020932D03FAD460937C1683
:101FB00070937D1680937E1690937F16FF91EF911C
:101FC000BF91AF919F918F917F916F915F914F9151
:101FD0003F912F910F900BBE0F900FBE0F901F904F
:101FE00018951F920F920FB60F9211240BB60F92F5
:101FF0002F933F938F939F93EF93FF93209104032D
:102000003091050380910603909107032817390743
:1020100089F0809106039091070301969370909345
:10202000070380930603FC01E451F94F80818093FC
:10203000C60005C08091C1008F7D8093C100FF91D3
:10204000EF919F918F913F912F910F900BBE0F9029
:102050000FBE0F901F9018951F920F920FB60F9200
:1020600011240BB60F922F933F934F935F938F934F
:102070009F93EF93FF932091C0003091C600287189
:102080008091BB129091BC12019693704091B9124D
:102090005091BA128417950749F09093BC1280931F
:1020A000BB12FC01E754F14F308301C024E02093C0
:1020B000B80EFF91EF919F918F915F914F913F915A
:1020C0002F910F900BBE0F900FBE0F901F90189581
:1020D0003FB7F89480913F0E9091400EA091410E31
:1020E000B091420E26B5A89B05C02F3F19F001966E
:1020F000A11DB11D3FBFBA2FA92F982F8827820F8E
:10210000911DA11DB11DBC01CD0142E0660F771FDD
:10211000881F991F4A95D1F70895CF93DF93EC015B
:10212000198218821B821A821D821C8260E070E074
:10213000BBD52881398181110FC02115310519F0D6
:10214000C9010E94D929198218821D821C821B8212
:102150001A82DF91CF9108951D821C8261ED72E099
:10216000C901DF91CF910C94742EF8942091BB1289
:102170003091BC128091B9129091BA122817390788
:1021800021F4789480E092E008957894E091B91277
:10219000F091BA123196F370E754F14F208180919B
:1021A000B80E90E0982F8827820F911D0895CF9345
:1021B000DF93C4E9D2E08991882311F061DDFBCF80
:1021C000DF91CF910895AF92BF92CF92DF92EF92BD
:1021D000FF920F931F93CF93DF93CDB7DEB7ADB6CA
:1021E000BEB6680196E0C90ED11CADB7BEB7AC193A
:1021F000BD090FB6F894BEBF0FBEADBFEDB7FEB7B9
:1022000031967F019DE311969C93F8013296D70198
:102210001196FC9311979CEF9C0D12969C93B0E441
:102220008B9F600D1124F701638344830115110511
:1022300061F0F901ADB7BEB71696200F311FE21756
:10224000F30719F081918D93FACF0B5F1F4FF701C0
:10225000319680E09F012E193F092017310718F4AD
:102260009191890FF7CFF701E00FF11F808384E28E
:102270006FDA8701C8018E199F098C159D0528F416
:10228000D8018D918D01FCDCF5CF0FB6F894BEBE60
:102290000FBEADBEDF91CF911F910F91FF90EF90D8
:1022A000DF90CF90BF90AF9008953091B30E313250
:1022B00008F04BC080918F0E8111FCCF9091B20E2F
:1022C00022E020938F0E21E020938E0E2FEF20939B
:1022D0008D0E10928C0E30938B0EE2E9FEE0ABE691
:1022E000BEE020E0321721F041914D932F5FFACFED
:1022F00010926A0E20916A0E990F922B90936A0E9B
:102300009091690E913061F41092690E90916A0E6D
:102310009093BB009091BC0093FDF8CF95EC01C069
:1023200095EE9093BC0090918F0E9230E1F39091D6
:102330008D0E9F3F79F080918D0E803241F080911B
:102340008D0E803331F084E005C081E003C082E06F
:1023500001C083E01092910E1092B30E1092900E75
:1023600008953F924F925F926F927F928F929F92C9
:10237000AF92BF92CF92DF92EF92FF920F931F9393
:10238000CF93DF934B015C016A018901AB01BC0172
:10239000420F531F611D711D8091EB129091EC1241
:1023A000A091ED12B091EE1284179507A607B7071A
:1023B00008F4A7C07724739466246A9495EE592E86
:1023C00025EC422E0115110509F49DC0C091E612BD
:1023D000D091E712CE01019788219921C81BD90B12
:1023E000C8010132110510F080E290E08C179D07C2
:1023F00008F4EC01D501C4010090E81204C0B695C0
:10240000A795979587950A94D2F7F090E212F82A4B
:102410007092900EF092B20E1092910E1092B30E36
:102420008091E9129091EA12029739F499278B2D45
:102430007A2D692D8DEB92E17ED3682D8DEB92E1A3
:102440007AD333DF811160C080918F0E8111FCCF70
:102450009C2F70928F0E70928E0E60928D0E109245
:102460008C0E8C2F815080938B0E70926A0E80910F
:102470006A0EFF0CF82AF0926A0E8091690E813084
:1024800069F41092690E80916A0E8093BB0080916E
:10249000BC0083FDF8CF4092BC0002C05092BC004B
:1024A00080918F0E8130E1F380918C0E891710F4AA
:1024B00090918C0EABE6BEE0E9E4FEE080E0891787
:1024C00021F02D9121938F5FFACF1092480E8093C7
:1024D000470E312CE32CF12CEC16FD0648F4EC0CE5
:1024E000FD1C8DEB92E1DFD2F70180833394F2CFB4
:1024F0008C0E9D1EA11CB11CCC0EDD1E0C1B1D0BD9
:1025000061CF89E001C080E0DF91CF911F910F91F1
:10251000FF90EF90DF90CF90BF90AF909F908F9003
:102520007F906F905F904F903F900895CF93DF938F
:102530001F92CDB7DEB721E030E0AE014F5F5F4FB5
:1025400010DF90E0009719F4898190E003C0919525
:10255000819591090F90DF91CF910895682F8DEBB0
:1025600092E1E9C2EF92FF920F931F93CF93DF9313
:102570008B01877098E0899FB0011124606489EC19
:1025800092E142D683E790E00197F1F7E801085F16
:102590001F4F8BE9E82EF12C699189EC92E10DD364
:1025A000C7010197F1F7C017D107B1F7DF91CF91BC
:1025B0001F910F91FF90EF9008950F931F93CF936A
:1025C000DF938C01C0E0D0E0F801EC0FFD1F6491B7
:1025D000662339F089EC92E1F0D2892B11F0219633
:1025E000F3CFCE01DF91CF911F910F910895CF933B
:1025F000DF93CDB7DEB728970FB6F894DEBF0FBED6
:10260000CDBF40918C0250918D0260918E027091ED
:102610008F024D835E836F83788740919002509143
:102620009102609192027091930249835A836B8365
:102630007C832091D012821710F08FEF820F30919F
:10264000D11290E0FE01E80FF91F303121F424305F
:1026500011F4618101C06581606889EC92E128967E
:102660000FB6F894DEBF0FBECDBFDF91CF91CCC5C2
:10267000FC0183818823B1F0962F618160956923E5
:102680006083828191E09093900E8093B20E1092BD
:10269000910E1092B30E8DEB92E14DD206DE282FF3
:1026A00030E002C020E030E081E090E0232B11F028
:1026B00080E090E00895EF92FF920F931F93CF93E5
:1026C0008C01FC0184E0C0E060FF02C09589C92B49
:1026D0006695815031968111F7CF413011F4F801A0
:1026E0004489F8018585C82BC42B7801FEE0EF0EE4
:1026F000F11CF80162896C2BC701BADFF80162890D
:1027000060956C23C701CF911F910F91FF90EF90BF
:10271000AFCF362F90E0FC01E45CFD4F4491FC010B
:10272000EA50FE4F2491FC01E055FE4F949199230D
:1027300009F46CC0442309F455C050E0FA01319704
:10274000E231F10508F04EC08827EE57FF4F8F4F5A
:102750000C946F2D809180008F7707C0809180004E
:102760008F7D03C080918000877F809380003AC076
:1027700084B58F7702C084B58F7D84BD33C08091CE
:10278000B0008F7703C08091B0008F7D8093B00040
:1027900029C0809190008F7707C0809190008F7D35
:1027A00003C080919000877F809390001BC0809130
:1027B000A0008F7707C08091A0008F7D03C080911B
:1027C000A000877F8093A0000DC0809120018F77AB
:1027D00007C0809120018F7D03C080912001877FF9
:1027E00080932001E92FF0E0EE0FFF1FEA56FE4F25
:1027F000A591B4919FB7F894311104C08C912095A4
:10280000282302C0EC912E2B2C939FBF0895109289
:10281000480E1092470E1092910E1092B30E109225
:102820008F0E81E080938E0E1092690E61E084E13C
:1028300070DF61E085E16DDFE9EBF0E080818E7FA4
:10284000808380818D7F808388E48093B80085E4D5
:102850008093BC0081E495E19093460E8093450EF1
:1028600082E495E19093440E8093430E0895CF93B4
:10287000DF9390E0FC01EA50FE4F2491FC01E0550B
:10288000FE4F8491882361F190E0880F991FFC012D
:10289000E458FE4FC591D491FC01EA56FE4FA59134
:1028A000B491611109C09FB7F89488812095822363
:1028B0008883EC912E230BC0623061F49FB7F894AB
:1028C0008881322F309583238883EC912E2B2C9393
:1028D0009FBF06C08FB7F894E8812E2B28838FBF47
:1028E000DF91CF910895863308F0865390917B0055
:1028F000282F2870977F922B90937B0020915C0269
:1029000090E4299F900111248770822B80937C0092
:1029100080917A00806480937A0080917A0086FDAD
:10292000FCCF809178002091790090E0922B08955F
:102930008F929F92AF92BF92CF92DF92EF92FF92CF
:102940006B017C01C5DB4B015C01C114D104E104C6
:10295000F104E9F0BDDBDC01CB0188199909AA0972
:10296000BB09883E9340A105B10578F321E0C21A66
:10297000D108E108F10888EE880E83E0981EA11CBA
:10298000B11CC114D104E104F10421F7DECFFF90A2
:10299000EF90DF90CF90BF90AF909F908F90089571
:1029A0002FB7F89460913B0E70913C0E80913D0ED4
:1029B00090913E0E2FBF0895F3DFE4EBFEE090838D
:1029C00081837283638308950895CF92DF92EF929B
:1029D000FF920F931F93CF93DF936C017A018B01CA
:1029E000C0E0D0E0CE15DF0581F0D8016D918D01FA
:1029F000D601ED91FC910190F081E02DC601199571
:102A0000892B11F02196EECF7E01C701DF91CF9186
:102A10001F910F91FF90EF90DF90CF90089585ED7B
:102A20008093BC008091BC0084FDFCCF10928F0E7F
:102A300008954091D216262F30E0240F311D213207
:102A40003105DCF420918F0E2430C9F4FC0180E0C4
:102A500090E0861758F43091D2162191DC01AE54E3
:102A6000B94EA30FB11D2C930196F3CF8091D216CE
:102A7000680F6093D21680E0089581E0089582E0A7
:102A80000895089508950895E091480E8091470EA5
:102A9000E81730F4F0E0E75BF14F808190E00895B3
:102AA0008FEF9FEF08959091480E8091470E9817F1
:102AB00050F4E92FF0E0E75BF14F208130E09F5FB9
:102AC0009093480E02C02FEF3FEFC9010895809107
:102AD000470E90E02091480E821B91090895CF92F5
:102AE000DF92EF92FF920F931F93CF93DF937C01BE
:102AF000CB018A012091900E222389F0EB016B011A
:102B0000C40ED51ECC15DD0561F06991D701ED919C
:102B1000FC910190F081E02DC7011995F3CF642F4E
:102B200088DFC801DF91CF911F910F91FF90EF9047
:102B3000DF90CF900895CF93DF931F92CDB7DEB78C
:102B400069832091900E2223D1F02091B30E203280
:102B500040F021E030E0FC013383228380E090E00C
:102B600014C08091910EE82FF0E0EE56F14F99815C
:102B700090838F5F8093910E8093B30E04C061E0C9
:102B8000CE01019656DF81E090E00F90DF91CF916A
:102B9000089521E001C0220F6A95EAF7DC011C9636
:102BA0002C931C971A965C934E931997ED91FC9178
:102BB0000484F585E02D60E01994DC01ED91FC9131
:102BC0000684F785E02D41E0199581E090E00895B5
:102BD0000E945E2E0F931F93CF93DF93062F0F70EB
:102BE000423019F440E0602F0DC0142FEC0170E06A
:102BF00084E0759567958A95E1F7CE015CDD412FFC
:102C0000602FCE01DF91CF911F910F9154CDFC0128
:102C100084858823A1F0218532852115310519F499
:102C2000611106C007C02130310521F4611102C0D5
:102C3000858701C015866585CF010E9619CD08954B
:102C4000FF920F931F93CF93DF93EC01162F042F66
:102C5000F22E8B85888BDBDD888991E09093900E36
:102C60008093B20E1092910E1092B30E1EDB91E083
:102C7000811190E0998B811104C08DEB92E113DFFB
:102C80008E878989882331F01F861C8260E0CE01FF
:102C90000E96EEDC2F2D402F612FCE01DF91CF91CC
:102CA0001F910F91FF90BEC20F931F93CF93DF939D
:102CB000EC0188819981009729F02A813B812617B0
:102CC000370788F48B016F5F7F4F0E947E2D00973E
:102CD00061F0998388831B830A832C813D81232B98
:102CE00011F4FC01108281E001C080E0DF91CF91FE
:102CF0001F910F9108951F920F920FB60F921124FA
:102D00000BB60F922F933F934F935F936F937F93E5
:102D10008F939F93AF93BF93EF93FF93E0910E0236
:102D2000F0910F021995FF91EF91BF91AF919F9193
:102D30008F917F916F915F914F913F912F910F9064
:102D40000BBE0F900FBE0F901F9018951F920F9201
:102D50000FB60F9211240BB60F922F933F934F9300
:102D60005F936F937F938F939F93AF93BF93EF93F3
:102D7000FF93E0910C02F0910D021995FF91EF91F4
:102D8000BF91AF919F918F917F916F915F914F9183
:102D90003F912F910F900BBE0F900FBE0F901F9081
:102DA00018951F920F920FB60F9211240BB60F9227
:102DB0002F933F934F935F936F937F938F939F9343
:102DC000AF93BF93EF93FF93E0910202F091030260
:102DD0001995FF91EF91BF91AF919F918F917F9145
:102DE0006F915F914F913F912F910F900BBE0F907C
:102DF0000FBE0F901F9018951F920F920FB60F9253
:102E000011240BB60F922F933F934F935F936F93C1
:102E10007F938F939F93AF93BF93EF93FF93E09133
:102E20000002F09101021995FF91EF91BF91AF91CE
:102E30009F918F917F916F915F914F913F912F91D2
:102E40000F900BBE0F900FBE0F901F9018951F9202
:102E50000F920FB60F9211240BB60F922F933F9340
:102E60004F935F936F937F938F939F93AF93BF9392
:102E7000EF93FF93E0910A02F0910B021995FF91F5
:102E8000EF91BF91AF919F918F917F916F915F91E2
:102E90004F913F912F910F900BBE0F900FBE0F904F
:102EA0001F9018951F920F920FB60F9211240BB618
:102EB0000F922F933F934F935F936F937F938F93D3
:102EC0009F93AF93BF93EF93FF93E0910802F0912C
:102ED00009021995FF91EF91BF91AF919F918F9149
:102EE0007F916F915F914F913F912F910F900BBE0A
:102EF0000F900FBE0F901F9018951F920F920FB654
:102F00000F9211240BB60F922F933F934F935F9321
:102F10006F937F938F939F93AF93BF93EF93FF93A1
:102F2000E0910602F09107021995FF91EF91BF9190
:102F3000AF919F918F917F916F915F914F913F9151
:102F40002F910F900BBE0F900FBE0F901F901895F2
:102F50001F920F920FB60F9211240BB60F922F9360
:102F60003F934F935F936F937F938F939F93AF9311
:102F7000BF93EF93FF93E0910402F091050219953E
:102F8000FF91EF91BF91AF919F918F917F916F9141
:102F90005F914F913F912F910F900BBE0F900FBEFD
:102FA0000F901F9018951F920F920FB60F92112439
:102FB0000BB60F922F933F934F935F936F937F9333
:102FC0008F939F93AF93BF93EF93FF938091B9003B
:102FD000887F803609F49CC068F5883209F45BC0AC
:102FE00090F4803109F454C038F4882309F4F6C011
:102FF000883009F44DC0F5C0883109F44CC08032E6
:1030000009F45DC0EEC0803409F468C048F4803330
:1030100009F455C0883309F0E4C080938D0ED8C000
:10302000803509F44FC0883509F45DC0883409F053
:10303000D8C0D6C0883909F4C7C0A8F4883709F4C5
:1030400067C038F4883609F463C0803709F460C07B
:10305000C8C0883809F4B8C0803909F45FC0803826
:1030600009F0BFC05BC0803B09F486C038F4803AE9
:1030700009F466C0883A09F47FC0B3C0803C09F403
:10308000A7C0883C09F4A4C0883B09F48AC0A9C041
:1030900080916A0E10C090918C0E80918B0E9817C3
:1030A00070F5E0918C0E81E08E0F80938C0EF0E035
:1030B000E559F14F80818093BB0085EC86C08093F9
:1030C0008D0E8EC0E0918C0E81E08E0F80938C0E61
:1030D0008091BB00F0E0E559F14F808390918C0E18
:1030E00080918B0E6EC0E0918C0E81E08E0F8093EC
:1030F0008C0E8091BB00F0E0E559F14F8083809108
:103100008E0E81116DC081E08093690E84EA61C0EA
:1031100083E080938F0E1092F416CFCF8091F41637
:10312000803208F051C0E091F41681E08E0F809358
:10313000F4168091BB00F0E0EC52F94E8083BDCFD5
:1031400085EC8093BC0010928F0E8091F416803233
:1031500030F4E091F416F0E0EC52F94E10826091F8
:10316000F41670E0E091430EF091440E84ED96E188
:1031700019951092F41635C084E080938F0E10924A
:10318000D3161092D216E091450EF091460E199585
:103190008091D216811105C081E08093D2161092E1
:1031A000B216E091D31681E08E0F8093D316F0E033
:1031B000EE54F94E80818093BB009091D31680919C
:1031C000D216981708F479CF85E88093BC0009C01F
:1031D00085EC8093BC0010928F0E03C010928D0E70
:1031E0001EDCFF91EF91BF91AF919F918F917F91E5
:1031F0006F915F914F913F912F910F900BBE0F9068
:103200000FBE0F901F901895DC01ED91FC91068484
:10321000F785E02D40E0199408950895089580E021
:1032200090E008950F931F93CF93DF93EC0142300A
:1032300018F08C8188608C834F836887222329F063
:10324000413019F48C8184608C8364E670E080E006
:1032500090E06EDB6C8164FD31C0E881F981068409
:10326000F785E02D42E063E0CE0119958BE496E40A
:103270000197F1F7E881F9810684F785E02D42E0B6
:1032800063E0CE01199503E512E0C8010197F1F75B
:10329000E881F9810684F785E02D42E063E0CE0104
:1032A0001995C8010197F1F7E881F9810684F7853E
:1032B000E02D42E062E0CE01199514C06062CE01BB
:1032C000A3DF8BE496E40197F1F76C816062CE0195
:1032D0009BDF03E512E0C8010197F1F76C816062A2
:1032E000CE0192DFC8010197F1F76C816062CE01D7
:1032F0008BDF8BEE90E00197F1F784E08D836CE03B
:10330000CE0182DF61E0CE017FDF8BE39FE1019799
:10331000F1F782E08E8366E0CE0176DFE881F98105
:103320000484F585E02D6FEFCE01DF91CF911F91E1
:103330000F9119941F920F920FB60F9211242F9391
:103340003F938F939F93AF93BF9380913B0E909148
:103350003C0EA0913D0EB0913E0E3091F51623E04B
:10336000230F2D3720F40196A11DB11D05C026E8BD
:10337000230F0296A11DB11D2093F51680933B0EDD
:1033800090933C0EA0933D0EB0933E0E80913F0E65
:103390009091400EA091410EB091420E0196A11D58
:1033A000B11D80933F0E9093400EA093410EB093B9
:1033B000420EBF91AF919F918F913F912F910F90AE
:1033C0000FBE0F901F901895CF93DF93CDB7DEB748
:1033D00029970FB6F894DEBF0FBECDBF789484B5A1
:1033E000826084BD84B5816084BD85B5826085BD01
:1033F00085B5816085BD80916E00816080936E008F
:103400001092810080918100826080938100809180
:103410008100816080938100809180008160809331
:1034200080008091B10084608093B1008091B000F1
:1034300081608093B00080919100826080939100C0
:1034400080919100816080939100809190008160D3
:10345000809390008091A10082608093A100809170
:10346000A10081608093A1008091A0008160809381
:10347000A00080912101826080932101809121012F
:1034800081608093210180912001816080932001DF
:1034900080917A00846080937A0080917A008260C3
:1034A00080937A0080917A00816080937A00809185
:1034B0007A00806880937A001092C10062E082E016
:1034C000D6D962E083E0D3D961E083E2D0D961E06C
:1034D00084E2CDD961E085E2CAD960E086E3C7D94C
:1034E00083E20E94A80B84E20E94A80B85E20E945E
:1034F000A80B61E086E1BBD961E087E1B8D961E062
:1035000088E1B5D961E089E1B2D961E08AE1AFD95A
:1035100061E08BE1ACD961E08CE1A9D961E08DE19A
:10352000A6D989E09EE090930102809300028091E9
:103530006A008C7F826080936A00EC9A84E798E04E
:10354000909303028093020280916A00837F8860D7
:1035500080936A00ED9AF8941092BC121092BB12FC
:103560001092BA121092B91210920503109204032D
:10357000109207031092060378941092C50083E01E
:103580008093C4008091C10088698093C1008091BC
:10359000C20086608093C2008FE790E00E94180E00
:1035A0008FE790E00E94B00C8FE790E00E94280C1B
:1035B0002ED98CE08093B8008091E21291E0909334
:1035C000900E8093B20E1092910E1092B30E8091D5
:1035D000E9129091EA12029721F480E090E00E94B3
:1035E000AE1280E090E00E94AE120E945511882336
:1035F00009F446C0109203031092010310920203D3
:103600001092F9021092FA021092FB021092FC0240
:103610001092FD021092FE021092FF02109200031F
:103620001092F1021092F2021092F3021092F40240
:103630001092F5021092F6021092F7021092F80220
:1036400084EF91E0909315028093140288E799E645
:10365000909313028093120288E893E190931102F1
:10366000809310021092F0021092EF0201E010E03D
:1036700026E532E04BEF6FE080E00E94E3101FC1CF
:1036800081E08093030322E030E041E053E060E01A
:1036900070E0CB010E94B111882369F01092010300
:1036A0001092020301E010E026E532E04CEF6FE0FB
:1036B00080E00E94E31028E030E049EF52E062E051
:1036C00070E080E090E00E94B1118823C9F0109270
:1036D000F9021092FA021092FB021092FC02109270
:1036E000FD021092FE021092FF021092000301E010
:1036F00010E026E532E04CEF6FE080E00E94E3103E
:1037000028E030E041EF52E06AE070E080E090E0D5
:103710000E94B1118823C9F01092F1021092F202B6
:103720001092F3021092F4021092F5021092F60237
:103730001092F7021092F80201E010E026E532E064
:103740004CEF6FE080E00E94E31022E030E0AE0139
:103750004F5F5F4F62E170E080E090E00E94B11146
:10376000882381F084EF91E09093150280931402F6
:1037700001E010E026E532E04CEF6FE080E00E94CF
:10378000E31011C089819A819827892798279093FF
:10379000150280931402892B31F484EF91E0909309
:1037A00015028093140222E030E0AE014F5F5F4FBC
:1037B00064E170E080E090E00E94B111882381F024
:1037C00088E799E6909313028093120201E010E0DB
:1037D00026E532E04CEF6FE080E00E94E31011C07C
:1037E00089819A819827892798279093130280933B
:1037F0001202892B31F488E799E6909313028093A3
:10380000120222E030E0AE014F5F5F4F66E170E0F0
:1038100080E090E00E94B111882381F08CEE93E16A
:10382000909311028093100201E010E026E532E04F
:103830004CEF6FE080E00E94E31011C089819A8113
:103840009827892798279093110280931002892B3B
:1038500031F48CEE93E1909311028093100221E0F9
:1038600030E040EF52E06FEF70E080E090E00E94C7
:10387000B111882359F01092F00201E010E026E522
:1038800032E04CEF6FE080E00E94E3101092EF0214
:10389000812C912C5401C501B4010E949612909183
:1038A000EF02890F8093EF022FEF821A920AA20A89
:1038B000B20A3FEF83169104A104B10461F720E03E
:1038C00044E064E189EC92E1BBD96FEF89EC92E1CD
:1038D0009ED961E089EC92E197DC0BE31FE1C8011E
:1038E0000197F1F762E089EC92E18EDCC801019763
:1038F000F1F787E691E00E94DD1281E00E94F71265
:1039000082E591E00E94DD1282E00E94F7128DE3D1
:1039100091E00E94DD1283E00E94F71288E291E0BC
:103920000E94DD126EE372E080E00E94B21266E354
:1039300072E081E00E94B2126EE272E082E00E94C8
:10394000B21266E272E083E00E94B2126EE172E0AF
:1039500084E00E94B21266E172E085E00E94B21239
:1039600081E080935C020E94CA080E94B20881E054
:103970000E947314BC01990F880B990B6115710596
:103980008105910511F00E94F52A81E2E0E0F0E066
:1039900080935700E491E0930803E2E0F0E0809325
:1039A0005700E491E0930903E4E0F0E080935700CE
:1039B000849180930A03F8948091B9129091BA127D
:1039C0009093BC128093BB127894F8948091060374
:1039D00090910703909305038093040378940E94C9
:1039E000F90D0E94F20D0E94490C0E94420C0E94A7
:1039F000DF0B0E94D80B84E690E09093971680939B
:103A0000961660ED77E080E090E00E94981481E0E7
:103A1000898301E010E09E012F5F3F4F40E060E0AE
:103A200080E00E94E31088EC0E94CA0C0E94520BB6
:103A30009FE088E10FB6F894A895809360000FBED0
:103A400090936000FF24F394A8950E94320E892B76
:103A500011F00E94750180917315882321F18091E6
:103A60007715882301F180917915882309F4AEC375
:103A700080917A15813009F0A9C3A6C410928016EE
:103A80008091AE169091AF16A091B016B091B1167C
:103A90000196A11DB11D8093AE169093AF16A09311
:103AA000B016B093B11680913414882309F4B0C1D4
:103AB00080913614909137148F379105E1F58091FC
:103AC000421581111EC08091441581111AC00E94B7
:103AD000D01400913D1510913E1520913F15309165
:103AE0004015DC01CB01801B910BA20BB30BC397DC
:103AF000A105B10508F408C10E94500C811115C53B
:103B000003C10E94D01400913D1510913E152091E3
:103B10003F1530914015DC01CB01801B910BA20BAE
:103B2000B30B0B97A105B10508F4EEC00E94500C31
:103B300081114BC5E9C00F9709F099C00E94500C44
:103B4000882309F4E1C06DB67EB60E94500C8093C4
:103B50003A1480913A1490E00496ADB6BEB6A81A15
:103B6000B90A0FB6F894BEBE0FBEADBE2DB73EB7B4
:103B70002F5F3F4F69010E94DC148091B40EF60163
:103B800080838091B50E81838091B60E828380916F
:103B9000B70E838300913C15ACE3B4E1349680E02A
:103BA000081721F09D9191938F5FFACF10E00C5F81
:103BB0001F4F960142E067E082E00E94E31080918F
:103BC000B40EF60180838091B50E81838091B60E8C
:103BD00082838091B70E838310E080913A14181786
:103BE00040F40E94910CF601E10FF11D84831F5FE8
:103BF000F4CF00913A1410E00C5F1F4F960143E0A0
:103C000067E082E00E94E310F60184818E3F41F478
:103C1000809135148F7E806C809335140E94CA0C7D
:103C200080914615882309F455C080914815F0927B
:103C3000471581110CC04EC090913A1480914C15DB
:103C4000891708F0AEC4F092471510925D15809167
:103C50004915882309F43EC010923C1510924C156A
:103C600010924615109247151092481533C00E94C5
:103C7000D01400913D1510913E1520913F153091C3
:103C80004015DC01CB01801B910BA20BB30BC3973A
:103C9000A105B105C8F10E94500C811185C534C041
:103CA00000913A1410E00C5F1F4F960141E067E06D
:103CB00082E00E94E310F6018481823139F4809120
:103CC0003514806D809335140E94CA0C809146157E
:103CD000811160C40E94490C80916B1590916C1504
:103CE000A0916D15B0916E150196A11DB11D809327
:103CF0006B1590936C15A0936D15B0936E150FB660
:103D0000F8947EBE0FBE6DBE80914615882371F17A
:103D10000E94500C81112AC00E94D01400915915A4
:103D200010915A1520915B1530915C155B016C0167
:103D3000A01AB10AC20AD30A96018501409157150B
:103D4000509158154A01A12CB12C80169106A2065B
:103D5000B30660F46093591570935A1580935B1500
:103D600090935C158091471581115EC58091411536
:103D7000882309F44DC00E94500C882309F429C6F9
:103D800047C0011118C01F5F80913C151817E0F45F
:103D90000E94D0142B013C01E12FF0E0EC5CFB4EC3
:103DA00080850E94580C00E00E94500C181748F3C0
:103DB000002309F4C5C601E010E026E532E04EEF2D
:103DC0006FE080E00E94E31080913C15823008F0A3
:103DD00055C680913C15843008F09BC680913C15F7
:103DE000833008F0A3C61092411580916F15909111
:103DF0007015A0917115B09172150196A11DB11D9C
:103E000080936F1590937015A0937115B0937215F0
:103E10008091F512882309F453C18091F712909193
:103E2000F8128F379105D1F40E94D0140091FE133F
:103E30001091FF132091001430910114DC01CB018B
:103E4000801B910BA20BB30BC397A105B10508F41E
:103E5000C3C00E94E60B81112CC7BEC00F9709F0AA
:103E60007DC00E94E60B882309F4B6C06DB67EB60D
:103E70000E94E60B8093FB128091FB1290E0049667
:103E8000ADB6BEB6A81AB90A0FB6F894BEBE0FBE3C
:103E9000ADBE2DB73EB72F5F3F4F69010E94DC14C6
:103EA0008091B40EF60180838091B50E818380915C
:103EB000B60E82838091B70E83830091FD13ADEF20
:103EC000B2E1349680E0081721F09D9191938F5FC5
:103ED000FACF10E00C5F1F4F960142E067E083E0ED
:103EE0000E94E3108091B40EF60180838091B50E9C
:103EF00081838091B60E82838091B70E838310E018
:103F00008091FB12181740F40E94090CF601E10F92
:103F1000F11D84831F5FF4CF0091FB1210E00C5F52
:103F20001F4F960143E067E083E00E94E310F60133
:103F300084818E3F41F48091F6128E7F8C60809355
:103F4000F6120E94CA0C80910714882359F18091BF
:103F50000914811127C0F092081424C00E94D014C3
:103F60000091FE131091FF13209100143091011461
:103F7000DC01CB01801B910BA20BB30BC397A105F6
:103F8000B10550F10E94E60B8111DBC625C00091FE
:103F9000FB1210E00C5F1F4F960141E067E083E0E9
:103FA0000E94E3100E94DF0B80912C1490912D143D
:103FB000A0912E14B0912F140196A11DB11D8093D4
:103FC0002C1490932D14A0932E14B0932F140FB68D
:103FD000F8947EBE0FBE6DBE80910714882371F1E8
:103FE0000E94E60B81112AC00E94D01400911A147D
:103FF00010911B1420911C1430911D145B016C0155
:10400000A01AB10AC20AD30A960185014091181478
:10401000509119144A01A12CB12C80169106A206C8
:10402000B30660F460931A1470931B1480931C14ED
:1040300090931D14809108148111B8C680910214C8
:104040008823F1F10E94E60B882309F4B8C638C032
:10405000011118C01F5F8091FD131817E0F40E9432
:10406000D0142B013C01E12FF0E0EB50FD4E808598
:104070000E94EE0B00E00E94E60B181748F30023A5
:1040800009F42DC701E010E026E532E04EEF6FE0C5
:1040900080E00E94E31010920214809130149091FD
:1040A0003114A0913214B09133140196A11DB11DA9
:1040B0008093301490933114A0933214B09333143E
:1040C0000E94D0142B013C0160936304709364043C
:1040D000809365049093660480915B02882321F1AC
:1040E00080915F0490916004A0916104B09162049A
:1040F000B301A201481B590B6A0B7B0B809159023B
:1041000090915A02A0E0B0E0481759076A077B0770
:1041100058F040925F045092600460926104709283
:10412000620485E20E94A80B809157029091580288
:104130004C01A12CB12C80915B0490915C04A09166
:104140005D04B0915E04A3019201281B390B4A0B58
:104150005B0B281539054A055B0520F061E083E219
:104160000E9489138091570490915804A09159049A
:10417000B0915A04A3019201281B390B4A0B5B0B27
:10418000281539054A055B0520F061E084E20E94AC
:1041900089138091530490915404A0915504B091D7
:1041A0005604481A590A6A0A7B0A481459046A04D0
:1041B0007B0420F061E085E20E94891340E050E03A
:1041C000452B09F441CC0E9400003ECC0E94F90D21
:1041D0001092791510927A1580919D16882309F412
:1041E00096C08091A0169091A116892B09F48FC0DA
:1041F0000E94D0140091A6161091A7162091A8161F
:104200003091A9165B016C01A01AB10AC20AD30A47
:10421000960185014091A0165091A1164A01A12C4A
:10422000B12C80169106A206B30608F070C0609308
:10423000A6167093A7168093A8169093A9160E94AD
:10424000AA2A24E030E040E050E00E94192CDC0172
:10425000CB010396A11DB11D80937B16D12C0D2D92
:1042600010E080917B1690E09C01225031090217EA
:10427000130774F40E94AA2A0D581A4E20E031E068
:1042800040E050E00E94192CF8016087D394E7CFFA
:104290009C0121503109E3E7F5E18D589A4E40E049
:1042A0003196E817F90719F05781450FF9CFF90151
:1042B000ED58FA4E4087F09280168091A4169091A6
:1042C000A516A0E0B0E04090A2165090A316612C75
:1042D000712C481659066A067B06ACF44C015D0148
:1042E00084189508A608B70839F00E94AA2AA501E3
:1042F00094010E94192C03C060E070E0CB01460ECF
:10430000571E681E791E5092A1164092A0168091E9
:104310008516882371F10E94000E81112AC00E9427
:10432000D014009198161091991620919A163091F8
:104330009B165B016C01A01AB10AC20AD30A96014E
:10434000850140919616509197164A01A12CB12CE7
:1043500080169106A206B30660F4609398167093D7
:10436000991680939A1690939B16809186168111C8
:10437000D3C080918016882309F495CB20E08091EA
:104380007B16281708F07ACBE22FF0E0ED58FA4EB2
:10439000308580912C0390E001968F719927F894D5
:1043A00040912B03789450E084179507C1F3FC01EA
:1043B000E55FFC4F308380932C038091C9008062BD
:1043C0008093C9002F5FDBCF6DB67EB680917915E3
:1043D00090E00496EDB7FEB7E81BF90B0FB6F89422
:1043E000FEBF0FBEEDBF2DB73EB72F5F3F4F690138
:1043F0000E94DC148091B40EF60180838091B50E8A
:1044000081838091B60E82838091B70E838320E0F2
:1044100080917915281728F5F89490914F03809191
:104420004E03981304C0789480E092E014C078940E
:1044300080914E0390E001968F71992780934E03EF
:10444000FC01E25DFC4F308180912D0390E0982FBC
:104450008827830F911DF601E20FF11D84832F5FE2
:10446000D7CF0091791510E00C5F1F4F960142E005
:1044700067E081E00E94E31080918516882379F13E
:1044800080918716811119C091E0209179158217CA
:1044900078F4282F30E0F901ED58FA4ED601A20F3A
:1044A000B31F408514962C91421390E08F5FEDCF9F
:1044B0009923A9F0F092861612C0F6018481823FFA
:1044C00011F4F092861680918816882341F010929C
:1044D0007B161092851610928616109287161092EF
:1044E000791510927A158091AA169091AB16A09129
:1044F000AC16B091AD160196A11DB11D8093AA1600
:104500009093AB16A093AC16B093AD160FB6F8947B
:104510007EBE0FBE6DBE60CE80918716811129CF01
:10452000F09280161092861624CF6DB67EB60E9449
:10453000500C80933A1480913A1490E00496CDB6D2
:10454000DEB6C81AD90A0FB6F894DEBE0FBECDBECD
:104550002DB73EB72F5F3F4F69010E94DC14809159
:10456000B40EF60180838091B50E81838091B60EE2
:1045700082838091B70E838310E080913A141817DC
:1045800008F08ECB0E94910CF601E10FF11D84839F
:104590001F5FF3CF8091481581114ECBF0924715E4
:1045A00099CBF092411580915D158F5F80935D15D9
:1045B000833120F01092461510925D1564EF71E082
:1045C00080E090E00E94981442CB80E090E00E944E
:1045D000730C439731F481E090E00E94730C892BB7
:1045E00041F080E090E00E94730C8A9709F090C03F
:1045F0003FC082E090E00E94730C892B91F76DB66A
:104600007EB60E94500C80933A1480913A1490E048
:104610000496ADB6BEB6A81AB90A0FB6F894BEBED7
:104620000FBEADBE2DB73EB72F5F3F4F69010E9451
:10463000DC1410924215109243158091B40EF601CD
:1046400080838091B50E81838091B60E82838091A4
:10465000B70E838310E080913A14181708F047C012
:104660000E94910CF601E10FF11D84831F5FF3CFCF
:1046700081E090E00E94730C892B09F049C06DB66F
:104680007EB60E94500C80933A1480913A1490E0C8
:104690000496ADB6BEB6A81AB90A0FB6F894BEBE57
:1046A0000FBEADBE2DB73EB72F5F3F4F69010E94D1
:1046B000DC1410924415109245158091B40EF60149
:1046C00080838091B50E81838091B60E8283809124
:1046D000B70E838310E080913A14181740F40E94BB
:1046E000910CF601E10FF11D84831F5FF4CF00915F
:1046F0003A1410E00C5F1F4F960141E067E082E042
:104700000E94E3100FB6F8947EBE0FBE6DBE27C0A8
:104710000E94500C80933A140E94DC148091B40ED5
:1047200089838091B50E8A838091B60E8B838091A8
:10473000B70E8C838091421590914415811125C04C
:1047400091112AC00E94910C8F8307E010E09E0116
:104750002F5F3F4F41E067E082E00E94E3100E943C
:10476000490C80916B1590916C15A0916D15B091CD
:104770006E150196A11DB11D80936B1590936C155C
:10478000A0936D15B0936E15BFCA9111D9CF83E177
:104790008D838091431506C08111D4CF8AE28D8329
:1047A000809145158E83CECF6DB67EB60E94500C9B
:1047B00080933A1480913A1490E00496ADB6BEB658
:1047C000A81AB90A0FB6F894BEBE0FBEADBE2DB77B
:1047D0003EB72F5F3F4F69010E94DC148091B40EF9
:1047E000F60180838091B50E81838091B60E82831D
:1047F0008091B70E838310E080913A14181740F42B
:104800000E94910CF601E10FF11D84831F5FF4CF2C
:1048100000913A1410E00C5F1F4F960141E067E0F1
:1048200082E00E94E31056CA80914815811105C0AC
:10483000F09241151092471599CA20914C152430D9
:1048400009F044C080913C15811111C080914D1533
:1048500090914E1530914F154091501540933C1456
:1048600030933D1490933E1480933F1441C0609167
:104870003C1470913D1480913E1490913F140E941D
:10488000772D4091551550915615DC01CB01840FC1
:10489000951FA11DB11DB0933C14A0933D1490939E
:1048A0003E1480933F1420933C15009151151091B4
:1048B0005215209153153091541580179107A20776
:1048C000B30708F4B5CFF0924915B2CF233089F57C
:1048D00080913C1581110FC080914D1590914E151E
:1048E00030914F1530933C1490933D1480933E14B7
:1048F00020933C159DCF30913C1480913D1490E065
:10490000A0E0B0E0BA2FA92F982F8827A32B3091D1
:104910003E14832B4091551550915615840F951FC9
:10492000A11DB11DA0933C1490933D1480933E149F
:1049300024C0223029F580913C15811109C0809155
:104940004D1590914E1590933C1480933D14D0CF0B
:1049500040913C1450913D14542745275427809191
:10496000551590915615A0E0B0E0840F951FA11D3C
:10497000B11D90933C1480933D1420933C151AC0B4
:10498000213009F055CF80913C15811107C08091ED
:104990004D1580933C14F0923C154ACF90913C14F5
:1049A00080915515890F80933C14F0923C1590E04E
:1049B000A0E0B0E04091511550915215609153150F
:1049C0007091541584179507A607B70708F07BCF99
:1049D0002FCF80913614909137148F37910509F4B9
:1049E0004BC00F9711F010E02CC080913C14E6E40E
:1049F000F2E09191891709F4F4C056E5A52E52E032
:104A0000B52EAE16BF06A9F701E010E02CE334E1A5
:104A100049EF2DC0011126C00E94D014DC01CB014A
:104A200084199509A609B70901E04597A105B105C3
:104A300008F400E00E94500C181760F7011112C032
:104A40001F5F80913C15181708F0CDC90E94D01443
:104A50002B013C01E12FF0E0EC5CFB4E80850E94D5
:104A6000580CE7CF01E010E026E532E04EEF6FE0B2
:104A700080E00E94E310B7C910E086C90E94500C84
:104A8000823078F180E090E00E94730C439749F502
:104A900081E090E00E94730C892B09F060C021C076
:104AA0000E94D014DC01CB0184199509A609B7092D
:104AB00011E085369105A105B10508F454C00E94A6
:104AC000500C90913C15981708F44FC0112341F3F6
:104AD00001E010E026E532E04EEF6FE080E00E945A
:104AE000E31080913C15823008F473C90E94500C89
:104AF000823008F46EC980E090E00E94730C8A97BF
:104B000009F067C981E090E00E94730C892BC1F520
:104B100060C90E94500C843008F460C980E090E0C5
:104B20000E94730C869709F059C95DC90E94500C08
:104B3000833008F458C980E090E00E94730C53C998
:104B40000E94D014DC01CB0184199509A609B7098C
:104B500001E04597A105B10508F026C924C90E94C6
:104B6000D0142B013C0110E0AACF1111B1CFF0926B
:104B7000421580913D14809343150E94490CB1CF9A
:104B80000E94D0142B013C0110E00E94500C909127
:104B90003C159817D8F0112351F001E010E026E5FC
:104BA00032E04EEF6FE080E00E94E31012C90E94F5
:104BB000D014DC01CB0184199509A609B70911E0CD
:104BC00085369105A105B10500F7DECF1111E5CFBE
:104BD000F092441580913D14809345150E94490C34
:104BE000F8C880913C15823070F080913D148F3F61
:104BF00051F4EDE3F4E180E081938F5F803FE1F7D2
:104C000081EF80933C15D12C00E080913C15D816A3
:104C100008F0E9C88D2D90E09C012C5C3B4E1901F9
:104C2000A901485F5F4F598748870E94D0142B0124
:104C30003C01E885F98580810E94580C10E00E94B3
:104C4000500CD816E8F0112369F080913C14898348
:104C5000F10180858A8302E010E09E012F5F3F4FC3
:104C60004AEF05CF0E94D014DC01CB0184199509CD
:104C7000A609B70911E00697A105B10500F7DECF37
:104C80001111E3CF80E090E00E94730C20913C145E
:104C900030E08217930759F00E94490C0F5F0A30E9
:104CA00021F601E010E02CE334E148EFE0CED394AC
:104CB000ACCF6DB67EB60E94E60B8093FB1280915E
:104CC000FB1290E00496CDB6DEB6C81AD90A0FB62C
:104CD000F894DEBE0FBECDBE2DB73EB72F5F3F4F5F
:104CE00069010E94DC148091B40EF60180838091EA
:104CF000B50E81838091B60E82838091B70E838337
:104D000010E08091FB12181740F40E94090CF60184
:104D1000E10FF11D84831F5FF4CF0091FB1210E0BF
:104D20000C5F1F4F960141E067E083E00E94E310B3
:104D3000F6018481823109F006C98091F6128D60F6
:104D4000FEC86DB67EB60E94E60B8093FB12809182
:104D5000FB1290E00496ADB6BEB6A81AB90A0FB61B
:104D6000F894BEBE0FBEADBE2DB73EB72F5F3F4F0E
:104D700069010E94DC148091B40EF6018083809159
:104D8000B50E81838091B60E82838091B70E8383A6
:104D900010E08091FB12181708F0F9C80E94090C66
:104DA000F601E10FF11D84831F5FF3CF8091091499
:104DB000811144C9F0920214109208143FC98091E5
:104DC000F7129091F8128F37910509F486C00F976A
:104DD00011F010E071C08091FD12E6E4F2E09191D3
:104DE000891303C010E0312C2FC046E5A42E42E009
:104DF000B42EAE16BF0699F701E010E02DEF32E1B8
:104E000049EF45C90E94D0142B013C01E885F98582
:104E100080810E94EE0B00E00E94E60B181728F537
:104E2000011126C0F8949091520480915104981376
:104E300074C0789480E092E02091FD1230E0281751
:104E4000390709F07AC01F5F8091FD13181708F029
:104E500022C9812F90E09C012B503D4E6901A90190
:104E6000485F5F4F59874887CDCF002309F446C07C
:104E70008091FD128983F60180858A8302E010E02B
:104E80009E012F5F3F4F4AEF02C90111FBC80E94EC
:104E9000D014DC01CB0184199509A609B70901E0FA
:104EA0004597A105B10508F400E00E94E60B18172C
:104EB00060F70111E7C81F5F8091FD13181708F014
:104EC000EAC80E94D0142B013C01E12FF0E0EB5026
:104ED000FD4E80850E94EE0BE7CF10E0BCC80E941B
:104EE000D014DC01CB0184199509A609B70901E0AA
:104EF0004597A105B10508F0BEC8BCC80E94D014F2
:104F0000DC01CB0184199509A609B70901E00697D0
:104F1000A105B10508F080CF7ECF7894E0915104CF
:104F2000EF5FF0E0EF5AFC4F20818091500390E05A
:104F3000982F8827820F911D7FCF0E94DF0B33941B
:104F4000F9E0F31508F05ECF01E010E02DEF32E15B
:104F500048EF9DC88091EF129091F0122AC2FC0197
:104F600081E0808398EC91832FE730E033832283C4
:104F70008483158216821782DF01A85FBE4F1C92C0
:104F800011961D921D921D921C92139714961C92BD
:104F900011961C9211961C9211961C9211961C92BD
:104FA00011961C9211961C9211961C9211968C933C
:104FB00011961C9211961C9211961C9211961D929C
:104FC0001D921D921C92139714961D921D921D9274
:104FD0001C921397149681E090E011969C938E9307
:104FE000129611961C921E9212961D921D921D925F
:104FF0001C92139714961C9211961C9211961C9257
:1050000011961C92119611961C921E921296119650
:105010001C921E92129611961C921E9212961D922E
:105020001D921D921C92139714961D921D921D9213
:105030001C921397E55CFE4F10821182128213823C
:105040000895EDEBF2E11382128288EE93E0A0E086
:10505000B0E084839583A683B7838EEA92E0918340
:10506000808383E795E17BDF84E394E178DF85EF5C
:1050700092E175DF8FEE92E10E948D10E2EEF2E197
:1050800020E230E03283218381E0838335832483EF
:1050900090E5908340E050E160E070E04187528706
:1050A0006387748722E030E0308727839CE0968313
:1050B000E9ECF2E11382128220EC32E031832083AA
:1050C000108A9FEF97871686118A97E29387148636
:1050D00015861286118694E0928B92E0938B848BD6
:1050E00080E1858B80E2868B80E4878B80E8808FEF
:1050F00040E050E063E0CF010C94C9153F924F921D
:105100005F926F927F928F929F92AF92BF92CF9257
:10511000DF92EF92FF920F931F93CF93DF931F9233
:10512000CDB7DEB72B013C014983AB01BC014F5F1A
:105130005F4F6F4F7F4F8091EB129091EC12A091D7
:10514000ED12B091EE1284179507A607B70708F481
:1051500084C0CE0101967C0120E2C22ED12C99247C
:1051600093943BECA32E37E0B32E8091E6129091FE
:10517000E7129C012150310924213521821B930B18
:105180002091E9123091EA128601021B130B11F0F3
:1051900001E010E08017910708F48C01D301C201EF
:1051A0000090E81204C0B695A795979587950A9444
:1051B000D2F78090E212882A9092900E8092B20EDE
:1051C0001092910E1092B30E2230310541F49927BE
:1051D000872D762D652D8DEB92E10E949B15642D18
:1051E0008DEB92E10E949B15A801B7018DEB92E136
:1051F0000E946F150E945511811130C084E6382E2F
:10520000C5010197F1F79092900E8092B20E109224
:10521000910E1092B30E8091E9129091EA120297CA
:1052200021F480E090E00E94AE1280E090E00E94C5
:10523000AE120E945511882321F03A943110E0CF2C
:105240000DC0400E511E611C711CE00EF11E01309C
:10525000110509F08ACF80E001C089E00F90DF914D
:10526000CF911F910F91FF90EF90DF90CF90BF9063
:10527000AF909F908F907F906F905F904F903F90F6
:1052800008950F931F93CF93DF938230910510F40D
:1052900082E090E0E091FA16F091FB1620E030E019
:1052A000A0E0B0E0309719F1408151810281138173
:1052B00048175907C8F08417950769F4109731F01B
:1052C00012960C93129713961C9327C00093FA160C
:1052D0001093FB1622C02115310519F04217530710
:1052E00018F49A01BD01EF01DF01F801DBCF2115B0
:1052F0003105F9F0281B390B2430310580F48A81FF
:105300009B816115710521F0FB019383828304C0A9
:105310009093FB168093FA16FE01329644C0FE016C
:10532000E20FF31F8193919322503109398328832F
:105330003AC02091F8163091F916232B41F42091B0
:105340005F02309160023093F9162093F816209195
:105350005D0230915E022115310541F42DB73EB753
:105360004091610250916202241B350BE091F816C6
:10537000F091F916E217F307A0F42E1B3F0B281744
:10538000390778F0AC014E5F5F4F2417350748F0BE
:105390004E0F5F1F5093F9164093F8168193919327
:1053A00002C0E0E0F0E0CF01DF91CF911F910F91BB
:1053B0000895CF93DF93009709F481C0FC013297E1
:1053C00013821282A091FA16B091FB16109781F405
:1053D00020813181820F931F2091F8163091F916A8
:1053E0002817390751F5F093F916E093F81667C0BE
:1053F000ED0120E030E0CE17DF0740F44A815B8109
:105400009E0141155105F1F0EA01F5CFD383C28326
:1054100040815181840F951FC817D90759F488819D
:105420009981840F951F0296918380838A819B8145
:10543000938382832115310529F4F093FB16E093C1
:10544000FA163DC0E901FB83EA8349915991C40FE3
:10545000D51FEC17FD0761F480819181840F951FA2
:105460000296E90199838883828193819B838A8351
:10547000E0E0F0E012968D919C911397009719F05F
:10548000FD01DC01F7CF8D919C9111979D012E5F5D
:105490003F4F820F931F2091F8163091F91628176D
:1054A000390769F4309729F41092FB161092FA1616
:1054B00002C013821282B093F916A093F816DF91FE
:1054C000CF9108958F929F92AF92BF92CF92DF9229
:1054D000EF92FF92CF93DF93EC01688179818A810B
:1054E0009B81611571058105910521F464E279EDD7
:1054F0008BE597E02DE133EF41E050E09AD149018F
:105500005A019B01AC01A7EAB1E4AFD16B017C0168
:10551000ACEEB4EFA5019401B4D1DC01CB018C0D4C
:105520009D1DAE1DBF1DB7FF03C00197A109B04867
:1055300088839983AA83BB83BC01CD019F77DF91C8
:10554000CF91FF90EF90DF90CF90BF90AF909F9062
:105550008F9008958F929F92AF92BF92CF92DF92D9
:10556000EF92FF92609163027091640280916502F4
:1055700090916602611571058105910521F464E23F
:1055800079ED8BE597E02DE133EF41E050E051D12B
:1055900049015A019B01AC01A7EAB1E466D16B0154
:1055A0007C01ACEEB4EFA50194016BD1DC01CB0121
:1055B0008C0D9D1DAE1DBF1DB7FF03C00197A10936
:1055C000B0488093630290936402A0936502B09305
:1055D0006602BC01CD019F77FF90EF90DF90CF90E6
:1055E000BF90AF909F908F900895609363027093E7
:1055F00064028093650290936602089546EF56E137
:1056000000C0FA01A191B081009719F41097E1F060
:10561000CD01DC01CD010D90002011F4C00113C0BB
:10562000FB012191222319F02015D9F7F3CFFB01BB
:105630002191201519F41E92119606C02223C1F75C
:105640000D900020A1F7D001FA01A193B083089535
:10565000E89409C097FB3EF490958095709561950C
:105660007F4F8F4F9F4F9923A9F0F92F96E9BB27C2
:105670009395F695879577956795B795F111F8CF3E
:10568000FAF4BB0F11F460FF1BC06F5F7F4F8F4FA9
:105690009F4F16C0882311F096E911C0772321F09F
:1056A0009EE8872F762F05C0662371F096E8862F37
:1056B00070E060E02AF09A95660F771F881FDAF78E
:1056C000880F9695879597F908950BD078C069D083
:1056D00028F06ED018F0952309F05AC05FC011244D
:1056E000A2C07ED0A0F3959FD1F3950F50E0551F37
:1056F000629FF001729FBB27F00DB11D639FAA2727
:10570000F00DB11DAA1F649F6627B00DA11D661F75
:10571000829F2227B00DA11D621F739FB00DA11D96
:10572000621F839FA00D611D221F749F3327A00D50
:10573000611D231F849F600D211D822F762F6A2FEC
:1057400011249F5750408AF0E1F088234AF0EE0F71
:10575000FF1FBB1F661F771F881F91505040A9F77E
:105760009E3F510570F014C05EC05F3FECF3983E61
:10577000DCF3869577956795B795F795E7959F5FE5
:10578000C1F7FE2B880F911D9695879597F908957F
:1057900097F99F6780E870E060E008959FEF80ECE4
:1057A000089500240A941616170618060906089587
:1057B00000240A9412161306140605060895092EED
:1057C0000394000C11F4882352F0BB0F40F4BF2B5C
:1057D00011F460FF04C06F5F7F4F8F4F9F4F08959C
:1057E00057FD9058440F551F59F05F3F71F0479592
:1057F000880F97FB991F61F09F3F79F08795089577
:10580000121613061406551FF2CF4695F1DF08C095
:10581000161617061806991FF1CF869571056105B2
:1058200008940895E894BB2766277727CB0197F95A
:105830000895052E97FB16F400940FD057FD05D060
:1058400024D007FC02D046F408C05095409530950E
:1058500021953F4F4F4F5F4F0895909580957095DC
:1058600061957F4F8F4F9F4F089531D0A59F900D29
:10587000B49F900DA49F800D911D11240895B7FF32
:10588000F4CFF3DF821B930B0895A1E21A2EAA1B1B
:10589000BB1BFD010DC0AA1FBB1FEE1FFF1FA217E0
:1058A000B307E407F50720F0A21BB30BE40BF50BDD
:1058B000661F771F881F991F1A9469F76095709566
:1058C000809590959B01AC01BD01CF010895A29FE9
:1058D000B001B39FC001A39F700D811D1124911DC4
:1058E000B29F700D811D1124911D08955058BB2742
:1058F000AA270ED064CF55DF30F05ADF20F031F404
:105900009F3F11F41EF44ACF0EF4E095E7FB40CF21
:10591000E92F66DF80F3BA176207730784079507DC
:1059200018F071F49EF57ECF0EF4E0950B2EBA2F91
:10593000A02D0B01B90190010C01CA01A001112495
:10594000FF27591B99F0593F50F4503E68F11A1641
:10595000F040A22F232F342F4427585FF3CF4695D2
:1059600037952795A795F0405395C9F77EF41F16F4
:10597000BA0B620B730B840BBAF09150A1F0FF0FBE
:10598000BB1F661F771F881FC2F70EC0BA0F621FAA
:10599000731F841F48F4879577956795B795F7959A
:1059A0009E3F08F0B3CF9395880F08F09927EE0F2C
:1059B0009795879508950CD002CFFADE40F0F1DE7E
:1059C00030F021F45F3F19F0E3CE51112CCFE6CE39
:1059D00007DF98F39923C9F35523B1F3951B550BB2
:1059E000BB27AA2762177307840738F09F5F5F4FB2
:1059F000220F331F441FAA1FA9F333D00E2E3AF0F3
:105A0000E0E830D091505040E695001CCAF729D00C
:105A1000FE2F27D0660F771F881FBB1F261737075B
:105A20004807AB07B0E809F0BB0B802DBF01FF278B
:105A300093585F4F2AF09E3F510568F0A9CEF3CEF0
:105A40005F3FECF3983EDCF3869577956795B795C5
:105A5000F7959F5FC9F7880F911D9695879597F9E0
:105A60000895E1E0660F771F881FBB1F6217730759
:105A70008407BA0720F0621B730B840BBA0BEE1F6E
:105A800088F7E0950895B4DE88F09F5790F0B92F1D
:105A90009927B751A0F0D1F0660F771F881F991F83
:105AA0001AF0BA95C9F712C0B13081F0BBDEB1E08F
:105AB0000895B8CE672F782F8827B85F39F0B93F9F
:105AC000CCF3869577956795B395D9F73EF4909585
:105AD0008095709561957F4F8F4F9F4F0895EE0F82
