:020000040000FA
:100000000C941C020C9479320C944E320C942332D2
:100010000C94F8310C94CD310C94A2310C947731BE
:100020000C944C310C944D020C944D020C944D02E6
:100030000C944D020C944D020C944D020C944D0204
:100040000C944D020C94A4320C944D020C944D026D
:100050000C944D020C944D020C944D020C94023100
:100060000C944D020C940E360C94C9350C944D0230
:100070000C944D020C944D020C944D020C944D02C4
:100080000C94F1320C944D020C944D020C944D02E0
:100090000C9444330C9411330C944D020C9485331E
:1000A0000C944D020C944D020C944D020C944D0294
:1000B0000C944D020C944D020C944D020C944D0284
:1000C0000C944D020C944D020C944D020C947A3514
:1000D0000C9439350C944D020C94EA340C94A934E8
:1000E0000C944D020C944F3F0C948F3C0C94600385
:1000F0000C94C63C0C94BC040C945A030C94C6415A
:100100000C9453030C9442060C94A0420C94C93CEA
:100110000C948A030C944F020C9498060C94ED3FB7
:100120000C9457030C9434030C94B21F0C9480036A
:100130000C94CE370C9464030C94B6400C94D53ECA
:100140000C94BE490C946B060C94EC3E0C94A642A5
:100150000C9411070C94BD040C94D7020C946A0300
:100160000C9465410C943F070C94793F0C94E0404B
:100170000C94A93E0C944B030C9451060C94640609
:100180000C9423400C946E030C94010C0C941007F7
:100190000C9478030C9486030C94D2040C94720390
:1001A0000C944F030C949D3C0C9441060C9450020B
:1001B0000C9439030C947C034343442F534349006C
:1001C000202000205343414E4E45522056004348C4
:1001D0005259534C4552204343442F534349002D19
:1001E0002D2D2D2D2D2D2D2D2D2D2D2D2D2D2D2D3F
:1001F0002D2D2D0020202020002020205343414E73
:100200004E4552205600202043485259534C4552E7
:10021000204343442F5343492020002D2D2D2D2DC5
:100220002D2D2D2D2D2D2D2D2D2D2D2D2D2D2D002B
:10023000202020203072706D0020203020432020AC
:10024000202020302E306B5061002020306B6D2F2D
:100250006820202020203072706D00202020202077
:10026000302E3030306B6D202020202020202000C8
:1002700020302E302F20302E3056202020202020DD
:1002800020202020002020302F202030204320203C
:10029000202020302E306B5061002020306B6D2FDD
:1002A00068202020203072706D2020203025002012
:1002B0002020203072706D00202030204620202029
:1002C0002020302E30707369002020306D7068203F
:1002D00020202020203072706D002020202020302F
:1002E0002E3030306D69202020202020202000205A
:1002F000302E302F20302E3056202020202020205D
:10030000202020002020302F2020302046202020B8
:100310002020302E30707369002020306D706820EE
:10032000202020203072706D202020302500000019
:100330002100240027002A002D0030003300010195
:100340000000040107010A01000022002500280026
:100350002B002E00310034000201000005010801CD
:100360000B01050505050705080808080202020239
:100370000A0A080804040404010101010101010141
:100380000303030303030303040707070C0C0C0C0C
:100390000C0C0C0C020202020606060606060606F5
:1003A0000B0B0B0B0B0B0B0B010210202008081082
:1003B00020401020408002010201080402010102D5
:1003C00004081020408080402010080402018004AE
:1003D0000201804020100804020108040201010209
:1003E0000408102040800102040810204080000012
:1003F0000A0B02090C0D0E0807030401000000009F
:1004000000000000000000000000000000000000EC
:1004100000000000000000000000121110000000A9
:1004200000000000000000000000000000000000CC
:1004300000000000CE37BE4911241FBECFEFD1E22D
:10044000DEBFCDBF00E00CBF12E0A0E0B2E0E0E212
:10045000FFE900E00BBF02C007900D92AA3FB10771
:10046000D9F724E1AAEFB2E001C01D92A63BB20782
:10047000E1F712E0CBE1D2E000E006C021970109EC
:10048000802FFE010E947E4ECA31D10780E008070E
:10049000A9F70E9424380C947E4F0C940000089514
:1004A0000895F89490919D0F80919C0F981304C02B
:1004B000789480E092E008957894E0919C0FEF5F4B
:1004C000F0E0E456F14F208190919B0E892F90E04F
:1004D000982F8827820F911D08952091D90F2223EC
:1004E00009F447C0E22FE695E695E695F0E0E55F72
:1004F000FF4E808190E0277002C0959587952A95E0
:10050000E2F780FD36C0809105108823A9F1809123
:10051000E90F823088F1E091E90FE15090E080E04E
:1005200020E08E1740F4DC01A853B04F51963C9167
:10053000230F0196F6CFF0E0E853F04F818928139E
:100540000DC080E09091E90F891718F5E82FF0E0D1
:10055000E853F04F918990838F5FF4CFE0912D1095
:10056000F0912E10309729F060E970E090E080E083
:1005700019951092E90F089580E09091E90F89177D
:1005800040F4E82FF0E0E853F04F918990838F5FBB
:10059000F4CF6091E90F6093D80FE0912B10F091A8
:1005A0002C10309731F388EC9FE01995E2CFAF9291
:1005B000BF92CF92DF92EF92FF920F931F93CF9350
:1005C000DF936C017B018B01040F151FEB015E01B2
:1005D000AE18BF08C017D10759F06991D601ED9147
:1005E000FC910190F081E02DC6011995892B79F7D6
:1005F000C501DF91CF911F910F91FF90EF90DF9098
:10060000CF90BF90AF900895282F30E0F901E251CC
:10061000FC4F9491F901E855FC4F44912E593C4F01
:10062000F9012491222309F435C0992311F1915045
:100630009231F8F4E92FF0E08827EE5DFC4F8F4F00
:100640000C947E4E5303570334034B034F0339037B
:100650005A03600364036A036E03720378037C0326
:100660003903800386038A03809180008F7780930B
:100670008000E22FF0E0EE0FFF1FE85BFC4FA5913A
:10068000B4918FB7F894EC91611148C040954E2316
:100690004C938FBF0895809180008F7DE8CF80912B
:1006A0008000877FE4CF84B58F7784BDE2CF84B5A7
:1006B0008F7DFBCF8091B0008F778093B000D9CF32
:1006C0008091B0008F7DF9CF809190008F778093DB
:1006D0009000CFCF809190008F7DF9CF80919000D6
:1006E000877FF5CF8091A0008F778093A000C1CF46
:1006F0008091A0008F7DF9CF8091A000877FF5CFFA
:10070000809120018F7780932001B3CF80912001C9
:100710008F7DF9CF80912001877FF5CF4E2BB8CF09
:10072000CF93DF9390E0FC01E855FC4F24918E5964
:100730009C4FFC0184918823C9F090E0880F991F99
:10074000FC01E25DFC4FA591B491FC01E85BFC4F1C
:10075000C591D49161110DC09FB7F8948C912095EB
:1007600082238C938881282328839FBFDF91CF9198
:100770000895623051F49FB7F8943C91822F809590
:1007800083238C93E8812E2BEFCF8FB7F894EC91D5
:100790002E2B2C938FBFEACF863308F086532091FF
:1007A0007B00982F9870277F922B90937B0020914D
:1007B0004B0290E4299F900111248770822B809333
:1007C0007C0080917A00806480937A0080917A0026
:1007D00086FDFCCF809178009091790008953FB715
:1007E000F8948091540E9091550EA091560EB091B0
:1007F000570E26B5A89B05C02F3F19F00196A11DE5
:10080000B11D3FBFBA2FA92F982F8827BC01CD015A
:10081000620F711D811D911D42E0660F771F881FB9
:10082000991F4A95D1F708958F929F92AF92BF92E8
:10083000CF92DF92EF92FF924B015C010E94EF0397
:100840006B017C010E94EF036C197D098E099F09E1
:10085000683E734081059105A8F321E0821A910852
:10086000A108B10888EEC80E83E0D81EE11CF11C77
:1008700081149104A104B10429F7FF90EF90DF9057
:10088000CF90BF90AF909F908F9008952FB7F8941E
:100890006091500E7091510E8091520E9091530EB6
:1008A0002FBF08950E9446046093970E7093980E90
:1008B0008093990E90939A0EE3E9FEE090838183F2
:1008C000728363830895CF92DF92EF92FF92582F45
:1008D000FC0130E020E0261748F44191D901A853EB
:1008E000B04F92964C932F5F3F4FF5CF209106105B
:1008F0002223A9F0623098F02FEF260FFC0140E090
:100900003191430F3E2F351B3217D0F330E0F90100
:10091000E853F04F42A3820F931FFC0140831092D3
:10092000FA0F6093FB0F0E9446046B017C0180E08C
:100930009091FD0F911111C081111CC00E944604BD
:10094000AB01BC014C195D096E097F0981E0483E8D
:1009500053406105710560F7EACF81110BC08091AA
:10096000C90080628093C90080E0FF90EF90DF9023
:10097000CF90089582E0F9CF0895109285001092EB
:100980008400E1E8F0E0808185608083ED988CEB65
:1009900094E09093570280935602E8ECFFE015AA8A
:1009A00016AA0895649B05C01092FD0F1092FE0FC9
:1009B00008951092950010929400809191008560A6
:1009C0008093910081E08093FD0F8091E90F811168
:1009D0000C946D02089520912C0E260F3327331F9F
:1009E00021323105ECF420915510FC0190E080E0BB
:1009F000243069F082E00895A0912C0E2191AC0181
:100A0000445F514FA40FB52FB11D2C93019686174B
:100A100098F380912C0E680F60932C0E80E008955F
:100A200081E008951092551081E080935410109247
:100A30002F1061E084E10E94040361E085E10E94DF
:100A40000403E9EBF0E080818E7F808380818D7FDD
:100A5000808388E48093B80085E48093BC00089587
:100A6000CF93DF9391E090930B0E8823B9F0C09160
:100A7000B800D091BA008091BC008A7B8093BC0002
:100A800060E084E10E94040360E085E10E940403C9
:100A90000E941205D093BA00C093B800DF91CF91A5
:100AA00008958F929F92AF92BF92CF92DF92EF9272
:100AB000FF920F931F93CF93DF93D0917E10D1328B
:100AC00008F0D7C0182FC0917D100E94EF036B0172
:100AD0007C018091551081116BC082E0809355108C
:100AE000109354108FEF8093531010925210D093A4
:100AF0005110ADE5B0E1E1E3F0E180E0D81391C041
:100B00001092301080913010CC0FC82BC093301051
:100B100080912F10813009F088C010922F100E9410
:100B2000EF036B017C01809130108093BB008091BA
:100B3000571090915810A0915910B0915A10892BCC
:100B40008A2B8B2BA1F00E94EF030091571010917C
:100B500058102091591030915A106C197D098E0946
:100B60009F09061717072807390708F442C0809124
:100B7000BC0083FDD8CF85EC8093BC000E94EF03BE
:100B80006B017C0180915510823009F450C0809136
:100B900053108F3F09F46FC080915310803209F4D5
:100BA0006CC080915310803309F469C084E026C082
:100BB0008091571090915810A0915910B0915A10EF
:100BC000892B8A2B8B2B09F484CF0E94EF03809012
:100BD000571090905810A0905910B0905A106C195E
:100BE0007D098E099F0986169706A806B90608F0A2
:100BF00070CF809156100E94300585E010925C10F5
:100C000010927E1010925B10DF91CF911F910F9187
:100C1000FF90EF90DF90CF90BF90AF909F908F901C
:100C200008959D9191938F5F69CF85EEA5CF8091B7
:100C3000571090915810A0915910B0915A10892BCB
:100C40008A2B8B2B09F49ECF0E94EF030091571043
:100C5000109158102091591030915A106C197D093B
:100C60008E099F09061717072807390708F08ACF4A
:100C7000C0CF81E0C3CF80E0C1CF82E0BFCF83E0AF
:100C8000BDCF0895E091C70F8091C60FE81730F4EB
:100C9000F0E0EE55F04F808190E008958FEF9FEFE8
:100CA00008959091C70F8091C60F2FEF3FEF9817CF
:100CB00048F4E92FF0E0EE55F04F208130E09F5FDF
:100CC0009093C70FC90108958091C60F9091C70FE7
:100CD000891B990B0895CF92DF92EF92FF920F93A9
:100CE0001F93CF93DF937C01CB018A0120915B108E
:100CF000222389F0EB016B01C40ED51ECC15DD0556
:100D000069F06991D701ED91FC910190F081E02D9E
:100D1000C7011995F3CF642F0E94EB04C801DF913E
:100D2000CF911F910F91FF90EF90DF90CF9008959A
:100D3000CF93DF931F92CDB7DEB7698320915B100D
:100D40002223F9F020917E10203258F021E030E08B
:100D5000FC013383228390E080E00F90DF91CF91FC
:100D6000089580915C10E82FF0E0E35AFF4E9981DE
:100D700090838F5F80935C1080937E1081E090E081
:100D8000ECCF61E0CE0101960E94EB04F7CF682F13
:100D90008FE790E10C9498061092C70F1092C60F3F
:100DA0000E9412058FE492E09093C30F8093C20FCC
:100DB00080E592E09093C50F8093C40F8CE0809300
:100DC000B80080919D1091E090935B1080937D100E
:100DD00010925C1010927E108091A4109091A5103A
:100DE000029721F490E080E00E94C70690E080E046
:100DF0000E94C70681E00C945105FC01248131E07A
:100E000030935B1020937D1010925C1010927E1036
:100E10008385862B90E00E94C70681E00C945105E3
:100E2000089590E080E00895CF93C82F60E00E947D
:100E30000403C43271F0C532B9F00E9446046093D5
:100E40008B0E70938C0E80938D0E90938E0ECF919F
:100E500008950E9446046093870E7093880E8093D5
:100E6000890E90938A0EF3CF0E9446046093830EFE
:100E70007093840E8093850E9093860EE8CF209118
:100E80005A13222369F060937413282FA4E6B3E168
:100E9000FC018E2F821B861718F481918D93F9CF58
:100EA00008954F925F926F927F928F929F92AF922E
:100EB000BF92CF92DF92EF92FF92CF93DF93109287
:100EC000070E1092080E1092090E10920A0E109240
:100ED000030E1092040E1092050E1092060EC0E83A
:100EE000D0E087E30E94CC03092E000CAA0BBB0BB9
:100EF0004091070E5091080E6091090E70910A0EF4
:100F00004C015D01840E951EA61EB71E8092070E31
:100F10009092080EA092090EB0920A0E219709F73E
:100F2000C0E8D0E088E30E94CC036C01990FEE0882
:100F3000FF088091030E9091040EA091050EB091D0
:100F4000060E8C0D9D1DAE1DBF1D8093030E90934C
:100F5000040EA093050EB093060E219719F727E013
:100F6000B694A794979487942A95D1F78092070E08
:100F70009092080EA092090EB0920A0E6C017D01AB
:100F800037E0F694E794D794C7943A95D1F7C09296
:100F9000030ED092040EE092050EF092060E6091C0
:100FA000490270914A0290E080E00E94954B20E057
:100FB00030E048EC52E40E94CC4D2B013C01C501CD
:100FC000B4010E94954BA30192010E94F64B20E0D0
:100FD00030EC4FE754E40E94CC4D20E030E048EC88
:100FE00052E40E94F64B0E94454EEB01C701B60148
:100FF0000E94954BA30192010E94F64B20E030EC39
:101000004FE754E40E94CC4D20E030E048EC52E43D
:101010000E94F64B0E94454ED0937B0EC0937C0EEF
:1010200070937D0E60937E0EDF91CF91FF90EF90D5
:10103000DF90CF90BF90AF909F908F907F906F90F8
:101040005F904F9008954F925F926F927F928F9230
:101050009F92AF92BF92CF92DF92EF92FF92CF9387
:10106000DF931092FF0D1092000E1092010E10925D
:10107000020EC0E8D0E086E30E94CC036C01990F19
:10108000EE08FF088091FF0D9091000EA091010ED7
:10109000B091020E8C0D9D1DAE1DBF1D8093FF0DE6
:1010A0009093000EA093010EB093020E219719F7B2
:1010B0006C017D0187E0F694E794D794C7948A95F4
:1010C000D1F7C092FF0DD092000EE092010EF09287
:1010D000020E609145027091460290E080E00E940D
:1010E000954B4B015C016091490270914A0290E07E
:1010F00080E00E94954B20E030E048EC52E40E94F2
:10110000CC4D2B013C01C701B6010E94954B9B01C0
:10111000AC01C301B2010E94F64B20E030EC4FE776
:1011200054E40E94CC4D6B017C01609147027091A8
:10113000480290E080E00E94954BA50194010E9436
:10114000604D9B01AC01C701B6010E94F64BA501A1
:1011500094010E94CC4D20E030E048EC52E40E9423
:10116000F64B0E94454E683522E07207A8F41092B3
:101170007F0E1092800E1092FE0DDF91CF91FF90A6
:10118000EF90DF90CF90BF90AF909F908F907F9027
:101190006F905F904F90089570937F0E6093800ED4
:1011A00081E08093FE0DE9CFFC012191241741F0ED
:1011B0009F01281B390B26173707B8F380E00895E5
:1011C00081E00895F89480919C0F80939D0F78940E
:1011D0000895F89480919D0F90919C0F7894891BAD
:1011E00008959091700E21E0290F30E0F89440911D
:1011F000710E789442171306C9F32250334FF90148
:1012000080839F5F9093700E809131018062809304
:1012100031010895F89490919D0F80919C0F98133F
:1012200004C0789480E092E00895789480919C0FB7
:10123000E1E0E80FF0E08F5F80939C0FE456F14F00
:10124000208190919B0E892F90E0982F8827820F04
:10125000911D0895F89410929D0F10929C0F10927A
:10126000700E1092710E7894909335018093340132
:10127000E1E3F1E0808188698083E2E3F1E080814D
:10128000866080830895F8948091FD0C8093FC0C17
:1012900078940895F8948091FC0C9091FD0C7894CA
:1012A000891B089590916E0E21E0290F30E0F8948B
:1012B00040916F0E789442171306C9F32450344FAF
:1012C000F90180839F5F90936E0E8091D1008062C0
:1012D0008093D10008959C01F8949091FC0C80912A
:1012E000FD0C981304C0789480E092E008957894FF
:1012F0009091FD0CE92FF0E03196E20FF31FFF27EC
:10130000E450F54F20819091FB0A892F90E0982FAF
:101310008827820F911D0895F8949091FC0C80917C
:10132000FD0C981304C0789480E092E008957894BE
:101330008091FD0CE1E0E80FF0E08F5F8093FD0C01
:10134000E450F54F20819091FB0A892F90E0982F6F
:101350008827820F911D0895F8941092FC0C10922A
:10136000FD0C10926E0E10926F0E78949093D50033
:101370008093D400E1EDF0E0808188698083E2ED24
:10138000F0E08081866080830895F8948091750EE6
:101390009091760E2091770E3091780E7894821B82
:1013A000930B9370089520916A0E30916B0E2F5F0E
:1013B0003F4F3370F89440916C0E50916D0E7894BD
:1013C00024173507B9F3F901E550F94F80833093BD
:1013D0006B0E20936A0E8091C10080628093C100E1
:1013E0000895F8942091750E3091760E8091770EC5
:1013F0009091780E2817390721F4789480E092E0D4
:10140000089578948091770E9091780E019693705C
:101410009093780E8093770E85509D4FFC0120812C
:101420009091FA02892F90E0982F8827820F911DC2
:1014300008952F923F924F925F926F927F928F9278
:101440009F92AF92BF92CF92DF92EF92FF920F9353
:101450001F93CF93DF936B017C014A015901332421
:101460003394A114B10409F41AC1C091A110D09110
:10147000A210CE0101978C219D21C81BD90BC5015B
:1014800021E2A216B10410F080E290E08C179D07D3
:1014900008F4EC018091A310A701960104C05695B1
:1014A0004795379527958A95D2F720909D10222A47
:1014B00030925B1020927D1010925C1010927E1082
:1014C0008091A4109091A510029741F499278F2D37
:1014D0007E2D6D2D8FE790E10E9498066C2D8FE791
:1014E00090E10E94980681E00E945105082F811129
:1014F000D7C00E94EF032B013C0180915510811150
:1015000066C01C2F30925510309254103FEF30932C
:101510005310109252108C2F8150809351103092A2
:10152000301080913010220C282A209230108091A7
:101530002F10813009F084C010922F100E94EF0309
:101540002B013C01809130108093BB00809157109B
:1015500090915810A0915910B0915A10892B8A2B54
:101560008B2BA1F00E94EF0320915710309158105F
:101570004091591050915A106419750986099709BC
:10158000261737074807590708F442C08091BC0066
:1015900083FDD8CF45EC4093BC000E94EF032B01A4
:1015A0003C0180915510813009F44EC08091521059
:1015B000811710F410915210E1E3F0E1A2EABFE0CC
:1015C00080E0811751F191919D938F5FFACF8091C7
:1015D000571090915810A0915910B0915A10892B22
:1015E0008A2B8B2B09F489CF0E94EF03209157108F
:1015F000309158104091591050915A106419750942
:1016000086099709261737074807590708F075CF45
:10161000809156100E94300510E01092C70F109371
:10162000C60F602E712C6C167D0680F58FE790E159
:101630000E945106F401E60DF71D80830F5FF1CF84
:1016400055EE5093BC00A9CF80915710909158103F
:10165000A0915910B0915A10892B8A2B8B2B09F429
:10166000A0CF0E94EF032091571030915810409165
:10167000591050915A10641975098609970926174F
:1016800037074807590708F08CCFC2CFCC0EDD1EB4
:10169000E11CF11C8C0E9D1EAC1ABD0AE2CE00E0CE
:1016A000802FDF91CF911F910F91FF90EF90DF90EE
:1016B000CF90BF90AF909F908F907F906F905F90F2
:1016C0004F903F902F900895CF92DF92EF92FF922C
:1016D0000F931F93CF93DF931F92CDB7DEB76B01AC
:1016E0007C012FEFC21AD20AE20AF20A0091A61078
:1016F0001091A7102091A8103091A9100C151D056C
:101700002E053F05B0F021E030E0AE014F5F5F4FA6
:101710000E94190A90E0009771F4898190E00F907F
:10172000DF91CF911F910F91FF90EF90DF90CF90BD
:10173000089589E0EFCF919581959109F0CF0F93AE
:101740001F93CF938C01C62F0E94FD066C2F6460FF
:10175000C8010E94FD066C2F6B7FC8010E94FD0628
:1017600083EC90E00197F1F7CF911F910F910895CD
:101770000F931F93CF93DF938C01D62FC42F607FDD
:10178000642B0E949F0B80E1D89FB00111246C2B29
:10179000C801DF91CF911F910F910C949F0BCF93B4
:1017A000DF9300D000D01F921F92CDB7DEB798E034
:1017B000EEE6F2E0DE01119601900D929A95E1F7C6
:1017C00090919A10961710F46FEF690F262F30E062
:1017D000220F331F41E050E04C0F5D1F240F351FD7
:1017E000F9016081680F606840E081E990E1289626
:1017F0000FB6F894DEBF0FBECDBFDF91CF910C9432
:10180000B80B41E00E94B80B81E090E008950F937F
:101810001F93CF93DF938B0198E0899FB001112430
:10182000606440E081E990E10E94B80BE801085F44
:101830001F4F699181E990E10E94010CC017D10707
:10184000C1F7DF91CF911F910F9108950F931F93CF
:10185000CF93DF938C01D0E0C0E0F801EC0FFD1FC7
:101860006491662339F041E081E990E10E94B80B70
:101870002196F3CFCE01DF91CF911F910F91089563
:1018800040E061E081E990E10E94B80B8BE39FE1C9
:101890000197F1F708950E94400C80919F0F8431C9
:1018A00071F580919E0F843009F042C060E080E0C5
:1018B0000E94CF0B89E193E00E94260C61E080E05A
:1018C0000E94CF0B84E093E00E94260C62E080E04F
:1018D0000E94CF0B8FEE92E00E94260C63E080E026
:1018E0000E94CF0B8AED92E00E94260C61E087E017
:1018F0000E94CF0B65E081E990E10C94010C8031EE
:10190000B9F480919E0F823099F460E080E00E94EB
:10191000CF0B89EC92E00E94260C61E080E00E94EF
:10192000CF0B88EB92E00E94260C61E083E0E0CFD1
:1019300060E080E00E94CF0B8FEA92E00C94260CCE
:101940000E94400C80919F0F843171F580919E0F11
:10195000843009F042C060E080E00E94CF0B8AE949
:1019600092E00E94260C61E080E00E94CF0B85E8A7
:1019700092E00E94260C62E080E00E94CF0B80E79C
:1019800092E00E94260C63E080E00E94CF0B8BE582
:1019900092E00E94260C61E087E00E94CF0B65E098
:1019A00081E990E10C94010C8031B9F480919E0F93
:1019B000823099F460E080E00E94CF0B8AE492E0EC
:1019C0000E94260C61E080E00E94CF0B89E392E048
:1019D0000E94260C61E083E0E0CF60E080E00E949E
:1019E000CF0B80E392E00C94260CFC0101900020C8
:1019F000E9F73197AF01481B590BBC0181E990E130
:101A00000C94D7028F929F92AF92BF920F931F9325
:101A1000CF93DF93CDB7DEB7A1970FB6F894DEBFB3
:101A20000FBECDBF19A2423008F44AE08E010F5D0F
:101A30001F4F842E912CB12CA12CA50194010E9442
:101A40002E4DE62FB901CA01EA30F4F4E05DD80169
:101A5000EE938D01232B242B252B79F790E080E04A
:101A6000109719F0CD010E94F50CA1960FB6F894CD
:101A7000DEBF0FBECDBFDF91CF911F910F91BF9001
:101A8000AF909F908F900895E95CE1CFBC0190E00A
:101A900080E04AE00C94020D0C94F50C4F925F929A
:101AA0006F927F928F929F92AF92BF92CF92DF926E
:101AB000EF92FF920F931F93CF936B017C01B42E93
:101AC000AC019B010E94794E882399F086ED92E04B
:101AD000CF911F910F91FF90EF90DF90CF90BF902B
:101AE000AF909F908F907F906F905F904F900C94ED
:101AF000F50C26013701E89477F82FEF3FEF4FE719
:101B00005FE7C301B2010E94794E81110DC02FEF32
:101B10003FEF4FE75FE7C301B2010E94904B1816F9
:101B20001CF48AED92E0D4CF2FEF3FEF4FE75FE454
:101B3000C701B6010E94744E18161CF48EED92E097
:101B4000C7CF2FEF3FEF4FE75FECC701B6010E9411
:101B5000904B87FDF3CF20E030E0A901C701B6012B
:101B60000E94904B10E000E087FF0CC041E06DE266
:101B700081E990E10E94B80BF7FAF094F7F8F0943D
:101B800001E010E0CB2DA12C60E070E080E09FE34D
:101B9000AB1440F420E030E040E251E40E94CC4D30
:101BA000A394F6CFA70196010E94604D2B013C0142
:101BB0000E94454E6B017C014AE00E94020D080F15
:101BC000191FBB20B1F1C701B6010E94954B9B01C3
:101BD000AC01C301B2010E945F4D4B015C0141E0C9
:101BE0006EE281E990E10E94B80B0F5F1F4FC15078
:101BF00000F120E030E040E251E4C501B4010E9470
:101C0000F64B2B013C010E94454E4B01CB010E943B
:101C1000460D080F191FB40190E080E00E94954B1B
:101C20009B01AC01C301B2010E945F4D4B015C01FD
:101C3000DECFC801CF911F910F91FF90EF90DF9001
:101C4000CF90BF90AF909F908F907F906F905F905C
:101C50004F9008958F929F92AF92BF92EF92FF9212
:101C60000F931F93CF93DF93CDB7DEB72C970FB6AB
:101C7000F894DEBF0FBECDBF81E080934D02F0909F
:101C80009E0FE0909F0F8091820E10929410109200
:101C90009310809395108E81809396108F818093FE
:101CA0009710888580939810E0929910F0929A107E
:101CB00010929B1018E010939C101092C70F109276
:101CC000C60F10925C1010927E100E9412058FE4D5
:101CD00092E09093C30F8093C20F80E592E09093BF
:101CE000C50F8093C40F1092961080919A10823085
:101CF00010F01093961090919B10992339F0813039
:101D000029F48091961084608093961062E370E0CD
:101D100080E090E00E94140460919C1081E990E1C1
:101D20000E94FD0668EE73E080E090E00E941404DB
:101D300060E381E990E10E949F0B0BE416E4C80187
:101D40000197F1F760E381E990E10E949F0BC801E0
:101D50000197F1F760E381E990E10E949F0B83E531
:101D600092E00197F1F760E281E990E10E949F0B18
:101D700060919610606240E081E990E10E94B80BAA
:101D800084E08093971040E06CE081E990E10E944C
:101D9000B80B0E94400C82E08093981040E066E00F
:101DA00081E990E10E94B80B40E062E081E990E1B6
:101DB0000E94B80B0BE31FE1C8010197F1F788E01F
:101DC00080939C1060E081E990E10E94FD060E94F2
:101DD000400C40E062E081E990E10E94B80BC8014C
:101DE0000197F1F76091680E7091690E7627672769
:101DF000762790E080E00E94954B20E030E048ECB0
:101E000052E40E94CC4D4B015C0184E1E81257C0C2
:101E100084E0F8126FC08BE192E00E94260C61E032
:101E200080E00E94CF0B86E092E00E94260C62E0E8
:101E300080E00E94CF0B89EF91E00E94260C42E0E7
:101E400050E0C501B4010E944E0D84EF91E00E9464
:101E5000260C63E080E00E94CF0B8FED91E00E94A2
:101E6000260C68E272E080E00E94070C60E272E0FB
:101E700081E00E94070C68E172E082E00E94070C9A
:101E800060E172E083E00E94070C68E072E084E0A9
:101E90000E94070C60E072E085E02C960FB6F89483
:101EA000DEBF0FBECDBFDF91CF911F910F91FF908D
:101EB000EF90BF90AF909F908F900C94070C80E1B3
:101EC000E81218C082E0F81215C08EEC91E00E9472
:101ED000260C61E080E00E94CF0B83EC91E00E9431
:101EE000260C42E050E0C501B4010E944E0D80EC8A
:101EF00091E0B5CF88EB91E0B2CFCF92DF92EF9235
:101F0000FF9240E054E264EF75E44093FF0F50937A
:101F100000106093011070930210809303108AE008
:101F20008093041081E08093051080930610109236
:101F3000D80F8093FD0F8093FE0FF8941092E90F55
:101F40001092FA0F1092FB0F1092FC0F20E030E07D
:101F500040E851E46091FF0F7091001080910110F2
:101F6000909102100E94F64B9B01AC0160E074E27C
:101F700084E79BE40E94CC4D20E030E040E85FE342
:101F80000E945F4D0E94454E7F707093CD0060931C
:101F9000CC008091C90088698093C9008091CA00F3
:101FA00086608093CA00789483E090E090930A1052
:101FB00080930910F8941092900010929100109262
:101FC0009500109294008091091090910A109093BE
:101FD000990080939800809191008860809391008F
:101FE000809171008260809371007894EBE0F0E161
:101FF00080E2DF011D928A95E9F78091031062E08B
:10200000882309F43DC082E00E94900382ED94E0B1
:10201000909355028093540280916A008C7F816076
:1020200080936A00EC9A87E090E090930810809388
:102030000710F89410928000109281001092850091
:1020400010928400259A80918000806480938000A3
:1020500080910710909108109093890080938800D8
:1020600080916F008D7F80936F00809181008960E7
:10207000809381007894FF90EF90DF90CF90089547
:1020800083E00E9490038DEB94E09093570280933D
:10209000560280916A00837F886080936A00ED9A7F
:1020A0002091FF0F309100104091011050910210CB
:1020B00060E070E080E89FE30E94CC4D20E034E2D5
:1020C00044E75BE40E94F64B6B017C0160910410D5
:1020D00070E090E080E00E94974B20E030E040E22A
:1020E00051E40E94604D9B01AC01C701B6010E9402
:1020F000F64B20E030E040E85AE30E94F64B20E047
:1021000030E040E85FE30E945F4D0E94454E7093CF
:10211000081060930710F8941092800010928100CC
:10212000109285001092840025988091071090915C
:1021300008109093890080938800809181008860C6
:102140008093810080916F00826080936F0092CFB6
:102150002F923F924F925F926F927F928F929F92B7
:10216000AF92BF92CF92DF92EF92FF920F931F93A5
:10217000CF93DF93CDB7DEB70DB71EB79091A10F08
:10218000992359F12DB63EB69CEF940F2DB73EB76B
:10219000291B31090FB6F8943EBF0FBE2DBFEDB716
:1021A000FEB731967F01992311F40C94E41CFB01D6
:1021B0003496D70124E0241720F431913D932F5F0A
:1021C000FACF20915302213001F1223009F4BEC52B
:1021D0000FB6F8943EBE0FBE2DBE0FB6F8941EBFCC
:1021E0000FBE0DBFDF91CF911F910F91FF90EF9028
:1021F000DF90CF90BF90AF909F908F907F906F9027
:102200005F904F903F902F900895813009F7F7012C
:1022100080818C3809F403C108F041C0843209F48C
:102220009CC08234A9F6943098F2618170E090E00D
:1022300080E00E94974B26E636E646E25FE30E9486
:10224000F64B6B017C0120E030E0A9010E94744E46
:1022500020E030E040E05FE387FDC5C0C701B60184
:102260000E94604D0E943E4EF62E80919F0F843159
:1022700009F0AECF80919E0F843009F0A9CFF9E02C
:10228000FF1508F4B5C060E080E10E94CF0B85EE39
:1022900092E00E944C0D8F2D0E94F63699CF843D1E
:1022A00009F4DFC2843E09F4ABC38E3C09F090CF41
:1022B000963008F48DCF61817281838194810E9470
:1022C000864E2091A00F211111C20E94954B20E053
:1022D00030E040E05EE30E94F64B6B017C0120E0C1
:1022E00030E0A9010E94744E20E030E040E05FE35E
:1022F00087FD11C2C701B6010E94604D0E943E4E8B
:102300000E94974B20E030E04AE754E40E94CC4D15
:102310006B017C0180919F0F843109F059CF80912E
:102320009E0F843009F054CF20E030E040E251E4C9
:10233000C701B6010E94904B87FFF2C163E080E0C5
:102340000E94CF0B82EE92E00E944C0D43E050E0E1
:10235000C701B6010E944E0D3BCF943008F438CF30
:102360008091A00F811119C0F18080919F0F84315D
:10237000D1F480919E0F843009F02ACFF9E0FF1547
:10238000D8F060E080E00E94CF0B85EE92E00E94E2
:102390004C0D8F2D0E94F6361BCF813011F4F28048
:1023A000E4CFF12CE2CF803109F012CF80919E0F63
:1023B000823009F00DCFE2CF86EF8F0D60E08A35D5
:1023C00058F480E00E94CF0B86EE92E00E944C0D04
:1023D0008F2D0E94F636FCCE80E00E94CF0B8F2D11
:1023E0000E94F636F5CEC701B6010E945F4D3ACF86
:1023F00086EF8F0D60E08A3558F480E10E94CF0BA4
:1024000086EE92E00E944C0D8F2D0E94F636E0CEB3
:1024100080E10E94CF0B8F2D0E94F636D9CE9430EA
:1024200008F4D6CE8091A00F81117DC0618170E04B
:1024300090E080E00E94974B26E636E646EE5FE3AA
:102440000E94F64B26E636E646E453E40E945F4DD2
:102450002B013C0120E030E0A9010E94744E20E0F5
:1024600030E040E05FE387FD54C0C301B2010E9449
:10247000604D0E943E4E6B01F701628170E090E07A
:1024800080E00E94974B26E636E646EE5FE30E9428
:10249000F64B26E636E646E453E40E945F4D2B01F8
:1024A0003C0120E030E0A9010E94744E20E030E0C1
:1024B00040E05FE387FD32C0C301B2010E94604D7E
:1024C0000E943E4E7B0180919F0F843109F0B1C084
:1024D00080919E0F843009F07BCE9DE9C9169FEF55
:1024E000D9069CF561E080E00E94CF0B89EE92E076
:1024F0000E944C0D2DE9E2162FEFF2060CF052C0AF
:1025000061E084E00E94CF0B89EE92E00E944C0DC6
:102510005FCEC301B2010E945F4DABCFC301B201D8
:102520000E945F4DCDCF813059F46181262F205814
:10253000330B69016281862F8058990B7C01C3CFD0
:10254000F12CE12CD12CC12CBECFC6018D599F4F4F
:1025500061E08A35910510F161E0E7EFCE16EFEF0B
:10256000DE06B0F4FAE0CF16D10460F461E080E05A
:102570000E94CF0B85EE92E00E944C0DC6010E9496
:10258000FD36B8CFC6010A9761E08A35910530F46F
:1025900080E00E94CF0B86EE92E0EECF80E00E94BA
:1025A000CF0BECCFC7018D599F4F8A35910540F471
:1025B00061E084E00E94CF0BC7010E94FD3608CE87
:1025C00037EFE3163FEFF30660F061E084E00E942E
:1025D000CF0B86EE92E00E944C0DC7010E94FD36A3
:1025E000F7CD8AE0E816F10460F461E084E00E942F
:1025F000CF0B85EE92E00E944C0DC7010E94FD3684
:10260000E7CDC7010A9761E08A35910558F484E067
:102610000E94CF0B86EE92E00E944C0DC7010E94F3
:10262000FD36D6CD84E00E94CF0BC7010E94FD3657
:10263000CFCD803109F0CCCD80919E0F823009F052
:10264000C7CD9DE9C9169FEFD9064CF461E080E043
:102650000E94CF0B89EE92E00E944C0DB9CDC601CD
:102660008D599F4F8A35910540F461E080E00E94CA
:10267000CF0BC6010E94FD36ABCDE7EFCE16EFEFD4
:10268000DE0660F061E080E00E94CF0B86EE92E013
:102690000E944C0DC6010E94FD369ACDFAE0CF167D
:1026A000D10460F461E080E00E94CF0B85EE92E0FF
:1026B0000E944C0DC6010E94FD368ACDC6010A97C4
:1026C00061E08A35910558F480E00E94CF0B86EED8
:1026D00092E00E944C0DC6010E94FD3679CD80E04B
:1026E0000E94CF0BC6010E94FD3672CDC12CD12CA9
:1026F0007601213009F00ECE0E94954B22E03BE29C
:1027000049EC54E40E94F64B20E030E04AEF55E4F7
:102710000E94CC4DE2CDC701B6010E945F4DEECDC7
:1027200020E030E040E251E4C701B6010E94744E5F
:1027300087FD19C020E030E048EC52E4C701B60143
:102740000E94904B87FF0FC063E080E00E94CF0B98
:1027500083EE92E00E944C0D43E050E0C701B601C9
:102760000E944E0D35CD20E030E048EC52E4C70128
:10277000B6010E94744E87FD19C020E030E04AE7A0
:1027800054E4C701B6010E94904B87FF0FC063E07D
:1027900080E00E94CF0B84EE92E00E944C0D43E05B
:1027A00050E0C701B6010E944E0D12CD20E030E08E
:1027B0004AE754E4C701B6010E94744E87FD19C070
:1027C00020E030E44CE156E4C701B6010E94904B92
:1027D00087FF0FC063E080E00E94CF0B85EE92E0A0
:1027E0000E944C0D43E050E0C701B6010E944E0D1F
:1027F000EFCC20E030E44CE156E4C701B6010E9482
:10280000744E87FD19C020E030E543EC57E4C70162
:10281000B6010E94904B87FF0FC063E080E00E94EA
:10282000CF0B86EE92E00E944C0D43E050E0C701D2
:10283000B6010E944E0DCCCC20E030E543EC57E4CD
:10284000C701B6010E94744E87FDC2CC63E080E0F0
:102850000E94CF0B43E050E0C701B6010E944E0D2D
:10286000B7CC943008F4B4CC618170E090E080E0A3
:102870000E94974B20E030E040E251E40E94F64B8A
:1028800020E030E040E85DE30E94F64B2B013C0184
:1028900020E030E0A9010E94744E20E030E040E0EA
:1028A0005FE387FD7FC0C301B2010E94604D0E94BB
:1028B0003E4E0E94974B4B015C01F701628170E034
:1028C00090E080E00E94974B20E030E040E251E44D
:1028D0000E94F64B20E030E040E85DE30E94F64BBA
:1028E0006B017C0120E030E0A9010E94744E20E0E1
:1028F00030E040E05FE387FD5AC0C701B6010E94A7
:10290000604D0E943E4E0E94974B2B013C018091EE
:102910009F0F843109F05CCC80919E0F843009F0C8
:1029200057CC20E030E040E251E4C501B4010E9400
:10293000CC4D6B017C0120E030E040E251E40E948C
:10294000904B87FF39C062E080E00E94CF0B86EE9B
:1029500092E00E944C0D41E050E0C701B6010E9498
:102960004E0D20E030E040E251E4C301B2010E948C
:10297000CC4D6B017C0120E030E040E251E40E944C
:10298000904B87FF28C062E085E00E94CF0B86EE67
:1029900092E00E944C0D41E050E0C701B6010E9458
:1029A0004E0D16CCC301B2010E945F4D80CFC7010E
:1029B000B6010E945F4DA5CF20E030E040E251E437
:1029C000C701B6010E94744E87FDCBCF62E080E064
:1029D0000E94CF0BC0CF20E030E040E251E4C701BD
:1029E000B6010E94744E87FDF3CB62E085E00E9441
:1029F000CF0B41E050E0C701B6010E944E0DE8CB7D
:102A0000943008F4E5CB8091A00F811168C0C1809B
:102A1000F0E2CF9E60011124F701628170E090E046
:102A200080E00E94974B20E030E040E251E40E94B9
:102A3000F64B25EB32EC44E75DE30E94F64B2B01AD
:102A40003C0120E030E0A9010E94744E20E030E01B
:102A500040E05FE387FD61C0C301B2010E94604DA9
:102A60000E943E4E0E94974B20E030E040E251E44D
:102A70000E94CC4D2B013C0180919F0F843109F0C5
:102A8000A6C080919E0F843009F026C1FAE0CF16CF
:102A9000D10408F047C060E088E00E94CF0B84EECC
:102AA00092E00E944C0DC6010E94460D20E030E0ED
:102AB00040E251E4C301B2010E94904B87FF4FC036
:102AC00061E08DE00E94CF0B86EE92E00E944C0DFB
:102AD00041E050E0C301B2010E944E0D79CB412C80
:102AE000512C3201D12CC12C813031F6C180F0E261
:102AF000CF9E60011124F701628170E090E080E0D8
:102B00000E94974B20E030E040E251E40E94F64BF7
:102B100029ED31EA4CED50E48ACFC301B2010E94A5
:102B20005F4D9ECFC6010A978A35910538F460E063
:102B300088E00E94CF0B85EE92E0B3CFC6018456A9
:102B4000910960E08438934030F488E00E94CF0B14
:102B500086EE92E0A6CF88E00E94CF0BA4CF20E0C3
:102B600030E040E251E4C301B2010E94744E87FD9F
:102B700015C020E030E048EC52E4C301B2010E94ED
:102B8000904B87FF0BC061E08DE00E94CF0B41E0CE
:102B900050E0C301B2010E944E0D1ACB20E030E09C
:102BA00048EC52E4C301B2010E94744E87FD10CB81
:102BB00061E08DE00E94CF0B86EE92E00E944C0D0A
:102BC00050E040E0C301B2010E944E0D01CB8031C4
:102BD00009F082C080919E0F823009F07DC03AE0FA
:102BE000C316D10420F560E089E00E94CF0B84EE8B
:102BF00092E00E944C0DC6010E94460D20E030E09C
:102C000040E251E4C301B2010E94904B87FF2CC007
:102C100061E089E00E94CF0B86EE92E00E944C0DAD
:102C200041E050E0C301B2010E944E0DD1CAC6017D
:102C30000A978A35910538F460E089E00E94CF0B4D
:102C400085EE92E0D6CFC6018456910960E08438C3
:102C5000934030F489E00E94CF0B86EE92E0C9CF1A
:102C600089E00E94CF0BC7CF20E030E040E251E482
:102C7000C301B2010E94744E87FD15C020E030E010
:102C800048EC52E4C301B2010E94904B87FF0BC095
:102C900061E089E00E94CF0B41E050E0C301B20146
:102CA0000E944E0D95CA20E030E048EC52E4C3018A
:102CB000B2010E94744E87FD8BCA61E089E00E94D8
:102CC000CF0B86EE92E00E944C0D50E040E0C30135
:102CD000B2010E944E0D7CCAFAE0CF16D10460F416
:102CE00060E081E00E94CF0B84EE92E00E944C0DE8
:102CF000C6010E94460D6CCAC6010A978A35910525
:102D000060F460E081E00E94CF0B85EE92E00E94CB
:102D10004C0DC6010E94460D5BCAC601845691093E
:102D200060E08438934058F481E00E94CF0B86EE37
:102D300092E00E944C0DC6010E94460D49CA81E0F6
:102D40000E94CF0BC6010E94460D42CA823009F094
:102D50003FCAF7018081843109F03ACA933008F400
:102D600037CA81818B3009F4ADC270F5853009F422
:102D700051C18A3009F436C2813009F029CA8091E4
:102D8000A00F811188C0E280F12C80919F0F8431C7
:102D900009F0EBC080919E0F843009F019CAFDE95B
:102DA000EF16FFEFFF060CF4ABCBC7018D599F4F19
:102DB0008A35910508F0A0C061E084E00E94CF0B45
:102DC000C7010E94FD3604CA843209F4F7C418F51D
:102DD000813109F0FDC9E280F0E2EF9E700111241B
:102DE00080919F0F843109F066C480919E0F8430DA
:102DF00009F0A6C42AE0E216F1040CF02FC460E04A
:102E000088E00E94CF0B84EE92E00E944C0DC70137
:102E10000E94460DDDC9813409F440C5863409F0AD
:102E2000D7C9628170E090E080E00E94974B20E774
:102E30003EEC48EC5EE30E94F64B6B017C0120E027
:102E400030E0A9010E94744E20E030E040E05FE3F2
:102E500087FD9CC5C701B6010E94604D0E943E4E91
:102E6000F62E80919F0F843109F0B2C980919E0F98
:102E7000843009F0ADC9F9E0FF1508F48CC560E0B5
:102E800080E10E94CF0B85EE92E00E944C0D8F2DC9
:102E90000E94F6369DC9813061F5628170E090E054
:102EA00080E00E94974B2BEE38E34EE05FE30E94F8
:102EB000F64B25EE38E34EE851E40E945F4D6B017E
:102EC0007C0120E030E0A9010E94744E20E030E057
:102ED00040E05FE387FD08C0C701B6010E94604D76
:102EE0000E943E4E7B0151CFC701B6010E945F4D4B
:102EF000F7CFF12CE12C49CF27EFE2162FEFF206A6
:102F000060F061E084E00E94CF0B86EE92E00E94C8
:102F10004C0DC7010E94FD365BC93AE0E316F1048F
:102F200060F461E084E00E94CF0B85EE92E00E94A5
:102F30004C0DC7010E94FD364BC9C7010A9761E0DD
:102F40008A35910558F484E00E94CF0B86EE92E01A
:102F50000E944C0DC7010E94FD363AC984E00E94D0
:102F6000CF0BC7010E94FD3633C9803109F030C94B
:102F700080919E0F823009F02BC98DE9E8168FEF02
:102F8000F8060CF4BDCAC7018D599F4F8A359105CB
:102F900040F461E084E00E94CF0BC7010E94FD363F
:102FA00017C997EFE9169FEFF90660F061E084E03A
:102FB0000E94CF0B86EE92E00E944C0DC7010E944A
:102FC000FD3606C9EAE0EE16F10460F461E084E043
:102FD0000E94CF0B85EE92E00E944C0DC7010E942B
:102FE000FD36F6C8C7010A9761E08A35910558F4A5
:102FF00084E00E94CF0B86EE92E00E944C0DC70148
:103000000E94FD36E5C884E00E94CF0BC7010E94F4
:10301000FD36DEC88091A00F811149C0628170E049
:1030200090E080E00E94974B26E636E646EE5FE3AE
:103030000E94F64B26E636E646E453E40E945F4DD6
:103040006B017C0120E030E0A9010E94744E20E079
:1030500030E040E05FE387FD25C0C701B6010E9474
:10306000604D0E943E4E7B0180919F0F843109F09C
:1030700062C080919E0F843009F0AAC83DE9E31632
:103080003FEFF3060CF4E2CAC7018D599F4F8A3512
:103090009105C0F461E080E00E94CF0BC7010E945F
:1030A000FD3696C8C701B6010E945F4DDACF813068
:1030B00031F46281262F2058330B7901D5CFF12CC2
:1030C000E12CD2CF87EFE8168FEFF80660F061E0D1
:1030D00080E00E94CF0B86EE92E00E944C0DC7016B
:1030E0000E94FD3675C89AE0E916F10460F461E0CB
:1030F00080E00E94CF0B85EE92E00E944C0DC7014C
:103100000E94FD3665C8C7010A9761E08A359105BE
:1031100058F480E00E94CF0B86EE92E00E944C0DA6
:10312000C7010E94FD3654C880E00E94CF0BC70142
:103130000E94FD364DC8803109F04AC880919E0F2B
:10314000823009F045C8EDE9EE16EFEFFE060CF40B
:103150007DCAC7018D599F4F8A35910540F461E0C2
:1031600080E00E94CF0BC7010E94FD3631C8F7EF07
:10317000EF16FFEFFF0660F061E080E00E94CF0BEA
:1031800086EE92E00E944C0DC7010E94FD3620C8D9
:103190002AE0E216F10460F461E080E00E94CF0BC7
:1031A00085EE92E00E944C0DC7010E94FD3610C8CA
:1031B000C7010A9761E08A35910560F480E00E94BA
:1031C000CF0B86EE92E00E944C0DC7010E94FD36A7
:1031D0000C94E81080E00E94CF0BC7010E94FD36DE
:1031E0000C94E810628170E090E080E00E94974BC0
:1031F00020E030E040E251E40E94F64B20E030E075
:1032000040E85DE30E94F64B6B017C0120E030E07A
:10321000A9010E94744E20E030E040E05FE387FDAA
:1032200034C0C701B6010E94604D0E943E4E0E940C
:10323000974B20919F0F243111F00C94E8102091AE
:103240009E0F243011F00C94E81020E030E040E2B2
:1032500051E40E94CC4D6B017C0120E030E040E263
:1032600051E40E94904B87FF15C062E080E00E940D
:10327000CF0B86EE92E00E944C0D41E050E0C7017A
:10328000B6010E944E0D0C94E810C701B6010E94D1
:103290005F4DCBCF20E030E040E251E4C701B60102
:1032A0000E94744E87FF02C00C94E81062E080E038
:1032B0000E94CF0B41E050E0C701B6010E944E0DC5
:1032C0000C94E8108091A00F81114EC0628170E0D3
:1032D00090E080E00E94974B20E030E040E251E433
:1032E0000E94F64B25EB32EC44E75DE30E94F64B7F
:1032F0006B017C0120E030E0A9010E94744E20E0C7
:1033000030E040E05FE387FD3EC0C701B6010E94A8
:10331000604D0E943E4E0E94974B20E030E040E21C
:1033200051E40E94CC4D6B017C0180919F0F843150
:1033300009F0D4C080919E0F843011F00C94E810F5
:1033400020E030E046EC52ECC701B6010E94904B01
:10335000181614F161E08DE00E94CF0B88EE92E028
:103360000E944C0D0C94E810813091F4628170E061
:1033700090E080E00E94974B29ED31EA4CED50E45B
:103380000E94F64BA9CFC701B6010E945F4DC1CF85
:10339000C12CD12C7601C9CF20E030E046EC52ECB4
:1033A000C701B6010E94744E1816D4F420E030E034
:1033B00040E251ECC701B6010E94904B181684F010
:1033C00061E08DE00E94CF0B86EE92E00E944C0DF2
:1033D00050E040E0C701B6010E944E0D0C94E81089
:1033E00020E030E040E251ECC701B6010E94744E8B
:1033F0001816ACF420E030E0A901C701B6010E9424
:10340000904B87FF0CC061E08DE00E94CF0B41E044
:1034100050E0C701B6010E944E0D0C94E81020E068
:1034200030E0A901C701B6010E94744E87FD1AC0A1
:1034300020E030E040E251E4C701B6010E94904B29
:1034400087FF10C061E08DE00E94CF0B86EE92E016
:103450000E944C0D41E050E0C701B6010E944E0DA4
:103460000C94E81020E030E040E251E4C701B601DE
:103470000E94744E87FD16C020E030E048EC52E414
:10348000C701B6010E94904B87FF0CC061E08DE040
:103490000E94CF0B41E050E0C701B6010E944E0DE3
:1034A0000C94E81020E030E048EC52E4C701B6018B
:1034B0000E94744E87FF02C00C94E81061E08DE01A
:1034C0000E94CF0B86EE92E00E944C0D50E040E04F
:1034D000C701B6010E944E0D0C94E810803111F026
:1034E0000C94E81080919E0F823011F00C94E8103B
:1034F00020E030E046EC52ECC701B6010E94904B50
:10350000181654F061E089E00E94CF0B88EE92E03B
:103510000E944C0D0C94E81020E030E046EC52EC98
:10352000C701B6010E94744E1816D4F420E030E0B2
:1035300040E251ECC701B6010E94904B181684F08E
:1035400061E089E00E94CF0B86EE92E00E944C0D74
:1035500050E040E0C701B6010E944E0D0C94E81007
:1035600020E030E040E251ECC701B6010E94744E09
:103570001816ACF420E030E0A901C701B6010E94A2
:10358000904B87FF0CC061E089E00E94CF0B41E0C7
:1035900050E0C701B6010E944E0D0C94E81020E0E7
:1035A00030E0A901C701B6010E94744E87FD1AC020
:1035B00020E030E040E251E4C701B6010E94904BA8
:1035C00087FF10C061E089E00E94CF0B86EE92E099
:1035D0000E944C0D41E050E0C701B6010E944E0D23
:1035E0000C94E81020E030E040E251E4C701B6015D
:1035F0000E94744E87FD16C020E030E048EC52E493
:10360000C701B6010E94904B87FF0CC061E089E0C2
:103610000E94CF0B41E050E0C701B6010E944E0D61
:103620000C94E81020E030E048EC52E4C701B60109
:103630000E94744E87FF02C00C94E81061E089E09C
:103640000E94CF0B86EE92E00E944C0D50E040E0CD
:10365000C701B6010E944E0D0C94E810C7010A97ED
:103660008A35910568F460E088E00E94CF0B85EE12
:1036700092E00E944C0DC7010E94460D0C94E81088
:10368000C7018456910960E08438934060F488E073
:103690000E94CF0B86EE92E00E944C0DC7010E9463
:1036A000460D0C94E81088E00E94CF0BC7010E94E1
:1036B000460D0C94E810803109F042C080919E0FB5
:1036C0008230F1F58AE0E816F1046CF460E089E0FC
:1036D0000E94CF0B84EE92E00E944C0DC7010E9425
:1036E000460D0C94E810C7010A978A35910568F4D5
:1036F00060E089E00E94CF0B85EE92E00E944C0DC5
:10370000C7010E94460D0C94E810C7018456910928
:1037100060E08438934060F489E00E94CF0B86EE2D
:1037200092E00E944C0DC7010E94460D0C94E810D7
:1037300089E00E94CF0BC7010E94460D0C94E8104F
:10374000FAE0EF16F1046CF460E081E00E94CF0B28
:1037500084EE92E00E944C0DC7010E94460D0C942D
:10376000E810C7010A978A35910568F460E081E0A6
:103770000E94CF0B85EE92E00E944C0DC7010E9483
:10378000460D0C94E810C7018456910960E0843816
:10379000934060F481E00E94CF0B86EE92E00E949D
:1037A0004C0DC7010E94460D0C94E81081E00E9468
:1037B000CF0BC7010E94460D0C94E810628170E0A7
:1037C00090E080E00E94974B20E030E040E251E43E
:1037D0000E94F64B20E030E040E85DE30E94F64BAB
:1037E0006B017C0120E030E0A9010E94744E20E0D2
:1037F00030E040E05FE387FD34C0C701B6010E94BE
:10380000604D0E943E4E0E94974B20919F0F2431A5
:1038100011F00C94E81020919E0F243011F00C94BC
:10382000E81020E030E040E251E40E94CC4D6B0112
:103830007C0120E030E040E251E40E94904B87FFA1
:1038400015C062E085E00E94CF0B86EE92E00E94F8
:103850004C0D41E050E0C701B6010E944E0D0C94A2
:10386000E810C701B6010E945F4DCBCF20E030E0E9
:1038700040E251E4C701B6010E94744E87FF02C0C6
:103880000C94E81062E085E00E94CF0B41E050E02C
:10389000C701B6010E944E0D0C94E8108091A00F54
:1038A00081113AC0628170E090E080E00E94974B05
:1038B00020E030E040E05FE30E94F64B6B017C01CA
:1038C00020E030E0A9010E94744E20E030E040E0AA
:1038D0005FE387FD30C0C701B6010E94604D0E94C2
:1038E0003E4EF62E80919F0F843161F580919E0FA0
:1038F000843011F00C94E810F9E0FF1570F160E0ED
:1039000080E00E94CF0B85EE92E00E944C0D8F2D3F
:103910000E94F6360C94E810813091F4628170E0D8
:1039200090E080E00E94974B2CEF3EEF4DEC5FE380
:103930000E94F64BBDCFC701B6010E945F4DCFCFAD
:10394000F12CD0CF803111F00C94E81080919E0FB3
:10395000823011F00C94E810CFCF86EF8F0D60E02D
:103960008A3560F480E00E94CF0B86EE92E00E94E0
:103970004C0D8F2D0E94F6360C94E81080E00E94CA
:10398000CF0B8F2D0E94F6360C94E810C701B601BC
:103990000E945F4D63CA86EF8F0D60E08A3560F448
:1039A00080E10E94CF0B86EE92E00E944C0D8F2D9D
:1039B0000E94F6360C94E81080E10E94CF0B8F2D08
:1039C0000E94F6360C94E8100FB6F8941EBF0FBE96
:1039D0000DBF0C94ED10AF92BF92CF92DF92EF9299
:1039E000FF920F931F93CF93DF9300D000D01F92CD
:1039F000CDB7DEB7522F932FCDB6DEB6E091B2141D
:103A0000F091B3149E012F5F3F4F3097E1F5F9011C
:103A1000E65BF441FA83E983E981FA81D801D8961B
:103A2000EA17FB07A8F587E0E6E7F2E0D901019085
:103A30000D928A95E1F789017E01B8E0EB0EF11C49
:103A4000F80181918F010E94D309E016F106C1F7B8
:103A50000FB6F894DEBE0FBECDBE0FB6F894DEBE34
:103A60000FBECDBE27960FB6F894DEBF0FBECDBFFA
:103A7000DF91CF911F910F91FF90EF90DF90CF904A
:103A8000BF90AF900895D901AE1BBF0BFD01C2CF0F
:103A90005801F6E0AF0EB11C2DB73EB72A193B090D
:103AA0000FB6F8943EBF0FBE2DBFADB7BEB711968F
:103AB0007D012DE3EDB7FEB7218398012E5F3F4FC7
:103AC00011963C9311972CEF2A0D12962C93129776
:103AD0008295880F880F807C680F13966C931397DC
:103AE00014964C9314970115110561F0E52FF92FE9
:103AF00015969F01200F311FE217F30719F08191EE
:103B00008D93FACF0B5F1F4FF701319680E09F0135
:103B10002E193F092017310718F49191890FF7CF1B
:103B20000E0D1F1DD8018C9384E20E94140787019B
:103B3000C8018E199F098A159B0508F089CFF801E5
:103B400081918F010E94D309F3CF0F931F93CF93DD
:103B5000DF93CDB7DEB7E7970FB6F894DEBF0FBEA1
:103B6000CDBF8091720E89838091730E8A8380917C
:103B7000740E8B8380917A0E882309F44DC181E005
:103B80008C831D821E820E9452048091930E8F832B
:103B90008091940E88878091950E89878091960EEA
:103BA0008A872091B2143091B314CE01C6962115A4
:103BB000310509F033C1865B94419FAB8EAB8EA972
:103BC0009FA99B878C870E9423088091FE0D8823E4
:103BD00009F427C181E08D8780917F0E8E878091C7
:103BE000800E8F8780915D13888B8091AA149091AD
:103BF000AB14A091AC14B091AD14B98B8091AA1400
:103C00009091AB14A091AC14B091AD14AA8B80919B
:103C1000AA149091AB14A091AC14B091AD149B8BED
:103C20008091AA149091AB14A091AC14B091AD14F2
:103C30008C8B8091AE149091AF14A091B014B09180
:103C4000B114BD8B8091AE149091AF14A091B014BB
:103C5000B091B114AE8B8091AE149091AF14A0913D
:103C6000B014B091B1149F8B8091AE149091AF14A9
:103C7000A091B014B091B114888F80910512898FF2
:103C80008091521390915313A0915413B0915513F6
:103C9000BA8F8091521390915313A0915413B09105
:103CA0005513AB8F8091521390915313A0915413DD
:103CB000B09155139C8F8091521390915313A09102
:103CC0005413B09155138D8F8091561390915713C3
:103CD000A0915813B0915913BE8F809156139091B3
:103CE0005713A0915813B0915913AF8F8091561369
:103CF00090915713A0915813B091591398A38091A4
:103D0000561390915713A0915813B091591389A34A
:103D10008091AD108AA38091FA119091FB11A0912E
:103D2000FC11B091FD11BBA38091FA119091FB1190
:103D3000A091FC11B091FD11ACA38091FA1190916A
:103D4000FB11A091FC11B091FD119DA38091FA117E
:103D50009091FB11A091FC11B091FD118EA3809167
:103D6000FE119091FF11A0910012B0910112BFA31A
:103D70008091FE119091FF11A0910012B09101125B
:103D8000A8A78091FE119091FF11A0910012B0910F
:103D9000011299A78091FE119091FF11A09100123C
:103DA000B09101128AA78091A10F8823E1F181E0EF
:103DB0008BA78091820E8CA780919F0F8DA78091F9
:103DC0009E0F8EA78091810E8FA78091A00F88AB48
:103DD0008091530289AB80915002909151029AAB2D
:103DE0008BAB80914E0290914F029CAB8DAB05E363
:103DF00010E09E012F5F3F4F40E062E080E00E94B4
:103E0000EB1CE7960FB6F894DEBF0FBECDBFDF9177
:103E1000CF911F910F9108951C82B3CE821B930BFB
:103E2000CCCE1D86D9CE1BA6C4CF0F931F93CF93A4
:103E3000DF93CDB7DEB76E970FB6F894DEBF0FBE37
:103E4000CDBFE8E6FEE08081898381818A83E0E658
:103E5000FEE080818B8381818C8382818D8383814D
:103E60008E8384818F8385818887868189878781F6
:103E70008A87E8E5FEE080818B8781818C8782815B
:103E80008D8783818E8784818F878581888B8681CA
:103E9000898B87818A8B1B8A86E08C8B1D8A1E8A80
:103EA00091E69F8B97E4988F90E4998F9EEF9A8F7D
:103EB0001B8E8C8F1D8E1E8E0EE110E09E012F5FDB
:103EC0003F4F41E065E080E00E94EB1C6E960FB62C
:103ED000F894DEBF0FBECDBFDF91CF911F910F9140
:103EE00008950C94C44CEF92FF920F931F93CF93BD
:103EF000DF93EC017B018A0188819981009729F089
:103F00002A813B812417350788F4B8016F5F7F4F02
:103F10000E948D4E009791F0998388831B830A83BA
:103F20002C813D81232B11F4FC0110821D830C8315
:103F3000B701888199810E94774F0CC0888199814F
:103F4000009711F00E94634A198218821D821C8218
:103F50001B821A82CE01DF91CF911F910F91FF90AA
:103F6000EF900895CF93DF9300D000D0CDB7DEB7A8
:103F700020915A13222301F1672BF1F063EF72E0D5
:103F8000892B11F46DEE72E01A8219821C821B8259
:103F90001E821D82FB0101900020E9F73197AF01DD
:103FA000461B570BCE0101960E94731F89819A818F
:103FB000009711F00E94634A26960FB6F894DEBF70
:103FC0000FBECDBFDF91CF91089585ED8093BC00EA
:103FD0008091571090915810A0915910B0915A109B
:103FE0000796A11DB11D23E0B695A79597958795D6
:103FF0002A95D1F72091BC0024FD03C010925510E2
:104000000895409157105091581060915910709137
:104010005A10452B462B472B69F30097A105B10594
:1040200041F025E32A95F1F700000197A109B109B4
:10403000E1CF809156100C9430051F93CF93DF93FE
:10404000EC01162F0E94C44C181739F0612FCE01D5
:10405000DF91CF911F910C94EE4CDF91CF911F9186
:1040600008950F931F93CF93DF931F921F92CDB7A5
:10407000DEB7182F81113FC18091051284FFD3C094
:1040800091E09093021283FF8CC09093041282FF00
:104090008BC060E086E10E94040360E087E10E943B
:1040A000040360E088E10E94040360E089E10E946B
:1040B000040361E08AE10E94040361E08BE10E9455
:1040C000040380910512837009F094C08FEF93E090
:1040D0000E94AC098FEF93E0909307128093061231
:1040E0008091AD1084FFF4C091E09093AA1083FFFB
:1040F000ADC09093AC1082FFACC060E086E10E943E
:10410000040360E087E10E94040360E088E10E940C
:10411000040360E089E10E94040361E08CE10E94F5
:10412000040361E08DE10E9404038091AD1083706F
:1041300009F0B5C08FEF93E00E942A098FEF93E05A
:104140009093AF108093AE106091051284E290E0DE
:104150000E941D206091AD1085E290E00E941D201C
:104160001982809105128A8302E010E09E012F5F80
:104170003F4F43E063E080E00E94EB1C1982809196
:10418000AD108A839E012F5F3F4F43E063E080E0E4
:104190000E94EB1C0F900F90DF91CF911F910F9118
:1041A00008951092041273CF1092AA108091AD104E
:1041B0008F7E8093AD1060E08AE10E94040360E08E
:1041C0008BE10E94040360E08CE10E94040360E044
:1041D0008DE10E94040360E088E10E94040360E036
:1041E00089E10E94040361E086E10E94040361E02A
:1041F00087E165CF813039F48FE790E00E94AC0908
:104200008FE790E069CF823039F48FE090E00E9430
:10421000AC098FE090E060CF87E090E00E94AC09AD
:1042200087E090E059CF1092021260E086E10E9490
:10423000040360E087E10E94040360E08AE10E94D9
:10424000040360E08BE10E9404034ACF1092AC109B
:1042500052CF10920212809105128F7E8093051228
:1042600060E08AE10E94040360E08BE10E940403A5
:1042700060E08CE10E94040360E08DE10E94040391
:1042800060E086E10E94040360E087E10E9404038D
:1042900061E088E10E94040361E089E144CF81305C
:1042A00039F48FE790E00E942A098FE790E048CF29
:1042B000823039F48FE090E00E942A098FE090E08C
:1042C0003FCF87E090E00E942A0987E090E038CF56
:1042D0001092AA1060E088E10E94040360E089E186
:1042E0000E94040360E08CE10E94040360E08DE121
:1042F0000E94040329CF829586958695837082302B
:1043000009F08BC015FF20CF14FF74C081E08093AB
:10431000021213FF2DC08093041212FF2CC060E024
:1043200086E10E94040360E087E10E94040360E0EC
:1043300088E10E94040360E089E10E94040361E0D7
:104340008AE10E94040361E08BE10E940403812F53
:104350008370B9F58FEF93E00E94AC098FEF93E083
:1043600090930712809306121F7D10930512ECCED6
:1043700010920412D2CF1092AA108091AD108F7EAD
:104380008093AD1060E08AE10E94040360E08BE15D
:104390000E94040360E08CE10E94040360E08DE170
:1043A0000E94040360E088E10E94040360E089E168
:1043B0000E94040361E086E10E94040361E087E15A
:1043C000C4CF813039F48FE790E00E94AC098FE7C9
:1043D00090E0C6CF823039F48FE090E00E94AC09C3
:1043E0008FE090E0BDCF87E090E00E94AC0987E0CD
:1043F00090E0B6CF1092021260E086E10E940403C2
:1044000060E087E10E94040360E08AE10E94040307
:1044100060E08BE10E940403A7CF833009F094CEC3
:1044200015FF92CE14FF74C081E08093AA1013FF91
:104430002DC08093AC1012FF2CC060E086E10E947A
:10444000040360E087E10E94040360E088E10E94C9
:10445000040360E089E10E94040361E08CE10E94B2
:10446000040361E08DE10E940403812F8370B9F59C
:104470008FEF93E00E942A098FEF93E09093AF10A3
:104480008093AE101F7D1093AD105ECE1092AC10D5
:10449000D2CF10920212809105128F7E8093051266
:1044A00060E08AE10E94040360E08BE10E94040363
:1044B00060E08CE10E94040360E08DE10E9404034F
:1044C00060E086E10E94040360E087E10E9404034B
:1044D00061E088E10E94040361E089E1C4CF81309A
:1044E00039F48FE790E00E942A098FE790E0C6CF69
:1044F000823039F48FE090E00E942A098FE090E04A
:10450000BDCF87E090E00E942A0987E090E0B6CF17
:104510001092AA1060E088E10E94040360E089E143
:104520000E94040360E08CE10E94040360E08DE1DE
:104530000E940403A7CF2F923F924F925F926F92F7
:104540007F928F929F92AF92BF92CF92DF92EF9223
:10455000FF920F931F93CF93DF93CDB7DEB7A29750
:104560000FB6F894DEBF0FBECDBFADB6BEB680911C
:104570000212811156C0712C8091AA10882311F467
:104580000C94802E2091AE103091AF108091B2101B
:104590002F37310511F00C94652B811105C08091E6
:1045A000B310882309F49BC70E94E908882309F403
:1045B00096C7CDB6DEB61092B2101092B3100E941C
:1045C000E9088093C5108091C51090E004962DB73E
:1045D0003EB7281B390B0FB6F8943EBF0FBE2DBF58
:1045E0008DB79EB701967C010E9452048091930E74
:1045F000F70180838091940E81838091950E828350
:104600008091960E838310E08091C510181708F0F2
:1046100007C70E940A09F701E10FF11D84831F5F9C
:10462000F3CF209106123091071280910A122F3792
:10463000310509F00DC2811109C080910B12811161
:1046400005C080912713882309F409C10E944A09F3
:10465000882309F404C110920A1210920B120E94CE
:104660004A0980931D120E944A098330C8F40E94AF
:104670004A09833050F190E080E00E946B09439733
:1046800021F581E090E00E946B09892BF1F482E032
:1046900090E00E946B09892BC1F41092271315C07A
:1046A00090E080E00E946B09439709F781E090E079
:1046B0000E946B09892BD9F282E090E00E946B097D
:1046C000892BA9F281E080932713809127138823F7
:1046D00009F47EC00E9446040091291310912A1308
:1046E00020912B1330912C13601B710B820B930BB9
:1046F000683C71058105910508F440C00E9446049C
:104700006093291370932A1380932B1390932C1387
:1047100082E080931D120E9452048091930E89833F
:104720008091940E8A838091950E8B838091960E52
:104730008C8383E18D8390E080E00E946B09439736
:1047400019F40E948C09F7CF0E948C098E83009186
:104750001D1210E00C5F1F4F9E012F5F3F4F41E085
:1047600067E082E00E94EB1C40911D124C5FBE018D
:104770006F5F7F4F82E00E94A81002C00E948C09E8
:104780008D81823141F4809105128E7F8263809306
:1047900005120E94312080912F13882309F44AC00A
:1047A00090913113911112C190912013913009F021
:1047B000CCC020913513EFE1F2E1DE01159690E0D7
:1047C000291729F141913D91431380E09F5FF8CF74
:1047D0000E9452048091930E89838091940E8A8363
:1047E0008091950E8B838091960E8C8310E0809142
:1047F0001D12181708F0ABCF0E948C09E5E0F0E01D
:10480000EC0FFD1FE10FF11D80831F5FF0CF8823A8
:1048100019F081E08093301380913413882351F094
:1048200010921F1310922F13109230131092311305
:10483000109233130E9443098091521390915313A5
:10484000A0915413B09155130196A11DB11D8093F1
:10485000521390935313A0935413B0935513809114
:104860002F138823E1F10E944A09811138C00E9468
:1048700046046093970E7093980E8093990E9093D0
:104880009A0E0091421310914313209144133091DA
:1048900045136B017C01C01AD10AE20AF30A0091A8
:1048A00040131091411330E020E0C016D106E2061B
:1048B000F306A8F06093421370934313809344135C
:1048C0009093451380913013882349F080913113E0
:1048D00081111CC281E080932613109230137090D6
:1048E0002613772009F447CE0E944A09182F811118
:1048F00042CE2091061230910712809120132F375B
:10490000310509F0DEC3813009F05EC380911F13C9
:10491000181708F0EDC20E9446046B017C01E12FDC
:10492000F0E0EE5FFD4E858D0E94520900E00E948E
:104930004A09181708F4CAC2002309F4CBC201E0DF
:1049400010E02CE432E04EEFF4C2923008F464CF71
:104950003091351310911F13A12FB0E0A05EBD4E12
:10496000AE014B5F5F4F20E0321741F07D91FA01BD
:104970006191AF01761380E02F5FF6CF882309F4B1
:104980004BCF21E020933013809121138F5F8093D0
:104990002113E12FE30FEF5FE0931F13F0E0EE5FD1
:1049A000FD4E358D30933513981336CF1092211369
:1049B00010921F1380911F1280933513809133132F
:1049C000882309F429CF2093341326CF20911D1278
:1049D0008091351390E001962817190621F581E0A2
:1049E000809330131092461380913413882309F476
:1049F00021CF10921F131092351310922F13109283
:104A00003013109231131092331319A282E08AA34B
:104A100002E010E09E012F5D3F4F41E066E080E044
:104A20000E94EB1C07CF91E09093261380914613D0
:104A30008F5F809346138B3020F090933013109249
:104A4000461368EC70E080E090E00E941404CCCF44
:104A50002F30310509F0D3C0811105C080910B12B0
:104A6000882309F4FCCE0E944A09882309F4F7CE72
:104A7000CDB6DEB610920A1210920B120E944A09AD
:104A800080931D1200911D1210E0000F111F0D5F89
:104A90001F4F2DB73EB7201B310B0FB6F8943EBF0A
:104AA0000FBE2DBF8DB79EB701967C010E945204A8
:104AB0008091930EF70180838091940E8183809181
:104AC000950E82838091960E83838091201381308E
:104AD000E9F480911F1284830E948C09712C8091CB
:104AE0001F137816D8F5872D90E04C01880C991C7F
:104AF0008E0C9F1C8E5F9D4EFC01868DF40185837C
:104B00000E948C09F40186837394E9CF823060F1AE
:104B1000E0911F13F0E0EE5FFD4E868DF701848378
:104B20000E948C09712C809135137816B8F4872D6A
:104B300090E04C01880C991C8E0C9F1CE0911F1377
:104B4000F0E0EE5FFD4EE80FF91F878DF4018583DD
:104B50000E948C09F40186837394E5CF970142E0AB
:104B600067E082E00E94EB1CF70184818E3F41F4F4
:104B7000809105128D7F8163809305120E94312000
:104B800080912F138823C9F0809131138111B1C016
:104B900090912013913009F081C09093301380914F
:104BA0003413882351F010921F1310922F13109278
:104BB0003013109231131092331340911D124C5F39
:104BC000B70182E00E94A8100E944309809152130D
:104BD00090915313A0915413B09155130196A11DB8
:104BE000B11D8093521390935313A0935413B09319
:104BF00055130FB6F894DEBE0FBECDBE30CE811178
:104C000005C080910B12882309F429CE0E944A091D
:104C1000882309F424CECDB6DEB610920A12109283
:104C20000B120E944A0980931D1280911D1290E080
:104C300004962DB73EB7281B390B0FB6F8943EBF2C
:104C40000FBE2DBF8DB79EB701967C010E94520406
:104C50008091930EF70180838091940E81838091DF
:104C6000950E82838091960E838310E080911D12B1
:104C7000181740F40E948C09F701E10FF11D84839D
:104C80001F5FF4CF00911D1210E00C5F1F4F9701C2
:104C900041E067E082E00E94EB1C72CF923008F4A2
:104CA0007ECF21E020933013809121138F5F80937A
:104CB0002113E0911F1330913513E30FEF5FE09361
:104CC0001F13F0E0EE5FFD4E358D309335139813D2
:104CD00066CF1092211310921F1380911F128093A0
:104CE000351380913313882309F459CF209334135B
:104CF00056CF81E08093301380913413882309F4D8
:104D00005CCF10921F13109235134FCF20913513A3
:104D1000243009F04DC080911F13811113C0809180
:104D200036139091371330913813409139134093D3
:104D30001F123093201290932112809322122093FD
:104D40001F13C8CD60911F12709120128091211203
:104D5000909122120E94864EC0903E13D0903F1335
:104D6000F12CE12CDC01CB018C0D9D1DAE1DBF1D76
:104D7000B0931F12A09320129093211280932212BD
:104D800020931F13C80ED91EEA1EFB1E00913A1372
:104D900010913B1320913C1330913D130C151D05D0
:104DA0002E053F0508F096CD81E08093341392CD17
:104DB000233009F045C080911F1381110DC08091EF
:104DC0003613909137133091381330931F1290930C
:104DD000201280932112B3CF30911F1280912012A4
:104DE00090E0B0E0A0E0BA2FA92F982F8827A32B3E
:104DF00030912112832B40913E1350913F1370E06C
:104E000060E0840F951FA61FB71FA0931F129093F9
:104E100020128093211220931F13840F951FA61F29
:104E2000B71F40913A1350913B1360913C1370911E
:104E30003D13481759076A077B0708F4B5CF4ACDD9
:104E4000223029F580911F13811109C080913613FA
:104E50009091371390931F128093201270CF40913E
:104E60003E1350913F1380911F129091201298276A
:104E700089279827840F951F90931F1280932012E3
:104E800020931F13840F951FB0E0A0E0CACF2130FC
:104E900009F020CD80911F13811108C08091361335
:104EA00080931F1281E080931F1314CD20913E1335
:104EB00030913F1380911F12820F80931F1291E057
:104EC00090931F13820F932F911DDECF011137CDC9
:104ED0001F5F1CCD0E9446046C197D098E099F0935
:104EE00001E0643171058105910508F020CD1ECDEA
:104EF00081E080930A1290E080E00E946B09482FC5
:104F000065E070E080E492E00E94D408882309F410
:104F10003FC00E944A09082F10E00E944A09081762
:104F200008F47AC21123F9F001E010E02CE432E039
:104F300046EF6FE080E00E94EB1C109226138091F8
:104F4000561390915713A0915813B091591301968D
:104F5000A11DB11D8093561390935713A09358131E
:104F6000B093591309CB0E944604C0902213D090ED
:104F70002313E0902413F09025136C197D098E09FA
:104F80009F0911E0623371058105910530F6C4CFA8
:104F90000E944A09813198F40E944604009122132C
:104FA000109123132091241330912513601B710B52
:104FB000820B930B623371058105910548F381E003
:104FC00080930B12712CB9CF8230E0F310911F1334
:104FD0001F5FE12EF12C80911F1390E0019620912C
:104FE0003513820F911DE816F9063CF50E94460420
:104FF0001B012C01F701EE5FFD4E858D0E945209C9
:1050000000E080911F136701C81AD1080E944A0965
:105010008C151D047CF4011192CC0E944604621987
:1050200073098409950901E06431710581059105D1
:1050300040F7E6CF002361F282CC81E080930A1230
:1050400090E080E00E946B09482F65E070E080E40A
:1050500092E00E94D408882301F10E944A09082F97
:1050600010E00E944A09081708F4D6C111115CCF5C
:105070000E944604C0902213D0902313E090241382
:10508000F09025136C197D098E099F0911E0623398
:1050900071058105910528F7E3CF0E944604009130
:1050A0002213109123132091241330912513601B98
:1050B000710B820B930B623371058105910568F3C7
:1050C0007ECF2F30310509F0F1C0813009F085C065
:1050D00040911F1260E170E080E392E00E94D408EA
:1050E000782E882309F46FC080911F13823070F0EE
:1050F000809120128F3F51F4E0E2F2E180E0819351
:105100008F5F803FE1F781EF80931F1300E0809174
:105110001F13081708F053CF802F90E09C012E5FDB
:105120003D4E790169013DE1C30ED11C0E94460448
:105130001B012C01F60180810E945209912C0E94D2
:105140004A090817A8F0992069F180911F128983F4
:10515000F701858D8A8302E010E09E012F5F3F4FAB
:105160004AEF6FE080E00E94EB1C0E944309E5CE0D
:105170009110EBCF90E080E00E946B0920911F120C
:1051800028171906F1F00E9443091F5F1A3070F2C8
:1051900001E010E02FE132E148EF6FE080E00E9493
:1051A000EB1C0DCF0E94460462197309840995090E
:1051B00099249394653071058105910508F0BFCF5E
:1051C000BDCF0F5FA4CF01E010E02FE132E149EF46
:1051D0006FE080E00E94EB1CF5CE823008F4F2CE46
:1051E00000911F13E02FF0E0EE5FFD4E468D60E171
:1051F00070E080E392E00E94D408782E882319F3AF
:10520000CC24C394C00E0095D02EDC0C4C2D50E065
:1052100080911F1390E0019620913513820F911D0C
:10522000481759070CF0CBCE9A01215E3D4E79010B
:105230000E9446041B012C01F70180810E94520943
:10524000912C0E944A09D81660F09920F9F0E0915B
:105250001F13F0E0ED5FFD4E858D8983ED0DF11D8F
:1052600078CF9110F4CF90E080E00E946B09E0913C
:105270001F13F0E0EE5FFD4E268D28171906A1F0F2
:105280000E9443091F5F1A3098F282CF0E944604A1
:1052900062197309840995099924939465307105FD
:1052A0008105910570F6CCCFC394AECF813009F063
:1052B00049C080911F13181730F50E9446046B01F6
:1052C0007C01E12FF0E0EE5FFD4E858D0E945209DA
:1052D00000E00E944A09181728F0002339F00E94C4
:1052E00043092DCB0111FBCF1F5FE3CF0E94460482
:1052F0006C197D098E099F0901E0643171058105F2
:10530000910538F7E5CF81E080930A120E944A099F
:10531000082F0E9446046B017C0110E00E944A099C
:10532000081708F479C01111FFCD0E9446046C19CA
:105330007D098E099F0911E0623371058105910590
:1053400068F7EBCF823008F43DCED0901F13EE24E7
:10535000E394ED0CD094FD2CFE0C0E2D10E080910A
:105360001F1390E0019620913513820F911D0817AD
:105370001907A4F50E9446041B012C01F801EE5FF9
:10538000FD4E858D0E94520910E00E944A09F816D0
:10539000A0F01123B1F0E0911F13F0E0ED5FFD4E9E
:1053A000858D8983EF0DF11D858D8A8302E010E0E4
:1053B0009E012F5F3F4F4EEFD4CE1111ECCFE394FF
:1053C000CACF0E944604621973098409950911E045
:1053D0006431710581059105C0F6D6CF81E08093D7
:1053E0000A120E944A09082F0E9446046B017C01A0
:1053F00010E00E944A09081778F0111195CD0E941B
:1054000046046C197D098E099F0911E0623371050C
:105410008105910570F7ECCF112309F4D0CD84CD2F
:105420000091C51010E00C5F1F4F970141E067E04D
:1054300083E00E94EB1CF7018481823141F480916A
:10544000AD108E7F82638093AD100E9431209091C9
:10545000D711992351F18091D9118111F4C0209174
:10546000C811213009F0B1C02091DD11A7ECB0E1E5
:10547000F7013496281731F04D913191431390E0A4
:105480008F5FF8CF992319F081E08093D811809134
:10549000DC11882351F01092C7111092D71110928D
:1054A000D8111092D9111092DB110E94E20880915C
:1054B000FA119091FB11A091FC11B091FD11019690
:1054C000A11DB11D8093FA119093FB11A093FC11C3
:1054D000B093FD110FB6F894DEBE0FBECDBE809125
:1054E000D7118823E1F10E94E908811138C00E9498
:1054F00046046093970E7093980E8093990E909344
:105500009A0E0091EA111091EB112091EC1130915B
:10551000ED116B017C01C01AD10AE20AF30A009175
:10552000E8111091E91130E020E0C016D106E20642
:10553000F306A8F06093EA117093EB118093EC11DD
:105540009093ED118091D811882349F08091D91161
:1055500081117DC281E08093CE111092D81180918B
:10556000CE11882309F4CCC30E94E908182F8111B9
:10557000C7C32091AE103091AF108091C8112F3762
:10558000310509F05AC4813009F0D8C38091C711A0
:10559000181708F04FC30E9446046B017C01E12FED
:1055A000F0E0E655FF4E858D0E94F108712C0E94B7
:1055B000E908181708F42BC3772009F42CC301E07D
:1055C00010E02CE432E04EEF54C3223008F45FCFF9
:1055D0004091DD118091C711A82FB0E0A853BF4EB4
:1055E000F701349630E0431731F06D915191651316
:1055F00090E03F5FF8CF992309F449CF31E0309331
:10560000D8119091C9119F5F9093C911E82FE40FB1
:10561000EF5FE093C711F0E0E655FF4E858D809374
:10562000DD11291334CF1092C9111092C711809146
:10563000C7108093DD118091DB11882309F427CFF7
:105640003093DC1124CF2091C5108091DD1190E0C2
:1056500001962817190621F581E08093D811109240
:10566000EE118091DC11882309F41FCF1092C7112D
:105670001092DD111092D7111092D8111092D911F9
:105680001092DB11198283E08A8302E010E09E0110
:105690002F5F3F4F41E066E080E00E94EB1C05CFAA
:1056A00091E09093CE118091EE118F5F8093EE1177
:1056B0008B3020F09093D8111092EE1168EC70E0CE
:1056C00080E090E00E941404CCCF2F30310509F027
:1056D00002C1811105C08091B310882309F4FFCE67
:1056E0000E94E908882309F4FACE8DB69EB610927E
:1056F000B2101092B3100E94E9088093C510009177
:10570000C51010E0000F111F0D5F1F4F2DB73EB7E2
:10571000201B310B0FB6F8943EBF0FBE2DBF8DB7C7
:105720009EB701967C010E9452048091930EF7016E
:1057300080838091940E81838091950E82838091E5
:10574000960E83838091C8118130E9F48091C7104F
:1057500084830E940A09612C8091C7116816D8F5CC
:10576000862D90E06C01CC0CDD1CCE0CDF1C865528
:105770009F4EFC01868DF60185830E940A09F60181
:1057800086836394E9CF823060F1E091C711F0E045
:10579000E655FF4E868DF70184830E940A09612C2D
:1057A0008091DD116816B8F4862D90E06C01CC0C68
:1057B000DD1CCE0CDF1CE091C711F0E0E655FF4E7A
:1057C000E80FF91F878DF60185830E940A09F6010B
:1057D00086836394E5CF970142E067E083E00E940F
:1057E000EB1CF70184818E3F41F48091AD108D7FD9
:1057F00081638093AD100E9431208091D71188235E
:10580000C1F08091D911811159C09091C811913086
:1058100059F59093D8118091DC11882351F01092A2
:10582000C7111092D7111092D8111092D91110925D
:10583000DB110E94E2088091FA119091FB11A09176
:10584000FC11B091FD110196A11DB11D8093FA11BB
:105850009093FB11A093FC11B093FD110FB6F89437
:105860009EBE0FBE8DBE3BCE9230A8F221E02093AB
:10587000D8118091C9118F5F8093C911E091C71130
:105880003091DD11E30FEF5FE093C711F0E0E655D3
:10589000FF4E358D3093DD119813BDCF1092C91195
:1058A0001092C7118091C7108093DD118091DB1198
:1058B000882309F4B0CF2093DC11ADCF81E0809331
:1058C000D8118091DC11882309F4B3CF1092C7114D
:1058D0001092DD11A6CF811105C08091B3108823ED
:1058E00009F4FDCD0E94E908882309F4F8CDEDB64E
:1058F000FEB61092B2101092B3100E94E908809385
:10590000C5108091C51090E004962DB73EB7281BB6
:10591000390B0FB6F8943EBF0FBE2DBF8DB79EB7A3
:1059200001966C010E9452048091930EF6018083CF
:105930008091940E81838091950E82838091960E42
:10594000838310E08091C510181740F40E940A0963
:10595000F601E10FF11D84831F5FF4CF0091C510A4
:1059600010E00C5F1F4F960141E067E083E00E946A
:10597000EB1C8091D7118823C1F08091D91181113E
:1059800059C09091C811913059F59093D8118091D8
:10599000DC11882351F01092C7111092D711109288
:1059A000D8111092D9111092DB110E94E208809157
:1059B000FA119091FB11A091FC11B091FD1101968B
:1059C000A11DB11D8093FA119093FB11A093FC11BE
:1059D000B093FD110FB6F894FEBE0FBEEDBE7FCDA5
:1059E0009230A8F221E02093D8118091C9118F5FE5
:1059F0008093C911E091C7113091DD11E30FEF5F82
:105A0000E093C711F0E0E655FF4E358D3093DD1180
:105A10009813BDCF1092C9111092C7118091C71071
:105A20008093DD118091DB11882309F4B0CF20939E
:105A3000DC11ADCF81E08093D8118091DC118823F7
:105A400009F4B3CF1092C7111092DD11A6CF2091A7
:105A5000DD11243009F04DC08091C711811113C0B0
:105A60008091DE119091DF113091E0114091E111B0
:105A70004093C7103093C8109093C9108093CA10F8
:105A80002093C71167CD6091C7107091C8108091A5
:105A9000C9109091CA100E94864EC090E611D09015
:105AA000E711F12CE12CDC01CB018C0D9D1DAE1D0D
:105AB000BF1DB093C710A093C8109093C9108093D6
:105AC000CA102093C711C80ED91EEA1EFB1E0091F2
:105AD000E2111091E3112091E4113091E5110C15C0
