:10000000B4C100000C9418290C94ED280C94C2285B
:100010000C9497280C946C280C9441280C94162866
:100020000C94EB27D3C10000D1C10000CFC1000068
:10003000CDC10000CBC10000C9C10000C7C1000094
:10004000C5C10000C3C10000C1C10000BFC10000A4
:10005000BDC10000BBC10000B9C100000C94A127C4
:10006000B5C100000C94DD2B0C94A22BAFC1000095
:10007000ADC10000ABC10000A9C10000A7C10000D4
:100080000C94DB2AA3C10000A1C100009FC10000A5
:100090000C949A2A0C94672A99C100000C94432965
:1000A00095C1000093C1000091C100008FC1000004
:1000B0008DC100008BC1000089C1000087C1000014
:1000C00085C1000083C1000081C100000C94532B46
:1000D0000C94122B7BC1000079C1000077C1000095
:1000E00075C100004343442F53434900205343410B
:1000F0004E4E45522056312E34582020004348524F
:1001000059534C4552204343442F534349002D2D0E
:100110002D2D2D2D2D2D2D2D2D2D2D2D2D2D2D2D0F
:100120002D2D002020205343414E4E455220563164
:100130002E34582020202000202043485259534C70
:100140004552204343442F5343492020002D2D2D59
:100150002D2D2D2D2D2D2D2D2D2D2D2D2D2D2D2DCF
:100160002D00202020203072706D00202030204390
:100170002020202020302E306B5061002020306B5A
:100180006D2F6820202020203072706D00202020EC
:100190002020302E3030306B6D2020202020202079
:1001A000200020302E302F20302E305620202020CE
:1001B000202020202020002020302F20203020430D
:1001C0002020202020302E306B5061002020306B0A
:1001D0006D2F68202020203072706D202020302567
:1001E00000202020203072706D002020302046201A
:1001F00020202020302E30707369002020306D7058
:10020000682020202020203072706D0020202020C7
:1002100020302E3030306D692020202020202020FA
:100220000020302E302F20302E305620202020204D
:100230002020202020002020302F20203020462089
:1002400020202020302E30707369002020306D7007
:100250006820202020203072706D20202030250062
:1002600000002100240027002A002D003000330068
:1002700001010000040107010A010000220025001D
:1002800028002B002E00310034000201000005017F
:1002900008010B0105050505070508080808020205
:1002A00002020A0A08080404040401010101010110
:1002B00001010303030303030303040707070C0CF3
:1002C0000C0C0C0C0C0C02020202060606060606BA
:1002D00006060B0B0B0B0B0B0B0B0102102020085F
:1002E0000810204010204080020102010804020191
:1002F0000102040810204080804020100804020100
:100300008004020180402010080402010804020158
:1003100001020408102040800102040810204080DF
:1003200000000A0B02090C0D0E080703040100006F
:1003300000000000000000000000000000000000BD
:10034000000000000000000000000000121110007A
:10035000000000000000000000000000000000009D
:10036000000000000000032EC63E11241FBECFEF88
:10037000D1E2DEBFCDBF00E00CBF13E0A0E0B2E0F1
:10038000E8E2F9E800E00BBF02C007900D92A4304C
:10039000B107D9F726E1A4E0B3E001C01D92A8326D
:1003A000B207E1F711E0C4EBD1E000E006C021970D
:1003B0000109802FFE010E947043C33BD10780E0FA
:1003C0000807A9F70E943E2F0C94834419CE089584
:1003D000982F20910F1381E0213208F043C08091C3
:1003E000EB128111FCCF80910E1332E03093EB12AF
:1003F0009093EA129FEF9093E9121092E8122093E3
:10040000E712AEEEB2E1E7ECF2E190E0291331C081
:100410001092C6129091C612880F892B8093C61233
:100420008091C512813049F51092C5128091C61293
:100430008093BB008091BC0083FDF8CF85EC809356
:10044000BC008091EB128230E1F38091E9128F3F82
:10045000B1F08091E9128032A1F08091E9128033ED
:1004600091F084E01092ED1210920F131092EC12A2
:1004700008953D9131939F5FC9CF85EEE0CF80E035
:10048000F1CF82E0EFCF83E0EDCFF8942091C3125B
:100490003091C4128091C1129091C212281739076D
:1004A00021F4789480E092E008957894E091C1126C
:1004B000F091C2123196F370EF53F14F2081909179
:1004C000C00E892F90E0982F8827820F911D0895E4
:1004D0000895089580914D13882371F1809131130F
:1004E000823050F1E0913113E15090E080E020E063
:1004F0008E1740F4DC01A05FBC4E51963C91230F57
:100500000196F6CFF0E0E05FFC4E818928130DC024
:1005100080E0909131138917E0F4E82FF0E0E05F7C
:10052000FC4E918990838F5FF4CF1092201310922C
:10053000311310924613089580E09091311389177A
:1005400040F4E82FF0E0E05FFC4E918990838F5FEC
:10055000F4CF8091311380932013E9CFAF92BF92F3
:10056000CF92DF92EF92FF920F931F93CF93DF937F
:100570006C017B018B01040F151FEB015E01AE18AE
:10058000BF08C017D10759F06991D601ED91FC91D0
:100590000190F081E02DC6011995892B79F7C501ED
:1005A000DF91CF911F910F91FF90EF90DF90CF904F
:1005B000BF90AF900895282F30E0F901E05EFC4F26
:1005C0009491F901E652FD4F44912C563D4FF901AB
:1005D0002491222309F435C0992311F191509231CD
:1005E000F8F4E92FF0E08827E750FD4F8F4F0C9487
:1005F00070432A032E030B03220326031003310347
:1006000037033B034103450349034F0353031003DF
:1006100057035D036103809180008F778093800092
:10062000E22FF0E0EE0FFF1FE658FD4FA591B491C9
:100630008FB7F894EC91611148C040954E234C93CC
:100640008FBF0895809180008F7DE8CF80918000DA
:10065000877FE4CF84B58F7784BDE2CF84B58F7D6B
:10066000FBCF8091B0008F778093B000D9CF80917D
:10067000B0008F7DF9CF809190008F7780939000AC
:10068000CFCF809190008F7DF9CF80919000877FB0
:10069000F5CF8091A0008F778093A000C1CF80918B
:1006A000A0008F7DF9CF8091A000877FF5CF80914A
:1006B00020018F7780932001B3CF809120018F7D1F
:1006C000F9CF80912001877FF5CF4E2BB8CF1092C4
:1006D0009B0E10929A0E1092ED1210920F13109220
:1006E000EB1281E08093EA121092C51261E084E17E
:1006F00062DF61E085E15FDFE9EBF0E080818E7F22
:10070000808380818D7F808388E48093B80085E436
:100710008093BC0088E692E09093990E8093980EA7
:1007200089E692E09093970E8093960E0895CF936A
:10073000DF9390E0FC01E652FD4F24918C569D4FD3
:10074000FC0184918823C9F090E0880F991FFC0177
:10075000E05AFD4FA591B491FC01E658FD4FC591BB
:10076000D49161110DC09FB7F8948C91209582238C
:100770008C938881282328839FBFDF91CF91089590
:10078000623051F49FB7F8943C91822F8095832377
:100790008C93E8812E2BEFCF8FB7F894EC912E2B12
:1007A0002C938FBFEACFCF92DF92EF92FF9240E07F
:1007B00054E264EF75E440934713509348136093F9
:1007C000491370934A1380934B138AE080934C1320
:1007D00081E080934D1380934E13109220138093E9
:1007E0004613F8941092311310924213109243134F
:1007F0001092441378941092CD008FE78093CC0030
:100800008091C90088698093C9008091CA00866080
:100810008093CA0080914B13882309F454C087E069
:1008200090E09093501380934F13F89410928000AF
:10083000109281001092850010928400259A809178
:10084000800080648093800080914F1390915013BA
:1008500090938900809388008091810089608093C3
:10086000810062E082E063DF62E083E060DF81E5D7
:1008700096E090934F0280934E0280916A008C7FA5
:10088000826080936A00EC9A8AE396E0909351022A
:100890008093500280916A00837F886080936A0011
:1008A000ED9A7894809191008A7F809391001092C4
:1008B00095001092940081E080934513FF90EF9093
:1008C000DF90CF900895F8941092800010928100EC
:1008D0001092850010928400109289001092880076
:1008E00062E083E024DF8AE396E0909351028093F4
:1008F000500280916A00837F886080936A00ED9A3D
:10090000EC9887EE91E090934F0280934E0278949A
:1009100020914713309148134091491350914A1345
:1009200060E070E080E89FE30E94CF4220E034E284
:1009300044E75BE40E9420416B017C0160914C1311
:1009400070E090E080E00E94C14020E030E040E2B2
:1009500051E40E946B429B01AC01C701B6010E94A9
:10096000204120E030E040E85AE30E94204120E0AE
:1009700030E040E85FE30E946A420E943C4370938B
:10098000521360935113F8941092900010929100BA
:1009900010929500109294008091511390915213EF
:1009A0009093990080939800809191008D6080933E
:1009B00091008091710082608093710078947BCF68
:1009C000863308F0865320917B00982F9870277FFC
:1009D000922B90937B002091460290E4299F9001F6
:1009E00011248770822B80937C0080917A00806430
:1009F00080937A0080917A0086FDFCCF8091780008
:100A00009091790008953FB7F8948091E20B90910E
:100A1000E30BA091E40BB091E50B26B5A89B05C0B4
:100A20002F3F19F00196A11DB11D3FBFBA2FA92F6D
:100A3000982F8827BC01CD01620F711D811D911D6A
:100A400042E0660F771F881F991F4A95D1F70895D6
:100A50008F929F92AF92BF92CF92DF92EF92FF92CE
:100A60004B015C01D0DF6B017C01CDDF6C197D098E
:100A70008E099F09683E734081059105B0F321E01E
:100A8000821A9108A108B10888EEC80E83E0D81E2A
:100A9000E11CF11C81149104A104B10431F7FF9011
:100AA000EF90DF90CF90BF90AF909F908F90089580
:100AB0002FB7F8946091DE0B7091DF0B8091E00B03
:100AC0009091E10B2FBF0895F3DFECEBFEE09083F4
:100AD000818372836383089585ED8093BC00809148
:100AE000BC0084FDFCCF1092EB1208952091BA0B4C
:100AF000260F3327331F21323105ECF42091EB12FE
:100B0000FC0190E080E0243069F082E00895A0913B
:100B1000BA0B2191AC014656544FA40FB52FB11D0D
:100B20002C930196861798F38091BA0B680F609307
:100B3000BA0B80E0089581E008950895E0919B0E3E
:100B400080919A0EE81730F4F0E0E456F14F80817E
:100B500090E008958FEF9FEF089590919B0E809104
:100B60009A0E2FEF3FEF981748F4E92FF0E0E45684
:100B7000F14F208130E09F5F90939B0EC901089553
:100B800080919A0E90919B0E891B990B0895CF929C
:100B9000DF92EF92FF920F931F93CF93DF937C012D
:100BA000CB018A012091EC12222389F0EB016B0129
:100BB000C40ED51ECC15DD0561F06991D701ED910C
:100BC000FC910190F081E02DC7011995F3CF642FBE
:100BD0008DDFC801DF91CF911F910F91FF90EF90B2
:100BE000DF90CF900895CF93DF931F92CDB7DEB7FC
:100BF00069832091EC122223F9F020910F13203207
:100C000058F021E030E0FC013383228390E080E063
:100C10000F90DF91CF9108958091ED12E82FF0E0D1
:100C2000E251FD4E998190838F5F8093ED12809306
:100C30000F1381E090E0ECCF61E0CE01019656DF2A
:100C4000F8CF682F83E593E1CECFFC01248131E01A
:100C50003093EC1220930E131092ED1210920F139A
:100C60008385862B90E0EDDF81E0B2CB089590E0A4
:100C700080E0089580914B13811110C0ED9887EEAC
:100C800091E090935102809350021092950010923F
:100C9000940080919100856080939100109245139B
:100CA000089581E08093451380913113811112CC16
:100CB00008954F925F926F927F928F929F92AF9220
:100CC000BF92CF92DF92EF92FF92CF93DF93109279
:100CD000690B10926A0B10926B0B10926C0B1092B6
:100CE000650B1092660B1092670B1092680BC8ECA4
:100CF000D0E087E365DE092E000CAA0BBB0B409108
:100D0000690B50916A0B60916B0B70916C0B4C01ED
:100D10005D01840E951EA61EB71E8092690B9092EF
:100D20006A0BA0926B0BB0926C0B219711F7C8EC79
:100D3000D0E088E345DE092E000CAA0BBB0B4091E6
:100D4000650B5091660B6091670B7091680B6C019D
:100D50007D01C40ED51EE61EF71EC092650BD09213
:100D6000660BE092670BF092680B219711F788EC05
:100D7000482E512C612C712CC501B401A3019201A4
:100D80000E94394249015A018092690B90926A0B84
:100D9000A0926B0BB0926C0BC701B601A30192013C
:100DA0000E94394269017A01C092650BD092660BAC
:100DB000E092670BF092680B60910402709105025B
:100DC00090E080E00E94BF4020E030E048EC52E438
:100DD0000E94CF422B013C01C501B4010E94BF40DB
:100DE000A30192010E94204120E030EC4FE754E43F
:100DF0000E94CF4220E030E048EC52E40E942041C3
:100E00000E943C43EB01C701B6010E94BF40A30111
:100E100092010E94204120E030EC4FE754E40E9410
:100E2000CF4220E030E048EC52E40E9420410E9492
:100E30003C43D093740EC093750E7093760E6093FE
:100E4000770EDF91CF91FF90EF90DF90CF90BF9022
:100E5000AF909F908F907F906F905F904F9008958C
:100E60004F925F926F927F928F929F92AF92BF92BA
:100E7000CF92DF92EF92FF92CF93DF931092610BAC
:100E80001092620B1092630B1092640BC8ECD0E0CE
:100E900086E396DDBC01990F880B990BC090610B1E
:100EA000D090620BE090630BF090640B6C0D7D1D95
:100EB0008E1D9F1D6093610B7093620B8093630B7B
:100EC0009093640B219721F728EC30E040E050E04C
:100ED0000E94394249015A018092610B9092620B43
:100EE000A092630BB092640B6091000270910102BA
:100EF00090E080E00E94BF406B017C0160910402A1
:100F00007091050290E080E00E94BF4020E030E058
:100F100048EC52E40E94CF422B013C01C501B401D0
:100F20000E94BF409B01AC01C301B2010E9420415D
:100F300020E030EC4FE754E40E94CF424B015C01CB
:100F4000609102027091030290E080E00E94BF4035
:100F5000A70196010E946B429B01AC01C501B4013F
:100F60000E942041A70196010E94CF4220E030E07C
:100F700048EC52E40E9420410E943C43683522E044
:100F80007207A8F41092780E1092790E10926D0BE1
:100F9000DF91CF91FF90EF90DF90CF90BF90AF9017
:100FA0009F908F907F906F905F904F900895709377
:100FB000780E6093790E81E080936D0BE9CFCF932B
:100FC000C82F60E0F8DAC43269F0C532A9F070DDEC
:100FD0006093860E7093870E8093880E9093890E8F
:100FE000CF91089565DD6093820E7093830E809398
:100FF000840E9093850EF4CF5BDD60937E0E70932C
:101000007F0E8093800E9093810EEACFF8948091AA
:10101000500B80934F0B78940895F89480914F0B68
:101020009091500B7894891B08959091EC0B21E0DE
:10103000290F30E0F8944091ED0B78944217130695
:10104000C9F3215B354FF90180839F5F9093EC0BCF
:101050008091D10080628093D10008959C01F89422
:1010600090914F0B8091500B981304C0789480E0BE
:1010700092E0089578949091500BE92FF0E031962A
:10108000E20FF31FFF27E15BF64F208190914E099D
:10109000892F90E0982F8827820F911D0895F8944A
:1010A00090914F0B8091500B981304C0789480E07E
:1010B00092E0089578948091500BE1E0E80FF0E021
:1010C0008F5F8093500BE15BF64F208190914E092A
:1010D000892F90E0982F8827820F911D0895F8940A
:1010E00010924F0B1092500B1092EC0B1092ED0BD4
:1010F00078949093D5008093D400E1EDF0E0808166
:1011000088698083E2EDF0E08081866080830895C5
:10111000F8948091C3129091C4122091C112309121
:10112000C2127894821B930B937008952091E80B60
:101130003091E90B2F5F3F4F3370F8944091EA0BE9
:101140005091EB0B789424173507B9F3F901E25B62
:10115000FA4F80833093E90B2093E80B8091C10014
:1011600080628093C1000895CF93DF93CCE9D2E0F1
:101170008991882311F0DADFFBCFDF91CF910895B9
:10118000F8942091C3123091C4128091C1129091B1
:10119000C2122817390721F4789480E092E008956C
:1011A00078948091C1129091C2120196937090939D
:1011B000C2128093C1128F53914FFC0120819091F4
:1011C000C00E892F90E0982F8827820F911D0895D7
:1011D0003F924F925F926F927F928F929F92AF92C7
:1011E000BF92CF92DF92EF92FF920F931F93CF9314
:1011F000DF932B013C015A017901BC01A201420F8E
:10120000531F611D711D8091741390917513A091EE
:101210007613B091771319E084179507A607B707DF
:1012200008F4A9C001E033243A9495EE992E25ECF8
:10123000822EE114F10409F49DC0C0916F13D09186
:101240007013CE01019784219521C81BD90BC701CA
:1012500021E2E216F10410F080E290E08C179D0785
:1012600008F4EC0180917113A301920104C056951A
:101270004795379527958A95D2F7D0906B13D22A48
:101280000093EC12D0920E131092ED1210920F13E5
:101290008091721390917313029739F49927872DD7
:1012A000762D652D83E593E19EDC642D83E593E146
:1012B0009ADC81E08DD8182F81115DC08091EB12EE
:1012C0008111FCCF9C2F0093EB120093EA12309215
:1012D000E9121092E8128C2F81508093E71200934C
:1012E000C6128091C612DD0CD82AD092C612809107
:1012F000C512813079F51092C5128091C612809383
:10130000BB008091BC0083FDF8CF8092BC0080912F
:10131000EB128130E1F38091E812891710F490917B
:10132000E812E7ECF2E1ACE9BEE080E0891315C019
:1013300010929B0E80939A0EC12ED12CCC16DD06F6
:1013400080F483E593E109DCF501EC0DFD1D80835C
:101350001F5FF2CF9092BC00DACF21912D938F5F67
:10136000E5CF4C0E5D1E611C711CAC0EBD1EEC1A4F
:10137000FD0A5FCF10E0812FDF91CF911F910F9178
:10138000FF90EF90DF90CF90BF90AF909F908F90A5
:101390007F906F905F904F903F900895CF93DF9331
:1013A0001F92CDB7DEB721E030E0AE014F5F5F4F57
:1013B0000FDF90E0009731F4898190E00F90DF918A
:1013C000CF910895919581959109F8CF0F931F932F
:1013D000CF938C01C62F39DC6C2F6460C80135DCDB
:1013E0006C2F6B7FC80131DC83EC90E00197F1F743
:1013F000CF911F910F9108950F931F93CF93DF9378
:101400008C01D62FC42F607F642BE0DF80E1D89F52
:10141000B00111246C2BC801DF91CF911F910F9166
:10142000D5CFCF93DF9300D000D01F921F92CDB7BE
:10143000DEB798E0E8E6F2E0DE01119601900D9249
:101440009A95E1F790916813961710F46FEF690F72
:10145000262F30E0220F331F41E050E04C0F5D1F7C
:10146000240F351FF9016081680F606840E08FE547
:1014700093E128960FB6F894DEBF0FBECDBFDF9183
:10148000CF91BACF41E0B8DF81E090E008950F93AB
:101490001F93CF93DF938B0198E0899FB0011124B4
:1014A000606440E08FE593E1A7DFE801085F1F4F2C
:1014B00069918FE593E1E6DFC017D107C9F7DF91A6
:1014C000CF911F910F9108950F931F93CF93DF93A7
:1014D0008C01D0E0C0E0F801EC0FFD1F64916623A1
:1014E00031F041E08FE593E187DF2196F4CFCE0123
:1014F000DF91CF911F910F91089540E061E08FE55A
:1015000093E17ADF8BE39FE10197F1F70895F5DF2F
:101510008091930E843121F58091920E843009F0F0
:1015200034C060E080E07DDF8BE492E0CDDF61E0FD
:1015300080E077DF86E392E0C7DF62E080E071DF82
:1015400081E292E0C1DF63E080E06BDF8CE092E05B
:10155000BBDF61E087E065DF65E08FE593E192CF77
:10156000803199F48091920E823079F460E080E0CD
:1015700058DF8BEF91E0A8DF61E080E052DF8AEE78
:1015800091E0A2DF61E083E0E6CF60E080E049DF48
:1015900081EE91E099CFB1DF8091930E843121F5F6
:1015A0008091920E843009F034C060E080E039DF31
:1015B0008CEC91E089DF61E080E033DF87EB91E044
:1015C00083DF62E080E02DDF82EA91E07DDF63E08F
:1015D00080E027DF8DE891E077DF61E087E021DFC1
:1015E00065E08FE593E14ECF803199F48091920EC2
:1015F000823079F460E080E014DF8CE791E064DF12
:1016000061E080E00EDF8BE691E05EDF61E083E089
:10161000E6CF60E080E005DF82E691E055CFEF9213
:10162000FF920F931F93CF93DF93CDB7DEB72C9725
:101630000FB6F894DEBF0FBECDBFF090920EE090D3
:10164000930E80917B0E109262131092611380931F
:1016500063138E81809364138F81809365138885D3
:1016600080936613E0926713F092681310926913E7
:1016700018E010936A132BD81092641380916813AA
:10168000823010F01093641390916913992339F00C
:10169000813029F48091641384608093641362E341
:1016A00070E080E090E0D4D960916A138FE593E117
:1016B000CCDA68EE73E080E090E0CAD960E38FE5B1
:1016C00093E184DE0BE416E4C8010197F1F760E3CF
:1016D0008FE593E17BDEC8010197F1F760E38FE5C9
:1016E00093E174DE83E592E00197F1F760E28FE524
:1016F00093E16CDE60916413606240E08FE593E1FA
:101700007BDE84E08093651340E06CE08FE593E13D
:1017100073DEF3DE82E08093661340E066E08FE5DF
:1017200093E16ADE40E062E08FE593E165DE0BE382
:101730001FE1C8010197F1F788E080936A1360E028
:101740008FE593E182DAD9DE40E062E08FE593E154
:1017500053DEC8010197F1F784E1E8123CC084E050
:10176000F81248C08DE491E0AFDE61E080E059DE20
:1017700088E391E0A9DE62E080E053DE83E291E05D
:10178000A3DE63E080E04DDE8EE091E09DDE6EE260
:1017900072E080E07CDE66E272E081E078DE6EE19D
:1017A00072E082E074DE66E172E083E070DE6EE09B
:1017B00072E084E06CDE66E072E085E02C960FB6A5
:1017C000F894DEBF0FBECDBFDF91CF911F910F9177
:1017D000FF90EF905CCE80E1E8120CC082E0F8123E
:1017E00009C08DEF90E070DE61E080E01ADE8CEEE3
:1017F00090E0CCCF84EE90E0C9CFFC0101900020B6
:10180000E9F73197AF01481B590BBC018FE593E114
:101810000C94AE028F929F92AF92BF920F931F9340
:10182000CF93DF93CDB7DEB7A1970FB6F894DEBFA5
:101830000FBECDBF19A2423008F44AE08E010F5D01
:101840001F4F842E912CB12CA12CA50194010E9434
:101850003942E62FB901CA01EA30ECF4E05DD80163
:10186000EE938D01232B242B252B79F790E080E03C
:10187000109711F0CD01C1DFA1960FB6F894DEBF2D
:101880000FBECDBFDF91CF911F910F91BF90AF9051
:101890009F908F900895E95CE2CFBC0190E080E0DA
:1018A0004AE0B8CFAACFAF92BF92CF92DF92EF9229
:1018B000FF920F931F93CF93DF9300D000D01F921E
:1018C000CDB7DEB7522F932FCDB6DEB6E0912416FA
:1018D000F09125169E012F5F3F4F3097D9F5F90102
:1018E000E852F641FA83E983E981FA81D801D89672
:1018F000EA17FB07A0F587E0E0E7F2E0D9010190E5
:101900000D928A95E1F789017E01B8E0EB0EF11C9A
:10191000F80181918F010ADCE016F106C9F70FB6D4
:10192000F894DEBE0FBECDBE0FB6F894DEBE0FBE7D
:10193000CDBE27960FB6F894DEBF0FBECDBFDF91A8
:10194000CF911F910F91FF90EF90DF90CF90BF90BC
:10195000AF900895D901AE1BBF0BFD01C3CF580155
:10196000F6E0AF0EB11C2DB73EB72A193B090FB6F2
:10197000F8943EBF0FBE2DBFADB7BEB711967D0127
:101980002DE3EDB7FEB7218398012E5F3F4F1196EF
:101990003C9311972CEF2A0D12962C931297829557
:1019A000880F880F807C680F13966C93139714969A
:1019B0004C9314970115110561F0E52FF92F159639
:1019C0009F01200F311FE217F30719F081918D93CA
:1019D000FACF0B5F1F4FF701319680E09F012E1960
:1019E0003F092017310718F49191890FF7CF0E0D99
:1019F0001F1DD8018C9384E2E2DA8701C8018E1999
:101A00009F098A159B0508F08ACFF80181918F0103
:101A10008DDBF4CF0F931F93CF93DF931F921F9211
:101A2000CDB7DEB7182F85FF34C084FF7EC083FF9B
:101A300045C081E08093801381E080937E1360E055
:101A400012FF3FC086E10E94DB0260E087E10E9456
:101A5000DB0260E088E10E94DB0260E089E10E9435
:101A6000DB0261E08AE10E94DB0261E08BE10E941F
:101A7000DB02812F837009F042C08FEF93E02FDBF0
:101A80008FEF93E090938313809382131F7D1093C5
:101A900081131A821982809181138A8302E010E0F7
:101AA0009E012F5F3F4F43E063E080E0FCDE0F903C
:101AB0000F90DF91CF911F910F9108951092801395
:101AC000BBCF8AE10E94DB0260E08BE10E94DB0277
:101AD00060E08CE10E94DB0260E08DE10E94DB02AD
:101AE00060E088E10E94DB0260E089E10E94DB02A5
:101AF00061E086E10E94DB0261E087E1B8CF8130DE
:101B000031F48FE790E0EBDA8FE790E0BBCF8230E3
:101B100031F48FE090E0E3DA8FE090E0B3CF87E03C
:101B200090E0DDDA87E090E0ADCF10927E1360E0C8
:101B300086E10E94DB0260E087E10E94DB0260E058
:101B40008AE10E94DB0260E08BE10E94DB029ECF13
:101B50000F931F93CF93DF931F921F92CDB7DEB7E2
:101B60008091EE0B80936E0B8091EF0B80936F0B47
:101B70008091F00B8093700B8091730E882309F491
:101B80002BC181E08093710B80917D0E8093720B4D
:101B900080917C0E8093730B0E9464058091BC0E33
:101BA0008093740B8091BD0E8093750B8091BE0E57
:101BB0008093760B8091BF0E8093770B2091241633
:101BC00030912516CE0101962115310509F007C186
:101BD000885296419A83898389819A819093780B60
:101BE0008093790B3DD980916D0B882309F4FAC05D
:101BF00081E080937A0B8091780E80937B0B8091AB
:101C0000790E80937C0B8091D31480937D0B80910F
:101C10001A1690911B16A0911C16B0911D16B09328
:101C20007E0B80911A1690911B16A0911C16B091F4
:101C30001D16A0937F0B80911A1690911B16A091F0
:101C40001C16B0911D169093800B80911A169091DE
:101C50001B16A0911C16B0911D168093810B8091CC
:101C60001E1690911F16A0912016B0912116B093C8
:101C7000820B80911E1690911F16A0912016B09194
:101C80002116A093830B80911E1690911F16A09190
:101C90002016B09121169093840B80911E1690917E
:101CA0001F16A0912016B09121168093850B80916C
:101CB00081138093860B8091C8149091C914A091D0
:101CC000CA14B091CB14B093870B8091C814909133
:101CD000C914A091CA14B091CB14A093880B809121
:101CE000C8149091C914A091CA14B091CB149093C8
:101CF000890B8091C8149091C914A091CA14B09115
:101D0000CB1480938A0B8091CC149091CD14A09128
:101D1000CE14B091CF14B0938B0B8091CC149091D2
:101D2000CD14A091CE14B091CF14A0938C0B8091C0
:101D3000CC149091CD14A091CE14B091CF14909367
:101D40008D0B8091CC149091CD14A091CE14B091B4
:101D5000CF1480938E0B8091950E882309F445C093
:101D600081E080938F0B80917B0E8093900B80910C
:101D7000930E8093910B8091920E8093920B8091A1
:101D80007A0E8093930B8091940E8093940B8091A4
:101D90004D028093950B80914A0290914B02909353
:101DA000960B8093970B80914802909149029093F3
:101DB000980B8093990B0CE210E02EE63BE040E09C
:101DC00062E080E070DD90E080E00F900F90DF91A6
:101DD000CF911F910F9108951092710BD5CE821B58
:101DE000930BF8CE10927A0B06CF10928F0BBBCFCD
:101DF0000F931F93CF93DF93CDB7DEB765970FB6E1
:101E0000F894DEBF0FBECDBF85E1E7E7F2E0DE016B
:101E1000119601900D928A95E1F705E110E09E017F
:101E20002F5F3F4F40E061E080E03DDD90E080E0EB
:101E300065960FB6F894DEBF0FBECDBFDF91CF9190
:101E40001F910F91089501E010E022E73EE040E08D
:101E500060E080E028DD60E085E20E94DB02FFCFE9
:101E60000F931F93CF93DF93CDB7DEB76E970FB667
:101E7000F894DEBF0FBECDBFE6EEFBE08081898324
:101E800081818A83E9E5FBE080818B8381818C837A
:101E900082818D8383818E8384818F8385818887EE
:101EA0008681898787818A87E1E5FBE080818B874E
:101EB00081818C8782818D8783818E8784818F87C2
:101EC0008581888B8681898B87818A8B1B8A92E0AA
:101ED0009C8B83E08D8B1E8A2FE52F8B2BE6288F22
:101EE0002AE1298F2EE82A8F1B8E9C8F8D8F1E8EC4
:101EF0000EE110E09E012F5F3F4F41E065E080E082
:101F0000D2DC6E960FB6F894DEBF0FBECDBFDF9168
:101F1000CF911F910F910895CF92DF92EF92FF9290
:101F20000F931F93CF93DF931F921F92CDB7DEB70E
:101F30000E9467038CE08093B80080916B1391E05E
:101F40009093EC1280930E131092ED1210920F13D7
:101F50008091721390917313029721F490E080E0C6
:101F60000E94210690E080E00E94210681E00E940C
:101F7000E801882309F460C01092730E1092E60BFA
:101F800080E98093E70B1092590B10925A0B109234
:101F90005B0B10925C0B10925D0B10925E0B10921B
:101FA0005F0B1092600B1092510B1092520B10921B
:101FB000530B1092540B1092550B1092560B10921B
:101FC000570B1092580B84EF91E090930502809389
:101FD000040288E799E6909303028093020288E85E
:101FE00093E190930102809300021092950E87E294
:101FF00080937B0E84E18093930E84E08093920E15
:1020000081E080937A0E1092940E10927D0E1092C1
:102010007C0E01E010E027E432E04BEF6FE080E05F
:1020200042DC0F900F90DF91CF911F910F91FF90A5
:10203000EF90DF90CF90089581E08093730E22E0BF
:1020400030E046EE5BE060E070E0CB01C1D8882371
:1020500061F01092E60B1092E70B01E010E027E42C
:1020600032E04CEF6FE080E01EDC28E030E049E534
:102070005BE062E070E080E090E0AAD88823C1F0E5
:102080001092590B10925A0B10925B0B10925C0B32
:1020900010925D0B10925E0B10925F0B1092600B12
:1020A00001E010E027E432E04CEF6FE080E0FBDB82
:1020B00028E030E041E55BE06AE070E080E090E03D
:1020C00087D88823C1F01092510B1092520B1092B6
:1020D000530B1092540B1092550B1092560B1092FA
:1020E000570B1092580B01E010E027E432E04CEF60
:1020F0006FE080E0D8DB22E030E0AE014F5F5F4F61
:1021000062E170E080E090E063D8882309F457C171
:1021100084EF91E0909305028093040201E010E0C7
:1021200027E432E04CEF6FE080E0BDDB22E030E0FE
:10213000AE014F5F5F4F64E170E080E090E048D80F
:10214000882309F44BC188E799E6909303028093B2
:10215000020201E010E027E432E04CEF6FE080E0A3
:10216000A2DB22E030E0AE014F5F5F4F66E170E03E
:1021700080E090E02DD8882309F43FC18CEE93E1F4
:10218000909301028093000201E010E027E432E026
:102190004CEF6FE080E087DB21E030E0AE014F5F85
:1021A0005F4F68E170E080E090E012D8882309F486
:1021B00033C11092950E01E010E027E432E04CEFBD
:1021C0006FE080E070DB21E030E0AE014F5F5F4FF9
:1021D00069E170E080E090E00E94E808882309F45B
:1021E00025C187E280937B0E01E010E027E432E016
:1021F0004CEF6FE080E057DB21E030E0AE014F5F55
:102200005F4F6AE170E080E090E00E94E808882378
:1022100009F414C184E18093930E01E010E027E4F7
:1022200032E04CEF6FE080E03EDB21E030E0AE01D9
:102230004F5F5F4F6BE170E080E090E00E94E80844
:10224000882309F403C184E08093920E01E010E03A
:1022500027E432E04CEF6FE080E025DB21E030E066
:10226000AE014F5F5F4F6CE170E080E090E00E9454
:10227000E808882309F4F2C084E180937A0E01E033
:1022800010E027E432E04CEF6FE080E00CDB21E06F
:1022900030E0AE014F5F5F4F6DE170E080E090E0B5
:1022A0000E94E808882309F4E1C01092940E01E02E
:1022B00010E027E432E04CEF6FE080E0F4DA21E058
:1022C00030E0AE014F5F5F4F6EE170E080E090E084
:1022D0000E94E808882309F4D2C081E080934D026F
:1022E00001E010E027E432E04CEF6FE080E0DBDA61
:1022F00022E030E0AE014F5F5F4F6FE170E080E0C1
:1023000090E00E94E808882309F4C3C088E893E1BC
:1023100090934B0280934A0201E010E027E432E000
:102320004CEF6FE080E0BFDA22E030E0AE014F5FBB
:102330005F4F61E270E080E090E00E94E80888234F
:1023400009F4BBC082E390E0909349028093480275
:1023500001E010E027E432E04CEF6FE080E0A3DA28
:1023600021E030E04DE75EE06FEF70E080E090E06C
:102370000E94E808882351F010927D0E01E010E0E1
:1023800027E432E04CEF6FE080E08DDA10927C0EB3
:10239000C12CD12C7601C701B60100D890917C0EDA
:1023A000890F80937C0E8FEFC81AD80AE80AF80AC2
:1023B0008FEFC816D104E104F10469F732CE8981A8
:1023C0009A81982789279827009729F090930502EA
:1023D00080930402ABCE84EF91E0F8CF89819A819B
:1023E000982789279827009729F0909303028093D4
:1023F0000202B7CE88E799E6F8CF89819A819827BB
:1024000089279827009729F0909301028093000272
:10241000C3CE8CEE93E1F8CF898180FF04C081E0C8
:102420008093950ED0CE1092950ECDCE89818823C3
:1024300019F080937B0EE0CE87E2FBCF8981882361
:1024400019F08093930EF1CE84E1FBCF898188232C
:1024500019F08093920E02CF84E0FBCF898188230C
:1024600019F080937A0E13CF84E1FBCF89818230FB
:1024700018F48093940E23CF1092940E20CF89816C
:102480009FEF980F933018F480934D0231CF81E085
:10249000FBCF898190E0982F88272A81820F911D98
:1024A00090934B0280934A02892B21F081E0809324
:1024B0004C023ACF10924C0237CF898190E0982F8E
:1024C00088272A81820F911D009729F09093490255
:1024D0008093480245CF82E390E0F8CF0F931F939B
:1024E00081110AC001E010E027E432E043E063E03C
:1024F000DAD91F910F910895982F929596959695F8
:1025000093709230B1F71F910F9184CA4F925F92EE
:102510006F927F928F929F92AF92BF92CF92DF92F3
:10252000EF92FF920F931F93CF93DF93CDB7DEB758
:10253000ADB6BEB69091950E992359F18DB69EB663
:102540009CEF940F2DB73EB7291B31090FB6F894B5
:102550003EBF0FBE2DBF0DB71EB70F5F1F4F992394
:1025600011F40C94C01EFB013496D80124E024170A
:1025700020F431913D932F5FFACF20914D0221300D
:10258000F1F0223009F4CEC50FB6F8949EBE0FBE0E
:102590008DBE0FB6F894BEBE0FBEADBEDF91CF911B
:1025A0001F910F91FF90EF90DF90CF90BF90AF9071
:1025B0009F908F907F906F905F904F9008958130A3
:1025C00019F7F80180818C3809F41AC108F03FC06E
:1025D000843209F4B7C08234B9F69430A8F261812C
:1025E00070E090E080E00E94C14026E636E646E2D8
:1025F0005FE30E9420416B017C0120E030E0A901F3
:102600000E94684320E030E040E05FE387FDDDC0EA
:10261000C701B6010E946B420E943743162F80917A
:10262000930E843109F0B0CF8091920E843009F07E
:10263000ABCF1A3008F0CEC060E080E10E94110AF2
:102640008FED92E02FD9812F0E94F72C9DCF843DF2
:1026500009F4F3C2843E09F4BFC38E3C09F094CF61
:10266000963008F491CF618170E090E080E0962F81
:10267000882777276627C280D12CF12CE12C7601A0
:10268000DD24CC246C0D7D1D8E1D9F1D2481620FC9
:10269000711D811D911D038110E030E020E0322F7B
:1026A000212F102F0027600F711F821F931F209171
:1026B000940E211107C20E94BF4020E030E040E0AC
:1026C0005EE30E9420416B017C0120E030E0A90123
:1026D0000E94684320E030E040E05FE387FD07C2EE
:1026E000C701B6010E946B420E9437430E94C1405D
:1026F00020E030E04AE754E40E94CF426B017C01C5
:102700008091930E843109F03FCF8091920E8430F6
:1027100009F03ACF20E030E040E251E4C701B601D1
:102720000E94BB4087FFE8C163E080E00E94110A7D
:102730008CED92E0B7D843E050E0C701B6010E94AB
:10274000272D22CF943008F41FCF8091940E811151
:1027500017C011818091930E8431C1F48091920E43
:10276000843009F011CF1A30D0F460E080E00E948C
:10277000110A8FED92E096D8812F0E94F72C04CF9A
:10278000813011F41281E6CF10E0E4CF803109F0FE
:10279000FBCE8091920E823009F0F6CEE4CF86EF28
:1027A000810F60E08A3550F480E00E94110A80EECB
:1027B00092E078D8812F0E94F72CE6CE80E00E942C
:1027C000110A812F0E94F72CDFCEC701B6010E94AB
:1027D0006A4222CF86EF810F60E08A3550F480E1B3
:1027E0000E94110A80EE92E05DD8812F0E94F72CA2
:1027F000CBCE80E10E94110A812F0E94F72CC4CE1B
:10280000943008F4C1CE8091940E81117CC0618116
:1028100070E090E080E00E94C14026E636E646EE99
:102820005FE30E94204126E636E646E453E40E9438
:102830006A426B017C0120E030E0A9010E946843FC
:1028400020E030E040E05FE387FD53C0C701B60100
:102850000E946B420E9437437B01F801628170E065
:1028600090E080E00E94C14026E636E646EE5FE357
:102870000E94204126E636E646E453E40E946A427E
:102880002B013C0120E030E0A9010E94684320E0D8
:1028900030E040E05FE387FD31C0C301B2010E9438
:1028A0006B420E9437438B018091930E843109F073
:1028B000ACC08091920E843009F066CE3DE9E316FB
:1028C0003FEFF30684F561E080E00E94110A83EE99
:1028D00092E00E94520C0D39EFEF1E070CF050C031
:1028E00061E084E00E94110A83EE92E00E94520CA3
:1028F0004BCEC701B6010E946A42ACCFC301B20100
:102900000E946A42CECF813049F46181262F20583F
:10291000330B790102810058110BC6CF10E000E0A3
:10292000F12CE12CC1CFC7018D599F4F61E08A3551
:10293000910510F161E087EFE8168FEFF806B0F42B
:102940009AE0E916F10460F461E080E00E94110A67
:102950008FED92E00E94520CC7010E94FE2CBBCF6B
:10296000C7010A9761E08A35910530F480E00E9442
:10297000110A80EE92E0EECF80E00E94110AECCFC7
:10298000C8018D599F4F8A35910540F461E084E07C
:102990000E94110AC8010E94FE2CF6CD073FFFEFEE
:1029A0001F0760F061E084E00E94110A80EE92E06F
:1029B0000E94520CC8010E94FE2CE6CD0A3011057F
:1029C00060F461E084E00E94110A8FED92E00E94C1
:1029D000520CC8010E94FE2CD7CDC8010A9761E0B5
:1029E0008A35910558F484E00E94110A80EE92E045
:1029F0000E94520CC8010E94FE2CC6CD84E00E94A9
:102A0000110AC8010E94FE2CBFCD803109F0BCCD57
:102A10008091920E823009F0B7CD2DE9E2162FEFAA
:102A2000F2064CF461E080E00E94110A83EE92E02D
:102A30000E94520CA9CDC7018D599F4F8A3591052F
:102A400040F461E080E00E94110AC7010E94FE2C60
:102A50009BCD37EFE3163FEFF30660F061E080E0D7
:102A60000E94110A80EE92E00E94520CC7010E945F
:102A7000FE2C8ACD8AE0E816F10460F461E080E083
:102A80000E94110A8FED92E00E94520CC7010E9431
:102A9000FE2C7ACDC7010A9761E08A35910558F47A
:102AA00080E00E94110A80EE92E00E94520CC70161
:102AB0000E94FE2C69CD80E00E94110AC7010E948D
:102AC000FE2C62CDC12CD12C7601213009F018CE1C
:102AD0000E94BF4021EB3AE249EC54E40E942041BD
:102AE00020E030E04AEF55E40E94CF42ECCDC70130
:102AF000B6010E946A42F8CD20E030E040E251E4A5
:102B0000C701B6010E94684387FD19C020E030E08C
:102B100048EC52E4C701B6010E94BB4087FF0FC0DA
:102B200063E080E00E94110A8DED92E00E94520C59
:102B300043E050E0C701B6010E94272D25CD20E0DB
:102B400030E048EC52E4C701B6010E94684387FDBB
:102B500019C020E030E04AE754E4C701B6010E9402
:102B6000BB4087FF0FC063E080E00E94110A8EED3A
:102B700092E00E94520C43E050E0C701B6010E946F
:102B8000272D02CD20E030E04AE754E4C701B6012A
:102B90000E94684387FD19C020E030E44CE156E410
:102BA000C701B6010E94BB4087FF0FC063E080E011
:102BB0000E94110A8FED92E00E94520C43E050E017
:102BC000C701B6010E94272DDFCC20E030E44CE1A4
:102BD00056E4C701B6010E94684387FD19C020E092
:102BE00030E543EC57E4C701B6010E94BB4087FFC4
:102BF0000FC063E080E00E94110A80EE92E00E9424
:102C0000520C43E050E0C701B6010E94272DBCCC16
:102C100020E030E543EC57E4C701B6010E94684369
:102C200087FDB2CC63E080E00E94110A43E050E0EF
:102C3000C701B6010E94272DA7CC943008F4A4CC7C
:102C4000618170E090E080E00E94C14020E030E0CF
:102C500040E251E40E94204123EB3BE742E75DE381
:102C60000E9420416B017C0120E030E0A9010E941C
:102C7000684320E030E040E05FE387FD7FC0C701AC
:102C8000B6010E946B420E9437430E94C1406B0113
:102C90007C01F801628170E090E080E00E94C14018
:102CA00020E030E040E251E40E94204123EB3BE78A
:102CB00042E75DE30E9420412B013C0120E030E02F
:102CC000A9010E94684320E030E040E05FE387FD17
:102CD0005AC0C301B2010E946B420E9437430E9456
:102CE000C1402B013C018091930E843109F04CCC02
:102CF0008091920E843009F047CC20E030E040E231
:102D000051E4C701B6010E94CF426B017C0120E073
:102D100030E040E251E40E94BB4087FF39C062E0EE
:102D200080E00E94110A80EE92E00E94520C41E085
:102D300050E0C701B6010E94272D20E030E040E2BC
:102D400051E4C301B2010E94CF426B017C0120E03B
:102D500030E040E251E40E94BB4087FF28C062E0BF
:102D600085E00E94110A80EE92E00E94520C41E040
:102D700050E0C701B6010E94272D06CCC701B6015D
:102D80000E946A4280CFC301B2010E946A42A5CF6D
:102D900020E030E040E251E4C701B6010E94684300
:102DA00087FDCBCF62E080E00E94110AC0CF20E017
:102DB00030E040E251E4C701B6010E94684387FD5C
:102DC000E3CB62E085E00E94110A41E050E0C701D8
:102DD000B6010E94272DD8CB943008F4D5CB809132
:102DE000940E811168C0E180F0E2EF9E7001112421
:102DF000F801628170E090E080E00E94C14020E034
:102E000030E040E251E40E94204125EB32EC44E7FF
:102E10005DE30E9420412B013C0120E030E0A9014C
:102E20000E94684320E030E040E05FE387FD61C03E
:102E3000C301B2010E946B420E9437430E94C1400D
:102E400020E030E040E251E40E94CF422B013C01FF
:102E50008091930E843109F0A6C08091920E843047
:102E600009F026C1FAE0EF16F10408F047C060E06F
:102E700088E00E94110A8EED92E00E94520CC70178
:102E80000E944D0C20E030E040E251E4C301B20169
:102E90000E94BB4087FF4FC061E08DE00E94110A95
:102EA00080EE92E00E94520C41E050E0C301B2017A
:102EB0000E94272D69CB412C512C3201F12CE12CA1
:102EC000813031F6E180F0E2EF9E70011124F801CB
:102ED000628170E090E080E00E94C14020E030E03C
:102EE00040E251E40E94204129ED31EA4CED50E4EA
:102EF0008ACFC301B2010E946A429ECFC7010A97DE
:102F00008A35910538F460E088E00E94110A8FED5F
:102F100092E0B3CFC7018456910960E084389340B2
:102F200030F488E00E94110A80EE92E0A6CF88E09B
:102F30000E94110AA4CF20E030E040E251E4C30136
:102F4000B2010E94684387FD15C020E030E048ECE4
:102F500052E4C301B2010E94BB4087FF0BC061E095
:102F60008DE00E94110A41E050E0C301B2010E94CD
:102F7000272D0ACB20E030E048EC52E4C301B20137
:102F80000E94684387FD00CB61E08DE00E94110A3A
:102F900080EE92E00E94520C50E040E0C301B2018A
:102FA0000E94272DF1CA803109F082C08091920ED3
:102FB000823009F07DC03AE0E316F10420F560E0CC
:102FC00089E00E94110A8EED92E00E94520CC70126
:102FD0000E944D0C20E030E040E251E4C301B20118
:102FE0000E94BB4087FF2CC061E089E00E94110A6B
:102FF00080EE92E00E94520C41E050E0C301B20129
:103000000E94272DC1CAC7010A978A35910538F455
:1030100060E089E00E94110A8FED92E0D6CFC701EF
:103020008456910960E08438934030F489E00E942E
:10303000110A80EE92E0C9CF89E00E94110AC7CF41
:1030400020E030E040E251E4C301B2010E94684355
:1030500087FD15C020E030E048EC52E4C301B20126
:103060000E94BB4087FF0BC061E089E00E94110A0B
:1030700041E050E0C301B2010E94272D85CA20E043
:1030800030E048EC52E4C301B2010E94684387FD7E
:103090007BCA61E089E00E94110A80EE92E00E9402
:1030A000520C50E040E0C301B2010E94272D6CCACF
:1030B000FAE0EF16F10460F460E081E00E94110A8A
:1030C0008EED92E00E94520CC7010E944D0C5CCA2A
:1030D000C7010A978A35910560F460E081E00E949B
:1030E000110A8FED92E00E94520CC7010E944D0C14
:1030F0004BCAC7018456910960E08438934058F464
:1031000081E00E94110A80EE92E00E94520CC701F9
:103110000E944D0C39CA81E00E94110AC7010E9429
:103120004D0C32CA823009F02FCAF80180818431F7
:1031300009F02ACA933008F427CA81818B3009F438
:103140009DC268F5853009F449C18A3009F426C268
:10315000813009F019CA8091940E811185C00281D5
:1031600010E08091930E843109F0E6C08091920EB8
:10317000843009F009CA0D39FFEF1F070CF4B0CBFA
:10318000C8018D599F4F8A35910508F09EC061E0B6
:1031900084E00E94110AC8010E94FE2CF5C9843205
:1031A00009F4E9C410F5813109F0EEC90281F0E2B9
:1031B0000F9F800111248091930E843109F05AC42D
:1031C0008091920E843009F099C40A3011050CF0F8
:1031D00024C460E088E00E94110A8EED92E00E9413
:1031E000520CC8010E944D0CCFC9813409F433C57B
:1031F000863409F0C9C9628170E090E080E00E94E5
:10320000C14020E73EEC48EC5EE30E9420416B01A8
:103210007C0120E030E0A9010E94684320E030E01A
:1032200040E05FE387FD8EC5C701B6010E946B4297
:103230000E943743162F8091930E843109F0A4C960
:103240008091920E843009F09FC91A3008F07FC532
:1032500060E080E10E94110A8FED92E00E94520C22
:10326000812F0E94F72C90C9813061F5628170E056
:1032700090E080E00E94C1402BEE38E34EE05FE337
:103280000E94204125EE38E34EE851E40E946A4254
:103290006B017C0120E030E0A9010E94684320E03E
:1032A00030E040E05FE387FD08C0C701B6010E943F
:1032B0006B420E9437438B0154CFC701B6010E9475
:1032C0006A42F7CF10E000E04CCF073F2FEF120724
:1032D00060F061E084E00E94110A80EE92E00E94BA
:1032E000520CC8010E94FE2C4FC90A30110560F42F
:1032F00061E084E00E94110A8FED92E00E94520C7E
:10330000C8010E94FE2C40C9C8010A9761E08A35B5
:10331000910558F484E00E94110A80EE92E00E9428
:10332000520CC8010E94FE2C2FC984E00E94110A91
:10333000C8010E94FE2C28C9803109F025C980915E
:10334000920E823009F020C90D393FEF13070CF4BB
:10335000C7CAC8018D599F4F8A35910540F461E075
:1033600084E00E94110AC8010E94FE2C0DC9073F8B
:103370008FEF180760F061E084E00E94110A80EE90
:1033800092E00E94520CC8010E94FE2CFDC80A3037
:10339000110560F461E084E00E94110A8FED92E073
:1033A0000E94520CC8010E94FE2CEEC8C8010A9768
:1033B00061E08A35910558F484E00E94110A80EE9C
:1033C00092E00E94520CC8010E94FE2CDDC884E0ED
:1033D0000E94110AC8010E94FE2CD6C88091940E4A
:1033E000811148C0628170E090E080E00E94C1409D
:1033F00026E636E646EE5FE30E94204126E636E604
:1034000046E453E40E946A426B017C0120E030E014
:10341000A9010E94684320E030E040E05FE387FDBF
:1034200024C0C701B6010E946B420E9437438B0142
:103430008091930E843109F05DC08091920E8430AA
:1034400009F0A2C80D39FFEF1F070CF4EBCAC80141
:103450008D599F4F8A359105B0F461E080E00E945C
:10346000110AC8010E94FE2C8FC8C701B6010E9434
:103470006A42DBCF813021F402810058110BD8CF92
:1034800010E000E0D5CF073F2FEF120760F061E0BA
:1034900080E00E94110A80EE92E00E94520CC80166
:1034A0000E94FE2C71C80A30110560F461E080E0D2
:1034B0000E94110A8FED92E00E94520CC8010E94F6
:1034C000FE2C62C8C8010A9761E08A35910558F45C
:1034D00080E00E94110A80EE92E00E94520CC80126
:1034E0000E94FE2C51C880E00E94110AC8010E946F
:1034F000FE2C4AC8803109F047C88091920E823074
:1035000009F042C80D393FEF13070CF48BCAC8010C
:103510008D599F4F8A35910540F461E080E00E940B
:10352000110AC8010E94FE2C2FC8073F8FEF180711
:1035300060F061E080E00E94110A80EE92E00E945B
:10354000520CC8010E94FE2C1FC80A30110560F4FD
:1035500061E080E00E94110A8FED92E00E94520C1F
:10356000C8010E94FE2C10C8C8010A9761E08A3584
:10357000910560F480E00E94110A80EE92E00E94C2
:10358000520CC8010E94FE2C0C94C41280E00E94D0
:10359000110AC8010E94FE2C0C94C412628170E0D2
:1035A00090E080E00E94C14020E030E040E251E441
:1035B0000E94204123EB3BE742E75DE30E9420416C
:1035C0006B017C0120E030E0A9010E94684320E00B
:1035D00030E040E05FE387FD34C0C701B6010E94E0
:1035E0006B420E9437430E94C1402091930E2431C8
:1035F00011F00C94C4122091920E243011F00C940E
:10360000C41220E030E040E251E40E94CF426B015E
:103610007C0120E030E040E251E40E94BB4087FFA3
:1036200015C062E080E00E94110A80EE92E00E94E4
:10363000520C41E050E0C701B6010E94272D0C94C6
:10364000C412C701B6010E946A42CBCF20E030E02D
:1036500040E251E4C701B6010E94684387FF02C0FF
:103660000C94C41262E080E00E94110A41E050E034
:10367000C701B6010E94272D0C94C4128091940EAC
:1036800081114EC0628170E090E080E00E94C140F4
:1036900025EB32EC44E75DE30E94204120E030E07E
:1036A00040E251E40E9420416B017C0120E030E0C7
:1036B000A9010E94684320E030E040E05FE387FD1D
:1036C00045C0C701B6010E946B420E9437430E9469
:1036D000C14020E030E040E251E40E94CF426B0163
:1036E0007C018091930E843109F0D7C08091920EB5
:1036F000843011F00C94C41220E030E046EC52EC1F
:10370000C701B6010E94BB4018162CF161E08DE0A4
:103710000E94110A82EE92E00E94520C0C94C41294
:10372000C12CD12C76018130E1F6628170E090E00D
:1037300080E00E94C14025EB32EC44E75DE30E944B
:10374000204129ED31EA4CED50E4A6CFC701B60186
:103750000E946A42BACF20E030E046EC52ECC7014A
:10376000B6010E9468431816D4F420E030E040E22D
:1037700051ECC701B6010E94BB40181684F061E00D
:103780008DE00E94110A80EE92E00E94520C50E0FF
:1037900040E0C701B6010E94272D0C94C41220E01E
:1037A00030E040E251ECC701B6010E9468431816B0
:1037B000ACF420E030E0A901C701B6010E94BB4093
:1037C00087FF0CC061E08DE00E94110A41E050E0EB
:1037D000C701B6010E94272D0C94C41220E030E0EE
:1037E000A901C701B6010E94684387FD1AC020E005
:1037F00030E040E251E4C701B6010E94BB4087FFC0
:1038000010C061E08DE00E94110A80EE92E00E94FB
:10381000520C41E050E0C701B6010E94272D0C94E4
:10382000C41220E030E040E251E4C701B6010E943A
:10383000684387FD16C020E030E048EC52E4C70141
:10384000B6010E94BB4087FF0CC061E08DE00E9482
:10385000110A41E050E0C701B6010E94272D0C94E7
:10386000C41220E030E048EC52E4C701B6010E94E7
:10387000684387FF02C00C94C41261E08DE00E948F
:10388000110A80EE92E00E94520C50E040E0C70125
:10389000B6010E94272D0C94C412803111F00C94B3
:1038A000C4128091920E823011F00C94C41220E068
:1038B00030E046EC52ECC701B6010E94BB4018163E
:1038C00054F061E089E00E94110A82EE92E00E94C9
:1038D000520C0C94C41220E030E046EC52ECC701CC
:1038E000B6010E9468431816D4F420E030E040E2AC
:1038F00051ECC701B6010E94BB40181684F061E08C
:1039000089E00E94110A80EE92E00E94520C50E081
:1039100040E0C701B6010E94272D0C94C41220E09C
:1039200030E040E251ECC701B6010E94684318162E
:10393000ACF420E030E0A901C701B6010E94BB4011
:1039400087FF0CC061E089E00E94110A41E050E06D
:10395000C701B6010E94272D0C94C41220E030E06C
:10396000A901C701B6010E94684387FD1AC020E083
:1039700030E040E251E4C701B6010E94BB4087FF3E
:1039800010C061E089E00E94110A80EE92E00E947E
:10399000520C41E050E0C701B6010E94272D0C9463
:1039A000C41220E030E040E251E4C701B6010E94B9
:1039B000684387FD16C020E030E048EC52E4C701C0
:1039C000B6010E94BB4087FF0CC061E089E00E9405
:1039D000110A41E050E0C701B6010E94272D0C9466
:1039E000C41220E030E048EC52E4C701B6010E9466
:1039F000684387FF02C00C94C41261E089E00E9412
:103A0000110A80EE92E00E94520C50E040E0C701A3
:103A1000B6010E94272D0C94C412C8010A978A355A
:103A2000910568F460E088E00E94110A8FED92E051
:103A30000E94520CC8010E944D0C0C94C412C80183
:103A40008456910960E08438934060F488E00E94D5
:103A5000110A80EE92E00E94520CC8010E944D0CA7
:103A60000C94C41288E00E94110AC8010E944D0CF7
:103A70000C94C412803109F041C08091920E8230C2
:103A8000E9F50A3011056CF460E089E00E94110A42
:103A90008EED92E00E94520CC8010E944D0C0C94D5
:103AA000C412C8010A978A35910568F460E089E07C
:103AB0000E94110A8FED92E00E94520CC8010E94F0
:103AC0004D0C0C94C412C8018456910960E08438EE
:103AD000934060F489E00E94110A80EE92E00E9417
:103AE000520CC8010E944D0C0C94C41289E00E9433
:103AF000110AC8010E944D0C0C94C4120A30110521
:103B00006CF460E081E00E94110A8EED92E00E9468
:103B1000520CC8010E944D0C0C94C412C8010A97A3
:103B20008A35910568F460E081E00E94110A8FED0A
:103B300092E00E94520CC8010E944D0C0C94C412D9
:103B4000C8018456910960E08438934060F481E0B4
:103B50000E94110A80EE92E00E94520CC8010E945D
:103B60004D0C0C94C41281E00E94110AC8010E94FD
:103B70004D0C0C94C412628170E090E080E00E94D1
:103B8000C14020E030E040E251E40E94204123EBBC
:103B90003BE742E75DE30E9420416B017C0120E0AE
:103BA00030E0A9010E94684320E030E040E05FE39C
:103BB00087FD34C0C701B6010E946B420E943743A3
:103BC0000E94C1402091930E243111F00C94C41234
:103BD0002091920E243011F00C94C41220E030E0B9
:103BE00040E251E40E94CF426B017C0120E030E0D2
:103BF00040E251E40E94BB4087FF15C062E085E0CF
:103C00000E94110A80EE92E00E94520C41E050E0C6
:103C1000C701B6010E94272D0C94C412C701B6013A
:103C20000E946A42CBCF20E030E040E251E4C7017D
:103C3000B6010E94684387FF02C00C94C41262E080
:103C400085E00E94110A41E050E0C701B6010E94E0
:103C5000272D0C94C4128091940E811139C0628179
:103C600070E090E080E00E94C14020E030E040E061
:103C70005FE30E9420416B017C0120E030E0A9015C
:103C80000E94684320E030E040E05FE387FD2FC002
:103C9000C701B6010E946B420E943743162F8091E4
:103CA000930E843159F58091920E843011F00C946A
:103CB000C4121A3070F560E080E00E94110A8FEDA6
:103CC00092E00E94520C812F0E94F72C0C94C41297
:103CD000813091F4628170E090E080E00E94C14008
:103CE0002CEF3EEF4DEC5FE30E942041BECFC701B9
:103CF000B6010E946A42D0CF10E0D1CF803111F0DE
:103D00000C94C4128091920E823011F00C94C41263
:103D1000D0CF86EF810F60E08A3560F480E00E94AA
:103D2000110A80EE92E00E94520C812F0E94F72C23
:103D30000C94C41280E00E94110A812F0E94F72C7B
:103D40000C94C412C701B6010E946A4271CA86EF80
:103D5000810F60E08A3560F480E10E94110A80EEF4
:103D600092E00E94520C812F0E94F72C0C94C412F6
:103D700080E10E94110A812F0E94F72C0C94C4123A
:103D80000FB6F894BEBE0FBEADBE0C94C9124F92D2
:103D90005F926F927F928F929F92AF92BF92CF92DB
:103DA000DF92EF92FF920F931F93CF93DF9300D098
:103DB00000D01F92CDB7DEB7CDB6DEB680918213AC
:103DC000909183138F37910509F026C38091A11438
:103DD000811138C18091A314811134C10E9458050A
:103DE00000919C1410919D1420919E1430919F1469
:103DF000601B710B820B930B633371058105910579
:103E000008F41BC20E940D08882309F416C2ADB63F
:103E1000BEB60E940D08809397138091971390E08F
:103E200004968DB69EB6881A990A0FB6F8949EBE6F
:103E30000FBE8DBE2DB73EB72F5F3F4F79010E9459
:103E400064058091BC0EF70180838091BD0E818353
:103E50008091BE0E82838091BF0E838310E080919B
:103E60009713181740F40E944F08F701E10FF11D56
:103E700084831F5FF4CF0091971310E00C5F1F4FF6
:103E8000970141E067E082E00E94530C4091971354
:103E90004C5FB70182E00E948612F7018481823173
:103EA00041F4809181138E7F8263809381130E94FD
:103EB0006E129091A514992349F18091A714811154
:103EC0007DC020919A142130E1F52091AB14E9E9ED
:103ED000F3E1D7011496281731F041913D91431336
:103EE00090E08F5FF8CF992319F081E08093A614BA
:103EF0008091AA14882351F0109299141092A5145D
:103F00001092A6141092A7141092A9140E940608E9
:103F10008091C8149091C914A091CA14B091CB1487
:103F20000196A11DB11D8093C8149093C914A0934C
:103F3000CA14B093CB140FB6F894BEBE0FBEADBE7C
:103F40007CC12230A8F28091AB1440919914A42F27
:103F5000B0E0A656BC4EF701349630E0831731F03E
:103F60006D915191651390E03F5FF8CF992309F46B
:103F7000BFCF31E03093A61490919B149F5F909334
:103F80009B14E82FE40FEF5FE0939914F0E0E25800
:103F9000FC4E838D8093AB142913AACF10929B14EF
:103FA00010929914809199138093AB148091A91465
:103FB000882309F49DCF3093AA149ACF20919713A8
:103FC0008091AB1490E001962817190621F581E045
:103FD0008093A6141092BC148091AA14882309F42B
:103FE00095CF109299141092AB141092A5141092C0
:103FF000A6141092A7141092A914198282E08A8341
:1040000002E010E09E012F5F3F4F41E066E080E05C
:104010000E94530C7BCF91E09093A0148091BC142C
:104020008F5F8093BC148B3030F01092A514909366
:10403000AA141092BC1464EF71E080E090E00E943A
:104040002805CACF0E94580500919C1410919D1418
:1040500020919E1430919F14601B710B820B930B67
:104060006B3071058105910508F4E7C00E940D08C9
:10407000882309F4E2C090E080E00E942E08439774
:1040800009F447C090E080E00E942E088A9709F06A
:1040900086C081E090E00E942E08892B09F07FC045
:1040A000ADB6BEB60E940D0880939713809197130A
:1040B00090E004968DB69EB6881A990A0FB6F894C9
:1040C0009EBE0FBE8DBE2DB73EB72F5F3F4F79010D
:1040D0000E9464051092A3141092A4148091BC0E47
:1040E000F70180838091BD0E81838091BE0E828313
:1040F0008091BF0E838310E080919713181708F00A
:1041000070C00E944F08F701E10FF11D84831F5F0B
:10411000F3CF81E090E00E942E08892B09F0B2CF06
:1041200082E090E00E942E08892B09F0ABCFADB65B
:10413000BEB60E940D08809397138091971390E06C
:1041400004968DB69EB6881A990A0FB6F8949EBE4C
:104150000FBE8DBE2DB73EB72F5F3F4F79010E9436
:1041600064051092A1141092A2148091BC0EF70164
:1041700080838091BD0E81838091BE0E8283809169
:10418000BF0E838310E080919713181750F50E949B
:104190004F08F701E10FF11D84831F5FF4CF0E94E8
:1041A0000D08809397130E9464058091BC0E89834B
:1041B0008091BD0E8A838091BE0E8B838091BF0E4D
:1041C0008C838091A1149091A314811107C199232C
:1041D00009F40BC1811109C18AE28D838091A41475
:1041E00003C10091971310E00C5F1F4F970141E04E
:1041F00067E082E00E94530C409197134C5FB70137
:1042000082E00E9486120FB6F894BEBE0FBEADBE0D
:104210000E9406088091C8149091C914A091CA14F4
:10422000B091CB140196A11DB11D8093C814909339
:10423000C914A093CA14B093CB148091A5148823F9
:10424000B9F10E940D08811133C00E9458050091F8
:10425000B8141091B9142091BA143091BB144B01C9
:104260005C01801A910AA20AB30A95018401409167
:10427000B6145091B7144A01B12CA12C80169106A6
:10428000A206B306A8F46093B8147093B91480938F
:10429000BA149093BB148091A614882349F080919E
:1042A000A7148111FCC181E08093A0141092A61480
:1042B0008091A014882309F41EC30E940D08182FB2
:1042C000811119C3209182133091831380919A1424
:1042D0002F37310509F074C3813009F036C380915E
:1042E00099141817E8F40E9458054B015C01E12F5E
:1042F000F0E0E258FC4E838D0E94150800E00E9419
:104300000D08181708F4ABC2002309F4ACC201E091
:1043100010E027E432E04EEF6FE080E00E94530CA3
:1043200080919914823008F4D1C20E940D08823025
:1043300020F190E080E00E942E084397F1F481E0A4
:1043400090E00E942E08892BC1F00E9458054B0175
:104350005C0110E00E940D0890919914981708F4E0
:1043600090C2112309F499C201E010E027E432E081
:104370004EEF6FE080E00E94530C809199148230E0
:1043800008F4A4C20E940D08823008F49FC290E095
:1043900080E00E942E088A9709F098C281E090E0A0
:1043A0000E942E08892B09F491C20E9458054B01E6
:1043B0005C0110E00E940D0890919914981708F480
:1043C0007AC2112309F4B3C201E010E027E432E01D
:1043D0004EEF6FE080E00E94530C78C29111F7CE4F
:1043E00083E18D838091A2148E830E944F088F8376
:1043F00007E010E09E012F5F3F4F41E067E082E061
:104400000E94530C409197134C5FBE016F5F7F4F2A
:1044100082E00E948612FCCE0F9709F0AFC00E9486
:104420000D08882309F409CFADB6BEB60E940D0869
:10443000809397130091971310E0000F111F0D5FE9
:104440001F4F8DB69EB6801A910A0FB6F8949EBE85
:104450000FBE8DBE2DB73EB72F5F3F4F79010E9433
:1044600064058091BC0EF70180838091BD0E81832D
:104470008091BE0E82838091BF0E838380919A14B7
:104480008130E9F48091991384830E944F08712C44
:10449000809199147816D8F5872D90E04C01880CFE
:1044A000991C8E0C9F1C82589C4EFC01848DF4013B
:1044B00085830E944F08F40186837394E9CF82308C
:1044C00060F1E0919914F0E0E258FC4E848DF70120
:1044D00084830E944F08712C8091AB147816B8F435
:1044E000872D90E04C01880C991C8E0C9F1CE0914C
:1044F0009914F0E0E258FC4EE80FF91F858DF401A5
:1045000085830E944F08F40186837394E5CF970159
:1045100042E067E082E00E94530CF70184818E3F05
:1045200041F4809181138D7F8163809381130E9478
:104530006E128091A5148823C9F08091A71481116F
:10454000A1C090919A14913009F071C09093A61473
:104550008091AA14882351F0109299141092A514F6
:104560001092A6141092A7141092A91440919713B8
:104570004C5FB70182E00E948612C8CC0E945805A9
:1045800000919C1410919D1420919E1430919F14C1
:10459000601B710B820B930B6333710581059105D1
:1045A00008F44BCE0E940D08882309F446CEADB620
:1045B000BEB60E940D08809397138091971390E0E8
:1045C00004968DB69EB6881A990A0FB6F8949EBEC8
:1045D0000FBE8DBE2DB73EB72F5F3F4F79010E94B2
:1045E00064058091BC0EF70180838091BD0E8183AC
:1045F0008091BE0E82838091BF0E838310E08091F4
:104600009713181740F40E944F08F701E10FF11DAE
:1046100084831F5FF4CF0091971310E00C5F1F4F4E
:10462000970141E067E082E00E94530C82CF923014
:1046300008F48ECF21E02093A61480919B148F5F05
:1046400080939B14E09199143091AB14E30FEF5FCA
:10465000E0939914F0E0E258FC4E338D3093AB14A4
:10466000981376CF10929B141092991480919913FD
:104670008093AB148091A914882309F469CF209307
:10468000AA1466CF81E08093A6148091AA1488238F
:1046900009F46CCF109299141092AB145FCF209153
:1046A000AB14243009F04DC080919914811113C0CE
:1046B0008091AC149091AD143091AE144091AF1430
:1046C0004093991330939A1390939B1380939C1368
:1046D00020939914E8CD6091991370919A13809169
:1046E0009B1390919C130E9478438090B4149090F7
:1046F000B514B12CA12CDC01CB01880D991DAA1D8C
:10470000BB1DB0939913A0939A1390939B1380931E
:104710009C1320939914880E991EAA1EBB1E00910B
:10472000B0141091B1142091B2143091B314081543
:1047300019052A053B0508F0B6CD81E08093AA143F
:10474000B2CD233009F045C08091991481110DC07C
:104750008091AC149091AD143091AE1430939913B4
:1047600090939A1380939B13B3CF309199138091B8
:104770009A1390E0B0E0A0E0BA2FA92F982F8827D5
:10478000A32B30919B13832B4091B4145091B514FB
:1047900070E060E0840F951FA61FB71FA0939913C8
:1047A00090939A1380939B1320939914840F951FD1
:1047B000A61FB71F4091B0145091B1146091B2146C
:1047C0007091B314481759076A077B0708F4B5CFEF
:1047D0006ACD223029F580919914811109C0809108
:1047E000AC149091AD149093991380939A1370CF59
:1047F0004091B4145091B5148091991390919A13EB
:10480000982789279827840F951F90939913809351
:104810009A1320939914840F951FB0E0A0E0CACF9B
:10482000213009F040CD80919914811108C0809108
:10483000AC148093991381E08093991434CD209126
:10484000B4143091B51480919913820F8093991309
:1048500091E090939914820F932F911DDECF011157
:1048600056CD1F5F3CCD0E945805681979098A0909
:104870009B0901E0653171058105910508F03FCD87
:104880003DCD111171CD81E08093A11480919A13D7
:104890008093A2140E94060870CD0E9458056819E2
:1048A00079098A099B0911E0653671058105910531
:1048B00008F050CD4ECD111187CD81E08093A31427
:1048C00080919A138093A4140E9406081092A01459
:1048D0008091CC149091CD14A091CE14B091CF14AE
:1048E0000196A11DB11D8093CC149093CD14A0937B
:1048F000CE14B093CF140FB6F894DEBE0FBECDBE6B
:1049000027960FB6F894DEBF0FBECDBFDF91CF91D3
:104910001F910F91FF90EF90DF90CF90BF90AF90DD
:104920009F908F907F906F905F904F9008950E941E
:104930005805681979098A099B0911E065367105DE
:104940008105910508F036CD34CD823008F4BECF14
:10495000109199141F5FE12EF12C8091991490E031
:1049600001962091AB14820F911DE816F9060CF008
:10497000ADCF0E9458052B013C01F701E258FC4ED7
:10498000838D0E94150800E0809199145701A81AA0
:10499000B1080E940D088A151B047CF4011114CD86
:1049A0000E945805641975098609970901E0653167
:1049B00071058105910540F7E6CF002359F204CD3A
:1049C0002F30310509F0A5C08130D9F52091991318
:1049D000E6E3F2E086E492E03191231709F408C19E
:1049E0008E179F07C9F701E010E029E933E149EF8D
:1049F000F0CCB11030C190E080E00E942E082091F0
:104A0000991328171906D9F00E9406081F5F1A305B
:104A100008F410C101E010E029E933E148EFD9CCF6
:104A20000E9458056419750986099709BB24B39437
:104A3000663071058105910508F005C103C10F5F5E
:104A4000EAC0823008F442CF00919914E02FF0E0E0
:104A5000E258FC4E248DE6E3F2E086E492E03191E8
:104A6000231709F405C18E179F07C9F7BCCF911012
:104A700046C090E080E00E942E08E0919914F0E09A
:104A8000E258FC4E248D28171906A1F00E94060852
:104A90001F5F1A3020F1BECF0E94580564197509B6
:104AA00086099709992493946630710581059105CB
:104AB000F8F41DC0A394B02EBA0C4A2D50E080919A
:104AC000991490E001962091AB14820F911D481724
:104AD00059070CF0FBCE9A0127563C4E79010E94F3
:104AE00058052B013C01F70180810E941508912C8B
:104AF0000E940D08B81608F4BACF992069F2E09127
:104B00009914F0E0E158FC4E838D8983EB0DF11D83
:104B1000A6C0813041F580919914181708F0D6CEBF
:104B20000E9458054B015C01E12FF0E0E258FC4E79
:104B3000838D0E94150800E00E940D08181778F078
:104B4000011142CC0E945805681979098A099B090C
:104B500001E0653171058105910570F7ECCF011118
:104B600033CC1F5FD8CF823008F4B0CEB090991408
:104B700011E01B0DB0940B2D010FE12EF12C809153
:104B8000991490E001962091AB14820F911DE816C4
:104B9000F9060CF09BCE0E9458052B013C01F70151
:104BA000E258FC4E838D0E941508F12C0E940D08DE
:104BB000081760F0FF2071F0E0919914F0E0E158DF
:104BC000FC4E838D8983E00FF11D49C0F110F4CFB5
:104BD0001F5FD1CF0E94580564197509860997098E
:104BE000FF24F3946531710581059105F8F6DDCF59
:104BF00080919914823070F080919A138F3F51F414
:104C0000EAE9F3E180E081938F5F803FE1F781EF94
:104C10008093991400E080919914081708F056CEFB
:104C2000802F90E09C0122583C4E790149013BE1E4
:104C3000830E911C0E9458052B013C01F4018081D8
:104C40000E941508B12C0E940D08081708F4D1CE57
:104C5000BB2009F4E5CE809199138983F701838DF8
:104C60008A8302E010E09E012F5F3F4F4AEFB1CBF5
:104C7000AA24A394A00E00951ECFCF92DF92EF92AC
:104C8000FF92CF93DF93582FFC0130E020E02617EE
:104C900048F44191D901A05FBC4E92964C932F5F8E
:104CA0003F4FF5CF20914E132223A9F0623098F0A8
:104CB0002FEF260FFC0140E03191430F3E2F351BB3
:104CC0003217D0F330E0F901E05FFC4E42A3820FCF
:104CD000931FEC01488310924213609343130E9488
:104CE00058056B017C0180E090914513911111C032
:104CF0008111CDC00E945805AB01BC014C195D0962
:104D00006E097F0981E0493E53406105710560F7F6
:104D1000EACF8111BCC050914B138091C90055233B
:104D200059F080628093C90080E0DF91CF91FF90BD
:104D3000EF90DF90CF90089587748093C900109210
:104D400045135298539A5A9A5B9A60913213EBEE3C
:104D5000F3E03197F1F700C000004A9B71C05B9807
:104D600080E0CFEFD0E02197F1F700C000004A9B30
:104D700002C05B9A892FEFEFF0E03197F1F700C0A6
:104D8000000030E020E040E0E62FF0E0A1E0B0E0FD
:104D900081115BC07F01022E02C0F594E7940A9452
:104DA000E2F7E0FE4FC05B9A592FCFEFD0E021979A
:104DB000F1F700C0000071E04A9949C070E0751336
:104DC000892FCFEFD0E02197F1F700C000002F5FCF
:104DD0003F4F28303105E1F6811101C05B9AEFEFBA
:104DE000F0E03197F1F700C000004A9B892FCFEF28
:104DF000D0E02197F1F700C000004093211391E02B
:104E00009093311381112BC0641329C090934213E6
:104E10008091C90088698093C9008091C90080622F
:104E20008093C9008AE396E09093510280935002E8
:104E300080916A00837F886080936A00ED9A74CFC6
:104E4000892F8FCF5B9850E0B0CF5B9AAECF7D01BA
:104E5000022E01C0EE0C0A94EAF74E29B0CF109250
:104E60004213109243138091C90088698093C9004E
:104E70008AE396E0909351028093500280916A00F9
:104E8000837F886080936A00ED9A83E04ECF82E052
:104E90004CCF84E20E94DF070E94B40890E080E0DB
:104EA00008950F931F93CF93DF93EC01888199812D
:104EB000009759F02A813B812617370730F081E0AF
:104EC000DF91CF911F910F9108958B016F5F7F4FFD
:104ED0000E947F43009759F0998388831B830A833C
:104EE0002C813D81232B59F7FC011082E8CF80E013
:104EF000E7CFCF93DF93EC01198218821B821A82CD
:104F00001D821C8270E060E0CCDF28813981811134
:104F10000FC02115310519F0C9010E946A3F19829D
:104F200018821D821C821B821A82DF91CF91089504
:104F30001D821C8261EE72E0C901DF91CF910C9459
:104F40006D441F920F920FB60F9211242F933F932F
:104F50008F939F93AF93BF938091DE0B9091DF0B64
:104F6000A091E00BB091E10B3091DD0B23E0230F1A
:104F70002D3758F50196A11DB11D2093DD0B8093AF
:104F8000DE0B9093DF0BA093E00BB093E10B8091CD
:104F9000E20B9091E30BA091E40BB091E50B01962D
:104FA000A11DB11D8093E20B9093E30BA093E40B42
:104FB000B093E50BBF91AF919F918F913F912F914E
:104FC0000F900FBE0F901F90189526E8230F0296A2
:104FD000A11DB11DD2CF1F920F920FB60F921124B7
:104FE0000BB60F922F933F934F935F936F937F93E3
:104FF0008F939F93AF93BF93EF93FF93E0915C02E6
:10500000F0915D021995FF91EF91BF91AF919F9142
:105010008F917F916F915F914F913F912F910F9061
:105020000BBE0F900FBE0F901F9018951F920F92FE
:105030000FB60F9211240BB60F922F933F934F93FD
:105040005F936F937F938F939F93AF93BF93EF93F0
:10505000FF93E0915A02F0915B021995FF91EF9155
:10506000BF91AF919F918F917F916F915F914F9180
:105070003F912F910F900BBE0F900FBE0F901F907E
:1050800018951F920F920FB60F9211240BB60F9224
:105090002F933F934F935F936F937F938F939F9340
:1050A000AF93BF93EF93FF93E0915002F0915102C1
:1050B0001995FF91EF91BF91AF919F918F917F9142
:1050C0006F915F914F913F912F910F900BBE0F9079
:1050D0000FBE0F901F9018951F920F920FB60F9250
:1050E00011240BB60F922F933F934F935F936F93BF
:1050F0007F938F939F93AF93BF93EF93FF93E09131
:105100004E02F0914F021995FF91EF91BF91AF912F
:105110009F918F917F916F915F914F913F912F91CF
:105120000F900BBE0F900FBE0F901F9018951F92FF
:105130000F920FB60F9211240BB60F922F933F933D
:105140004F935F936F937F938F939F93AF93BF938F
:10515000EF93FF93E0915802F09159021995FF9156
:10516000EF91BF91AF919F918F917F916F915F91DF
:105170004F913F912F910F900BBE0F900FBE0F904C
:105180001F9018951F920F920FB60F9211240BB615
:105190000F922F933F934F935F936F937F938F93D0
:1051A0009F93AF93BF93EF93FF93E0915602F091DB
:1051B00057021995FF91EF91BF91AF919F918F91F8
:1051C0007F916F915F914F913F912F910F900BBE07
:1051D0000F900FBE0F901F9018951F920F920FB651
:1051E0000F9211240BB60F922F933F934F935F931F
:1051F0006F937F938F939F93AF93BF93EF93FF939F
:10520000E0915402F09155021995FF91EF91BF91F1
:10521000AF919F918F917F916F915F914F913F914E
:105220002F910F900BBE0F900FBE0F901F901895EF
:105230001F920F920FB60F9211240BB60F922F935D
:105240003F934F935F936F937F938F939F93AF930E
:10525000BF93EF93FF93E0915202F091530219959F
:10526000FF91EF91BF91AF919F918F917F916F913E
:105270005F914F913F912F910F900BBE0F900FBEFA
:105280000F901F9018951F920F920FB60F92112436
:105290000BB60F922F933F934F935F936F937F9330
:1052A0008F939F93AF93BF93EF93FF938091B90038
:1052B000887F803609F44DC008F040C0883209F478
:1052C000A9C028F5803109F49DC0C8F4882309F4E9
:1052D000FBC0883009F496C0FF91EF91BF91AF9168
:1052E0009F918F917F916F915F914F913F912F91FE
:1052F0000F900BBE0F900FBE0F901F901895883126
:1053000009F488C0803241F78093E91214C08034D8
:1053100009F49DC040F48033B9F38833E9F68093F3
:10532000E91285ECB0C0803509F485C0883509F4F0
:1053300096C0883489F60E946C05CECF883909F46E
:105340008CC038F5883729F050F4883611F0803752
:1053500019F683E08093EB121092DC0B57C088386B
:1053600009F47BC0803919F0803809F0B5CF8091FD
:10537000DC0B803208F071C0E091DC0B81E08E0F15
:105380008093DC0B8091BB00F0E0E454F44F808309
:105390003DC0803B39F0E0F4803A09F479C0883AA6
:1053A00009F09ACF84E08093EB121092BB0B10921D
:1053B000BA0BE091980EF091990E19958091BA0B65
:1053C00081110FC081E08093BA0B10929A0B09C033
:1053D000803C09F4A6CF883C09F4A3CF883B09F0B0
:1053E0007BCFE091BB0B81E08E0F8093BB0BF0E095
:1053F000E656F44F80818093BB009091BB0B809167
:10540000BA0B29C08091C6128093BB0085EC8093B3
:10541000BC0062CF9091E8128091E712981758F57E
:10542000E091E81281E08E0F8093E812F0E0E953FA
:10543000FD4E8081E9CFE091E81281E08E0F8093EC
:10544000E8128091BB00F0E0E953FD4E808390911B
:10545000E8128091E7129817C8F285E8D8CFE0915A
:10546000E81281E08E0F8093E8128091BB00F0E09B
:10547000E953FD4E80838091EA1281115CCF81E077
:105480008093C51284EA8093BC001092EB1224CF63
:1054900085EC8093BC001092EB128091DC0B803283
:1054A00030F4E091DC0BF0E0E454F44F10826091B2
:1054B000DC0B70E0E091960EF091970E8CEB9BE088
:1054C00019951092DC0B08CF1092E91234CF1F927D
:1054D0000F920FB60F9211240BB60F928F939F93DA
:1054E000EF93FF9390914213809143139817C0F468
:1054F000E0914213F0E0E05FFC4E82A18093CE0089
:10550000809142138F5F80934213FF91EF919F919F
:105510008F910F900BBE0F900FBE0F901F9018959C
:105520008091C9008F7D8093C90010924213109220
:105530004313EBCF1F920F920FB60F9211240BB6AD
:105540000F922F938F939F93EF93FF938091C800B7
:105550009091CE00887120913113203150F5E09167
:105560003113F0E0E05FFC4E918B909131139F5F1F
:10557000909331138093441380914B1381110DC08C
:105580008AE396E0909351028093500280916A00E2
:10559000837F886080936A00ED9AFF91EF919F91DD
:1055A0008F912F910F900BBE0F900FBE0F901F90F9
:1055B00018958460DFCF1F920F920FB60F921124BF
:1055C0000BB60F922F933F934F935F936F937F93FD
:1055D0008F939F93AF93BF93EF93FF93809191002D
:1055E0008A7F80939100109295001092940081E040
:1055F000809345138091311381110E946A02FF91BB
:10560000EF91BF91AF919F918F917F916F915F913A
:105610004F913F912F910F900BBE0F900FBE0F90A7
:105620001F9018951F920F920FB60F9211240BB670
:105630000F922F933F938F939F93EF93FF939091AC
:10564000EC0B8091ED0B981741F18091ED0BE1E0AF
:10565000E80FF0E08F5F8093ED0B80918013E15BAA
:10566000F54F811110C080818093D600FF91EF919A
:105670009F918F913F912F910F900BBE0F900FBE76
:105680000F901F9018952081808190E1299F9001B3
:10569000112482958F70822BE7CF8091D1008F7D6E
:1056A0008093D100E3CF1F920F920FB60F92112477
:1056B0000BB60F922F933F934F935F936F937F930C
:1056C0008F939F93AF93BF93EF93FF938091D000FD
:1056D0009091D600887120914F0BE1E0E20FF0E04D
:1056E0003091500B3E171F0659F12F5F20934F0B3F
:1056F00020918013E15BF64F211120C090838093AD
:105700004E090E94580560939C1470939D148093D9
:105710009E1490939F14FF91EF91BF91AF919F9131
:105720008F917F916F915F914F913F912F910F904A
:105730000BBE0F900FBE0F901F9018959295DECF65
:1057400084E0DDCF1F920F920FB60F9211240BB69B
:105750000F922F933F938F939F93EF93FF932091FB
:10576000E80B3091E90B8091EA0B9091EB0B281735
:105770003907E9F08091EA0B9091EB0B0196937059
:105780009093EB0B8093EA0B825B9A4FFC01808134
:105790008093C600FF91EF919F918F913F912F9140
:1057A0000F900BBE0F900FBE0F901F901895809119
:1057B000C1008F7D8093C100EDCF1F920F920FB675
:1057C0000F9211240BB60F922F933F934F935F9339
:1057D0008F939F93EF93FF932091C0003091C60069
:1057E0008091C3129091C412019693704091C1129E
:1057F0005091C21248175907D1F028719093C412E2
:105800008093C3128F53914FFC0130832093C00EBD
:10581000FF91EF919F918F915F914F913F912F91C8
:105820000F900BBE0F900FBE0F901F90189524E0A5
:10583000EDCF3F924F925F926F927F928F929F92A5
:10584000AF92BF92CF92DF92EF92FF920F931F938E
:10585000CF93DF932B013C017A01890120E2C22E14
:10586000D12C332433943BECA32E37E0B32E011517
:10587000110509F488C0C0916F13D0917013809105
:105880007213909173139E01215031092421352107
:10589000C21BD30B9601281B390B0217130708F400
:1058A00098012C173D0708F4E90120917113B30109
:1058B000A20104C076956795579547952A95D2F72A
:1058C00090906B13942A3092EC1290920E131092D7
:1058D000ED1210920F13029741F49927872D762D20
:1058E000652D83E593E10E94F305642D83E593E143
:1058F0000E94F305AE01B70183E593E10E94C7055D
:1059000081E00E94E801811123C084E6882EC50150
:105910000197F1F73092EC1290920E131092ED1263
:1059200010920F138091721390917313029721F4C8
:1059300090E080E00E94210690E080E00E94210635
:1059400081E00E94E8018823A9F08A948110DFCFCA
:10595000DF91CF911F910F91FF90EF90DF90CF904B
:10596000BF90AF909F908F907F906F905F904F907F
:105970003F9008954C0E5D1E611C711CEC0EFD1EC7
:105980000C1B1D0B74CF80E0E3CFCF92DF92EF9220
:10599000FF920F931F93CF93DF931F92CDB7DEB784
:1059A00049836B017C012FEFC21AD20AE20AF20A84
:1059B0000091741310917513209176133091771321
:1059C0000C151D052E053F0580F021E030E0AE01ED
:1059D0004F5F5F4F2EDF0F90DF91CF911F910F919F
:1059E000FF90EF90DF90CF90089589E0F4CF682F7B
:1059F00070E090E080E04AE00C940A0CCF92DF92D5
:105A0000EF92FF926C01990FEE08FF08F7FE16C0A7
:105A100041E06DE28FE593E10E94FC09662777275C
:105A2000CB016C197D098E099F094AE00E940A0C7E
:105A30000196FF90EF90DF90CF9008954AE0C70164
:105A4000B601FF90EF90DF90CF900C940A0C4F922C
:105A50005F926F927F928F929F92AF92BF92CF92FE
:105A6000DF92EF92FF920F931F93CF936B017C0114
:105A7000B42EAC019B010E946C43882399F080ED09
:105A800092E0CF911F910F91FF90EF90DF90CF9018
:105A9000BF90AF909F908F907F906F905F904F904E
:105AA0000C94FD0B26013701E89477F82FEF3FEFB8
:105AB0004FE75FE7C301B2010E946C4381110DC043
:105AC0002FEF3FEF4FE75FE7C301B2010E94BB40FA
:105AD00018161CF484ED92E0D4CF2FEF3FEF4FE780
