:100000000C9426050C94DC350C94B1350C94863593
:100010000C945B350C9430350C9405350C94DA3423
:100020000C94AF340C9457050C9457050C94570559
:100030000C9457050C9457050C9457050C945705D0
:100040000C9457050C9407360C9457050C945705DF
:100050000C9457050C9457050C9457050C94653473
:100060000C9457050C9471390C942C390C94570549
:100070000C9457050C9457050C9457050C94570590
:100080000C9454360C9457050C9457050C94570552
:100090000C94A7360C9474360C9457050C94E836DF
:1000A0000C9457050C9457050C9457050C94570560
:1000B0000C9457050C9457050C9457050C94570550
:1000C0000C9457050C9457050C9457050C94DD3887
:1000D0000C949C380C9457050C944D380C940C38A7
:1000E0000C9457050C9459060C94DA510C941B0A85
:1000F0000C946E060C9482060C9443060C946A06CB
:100100000C9478060C94F70E0C9475090C947406F4
:100110000C941A0A0C94490A0C94B0400C945D0695
:100120000C94CE400C948A060C9475050C94C70769
:100130000C94A2090C944B090C94C6070C945B090F
:100140000C9405410C947C060C94DC070C94550629
:100150000C944C090C946E090C9476050C9408418F
:100160000C943F3B0C94C0420C9464060C949F2268
:100170000C9494060C94E1050C94DC400C948606D7
:100180000C9461060C9491420C94084B0C949006CC
:100190000C943E064343442F534349002020002043
:1001A0005343414E4E455220560043485259534CFA
:1001B0004552204343442F534349002D2D2D2D2DCF
:1001C0002D2D2D2D2D2D2D2D2D2D2D2D2D2D2D008C
:1001D00020202020002020205343414E4E45522015
:1001E0005600202043485259534C45522043434423
:1001F0002F5343492020002D2D2D2D2D2D2D2D2D1C
:100200002D2D2D2D2D2D2D2D2D2D2D00202020207F
:100210003072706D002020302043202020202030BC
:100220002E306B5061002020306B6D2F6820202015
:1002300020203072706D002020202020302E3030A1
:10024000306B6D20202020202020200020302E30F8
:100250002F20302E3056202020202020202020202B
:10026000002020302F20203020432020202020304C
:100270002E306B5061002020306B6D2F68202020C5
:10028000203072706D20202030250020202020306A
:1002900072706D0020203020462020202020302E3B
:1002A00030707369002020306D706820202020207D
:1002B000203072706D002020202020302E30303011
:1002C0006D6920202020202020200020302E302F7B
:1002D00020302E30562020202020202020202000DA
:1002E0002020302F20203020462020202020302E9B
:1002F00030707369002020306D706820202020202D
:100300003072706D20202030250000002100240074
:1003100027002A002D0030003300010100000401F5
:1003200007010A0100002200250028002B002E00F2
:100330003100340002010000050108010B01050530
:100340000505070508080808020202020A0A08084B
:100350000404040401010101010101010303030379
:1003600003030303040707070C0C0C0C0C0C0C0C08
:100370000202020206060606060606060B0B0B0B19
:100380000B0B0B0B0102102020080810204010203E
:100390004080020102010804020101020408102049
:1003A0004080804020100804020180040201804047
:1003B00020100804020108040201010204081020B0
:1003C0004080010204081020408000000A0B02094E
:1003D0000C0D0E08070304010000000000000000DF
:1003E000000000000000000000000000000000000D
:1003F00000000000000012111000000000000000CA
:1004000000000000000000000000000000000000EC
:10041000F504379C37BC000037B53E80FA0002482F
:1004200037B500908A00C501FA00022AC503FA0018
:10043000022A37B500FF8A0027F717657C0C760182
:10044000B7F417EA7C0F27F717657C0D76427840E2
:10045000B6F217E57C0F27F737B00001B6F627F79D
:10046000FA00027A379CFA00026CFA00027A17FA54
:10047000028A17F5028AFA00026CFA00027A17FA69
:10048000028B17FC028A17F5028BFA00026CFA0045
:10049000027A17FA028A17F5028AFA00026CFA0049
:1004A000027A17FA028B17F5028BFA00026C37F505
:1004B000028A37B800003787FFA427F5C500FA0085
:1004C000026C3C012731028AB6EE27F717657C0CD7
:1004D0007601B7F417EA7C0F27F717657C0D764293
:1004E0007840B6F217E57C0F27F7274C373501E83F
:1004F000FA0002E6B50E7608B602FA000254B00021
:10050000FA00021EFA00026627F737AD370737AC4C
:100510003405F504379D37BD020055017804B20E4D
:10052000370B3717379CDC0237350014FA00033AD3
:10053000B000FA0002543550379C3717379D27F723
:1005400037350014F5FFFA0002C037300001B6F06D
:1005500027F7373501E2FA0002E634013717FA00CF
:1005600002C03540FA0002C07C02373801E6B6E22C
:10057000373501E9FA0002E634013717FA0002C004
:100580003540FA0002C0373501E7FA0002E63401CF
:100590003717FA0002C03540FA0002C0373501EFC4
:1005A000FA0002E63717FA0002C027F717657C0C3D
:1005B0007601B7F417EA7C0F37B50190FA00034AC9
:1005C00027F717657C0D76427840B6F217E57C0F69
:1005D00027F727FB370437043704770337EA7D30E2
:1005E00037B5090837EA7C1CFA000314B50C37E567
:1005F0007D123706B004373B010037FCF55A27F768
:1006000028807C1F29807C1A37053701B70A2A8089
:100610007C1FFFF628807C1F3706B004373B0100A3
:1006200037FCF5A527F7C500FA0002C03C013730BA
:100630000001B6EE27F737B00001B6F627F727F727
:10064000378000ACFA000198F810B702F820B758CC
:10065000B6EEF511FA000182FA00019817FA01B01E
:1006600017F501B0FA000182FA00019817FA01B1FA
:1006700017F501B1FA000182F500379C37BC020082
:10068000FA000198CA00C500FA0001823C01273136
:1006900001B0B6E837B50FA0FA0001A8F504379C01
:1006A00037BC8000F514FA000182B094F521FA00FD
:1006B0000182FA000200B088FA000198FA00018273
:1006C00027F717657C0C7601B7F417EA7C0F37B56E
:1006D0000190FA0001A827F717657C0D7642784053
:1006E000B6F217E57C0F27F737B00001B6F627F70B
:1006F000274C373B00E0F50F379E37BE8000F500F2
:10070000379F37BF07F6371527FA379DF504379C13
:1007100037BC800037B5014837EA7A0028807A2153
:1007200037B500CF37EA7A4437B5040537EA7A4857
:1007300037EA7A4C37B568F037EA7A4A37B570F05D
:1007400037EA7A4E37B5FF8837EA7A5437B57830CA
:1007500037EA7A5637B5F88137EA081437E50812D0
:1007600037B7000137EA081237B5000037EA081832
:1007700027290806FFFF2729080803FF27F5373533
:10078000082427AA7C0437380838B3F217257920C3
:10079000272808602000FA000264F522FA0001828E
:1007A0007A00010437B5408837EA7C007506176A7D
:1007B0007C0475FE176A7C057533176A7C1675F81C
:1007C000176A7C1575FE176A7C1737B5810837EAFA
:1007D0007C1837B5100037EA7C1A37B5000037EAC5
:1007E0007C1C7500176A7C1E37354242376A7D4192
:1007F00037350202376A7D433735C202376A7D4595
:100800003735C242376A7D4837B5010037EA7D2463
:1008100037B5020237EA7C1CFA0002DE27F728808F
:100820007C1F29807C1A37053701B70A2A807C1F74
:10083000FFF628807C1F3706B004373B010037FCE9
:10084000F5A527F7378000ACFA000198F810B70239
:10085000F820B758B6EEF511FA000182FA000198B7
:1008600017FA01B017F501B0FA000182FA000198F9
:1008700017FA01B117F501B1FA000182F500379CB2
:1008800037BC0200FA000198CA00C500FA000182D4
:100890003C01273101B0B6E837B50FA0FA0001A836
:1008A000F504379C37BC8000F514FA000182B0943F
:1008B000F521FA000182FA000200B088FA000198DE
:1008C000FA00018227F717657C0C7601B7F417EA66
:1008D0007C0F37B50190FA0001A827F717657C0D4A
:1008E00076427840B6F217E57C0F27F737B0000163
:1008F000B6F627F7274C373B00E0F50F379E37BE9B
:100900008000F500379F37BF07F6371527FA379D68
:10091000F504379C37BC800037B5014837EA7A00C8
:1009200028807A2137B500CF37EA7A4437B50404F6
:1009300037EA7A4837EA7A4C37B568F037EA7A4AC4
:1009400037B570F037EA7A4E37B5FF8837EA7A5410
:1009500037B5783037EA7A5637B5F88137EA081470
:1009600037E5081237B7000137EA081237B500003B
:1009700037EA081827290806FFFF2729080803FF78
:1009800027F53735082427AA7C0437380838B3F20E
:1009900017257920272808602000FA000264F52234
:1009A000FA0001827A00010437B5408837EA7C00FA
:1009B0007506176A7C0475FE176A7C057533176A1D
:1009C0007C1675F8176A7C1575FE176A7C1737B5A3
:1009D000810837EA7C1837B5100037EA7C1A37B53A
:1009E000000037EA7C1C7500176A7C1E37354242CE
:1009F000376A7D4137350202376A7D433735C20297
:100A0000376A7D453735C242376A7D4837B50100C0
:100A100037EA7D2437B5020237EA7C1CFA0002DE91
:100A200027F728807C1F29807C1A37053701B70AF1
:100A30002A807C1FFFF628807C1F3706B004373BD6
:100A4000010037FCF5A527F73F3BDA5111241FBE03
:100A5000CFEFD1E2DEBFCDBF00E00CBF13E0A0E0DE
:100A6000B2E0E8E5FFEA00E00BBF02C007900D929C
:100A7000A231B107D9F725E1A2E1B3E001C01D928F
:100A8000A331B207E1F715E0C5E2D5E000E006C00A
:100A900021970109802FFE010E949A56C432D10786
:100AA00080E00807A9F70E94953B0C949A570C9494
:100AB0000000F8949091DB0F8091DA0F981304C036
:100AC000789480E092E008957894E091DA0FEF5FF7
:100AD000F0E0E652F14F20819091D90E892F90E0FD
:100AE000982F8827820F911D0895089508952091C9
:100AF000F10F222309F447C0E22FE695E695E6952B
:100B0000F0E0ED5DFF4E808190E0277002C095958A
:100B100087952A95E2F780FD36C080911D108823C5
:100B2000A9F180910110823088F1E0910110E1502B
:100B300090E080E020E08E1740F4DC01A052B04F3E
:100B400051963C91230F0196F6CFF0E0E052F04F22
:100B5000818928130DC080E090910110891718F544
:100B6000E82FF0E0E052F04F918990838F5FF4CF4F
:100B7000E0914510F0914610309729F060E970E05F
:100B800090E080E0199510920110089580E0909116
:100B90000110891740F4E82FF0E0E052F04F9189FE
:100BA00090838F5FF4CF609101106093F00FE0911C
:100BB0004310F0914410309731F380EE9FE0199587
:100BC000E2CFAF92BF92CF92DF92EF92FF920F935C
:100BD0001F93CF93DF936C017B018B01040F151FD3
:100BE000EB015E01AE18BF08C017D10759F069913B
:100BF000D601ED91FC910190F081E02DC60119958F
:100C0000892B79F7C501DF91CF911F910F91FF904B
:100C1000EF90DF90CF90BF90AF900895282F30E0F5
:100C2000F901E653FC4F9491F901EC57FC4F4491C4
:100C3000225C3C4FF9012491222309F435C0992309
:100C400011F191509231F8F4E92FF0E08827E45D3A
:100C5000F94F8F4F0C949A565D0661063E06550675
:100C60005906430664066A066E06740678067C0614
:100C70008206860643068A069006940680918000C6
:100C80008F7780938000E22FF0E0EE0FFF1FEC5D86
:100C9000FC4FA591B4918FB7F894EC91611148C0C5
:100CA00040954E234C938FBF0895809180008F7D97
:100CB000E8CF80918000877FE4CF84B58F7784BDB3
:100CC000E2CF84B58F7DFBCF8091B0008F7780938A
:100CD000B000D9CF8091B0008F7DF9CF8091900086
:100CE0008F7780939000CFCF809190008F7DF9CF48
:100CF00080919000877FF5CF8091A0008F778093BF
:100D0000A000C1CF8091A0008F7DF9CF8091A0007D
:100D1000877FF5CF809120018F7780932001B3CF1B
:100D2000809120018F7DF9CF80912001877FF5CFC1
:100D30004E2BB8CFCF93DF9390E0FC01EC57FC4FE4
:100D40002491825C9C4FFC0184918823C9F090E03F
:100D5000880F991FFC01E65FFC4FA591B491FC013F
:100D6000EC5DFC4FC591D49161110DC09FB7F89413
:100D70008C91209582238C938881282328839FBF80
:100D8000DF91CF910895623051F49FB7F8943C9170
:100D9000822F809583238C93E8812E2BEFCF8FB702
:100DA000F894EC912E2B2C938FBFEACF863308F06A
:100DB000865320917B00982F9870277F922B9093D9
:100DC0007B0020914B0290E4299F900111248770B1
:100DD000822B80937C0080917A00806480937A00DB
:100DE00080917A0086FDFCCF809178009091790007
:100DF00008953FB7F89480916E0E90916F0EA09178
:100E0000700EB091710E26B5A89B05C02F3F19F04A
:100E10000196A11DB11D3FBFBA2FA92F982F88277A
:100E2000BC01CD01620F711D811D911D42E0660F55
:100E3000771F881F991F4A95D1F708958F929F9227
:100E4000AF92BF92CF92DF92EF92FF924B015C0183
:100E50000E94F9066B017C010E94F9066C197D095C
:100E60008E099F09683E734081059105A8F321E032
:100E7000821A9108A108B10888EEC80E83E0D81E36
:100E8000E11CF11C81149104A104B10429F7FF9025
:100E9000EF90DF90CF90BF90AF909F908F9008958C
:100EA0002FB7F89460916A0E70916B0E80916C0E62
:100EB00090916D0E2FBF08950E9450076093D50E3C
:100EC0007093D60E8093D70E9093D80EE1EDFEE08E
:100ED00090838183728363830895CF92DF92EF9230
:100EE000FF92582FFC0130E020E0261748F4419192
:100EF000D901A052B04F92964C932F5F3F4FF5CF40
:100F000020911E102223A9F0623098F02FEF260FB7
:100F1000FC0140E03191430F3E2F351B3217D0F3D7
:100F200030E0F901E052F04F42A3820F931FFC0121
:100F3000408310921210609313100E9450076B01AF
:100F40007C0180E090911510911111C081111CC09D
:100F50000E945007AB01BC014C195D096E097F0965
:100F600081E0483E53406105710560F7EACF811189
:100F70000BC08091C90080628093C90080E0FF901F
:100F8000EF90DF90CF90089582E0F9CF089510920E
:100F9000850010928400E1E8F0E080818560808324
:100FA000ED9886EC97E09093570280935602E0EE1E
:100FB000FFE015AA16AA0895649B05C010921510AB
:100FC000109216100895109295001092940080913E
:100FD000910085608093910081E08093151080914D
:100FE000011081110C94770508952091460E260F6B
:100FF0003327331F21323105ECF420916D10FC01B1
:1010000090E080E0243069F082E00895A091460EDF
:101010002191AC014A5D514FA40FB52FB11D2C9306
:101020000196861798F38091460E680F6093460EDE
:1010300080E0089581E0089510926D1081E0809322
:101040006C101092471061E084E10E940E0661E08E
:1010500085E10E940E06E9EBF0E080818E7F8083BF
:1010600080818D7F808388E48093B80085E48093BD
:10107000BC000895CF93DF9391E09093250E8823D1
:10108000B9F0C091B800D091BA008091BC008A7BC1
:101090008093BC0060E084E10E940E0660E085E180
:1010A0000E940E060E941C08D093BA00C093B8009C
:1010B000DF91CF9108958F929F92AF92BF92CF927E
:1010C000DF92EF92FF920F931F93CF93DF93D09114
:1010D0009610D13208F0D7C0182FC09195100E94F9
:1010E000F9066B017C0180916D1081116BC082E06B
:1010F00080936D1010936C108FEF80936B10109293
:101100006A10D0936910A5E7B0E1E9E4F0E180E06E
:10111000D81391C01092481080914810CC0FC82B62
:10112000C093481080914710813009F088C0109218
:1011300047100E94F9066B017C0180914810809352
:10114000BB0080916F1090917010A0917110B091C0
:101150007210892B8A2B8B2BA1F00E94F90600912B
:101160006F101091701020917110309172106C19E5
:101170007D098E099F09061717072807390708F404
:1011800042C08091BC0083FDD8CF85EC8093BC0029
:101190000E94F9066B017C0180916D10823009F488
:1011A00050C080916B108F3F09F46FC080916B101D
:1011B000803209F46CC080916B10803309F469C0EF
:1011C00084E026C080916F1090917010A0917110F2
:1011D000B0917210892B8A2B8B2B09F484CF0E943B
:1011E000F90680906F1090907010A0907110B090E0
:1011F00072106C197D098E099F0986169706A8063C
:10120000B90608F070CF80916E100E943A0885E010
:10121000109274101092961010927310DF91CF916B
:101220001F910F91FF90EF90DF90CF90BF90AF9004
:101230009F908F9008959D9191938F5F69CF85EED8
:10124000A5CF80916F1090917010A0917110B09106
:101250007210892B8A2B8B2B09F49ECF0E94F906E2
:1012600000916F10109170102091711030917210D8
:101270006C197D098E099F0906171707280739077A
:1012800008F08ACFC0CF81E0C3CF80E0C1CF82E039
:10129000BFCF83E0BDCF0895E091D00E8091CF0EF7
:1012A000E81730F4F0E0E555F14F808190E00895C3
:1012B0008FEF9FEF08959091D00E8091CF0E2FEF7A
:1012C0003FEF981748F4E92FF0E0E555F14F208102
:1012D00030E09F5F9093D00EC90108958091CF0EAA
:1012E0009091D00E891B990B0895CF92DF92EF92C7
:1012F000FF920F931F93CF93DF937C01CB018A0161
:1013000020917310222389F0EB016B01C40ED51ECE
:10131000CC15DD0569F06991D701ED91FC91019043
:10132000F081E02DC7011995F3CF642F0E94F507D6
:10133000C801DF91CF911F910F91FF90EF90DF9047
:10134000CF900895CF93DF931F92CDB7DEB7698317
:10135000209173102223F9F020919610203258F03A
:1013600021E030E0FC013383228390E080E00F90A5
:10137000DF91CF91089580917410E82FF0E0EB5841
:10138000FF4E998190838F5F8093741080939610A5
:1013900081E090E0ECCF61E0CE0101960E94F5077C
:1013A000F7CF682F87E990E10C94A2091092D00E34
:1013B0001092CF0E0E941C0885E795E09093CC0E0A
:1013C0008093CB0E86E795E09093CE0E8093CD0E62
:1013D0008CE08093B8008091B51091E090937310E9
:1013E0008093951010927410109296108091BC10FA
:1013F0009091BD10029721F490E080E00E94D10905
:1014000090E080E00E94D10981E00C945B08FC012F
:10141000248131E030937310209395101092741052
:10142000109296108385862B90E00E94D10981E06E
:101430000C945B08089590E080E00895CF93C82F46
:1014400060E00E940E06C43271F0C532B9F00E940D
:1014500050076093A30E7093A40E8093A50E9093F3
:10146000A60ECF9108950E94500760939F0E70932F
:10147000A00E8093A10E9093A20EF3CF0E9450076E
:1014800060939B0E70939C0E80939D0E90939E0E86
:10149000E8CF2091A013222381F0282FABEAB3E1FB
:1014A000FC018E2F821B861718F481918D93F9CF42
:1014B00070E07093CC136093CB1308954F925F92BA
:1014C0006F927F928F929F92AF92BF92CF92DF9254
:1014D000EF92FF92CF93DF931092210E1092220E83
:1014E0001092230E1092240E10921D0E10921E0EBA
:1014F00010921F0E1092200EC0E8D0E087E30E94E9
:10150000D606092E000CAA0BBB0B4091210E509160
:10151000220E6091230E7091240E4C015D01840E09
:10152000951EA61EB71E8092210E9092220EA092AA
:10153000230EB092240E219709F7C0E8D0E088E38B
:101540000E94D6066C01990FEE08FF0880911D0ECF
:1015500090911E0EA0911F0EB091200E8C0D9D1D1E
:10156000AE1DBF1D80931D0E90931E0EA0931F0EE7
:10157000B093200E219719F727E0B694A79497947B
:1015800087942A95D1F78092210E9092220EA092F4
:10159000230EB092240E6C017D0137E0F694E7949F
:1015A000D794C7943A95D1F7C0921D0ED0921E0ED3
:1015B000E0921F0EF092200E6091490270914A0253
:1015C00090E080E00E94B15320E030E048EC52E42B
:1015D0000E94E8552B013C01C501B4010E94B153A2
:1015E000A30192010E94125420E030EC4FE754E432
:1015F0000E94E85520E030E048EC52E40E9412548A
:101600000E946156EB01C701B6010E94B153A301CC
:1016100092010E94125420E030EC4FE754E40E9403
:10162000E85520E030E048EC52E40E9412540E9459
:101630006156D093930EC093940E7093950E609361
:10164000960EDF91CF91FF90EF90DF90CF90BF90FB
:10165000AF909F908F907F906F905F904F90089584
:101660004F925F926F927F928F929F92AF92BF92B2
:10167000CF92DF92EF92FF92CF93DF931092190AED
:1016800010921A0A10921B0A10921C0AC0E8D0E0AD
:1016900086E30E94D6066C01990FEE08FF08809140
:1016A000190A90911A0AA0911B0AB0911C0A8C0D7C
:1016B0009D1DAE1DBF1D8093190A90931A0AA09319
:1016C0001B0AB0931C0A219719F76C017D0187E072
:1016D000F694E794D794C7948A95D1F7C092190AE3
:1016E000D0921A0AE0921B0AF0921C0A60914502FD
:1016F0007091460290E080E00E94B1534B015C0182
:101700006091490270914A0290E080E00E94B153DA
:1017100020E030E048EC52E40E94E8552B013C0107
:10172000C701B6010E94B1539B01AC01C301B201D4
:101730000E94125420E030EC4FE754E40E94E85538
:101740006B017C01609147027091480290E080E05B
:101750000E94B153A50194010E947C559B01AC01EC
:10176000C701B6010E941254A50194010E94E855D8
:1017700020E030E048EC52E40E9412540E9461568E
:10178000683522E07207A8F41092970E1092980E16
:101790001092180ADF91CF91FF90EF90DF90CF90D9
:1017A000BF90AF909F908F907F906F905F904F9081
:1017B00008957093970E6093980E81E08093180AB5
:1017C000E9CFFC012191241741F09F01281B390B1F
:1017D00026173707B8F380E0089581E00895F8945C
:1017E0008091DA0F8093DB0F78940895F8948091BC
:1017F000DB0F9091DA0F7894891B08959091880EF1
:1018000021E0290F30E0F8944091890E7894421736
:101810001306C9F3285E364FF90180839F5F9093CA
:10182000880E809131018062809331010895F8948F
:101830009091DB0F8091DA0F981304C0789480E0C8
:1018400092E0089578948091DA0FE1E0E80FF0E0FB
:101850008F5F8093DA0FE652F14F20819091D90E7D
:10186000892F90E0982F8827820F911D0895F89472
:101870001092DB0F1092DA0F1092880E1092890EE0
:1018800078949093350180933401E1E3F1E0808115
:1018900088698083E2E3F1E0808186608083089537
:1018A000F894809117098093160978940895F89414
:1018B000809115098093140978940895F894809183
:1018C0001409909115097894891B0895909116092F
:1018D00021E0290F30E0F8944091170978944217DD
:1018E0001306C9F32C5E374FF90180839F5F9093F5
:1018F00016098091D10080628093D10008959C01E7
:10190000F8949091140980911509981304C0789463
:1019100080E092E00895789490911509E92FF0E025
:101920003196E20FF31FFF27EC5EF84F2081909174
:101930001307892F90E0982F8827820F911D089513
:10194000F8949091140980911509981304C0789423
:1019500080E092E00895789480911509E1E0E80F25
:10196000F0E08F5F80931509EC5EF84F2081909135
:101970001307892F90E0982F8827820F911D0895D3
:10198000F8941092140910921509109216091092E9
:10199000170978949093D5008093D400E1EDF0E09E
:1019A000808188698083E2EDF0E0808186608083B9
:1019B0000895F89480918D0E90918E0E20918F0E47
:1019C0003091900E7894821B930B93700895F89445
:1019D00020918D0E30918E0E80918F0E9091900EF1
:1019E0002817390721F4789480E092E008957894DC
:1019F00080918F0E9091900E019693709093900E1F
:101A000080938F0E8D5E9C4FFC012081909112037C
:101A1000892F90E0982F8827820F911D08952F928B
:101A20003F924F925F926F927F928F929F92AF926E
:101A3000BF92CF92DF92EF92FF920F931F93CF93BB
:101A4000DF936B017C014A01590133243394A114C3
:101A5000B10409F41AC1C091B910D091BA10CE01E5
:101A600001978C219D21C81BD90BC50121E2A2162B
:101A7000B10410F080E290E08C179D0708F4EC01AF
:101A80008091BB10A701960104C0569547953795E4
:101A900027958A95D2F72090B510222A309273109C
:101AA0002092951010927410109296108091BC1094
:101AB0009091BD10029741F499278F2D7E2D6D2DA9
:101AC00087E990E10E94A2096C2D87E990E10E94CC
:101AD000A20981E00E945B08082F8111D7C00E94F3
:101AE000F9062B013C0180916D10811166C01C2FFD
:101AF00030926D1030926C103FEF30936B1010925B
:101B00006A108C2F81508093691030924810809118
:101B10004810220C282A20924810809147108130CA
:101B200009F084C0109247100E94F9062B013C0175
:101B3000809148108093BB0080916F10909170103D
:101B4000A0917110B0917210892B8A2B8B2BA1F070
:101B50000E94F90620916F10309170104091711021
:101B6000509172106419750986099709261737076D
:101B70004807590708F442C08091BC0083FDD8CFC4
:101B800045EC4093BC000E94F9062B013C0180917A
:101B90006D10813009F44EC080916A10811710F4E5
:101BA00010916A10E9E4F0E1ABEABEE080E0811751
:101BB00051F191919D938F5FFACF80916F10909129
:101BC0007010A0917110B0917210892B8A2B8B2B01
:101BD00009F489CF0E94F90620916F10309170109E
:101BE0004091711050917210641975098609970916
:101BF000261737074807590708F075CF80916E10F0
:101C00000E943A0810E01092D00E1093CF0E602E72
:101C1000712C6C167D0680F587E990E10E945B09C6
:101C2000F401E60DF71D80830F5FF1CF55EE509361
:101C3000BC00A9CF80916F1090917010A09171108D
:101C4000B0917210892B8A2B8B2B09F4A0CF0E94A4
:101C5000F90620916F1030917010409171105091E1
:101C600072106419750986099709261737074807FE
:101C7000590708F08CCFC2CFCC0EDD1EE11CF11C41
:101C80008C0E9D1EAC1ABD0AE2CE00E0802FDF91C3
:101C9000CF911F910F91FF90EF90DF90CF90BF9069
:101CA000AF909F908F907F906F905F904F903F90FC
:101CB0002F900895CF92DF92EF92FF920F931F9390
:101CC000CF93DF931F92CDB7DEB76B017C012FEF6F
:101CD000C21AD20AE20AF20A0091BE101091BF1095
:101CE0002091C0103091C1100C151D052E053F0527
:101CF000B0F021E030E0AE014F5F5F4F0E940F0D6A
:101D000090E0009771F4898190E00F90DF91CF917E
:101D10001F910F91FF90EF90DF90CF90089589E091
:101D2000EFCF919581959109F0CF0F931F93CF93AA
:101D30008C01C62F0E94070A6C2F6460C8010E94A4
:101D4000070A6C2F6B7FC8010E94070A83EC90E0A2
:101D50000197F1F7CF911F910F9108950F931F9362
:101D6000CF93DF938C01D62FC42F607F642B0E940A
:101D7000950E80E1D89FB00111246C2BC801DF9132
:101D8000CF911F910F910C94950ECF93DF9300D0BC
:101D900000D01F921F92CDB7DEB798E0EEE6F2E0DA
:101DA000DE01119601900D929A95E1F79091B21093
:101DB000961710F46FEF690F262F30E0220F331FB4
:101DC00041E050E04C0F5D1F240F351FF901608189
:101DD000680F606840E089EA90E128960FB6F894B1
:101DE000DEBF0FBECDBFDF91CF910C94AE0E41E0B0
:101DF0000E94AE0E81E090E008950F931F93CF9361
:101E0000DF938B0198E0899FB0011124606440E06A
:101E100089EA90E10E94AE0EE801085F1F4F6991C8
:101E200089EA90E10E94F70EC017D107C1F7DF9150
:101E3000CF911F910F9108950F931F93CF93DF932D
:101E40008C01D0E0C0E0F801EC0FFD1F6491662327
:101E500039F041E089EA90E10E94AE0E2196F3CF7D
:101E6000CE01DF91CF911F910F91089540E061E085
:101E700089EA90E10E94AE0E8BE39FE10197F1F7B2
:101E800008950E94360F8091DD0F843171F58091A5
:101E9000DC0F843009F042C060E080E00E94C50E93
:101EA00085EF92E00E941C0F61E080E00E94C50E69
:101EB00080EE92E00E941C0F62E080E00E94C50E5E
:101EC0008BEC92E00E941C0F63E080E00E94C50E44
:101ED00086EB92E00E941C0F61E087E00E94C50E35
:101EE00065E089EA90E10C94F70E8031B9F48091B5
:101EF000DC0F823099F460E080E00E94C50E85EA34
:101F000092E00E941C0F61E080E00E94C50E84E90F
:101F100092E00E941C0F61E083E0E0CF60E080E08F
:101F20000E94C50E8BE892E00C941C0F0E94360FA5
:101F30008091DD0F843171F58091DC0F843009F0E0
:101F400042C060E080E00E94C50E86E792E00E94F9
:101F50001C0F61E080E00E94C50E81E692E00E94C5
:101F60001C0F62E080E00E94C50E8CE492E00E94AB
:101F70001C0F63E080E00E94C50E87E392E00E94A0
:101F80001C0F61E087E00E94C50E65E089EA90E1E0
:101F90000C94F70E8031B9F48091DC0F823099F403
:101FA00060E080E00E94C50E86E292E00E941C0F75
:101FB00061E080E00E94C50E85E192E00E941C0F66
:101FC00061E083E0E0CF60E080E00E94C50E8CE03D
:101FD00092E00C941C0FFC0101900020E9F731976E
:101FE000AF01481B590BBC0189EA90E10C94E10553
:101FF0008F929F92AF92BF920F931F93CF93DF93D5
:10200000CDB7DEB7A1970FB6F894DEBF0FBECDBF38
:1020100019A2423008F44AE08E010F5D1F4F842E52
:10202000912CB12CA12CA50194010E944A55E62FB8
:10203000B901CA01EA30F4F4E05DD801EE938D01F4
:10204000232B242B252B79F790E080E0109719F0B3
:10205000CD010E94EB0FA1960FB6F894DEBF0FBE24
:10206000CDBFDF91CF911F910F91BF90AF909F9007
:102070008F900895E95CE1CFBC0190E080E04AE0F8
:102080000C94F80F0C94EB0F4F925F926F927F922B
:102090008F929F92AF92BF92CF92DF92EF92FF9278
:1020A0000F931F93CF936B017C01B42EAC019B0166
:1020B0000E949556882399F08DEE92E0CF911F9162
:1020C0000F91FF90EF90DF90CF90BF90AF909F90D7
:1020D0008F907F906F905F904F900C94EB0F260144
:1020E0003701E89477F82FEF3FEF4FE75FE7C30141
:1020F000B2010E94955681110DC02FEF3FEF4FE7BF
:102100005FE7C301B2010E94AC5318161CF481EFC3
:1021100092E0D4CF2FEF3FEF4FE75FE4C701B60166
:102120000E94905618161CF485EF92E0C7CF2FEF4F
:102130003FEF4FE75FECC701B6010E94AC5387FD4C
:10214000F3CF20E030E0A901C701B6010E94AC53F3
:1021500010E000E087FF0CC041E06DE289EA90E109
:102160000E94AE0EF7FAF094F7F8F09401E010E058
:10217000CB2DA12C60E070E080E09FE3AB1440F435
:1021800020E030E040E251E40E94E855A394F6CF0D
:10219000A70196010E947C552B013C010E946156CB
:1021A0006B017C014AE00E94F80F080F191FBB2049
:1021B000B1F1C701B6010E94B1539B01AC01C3014B
:1021C000B2010E947B554B015C0141E06EE289EA5D
:1021D00090E10E94AE0E0F5F1F4FC15000F120E052
:1021E00030E040E251E4C501B4010E9412542B01D9
:1021F0003C010E9461564B01CB010E943C10080F2C
:10220000191FB40190E080E00E94B1539B01AC0122
:10221000C301B2010E947B554B015C01DECFC801B6
:10222000CF911F910F91FF90EF90DF90CF90BF90D3
:10223000AF909F908F907F906F905F904F90089598
:102240008F929F92AF92BF92EF92FF920F931F9344
:10225000CF93DF93CDB7DEB72C970FB6F894DEBFE0
:102260000FBECDBF81E080934D02F090DC0FE09077
:10227000DD0F80919A0E1092AC101092AB108093EB
:10228000AD108E818093AE108F818093AF108885C2
:102290008093B010E092B110F092B2101092B3108F
:1022A00018E01093B4101092D00E1092CF0E10922E
:1022B0007410109296100E941C0885E795E0909388
:1022C000CC0E8093CB0E86E795E09093CE0E809354
:1022D000CD0E1092AE108091B210823010F010939B
:1022E000AE109091B310992339F0813029F4809188
:1022F000AE1084608093AE1062E370E080E090E006
:102300000E941E076091B41089EA90E10E94070ABA
:1023100068EE73E080E090E00E941E0760E389EAC7
:1023200090E10E94950E0BE416E4C8010197F1F7C5
:1023300060E389EA90E10E94950EC8010197F1F7E8
:1023400060E389EA90E10E94950E83E592E00197AF
:10235000F1F760E289EA90E10E94950E6091AE107B
:10236000606240E089EA90E10E94AE0E84E08093D2
:10237000AF1040E06CE089EA90E10E94AE0E0E944E
:10238000360F82E08093B01040E066E089EA90E189
:102390000E94AE0E40E062E089EA90E10E94AE0E3B
:1023A0000BE31FE1C8010197F1F788E08093B410B7
:1023B00060E089EA90E10E94070A0E94360F40E03F
:1023C00062E089EA90E10E94AE0EC8010197F1F740
:1023D0006091820E7091830E76276727762790E0B2
:1023E00080E00E94B15320E030E048EC52E40E94CB
:1023F000E8554B015C0184E1E81257C084E0F81213
:102400006FC087EF91E00E941C0F61E080E00E94A6
:10241000C50E82EE91E00E941C0F62E080E00E94F7
:10242000C50E85ED91E00E941C0F42E050E0C50111
:10243000B4010E94441080ED91E00E941C0F63E003
:1024400080E00E94C50E8BEB91E00E941C0F68E2B9
:1024500072E080E00E94FD0E60E272E081E00E9486
:10246000FD0E68E172E082E00E94FD0E60E172E024
:1024700083E00E94FD0E68E072E084E00E94FD0EA1
:1024800060E072E085E02C960FB6F894DEBF0FBED8
:10249000CDBFDF91CF911F910F91FF90EF90BF9033
:1024A000AF909F908F900C94FD0E80E1E81218C0C1
:1024B00082E0F81215C08AEA91E00E941C0F61E0E8
:1024C00080E00E94C50E8FE991E00E941C0F42E05F
:1024D00050E0C501B4010E9444108CE991E0B5CFF1
:1024E00084E991E0B2CFCF92DF92EF92FF9240E089
:1024F00054E264EF75E44093171050931810609302
:10250000191070931A1080931B108AE080931C108E
:1025100081E080931D1080931E101092F00F809325
:10252000151080931610F89410920110109212104A
:10253000109213101092141020E030E040E851E4A3
:1025400060911710709118108091191090911A10C5
:102550000E9412549B01AC0160E074E284E79BE4AA
:102560000E94E85520E030E040E85FE30E947B55A0
:102570000E9461567F707093CD006093CC00809173
:10258000C90088698093C9008091CA0086608093E1
:10259000CA00789483E090E09093221080932110F9
:1025A000F894109290001092910010929500109261
:1025B0009400809121109091221090939900809323
:1025C00098008091910088608093910080917100C3
:1025D0008260809371007894E3E2F0E180E2DF01B1
:1025E0001D928A95E9F780911B1062E0882309F417
:1025F0003DC082E00E949A068CED97E090935502D0
:102600008093540280916A008C7F816080936A007D
:10261000EC9A87E090E09093201080931F10F8943C
:102620001092800010928100109285001092840018
:10263000259A8091800080648093800080911F1093
:1026400090912010909389008093880080916F0072
:102650008D7F80936F0080918100896080938100DD
:102660007894FF90EF90DF90CF90089583E00E94E0
:102670009A0687EC97E090935702809356028091D8
:102680006A00837F886080936A00ED9A209117101A
:10269000309118104091191050911A1060E070E0BC
:1026A00080E89FE30E94E85520E034E244E75BE4E1
:1026B0000E9412546B017C0160911C1070E090E04C
:1026C00080E00E94B35320E030E040E251E40E94F9
:1026D0007C559B01AC01C701B6010E94125420E059
:1026E00030E040E85AE30E94125420E030E040E835
:1026F0005FE30E947B550E946156709320106093A7
:102700001F10F894109280001092810010928500A2
:1027100010928400259880911F1090912010909322
:102720008900809388008091810088608093810077
:1027300080916F00826080936F0092CF2F923F92C2
:102740004F925F926F927F928F929F92AF92BF92C1
:10275000CF92DF92EF92FF920F931F93CF93DF936D
:10276000CDB7DEB70DB71EB79091DF0F992349F1B2
:102770002DB63EB62DB73EB7241B31090FB6F894DF
:102780003EBF0FBE2DBFEDB7FEB731967F0144238C
:1027900011F40C94D81F262FDF01FB019E2F921BF2
:1027A000941718F491919D93F9CF90915302913021
:1027B00001F1923009F4BEC50FB6F8943EBE0FBECB
:1027C0002DBE0FB6F8941EBF0FBE0DBFDF91CF9187
:1027D0001F910F91FF90EF90DF90CF90BF90AF903F
:1027E0009F908F907F906F905F904F903F902F9031
:1027F0000895813009F7F70180818C3809F403C10D
:1028000008F041C0843209F49CC08234A9F64430F7
:1028100098F2618170E090E080E00E94B35326E678
:1028200036E646E25FE30E9412546B017C0120E031
:1028300030E0A9010E94905620E030E040E05FE3E4
:1028400087FDC5C0C701B6010E947C550E945A563B
:10285000F62E8091DD0F843109F0AECF8091DC0F30
:10286000843009F0A9CFF9E0FF1508F4B5C060E0A5
:1028700080E10E94C50E8CEF92E00E9442108F2DE5
:102880000E94593A99CF843D09F4DFC2843E09F48D
:10289000ABC38E3C09F090CF463008F48DCF6181F8
:1028A0007281838194810E94A2562091DE0F2111B2
:1028B00011C20E94B15320E030E040E05EE30E948C
:1028C00012546B017C0120E030E0A9010E94905677
:1028D00020E030E040E05FE387FD11C2C701B601B0
:1028E0000E947C550E945A560E94B35320E030E06B
:1028F0004AE754E40E94E8556B017C018091DD0FAA
:10290000843109F059CF8091DC0F843009F054CF25
:1029100020E030E040E251E4C701B6010E94AC5330
:1029200087FFF2C163E080E00E94C50E89EF92E06C
:102930000E94421043E050E0C701B6010E944410DB
:102940003BCF443008F438CF8091DE0F811119C09D
:10295000F1808091DD0F8431D1F48091DC0F8430DF
:1029600009F02ACFF9E0FF15D8F060E080E00E947E
:10297000C50E8CEF92E00E9442108F2D0E94593AB2
:102980001BCF813011F4F280E4CFF12CE2CF803103
:1029900009F012CF8091DC0F823009F00DCFE2CF29
:1029A00086EF8F0D60E08A3558F480E00E94C50EF6
:1029B0008DEF92E00E9442108F2D0E94593AFCCE7A
:1029C00080E00E94C50E8F2D0E94593AF5CEC701B6
:1029D000B6010E947B553ACF86EF8F0D60E08A35B5
:1029E00058F480E10E94C50E8DEF92E00E944210E3
:1029F0008F2D0E94593AE0CE80E10E94C50E8F2DA6
:102A00000E94593AD9CE443008F4D6CE8091DE0FD8
:102A100081117DC0618170E090E080E00E94B3533D
:102A200026E636E646EE5FE30E94125426E636E6D8
:102A300046E453E40E947B552B013C0120E030E04A
:102A4000A9010E94905620E030E040E05FE387FD5E
:102A500054C0C301B2010E947C550E945A566B01BA
:102A6000F701628170E090E080E00E94B35326E6B7
:102A700036E646EE5FE30E94125426E636E646E46A
:102A800053E40E947B552B013C0120E030E0A9017A
:102A90000E94905620E030E040E05FE387FD32C0C6
:102AA000C301B2010E947C550E945A567B0180915D
:102AB000DD0F843109F0B1C08091DC0F843009F062
:102AC0007BCE9DE9C9169FEFD9069CF561E080E0B9
:102AD0000E94C50E80E093E00E9442102DE9E216AC
:102AE0002FEFF2060CF052C061E084E00E94C50EA8
:102AF00080E093E00E9442105FCEC301B2010E94C9
:102B00007B55ABCFC301B2010E947B55CDCF813045
:102B100059F46181262F2058330B69016281862F79
:102B20008058990B7C01C3CFF12CE12CD12CC12C06
:102B3000BECFC6018D599F4F61E08A35910510F1D6
:102B400061E0E7EFCE16EFEFDE06B0F4FAE0CF1665
:102B5000D10460F461E080E00E94C50E8CEF92E049
:102B60000E944210C6010E94603AB8CFC6010A977F
:102B700061E08A35910530F480E00E94C50E8DEF4A
:102B800092E0EECF80E00E94C50EECCFC7018D59D8
:102B90009F4F8A35910540F461E084E00E94C50EA4
:102BA000C7010E94603A08CE37EFE3163FEFF30605
:102BB00060F061E084E00E94C50E8DEF92E00E941B
:102BC0004210C7010E94603AF7CD8AE0E816F1048E
:102BD00060F461E084E00E94C50E8CEF92E00E94F8
:102BE0004210C7010E94603AE7CDC7010A9761E031
:102BF0008A35910558F484E00E94C50E8DEF92E06D
:102C00000E944210C7010E94603AD6CD84E00E9423
:102C1000C50EC7010E94603ACFCD803109F0CCCDFE
:102C20008091DC0F823009F0C7CD9DE9C9169FEF76
:102C3000D9064CF461E080E00E94C50E80E093E08C
:102C40000E944210B9CDC6018D599F4F8A3591051A
:102C500040F461E080E00E94C50EC6010E94603A27
:102C6000ABCDE7EFCE16EFEFDE0660F061E080E07F
:102C70000E94C50E8DEF92E00E944210C6010E9494
:102C8000603A9ACDFAE0CF16D10460F461E080E0BA
:102C90000E94C50E8CEF92E00E944210C6010E9475
:102CA000603A8ACDC6010A9761E08A35910558F4E9
:102CB00080E00E94C50E8DEF92E00E944210C60196
:102CC0000E94603A79CD80E00E94C50EC6010E9444
:102CD000603A72CDC12CD12C7601213009F00ECE94
:102CE0000E94B15322E03BE249EC54E40E941254AA
:102CF00020E030E04AEF55E40E94E855E2CDC701FC
:102D0000B6010E947B55EECD20E030E040E251E478
:102D1000C701B6010E94905687FD19C020E030E03F
:102D200048EC52E4C701B6010E94AC5387FF0FC0C4
:102D300063E080E00E94C50E8AEF92E00E9442109C
:102D400043E050E0C701B6010E94441035CD20E0B9
:102D500030E048EC52E4C701B6010E94905687FD6E
:102D600019C020E030E04AE754E4C701B6010E94F0
:102D7000AC5387FF0FC063E080E00E94C50E8BEF6D
:102D800092E00E94421043E050E0C701B6010E9469
:102D9000441012CD20E030E04AE754E4C701B60108
:102DA0000E94905687FD19C020E030E44CE156E4C3
:102DB000C701B6010E94AC5387FF0FC063E080E0FB
:102DC0000E94C50E8CEF92E00E94421043E050E05A
:102DD000C701B6010E944410EFCC20E030E44CE182
:102DE00056E4C701B6010E94905687FD19C020E045
:102DF00030E543EC57E4C701B6010E94AC5387FFAE
:102E00000FC063E080E00E94C50E8DEF92E00E944B
:102E1000421043E050E0C701B6010E944410CCCC00
:102E200020E030E543EC57E4C701B6010E9490561C
:102E300087FDC2CC63E080E00E94C50E43E050E015
:102E4000C701B6010E944410B7CC443008F4B4CC9A
:102E5000618170E090E080E00E94B35320E030E0B8
:102E600040E251E40E94125420E030E040E85DE38B
:102E70000E9412542B013C0120E030E0A9010E9485
:102E8000905620E030E040E05FE387FD7FC0C30163
:102E9000B2010E947C550E945A560E94B3534B01C6
:102EA0005C01F701628170E090E080E00E94B35322
:102EB00020E030E040E251E40E94125420E030E093
:102EC00040E85DE30E9412546B017C0120E030E099
:102ED000A9010E94905620E030E040E05FE387FDCA
:102EE0005AC0C701B6010E947C550E945A560E94E2
:102EF000B3532B013C018091DD0F843109F05CCC90
:102F00008091DC0F843009F057CC20E030E040E2C3
:102F100051E4C501B4010E94E8556B017C0120E039
:102F200030E040E251E40E94AC5387FF39C062E0D8
:102F300080E00E94C50E8DEF92E00E94421041E0B9
:102F400050E0C701B6010E94441020E030E040E2AA
:102F500051E4C301B2010E94E8556B017C0120E0FD
:102F600030E040E251E40E94AC5387FF28C062E0A9
:102F700085E00E94C50E8DEF92E00E94421041E074
:102F800050E0C701B6010E94441016CCC301B20143
:102F90000E947B5580CFC701B6010E947B55A5CF0B
:102FA00020E030E040E251E4C701B6010E949056B3
:102FB00087FDCBCF62E080E00E94C50EC0CF20E04D
:102FC00030E040E251E4C701B6010E94905687FD0F
:102FD000F3CB62E085E00E94C50E41E050E0C701FE
:102FE000B6010E944410E8CB443008F4E5CB809150
:102FF000DE0F811168C0C180F0E2CF9E6001112414
:10300000F701628170E090E080E00E94B35320E01D
:1030100030E040E251E40E94125425EB32EC44E7E8
:103020005DE30E9412542B013C0120E030E0A90135
:103030000E94905620E030E040E05FE387FD61C0F1
:10304000C301B2010E947C550E945A560E94B3539C
:1030500020E030E040E251E40E94E8552B013C01C1
:103060008091DD0F843109F0A6C08091DC0F84309F
:1030700009F026C1FAE0CF16D10408F047C060E09D
:1030800088E00E94C50E8BEF92E00E944210C601BC
:103090000E943C1020E030E040E251E4C301B20164
:1030A0000E94AC5387FF4FC061E08DE00E94C50EC7
:1030B0008DEF92E00E94421041E050E0C301B20166
:1030C0000E94441079CB412C512C3201D12CC12CBF
:1030D000813031F6C180F0E2CF9E60011124F7010A
:1030E000628170E090E080E00E94B35320E030E025
:1030F00040E251E40E94125429ED31EA4CED50E4D3
:103100008ACFC301B2010E947B559ECFC6010A97A8
:103110008A35910538F460E088E00E94C50E8CEF96
:1031200092E0B3CFC6018456910960E084389340A1
:1031300030F488E00E94C50E8DEF92E0A6CF88E0C3
:103140000E94C50EA4CF20E030E040E251E4C3016C
:10315000B2010E94905687FD15C020E030E048EC97
:1031600052E4C301B2010E94AC5387FF0BC061E07F
:103170008DE00E94C50E41E050E0C301B2010E9403
:1031800044101ACB20E030E048EC52E4C301B20115
:103190000E94905687FD10CB61E08DE00E94C50E25
:1031A0008DEF92E00E94421050E040E0C301B20176
:1031B0000E94441001CB803109F082C08091DC0F65
:1031C000823009F07DC03AE0C316D10420F560E0FA
:1031D00089E00E94C50E8BEF92E00E944210C6016A
:1031E0000E943C1020E030E040E251E4C301B20113
:1031F0000E94AC5387FF2CC061E089E00E94C50E9D
:103200008DEF92E00E94421041E050E0C301B20114
:103210000E944410D1CAC6010A978A35910538F434
:1032200060E089E00E94C50E8CEF92E0D6CFC60127
:103230008456910960E08438934030F489E00E941C
:10324000C50E8DEF92E0C9CF89E00E94C50EC7CFB1
:1032500020E030E040E251E4C301B2010E94905608
:1032600087FD15C020E030E048EC52E4C301B20114
:103270000E94AC5387FF0BC061E089E00E94C50E3D
:1032800041E050E0C301B2010E94441095CA20E021
:1032900030E048EC52E4C301B2010E94905687FD31
:1032A0008BCA61E089E00E94C50E8DEF92E00E941A
:1032B000421050E040E0C301B2010E9444107CCAB9
:1032C000FAE0CF16D10460F460E081E00E94C50E00
:1032D0008BEF92E00E944210C6010E943C106CCA23
:1032E000C6010A978A35910560F460E081E00E948A
:1032F000C50E8CEF92E00E944210C6010E943C1065
:103300005BCAC6018456910960E08438934058F442
:1033100081E00E94C50E8DEF92E00E944210C6012E
:103320000E943C1049CA81E00E94C50EC6010E945D
:103330003C1042CA823009F03FCAF70180818431D3
:1033400009F03ACA433008F437CA81818B3009F456
:10335000ADC270F5853009F451C18A3009F436C226
:10336000813009F029CA8091DE0F811188C0E28086
:10337000F12C8091DD0F843109F0EBC08091DC0FDE
:10338000843009F019CAFDE9EF16FFEFFF060CF4CF
:10339000ABCBC7018D599F4F8A35910508F0A0C06E
:1033A00061E084E00E94C50EC7010E94603A04CA31
:1033B000843209F4F7C418F5813109F0FDC9E280BF
:1033C000F0E2EF9E700111248091DD0F843109F04D
:1033D00066C48091DC0F843009F0A6C42AE0E216AE
:1033E000F1040CF02FC460E088E00E94C50E8BEF62
:1033F00092E00E944210C7010E943C10DDC9813456
:1034000009F440C5863409F0D7C9628170E090E0C4
:1034100080E00E94B35320E73EEC48EC5EE30E945C
:1034200012546B017C0120E030E0A9010E9490560B
:1034300020E030E040E05FE387FD9CC5C701B601B6
:103440000E947C550E945A56F62E8091DD0F8431E1
:1034500009F0B2C98091DC0F843009F0ADC9F9E000
:10346000FF1508F48CC560E080E10E94C50E8CEF6A
:1034700092E00E9442108F2D0E94593A9DC98130DE
:1034800061F5628170E090E080E00E94B3532BEE22
:1034900038E34EE05FE30E94125425EE38E34EE835
:1034A00051E40E947B556B017C0120E030E0A901D2
:1034B0000E94905620E030E040E05FE387FD08C0C6
:1034C000C701B6010E947C550E945A567B0151CF1C
:1034D000C701B6010E947B55F7CFF12CE12C49CFF3
:1034E00027EFE2162FEFF20660F061E084E00E9421
:1034F000C50E8DEF92E00E944210C7010E94603A13
:103500005BC93AE0E316F10460F461E084E00E94F4
:10351000C50E8CEF92E00E944210C7010E94603AF3
:103520004BC9C7010A9761E08A35910558F484E0D8
:103530000E94C50E8DEF92E00E944210C7010E94CA
:10354000603A3AC984E00E94C50EC7010E94603A01
:1035500033C9803109F030C98091DC0F823009F025
:103560002BC98DE9E8168FEFF8060CF4BDCAC70128
:103570008D599F4F8A35910540F461E084E00E94A7
:10358000C50EC7010E94603A17C997EFE9169FEF71
:10359000F90660F061E084E00E94C50E8DEF92E0D4
:1035A0000E944210C7010E94603A06C9EAE0EE1686
:1035B000F10460F461E084E00E94C50E8CEF92E0BB
:1035C0000E944210C7010E94603AF6C8C7010A97DC
:1035D00061E08A35910558F484E00E94C50E8DEFB4
:1035E00092E00E944210C7010E94603AE5C884E060
:1035F0000E94C50EC7010E94603ADEC88091DE0FAE
:10360000811149C0628170E090E080E00E94B35374
:1036100026E636E646EE5FE30E94125426E636E6DC
:1036200046E453E40E947B556B017C0120E030E0CE
:10363000A9010E94905620E030E040E05FE387FD62
:1036400025C0C701B6010E947C550E945A567B01D5
:103650008091DD0F843109F062C08091DC0F8430ED
:1036600009F0AAC83DE9E3163FEFF3060CF4E2CAFD
:10367000C7018D599F4F8A359105C0F461E080E004
:103680000E94C50EC7010E94603A96C8C701B601E4
:103690000E947B55DACF813031F46281262F205889
:1036A000330B7901D5CFF12CE12CD2CF87EFE8167F
:1036B0008FEFF80660F061E080E00E94C50E8DEFAC
:1036C00092E00E944210C7010E94603A75C89AE0D9
:1036D000E916F10460F461E080E00E94C50E8CEF11
:1036E00092E00E944210C7010E94603A65C8C7017B
:1036F0000A9761E08A35910558F480E00E94C50E72
:103700008DEF92E00E944210C7010E94603A54C8B7
:1037100080E00E94C50EC7010E94603A4DC880310A
:1037200009F04AC88091DC0F823009F045C8EDE904
:10373000EE16EFEFFE060CF47DCAC7018D599F4FC0
:103740008A35910540F461E080E00E94C50EC70112
:103750000E94603A31C8F7EFEF16FFEFFF0660F006
:1037600061E080E00E94C50E8DEF92E00E94421061
:10377000C7010E94603A20C82AE0E216F10460F412
:1037800061E080E00E94C50E8CEF92E00E94421042
:10379000C7010E94603A10C8C7010A9761E08A35E4
:1037A000910560F480E00E94C50E8DEF92E00E94CA
:1037B0004210C7010E94603A0C94DC1380E00E9422
:1037C000C50EC7010E94603A0C94DC13628170E060
:1037D00090E080E00E94B35320E030E040E251E40A
:1037E0000E94125420E030E040E85DE30E94125451
:1037F0006B017C0120E030E0A9010E94905620E09E
:1038000030E040E05FE387FD34C0C701B6010E94AD
:103810007C550E945A560E94B3532091DD0F2431EB
:1038200011F00C94DC132091DC0F243011F00C9477
:10383000DC1320E030E040E251E40E94E8556B01E7
:103840007C0120E030E040E251E40E94AC5387FF6D
:1038500015C062E080E00E94C50E8DEF92E00E94EC
:10386000421041E050E0C701B6010E9444100C94A0
:10387000DC13C701B6010E947B55CBCF20E030E0BE
:1038800040E251E4C701B6010E94905687FF02C092
:103890000C94DC1362E080E00E94C50E41E050E031
:1038A000C701B6010E9444100C94DC138091DE0F16
:1038B00081114EC0628170E090E080E00E94B353BD
:1038C00020E030E040E251E40E94125425EB32EC5B
:1038D00044E75DE30E9412546B017C0120E030E07C
:1038E000A9010E94905620E030E040E05FE387FDB0
:1038F0003EC0C701B6010E947C550E945A560E94E4
:10390000B35320E030E040E251E40E94E8556B01FF
:103910007C018091DD0F843109F0D4C08091DC0FEF
:10392000843011F00C94DC1320E030E046EC52ECD3
:10393000C701B6010E94AC53181614F161E08DE086
:103940000E94C50E8FEF92E00E9442100C94DC138F
:10395000813091F4628170E090E080E00E94B35386
:1039600029ED31EA4CED50E40E941254A9CFC70171
:10397000B6010E947B55C1CFC12CD12C7601C9CF95
:1039800020E030E046EC52ECC701B6010E949056B0
:103990001816D4F420E030E040E251ECC701B60143
:1039A0000E94AC53181684F061E08DE00E94C50EB1
:1039B0008DEF92E00E94421050E040E0C701B60156
:1039C0000E9444100C94DC1320E030E040E251EC03
:1039D000C701B6010E9490561816ACF420E030E002
:1039E000A901C701B6010E94AC5387FF0CC061E07A
:1039F0008DE00E94C50E41E050E0C701B6010E9473
:103A000044100C94DC1320E030E0A901C701B6019A
:103A10000E94905687FD1AC020E030E040E251E459
:103A2000C701B6010E94AC5387FF10C061E08DE072
:103A30000E94C50E8DEF92E00E94421041E050E0DE
:103A4000C701B6010E9444100C94DC1320E030E062
:103A500040E251E4C701B6010E94905687FD16C0AE
:103A600020E030E048EC52E4C701B6010E94AC53BC
:103A700087FF0CC061E08DE00E94C50E41E050E080
:103A8000C701B6010E9444100C94DC1320E030E022
:103A900048EC52E4C701B6010E94905687FF02C06D
:103AA0000C94DC1361E08DE00E94C50E8DEF92E076
:103AB0000E94421050E040E0C701B6010E9444104D
:103AC0000C94DC13803111F00C94DC138091DC0F2A
:103AD000823011F00C94DC1320E030E046EC52EC24
:103AE000C701B6010E94AC53181654F061E089E09A
:103AF0000E94C50E8FEF92E00E9442100C94DC13DE
:103B000020E030E046EC52ECC701B6010E9490562E
:103B10001816D4F420E030E040E251ECC701B601C1
:103B20000E94AC53181684F061E089E00E94C50E33
:103B30008DEF92E00E94421050E040E0C701B601D4
:103B40000E9444100C94DC1320E030E040E251EC81
:103B5000C701B6010E9490561816ACF420E030E080
:103B6000A901C701B6010E94AC5387FF0CC061E0F8
:103B700089E00E94C50E41E050E0C701B6010E94F5
:103B800044100C94DC1320E030E0A901C701B60119
:103B90000E94905687FD1AC020E030E040E251E4D8
:103BA000C701B6010E94AC5387FF10C061E089E0F5
:103BB0000E94C50E8DEF92E00E94421041E050E05D
:103BC000C701B6010E9444100C94DC1320E030E0E1
:103BD00040E251E4C701B6010E94905687FD16C02D
:103BE00020E030E048EC52E4C701B6010E94AC533B
:103BF00087FF0CC061E089E00E94C50E41E050E003
:103C0000C701B6010E9444100C94DC1320E030E0A0
:103C100048EC52E4C701B6010E94905687FF02C0EB
:103C20000C94DC1361E089E00E94C50E8DEF92E0F8
:103C30000E94421050E040E0C701B6010E944410CB
:103C40000C94DC13C7010A978A35910568F460E08B
:103C500088E00E94C50E8CEF92E00E944210C701DE
:103C60000E943C100C94DC13C7018456910960E05B
:103C70008438934060F488E00E94C50E8DEF92E096
:103C80000E944210C7010E943C100C94DC1388E093
:103C90000E94C50EC7010E943C100C94DC138031B9
:103CA00009F042C08091DC0F8230F1F58AE0E8161D
:103CB000F1046CF460E089E00E94C50E8BEF92E0A5
:103CC0000E944210C7010E943C100C94DC13C701F3
:103CD0000A978A35910568F460E089E00E94C50E74
:103CE0008CEF92E00E944210C7010E943C100C949D
:103CF000DC13C7018456910960E08438934060F476
:103D000089E00E94C50E8DEF92E00E944210C7012B
:103D10000E943C100C94DC1389E00E94C50EC70180
:103D20000E943C100C94DC13FAE0EF16F1046CF4E2
:103D300060E081E00E94C50E8BEF92E00E9442108D
:103D4000C7010E943C100C94DC13C7010A978A3506
:103D5000910568F460E081E00E94C50E8CEF92E06E
:103D60000E944210C7010E943C100C94DC13C70152
:103D70008456910960E08438934060F481E00E94A9
:103D8000C50E8DEF92E00E944210C7010E943C10C8
:103D90000C94DC1381E00E94C50EC7010E943C1008
:103DA0000C94DC13628170E090E080E00E94B353D9
:103DB00020E030E040E251E40E94125420E030E084
:103DC00040E85DE30E9412546B017C0120E030E08A
:103DD000A9010E94905620E030E040E05FE387FDBB
:103DE00034C0C701B6010E947C550E945A560E94F9
:103DF000B3532091DD0F243111F00C94DC1320918A
:103E0000DC0F243011F00C94DC1320E030E040E2B1
:103E100051E40E94E8556B017C0120E030E040E273
:103E200051E40E94AC5387FF15C062E085E00E9418
:103E3000C50E8DEF92E00E94421041E050E0C701B4
:103E4000B6010E9444100C94DC13C701B6010E9415
:103E50007B55CBCF20E030E040E251E4C701B60112
:103E60000E94905687FF02C00C94DC1362E085E04C
:103E70000E94C50E41E050E0C701B6010E94441007
:103E80000C94DC138091DE0F81113AC0628170E0E6
:103E900090E080E00E94B35320E030E040E05FE338
:103EA0000E9412546B017C0120E030E0A9010E94C5
:103EB000905620E030E040E05FE387FD30C0C7016E
:103EC000B6010E947C550E945A56F62E8091DD0F55
:103ED000843161F58091DC0F843011F00C94DC1397
:103EE000F9E0FF1570F160E080E00E94C50E8CEFF4
:103EF00092E00E9442108F2D0E94593A0C94DC13DC
:103F0000813091F4628170E090E080E00E94B353D0
:103F10002CEF3EEF4DEC5FE30E941254BDCFC70182
:103F2000B6010E947B55CFCFF12CD0CF803111F05C
:103F30000C94DC138091DC0F823011F00C94DC13B4
:103F4000CFCF86EF8F0D60E08A3560F480E00E946D
:103F5000C50E8DEF92E00E9442108F2D0E94593ABB
:103F60000C94DC1380E00E94C50E8F2D0E94593AFC
:103F70000C94DC13C701B6010E947B5563CA86EF1F
:103F80008F0D60E08A3560F480E10E94C50E8DEFF0
:103F900092E00E9442108F2D0E94593A0C94DC133B
:103FA00080E10E94C50E8F2D0E94593A0C94DC13BB
:103FB0000FB6F8941EBF0FBE0DBF0C94E1138F9285
:103FC0009F92AF92BF92CF92DF92EF92FF920F93A8
:103FD0001F93CF93DF93CDB7DEB769018DB69EB641
:103FE0005801882309F447C02AE0A20EB11CEDB79E
:103FF000FEB7EA19FB090FB6F894FEBF0FBEEDBF7E
:104000002DB73EB72F5F3F4F79019DE39183950117
:1040100024503109F70131839CEF9A0D9283F0E12E
:104020008F9F90011124622B6058F70163834483B2
:104030000115110551F10C0D1D1DF601ADB7BEB7EF
:1040400016968823E1F00E945C078091D10EF7015B
:1040500085838091D20E86838091D30E8783809151
:10406000D40E8087F601D70119960E171F0769F045
:1040700081918D93FACF36E0A30EB11CB8CFE01733
:10408000F10719F081918D93FACFC501019787014E
:10409000F70120E0AF014E195F094817590718F4DE
:1040A0003191230FF7CF8E0D9F1DFC01208384E2F9
:1040B0000E941E0AEA0CFB1CE016F10601F1F80151
:1040C00021918F018091840E9091850E01969370BD
:1040D000F8944091860E5091870E78948417950736
:1040E000B9F3FC01E35EF54F20839093850E809336
:1040F000840E8091C10080628093C100DDCF0FB635
:10410000F8949EBE0FBE8DBEDF91CF911F910F918F
:10411000FF90EF90DF90CF90BF90AF909F908F90E7
:1041200008950F931F93CF93DF93CDB7DEB7E79733
:104130000FB6F894DEBF0FBECDBF80918A0E898383
:1041400080918B0E8A8380918C0E8B838091920E4E
:10415000882309F44DC181E08C831D821E820E9458
:104160005C078091D10E8F838091D20E88878091D9
:10417000D30E89878091D40E8A8720910F153091B4
:104180001015CE01C6962115310509F033C18351B2
:1041900095419FAB8EAB8EA99FA99B878C870E9470
:1041A000300B8091180A882309F427C181E08D879C
:1041B0008091970E8E878091980E8F878091A4139F
:1041C000888B8091051590910615A0910715B091E7
:1041D0000815B98B8091051590910615A0910715CA
:1041E000B0910815AA8B8091051590910615A091A4
:1041F0000715B09108159B8B8091051590910615B8
:10420000A0910715B09108158C8B8091091590919C
:104210000A15A0910B15B0910C15BD8B8091091555
:1042200090910A15A0910B15B0910C15AE8B809151
:10423000091590910A15A0910B15B0910C159F8B43
:104240008091091590910A15A0910B15B0910C154C
:10425000888F80913512898F809196139091971352
:10426000A0919813B0919913BA8F80919613909161
:104270009713A0919813B0919913AB8F80919613D7
:1042800090919713A0919813B09199139C8F80915E
:10429000961390919713A0919813B09199138D8FC5
:1042A00080919A1390919B13A0919C13B0919D13B0
:1042B000BE8F80919A1390919B13A0919C13B09103
:1042C0009D13AF8F80919A1390919B13A0919C1393
:1042D000B0919D1398A380919A1390919B13A091F4
:1042E0009C13B0919D1389A38091C6108AA38091DD
:1042F000271290912812A0912912B0912A12BBA3E3
:104300008091271290912812A0912912B0912A121F
:10431000ACA38091271290912812A0912912B091FC
:104320002A129DA38091271290912812A091291200
:10433000B0912A128EA380912B1290912C12A091F1
:104340002D12B0912E12BFA380912B1290912C129E
:10435000A0912D12B0912E12A8A780912B129091AE
:104360002C12A0912D12B0912E1299A780912B1290
:1043700090912C12A0912D12B0912E128AA78091AB
:10438000DF0F8823E1F181E08BA780919A0E8CA743
:104390008091DD0F8DA78091DC0F8EA78091990E03
:1043A0008FA78091DE0F88AB8091530289AB8091FB
:1043B0005002909151029AAB8BAB80914E0290913A
:1043C0004F029CAB8DAB05E310E09E012F5F3F4F8A
:1043D00040E062E080E00E94DF1FE7960FB6F894AD
:1043E000DEBF0FBECDBFDF91CF911F910F9108951A
:1043F0001C82B3CE821B930BCCCE1D86D9CE1BA6BE
:10440000C4CF0F931F93CF93DF93CDB7DEB76E97D3
:104410000FB6F894DEBF0FBECDBFE2E8FEE08081AC
:10442000898381818A83EAE7FEE080818B838181B1
:104430008C8382818D8383818E8384818F83858128
:1044400088878681898787818A87E2E7FEE0808185
:104450008B8781818C8782818D8783818E87848100
:104460008F878581888B8681898B87818A8B1B8A40
:1044700099E09C8B82E08D8B1E8A22E62F8B26E7AB
:10448000288F2AE3298F22E12A8F1B8E9C8F8D8F04
:104490001E8E0EE110E09E012F5F3F4F41E065E070
:1044A00080E00E94DF1F6E960FB6F894DEBF0FBE4D
:1044B000CDBFDF91CF911F910F9108950C94E054DF
:1044C000EF92FF920F931F93CF93DF93EC017B0149
:1044D0008A0188819981009729F02A813B812417DC
:1044E000350788F4B8016F5F7F4F0E94A956009787
:1044F00091F0998388831B830A832C813D81232B30
:1045000011F4FC0110821D830C83B701888199810D
:104510000E9493570CC088819981009711F00E94E6
:104520007F52198218821D821C821B821A82CE0140
:10453000DF91CF911F910F91FF90EF900895CF934E
:10454000DF9300D000D0CDB7DEB72091A013222397
:1045500001F1672BF1F06AE073E0892B11F464E05C
:1045600073E01A8219821C821B821E821D82FB014B
:1045700001900020E9F73197AF01461B570BCE01A0
:1045800001960E94602289819A81009711F00E9411
:104590007F5226960FB6F894DEBF0FBECDBFDF91D7
:1045A000CF91089585ED8093BC0080916F1090911C
:1045B0007010A0917110B09172100796A11DB11DDD
:1045C00023E0B695A795979587952A95D1F72091E1
:1045D000BC0024FD03C010926D10089540916F102F
:1045E000509170106091711070917210452B462B94
:1045F000472B69F30097A105B10541F025E32A9502
:10460000F1F700000197A109B109E1CF80916E1087
:104610000C943A081F93CF93DF93EC01162F0E945E
:10462000E054181739F0612FCE01DF91CF911F911F
:104630000C940A55DF91CF911F9108950F931F930A
:10464000CF93DF931F92CDB7DEB7182F082F0F7BC4
:1046500085FFABC007FF6DC081E08093C210109250
:1046600031128091C210882309F440C014FF74C035
:1046700081E08093C51060E086E10E940E0660E054
:1046800087E10E940E0660E08AE10E940E0660E06B
:104690008BE10E940E0660E012FF61C088E10E947B
:1046A0000E0660E089E10E940E0661E08CE10E9446
:1046B0000E0661E08DE10E940E0613FF5EC081E0F0
:1046C0008093C4101370123009F461C0133009F4E0
:1046D00065C0113009F454C08FEF93E00E94370C8D
:1046E0008FEF93E09093C8108093C7100093C6108B
:1046F000602F85E290E00E940A23609135126F7767
:104700006093351284E290E00E940A238091C610E3
:10471000898301E010E09E012F5F3F4F43E063E09B
:1047200080E00E94DF1F0F90DF91CF911F910F91CA
:1047300008951092C21060E088E10E940E0660E0C9
:1047400089E10E940E0660E08CE10E940E0660E0A6
:104750008DE10E940E0685CF1092C5108CCF8CE1A2
:104760000E940E0660E08DE10E940E0661E088E185
:104770000E940E0661E089E19ECF1092C410A2CF84
:104780008FE790E00E94370C8FE790E0ABCF8FE08F
:1047900090E00E94370C8FE090E0A4CF87E090E09B
:1047A0000E94370C87E090E09DCF07FF5DC081E05D
:1047B000809331121092C21080913112882309F433
:1047C00040C014FF64C081E08093341260E088E14F
:1047D0000E940E0660E089E10E940E0660E08CE116
:1047E0000E940E0660E08DE10E940E0660E012FF5E
:1047F00051C086E10E940E0660E087E10E940E062D
:1048000061E08AE10E940E0661E08BE10E940E06E3
:1048100013FF4EC081E0809333121370123009F4FD
:1048200051C0133009F455C0113009F444C08FEF62
:1048300093E00E94C00C8FEF93E090933712809327
:10484000361200933512602F84E290E00E940A2312
:104850006091C6106F776093C61085E290E00E9469
:104860000A238091351254CF1092311260E086E114
:104870000E940E0660E087E10E940E0660E08AE179
:104880000E940E0660E08BE10E940E0695CF10920A
:1048900034129CCF8AE10E940E0660E08BE10E94F8
:1048A0000E0661E086E10E940E0661E087E1AECF70
:1048B00010923312B2CF8FE790E00E94C00C8FE7C6
:1048C00090E0BBCF8FE090E00E94C00C8FE090E0C2
:1048D000B4CF87E090E00E94C00C87E090E0ADCFBD
:1048E0004F925F926F927F928F929F92AF92BF9200
:1048F000CF92DF92EF92FF920F931F93CF93DF93AC
:104900001F921F92CDB7DEB7CDB6DEB680913112C1
:1049100081113FC0F12C8091C210882311F40C94B6
:104920009A312091C7103091C8108091CB102F3749
:10493000310511F00C94052F811106C08091CC1027
:10494000882311F40C94762E0E94F60B882311F420
:104950000C94762E1092CB101092CC100E94F60B75
:1049600090E09093EE108093ED1010E08091ED10A8
:104970009091EE10A12EB12CA816B90610F00C944F
:10498000932D0E94170CF501EE53FF4E83871F5F96
:10499000EDCF209136123091371280913A122F3795
:1049A000310509F012C281110DC080913B128111B5
:1049B00009C080916713811105C080916C13882311
:1049C00009F490C20E945E0C882309F48BC21092F5
:1049D0003A1210923B120E945E0C90E090935D128E
:1049E00080935C12809167138823C9F00E945E0C4B
:1049F000833060F190E080E00E947F0C439731F5B6
:104A000081E090E00E947F0C892B01F582E090E02C
:104A10000E947F0C892BD1F41092671317C00E945B
:104A20005E0C833018F390E080E00E947F0C439787
:104A3000E9F681E090E00E947F0C892BB9F281E0D9
:104A4000809367130E94A00C0E94A00C80916C13AD
:104A50008823C9F00E945E0C8330C0F190E080E0B2
:104A60000E947F0C8A9791F581E090E00E947F0C74
:104A7000892B61F582E090E00E947F0C892B31F553
:104A800010926C1323C00E945E0C843018F390E0E7
:104A900080E00E947F0C8A97E9F681E090E00E9416
:104AA0007F0C892BB9F282E090E00E947F0C892B69
:104AB00089F281E080936C1381E090E00E947F0C8A
:104AC00080936D130E94A00C0E94A00C809167132C
:104AD000882309F46BC00E9450070091681310915D
:104AE000691320916A1330916B13601B710B820B59
:104AF000930B683C71058105910550F10E945007A8
:104B0000609368137093691380936A1390936B1387
:104B100082E090E090935D1280935C1283E1809339
:104B20003C120E94A00C80933D1200915C121091E7
:104B30005D122CE332E141E067E082E00E94DF1F7A
:104B400040915C126CE372E182E00E949E1302C00D
:104B50000E94A00C80913C12823141F48091351268
:104B60008E7F8268809335120E941E2320917213DB
:104B7000222309F478C0809174138111DDC0309133
:104B80006013313009F085C040917813509179134A
:104B9000E82FF0E0E417F50708F050C0EF5CFD4E99
:104BA00035A59385391320E08F5FF2CF80916C1388
:104BB00010E0882381F10E94500700916E1310913C
:104BC0006F132091701330917113601B710B820B66
:104BD000930B683C71058105910508F4B9CF0E94DB
:104BE000500760936E1370936F13809370139093BC
:104BF000711383E090E090935D1280935C128AE2DF
:104C000080933C1280916D1380933D120E94A00C02
:104C100080933E128ACF80915C1290915D12E12EBA
:104C2000F12CE816F90640F40E94A00CF701EF5CA5
:104C3000FD4E83871F5FEFCF8C017BCF222319F0BE
:104C400081E08093731380917713882361F0109231
:104C50005F1310925E1310927213109273131092DE
:104C60007413109276130E94570C809196139091B2
:104C70009713A0919813B09199130196A11DB11D9E
:104C80008093961390939713A0939813B0939913CE
:104C900029C13230C0F280917813909179136091DC
:104CA0005E1370915F137B014FEFE41AF40A40E04A
:104CB000E42FF0E0E817F90768F4EF5CFD4E8F0190
:104CC0000E0D1F1DD8019D961C915385151320E0D4
:104CD0004F5FEECF222309F4B6CF41E04093731328
:104CE000209161132F5F20936113860F971F019608
:104CF00090935F1380935E138F5C9D4EFC0185A59E
:104D000090E0909379138093781332139CCF109294
:104D1000611310925F1310925E1380915E1290E007
:104D2000909379138093781380917613882309F4F4
:104D30008ACF4093771387CF80917813909179131E
:104D4000019620915C1230915D122817390741F5C8
:104D500081E08093731310928A13809177138823D4
:104D600009F481CF10925F1310925E1310927913A1
:104D7000109278131092721310927313109274138E
:104D800010927613198282E08A8302E010E09E017D
:104D90002F5F3F4F41E066E080E00E94DF1F63CF5E
:104DA00091E09093661380918A138F5F80938A13AA
:104DB0008B3020F09093731310928A1368EC70E09C
:104DC00080E090E00E941E07C8CF2F30310509F027
:104DD000DFC1882309F46EC00E945E0C882309F4A9
:104DE00081C0EDB6FEB610923A1210923B120E94AC
:104DF0005E0C082F10E010935D1200935C129090EF
:104E00006013F1E040915E129F1629F021E0291510
:104E100070F440915F1260E170E085E392E00E94DF
:104E2000E10B882321F0000F111F015011098DB7EC
:104E30009EB7801B910B0FB6F8949EBF0FBE8DBF1F
:104E4000ADB7BEB711965D0110935D1200935C1271
:104E5000B1E09B12D2C090905E12492D60E170E0EB
:104E600085E392E00E94E10B712C882309F4B4C021
:104E7000F50190820E94A00C712C872D90E020916A
:104E80005E1330915F138217930708F0E5C04C0161
:104E9000880C991C8A0C9B1C8F5C9D4EDC019E9695
:104EA0008C91F40181830E94A00CD40112968C9302
:104EB0007394E3CF80913B1281118ECF0E945007F3
:104EC0000091621310916313209164133091651364
:104ED000601B710B820B930B643171058105910589
:104EE00008F07ACF809172138823E1F10E945E0C62
:104EF000811138C00E9450076093D50E7093D60E72
:104F00008093D70E9093D80E00918613109187133B
:104F100020918813309189134B015C01801A910A0A
:104F2000A20AB30A009184131091851330E020E0A7
:104F300080169106A206B306A8F0609386137093BC
:104F40008713809388139093891380917313882318
:104F500049F0809174138111BDC181E08093661383
:104F600010927313F0906613FF2009F4D3CC0E94C3
:104F70005E0C182F8111CECC209136123091371251
:104F8000809160132F37310509F08EC3813009F00D
:104F900007C3A12EB12C80915E1390915F13A816C8
:104FA000B90608F0A5C20E9450072B013C01F5018B
:104FB000EF5CFD4E85A50E94660C00E00E945E0C31
:104FC000181708F483C2002309F484C201E010E03A
:104FD0002CE432E04EEFACC2872C912C80915C1215
:104FE00090915D1288169906B8F50E94A00CF50103
:104FF000E80DF91D80837394EFCFB1E0B91590F5FA
:10500000E0915E13F0915F13EF5CFD4E86A5F50114
:1050100080830E94A00C712C872D90E02091781342
:105020003091791382179307B8F44C01880C991CBE
:105030008A0C9B1CE0915E13F0915F13EF5CFD4EB8
:10504000E80FF91F87A5D40111968C930E94A00C3C
:10505000F40182837394E0CF950142E067E082E03F
:105060000E94DF1FD5018C918E3F41F48091351253
:105070008D7F8168809335120E941E238091721368
:105080008823D1F080917413811171C03091601325
:105090003130A1F53093731380917713882361F039
:1050A00010925F1310925E1310927213109273138A
:1050B000109274131092761340915C126CE372E1BB
:1050C00082E00E949E130E94570C8091961390914B
:1050D0009713A0919813B09199130196A11DB11D3A
:1050E0008093961390939713A0939813B09399136A
:1050F0000FB6F894FEBE0FBEEDBEF4CE323060F2B5
:1051000041E040937313209161132F5F209361134B
:1051100080915E1390915F13609178137091791371
:10512000860F971F019690935F1380935E138F5C99
:105130009D4EFC0185A590E09093791380937813A0
:105140003213AACF1092611310925F1310925E1364
:1051500080915E1290E09093791380937813809100
:105160007613882309F498CF4093771395CF81E085
:105170008093731380917713882309F49DCF109245
:105180005F1310925E1310927913109278138CCFE4
:10519000811105C080913B12882309F4A3CE0E949F
:1051A0005E0C882309F49ECE10923A1210923B12A4
:1051B0000E945E0C90E090935D1280935C1210E070
:1051C00080915C1290915D12E12EF12CE816F906A7
:1051D00040F40E94A00CF701EF5CFD4E83871F5F37
:1051E000EFCF8C012CE332E141E067E082E00E94E6
:1051F000DF1F809172138823D1F080917413811185
:1052000058C0309160133130D1F4309373138091D2
:105210007713882361F010925F1310925E1310923F
:1052200072131092731310927413109276134091AC
:105230005C126CE372E182E00E949E1314CD323066
:1052400030F341E040937313209161132F5F20935B
:10525000611380915E1390915F1360917813709148
:105260007913860F971F019690935F1380935E13B7
:105270008F5C9D4EDC019D968C9190E0909379130C
:10528000809378133213C3CF1092611310925F137F
:1052900010925E1380915E1290E090937913809348
:1052A000781380917613882309F4B1CF4093771354
:1052B000AECF81E08093731380917713882309F434
:1052C000B6CF10925F1310925E1310927913109262
:1052D0007813A5CF209178133091791324303105BC
:1052E00009F053C080915E1390915F13892BA9F44C
:1052F00080917A1390917B1340917C1350917D1390
:1053000050935E1240935F129093601280936112EB
:1053100030935F1320935E1320CE60915E127091E4
:105320005F1280916012909161120E94A25680904B
:10533000821390908313B12CA12CDC01CB01880D3A
:10534000991DAA1DBB1DB0935E12A0935F1290938E
:1053500060128093611230935F1320935E13880E66
:10536000991EAA1EBB1E00917E1310917F132091DF
:10537000801330918113081519052A053B0508F0A3
:10538000ECCD81E080937713E8CD2330310509F02F
:1053900049C080915E1390915F13892B69F48091CD
:1053A0007A1390917B1340917C1340935E129093FB
:1053B0005F1280936012ACCF40915E1280915F12B9
:1053C00090E0B0E0A0E0BA2FA92F982F8827A42B57
:1053D00040916012842B409182135091831370E0AE
:1053E00060E0840F951FA61FB71FA0935E129093D5
:1053F0005F128093601230935F1320935E13840FCB
:10540000951FA61FB71F40917E1350917F13609187
:10541000801370918113481759076A077B0708F4B6
:10542000B0CF9BCD2230310549F580915E1390912C
:105430005F13892B49F480917A1390917B13909399
:105440005E1280935F1264CF409182135091831358
:1054500080915E1290915F12982789279827840F78
:10546000951F90935E1280935F1230935F13209389
:105470005E13840F951FB0E0A0E0C5CF2130310549
:1054800009F06BCD80915E1390915F13892B59F4D5
:1054900080917A1380935E1281E090E090935F1385
:1054A00080935E135ACD20918213309183138091A3
:1054B0005E12820F80935E1241E050E050935F13C2
:1054C00040935E13820F932F911DD5CF01117ECD96
:1054D0001F5F5FCD0E9450076419750986099709FF
:1054E00001E0643171058105910508F067CD65CD56
:1054F00081E080933A1290E080E00E947F0C482F78
:1055000065E070E080E392E00E94E10B882361F1A6
:105510000E945E0C082F10E00E945E0C081708F431
:10552000FEC2112361F001E010E02CE432E046EF0E
:105530006FE080E00E94DF1F0E94570C10C10E94A4
:1055400050078090621390906313A0906413B09002
:105550006513681979098A099B0911E06436710598
:1055600081059105C8F6D7CF0E945E0C813198F471
:105570000E945007009162131091631320916413ED
:1055800030916513601B710B820B930B64367105B0
:105590008105910548F381E080933B12F12CDFC037
:1055A0008230E0F310915E131F5FA12EB12C809129
:1055B0005E1390915F132091781330917913820FCD
:1055C000931F0196A816B90658F50E9450072B01A3
:1055D0003C01F501EF5CFD4E85A50E94660C00E0E4
:1055E0000E945E0C20915E1330915F1320953095E0
:1055F0002A0D3B1D8217130609F078F40111E6CC41
:105600000E945007641975098609970901E0643101
:1056100071058105910520F7E2CF002329F2D6CC50
:1056200081E080933A1290E080E00E947F0C482F46
:1056300065E070E080E392E00E94E10B882301F1D5
:105640000E945E0C082F10E00E945E0C081708F400
:1056500066C2111168CF0E9450078090621390902B
:105660006313A0906413B0906513681979098A09CF
:105670009B0911E0643671058105910528F7E3CF98
:105680000E945007009162131091631320916413DC
:1056900030916513601B710B820B930B643671059F
:1056A0008105910568F377CF2F30310509F081C16D
:1056B000813009F028C100915E12402F60E170E056
:1056C00085E392E00E94E10BE82E80915E139091B9
:1056D0005F13EE2009F46BC0029788F080915F128F
:1056E0008F3F69F4EFE5F2E180E081938F5F803FC7
:1056F000E1F781EF90E090935F1380935E13A12E0A
:10570000B12C80915E1390915F13A816B90608F032
:1057100042CF0E9450072B013C01F501EF5CFD4E8A
:105720005F0185A50E94660C00E00E945E0C1817C0
:1057300060F1002371F180915E128983D5019D96FD
:105740008C918A8302E010E09E012F5F3F4F4AEF69
:105750006FE080E00E94DF1F0E94570CFE2C109229
:10576000661380919A1390919B13A0919C13B09112
:105770009D130196A11DB11D80939A1390939B13C5
:10578000A0939C13B0939D13C6C80111D4CF1F5F83
:10579000B6CF0E945007641975098609970901E080
:1057A000653071058105910508F0BFCFBDCF053487
:1057B00019F0003209F059C0069709F056C0A12E21
:1057C000B12C80915E1390915F13A816B90610F565
:1057D0000E9450072B013C01F501EF5CFD4E85A5B1
:1057E0000E94660C00E00E945E0C181778F0011110
:1057F000EDCB0E945007641975098609970901E0ED
:10580000653071058105910570F7ECCF0111DECB94
:105810001F5FD5CF009162121091631210270127EC
:1058200010270E9450074B015C010B5F1F4F0E9425
:105830005E0C8017110609F088F4E110C7CB0E94B6
:105840005007681979098A099B09EE24E394643F9B
:1058500071408105910558F7E12CE9CFEE2009F45C
:105860009ACEB4CB01111CC01F5FA12EB12C809128
:105870005E1390915F13A816B90608F042C00E940B
:1058800050072B013C01F501EF5CFD4E85A50E9400
:10589000660C00E00E945E0C181720F3002321F133
:1058A0008FEF898301E010E09E012F5F3F4F4AEFA9
:1058B0006FE080E00E94DF1F0E94570C0E9450079B
:1058C000009162131091631320916413309165135A
:1058D000601B710B820B930B64317105810591057F
:1058E00068F3F1103CCF57CE0E9450076419750938
:1058F0008609970901E0643671058105910550F626
:10590000C8CFF12CDBCF823008F448CEE0905E1394
:10591000E3940E2D10E080915E1390915F1320911F
:10592000781330917913820F931F01960817190786
:1059300008F031CE0E9450072B013C01F801EF5CCA
:10594000FD4E5F0185A50E94660C912C0E945E0CA5
:1059500020915E1330915F13A90140955095400F3F
:10596000511F8417150609F090F49920A1F02F5CBF
:105970003D4ED9019E968C918983F50185A58A8338
:1059800002E010E09E012F5F3F4F4AEFD1CD9920FA
:1059900009F4BECFECCF0E9450076419750986093F
:1059A000970999249394653071058105910570F6E6
:1059B000CCCF813009F04AC0A12EB12C80915E136A
:1059C00090915F13A816B90610F50E9450072B019D
:1059D0003C01F501EF5CFD4E85A50E94660C00E0E0
:1059E0000E945E0C181778F00111F0CA0E9450074F
:1059F000641975098609970901E06431710581050B
:105A0000910570F7ECCF0111E1CA1F5FD5CF81E09E
:105A100080933A120E945E0C082F0E9450074B019F
:105A20005C0110E00E945E0C081708F478C01111A8
:105A30007ACD0E945007681979098A099B0911E0FB
:105A4000623371058105910568F7EBCF823008F468
:105A5000A5CDE0905E13E394A12EAE0CB12C809105
:105A60005E1390915F132091781330917913820F18
:105A7000931F0196A816B906A0F50E9450072B01A6
:105A80003C01F501EF5CFD4E85A50E94660C00E02F
:105A90000E945E0C1817A0F00023B1F0E0915E1395
:105AA000F0915F13EE5CFD4E85A58983E10FF11D3A
:105AB00085A58A8302E010E09E012F5F3F4F8ACACE
:105AC0000111ECCF1F5FC8CF0E9450076419750900
:105AD0008609970901E06431710581059105C0F6D9
