:020000040000FA
:100000000C9418020C94A2320C9477320C944C325B
:100010000C9421320C94F6310C94CB310C94A03119
:100020000C9475310C9449020C9449020C944902C9
:100030000C9449020C9449020C9449020C94490214
:100040000C9449020C9449020C9449020C94490204
:100050000C9449020C9449020C9449020C942B31E3
:100060000C9449020C94F7350C94BC350C9449025D
:100070000C9449020C9449020C9449020C944902D4
:100080000C9441330C9449020C9449020C9449029B
:100090000C9400330C94CD320C9449020C947833B8
:1000A0000C9449020C9449020C9449020C944902A4
:1000B0000C9449020C9449020C9449020C94490294
:1000C0000C9449020C9449020C9449020C946D352D
:1000D0000C942C350C9449020C94DD340C949C3413
:1000E0000C9449020C94C0060C94303F0C943B03D2
:1000F0000C94A9360C94A43F0C94D23B0C948C3EE7
:100100000C944F030C940B030C9461030C942E037A
:100110000C9453030C94234A0C944C020C94784096
:100120000C9441030C94E3060C9445030C94570380
:100130000C942A030C94A33E0C94473E0C94EA06BC
:100140000C94AE020C94A53B0C94C1060C94880D43
:100150000C944B020C94D0060C9449030C94370376
:100160000C945D030C94D53B0C94B33B0C9410039E
:100170000C946F080C94DA3F0C9451420C941707BE
:100180000C9431030C944E400C9461050C9426039E
:100190000C9462410C94063F0C94FD400C944A056B
:1001A0000C9422030C9457420C946E080C944D024C
:1001B0004343442F53434900202000205343414EE2
:1001C0004E455220560043485259534C4552204305
:1001D00043442F534349002D2D2D2D2D2D2D2D2DF5
:1001E0002D2D2D2D2D2D2D2D2D2D2D0020202020A0
:1001F000002020205343414E4E45522056002020DF
:1002000043485259534C4552204343442F5343498A
:100210002020002D2D2D2D2D2D2D2D2D2D2D2D2D55
:100220002D2D2D2D2D2D2D00202020203072706D94
:100230000020203020432020202020302E306B5002
:1002400061002020306B6D2F68202020202030722C
:10025000706D002020202020302E3030306B6D203B
:10026000202020202020200020302E302F20302E53
:100270003056202020202020202020200020203048
:100280002F20203020432020202020302E306B5083
:1002900061002020306B6D2F68202020203072708C
:1002A0006D202020302500202020203072706D002D
:1002B00020203020462020202020302E30707369EE
:1002C000002020306D7068202020202020307270A7
:1002D0006D002020202020302E3030306D6920200D
:1002E0002020202020200020302E302F20302E30C3
:1002F0005620202020202020202020002020302FC9
:1003000020203020462020202020302E307073699D
:10031000002020306D706820202020203072706D09
:1003200020202030250000002100240027002A0082
:100330002D003000330001010000040107010A0113
:1003400000002200250028002B002E003100340080
:1003500002010000050108010B010505050507055F
:1003600008080808020202020A0A08080404040431
:10037000010101010101010103030303030303035D
:10038000040707070C0C0C0C0C0C0C0C02020202EC
:1003900006060606060606060B0B0B0B0B0B0B0BD5
:1003A0000102102020080810204010204080020187
:1003B000020108040201010204081020408080406C
:1003C000201008040201800402018040201008046B
:1003D0000201080402010102040810204080010209
:1003E00004081020408000000A0B02090C0D0E08C2
:1003F00007030401000000000000000000000000EE
:1004000000000000000000000000000000000000EC
:1004100000001211100000000000000000000000A9
:10042000000000000000000000000000A936234A80
:1004300011241FBECFEFD1E2DEBFCDBF00E00CBF65
:1004400012E0A0E0B2E0EEECFFE900E00BBF02C07A
:1004500007900D92AA3BB107D9F724E1AAEBB2E0CD
:1004600001C01D92AF34B207E1F712E0C7E1D2E05C
:1004700000E006C021970109802FFE010E94D54EA1
:10048000C631D10780E00807A9F70E944D370C94C8
:10049000D54F0C940000089508950895F894909114
:1004A0006C0F80916B0F981304C0789480E092E0F9
:1004B00008957894E0916B0FEF5FF0E0E559F14F0C
:1004C000208190916A0E892F90E0982F8827820FC3
:1004D000911D08958091D40F882371F18091B80FF8
:1004E000823050F1E091B80FE15090E080E020E0E0
:1004F0008E1740F4DC01A956B04F51963C91230F62
:100500000196F6CFF0E0E956F04F818928130DC02F
:1005100080E09091B80F8917E0F4E82FF0E0E956F9
:10052000F04F918990838F5FF4CF1092A70F1092B4
:10053000B80F1092CD0F089580E09091B80F8917F1
:1005400040F4E82FF0E0E956F04F918990838F5FF7
:10055000F4CF8091B80F8093A70FE9CFAF92BF92ED
:10056000CF92DF92EF92FF920F931F93CF93DF937F
:100570006C017B018B01040F151FEB015E01AE18AE
:10058000BF08C017D10759F06991D601ED91FC91D0
:100590000190F081E02DC6011995892B79F7C501ED
:1005A000DF91CF911F910F91FF90EF90DF90CF904F
:1005B000BF90AF900895282F30E0F901EA51FC4F29
:1005C0009491F901E056FC4F4491265A3C4FF901B1
:1005D0002491222309F435C0992311F191509231CD
:1005E000F8F4E92FF0E08827E750FD4F8F4F0C9487
:1005F000D54E2A032E030B032203260310033103D7
:1006000037033B034103450349034F0353031003DF
:1006100057035D036103809180008F778093800092
:10062000E22FF0E0EE0FFF1FE05CFC4FA591B491CC
:100630008FB7F894EC91611148C040954E234C93CC
:100640008FBF0895809180008F7DE8CF80918000DA
:10065000877FE4CF84B58F7784BDE2CF84B58F7D6B
:10066000FBCF8091B0008F778093B000D9CF80917D
:10067000B0008F7DF9CF809190008F7780939000AC
:10068000CFCF809190008F7DF9CF80919000877FB0
:10069000F5CF8091A0008F778093A000C1CF80918B
:1006A000A0008F7DF9CF8091A000877FF5CF80914A
:1006B00020018F7780932001B3CF809120018F7D1F
:1006C000F9CF80912001877FF5CF4E2BB8CFCF9304
:1006D000DF9390E0FC01E056FC4F2491865A9C4F3A
:1006E000FC0184918823C9F090E0880F991FFC01D8
:1006F000EA5DFC4FA591B491FC01E05CFC4FC59113
:10070000D49161110DC09FB7F8948C9120958223EC
:100710008C938881282328839FBFDF91CF910895F0
:10072000623051F49FB7F8943C91822F80958323D7
:100730008C93E8812E2BEFCF8FB7F894EC912E2B72
:100740002C938FBFEACFCF92DF92EF92FF9240E0DF
:1007500054E264EF75E44093CE0F5093CF0F609353
:10076000D00F7093D10F8093D20F8AE08093D30F74
:1007700081E08093D40F8093D50F1092A70F8093C0
:10078000CD0FF8941092B80F1092C90F1092CA0FA3
:100790001092CB0F78941092CD008FE78093CC000D
:1007A0008091C90088698093C9008091CA008660E1
:1007B0008093CA008091D20F882309F456C087E045
:1007C00090E09093D70F8093D60FF894109280000A
:1007D000109281001092850010928400259A8091D9
:1007E00080008064809380008091D60F9091D70F15
:1007F0009093890080938800809181008960809324
:10080000810062E082E00E94670362E083E00E9470
:10081000670381E695E090934702809346028091BA
:100820006A008C7F826080936A00EC9A8AE495E08B
:10083000909349028093480280916A00837F886088
:1008400080936A00ED9A7894809191008A7F8093DA
:100850009100109295001092940081E08093CC0F4B
:10086000FF90EF90DF90CF900895F8941092800061
:1008700010928100109285001092840010928900DD
:100880001092880062E083E00E9467038AE495E0AA
:10089000909349028093480280916A00837F886028
:1008A00080936A00ED9AEC988BE492E09093470273
:1008B0008093460278942091CE0F3091CF0F4091D3
:1008C000D00F5091D10F60E070E080E89FE30E946C
:1008D000234E20E034E244E75BE40E945B4C6B0172
:1008E0007C016091D30F70E090E080E00E94FC4BAF
:1008F00020E030E040E251E40E94B74D9B01AC01A2
:10090000C701B6010E945B4C20E030E040E85AE3AA
:100910000E945B4C20E030E040E85FE30E94B64D6F
:100920000E949C4E7093D90F6093D80FF894109248
:100930009000109291001092950010929400809176
:10094000D80F9091D90F909399008093980080913F
:1009500091008D60809391008091710082608093FE
:10096000710078947ACF863308F0865320917B000B
:10097000982F9870277F922B90937B0020913E02B6
:1009800090E4299F900111248770822B80937C0032
:1009900080917A00806480937A0080917A0086FD4D
:1009A000FCCF809178009091790008953FB7F8943A
:1009B0008091200E9091210EA091220EB091230ED5
:1009C00026B5A89B05C02F3F19F00196A11DB11DAA
:1009D0003FBFBA2FA92F982F8827BC01CD01620FE6
:1009E000711D811D911D42E0660F771F881F991FA1
:1009F0004A95D1F708958F929F92AF92BF92CF926E
:100A0000DF92EF92FF924B015C010E94D6046B01D2
:100A10007C010E94D6046C197D098E099F09683EED
:100A2000734081059105A8F321E0821A9108A1087D
:100A3000B10888EEC80E83E0D81EE11CF11C8114B9
:100A40009104A104B10429F7FF90EF90DF90CF90BB
:100A5000BF90AF909F908F9008952FB7F8946091BA
:100A60001C0E70911D0E80911E0E90911F0E2FBFB7
:100A700008950E942D056093660E7093670E809313
:100A8000680E9093690EE2E6FEE0908381837283A4
:100A9000638308958091D20F811110C0ED988BE48B
:100AA00092E0909349028093480210929500109230
:100AB0009400809191008560809391001092CC0FFA
:100AC000089581E08093CC0F8091B80F81110C9430
:100AD0006A0208952091F80D260F3327331F213223
:100AE0003105ECF420910010FC0190E080E024300E
:100AF00069F082E00895A091F80D2191AC0148526F
:100B0000524FA40FB52FB11D2C930196861798F361
:100B10008091F80D680F6093F80D80E0089581E0F2
:100B200008951092001081E08093FF0F1092DA0F69
:100B300061E084E10E94DB0261E085E10E94DB026A
:100B4000E9EBF0E080818E7F808380818D7F8083E0
:100B500088E48093B80085E48093BC000895CF9327
:100B6000DF9391E09093D70D8823B9F0C091B8003E
:100B7000D091BA008091BC008A7B8093BC0060E079
:100B800084E10E94DB0260E085E10E94DB020E94BA
:100B90009105D093BA00C093B800DF91CF9108952A
:100BA0008F929F92AF92BF92CF92DF92EF92FF927D
:100BB0000F931F93CF93DF93D0912910D13208F078
:100BC000D7C0182FC09128100E94D6046B017C0159
:100BD0008091001081116BC082E08093001010930F
:100BE000FF0F8FEF8093FE0F1092FD0FD093FC0F3D
:100BF000A8E0B0E1ECEDFFE080E0D81391C01092E6
:100C0000DB0F8091DB0FCC0FC82BC093DB0F8091E3
:100C1000DA0F813009F088C01092DA0F0E94D604F2
:100C20006B017C018091DB0F8093BB0080910210EF
:100C300090910310A0910410B0910510892B8A2B7C
:100C40008B2BA1F00E94D60400910210109103108A
:100C500020910410309105106C197D098E099F09AF
:100C6000061717072807390708F442C08091BC000F
:100C700083FDD8CF85EC8093BC000E94D6046B0125
:100C80007C0180910010823009F450C08091FE0FE9
:100C90008F3F09F46FC08091FE0F803209F46CC061
:100CA0008091FE0F803309F469C084E026C08091F2
:100CB000021090910310A0910410B0910510892B9F
:100CC0008A2B8B2B09F484CF0E94D60480900210CB
:100CD00090900310A0900410B09005106C197D093D
:100CE0008E099F0986169706A806B90608F070CFE8
:100CF000809101100E94AF0585E0109207101092BC
:100D0000291010920610DF91CF911F910F91FF9043
:100D1000EF90DF90CF90BF90AF909F908F9008950D
:100D20009D9191938F5F69CF85EEA5CF8091021041
:100D300090910310A0910410B0910510892B8A2B7B
:100D40008B2B09F49ECF0E94D604009102101091C3
:100D5000031020910410309105106C197D098E0943
:100D60009F09061717072807390708F08ACFC0CF51
:100D700081E0C3CF80E0C1CF82E0BFCF83E0BDCFB1
:100D80000895E091760F8091750FE81730F4F0E048
:100D9000E958F04F808190E008958FEF9FEF08951C
:100DA0009091760F8091750F2FEF3FEF981748F4D1
:100DB000E92FF0E0E958F04F208130E09F5F9093F9
:100DC000760FC90108958091750F9091760F891B58
:100DD000990B0895CF92DF92EF92FF920F931F939A
:100DE000CF93DF937C01CB018A012091061022234F
:100DF00089F0EB016B01C40ED51ECC15DD0569F041
:100E00006991D701ED91FC910190F081E02DC7012E
:100E10001995F3CF642F0E946A05C801DF91CF9125
:100E20001F910F91FF90EF90DF90CF900895CF9397
:100E3000DF931F92CDB7DEB769832091061022237E
:100E4000F9F020912910203258F021E030E0FC0127
:100E50003383228390E080E00F90DF91CF9108955B
:100E600080910710E82FF0E0E85FFF4E99819083B2
:100E70008F5F809307108093291081E090E0ECCF82
:100E800061E0CE0101960E946A05F7CF682F8AE2E1
:100E900090E10C9417071092760F1092750F0E9434
:100EA00091058CE492E09093720F8093710F8DE422
:100EB00092E09093740F8093730F8CE08093B8004E
:100EC0008091481091E09093061080932810109222
:100ED00007101092291080914F1090915010029796
:100EE00021F490E080E00E94460790E080E00E94BC
:100EF000460781E00C94D0053F924F925F926F922B
:100F00007F928F929F92AF92BF92CF92DF92EF9299
:100F1000FF920F931F93CF93DF932B013C017A0134
:100F2000890120E2C22ED12C332433943BECA32E32
:100F300037E0B32E0115110509F488C0C0914C109B
:100F4000D0914D1080914F10909150109E012150E2
:100F5000310924213521C21BD30B9601281B390BE3
:100F60000217130708F498012C173D0708F4E9014C
:100F700020914E10B301A20104C076956795579554
:100F800047952A95D2F790904810942A30920610EF
:100F9000909228101092071010922910029741F495
:100FA0009927872D762D652D8AE290E10E941707FB
:100FB000642D8AE290E10E941707AE01B7018AE230
:100FC00090E10E94EA0681E00E94D005811123C0D1
:100FD00084E6882EC5010197F1F7309206109092B1
:100FE0002810109207101092291080914F109091A4
:100FF0005010029721F490E080E00E94460790E0B4
:1010000080E00E94460781E00E94D0058823A9F075
:101010008A948110DFCFDF91CF911F910F91FF90C4
:10102000EF90DF90CF90BF90AF909F908F907F9088
:101030006F905F904F903F9008954C0E5D1E611C25
:10104000711CEC0EFD1E0C1B1D0B74CF80E0E3CF5A
:10105000CF92DF92EF92FF920F931F93CF93DF9384
:101060001F92CDB7DEB749836B017C012FEFC21A07
:10107000D20AE20AF20A0091511010915210209106
:101080005310309154100C151D052E053F0588F0A6
:1010900021E030E0AE014F5F5F4F0E947C070F9070
:1010A000DF91CF911F910F91FF90EF90DF90CF9044
:1010B000089589E0F4CFFC01248131E030930610DB
:1010C0002093281010920710109229108385862BE8
:1010D00090E00E94460781E00C94D005089590E0CE
:1010E00080E00895CF93C82F60E00E94DB02C432F5
:1010F00071F0C532B9F00E942D0560935A0E7093BD
:101100005B0E80935C0E90935D0ECF9108950E94CC
:101110002D056093560E7093570E8093580E909342
:10112000590EF3CF0E942D056093520E7093530E0B
:101130008093540E9093550EE8CF4F925F926F922A
:101140007F928F929F92AF92BF92CF92DF92EF9257
:10115000FF92CF93DF931092CF0D1092D00D10928B
:10116000D10D1092D20D1092CB0D1092CC0D109289
:10117000CD0D1092CE0DC0E8D0E087E30E94B304FD
:10118000092E000CAA0BBB0B4091CF0D5091D00D36
:101190006091D10D7091D20D4C015D01840E951EB0
:1011A000A61EB71E8092CF0D9092D00DA092D10DA9
:1011B000B092D20D219709F7C0E8D0E088E30E94F1
:1011C000B3046C01990FEE08FF088091CB0D90914C
:1011D000CC0DA091CD0DB091CE0D8C0D9D1DAE1DF1
:1011E000BF1D8093CB0D9093CC0DA093CD0DB093EC
:1011F000CE0D219719F727E0B694A794979487947A
:101200002A95D1F78092CF0D9092D00DA092D10D5A
:10121000B092D20D6C017D0137E0F694E794D7943B
:10122000C7943A95D1F7C092CB0DD092CC0DE092F5
:10123000CD0DF092CE0D60913C0270913D0290E098
:1012400080E00E94FA4B20E030E048EC52E40E943B
:10125000234E2B013C01C501B4010E94FA4BA301AE
:1012600092010E945B4C20E030EC4FE754E40E9476
:10127000234E20E030E048EC52E40E945B4C0E9498
:101280009C4EEB01C701B6010E94FA4BA3019201EB
:101290000E945B4C20E030EC4FE754E40E94234E68
:1012A00020E030E048EC52E40E945B4C0E949C4EEF
:1012B000D093460EC093470E7093480E6093490E2C
:1012C000DF91CF91FF90EF90DF90CF90BF90AF90E4
:1012D0009F908F907F906F905F904F9008954F9266
:1012E0005F926F927F928F929F92AF92BF92CF92B6
:1012F000DF92EF92FF92CF93DF931092C70D10927F
:10130000C80D1092C90D1092CA0DC0E8D0E086E356
:101310000E94B3046C01990FEE08FF088091C70D7D
:101320009091C80DA091C90DB091CA0D8C0D9D1D55
:10133000AE1DBF1D8093C70D9093C80DA093C90D1E
:10134000B093CA0D219719F76C017D0187E0F694DF
:10135000E794D794C7948A95D1F7C092C70DD092DD
:10136000C80DE092C90DF092CA0D609138027091DB
:10137000390290E080E00E94FA4B4B015C016091E1
:101380003C0270913D0290E080E00E94FA4B20E028
:1013900030E048EC52E40E94234E2B013C01C7018F
:1013A000B6010E94FA4B9B01AC01C301B2010E943D
:1013B0005B4C20E030EC4FE754E40E94234E6B017D
:1013C0007C0160913A0270913B0290E080E00E94C3
:1013D000FA4BA50194010E94B74D9B01AC01C701D6
:1013E000B6010E945B4CA50194010E94234E20E0AF
:1013F00030E048EC52E40E945B4C0E949C4E683501
:1014000022E07207A8F410924B0E10924C0E10922C
:10141000C60DDF91CF91FF90EF90DF90CF90BF90FE
:10142000AF909F908F907F906F905F904F900895B6
:1014300070934B0E60934C0E81E08093C60DE9CF04
:10144000F89480916B0F80936C0F78940895F894C2
:1014500080916C0F90916B0F7894891B08959091F7
:10146000400E21E0290F30E0F8944091410E78942D
:1014700042171306C9F32A53334FF90180839F5F44
:101480009093400E809131018062809331010895E4
:10149000F89490916C0F80916B0F981304C078941E
:1014A00080E092E00895789480916B0FE1E0E80F7E
:1014B000F0E08F5F80936B0FE559F14F20819091A1
:1014C0006A0E892F90E0982F8827820F911D08952A
:1014D000F89410926C0F10926B0F1092400E1092B5
:1014E000410E78949093350180933401E1E3F1E06B
:1014F000808188698083E2E3F1E080818660808377
:101500000895F8948091C50C8093C40C7894089544
:10151000F8948091C40C9091C50C7894891B08951F
:1015200090913E0E21E0290F30E0F89440913F0E5B
:10153000789442171306C9F32C53344FF901808372
:101540009F5F90933E0E8091D10080628093D10086
:1015500008959C01F8949091C40C8091C50C981347
:1015600004C0789480E092E0089578949091C50C3E
:10157000E92FF0E03196E20FF31FFF27EC53F54F10
:1015800020819091C30A892F90E0982F8827820F9D
:10159000911D0895F8949091C40C8091C50C9813F6
:1015A00004C0789480E092E0089578948091C50C0E
:1015B000E1E0E80FF0E08F5F8093C50CEC53F54F4E
:1015C00020819091C30A892F90E0982F8827820F5D
:1015D000911D0895F8941092C40C1092C50C1092AD
:1015E0003E0E10923F0E78949093D5008093D400D5
:1015F000E1EDF0E0808188698083E2EDF0E08081B8
:10160000866080830895F8948091360E9091370E0D
:101610002091380E3091390E7894821B930B937081
:10162000089520913A0E30913B0E2F5F3F4F33705B
:10163000F89440913C0E50913D0E78942417350754
:10164000B9F3F901ED53F94F808330933B0E2093AA
:101650003A0E8091C10080628093C1000895F89491
:101660002091360E3091370E8091380E9091390EC0
:101670002817390721F4789480E092E0089578944F
:101680008091380E9091390E019693709093390E97
:101690008093380E8D539D4FFC0120819091C202A2
:1016A000892F90E0982F8827820F911D0895E4E3F9
:1016B000FEE0108280E98183ECE2FEE0108211827C
:1016C000128213821482158216821782E4E2FEE0EF
:1016D000108211821282138214821582168217825E
:1016E00084EF91E090933D0280933C0288E799E675
:1016F00090933B0280933A0288E893E190933902F9
:10170000809338021092700F87E280934E0E84E12E
:1017100080936E0F94E090936D0F80934D0E81E057
:1017200080936F0FE9EFF2E181E4838310821182ED
:1017300061E08DE00E94DB0282E090E09093301443
:1017400080932F1481E98093AA1181EC8093581023
:101750001092510E1092500E08952F923F924F9278
:101760005F926F927F928F929F92AF92BF92CF9231
:10177000DF92EF92FF920F931F93CF93DF936B0152
:101780007C014A015901BC01A601420F531F611D92
:10179000711D8091511090915210A0915310B091F1
:1017A000541019E084179507A607B70708F421C15C
:1017B00033243394A114B10409F41AC1C0914C101C
:1017C000D0914D10CE0101978C219D21C81BD90BC2
:1017D000C50121E2A216B10410F080E290E08C175E
:1017E0009D0708F4EC0180914E10A701960104C0FA
:1017F00056954795379527958A95D2F720904810AA
:10180000222A30920610209228101092071010926F
:10181000291080914F1090915010029741F4992710
:101820008F2D7E2D6D2D8AE290E10E9417076C2D81
:101830008AE290E10E94170781E00E94D005182FEC
:101840008111D7C00E94D6042B013C018091001069
:10185000811166C00C2F309200103092FF0F3FEFC5
:101860003093FE0F1092FD0F8C2F81508093FC0F50
:101870003092DB0F8091DB0F220C282A2092DB0FA5
:101880008091DA0F813009F084C01092DA0F0E9443
:10189000D6042B013C018091DB0F8093BB0080912B
:1018A000021090910310A0910410B0910510892BA3
:1018B0008A2B8B2BA1F00E94D6042091021030912C
:1018C00003104091041050910510641975098609A0
:1018D0009709261737074807590708F442C080912F
:1018E000BC0083FDD8CF45EC4093BC000E94D604D9
:1018F0002B013C0180910010813009F44EC0809191
:10190000FD0F801710F40091FD0FECEDFFE0A7E74D
:10191000BFE080E0801751F191919D938F5FFACFE6
:101920008091021090910310A0910410B0910510C5
:10193000892B8A2B8B2B09F489CF0E94D604209106
:101940000210309103104091041050910510641959
:10195000750986099709261737074807590708F0B8
:1019600075CF809101100E94AF0500E01092760FB4
:101970000093750F612E712C6C167D0680F58AE23E
:1019800090E10E94D006F401E60DF71D80831F5FF1
:10199000F1CF55EE5093BC00A9CF809102109091E9
:1019A0000310A0910410B0910510892B8A2B8B2B6A
:1019B00009F4A0CF0E94D6042091021030910310A8
:1019C0004091041050910510641975098609970912
:1019D000261737074807590708F08CCFC2CFCC0E1F
:1019E000DD1EE11CF11C8C0E9D1EAC1ABD0AE2CE60
:1019F00010E0812FDF91CF911F910F91FF90EF9019
:101A0000DF90CF90BF90AF909F908F907F906F901E
:101A10005F904F903F902F900895CF93DF931F9248
:101A2000CDB7DEB721E030E0AE014F5F5F4F0E94DF
:101A3000AD0B90E0009731F4898190E00F90DF9139
:101A4000CF910895919581959109F8CF0F931F93A8
:101A5000CF938C01C62F0E945B086C2F6460C80175
:101A60000E945B086C2F6B7FC8010E945B0883ECAF
:101A700090E00197F1F7CF911F910F9108950F9387
:101A80001F93CF93DF938C01D62FC42F607F642BDD
:101A90000E94260D80E1D89FB00111246C2BC80153
:101AA000DF91CF911F910F910C94260DCF93DF936F
:101AB00000D000D01F921F92CDB7DEB798E0E0E6CD
:101AC000F2E0DE01119601900D929A95E1F7909166
:101AD0004510961710F46FEF690F262F30E0220F94
:101AE000331F41E050E04C0F5D1F240F351FF901FB
:101AF0006081680F606840E08CE390E128960FB643
:101B0000F894DEBF0FBECDBFDF91CF910C943F0D97
:101B100041E00E943F0D81E090E008950F931F93F4
:101B2000CF93DF938B0198E0899FB001112460640B
:101B300040E08CE390E10E943F0DE801085F1F4FF9
:101B400069918CE390E10E94880DC017D107C1F71D
:101B5000DF91CF911F910F9108950F931F93CF9312
:101B6000DF938C01D0E0C0E0F801EC0FFD1F649121
:101B7000662339F041E08CE390E10E943F0D21960D
:101B8000F3CFCE01DF91CF911F910F91089540E0E7
:101B900061E08CE390E10E943F0D8BE39FE10197B0
:101BA000F1F708950E94C70D80916E0F843171F591
:101BB00080916D0F843009F042C060E080E00E94A7
:101BC000560D81E193E00E94AD0D61E080E00E943E
:101BD000560D8CEF92E00E94AD0D62E080E00E9415
:101BE000560D87EE92E00E94AD0D63E080E00E940A
:101BF000560D82ED92E00E94AD0D61E087E00E94FB
:101C0000560D65E08CE390E10C94880D8031B9F4B9
:101C100080916D0F823099F460E080E00E94560D53
:101C200081EC92E00E94AD0D61E080E00E94560DD3
:101C300080EB92E00E94AD0D61E083E0E0CF60E0D8
:101C400080E00E94560D87EA92E00C94AD0D0E9450
:101C5000C70D80916E0F843171F580916D0F8430C6
:101C600009F042C060E080E00E94560D82E992E0F7
:101C70000E94AD0D61E080E00E94560D8DE792E07C
:101C80000E94AD0D62E080E00E94560D88E692E071
:101C90000E94AD0D63E080E00E94560D83E592E066
:101CA0000E94AD0D61E087E00E94560D65E08CE377
:101CB00090E10C94880D8031B9F480916D0F8230E1
:101CC00099F460E080E00E94560D82E492E00E9468
:101CD000AD0D61E080E00E94560D81E392E00E942C
:101CE000AD0D61E083E0E0CF60E080E00E94560D42
:101CF00088E292E00C94AD0DFC0101900020E9F720
:101D00003197AF01481B590BBC018CE390E10C9457
:101D1000AE028F929F92AF92BF920F931F93CF9379
:101D2000DF93CDB7DEB7A1970FB6F894DEBF0FBE35
:101D3000CDBF19A2423008F44AE08E010F5D1F4F5B
:101D4000842E912CB12CA12CA50194010E94854DCB
:101D5000E62FB901CA01EA30F4F4E05DD801EE9350
:101D60008D01232B242B252B79F790E080E0109711
:101D700019F0CD010E947C0EA1960FB6F894DEBF3B
:101D80000FBECDBFDF91CF911F910F91BF90AF904C
:101D90009F908F900895E95CE1CFBC0190E080E0D6
:101DA0004AE00C94890E0C947C0E4F925F926F92D5
:101DB0007F928F929F92AF92BF92CF92DF92EF92DB
:101DC000FF920F931F93CF936B017C01B42EAC0154
:101DD0009B010E94D04E882399F082EA92E0CF9135
:101DE0001F910F91FF90EF90DF90CF90BF90AF9039
:101DF0009F908F907F906F905F904F900C947C0E8F
:101E000026013701E89477F82FEF3FEF4FE75FE7C0
:101E1000C301B2010E94D04E81110DC02FEF3FEFE0
:101E20004FE75FE7C301B2010E94F54B18161CF49F
:101E300086EA92E0D4CF2FEF3FEF4FE75FE4C70190
:101E4000B6010E94CB4E18161CF48AEA92E0C7CF66
:101E50002FEF3FEF4FE75FECC701B6010E94F54B54
:101E600087FDF3CF20E030E0A901C701B6010E9451
:101E7000F54B10E000E087FF0CC041E06DE28CE321
:101E800090E10E943F0DF7FAF094F7F8F09401E02A
:101E900010E0CB2DA12C60E070E080E09FE3AB145C
:101EA00040F420E030E040E251E40E94234EA3944D
:101EB000F6CFA70196010E94B74D2B013C010E946D
:101EC0009C4E6B017C014AE00E94890E080F191F8D
:101ED000BB20B1F1C701B6010E94FA4B9B01AC01D6
:101EE000C301B2010E94B64D4B015C0141E06EE2BC
:101EF0008CE390E10E943F0D0F5F1F4FC15000F136
:101F000020E030E040E251E4C501B4010E945B4CA6
:101F10002B013C010E949C4E4B01CB010E94CD0E37
:101F2000080F191FB40190E080E00E94FA4B9B015A
:101F3000AC01C301B2010E94B64D4B015C01DECF82
:101F4000C801CF911F910F91FF90EF90DF90CF903C
:101F5000BF90AF909F908F907F906F905F904F90C9
:101F600008958F929F92AF92BF92EF92FF920F933C
:101F70001F93CF93DF93CDB7DEB72C970FB6F894AE
:101F8000DEBF0FBECDBFF0906D0FE0906E0F809161
:101F90004E0E10923F1010923E10809340108E8192
:101FA000809341108F8180934210888580934310E5
:101FB000E0924410F09245101092461018E01093F1
:101FC00047101092760F1092750F10920710109212
:101FD00029100E9491058CE492E09093720F8093F7
:101FE000710F8DE492E09093740F8093730F1092B1
:101FF000411080914510823010F010934110909163
:102000004610992339F0813029F480914110846081
:102010008093411062E370E080E090E00E94FB0456
:10202000609147108CE390E10E945B0868EE73E0DA
:1020300080E090E00E94FB0460E38CE390E10E946A
:10204000260D0BE416E4C8010197F1F760E38CE379
:1020500090E10E94260DC8010197F1F760E38CE33F
:1020600090E10E94260D83E592E00197F1F760E28E
:102070008CE390E10E94260D60914110606240E087
:102080008CE390E10E943F0D84E08093421040E099
:102090006CE08CE390E10E943F0D0E94C70D82E04E
:1020A0008093431040E066E08CE390E10E943F0D96
:1020B00040E062E08CE390E10E943F0D0BE31FE102
:1020C000C8010197F1F788E08093471060E08CE346
:1020D00090E10E945B080E94C70D40E062E08CE343
:1020E00090E10E943F0DC8010197F1F76091340E15
:1020F0007091350E76276727762790E080E00E9462
:10210000FA4B20E030E048EC52E40E94234E4B01B1
:102110005C0184E1E81257C084E0F8126FC083E1EB
:1021200092E00E94AD0D61E080E00E94560D8EEFBE
:1021300091E00E94AD0D62E080E00E94560D81EFBB
:1021400091E00E94AD0D42E050E0C501B4010E9453
:10215000D50E8CEE91E00E94AD0D63E080E00E9410
:10216000560D87ED91E00E94AD0D60E272E080E0D7
:102170000E948E0D68E172E081E00E948E0D60E1A8
:1021800072E082E00E948E0D68E072E083E00E94BF
:102190008E0D60E072E084E00E948E0D6AEB72E0CA
:1021A00085E02C960FB6F894DEBF0FBECDBFDF9151
:1021B000CF911F910F91FF90EF90BF90AF909F90A4
:1021C0008F900C948E0D80E1E81218C082E0F81216
:1021D00015C086EC91E00E94AD0D61E080E00E94A8
:1021E000560D8BEB91E00E94AD0D42E050E0C50131
:1021F000B4010E94D50E88EB91E0B5CF80EB91E061
:10220000B2CF2F923F924F925F926F927F928F92B6
:102210009F92AF92BF92CF92DF92EF92FF920F9375
:102220001F93CF93DF93CDB7DEB70DB71EB7909155
:10223000700F992359F12DB63EB69CEF940F2DB730
:102240003EB7291B31090FB6F8943EBF0FBE2DBF14
:10225000EDB7FEB731967F01992311F40C94411D1F
:10226000FB013496D70124E0241720F431913D93EB
:102270002F5FFACF20914502213001F1223009F47D
:10228000BEC50FB6F8943EBE0FBE2DBE0FB6F89475
:102290001EBF0FBE0DBFDF91CF911F910F91FF9019
:1022A000EF90DF90CF90BF90AF909F908F907F90F6
:1022B0006F905F904F903F902F900895813009F775
:1022C000F70180818C3809F403C108F041C08432E1
:1022D00009F49CC08234A9F6943098F2618170E0D0
:1022E00090E080E00E94FC4B26E636E646E25FE3A3
:1022F0000E945B4C6B017C0120E030E0A9010E9450
:10230000CB4E20E030E040E05FE387FDC5C0C70171
:10231000B6010E94B74D0E94954EF62E80916E0F29
:10232000843109F0AECF80916D0F843009F0A9CFD0
:10233000F9E0FF1508F4B5C060E080E10E94560D99
:1023400081EB92E00E94D30E8F2D0E94C74999CF56
:10235000843D09F4DFC2843E09F4ABC38E3C09F02E
:1023600090CF963008F48DCF618172818381948102
:102370000E94DD4E20916F0F211111C20E94FA4B75
:1023800020E030E040E05EE30E945B4C6B017C01AA
:1023900020E030E0A9010E94CB4E20E030E040E098
:1023A0005FE387FD11C2C701B6010E94B74D0E94CD
:1023B000954E0E94FC4B20E030E04AE754E40E9436
:1023C000234E6B017C0180916E0F843109F059CF4F
:1023D00080916D0F843009F054CF20E030E040E26E
:1023E00051E4C701B6010E94F54B87FFF2C163E0DB
:1023F00080E00E94560D8EEA92E00E94D30E43E0E8
:1024000050E0C701B6010E94D50E3BCF943008F4CE
:1024100038CF80916F0F811119C0F18080916E0FBC
:102420008431D1F480916D0F843009F02ACFF9E026
:10243000FF15D8F060E080E00E94560D81EB92E03D
:102440000E94D30E8F2D0E94C7491BCF813011F4FB
:10245000F280E4CFF12CE2CF803109F012CF8091ED
:102460006D0F823009F00DCFE2CF86EF8F0D60E067
:102470008A3558F480E00E94560D82EB92E00E946B
:10248000D30E8F2D0E94C749FCCE80E00E94560DCE
:102490008F2D0E94C749F5CEC701B6010E94B64DE7
:1024A0003ACF86EF8F0D60E08A3558F480E10E94C4
:1024B000560D82EB92E00E94D30E8F2D0E94C749E9
:1024C000E0CE80E10E94560D8F2D0E94C749D9CEE3
:1024D000943008F4D6CE80916F0F81117DC0618158
:1024E00070E090E080E00E94FC4B26E636E646EE87
:1024F0005FE30E945B4C26E636E646E453E40E9426
:10250000B64D2B013C0120E030E0A9010E94CB4EEA
:1025100020E030E040E05FE387FD54C0C301B2013A
:102520000E94B74D0E94954E6B01F701628170E0E9
:1025300090E080E00E94FC4B26E636E646EE5FE344
:102540000E945B4C26E636E646E453E40E94B64D14
:102550002B013C0120E030E0A9010E94CB4E20E09D
:1025600030E040E05FE387FD32C0C301B2010E946A
:10257000B74D0E94954E7B0180916E0F843109F01A
:10258000B1C080916D0F843009F07BCE9DE9C916F2
:102590009FEFD9069CF561E080E00E94560D85EB27
:1025A00092E00E94D30E2DE9E2162FEFF2060CF016
:1025B00052C061E084E00E94560D85EB92E00E94DB
:1025C000D30E5FCEC301B2010E94B64DABCFC301A3
:1025D000B2010E94B64DCDCF813059F46181262FD2
:1025E0002058330B69016281862F8058990B7C013A
:1025F000C3CFF12CE12CD12CC12CBECFC6018D59FB
:102600009F4F61E08A35910510F161E0E7EFCE164A
:10261000EFEFDE06B0F4FAE0CF16D10460F461E02B
:1026200080E00E94560D81EB92E00E94D30EC6011D
:102630000E94CE49B8CFC6010A9761E08A3591055C
:1026400030F480E00E94560D82EB92E0EECF80E005
:102650000E94560DECCFC7018D599F4F8A359105C9
:1026600040F461E084E00E94560DC7010E94CE490B
:1026700008CE37EFE3163FEFF30660F061E084E049
:102680000E94560D82EB92E00E94D30EC7010E9479
:10269000CE49F7CD8AE0E816F10460F461E084E009
:1026A0000E94560D81EB92E00E94D30EC7010E945A
:1026B000CE49E7CDC7010A9761E08A35910558F404
:1026C00084E00E94560D82EB92E00E94D30EC70177
:1026D0000E94CE49D6CD84E00E94560DC7010E94CB
:1026E000CE49CFCD803109F0CCCD80916D0F8230B5
:1026F00009F0C7CD9DE9C9169FEFD9064CF461E0FA
:1027000080E00E94560D85EB92E00E94D30EB9CD79
:10271000C6018D599F4F8A35910540F461E080E0F4
:102720000E94560DC6010E94CE49ABCDE7EFCE16F2
:10273000EFEFDE0660F061E080E00E94560D82EB74
:1027400092E00E94D30EC6010E94CE499ACDFAE0D3
:10275000CF16D10460F461E080E00E94560D81EB59
:1027600092E00E94D30EC6010E94CE498ACDC601D6
:102770000A9761E08A35910558F480E00E94560D71
:1027800082EB92E00E94D30EC6010E94CE4979CD21
:1027900080E00E94560DC6010E94CE4972CDC12C28
:1027A000D12C7601213009F00ECE0E94FA4B21EB9C
:1027B0003AE249EC54E40E945B4C20E030E04AEFFE
:1027C00055E40E94234EE2CDC701B6010E94B64DEA
:1027D000EECD20E030E040E251E4C701B6010E94B6
:1027E000CB4E87FD19C020E030E048EC52E4C70131
:1027F000B6010E94F54B87FF0FC063E080E00E94A6
:10280000560D8FEA92E00E94D30E43E050E0C701DC
:10281000B6010E94D50E35CD20E030E048EC52E400
:10282000C701B6010E94CB4E87FD19C020E030E001
:102830004AE754E4C701B6010E94F54B87FF0FC079
:1028400063E080E00E94560D80EB92E00E94D30E80
:1028500043E050E0C701B6010E94D50E12CD20E042
:1028600030E04AE754E4C701B6010E94CB4E87FD31
:1028700019C020E030E44CE156E4C701B6010E94E3
:10288000F54B87FF0FC063E080E00E94560D81EB9F
:1028900092E00E94D30E43E050E0C701B6010E94CF
:1028A000D50EEFCC20E030E44CE156E4C701B60190
:1028B0000E94CB4E87FD19C020E030E543EC57E481
:1028C000C701B6010E94F54B87FF0FC063E080E0AF
:1028D0000E94560D82EB92E00E94D30E43E050E03E
:1028E000C701B6010E94D50ECCCC20E030E543EC08
:1028F00057E4C701B6010E94CB4E87FDC2CC63E00E
:1029000080E00E94560D43E050E0C701B6010E94EE
:10291000D50EB7CC943008F4B4CC618170E090E06F
:1029200080E00E94FC4B20E030E040E251E40E9455
:102930005B4C23EB3BE742E75DE30E945B4C2B01E2
:102940003C0120E030E0A9010E94CB4E20E030E0C5
:1029500040E05FE387FD7FC0C301B2010E94B74D35
:102960000E94954E0E94FC4B4B015C01F701628175
:1029700070E090E080E00E94FC4B20E030E040E21C
:1029800051E40E945B4C23EB3BE742E75DE30E948E
:102990005B4C6B017C0120E030E0A9010E94CB4E32
:1029A00020E030E040E05FE387FD5AC0C701B60198
:1029B0000E94B74D0E94954E0E94FC4B2B013C019A
:1029C00080916E0F843109F05CCC80916D0F843062
:1029D00009F057CC20E030E040E251E4C501B401F9
:1029E0000E94234E6B017C0120E030E040E251E484
:1029F0000E94F54B87FF39C062E080E00E94560DCF
:102A000082EB92E00E94D30E41E050E0C701B60194
:102A10000E94D50E20E030E040E251E4C301B20153
:102A20000E94234E6B017C0120E030E040E251E443
:102A30000E94F54B87FF28C062E085E00E94560D9A
:102A400082EB92E00E94D30E41E050E0C701B60154
:102A50000E94D50E16CCC301B2010E94B64D80CFA4
:102A6000C701B6010E94B64DA5CF20E030E040E29C
:102A700051E4C701B6010E94CB4E87FDCBCF62E087
:102A800080E00E94560DC0CF20E030E040E251E4EB
:102A9000C701B6010E94CB4E87FDF3CB62E085E013
:102AA0000E94560D41E050E0C701B6010E94D50ECC
:102AB000E8CB943008F4E5CB80916F0F811168C0AA
:102AC000C180F0E2CF9E60011124F701628170E0C5
:102AD00090E080E00E94FC4B20E030E040E251E4D6
:102AE0000E945B4C25EB32EC44E75DE30E945B4CBB
:102AF0002B013C0120E030E0A9010E94CB4E20E0F8
:102B000030E040E05FE387FD61C0C301B2010E9495
:102B1000B74D0E94954E0E94FC4B20E030E040E211
:102B200051E40E94234E2B013C0180916E0F8431B1
:102B300009F0A6C080916D0F843009F026C1FAE03B
:102B4000CF16D10408F047C060E088E00E94560D1F
:102B500080EB92E00E94D30EC6010E94CD0E20E0D1
:102B600030E040E251E4C301B2010E94F54B87FF1F
:102B70004FC061E08DE00E94560D82EB92E00E9412
:102B8000D30E41E050E0C301B2010E94D50E79CBD3
:102B9000412C512C3201D12CC12C813031F6C18015
:102BA000F0E2CF9E60011124F701628170E090E0B5
:102BB00080E00E94FC4B20E030E040E251E40E94C3
:102BC0005B4C29ED31EA4CED50E48ACFC301B201F0
:102BD0000E94B64D9ECFC6010A978A35910538F4FA
:102BE00060E088E00E94560D81EB92E0B3CFC60111
:102BF0008456910960E08438934030F488E00E9464
:102C0000560D82EB92E0A6CF88E00E94560DA4CF2D
:102C100020E030E040E251E4C301B2010E94CB4E1B
:102C200087FD15C020E030E048EC52E4C301B2015A
:102C30000E94F54B87FF0BC061E08DE00E94560DAE
:102C400041E050E0C301B2010E94D50E1ACB20E052
:102C500030E048EC52E4C301B2010E94CB4E87FD44
:102C600010CB61E08DE00E94560D82EB92E00E9455
:102C7000D30E50E040E0C301B2010E94D50E01CB5B
:102C8000803109F082C080916D0F823009F07DC0E3
:102C90003AE0C316D10420F560E089E00E94560DA9
:102CA00080EB92E00E94D30EC6010E94CD0E20E080
:102CB00030E040E251E4C301B2010E94F54B87FFCE
:102CC0002CC061E089E00E94560D82EB92E00E94E8
:102CD000D30E41E050E0C301B2010E94D50ED1CA2B
:102CE000C6010A978A35910538F460E089E00E94B0
:102CF000560D81EB92E0D6CFC6018456910960E073
:102D00008438934030F489E00E94560D82EB92E0C3
:102D1000C9CF89E00E94560DC7CF20E030E040E2E5
:102D200051E4C301B2010E94CB4E87FD15C020E0E3
:102D300030E048EC52E4C301B2010E94F54B87FF3A
:102D40000BC061E089E00E94560D41E050E0C301F4
:102D5000B2010E94D50E95CA20E030E048EC52E462
:102D6000C301B2010E94CB4E87FD8BCA61E089E0AE
:102D70000E94560D82EB92E00E94D30E50E040E09C
:102D8000C301B2010E94D50E7CCAFAE0CF16D1046D
:102D900060F460E081E00E94560D80EB92E00E94BA
:102DA000D30EC6010E94CD0E6CCAC6010A978A35A1
:102DB000910560F460E081E00E94560D81EB92E0A5
:102DC0000E94D30EC6010E94CD0E5BCAC601845676
:102DD000910960E08438934058F481E00E94560DD8
:102DE00082EB92E00E94D30EC6010E94CD0E49CA2A
:102DF00081E00E94560DC6010E94CD0E42CA82306B
:102E000009F03FCAF7018081843109F03ACA933052
:102E100008F437CA81818B3009F4ADC270F5853072
:102E200009F451C18A3009F436C2813009F029CA47
:102E300080916F0F811188C0E280F12C80916E0F1C
:102E4000843109F0EBC080916D0F843009F019CA0C
:102E5000FDE9EF16FFEFFF060CF4ABCBC7018D5970
:102E60009F4F8A35910508F0A0C061E084E00E9480
:102E7000560DC7010E94CE4904CA843209F4FBC42E
:102E800018F5813109F0FDC9E280F0E2EF9E700192
:102E9000112480916E0F843109F06AC480916D0F06
:102EA000843009F0AAC42AE0E216F1040CF033C41D
:102EB00060E088E00E94560D80EB92E00E94D30E05
:102EC000C7010E94CD0EDDC9813409F444C58634A2
:102ED00009F0D7C9628170E090E080E00E94FC4B6D
:102EE00020E73EEC48EC5EE30E945B4C6B017C010A
:102EF00020E030E0A9010E94CB4E20E030E040E02D
:102F00005FE387FDA0C5C701B6010E94B74D0E94CF
:102F1000954EF62E80916E0F843109F0B2C98091E2
:102F20006D0F843009F0ADC9F9E0FF1508F490C5C4
:102F300060E080E10E94560D81EB92E00E94D30E8A
:102F40008F2D0E94C7499DC9813061F5628170E073
:102F500090E080E00E94FC4B2BEE38E34EE05FE314
:102F60000E945B4C25EE38E34EE851E40E94B64DDA
:102F70006B017C0120E030E0A9010E94CB4E20E0F3
:102F800030E040E05FE387FD08C0C701B6010E9462
:102F9000B74D0E94954E7B0151CFC701B6010E94EB
:102FA000B64DF7CFF12CE12C49CF27EFE2162FEFEA
:102FB000F20660F061E084E00E94560D82EB92E040
:102FC0000E94D30EC7010E94CE495BC93AE0E316C6
:102FD000F10460F461E084E00E94560D81EB92E020
:102FE0000E94D30EC7010E94CE494BC9C7010A9760
:102FF00061E08A35910558F484E00E94560D82EB19
:1030000092E00E94D30EC7010E94CE493AC984E0E3
:103010000E94560DC7010E94CE4933C9803109F084
:1030200030C980916D0F823009F02BC98DE9E81607
:103030008FEFF8060CF4BDCAC7018D599F4F8A3532
:10304000910540F461E084E00E94560DC7010E94A2
:10305000CE4917C997EFE9169FEFF90660F061E0D6
:1030600084E00E94560D82EB92E00E94D30EC701CD
:103070000E94CE4906C9EAE0EE16F10460F461E070
:1030800084E00E94560D81EB92E00E94D30EC701AE
:103090000E94CE49F6C8C7010A9761E08A359105BA
:1030A00058F484E00E94560D82EB92E00E94D30E09
:1030B000C7010E94CE49E5C884E00E94560DC701B1
:1030C0000E94CE49DEC880916F0F811149C0628194
:1030D00070E090E080E00E94FC4B26E636E646EE8B
:1030E0005FE30E945B4C26E636E646E453E40E942A
:1030F000B64D6B017C0120E030E0A9010E94CB4E6F
:1031000020E030E040E05FE387FD25C0C701B60165
:103110000E94B74D0E94954E7B0180916E0F8431C5
:1031200009F062C080916D0F843009F0AAC83DE9B2
:10313000E3163FEFF3060CF4E2CAC7018D599F4F27
:103140008A359105C0F461E080E00E94560DC70108
:103150000E94CE4996C8C701B6010E94B64DDACF8B
:10316000813031F46281262F2058330B7901D5CF7D
:10317000F12CE12CD2CF87EFE8168FEFF80660F044
:1031800061E080E00E94560D82EB92E00E94D30E37
:10319000C7010E94CE4975C89AE0E916F10460F4AF
:1031A00061E080E00E94560D81EB92E00E94D30E18
:1031B000C7010E94CE4965C8C7010A9761E08A35F8
:1031C000910558F480E00E94560D82EB92E00E9437
:1031D000D30EC7010E94CE4954C880E00E94560D0C
:1031E000C7010E94CE494DC8803109F04AC880917C
:1031F0006D0F823009F045C8EDE9EE16EFEFFE06DF
:103200000CF47DCAC7018D599F4F8A35910540F452
:1032100061E080E00E94560DC7010E94CE4931C88E
:10322000F7EFEF16FFEFFF0660F061E080E00E942D
:10323000560D82EB92E00E94D30EC7010E94CE4948
:1032400020C82AE0E216F10460F461E080E00E9408
:10325000560D81EB92E00E94D30EC7010E94CE4929
:1032600010C8C7010A9761E08A35910560F480E0D3
:103270000E94560D82EB92E00E94D30EC7010E947D
:10328000CE490C94411180E00E94560DC7010E9466
:10329000CE490C944111628170E090E080E00E9480
:1032A000FC4B20E030E040E251E40E945B4C23EB19
:1032B0003BE742E75DE30E945B4C6B017C0120E051
:1032C00030E0A9010E94CB4E20E030E040E05FE317
:1032D00087FD34C0C701B6010E94B74D0E94954ECC
:1032E0000E94FC4B20916E0F243111F00C9441117F
:1032F00020916D0F243011F00C94411120E030E04A
:1033000040E251E40E94234E6B017C0120E030E05A
:1033100040E251E40E94F54B87FF15C062E080E077
:103320000E94560D82EB92E00E94D30E41E050E0E5
:10333000C701B6010E94D50E0C944111C701B60118
:103340000E94B64DCBCF20E030E040E251E4C7010F
:10335000B6010E94CB4E87FF02C00C94411162E07F
:1033600080E00E94560D41E050E0C701B6010E9486
:10337000D50E0C94411180916F0F81114EC0628166
:1033800070E090E080E00E94FC4B25EB32EC44E7DB
:103390005DE30E945B4C20E030E040E251E40E949B
:1033A0005B4C6B017C0120E030E0A9010E94CB4E18
:1033B00020E030E040E05FE387FD42C0C701B60196
:1033C0000E94B74D0E94954E0E94FC4B20E030E0D9
:1033D00040E251E40E94234E6B017C0180916E0F0C
:1033E000843109F0D8C080916D0F843011F00C94B5
:1033F000411120E030E046EC52ECC701B6010E94DA
:10340000F54B181634F161E08DE00E94560D84EB07
:1034100092E00E94D30E0C9441118130B1F462818C
:1034200070E090E080E00E94FC4B25EB32EC44E73A
:103430005DE30E945B4C29ED31EA4CED50E4A9CFED
:10344000C701B6010E94B64DBDCFC12CD12C76016B
:10345000C5CF20E030E046EC52ECC701B6010E9437
:10346000CB4E1816D4F420E030E040E251ECC70116
:10347000B6010E94F54B181684F061E08DE00E94C1
:10348000560D82EB92E00E94D30E50E040E0C7015F
:10349000B6010E94D50E0C94411120E030E040E2CC
:1034A00051ECC701B6010E94CB4E1816ACF420E0D7
:1034B00030E0A901C701B6010E94F54B87FF0CC09F
:1034C00061E08DE00E94560D41E050E0C701B60179
:1034D0000E94D50E0C94411120E030E0A901C701F3
:1034E000B6010E94CB4E87FD1AC020E030E040E2DA
:1034F00051E4C701B6010E94F54B87FF10C061E09F
:103500008DE00E94560D82EB92E00E94D30E41E0C6
:1035100050E0C701B6010E94D50E0C94411120E085
:1035200030E040E251E4C701B6010E94CB4E87FD76
:1035300016C020E030E048EC52E4C701B6010E941A
:10354000F54B87FF0CC061E08DE00E94560D41E015
:1035500050E0C701B6010E94D50E0C94411120E045
:1035600030E048EC52E4C701B6010E94CB4E87FF21
:1035700002C00C94411161E08DE00E94560D82EB77
:1035800092E00E94D30E50E040E0C701B6010E94D5
:10359000D50E0C944111803111F00C9441118091A1
:1035A0006D0F823011F00C94411120E030E046ECB8
:1035B00052ECC701B6010E94F54B181654F061E0B9
:1035C00089E00E94560D84EB92E00E94D30E0C9489
:1035D000411120E030E046EC52ECC701B6010E94F8
:1035E000CB4E1816D4F420E030E040E251ECC70195
:1035F000B6010E94F54B181684F061E089E00E9444
:10360000560D82EB92E00E94D30E50E040E0C701DD
:10361000B6010E94D50E0C94411120E030E040E24A
:1036200051ECC701B6010E94CB4E1816ACF420E055
:1036300030E0A901C701B6010E94F54B87FF0CC01D
:1036400061E089E00E94560D41E050E0C701B601FB
:103650000E94D50E0C94411120E030E0A901C70171
:10366000B6010E94CB4E87FD1AC020E030E040E258
:1036700051E4C701B6010E94F54B87FF10C061E01D
:1036800089E00E94560D82EB92E00E94D30E41E049
:1036900050E0C701B6010E94D50E0C94411120E004
:1036A00030E040E251E4C701B6010E94CB4E87FDF5
:1036B00016C020E030E048EC52E4C701B6010E9499
:1036C000F54B87FF0CC061E089E00E94560D41E098
:1036D00050E0C701B6010E94D50E0C94411120E0C4
:1036E00030E048EC52E4C701B6010E94CB4E87FFA0
:1036F00002C00C94411161E089E00E94560D82EBFA
:1037000092E00E94D30E50E040E0C701B6010E9453
:10371000D50E0C944111C7010A978A35910568F4BA
:1037200060E088E00E94560D81EB92E00E94D30E8B
:10373000C7010E94CD0E0C944111C7018456910916
:1037400060E08438934060F488E00E94560D82EB7C
:1037500092E00E94D30EC7010E94CD0E0C9441113D
:1037600088E00E94560DC7010E94CD0E0C944111B5
:10377000803109F042C080916D0F8230F1F58AE00E
:10378000E816F1046CF460E089E00E94560D80EBCD
:1037900092E00E94D30EC7010E94CD0E0C944111FD
:1037A000C7010A978A35910568F460E089E00E94B4
:1037B000560D81EB92E00E94D30EC7010E94CD0E00
:1037C0000C944111C7018456910960E084389340FC
:1037D00060F489E00E94560D82EB92E00E94D30EC5
:1037E000C7010E94CD0E0C94411189E00E94560D34
:1037F000C7010E94CD0E0C944111FAE0EF16F104BE
:103800006CF460E081E00E94560D80EB92E00E9433
:10381000D30EC7010E94CD0E0C944111C7010A9727
:103820008A35910568F460E081E00E94560D81EBD5
:1038300092E00E94D30EC7010E94CD0E0C9441115C
:10384000C7018456910960E08438934060F481E0B8
:103850000E94560D82EB92E00E94D30EC7010E9497
:10386000CD0E0C94411181E00E94560DC7010E94BB
:10387000CD0E0C944111628170E090E080E00E94D6
:10388000FC4B20E030E040E251E40E945B4C23EB33
:103890003BE742E75DE30E945B4C6B017C0120E06B
:1038A00030E0A9010E94CB4E20E030E040E05FE331
:1038B00087FD34C0C701B6010E94B74D0E94954EE6
:1038C0000E94FC4B20916E0F243111F00C94411199
:1038D00020916D0F243011F00C94411120E030E064
:1038E00040E251E40E94234E6B017C0120E030E075
:1038F00040E251E40E94F54B87FF15C062E085E08D
:103900000E94560D82EB92E00E94D30E41E050E0FF
:10391000C701B6010E94D50E0C944111C701B60132
:103920000E94B64DCBCF20E030E040E251E4C70129
:10393000B6010E94CB4E87FF02C00C94411162E099
:1039400085E00E94560D41E050E0C701B6010E949B
:10395000D50E0C94411180916F0F81113AC0628194
:1039600070E090E080E00E94FC4B20E030E040E01E
:103970005FE30E945B4C6B017C0120E030E0A90119
:103980000E94CB4E20E030E040E05FE387FD30C096
:10399000C701B6010E94B74D0E94954EF62E809148
:1039A0006E0F843161F580916D0F843011F00C94AD
:1039B0004111F9E0FF1570F160E080E00E94560DC2
:1039C00081EB92E00E94D30E8F2D0E94C7490C9488
:1039D0004111813091F4628170E090E080E00E94BA
:1039E000FC4B2CEF3EEF4DEC5FE30E945B4CBDCFF8
:1039F000C701B6010E94B64DCFCFF12CD0CF803198
:103A000011F00C94411180916D0F823011F00C94E3
:103A10004111CFCF86EF8F0D60E08A3560F480E0F2
:103A20000E94560D82EB92E00E94D30E8F2D0E94D1
:103A3000C7490C94411180E00E94560D8F2D0E94C1
:103A4000C7490C944111C701B6010E94B64D5FCA27
:103A500086EF8F0D60E08A3560F480E10E94560D9C
:103A600082EB92E00E94D30E8F2D0E94C7490C94E6
:103A7000411180E10E94560D8F2D0E94C7490C9480
:103A800041110FB6F8941EBF0FBE0DBF0C94461126
:103A9000AF92BF92CF92DF92EF92FF920F931F935C
:103AA000CF93DF9300D000D01F92CDB7DEB7522F57
:103AB000932FCDB6DEB6E0914B14F0914C149E01DD
:103AC0002F5F3F4F3097E1F5F901EF54F441FA834E
:103AD000E983E981FA81D801D896EA17FB07A8F5AE
:103AE00087E0E8E6F2E0D90101900D928A95E1F7CE
:103AF00089017E01B8E0EB0EF11CF80181918F0184
:103B00000E94110BE016F106C1F70FB6F894DEBE65
:103B10000FBECDBE0FB6F894DEBE0FBECDBE27964B
:103B20000FB6F894DEBF0FBECDBFDF91CF911F91CE
:103B30000F91FF90EF90DF90CF90BF90AF900895DE
:103B4000D901AE1BBF0BFD01C2CF5801F6E0AF0E8D
:103B5000B11C2DB73EB72A193B090FB6F8943EBFEA
:103B60000FBE2DBFADB7BEB711967D012DE3EDB7EA
:103B7000FEB7218398012E5F3F4F11963C9311971A
:103B80002CEF2A0D12962C9312978295880F880F8E
:103B9000807C680F13966C93139714964C9314972C
:103BA0000115110561F0E52FF92F15969F01200FE2
:103BB000311FE217F30719F081918D93FACF0B5F54
:103BC0001F4FF701319680E09F012E193F09201702
:103BD000310718F49191890FF7CF0E0D1F1DD801F1
:103BE0008C9384E20E9472088701C8018E199F0994
:103BF0008A159B0508F089CFF80181918F010E94F9
:103C0000110BF3CF0F931F93CF93DF93CDB7DEB795
:103C1000E7970FB6F894DEBF0FBECDBF8091420E7E
:103C200089838091430E8A838091440E8B83809197
:103C30004A0E882309F453C181E08C838091510E90
:103C40008D838091500E8E830E9439058091620E83
:103C50008F838091630E88878091640E898780911D
:103C6000650E8A8720914B1430914C14CE01C69674
:103C70002115310509F035C18F5494419FAB8EABAE
:103C80008EA99FA99B878C870E946F098091C60D82
:103C9000882309F429C181E08D8780914B0E8E879E
:103CA00080914C0E8F878091FC12888B80914314F9
:103CB00090914414A0914514B0914614B98B809111
:103CC000431490914414A0914514B0914614AA8BCA
:103CD0008091431490914414A0914514B0914614DE
:103CE0009B8B8091431490914414A0914514B09102
:103CF00046148C8B8091471490914814A0914914DC
:103D0000B0914A14BD8B8091471490914814A091B2
:103D10004914B0914A14AE8B809147149091481485
:103D2000A0914914B0914A149F8B809147149091AF
:103D30004814A0914914B0914A14888F8091AA1117
:103D4000898F8091F1129091F212A091F312B091AB
:103D5000F412BA8F8091F1129091F212A091F312A5
:103D6000B091F412AB8F8091F1129091F212A09168
:103D7000F312B091F4129C8F8091F1129091F21293
:103D8000A091F312B091F4128D8F8091F512909161
:103D9000F612A091F712B091F812BE8F8091F51231
:103DA0009091F612A091F712B091F812AF8F809116
:103DB000F5129091F612A091F712B091F81298A313
:103DC0008091F5129091F612A091F712B091F8122D
:103DD00089A3809158108AA380919F119091A0117E
:103DE000A091A111B091A211BBA380919F119091BC
:103DF000A011A091A111B091A211ACA380919F112B
:103E00009091A011A091A111B091A2119DA38091B8
:103E10009F119091A011A091A111B091A2118EA318
:103E20008091A3119091A411A091A511B091A61118
:103E3000BFA38091A3119091A411A091A511B0915D
:103E4000A611A8A78091A3119091A411A091A511EA
:103E5000B091A61199A78091A3119091A411A0915E
:103E6000A511B091A6118AA78091700F8823F1F156
:103E700081E08BA780914E0E8CA780916E0F8DA74D
:103E800080916D0F8EA780914D0E8FA780916F0F3F
:103E900088AB8091450289AB8091420290914302A8
:103EA0009AAB8BAB80914002909141029CAB8DAB61
:103EB00005E310E09E012F5F3F4F40E062E080E0AD
:103EC0000E94481D90E080E0E7960FB6F894DEBFB0
:103ED0000FBECDBFDF91CF911F910F9108951C822E
:103EE000ADCE821B930BCACE1D86D7CE1BA6C2CFEA
:103EF0000F931F93CF93DF93CDB7DEB76E970FB6B7
:103F0000F894DEBF0FBECDBFE4E3FEE0808189837D
:103F100081818A83ECE2FEE080818B8381818C83C6
:103F200082818D8383818E8384818F83858188873D
:103F30008681898787818A87E4E2FEE080818B879A
:103F400081818C8782818D8783818E8784818F8711
:103F50008581888B8681898B87818A8B1B8A95E0F6
:103F60009C8B84E08D8B1E8A20E62F8B21ED288F81
:103F700020E7298F21E52A8F1B8E9C8F8D8F1E8E27
:103F80000EE110E09E012F5F3F4F41E065E080E0D1
:103F90000E94481D6E960FB6F894DEBF0FBECDBFCF
:103FA000DF91CF911F910F910895CF92DF92EF9201
:103FB000FF920F931F93CF93DF931F921F92CDB762
:103FC000DEB7182F81116CC18091AA1184FF00C146
:103FD00091E09093A71183FFB9C09093A91182FF3C
:103FE000B8C060E086E10E94DB0260E087E10E94E9
:103FF000DB0260E088E10E94DB0260E089E10E9470
:10400000DB0261E08AE10E94DB0261E08BE10E9459
:10401000DB028091AA11837009F0C1C08FEF93E099
:104020000E94EA0A8FEF93E09093AC118093AB115A
:104030008091581084FF21C191E09093551083FF27
:10404000DAC09093571082FFD9C060E086E10E94E9
:10405000DB0260E087E10E94DB0260E088E10E9411
:10406000DB0260E089E10E94DB0261E08CE10E94FA
:10407000DB0261E08DE10E94DB02809158108370C9
:1040800009F0E2C08FEF93E00E94680A8FEF93E09F
:1040900090935A10809359106A9A72984091AA117D
:1040A00064E270E080E090E00E942808409158109F
:1040B00065E270E080E090E00E942808C12CD12CDD
:1040C000760110E0C701B6010E940D0D180F8FEFA9
:1040D000C81AD80AE80AF80A8FEFC816D104E10412
:1040E000F10481F7412F6FEF70E080E090E00E94D3
:1040F0002808729A1093510E1093500E81E080930D
:104100004F0E19828091AA118A8302E010E09E016D
:104110002F5F3F4F43E063E080E00E94481D19821B
:10412000809158108A839E012F5F3F4F43E063E0E8
:1041300080E00E94481D0F900F90DF91CF911F915A
:104140000F91FF90EF90DF90CF9008951092A911FA
:1041500046CF10925510809158108F7E8093581042
:1041600060E08AE10E94DB0260E08BE10E94DB02FA
:1041700060E08CE10E94DB0260E08DE10E94DB02E6
:1041800060E088E10E94DB0260E089E10E94DB02DE
:1041900061E086E10E94DB0261E087E138CF813097
:1041A00039F48FE790E00E94EA0A8FE790E03CCF75
:1041B000823039F48FE090E00E94EA0A8FE090E0CC
:1041C00033CF87E090E00E94EA0A87E090E02CCFAE
:1041D0001092A71160E086E10E94DB0260E087E1B7
:1041E0000E94DB0260E08AE10E94DB0260E08BE17A
:1041F0000E94DB021DCF1092571025CF1092A711FD
:104200008091AA118F7E8093AA1160E08AE10E94BA
:10421000DB0260E08BE10E94DB0260E08CE10E9447
:10422000DB0260E08DE10E94DB0260E086E10E943B
:10423000DB0260E087E10E94DB0261E088E10E942E
:10424000DB0261E089E117CF813039F48FE790E03C
:104250000E94680A8FE790E01BCF823039F48FE02C
:1042600090E00E94680A8FE090E012CF87E090E033
:104270000E94680A87E090E00BCF1092551060E032
:1042800088E10E94DB0260E089E10E94DB0260E0DD
:104290008CE10E94DB0260E08DE10E94DB02FCCE3B
:1042A0008295869586958370823009F08BC015FFC4
:1042B000F3CE14FF74C081E08093A71113FF2DC0CB
:1042C0008093A91112FF2CC060E086E10E94DB02FE
:1042D00060E087E10E94DB0260E088E10E94DB028F
:1042E00060E089E10E94DB0261E08AE10E94DB027A
:1042F00061E08BE10E94DB02812F8370B9F58FEFC3
:1043000093E00E94EA0A8FEF93E09093AC118093C0
:10431000AB111F7D1093AA11BFCE1092A911D2CF5D
:1043200010925510809158108F7E8093581060E045
:104330008AE10E94DB0260E08BE10E94DB0260E028
:104340008CE10E94DB0260E08DE10E94DB0260E014
:1043500088E10E94DB0260E089E10E94DB0261E00B
:1043600086E10E94DB0261E087E1C4CF813039F44D
:104370008FE790E00E94EA0A8FE790E0C6CF823094
:1043800039F48FE090E00E94EA0A8FE090E0BDCF20
:1043900087E090E00E94EA0A87E090E0B6CF1092B2
:1043A000A71160E086E10E94DB0260E087E10E94E5
:1043B000DB0260E08AE10E94DB0260E08BE10E94A8
:1043C000DB02A7CF833009F067CE15FF65CE14FF5F
:1043D00074C081E08093551013FF2DC08093571057
:1043E00012FF2CC060E086E10E94DB0260E087E102
:1043F0000E94DB0260E088E10E94DB0260E089E16C
:104400000E94DB0261E08CE10E94DB0261E08DE151
:104410000E94DB02812F8370B9F58FEF93E00E9439
:10442000680A8FEF93E090935A10809359101F7D84
:104430001093581031CE10925710D2CF1092A7116E
:104440008091AA118F7E8093AA1160E08AE10E9478
:10445000DB0260E08BE10E94DB0260E08CE10E9405
:10446000DB0260E08DE10E94DB0260E086E10E94F9
:10447000DB0260E087E10E94DB0261E088E10E94EC
:10448000DB0261E089E1C4CF813039F48FE790E04D
:104490000E94680A8FE790E0C6CF823039F48FE03F
:1044A00090E00E94680A8FE090E0BDCF87E090E046
:1044B0000E94680A87E090E0B6CF1092551060E045
:1044C00088E10E94DB0260E089E10E94DB0260E09B
:1044D0008CE10E94DB0260E08DE10E94DB02A7CF4D
:1044E000CF92DF92EF92FF920F931F93CF93809121
:1044F0004A0E8823A9F11092500EC12CD12C7601BE
:10450000C701B6010E940D0DC091500EC80FC09397
:10451000500E8FEFC81AD80AE80AF80A8FEFC816AB
:10452000D104E104F10461F721E030E041E55EE00F
:104530006FEF70E080E090E00E94AD0B8091510E33
:10454000C8130BC081E080934F0ECF911F910F9144
:10455000FF90EF90DF90CF90089510924F0EF5CF1F
:1045600001E010E02FE332E04BEF6FE080E00E94CB
:10457000481DEBCF4F925F926F927F928F929F92E6
:10458000AF92BF92CF92DF92EF92FF920F931F9361
:10459000CF93DF9300D000D01F92CDB7DEB7CDB65A
:1045A000DEB68091A711882309F4BBC58091AB11B9
:1045B0009091AC118F37910509F046C38091CA12D2
:1045C000811135C18091CC12811131C10E942D051C
:1045D0000091C5121091C6122091C7123091C812D5
:1045E000601B710B820B930B623371058105910582
:1045F00008F40BC20E94880A882309F406C2ADB6EB
:10460000BEB60E94880A8093C0118091C01190E0CC
:1046100004962DB73EB7281B390B0FB6F8943EBF52
:104620000FBE2DBF8DB79EB701967C010E94390544
:104630008091620EF70180838091630E8183809167
:10464000640E82838091650E838310E08091C01197
:10465000181740F40E94CA0AF701E10FF11D848384
:104660001F5FF4CF0091C01110E00C5F1F4F970146
:1046700041E067E082E00E94481D4091C0114C5F1C
:10468000B70182E00E940111F7018481823141F477
:104690008091AA118E7F82638093AA110E94D51FF8
:1046A0009091CE12992349F18091D01281117DC051
:1046B0002091C3122130E1F52091D412E2ECF1E116
:1046C000D7011496281731F041913D91431390E0A2
:1046D0008F5FF8CF992319F081E08093CF128091FA
:1046E000D312882351F01092C2121092CE1210925F
:1046F000CF121092D0121092D2120E94810A809191
:10470000F1129091F212A091F312B091F41201966D
:10471000A11DB11D8093F1129093F212A093F31298
:10472000B093F4120FB6F894BEBE0FBEADBE6DC10D
:104730002230A8F24091D4128091C212A82FB0E08A
:10474000AD53BE4EF701349630E0431731F06D9112
:104750005191651390E03F5FF8CF992309F4BFCFE3
:1047600031E03093CF129091C4129F5F9093C412A6
:10477000E82FE40FEF5FE093C212F0E0E955FE4E40
:10478000838D8093D4122913AACF1092C412109251
:10479000C2128091C2118093D4128091D2128823C8
:1047A00009F49DCF3093D3129ACF2091C0118091FC
:1047B000D41290E001962817190621F581E0809324
:1047C000CF121092E5128091D312882309F495CF6D
:1047D0001092C2121092D4121092CE121092CF12D6
:1047E0001092D0121092D212198282E08A8302E0D3
:1047F00010E09E012F5F3F4F41E066E080E00E94A5
:10480000481D7BCF91E09093C9128091E5128F5F94
:104810008093E5128B3020F09093CF121092E51226
:1048200068EC70E080E090E00E94FB04CCCF0E9436
:104830002D050091C5121091C6122091C71230911A
:10484000C812601B710B820B930B6A3071058105D6
:10485000910508F4DAC00E94880A882309F4D5C0BB
:1048600090E080E00E94A90A439709F446C090E0D6
:1048700080E00E94A90A8A9709F084C081E090E054
:104880000E94A90A892B09F07DC0ADB6BEB60E9470
:10489000880A8093C0118091C01190E004962DB7D2
:1048A0003EB7281B390B0FB6F8943EBF0FBE2DBF85
:1048B0008DB79EB701967C010E9439051092CC12EB
:1048C0001092CD128091620EF70180838091630E69
:1048D00081838091640E82838091650E838310E0D2
:1048E0008091C011181708F064C00E94CA0AF7012D
:1048F000E10FF11D84831F5FF3CF81E090E00E9400
:10490000A90A892B09F0B3CF82E090E00E94A90A9E
:10491000892B09F0ACCFADB6BEB60E94880A809351
:10492000C0118091C01190E004962DB73EB7281BAE
:10493000390B0FB6F8943EBF0FBE2DBF8DB79EB793
:1049400001967C010E9439051092CA121092CB1276
:104950008091620EF70180838091630E8183809144
:10496000640E82838091650E838310E08091C01174
:104970001817F8F40E94CA0AF701E10FF11D8483A9
:104980001F5FF4CF0E942D050091D30D1091D40D1F
:104990002091D50D3091D60D601B710B820B930BBE
:1049A000683C71058105910508F005C10E94CA0A9D
:1049B00017C00091C01110E00C5F1F4F970141E03C
:1049C00067E082E00E94481D4091C0114C5FB70132
:1049D00082E00E9401110FB6F894BEBE0FBEADBEBC
:1049E0000E94810A8091F1129091F212A091F3122B
:1049F000B091F4120196A11DB11D8093F112909314
:104A0000F212A093F312B093F4128091CE12882385
:104A1000E1F10E94880A811138C00E942D0560933F
:104A2000660E7093670E8093680E9093690E0091E6
:104A3000E1121091E2122091E3123091E4124B0145
:104A40005C01801A910AA20AB30A0091DF12109148
:104A5000E01230E020E080169106A206B306A8F02E
:104A60006093E1127093E2128093E3129093E41248
:104A70008091CF12882349F08091D012811125C2F4
:104A800081E08093C9121092CF128091C9128823BD
:104A900009F447C30E94880A182F811142C320914C
:104AA000AB113091AC118091C3122F37310509F051
:104AB000DBC3813009F09DC38091C2121817E8F45E
:104AC0000E942D054B015C01E12FF0E0E955FE4EFF
:104AD000838D0E94900A00E00E94880A181708F44B
:104AE000D4C2002309F4D5C201E010E02FE332E084
:104AF0004EEF6FE080E00E94481D8091C21282302C
:104B000008F4FAC20E94880A823020F190E080E026
:104B10000E94A90A4397F1F481E090E00E94A90A5B
:104B2000892BC1F00E942D054B015C0110E00E9411
:104B3000880A9091C212981708F4B9C2112309F497
:104B4000C2C201E010E02FE332E04EEF6FE080E000
:104B50000E94481D8091C212823008F4CDC20E948A
:104B6000880A823008F4C8C290E080E00E94A90A56
:104B70008A9709F0C1C281E090E00E94A90A892BBE
:104B800009F4BAC20E942D054B015C0110E00E949D
:104B9000880A9091C212981708F4A3C2112309F44D
:104BA0001AC301E010E02FE332E04EEF6FE080E047
:104BB0000E94481DA1C20E942D056093D30D7093E1
:104BC000D40D8093D50D9093D60D0E94880A8093C2
:104BD000C0110E9439058091620E89838091630E15
:104BE0008A838091640E8B838091650E8C83809183
:104BF000CA129091CC128823F1F091111CC083E16C
:104C00008D838091CB128E830E94CA0A8F8307E026
:104C100010E09E012F5F3F4F41E067E082E00E947D
:104C2000481D4091C0114C5FBE016F5F7F4F82E015
:104C30000E940111D5CE992339F38111E5CF8AE283
:104C40008D838091CD12DFCF0F9709F0AEC00E9407
:104C5000880A882309F4D9CEADB6BEB60E94880A68
:104C60008093C0110091C01110E0000F111F0D5F63
:104C70001F4F2DB73EB7201B310B0FB6F8943EBF28
:104C80000FBE2DBF8DB79EB701967C010E943905DE
:104C90008091620EF70180838091630E8183809101
:104CA000640E82838091650E83838091C31281306C
:104CB000E9F48091C21184830E94CA0A712C809108
:104CC000C2127816D8F5872D90E04C01880C991CFB
:104CD0008E0C9F1C89559E4EFC01848DF4018583AA
:104CE0000E94CA0AF40186837394E9CF823060F18E
:104CF000E091C212F0E0E955FE4E848DF701848305
:104D00000E94CA0A712C8091D4127816B8F4872DAB
:104D100090E04C01880C991C8E0C9F1CE091C212F3
:104D2000F0E0E955FE4EE80FF91F858DF40185830B
:104D30000E94CA0AF40186837394E5CF970142E08A
:104D400067E082E00E94481DF70184818E3F41F4B4
:104D50008091AA118D7F81638093AA110E94D51F33
:104D60008091CE128823C9F08091D0128111A0C009
:104D70009091C312913009F070C09093CF1280913E
:104D8000D312882351F01092C2121092CE121092B8
:104D9000CF121092D0121092D2124091C0114C5FDB
:104DA000B70182E00E940111A8CC0E942D0500915C
:104DB000C5121091C6122091C7123091C812601B03
:104DC000710B820B930B623371058105910508F419
:104DD0001CCE0E94880A882309F417CEADB6BEB651
:104DE0000E94880A8093C0118091C01190E00496BF
:104DF0002DB73EB7281B390B0FB6F8943EBF0FBE38
:104E00002DBF8DB79EB701967C010E943905809118
:104E1000620EF70180838091630E81838091640E1E
:104E200082838091650E838310E08091C0111817F2
:104E300040F40E94CA0AF701E10FF11D84831F5F4D
:104E4000F4CF0091C01110E00C5F1F4F970141E0BB
:104E500067E082E00E94481D83CF923008F48FCF34
:104E600021E02093CF128091C4128F5F8093C412EF
:104E7000E091C2123091D412E30FEF5FE093C212BF
:104E8000F0E0E955FE4E338D3093D412981377CF6E
:104E90001092C4121092C2128091C2118093D41247
:104EA0008091D212882309F46ACF2093D31267CF5E
:104EB00081E08093CF128091D312882309F46DCFC3
:104EC0001092C2121092D41260CF2091D4122430CA
:104ED00009F04DC08091C212811113C08091D5128A
:104EE0009091D6123091D7124091D8124093C211AE
:104EF0003093C3119093C4118093C5112093C212B3
:104F0000BFCD6091C2117091C3118091C411909175
:104F1000C5110E94DD4E8090DD129090DE12B12C02
:104F2000A12CDC01CB01880D991DAA1DBB1DB093DE
:104F3000C211A093C3119093C4118093C511209303
:104F4000C212880E991EAA1EBB1E0091D912109182
:104F5000DA122091DB123091DC12081519052A05AE
:104F60003B0508F08DCD81E08093D31289CD2330AD
:104F700009F045C08091C21281110DC08091D512F7
:104F80009091D6123091D7123093C2119093C311E1
:104F90008093C411B3CF3091C2118091C31190E0BE
:104FA000B0E0A0E0BA2FA92F982F8827A32B30912B
:104FB000C411832B4091DD125091DE1270E060E04D
:104FC000840F951FA61FB71FA093C2119093C31102
:104FD0008093C4112093C212840F951FA61FB71F80
:104FE0004091D9125091DA126091DB127091DC126B
:104FF000481759076A077B0708F4B5CF41CD22301F
:1050000029F58091C212811109C08091D512909129
:10501000D6129093C2118093C31170CF4091DD12CC
:105020005091DE128091C2119091C3119827892767
:105030009827840F951F9093C2118093C3112093DA
:10504000C212840F951FB0E0A0E0CACF213009F052
:1050500017CD8091C212811108C08091D512809322
:10506000C21181E08093C2120BCD2091DD123091EC
:10507000DE128091C211820F8093C21191E0909351
:10508000C212820F932F911DDECF01112DCD1F5F14
:1050900013CD0E942D05681979098A099B0901E041
:1050A000643171058105910508F016CD14CD1111FB
:1050B00048CD81E08093CA128091C3118093CB12B6
:1050C0000E94810A47CD0E942D05681979098A0935
:1050D0009B0911E0643671058105910508F027CD23
:1050E00025CD11115ECD81E08093CC128091C3114A
:1050F0008093CD120E94810A1092C9128091F512FC
:105100009091F612A091F712B091F8120196A11D9C
:10511000B11D8093F5129093F612A093F712B093FD
:10512000F81280915510882309F4A8C28091591073
:1051300090915A108F37910509F03CC30E942D05BC
:1051400000917311109174112091751130917611A5
:10515000601B710B820B930B623371058105910506
:1051600008F4FFC10E94270A882309F4FAC1ADB6EA
:10517000BEB60E94270A80936E1080916E1090E058
:1051800004962DB73EB7281B390B0FB6F8943EBFD7
:105190000FBE2DBF8DB79EB701967C010E943905C9
:1051A0008091620EF70180838091630E81838091EC
:1051B000640E82838091650E838310E080916E106F
:1051C000181708F068C10E94480AF701E10FF11DA5
:1051D00084831F5FF3CF0E942D05681979098A091E
:1051E0009B0911E0643671058105910508F0CFCC6B
:1051F000CDCC823008F480CF1091C2121F5FE12E17
:10520000F12C8091C21290E001962091D412820F6D
:10521000911DE816F9060CF06FCF0E942D052B01A9
:105220003C01F701E955FE4E838D0E94900A00E093
:105230008091C2125701A81AB1080E94880A8A15E3
:105240001B047CF40111ADCC0E942D056419750975
:105250008609970901E0643171058105910540F7E0
:10526000E6CF002359F29DCC2F30310509F0A4C0C0
:105270008130D1F58091C211E8E2F2E09191891775
:1052800009F41AC622E0E833F207C1F701E010E0A2
:1052900022EC31E149EF8ACCB11041C690E080E0C8
:1052A0000E94A90A2091C21128171906D9F00E945C
:1052B000810A1F5F1A3008F421C601E010E022ECD9
:1052C00031E148EF73CC0E942D05641975098609F8
:1052D0009709BB24B394653071058105910508F0E9
:1052E00016C614C60F5FFBC5823008F405CF0091C7
:1052F000C212E02FF0E0E955FE4E248DE8E2F2E024
:1053000088E392E03191231709F417C68E179F079F
:10531000C9F7BCCF911046C090E080E00E94A90A76
:10532000E091C212F0E0E955FE4E248D28171906CF
:10533000A1F00E94810A1F5F1A3020F1BECF0E94A7
:105340002D05641975098609970999249394653088
:10535000710581059105F8F41DC0A394B02EBA0C17
:105360004A2D50E08091C21290E001962091D41213
:10537000820F911D481759070CF0BECE9A012E538B
:105380003E4E79010E942D052B013C01F7018081E1
:105390000E94900A912C0E94880AB81608F4BACF8D
:1053A000992069F2E091C212F0E0E855FE4E838D3B
:1053B0008983EB0DF11DB7C5813041F58091C21293
:1053C000181708F099CE0E942D054B015C01E12FC2
:1053D000F0E0E955FE4E838D0E94900A00E00E94A5
:1053E000880A181778F00111DCCB0E942D05681986
:1053F00079098A099B0901E06431710581059105EC
:1054000070F7ECCF0111CDCB1F5FD8CF823008F4FD
:1054100073CEB090C21211E01B0DB0940B2D010F92
:10542000E12EF12C8091C21290E001962091D412CD
:10543000820F911DE816F9060CF05ECE0E942D0534
:105440002B013C01F701E955FE4E838D0E94900A25
:10545000F12C0E94880A081760F0FF2071F0E0919B
:10546000C212F0E0E855FE4E838D8983E00FF11DF6
:105470005AC5F110F4CF1F5FD1CF0E942D056419DA
:10548000750986099709FF24F39464317105810534
:105490009105F8F6DDCF00916E1010E00C5F1F4F04
:1054A000970141E067E083E00E94481D40916E1043
:1054B0004C5FB70183E00E940111F70184818231C2
:1054C00041F4809158108E7F8263809358100E941F
:1054D000D51F90917C11992351F180917E118111FA
:1054E00027C120917111213009F0E4C0209182116F
:1054F000A0E7B0E1F7013496281731F04D913191D2
:10550000431390E08F5FF8CF992319F081E08093E7
:105510007D1180918111882351F0109270111092A9
:105520007C1110927D1110927E11109280110E94B8
:10553000200A80919F119091A011A091A111B0918A
:10554000A2110196A11DB11D80939F119093A011EE
:10555000A093A111B093A2110FB6F894BEBE0FBED6
:10556000ADBE80917C118823E1F10E94270A811150
:1055700038C00E942D056093660E7093670E80936D
:10558000680E9093690E00918F11109190112091E7
:105590009111309192114B015C01801A910AA20A7B
:1055A000B30A00918D1110918E1130E020E0801629
:1055B0009106A206B306A8F060938F117093901124
:1055C000809391119093921180917D11882349F0DD
:1055D00080917E1181112FC281E08093771110920A
:1055E0007D1180917711882309F448C00E94270A11
:1055F000182F811143C02091591030915A10809179
:1056000071112F37310509F043C3813009F005C30B
:10561000809170111817E8F40E942D054B015C0170
:10562000E12FF0E0EB5AFF4E838D0E942F0A00E03D
:105630000E94270A181708F4DEC2002309F4DFC20B
:1056400001E010E02FE332E04EEF6FE080E00E94D7
:10565000481D109277118091A3119091A411A091EF
:10566000A511B091A6110196A11DB11D8093A311A2
:105670009093A411A093A511B093A6110FB6F8941E
:10568000DEBE0FBECDBE27960FB6F894DEBF0FBEAE
:10569000CDBFDF91CF911F910F91FF90EF90DF90E1
:1056A000CF90BF90AF909F908F907F906F905F90C2
:1056B0004F900895223008F42CCF409182118091B0
:1056C0007011A82FB0E0AF58BF4EF701349630E00C
:1056D000431731F06D915191651390E03F5FF8CF22
:1056E000992309F416CF31E030937D119091721116
:1056F0009F5F90937211E82FE40FEF5FE0937011BA
:10570000F0E0EB5AFF4E838D80938211291301CF75
:10571000109272111092701180917010809382110A
:1057200080918011882309F4F4CE30938111F1CE59
:1057300020916E108091821190E001962817190631
:1057400021F581E080937D11109293118091811158
:10575000882309F4ECCE10927011109282111092ED
:105760007C1110927D1110927E111092801119827D
:1057700083E08A8302E010E09E012F5F3F4F41E00B
:1057800066E080E00E94481DD2CE91E090937711B0
:10579000809193118F5F809393118B3020F09093C1
:1057A0007D111092931168EC70E080E090E00E940F
:1057B000FB04CCCF0F9709F0AEC00E94270A8823C4
:1057C00009F4CFCEADB6BEB60E94270A80936E1004
:1057D00000916E1010E0000F111F0D5F1F4F2DB7CD
:1057E0003EB7201B310B0FB6F8943EBF0FBE2DBF46
:1057F0008DB79EB701967C010E9439058091620E9B
:10580000F70180838091630E81838091640E82838F
:105810008091650E8383809171118130E9F48091CC
:10582000701084830E94480A712C80917011781640
:10583000D8F5872D90E04C01880C991C8E0C9F1C8C
:105840008B5A9F4EFC01848DF40185830E94480A87
:10585000F40186837394E9CF823060F1E091701196
:10586000F0E0EB5AFF4E848DF70184830E94480AD2
:10587000712C809182117816B8F4872D90E04C013C
:10588000880C991C8E0C9F1CE0917011F0E0EB5A73
:10589000FF4EE80FF91F858DF40185830E94480AA9
:1058A000F40186837394E5CF970142E067E083E0DB
:1058B0000E94481DF70184818E3F41F48091581069
:1058C0008D7F8163809358100E94D51F80917C1139
:1058D0008823C9F080917E118111A0C0909171112F
:1058E000913009F070C090937D11809181118823CF
:1058F00051F01092701110927C1110927D11109243
:105900007E111092801140916E104C5FB70183E0C0
:105910000E9401110CCE0E942D050091731110916F
:1059200074112091751130917611601B710B820BEF
:10593000930B623371058105910508F412CE0E9424
:10594000270A882309F40DCEADB6BEB60E94270AF9
:1059500080936E1080916E1090E004962DB73EB744
:10596000281B390B0FB6F8943EBF0FBE2DBF8DB765
:105970009EB701967C010E9439058091620EF70165
:1059800080838091630E81838091640E82838091F5
:10599000650E838310E080916E10181740F40E940A
:1059A000480AF701E10FF11D84831F5FF4CF0091D6
:1059B0006E1010E00C5F1F4F970141E067E083E03D
:1059C0000E94481D83CF923008F48FCF21E02093AE
:1059D0007D11809172118F5F80937211E09170112F
:1059E00030918211E30FEF5FE0937011F0E0EB5A1A
:1059F000FF4E338D30938211981377CF109272112E
:105A0000109270118091701080938211809180119A
:105A1000882309F46ACF2093811167CF81E08093B6
:105A20007D1180918111882309F46DCF109270113E
:105A30001092821160CF20918211243009F04DC064
:105A400080917011811113C0809183119091841104
:105A500030918511409186114093701030937110F0
:105A6000909372108093731020937011B5CD609154
:105A700070107091711080917210909173100E944B
:105A8000DD4E80908B1190908C11B12CA12CDC01FB
:105A9000CB01880D991DAA1DBB1DB0937010A0935A
:105AA0007110909372108093731020937011880E70
:105AB000991EAA1EBB1E009187111091881120917A
:105AC000891130918A11081519052A053B0508F03E
:105AD00083CD81E0809381117FCD233009F045C0D3
