:100000000C9455030C940F340C94E4330C94B933D2
:100010000C948E330C9463330C9438330C940D335E
:100020000C94E2320C9486030C9486030C948603A1
:100030000C9486030C9486030C9486030C9486031C
:100040000C9486030C943A340C9486030C94860327
:100050000C9486030C9486030C9486030C949832BB
:100060000C9486030C94A4370C945F370C9486038D
:100070000C9486030C9486030C9486030C948603DC
:100080000C9487340C9486030C9486030C9486039A
:100090000C94DA340C94A7340C9486030C941B351E
:1000A0000C9486030C9486030C9486030C948603AC
:1000B0000C9486030C9486030C9486030C9486039C
:1000C0000C9486030C9486030C9486030C941037CE
:1000D0000C94CF360C9486030C9480360C943F36E7
:1000E0000C9486030C947B070C9444440C94B90440
:1000F0000C94EC200C9488030C940B060C9467432E
:100100000C94AB040C94B1040C944A3E0C944A0831
:100110000C9406430C9405460C9490040C94B5047E
:100120000C94A4070C949D070C94F5050C9488423C
:100130000C9472040C949D040C94D1070C9410043C
:100140000C948A070C9452400C9493040C94244110
:100150000C94CE410C9478080C945E420C94FA40B6
:100160000C943A0D0C94C3040C9498410C9489039C
:100170000C9468390C9488040C9499040C94F04CF9
:100180000C94733E0C94FF450C947E400C943C3EC2
:100190000C94F6050C94BF040C94A7040C948404EE
:1001A0000C94A3040C9496400C94763E0C948C040E
:1001B0000C947A070C946D040C9449084343442F23
:1001C00053434900202000205343414E4E455220C6
:1001D000560043485259534C4552204343442F53F1
:1001E0004349002D2D2D2D2D2D2D2D2D2D2D2D2D3A
:1001F0002D2D2D2D2D2D2D002020202000202020E4
:100200005343414E4E4552205600202043485259F8
:10021000534C4552204343442F5343492020002D43
:100220002D2D2D2D2D2D2D2D2D2D2D2D2D2D2D2DFE
:100230002D2D2D00202020203072706D00202030C8
:1002400020432020202020302E306B5061002020C1
:10025000306B6D2F6820202020203072706D0020C0
:1002600020202020302E3030306B6D2020202020A8
:100270002020200020302E302F20302E30562020FD
:100280002020202020202020002020302F2020305F
:1002900020432020202020302E306B506100202071
:1002A000306B6D2F68202020203072706D20202050
:1002B000302500202020203072706D00202030205A
:1002C000462020202020302E3070736900202030FE
:1002D0006D70682020202020203072706D0020205A
:1002E000202020302E3030306D692020202020202A
:1002F00020200020302E302F20302E30562020207D
:1003000020202020202020002020302F20203020DE
:10031000462020202020302E3070736900202030AD
:100320006D706820202020203072706D20202030D9
:10033000250000002100240027002A002D003000A5
:10034000330001010000040107010A01000022003E
:10035000250028002B002E0031003400020100008F
:10036000050108010B010505050507050808080832
:10037000020202020A0A080804040404010101013D
:100380000101010103030303030303030407070738
:100390000C0C0C0C0C0C0C0C0202020206060606DD
:1003A000060606060B0B0B0B0B0B0B0B01021020AA
:1003B000200808102040102040800201020108049B
:1003C000020101020408102040808040201008042F
:1003D0000201800402018040201008040201080488
:1003E00002010102040810204080010204081020CC
:1003F000408000000A0B02090C0D0E0807030401DF
:1004000000000000000000000000000000000000EC
:1004100000000000000000000000000000001211B9
:1004200010000000000000000000000000000000BC
:1004300000000000000000004C010003683780004D
:10044000B2FA00019EF810B708F820B75EF84537F9
:100450008701F2B6E8F511FA000188FA00019E174B
:10046000FA01B617F501B6FA000188FA00019E17E5
:10047000FA01B717F501B7FA000188F500379C3784
:10048000BC0206FA00019ECA00C500FA0001883CC1
:1004900001273101B6B6E837B50FA0FA0001AEF575
:1004A00004379C37BC8000F514FA000188B08EF543
:1004B00021FA000188FA000206B082FA00019EFAD1
:1004C00000018827F717657C0C7601B7F417EA7CE2
:1004D0000F37B50043FA0001AE27F717657C0D769C
:1004E000427840B6F217E57C0F27F737B00001B627
:1004F000F627F7274C373B00E0F50F379E37BE80D5
:1005000000F500379F37BF07F6371527FA379DF5F7
:1005100004379C37BC800037B5014837EA7A002899
:10052000807A2137B500CF37EA7A4437B5040537EA
:10053000EA7A4837EA7A4C37B568F037EA7A4A37C8
:10054000B570F037EA7A4E37B5FF8837EA7A543714
:10055000B5783037EA7A5637B5F88137EA08143774
:10056000E5081237B7000137EA081237B50000373F
:10057000EA081827290806FFFF2729080803FF278C
:10058000F53735082427AA7C0437380838B3F21722
:10059000257920272808602000FA00026AF522FA4F
:1005A0000001887A00010437B5408837EA7C00757D
:1005B00006176A7C0475FE176A7C057533176A7C1A
:1005C0001675F8176A7C1575FE176A7C1737B581A2
:1005D0000837EA7C1837B5100037EA7C1A37B500BF
:1005E0000037EA7C1C7500176A7C1E37354242379B
:1005F0006A7D4137350202376A7D433735C202379B
:100600006A7D453735C242376A7D4837B5010037C4
:10061000EA7D2437B5020237EA7C1CFA0002E4279F
:10062000F728807C1F29807C1A37053701B70A2AF2
:10063000807C1FFFF628807C1F3706B004373B0103
:100640000037FCF5A527F7F546FA000188FA000106
:100650009E379CFA000188FA00019E17FA0366FA99
:10066000000188FA00019E17FA036717FC0366FA77
:10067000000188FA00019E17FA01B6FA000188FA13
:1006800000019E17FA01B7377501B6FA000188C557
:1006900000FA0001883C0127763787FDA237300039
:1006A00001B0E8274C006839F04C11241FBECFEF91
:1006B000D1E2DEBFCDBF00E00CBF13E0A0E0B2E0AE
:1006C000E4E8F5EA00E00BBF02C007900D92A2300B
:1006D000B107D9F724E1A2E0B3E001C01D92A13C2B
:1006E000B207E1F713E0C4E5D3E000E006C02197CC
:1006F0000109802FFE010E94B051C335D10780E06F
:100700000807A9F70E94BE390C94B0520C9400005F
:1007100008950895F8949091A50F8091A40F9813CF
:1007200004C0789480E092E008957894E091A40F5A
:10073000EF5FF0E0EC55F14F20819091A30E892FEF
:1007400090E0982F8827820F911D08952091E10F46
:10075000222309F447C0E22FE695E695E695F0E0FE
:10076000ED5EFF4E808190E0277002C095958795E1
:100770002A95E2F780FD36C080910D108823A9F1FB
:100780008091F10F823088F1E091F10FE15090E01B
:1007900080E020E08E1740F4DC01A053B04F51966A
:1007A0003C91230F0196F6CFF0E0E053F04F8189A2
:1007B00028130DC080E09091F10F891718F5E82FEC
:1007C000F0E0E053F04F918990838F5FF4CFE09198
:1007D0003510F0913610309729F060E970E090E024
:1007E00080E019951092F10F089580E09091F10F3B
:1007F000891740F4E82FF0E0E053F04F918990839F
:100800008F5FF4CF6091F10F6093E00FE0913310B0
:10081000F0913410309731F380ED9FE01995E2CFDD
:10082000AF92BF92CF92DF92EF92FF920F931F93FE
:10083000CF93DF936C017B018B01040F151FEB013C
:100840005E01AE18BF08C017D10759F06991D601F3
:10085000ED91FC910190F081E02DC6011995892B55
:1008600079F7C501DF91CF911F910F91FF90EF9024
:10087000DF90CF90BF90AF900895282F30E0F9011E
:10088000EE50FC4F9491F901E455FC4F44912A59E4
:100890003C4FF9012491222309F435C0992311F129
:1008A00091509231F8F4E92FF0E08827E55AFB4F98
:1008B0008F4F0C94B0518C0490046D048404880410
:1008C0007204930499049D04A304A704AB04B10427
:1008D000B5047204B904BF04C304809180008F770B
:1008E00080938000E22FF0E0EE0FFF1FE45BFC4FEF
:1008F000A591B4918FB7F894EC91611148C04095DF
:100900004E234C938FBF0895809180008F7DE8CF58
:1009100080918000877FE4CF84B58F7784BDE2CF5C
:1009200084B58F7DFBCF8091B0008F778093B0002E
:10093000D9CF8091B0008F7DF9CF809190008F77D3
:1009400080939000CFCF809190008F7DF9CF8091E0
:100950009000877FF5CF8091A0008F778093A000D3
:10096000C1CF8091A0008F7DF9CF8091A000877FBB
:10097000F5CF809120018F7780932001B3CF8091B4
:1009800020018F7DF9CF80912001877FF5CF4E2BFD
:10099000B8CFCF93DF9390E0FC01E455FC4F249156
:1009A0008A599C4FFC0184918823C9F090E0880FFC
:1009B000991FFC01EE5CFC4FA591B491FC01E45B36
:1009C000FC4FC591D49161110DC09FB7F8948C91E3
:1009D000209582238C938881282328839FBFDF91D1
:1009E000CF910895623051F49FB7F8943C91822FD3
:1009F000809583238C93E8812E2BEFCF8FB7F894CB
:100A0000EC912E2B2C938FBFEACF863308F08653C0
:100A100020917B00982F9870277F922B90937B00DA
:100A200020914B0290E4299F900111248770822B22
:100A300080937C0080917A00806480937A0080911A
:100A40007A0086FDFCCF809178009091790008951E
:100A50003FB7F89480915C0E90915D0EA0915E0E70
:100A6000B0915F0E26B5A89B05C02F3F19F00196E7
:100A7000A11DB11D3FBFBA2FA92F982F8827BC01F8
:100A8000CD01620F711D811D911D42E0660F771F20
:100A9000881F991F4A95D1F708958F929F92AF9220
:100AA000BF92CF92DF92EF92FF924B015C010E94C6
:100AB00028056B017C010E9428056C197D098E09AF
:100AC0009F09683E734081059105A8F321E0821AD1
:100AD0009108A108B10888EEC80E83E0D81EE11C79
:100AE000F11C81149104A104B10429F7FF90EF9047
:100AF000DF90CF90BF90AF909F908F9008952FB7C9
:100B0000F8946091580E7091590E80915A0E909100
:100B10005B0E2FBF08950E947F0560939F0E709318
:100B2000A00E8093A10E9093A20EEBE9FEE09083BD
:100B30008183728363830895CF92DF92EF92FF9255
:100B4000582FFC0130E020E0261748F44191D901EC
:100B5000A053B04F92964C932F5F3F4FF5CF20910B
:100B60000E102223A9F0623098F02FEF260FFC011F
:100B700040E03191430F3E2F351B3217D0F330E068
:100B8000F901E053F04F42A3820F931FFC01408311
:100B900010920210609303100E947F056B017C018C
:100BA00080E090910510911111C081111CC00E942C
:100BB0007F05AB01BC014C195D096E097F0981E01D
:100BC000483E53406105710560F7EACF81110BC0C3
:100BD0008091C90080628093C90080E0FF90EF900F
:100BE000DF90CF90089582E0F9CF089510928500AC
:100BF00010928400E1E8F0E0808185608083ED98C8
:100C000085EF95E09093570280935602E0EDFFE068
:100C100015AA16AA0895649B05C01092051010929B
:100C20000610089510929500109294008091910002
:100C300085608093910081E0809305108091F10F91
:100C400081110C94A60308952091340E260F3327AA
:100C5000331F21323105ECF420915D10FC0190E04E
:100C600080E0243069F082E00895A091340E219153
:100C7000AC014C5E514FA40FB52FB11D2C930196C2
:100C8000861798F38091340E680F6093340E80E0DD
:100C9000089581E0089510925D1081E080935C10CA
:100CA0001092371061E084E10E943D0461E085E12B
:100CB0000E943D04E9EBF0E080818E7F808380819B
:100CC0008D7F808388E48093B80085E48093BC00A6
:100CD0000895CF93DF9391E09093130E8823B9F09A
:100CE000C091B800D091BA008091BC008A7B8093FB
:100CF000BC0060E084E10E943D0460E085E10E9468
:100D00003D040E944B06D093BA00C093B800DF9117
:100D1000CF9108958F929F92AF92BF92CF92DF9220
:100D2000EF92FF920F931F93CF93DF93D091861092
:100D3000D13208F0D7C0182FC09185100E94280525
:100D40006B017C0180915D1081116BC082E080930A
:100D50005D1010935C108FEF80935B1010925A100F
:100D6000D0935910A5E6B0E1E9E3F0E180E0D813B3
:100D700091C01092381080913810CC0FC82BC093BE
:100D8000381080913710813009F088C010923710E8
:100D90000E9428056B017C01809138108093BB0074
:100DA00080915F1090916010A0916110B0916210DD
:100DB000892B8A2B8B2BA1F00E94280500915F10B4
:100DC0001091601020916110309162106C197D09B2
:100DD0008E099F09061717072807390708F442C02C
:100DE0008091BC0083FDD8CF85EC8093BC000E942D
:100DF00028056B017C0180915D10823009F450C0A0
:100E000080915B108F3F09F46FC080915B1080323E
:100E100009F46CC080915B10803309F469C084E0F0
:100E200026C080915F1090916010A0916110B091E8
:100E30006210892B8A2B8B2B09F484CF0E94280502
:100E400080905F1090906010A0906110B090621040
:100E50006C197D098E099F0986169706A806B906A2
:100E600008F070CF80915E100E94690685E01092B4
:100E700064101092861010926310DF91CF911F9131
:100E80000F91FF90EF90DF90CF90BF90AF909F9029
:100E90008F9008959D9191938F5F69CF85EEA5CF37
:100EA00080915F1090916010A0916110B0916210DC
:100EB000892B8A2B8B2B09F49ECF0E942805009149
:100EC0005F101091601020916110309162106C19C8
:100ED0007D098E099F09061717072807390708F0AB
:100EE0008ACFC0CF81E0C3CF80E0C1CF82E0BFCF47
:100EF00083E0BDCF0895E091CF0F8091CE0FE8172A
:100F000030F4F0E0E655F04F808190E008958FEFE7
:100F10009FEF08959091CF0F8091CE0F2FEF3FEF6D
:100F2000981748F4E92FF0E0E655F04F208130E0C3
:100F30009F5F9093CF0FC90108958091CE0F90913C
:100F4000CF0F891B990B0895CF92DF92EF92FF92FA
:100F50000F931F93CF93DF937C01CB018A012091E4
:100F60006310222389F0EB016B01C40ED51ECC1552
:100F7000DD0569F06991D701ED91FC910190F08157
:100F8000E02DC7011995F3CF642F0E942406C801F4
:100F9000DF91CF911F910F91FF90EF90DF90CF9055
:100FA0000895CF93DF931F92CDB7DEB76983209169
:100FB00063102223F9F020918610203258F021E0AE
:100FC00030E0FC013383228390E080E00F90DF91DA
:100FD000CF91089580916410E82FF0E0EB59FF4E17
:100FE000998190838F5F809364108093861081E055
:100FF00090E0ECCF61E0CE0101960E942406F7CF8D
:10100000682F87E890E10C94D1071092CF0F1092CF
:10101000CE0F0E944B0688E893E09093CB0F80930D
:10102000CA0F89E893E09093CD0F8093CC0F8CE0AA
:101030008093B8008091A51091E090936310809305
:10104000851010926410109286108091AC109091CF
:10105000AD10029721F490E080E00E94000890E03B
:1010600080E00E94000881E00C948A06FC01248143
:1010700031E0309363102093851010926410109229
:1010800086108385862B90E00E94000881E00C94F6
:101090008A06089590E080E00895CF93C82F60E01D
:1010A0000E943D04C43271F0C532B9F00E947F0540
:1010B0006093930E7093940E8093950E9093960E7A
:1010C000CF9108950E947F0560938F0E7093900ECC
:1010D0008093910E9093920EF3CF0E947F056093C0
:1010E0008B0E70938C0E80938D0E90938E0EE8CFA6
:1010F00020916413222369F060937E13282FAEE6BB
:10110000B3E1FC018E2F821B861718F481918D9319
:10111000F9CF08954F925F926F927F928F929F9234
:10112000AF92BF92CF92DF92EF92FF92CF93DF9375
:1011300010920F0E1092100E1092110E1092120EAD
:1011400010920B0E10920C0E10920D0E10920E0EAD
:10115000C0E8D0E087E30E940505092E000CAA0B29
:10116000BB0B40910F0E5091100E6091110E7091BB
:10117000120E4C015D01840E951EA61EB71E8092B4
:101180000F0E9092100EA092110EB092120E219797
:1011900009F7C0E8D0E088E30E9405056C01990FCB
:1011A000EE08FF0880910B0E90910C0EA0910D0E91
:1011B000B0910E0E8C0D9D1DAE1DBF1D80930B0EAC
:1011C00090930C0EA0930D0EB0930E0E219719F76D
:1011D00027E0B694A794979487942A95D1F78092A4
:1011E0000F0E9092100EA092110EB092120E6C0182
:1011F0007D0137E0F694E794D794C7943A95D1F7F8
:10120000C0920B0ED0920C0EE0920D0EF0920E0ECC
:101210006091490270914A0290E080E00E94C74EBE
:1012200020E030E048EC52E40E94FE502B013C01EB
:10123000C501B4010E94C74EA30192010E94284F2C
:1012400020E030EC4FE754E40E94FE5020E030E014
:1012500048EC52E40E94284F0E947751EB01C701ED
:10126000B6010E94C74EA30192010E94284F20E0C0
:1012700030EC4FE754E40E94FE5020E030E048ECB0
:1012800052E40E94284F0E947751D093830EC0935E
:10129000840E7093850E6093860EDF91CF91FF9040
:1012A000EF90DF90CF90BF90AF909F908F907F9006
:1012B0006F905F904F9008954F925F926F927F92E0
:1012C0008F929F92AF92BF92CF92DF92EF92FF9256
:1012D000CF93DF931092070E1092080E1092090E12
:1012E00010920A0EC0E8D0E086E30E9405056C016A
:1012F000990FEE08FF088091070E9091080EA091BB
:10130000090EB0910A0E8C0D9D1DAE1DBF1D809360
:10131000070E9093080EA093090EB0930A0E219722
:1013200019F76C017D0187E0F694E794D794C79490
:101330008A95D1F7C092070ED092080EE092090E5E
:10134000F0920A0E609145027091460290E080E0B2
:101350000E94C74E4B015C016091490270914A02A4
:1013600090E080E00E94C74E20E030E048EC52E47C
:101370000E94FE502B013C01C701B6010E94C74EDE
:101380009B01AC01C301B2010E94284F20E030EC68
:101390004FE754E40E94FE506B017C0160914702CC
:1013A0007091480290E080E00E94C74EA501940130
:1013B0000E9492509B01AC01C701B6010E94284FC8
:1013C000A50194010E94FE5020E030E048EC52E478
:1013D0000E94284F0E947751683522E07207A8F4D6
:1013E0001092870E1092880E1092060EDF91CF9108
:1013F000FF90EF90DF90CF90BF90AF909F908F9035
:101400007F906F905F904F9008957093870E6093D8
:10141000880E81E08093060EE9CFFC01219124170C
:1014200041F09F01281B390B26173707B8F380E0DE
:10143000089581E00895F8948091A40F8093A50FFA
:1014400078940895F8948091A50F9091A40F7894C2
:10145000891B08959091760E21E0290F30E0F894D1
:101460004091770E789442171306C9F32A5F324FE2
:10147000F90180839F5F9093760E809131018062A5
:10148000809331010895F8949091A50F8091A40F55
:10149000981304C0789480E092E008957894809145
:1014A000A40FE1E0E80FF0E08F5F8093A40FEC550C
:1014B000F14F20819091A30E892F90E0982F8827DB
:1014C000820F911D0895F8941092A50F1092A40F09
:1014D0001092760E1092770E789490933501809347
:1014E0003401E1E3F1E0808188698083E2E3F1E0A7
:1014F0008081866080830895F8948091050D8093A3
:10150000040D78940895F8948091040D9091050D40
:101510007894891B089590917F0E21E0290F30E087
:10152000F8944091800E789442171306C9F32C5F0B
:10153000334FF90180839F5F90937F0E8091D1009C
:1015400080628093D10008959C01F8949091040DDD
:101550008091050D981304C0789480E092E008957E
:1015600078949091050DE92FF0E03196E20FF31F8A
:10157000FF27EC5FF44F20819091030B892F90E0BF
:10158000982F8827820F911D0895F8949091040D4B
:101590008091050D981304C0789480E092E008953E
:1015A00078948091050DE1E0E80FF0E08F5F809383
:1015B000050DEC5FF44F20819091030B892F90E093
:1015C000982F8827820F911D0895F8941092040D8A
:1015D0001092050D10927F0E1092800E78949093C9
:1015E000D5008093D400E1EDF0E0808188698083AC
:1015F000E2EDF0E08081866080830895F894809128
:101600007B0E90917C0E20917D0E30917E0E789411
:10161000821B930B937008952091720E3091730E7C
:101620002F5F3F4F3370F8944091740E5091750EB8
:10163000789424173507B9F3F901ED5FF84F8083EB
:101640003093730E2093720E8091C100806280935C
:10165000C1000895F89420917B0E30917C0E80910A
:101660007D0E90917E0E2817390721F4789480E042
:1016700092E00895789480917D0E90917E0E01966F
:10168000937090937E0E80937D0E8D5F9C4FFC0136
:10169000208190910203892F90E0982F8827820F54
:1016A000911D08952F923F924F925F926F927F9279
:1016B0008F929F92AF92BF92CF92DF92EF92FF9262
:1016C0000F931F93CF93DF936B017C014A01590164
:1016D00033243394A114B10409F41AC1C091A910A0
:1016E000D091AA10CE0101978C219D21C81BD90B46
:1016F000C50121E2A216B10410F080E290E08C173F
:101700009D0708F4EC018091AB10A701960104C07D
:1017100056954795379527958A95D2F72090A5102D
:10172000222A309263102092851010926410109239
:1017300086108091AC109091AD10029741F49927DA
:101740008F2D7E2D6D2D87E890E10E94D1076C2DA5
:1017500087E890E10E94D10781E00E948A06082F65
:101760008111D7C00E9428052B013C0180915D109A
:10177000811166C01C2F30925D1030925C103FEFDB
:1017800030935B1010925A108C2F81508093591017
:101790003092381080913810220C282A209238106C
:1017A00080913710813009F084C0109237100E9468
:1017B00028052B013C01809138108093BB0080915B
:1017C0005F1090916010A0916110B0916210892B10
:1017D0008A2B8B2BA1F00E94280520915F1030915D
:1017E000601040916110509162106419750986096A
:1017F0009709261737074807590708F442C0809110
:10180000BC0083FDD8CF45EC4093BC000E94280566
:101810002B013C0180915D10813009F44EC0809114
:101820005A10811710F410915A10E9E3F0E1AAEA76
:10183000BFE080E0811751F191919D938F5FFACFC6
:1018400080915F1090916010A0916110B091621032
:10185000892B8A2B8B2B09F489CF0E942805209194
:101860005F103091601040916110509162106419C6
:10187000750986099709261737074807590708F099
:1018800075CF80915E100E94690610E01092CF0F14
:101890001093CE0F602E712C6C167D0680F587E8B4
:1018A00090E10E948A07F401E60DF71D80830F5F27
:1018B000F1CF55EE5093BC00A9CF80915F1090916D
:1018C0006010A0916110B0916210892B8A2B8B2B34
:1018D00009F4A0CF0E94280520915F10309160107C
:1018E0004091611050916210641975098609970939
:1018F000261737074807590708F08CCFC2CFCC0E00
:10190000DD1EE11CF11C8C0E9D1EAC1ABD0AE2CE40
:1019100000E0802FDF91CF911F910F91FF90EF900A
:10192000DF90CF90BF90AF909F908F907F906F90FF
:101930005F904F903F902F900895CF92DF92EF925B
:10194000FF920F931F93CF93DF931F92CDB7DEB714
:101950006B017C012FEFC21AD20AE20AF20A00914F
:10196000AE101091AF102091B0103091B1100C1545
:101970001D052E053F05B0F021E030E0AE014F5FC0
:101980005F4F0E94520B90E0009771F4898190E0C4
:101990000F90DF91CF911F910F91FF90EF90DF900B
:1019A000CF90089589E0EFCF919581959109F0CF7F
:1019B0000F931F93CF938C01C62F0E9436086C2F74
:1019C0006460C8010E9436086C2F6B7FC8010E94BA
:1019D000360883EC90E00197F1F7CF911F910F91BA
:1019E00008950F931F93CF93DF938C01D62FC42FAD
:1019F000607F642B0E94D80C80E1D89FB001112435
:101A00006C2BC801DF91CF911F910F910C94D80CD2
:101A1000CF93DF9300D000D01F921F92CDB7DEB7D7
:101A200098E0EEE6F2E0DE01119601900D929A95B3
:101A3000E1F79091A210961710F46FEF690F262F1F
:101A400030E0220F331F41E050E04C0F5D1F240FA8
:101A5000351FF9016081680F606840E089E990E115
:101A600028960FB6F894DEBF0FBECDBFDF91CF91A1
:101A70000C94F10C41E00E94F10C81E090E008959B
:101A80000F931F93CF93DF938B0198E0899FB00151
:101A90001124606440E089E990E10E94F10CE801C2
:101AA000085F1F4F699189E990E10E943A0DC017C4
:101AB000D107C1F7DF91CF911F910F9108950F9337
:101AC0001F93CF93DF938C01D0E0C0E0F801EC0FBF
:101AD000FD1F6491662339F041E089E990E10E949D
:101AE000F10C2196F3CFCE01DF91CF911F910F9191
:101AF000089540E061E089E990E10E94F10C8BE3F8
:101B00009FE10197F1F708950E94790D8091A70F49
:101B1000843171F58091A60F843009F042C060E0F5
:101B200080E00E94080D8DE193E00E945F0D61E06E
:101B300080E00E94080D88E093E00E945F0D62E063
:101B400080E00E94080D83EF92E00E945F0D63E049
:101B500080E00E94080D8EED92E00E945F0D61E032
:101B600087E00E94080D65E089E990E10C943A0D48
:101B70008031B9F48091A60F823099F460E080E062
:101B80000E94080D8DEC92E00E945F0D61E080E004
:101B90000E94080D8CEB92E00E945F0D61E083E0F3
:101BA000E0CF60E080E00E94080D83EB92E00C94AF
:101BB0005F0D0E94790D8091A70F843171F580919E
:101BC000A60F843009F042C060E080E00E94080D5A
:101BD0008EE992E00E945F0D61E080E00E94080DB6
:101BE00089E892E00E945F0D62E080E00E94080DAB
:101BF00084E792E00E945F0D63E080E00E94080DA0
:101C00008FE592E00E945F0D61E087E00E94080D81
:101C100065E089E990E10C943A0D8031B9F4809146
:101C2000A60F823099F460E080E00E94080D8EE4F7
:101C300092E00E945F0D61E080E00E94080D8DE35C
:101C400092E00E945F0D61E083E0E0CF60E080E021
:101C50000E94080D84E392E00C945F0DFC0101905A
:101C60000020E9F73197AF01481B590BBC0189E906
:101C700090E10C9410048F929F92AF92BF920F93B9
:101C80001F93CF93DF93CDB7DEB7A1970FB6F8942C
:101C9000DEBF0FBECDBF19A2423008F44AE08E016C
:101CA0000F5D1F4F842E912CB12CA12CA501940106
:101CB0000E946050E62FB901CA01EA30F4F4E05DF9
:101CC000D801EE938D01232B242B252B79F790E05F
:101CD00080E0109719F0CD010E942E0EA1960FB64C
:101CE000F894DEBF0FBECDBFDF91CF911F910F9152
:101CF000BF90AF909F908F900895E95CE1CFBC01B9
:101D000090E080E04AE00C943B0E0C942E0E4F9233
:101D10005F926F927F928F929F92AF92BF92CF927B
:101D2000DF92EF92FF920F931F93CF936B017C0191
:101D3000B42EAC019B010E94AB51882399F08EED2B
:101D400092E0CF911F910F91FF90EF90DF90CF9095
:101D5000BF90AF909F908F907F906F905F904F90CB
:101D60000C942E0E26013701E89477F82FEF3FEF01
:101D70004FE75FE7C301B2010E94AB5181110DC073
:101D80002FEF3FEF4FE75FE7C301B2010E94C24E62
:101D900018161CF482EE92E0D4CF2FEF3FEF4FE7FE
:101DA0005FE4C701B6010E94A65118161CF486EE26
:101DB00092E0C7CF2FEF3FEF4FE75FECC701B601CF
:101DC0000E94C24E87FDF3CF20E030E0A901C70199
:101DD000B6010E94C24E10E000E087FF0CC041E057
:101DE0006DE289E990E10E94F10CF7FAF094F7F8BE
:101DF000F09401E010E0CB2DA12C60E070E080E0D9
:101E00009FE3AB1440F420E030E040E251E40E9454
:101E1000FE50A394F6CFA70196010E9492502B0189
:101E20003C010E9477516B017C014AE00E943B0E0D
:101E3000080F191FBB20B1F1C701B6010E94C74EA0
:101E40009B01AC01C301B2010E9491504B015C01A6
:101E500041E06EE289E990E10E94F10C0F5F1F4FB3
:101E6000C15000F120E030E040E251E4C501B4018E
:101E70000E94284F2B013C010E9477514B01CB015E
:101E80000E947F0E080F191FB40190E080E00E94AD
:101E9000C74E9B01AC01C301B2010E9491504B019E
:101EA0005C01DECFC801CF911F910F91FF90EF90A1
:101EB000DF90CF90BF90AF909F908F907F906F906A
:101EC0005F904F9008958F929F92AF92BF92EF9242
:101ED000FF920F931F93CF93DF93CDB7DEB72C976D
:101EE0000FB6F894DEBF0FBECDBF81E080934D02E8
:101EF000F090A60FE090A70F80918A0E10929C1090
:101F000010929B1080939D108E8180939E108F81E4
:101F100080939F1088858093A010E092A110F0928A
:101F2000A2101092A31018E01093A4101092CF0FDB
:101F30001092CE0F10926410109286100E944B06E1
:101F400088E893E09093CB0F8093CA0F89E893E0E1
:101F50009093CD0F8093CC0F10929E108091A21081
:101F6000823010F010939E109091A310992339F0B5
:101F7000813029F480919E10846080939E1062E3EA
:101F800070E080E090E00E944D056091A41089E926
:101F900090E10E94360868EE73E080E090E00E94D5
:101FA0004D0560E389E990E10E94D80C0BE416E44A
:101FB000C8010197F1F760E389E990E10E94D80C2C
:101FC000C8010197F1F760E389E990E10E94D80C1C
:101FD00083E592E00197F1F760E289E990E10E94E0
:101FE000D80C60919E10606240E089E990E10E9407
:101FF000F10C84E080939F1040E06CE089E990E16F
:102000000E94F10C0E94790D82E08093A01040E0C4
:1020100066E089E990E10E94F10C40E062E089E924
:1020200090E10E94F10C0BE31FE1C8010197F1F769
:1020300088E08093A41060E089E990E10E9436086E
:102040000E94790D40E062E089E990E10E94F10C84
:10205000C8010197F1F76091700E7091710E7627AB
:102060006727762790E080E00E94C74E20E030E0AE
:1020700048EC52E40E94FE504B015C0184E1E812FE
:1020800057C084E0F8126FC08FE192E00E945F0DAC
:1020900061E080E00E94080D8AE092E00E945F0DFE
:1020A00062E080E00E94080D8DEF91E00E945F0DDC
:1020B00042E050E0C501B4010E94870E88EF91E034
:1020C0000E945F0D63E080E00E94080D83EE91E0C6
:1020D0000E945F0D68E272E080E00E94400D60E2C5
:1020E00072E081E00E94400D68E172E082E00E94AF
:1020F000400D60E172E083E00E94400D68E072E014
:1021000084E00E94400D60E072E085E02C960FB6FE
:10211000F894DEBF0FBECDBFDF91CF911F910F911D
:10212000FF90EF90BF90AF909F908F900C94400DD8
:1021300080E1E81218C082E0F81215C082ED91E04B
:102140000E945F0D61E080E00E94080D87EC91E045
:102150000E945F0D42E050E0C501B4010E94870E6D
:1021600084EC91E0B5CF8CEB91E0B2CFCF92DF92CF
:10217000EF92FF9240E054E264EF75E44093071061
:10218000509308106093091070930A1080930B10FD
:102190008AE080930C1081E080930D1080930E10E4
:1021A0001092E00F8093051080930610F89410921F
:1021B000F10F10920210109203101092041020E000
:1021C00030E040E851E46091071070910810809170
:1021D000091090910A100E94284F9B01AC0160E009
:1021E00074E284E79BE40E94FE5020E030E040E887
:1021F0005FE30E9491500E9477517F707093CD00F1
:102200006093CC008091C90088698093C900809157
:10221000CA0086608093CA00789483E090E090932F
:10222000121080931110F894109290001092910067
:1022300010929500109294008091111090911210BC
:10224000909399008093980080919100886080938A
:102250009100809171008260809371007894E3E135
:10226000F0E180E2DF011D928A95E9F780910B1081
:1022700062E0882309F43DC082E00E94C9048BE03B
:1022800096E0909355028093540280916A008C7F6F
:10229000816080936A00EC9A87E090E09093101040
:1022A00080930F10F8941092800010928100109289
:1022B000850010928400259A80918000806480932C
:1022C000800080910F10909110109093890080935E
:1022D000880080916F008D7F80936F0080918100D6
:1022E0008960809381007894FF90EF90DF90CF9089
:1022F000089583E00E94C90486EF95E09093570209
:102300008093560280916A00837F886080936A0080
:10231000ED9A2091071030910810409109105091CA
:102320000A1060E070E080E89FE30E94FE5020E029
:1023300034E244E75BE40E94284F6B017C0160912A
:102340000C1070E090E080E00E94C94E20E030E088
:1023500040E251E40E9492509B01AC01C701B601DA
:102360000E94284F20E030E040E85AE30E94284FC6
:1023700020E030E040E85FE30E9491500E947751F6
:102380007093101060930F10F894109280001092C8
:1023900081001092850010928400259880910F1082
:1023A0009091101090938900809388008091810013
:1023B00088608093810080916F00826080936F00BD
:1023C00092CF2F923F924F925F926F927F928F9215
:1023D0009F92AF92BF92CF92DF92EF92FF920F93B4
:1023E0001F93CF93DF93CDB7DEB70DB71EB7909194
:1023F000A90F992359F12DB63EB69CEF940F2DB736
:102400003EB7291B31090FB6F8943EBF0FBE2DBF52
:10241000EDB7FEB731967F01992311F40C941D1E80
:10242000FB013496D70124E0241720F431913D9329
:102430002F5FFACF20915302213001F1223009F4AD
:10244000BEC50FB6F8943EBE0FBE2DBE0FB6F894B3
:102450001EBF0FBE0DBFDF91CF911F910F91FF9057
:10246000EF90DF90CF90BF90AF909F908F907F9034
:102470006F905F904F903F902F900895813009F7B3
:10248000F70180818C3809F403C108F041C084321F
:1024900009F49CC08234A9F6943098F2618170E00E
:1024A00090E080E00E94C94E26E636E646E25FE311
:1024B0000E94284F6B017C0120E030E0A9010E94BE
:1024C000A65120E030E040E05FE387FDC5C0C701D2
:1024D000B6010E9492500E947051F62E8091A70F73
:1024E000843109F0AECF8091A60F843009F0A9CFD6
:1024F000F9E0FF1508F4B5C060E080E10E94080D26
:102500008DEE92E00E94850E8F2D0E948C3899CF1F
:10251000843D09F4DFC2843E09F4ABC38E3C09F06C
:1025200090CF963008F48DCF618172818381948140
:102530000E94B8512091A80F211111C20E94C74ECC
:1025400020E030E040E05EE30E94284F6B017C0118
:1025500020E030E0A9010E94A65120E030E040E0F8
:102560005FE387FD11C2C701B6010E9492500E942D
:1025700070510E94C94E20E030E04AE754E40E94C6
:10258000FE506B017C018091A70F843109F059CF77
:102590008091A60F843009F054CF20E030E040E273
:1025A00051E4C701B6010E94C24E87FFF2C163E049
:1025B00080E00E94080D8AEE92E00E94850E43E0C2
:1025C00050E0C701B6010E94870E3BCF943008F45B
:1025D00038CF8091A80F811119C0F1808091A70F89
:1025E0008431D1F48091A60F843009F02ACFF9E02C
:1025F000FF15D8F060E080E00E94080D8DEE92E0BB
:102600000E94850E8F2D0E948C381BCF813011F4D3
:10261000F280E4CFF12CE2CF803109F012CF80912B
:10262000A60F823009F00DCFE2CF86EF8F0D60E06C
:102630008A3558F480E00E94080D8EEE92E00E94E8
:10264000850E8F2D0E948C38FCCE80E00E94080DF4
:102650008F2D0E948C38F5CEC701B6010E94915093
:102660003ACF86EF8F0D60E08A3558F480E10E9402
:10267000080D8EEE92E00E94850E8F2D0E948C3800
:10268000E0CE80E10E94080D8F2D0E948C38D9CEBB
:10269000943008F4D6CE8091A80F81117DC061815D
:1026A00070E090E080E00E94C94E26E636E646EEF5
:1026B0005FE30E94284F26E636E646E453E40E9494
:1026C00091502B013C0120E030E0A9010E94A6516D
:1026D00020E030E040E05FE387FD54C0C301B20179
:1026E0000E9492500E9470516B01F701628170E06C
:1026F00090E080E00E94C94E26E636E646EE5FE3B3
:102700000E94284F26E636E646E453E40E949150A4
:102710002B013C0120E030E0A9010E94A65120E0FD
:1027200030E040E05FE387FD32C0C301B2010E94A8
:1027300092500E9470517B018091A70F843109F063
:10274000B1C08091A60F843009F07BCE9DE9C916F7
:102750009FEFD9069CF561E080E00E94080D81EFB3
:1027600092E00E94850E2DE9E2162FEFF2060CF0A2
:1027700052C061E084E00E94080D81EF92E00E9467
:10278000850E5FCEC301B2010E949150ABCFC30151
:10279000B2010E949150CDCF813059F46181262F32
:1027A0002058330B69016281862F8058990B7C0178
:1027B000C3CFF12CE12CD12CC12CBECFC6018D5939
:1027C0009F4F61E08A35910510F161E0E7EFCE1689
:1027D000EFEFDE06B0F4FAE0CF16D10460F461E06A
:1027E00080E00E94080D8DEE92E00E94850EC601E9
:1027F0000E949338B8CFC6010A9761E08A359105E7
:1028000030F480E00E94080D8EEE92E0EECF80E082
:102810000E94080DECCFC7018D599F4F8A35910555
:1028200040F461E084E00E94080DC7010E949338E3
:1028300008CE37EFE3163FEFF30660F061E084E087
:102840000E94080D8EEE92E00E94850EC7010E9444
:102850009338F7CD8AE0E816F10460F461E084E093
:102860000E94080D8DEE92E00E94850EC7010E9425
:102870009338E7CDC7010A9761E08A35910558F48E
:1028800084E00E94080D8EEE92E00E94850EC70142
:102890000E949338D6CD84E00E94080DC7010E94A3
:1028A0009338CFCD803109F0CCCD8091A60F823006
:1028B00009F0C7CD9DE9C9169FEFD9064CF461E038
:1028C00080E00E94080D81EF92E00E94850EB9CD54
:1028D000C6018D599F4F8A35910540F461E080E033
:1028E0000E94080DC6010E949338ABCDE7EFCE16CB
:1028F000EFEFDE0660F061E080E00E94080D8EEEF2
:1029000092E00E94850EC6010E9493389ACDFAE0AB
:10291000CF16D10460F461E080E00E94080D8DEED6
:1029200092E00E94850EC6010E9493388ACDC601AE
:102930000A9761E08A35910558F480E00E94080DFD
:102940008EEE92E00E94850EC6010E94933879CDEA
:1029500080E00E94080DC6010E94933872CDC12C00
:10296000D12C7601213009F00ECE0E94C74E22E014
:102970003BE249EC54E40E94284F20E030E04AEF6B
:1029800055E40E94FE50E2CDC701B6010E9491506D
:10299000EECD20E030E040E251E4C701B6010E94F4
:1029A000A65187FD19C020E030E048EC52E4C70191
:1029B000B6010E94C24E87FF0FC063E080E00E9414
:1029C000080D8BEE92E00E94850E43E050E0C701B7
:1029D000B6010E94870E35CD20E030E048EC52E48D
:1029E000C701B6010E94A65187FD19C020E030E062
:1029F0004AE754E4C701B6010E94C24E87FF0FC0E8
:102A000063E080E00E94080D8CEE92E00E94850E4B
:102A100043E050E0C701B6010E94870E12CD20E0CE
:102A200030E04AE754E4C701B6010E94A65187FD91
:102A300019C020E030E44CE156E4C701B6010E9421
:102A4000C24E87FF0FC063E080E00E94080D8DEE4C
:102A500092E00E94850E43E050E0C701B6010E945B
:102A6000870EEFCC20E030E44CE156E4C701B6011C
:102A70000E94A65187FD19C020E030E543EC57E4E1
:102A8000C701B6010E94C24E87FF0FC063E080E01D
:102A90000E94080D8EEE92E00E94850E43E050E009
:102AA000C701B6010E94870ECCCC20E030E543EC94
:102AB00057E4C701B6010E94A65187FDC2CC63E06E
:102AC00080E00E94080D43E050E0C701B6010E947B
:102AD000870EB7CC943008F4B4CC618170E090E0FC
:102AE00080E00E94C94E20E030E040E251E40E94C4
:102AF000284F20E030E040E85DE30E94284F2B01A2
:102B00003C0120E030E0A9010E94A65120E030E025
:102B100040E05FE387FD7FC0C301B2010E94925095
:102B20000E9470510E94C94E4B015C01F701628105
:102B300070E090E080E00E94C94E20E030E040E28A
:102B400051E40E94284F20E030E040E85DE30E941D
:102B5000284F6B017C0120E030E0A9010E94A651C2
:102B600020E030E040E05FE387FD5AC0C701B601D6
:102B70000E9492500E9470510E94C94E2B013C014C
:102B80008091A70F843109F05CCC8091A60F84302E
:102B900009F057CC20E030E040E251E4C501B40137
:102BA0000E94FE506B017C0120E030E040E251E4E5
:102BB0000E94C24E87FF39C062E080E00E94080D8B
:102BC0008EEE92E00E94850E41E050E0C701B60112
:102BD0000E94870E20E030E040E251E4C301B201E0
:102BE0000E94FE506B017C0120E030E040E251E4A5
:102BF0000E94C24E87FF28C062E085E00E94080D57
:102C00008EEE92E00E94850E41E050E0C701B601D1
:102C10000E94870E16CCC301B2010E94915080CF52
:102C2000C701B6010E949150A5CF20E030E040E2FC
:102C300051E4C701B6010E94A65187FDCBCF62E0E7
:102C400080E00E94080DC0CF20E030E040E251E477
:102C5000C701B6010E94A65187FDF3CB62E085E073
:102C60000E94080D41E050E0C701B6010E94870EA6
:102C7000E8CB943008F4E5CB8091A80F811168C0AF
:102C8000C180F0E2CF9E60011124F701628170E003
:102C900090E080E00E94C94E20E030E040E251E444
:102CA0000E94284F25EB32EC44E75DE30E94284F59
:102CB0002B013C0120E030E0A9010E94A65120E058
:102CC00030E040E05FE387FD61C0C301B2010E94D4
:102CD00092500E9470510E94C94E20E030E040E2C4
:102CE00051E40E94FE502B013C018091A70F8431DA
:102CF00009F0A6C08091A60F843009F026C1FAE041
:102D0000CF16D10408F047C060E088E00E94080DAB
:102D10008CEE92E00E94850EC6010E947F0E20E09C
:102D200030E040E251E4C301B2010E94C24E87FF8D
:102D30004FC061E08DE00E94080D8EEE92E00E948F
:102D4000850E41E050E0C301B2010E94870E79CBAD
:102D5000412C512C3201D12CC12C813031F6C18053
:102D6000F0E2CF9E60011124F701628170E090E0F3
:102D700080E00E94C94E20E030E040E251E40E9431
:102D8000284F29ED31EA4CED50E48ACFC301B2015E
:102D90000E9491509ECFC6010A978A35910538F45A
:102DA00060E088E00E94080D8DEE92E0B3CFC6018E
:102DB0008456910960E08438934030F488E00E94A2
:102DC000080D8EEE92E0A6CF88E00E94080DA4CFF9
:102DD00020E030E040E251E4C301B2010E94A6517C
:102DE00087FD15C020E030E048EC52E4C301B20199
:102DF0000E94C24E87FF0BC061E08DE00E94080D6B
:102E000041E050E0C301B2010E94870E1ACB20E0DE
:102E100030E048EC52E4C301B2010E94A65187FDA4
:102E200010CB61E08DE00E94080D8EEE92E00E94D2
:102E3000850E50E040E0C301B2010E94870E01CB35
:102E4000803109F082C08091A60F823009F07DC0E8
:102E50003AE0C316D10420F560E089E00E94080D35
:102E60008CEE92E00E94850EC6010E947F0E20E04B
:102E700030E040E251E4C301B2010E94C24E87FF3C
:102E80002CC061E089E00E94080D8EEE92E00E9465
:102E9000850E41E050E0C301B2010E94870ED1CA05
:102EA000C6010A978A35910538F460E089E00E94EE
:102EB000080D8DEE92E0D6CFC6018456910960E0F0
:102EC0008438934030F489E00E94080D8EEE92E041
:102ED000C9CF89E00E94080DC7CF20E030E040E272
:102EE00051E4C301B2010E94A65187FD15C020E044
:102EF00030E048EC52E4C301B2010E94C24E87FFA9
:102F00000BC061E089E00E94080D41E050E0C30180
:102F1000B2010E94870E95CA20E030E048EC52E4EE
:102F2000C301B2010E94A65187FD8BCA61E089E00E
:102F30000E94080D8EEE92E00E94850E50E040E067
:102F4000C301B2010E94870E7CCAFAE0CF16D104F9
:102F500060F460E081E00E94080D8CEE92E00E9437
:102F6000850EC6010E947F0E6CCAC6010A978A357B
:102F7000910560F460E081E00E94080D8DEE92E022
:102F80000E94850EC6010E947F0E5BCAC601845650
:102F9000910960E08438934058F481E00E94080D64
:102FA0008EEE92E00E94850EC6010E947F0E49CAF5
:102FB00081E00E94080DC6010E947F0E42CA823045
:102FC00009F03FCAF7018081843109F03ACA933091
:102FD00008F437CA81818B3009F4ADC270F58530B1
:102FE00009F451C18A3009F436C2813009F029CA86
:102FF0008091A80F811188C0E280F12C8091A70FE9
:10300000843109F0EBC08091A60F843009F019CA11
:10301000FDE9EF16FFEFFF060CF4ABCBC7018D59AE
:103020009F4F8A35910508F0A0C061E084E00E94BE
:10303000080DC7010E94933804CA843209F4F7C40A
:1030400018F5813109F0FDC9E280F0E2EF9E7001D0
:1030500011248091A70F843109F066C48091A60FD6
:10306000843009F0A6C42AE0E216F1040CF02FC463
:1030700060E088E00E94080D8CEE92E00E94850ED0
:10308000C7010E947F0EDDC9813409F440C5863432
:1030900009F0D7C9628170E090E080E00E94C94EDB
:1030A00020E73EEC48EC5EE30E94284F6B017C0178
:1030B00020E030E0A9010E94A65120E030E040E08D
:1030C0005FE387FD9CC5C701B6010E9492500E9434
:1030D0007051F62E8091A70F843109F0B2C980910A
:1030E000A60F843009F0ADC9F9E0FF1508F48CC5CE
:1030F00060E080E10E94080D8DEE92E00E94850E56
:103100008F2D0E948C389DC9813061F5628170E0FD
:1031100090E080E00E94C94E2BEE38E34EE05FE382
:103120000E94284F25EE38E34EE851E40E9491506A
:103130006B017C0120E030E0A9010E94A65120E053
:1031400030E040E05FE387FD08C0C701B6010E94A0
:1031500092500E9470517B0151CFC701B6010E946D
:103160009150F7CFF12CE12C49CF27EFE2162FEF4A
:10317000F20660F061E084E00E94080D8EEE92E0BD
:103180000E94850EC7010E9493385BC93AE0E3169E
:10319000F10460F461E084E00E94080D8DEE92E09D
:1031A0000E94850EC7010E9493384BC9C7010A9738
:1031B00061E08A35910558F484E00E94080D8EEE96
:1031C00092E00E94850EC7010E9493383AC984E0BC
:1031D0000E94080DC7010E94933833C9803109F05D
:1031E00030C98091A60F823009F02BC98DE9E8160D
:1031F0008FEFF8060CF4BDCAC7018D599F4F8A3571
:10320000910540F461E084E00E94080DC7010E942E
:10321000933817C997EFE9169FEFF90660F061E060
:1032200084E00E94080D8EEE92E00E94850EC70198
:103230000E94933806C9EAE0EE16F10460F461E0FA
:1032400084E00E94080D8DEE92E00E94850EC70179
:103250000E949338F6C8C7010A9761E08A35910544
:1032600058F484E00E94080D8EEE92E00E94850ED4
:10327000C7010E949338E5C884E00E94080DC70189
:103280000E949338DEC88091A80F811149C06281E5
:1032900070E090E080E00E94C94E26E636E646EEF9
:1032A0005FE30E94284F26E636E646E453E40E9498
:1032B00091506B017C0120E030E0A9010E94A651F1
:1032C00020E030E040E05FE387FD25C0C701B601A4
:1032D0000E9492500E9470517B018091A70F84310F
:1032E00009F062C08091A60F843009F0AAC83DE9B8
:1032F000E3163FEFF3060CF4E2CAC7018D599F4F66
:103300008A359105C0F461E080E00E94080DC70194
:103310000E94933896C8C701B6010E949150DACF37
:10332000813031F46281262F2058330B7901D5CFBB
:10333000F12CE12CD2CF87EFE8168FEFF80660F082
:1033400061E080E00E94080D8EEE92E00E94850E02
:10335000C7010E94933875C89AE0E916F10460F439
:1033600061E080E00E94080D8DEE92E00E94850EE3
:10337000C7010E94933865C8C7010A9761E08A3582
:10338000910558F480E00E94080D8EEE92E00E94B4
:10339000850EC7010E94933854C880E00E94080D32
:1033A000C7010E9493384DC8803109F04AC8809106
:1033B000A60F823009F045C8EDE9EE16EFEFFE06E4
:1033C0000CF47DCAC7018D599F4F8A35910540F491
:1033D00061E080E00E94080DC7010E94933831C867
:1033E000F7EFEF16FFEFFF0660F061E080E00E946C
:1033F000080D8EEE92E00E94850EC7010E94933860
:1034000020C82AE0E216F10460F461E080E00E9446
:10341000080D8DEE92E00E94850EC7010E94933840
:1034200010C8C7010A9761E08A35910560F480E011
:103430000E94080D8EEE92E00E94850EC7010E9448
:1034400093380C94211280E00E94080DC7010E945D
:1034500093380C942112628170E090E080E00E9429
:10346000C94E20E030E040E251E40E94284F20E0C5
:1034700030E040E85DE30E94284F6B017C0120E0D2
:1034800030E0A9010E94A65120E030E040E05FE377
:1034900087FD34C0C701B6010E9492500E9470514E
:1034A0000E94C94E2091A70F243111F00C942112D3
:1034B0002091A60F243011F00C94211220E030E06E
:1034C00040E251E40E94FE506B017C0120E030E0BC
:1034D00040E251E40E94C24E87FF15C062E080E0E6
:1034E0000E94080D8EEE92E00E94850E41E050E0B1
:1034F000C701B6010E94870E0C942112C701B601C4
:103500000E949150CBCF20E030E040E251E4C7016F
:10351000B6010E94A65187FF02C00C94211262E0FE
:1035200080E00E94080D41E050E0C701B6010E9412
:10353000870E0C9421128091A80F81114EC06281D8
:1035400070E090E080E00E94C94E20E030E040E270
:1035500051E40E94284F25EB32EC44E75DE30E94E2
:10356000284F6B017C0120E030E0A9010E94A651A8
:1035700020E030E040E05FE387FD3EC0C701B601D8
:103580000E9492500E9470510E94C94E20E030E08B
:1035900040E251E40E94FE506B017C018091A70F34
:1035A000843109F0D4C08091A60F843011F00C94BE
:1035B000211220E030E046EC52ECC701B6010E9437
:1035C000C24E181614F161E08DE00E94080D80EFE4
:1035D00092E00E94850E0C942112813091F4628158
:1035E00070E090E080E00E94C94E29ED31EA4CED98
:1035F00050E40E94284FA9CFC701B6010E94915004
:10360000C1CFC12CD12C7601C9CF20E030E046ECEF
:1036100052ECC701B6010E94A6511816D4F420E05E
:1036200030E040E251ECC701B6010E94C24E1816CC
:1036300084F061E08DE00E94080D8EEE92E00E9421
:10364000850E50E040E0C701B6010E94870E0C9441
:10365000211220E030E040E251ECC701B6010E94A7
:10366000A6511816ACF420E030E0A901C701B6015C
:103670000E94C24E87FF0CC061E08DE00E94080DE1
:1036800041E050E0C701B6010E94870E0C94211260
:1036900020E030E0A901C701B6010E94A65187FDD4
:1036A0001AC020E030E040E251E4C701B6010E94B8
:1036B000C24E87FF10C061E08DE00E94080D8EEEC3
:1036C00092E00E94850E41E050E0C701B6010E94E1
:1036D000870E0C94211220E030E040E251E4C70153
:1036E000B6010E94A65187FD16C020E030E048ECEC
:1036F00052E4C701B6010E94C24E87FF0CC061E0D0
:103700008DE00E94080D41E050E0C701B6010E9423
:10371000870E0C94211220E030E048EC52E4C701FF
:10372000B6010E94A65187FF02C00C94211261E0ED
:103730008DE00E94080D8EEE92E00E94850E50E012
:1037400040E0C701B6010E94870E0C94211280311F
:1037500011F00C9421128091A60F823011F00C947C
:10376000211220E030E046EC52ECC701B6010E9485
:10377000C24E181654F061E089E00E94080D80EFF7
:1037800092E00E94850E0C94211220E030E046EC7D
:1037900052ECC701B6010E94A6511816D4F420E0DD
:1037A00030E040E251ECC701B6010E94C24E18164B
:1037B00084F061E089E00E94080D8EEE92E00E94A4
:1037C000850E50E040E0C701B6010E94870E0C94C0
:1037D000211220E030E040E251ECC701B6010E9426
:1037E000A6511816ACF420E030E0A901C701B601DB
:1037F0000E94C24E87FF0CC061E089E00E94080D64
:1038000041E050E0C701B6010E94870E0C942112DE
:1038100020E030E0A901C701B6010E94A65187FD52
:103820001AC020E030E040E251E4C701B6010E9436
:10383000C24E87FF10C061E089E00E94080D8EEE45
:1038400092E00E94850E41E050E0C701B6010E945F
:10385000870E0C94211220E030E040E251E4C701D1
:10386000B6010E94A65187FD16C020E030E048EC6A
:1038700052E4C701B6010E94C24E87FF0CC061E04E
:1038800089E00E94080D41E050E0C701B6010E94A6
:10389000870E0C94211220E030E048EC52E4C7017E
:1038A000B6010E94A65187FF02C00C94211261E06C
:1038B00089E00E94080D8EEE92E00E94850E50E095
:1038C00040E0C701B6010E94870E0C942112C70187
:1038D0000A978A35910568F460E088E00E94080D37
:1038E0008DEE92E00E94850EC7010E947F0E0C941F
:1038F0002112C7018456910960E08438934060F436
:1039000088E00E94080D8EEE92E00E94850EC701AD
:103910000E947F0E0C94211288E00E94080DC701BE
:103920000E947F0E0C942112803109F042C08091D8
:10393000A60F8230F1F58AE0E816F1046CF460E03D
:1039400089E00E94080D8CEE92E00E94850EC7016E
:103950000E947F0E0C942112C7010A978A359105A7
:1039600068F460E089E00E94080D8DEE92E00E940C
:10397000850EC7010E947F0E0C942112C701845648
:10398000910960E08438934060F489E00E94080D5A
:103990008EEE92E00E94850EC7010E947F0E0C946D
:1039A000211289E00E94080DC7010E947F0E0C942D
:1039B0002112FAE0EF16F1046CF460E081E00E945D
:1039C000080D8CEE92E00E94850EC7010E947F0ECA
:1039D0000C942112C7010A978A35910568F460E0BA
:1039E00081E00E94080D8DEE92E00E94850EC701D5
:1039F0000E947F0E0C942112C7018456910960E049
:103A00008438934060F481E00E94080D8EEE92E0CD
:103A10000E94850EC7010E947F0E0C94211281E046
:103A20000E94080DC7010E947F0E0C942112628132
:103A300070E090E080E00E94C94E20E030E040E27B
:103A400051E40E94284F20E030E040E85DE30E940E
:103A5000284F6B017C0120E030E0A9010E94A651B3
:103A600020E030E040E05FE387FD34C0C701B601ED
:103A70000E9492500E9470510E94C94E2091A70F3F
:103A8000243111F00C9421122091A60F243011F052
:103A90000C94211220E030E040E251E40E94FE50FC
:103AA0006B017C0120E030E040E251E40E94C24E14
:103AB00087FF15C062E085E00E94080D8EEE92E05F
:103AC0000E94850E41E050E0C701B6010E94870EBA
:103AD0000C942112C701B6010E949150CBCF20E077
:103AE00030E040E251E4C701B6010E94A65187FFD1
:103AF00002C00C94211262E085E00E94080D41E0B2
:103B000050E0C701B6010E94870E0C9421128091EB
:103B1000A80F81113AC0628170E090E080E00E94BD
:103B2000C94E20E030E040E05FE30E94284F6B0187
:103B30007C0120E030E0A9010E94A65120E030E0A5
:103B400040E05FE387FD30C0C701B6010E9492509C
:103B50000E947051F62E8091A70F843161F58091FB
:103B6000A60F843011F00C942112F9E0FF1570F1CA
:103B700060E080E00E94080D8DEE92E00E94850ECC
:103B80008F2D0E948C380C942112813091F4628127
:103B900070E090E080E00E94C94E2CEF3EEF4DECCB
:103BA0005FE30E94284FBDCFC701B6010E9491502C
:103BB000CFCFF12CD0CF803111F00C942112809115
:103BC000A60F823011F00C942112CFCF86EF8F0D0B
:103BD00060E08A3560F480E00E94080D8EEE92E08D
:103BE0000E94850E8F2D0E948C380C94211280E04B
:103BF0000E94080D8F2D0E948C380C942112C70151
:103C0000B6010E94915063CA86EF8F0D60E08A353D
:103C100060F480E10E94080D8EEE92E00E94850E15
:103C20008F2D0E948C380C94211280E10E94080D87
:103C30008F2D0E948C380C9421120FB6F8941EBF61
:103C40000FBE0DBF0C942612AF92BF92CF92DF929F
:103C5000EF92FF920F931F93CF93DF9300D000D08A
:103C60001F92CDB7DEB7522F932FCDB6DEB6E091BF
:103C7000BD14F091BE149E012F5F3F4F3097E1F5C8
:103C8000F901E15CF441FA83E983E981FA81D80121
:103C9000D896EA17FB07A8F587E0E6E7F2E0D90136
:103CA00001900D928A95E1F789017E01B8E0EB0E53
:103CB000F11CF80181918F010E940C0BE016F106B6
:103CC000C1F70FB6F894DEBE0FBECDBE0FB6F894A6
:103CD000DEBE0FBECDBE27960FB6F894DEBF0FBE78
:103CE000CDBFDF91CF911F910F91FF90EF90DF90AB
:103CF000CF90BF90AF900895D901AE1BBF0BFD01CF
:103D0000C2CF5801F6E0AF0EB11C2DB73EB72A194D
:103D10003B090FB6F8943EBF0FBE2DBFADB7BEB77F
:103D200011967D012DE3EDB7FEB7218398012E5F3B
:103D30003F4F11963C9311972CEF2A0D12962C931E
:103D400012978295880F880F807C680F13966C936A
:103D5000139714964C9314970115110561F0E52FF4
:103D6000F92F15969F01200F311FE217F30719F065
:103D700081918D93FACF0B5F1F4FF701319680E051
:103D80009F012E193F092017310718F49191890FCF
:103D9000F7CF0E0D1F1DD8018C9384E20E944D08B1
:103DA0008701C8018E199F098A159B0508F089CFE4
:103DB000F80181918F010E940C0BF3CF0F931F9399
:103DC000CF93DF93CDB7DEB7E7970FB6F894DEBF9A
:103DD0000FBECDBF8091780E89838091790E8A8342
:103DE00080917A0E8B838091820E882309F44DC1D5
:103DF00081E08C831D821E820E948B0580919B0E28
:103E00008F8380919C0E888780919D0E89878091F9
:103E10009E0E8A872091BD143091BE14CE01C696A5
:103E20002115310509F033C1815C94419FAB8EAB04
:103E30008EA99FA99B878C870E945C098091060EA2
:103E4000882309F427C181E08D878091870E8E87B2
:103E50008091880E8F8780916713888B8091B4142E
:103E60009091B514A091B614B091B714B98B80910C
:103E7000B4149091B514A091B614B091B714AA8B54
:103E80008091B4149091B514A091B614B091B71468
:103E90009B8B8091B4149091B514A091B614B091FD
:103EA000B7148C8B8091B8149091B914A091BA1466
:103EB000B091BB14BD8B8091B8149091B914A091AE
:103EC000BA14B091BB14AE8B8091B8149091B91410
:103ED000A091BA14B091BB149F8B8091B8149091AB
:103EE000B914A091BA14B091BB14888F80910E12AE
:103EF000898F80915B1390915C13A0915D13B091B9
:103F00005E13BA8F80915B1390915C13A0915D1347
:103F1000B0915E13AB8F80915B1390915C13A09175
:103F20005D13B0915E139C8F80915B1390915C1335
:103F3000A0915D13B0915E138D8F80915F1390916E
:103F40006013A0916113B0916213BE8F80915F13D3
:103F500090916013A0916113B0916213AF8F809123
:103F60005F1390916013A0916113B091621398A3B5
:103F700080915F1390916013A0916113B0916213CF
:103F800089A38091B5108AA38091021290910312A7
:103F9000A0910412B0910512BBA3809102129091DE
:103FA0000312A0910412B0910512ACA380910212E9
:103FB00090910312A0910412B09105129DA38091DB
:103FC000021290910312A0910412B09105128EA3D7
:103FD0008091061290910712A0910812B0910912D7
:103FE000BFA38091061290910712A0910812B09180
:103FF0000912A8A78091061290910712A0910812A9
:10400000B091091299A78091061290910712A09180
:104010000812B09109128AA78091A90F8823E1F1B3
:1040200081E08BA780918A0E8CA78091A70F8DA726
:104030008091A60F8EA78091890E8FA78091A80FDF
:1040400088AB8091530289AB8091500290915102CC
:104050009AAB8BAB80914E0290914F029CAB8DAB93
:1040600005E310E09E012F5F3F4F40E062E080E0FB
:104070000E94241EE7960FB6F894DEBF0FBECDBF98
:10408000DF91CF911F910F9108951C82B3CE821BB7
:10409000930BCCCE1D86D9CE1BA6C4CF0F931F93F6
:1040A000CF93DF93CDB7DEB76E970FB6F894DEBF30
:1040B0000FBECDBFE0E7FEE08081898381818A83E6
:1040C000E8E6FEE080818B8381818C8382818D8311
:1040D00083818E8384818F83858188878681898788
:1040E00087818A87E0E6FEE080818B8781818C87EB
:1040F00082818D8783818E8784818F878581888B5C
:104100008681898B87818A8B1B8A96E09C8B88E0CD
:104110008D8B1E8A22E62F8B2BE1288F24E3298F9B
:1041200026E72A8F1B8E9C8F8D8F1E8E0EE110E04E
:104130009E012F5F3F4F41E065E080E00E94241E1A
:104140006E960FB6F894DEBF0FBECDBFDF91CF9154
:104150001F910F9108950C94F64FEF92FF920F93D9
:104160001F93CF93DF93EC017B018A0188819981B2
:10417000009729F02A813B812417350788F4B8017C
:104180006F5F7F4F0E94BF51009791F099838883A2
:104190001B830A832C813D81232B11F4FC011082A7
:1041A0001D830C83B701888199810E94A9520CC09C
:1041B00088819981009711F00E94954D198218828B
:1041C0001D821C821B821A82CE01DF91CF911F912A
:1041D0000F91FF90EF900895CF93DF9300D000D020
:1041E000CDB7DEB720916413222301F1672BF1F0E4
:1041F0006BEF72E0892B11F465EF72E01A8219827D
:104200001C821B821E821D82FB0101900020E9F7A7
:104210003197AF01461B570BCE0101960E94AD208E
:1042200089819A81009711F00E94954D26960FB6CC
:10423000F894DEBF0FBECDBFDF91CF91089585ED1D
:104240008093BC0080915F1090916010A0916110EC
:10425000B09162100796A11DB11D23E0B695A795F8
:10426000979587952A95D1F72091BC0024FD03C02E
:1042700010925D10089540915F1050916010609110
:10428000611070916210452B462B472B69F3009704
:10429000A105B10541F025E32A95F1F7000001974A
:1042A000A109B109E1CF80915E100C9469061F93BA
:1042B000CF93DF93EC01162F0E94F64F181739F0B9
:1042C000612FCE01DF91CF911F910C942050DF918F
:1042D000CF911F9108950F931F93CF93DF931F9258
:1042E0001F92CDB7DEB7182F81113FC180910E12FA
:1042F00084FFD3C091E090930B1283FF8CC0909306
:104300000D1282FF8BC060E086E10E943D0460E0F8
:1043100087E10E943D0460E088E10E943D0460E086
:1043200089E10E943D0461E08AE10E943D0461E070
:104330008BE10E943D0480910E12837009F094C0BD
:104340008FEF93E00E94E50A8FEF93E090931012B5
:1043500080930F128091B51084FFF4C091E0909388
:10436000B21083FFADC09093B41082FFACC060E088
:1043700086E10E943D0460E087E10E943D0460E028
:1043800088E10E943D0460E089E10E943D0461E013
:104390008CE10E943D0461E08DE10E943D0480912A
:1043A000B510837009F0B5C08FEF93E00E94630AE7
:1043B0008FEF93E09093B7108093B61060910E1238
:1043C00084E290E00E9457216091B51085E290E070
:1043D0000E945721198280910E128A8302E010E018
:1043E0009E012F5F3F4F43E063E080E00E94241E68
:1043F00019828091B5108A839E012F5F3F4F43E061
:1044000063E080E00E94241E0F900F90DF91CF9117
:104410001F910F91089510920D1273CF1092B21048
:104420008091B5108F7E8093B51060E08AE10E9484
:104430003D0460E08BE10E943D0460E08CE10E945D
:104440003D0460E08DE10E943D0460E088E10E944F
:104450003D0460E089E10E943D0461E086E10E9444
:104460003D0461E087E165CF813039F48FE790E06A
:104470000E94E50A8FE790E069CF823039F48FE03F
:1044800090E00E94E50A8FE090E060CF87E090E046
:104490000E94E50A87E090E059CF10920B1260E08D
:1044A00086E10E943D0460E087E10E943D0460E0F7
:1044B0008AE10E943D0460E08BE10E943D044ACF06
:1044C0001092B41052CF10920B1280910E128F7E68
:1044D00080930E1260E08AE10E943D0460E08BE16F
:1044E0000E943D0460E08CE10E943D0460E08DE1AB
:1044F0000E943D0460E086E10E943D0460E087E1A7
:104500000E943D0461E088E10E943D0461E089E190
:1045100044CF813039F48FE790E00E94630A8FE73F
:1045200090E048CF823039F48FE090E00E94630A37
:104530008FE090E03FCF87E090E00E94630A87E041
:1045400090E038CF1092B21060E088E10E943D0404
:1045500060E089E10E943D0460E08CE10E943D043E
:1045600060E08DE10E943D0429CF82958695869575
:104570008370823009F08BC015FF20CF14FF74C008
:1045800081E080930B1213FF2DC080930D1212FF58
:104590002CC060E086E10E943D0460E087E10E945B
:1045A0003D0460E088E10E943D0460E089E10E94F2
:1045B0003D0461E08AE10E943D0461E08BE10E94DC
:1045C0003D04812F8370B9F58FEF93E00E94E50AD7
:1045D0008FEF93E09093101280930F121F7D109332
:1045E0000E12ECCE10920D12D2CF1092B21080911A
:1045F000B5108F7E8093B51060E08AE10E943D0483
:1046000060E08BE10E943D0460E08CE10E943D048B
:1046100060E08DE10E943D0460E088E10E943D047D
:1046200060E089E10E943D0461E086E10E943D0472
:1046300061E087E1C4CF813039F48FE790E00E94D8
:10464000E50A8FE790E0C6CF823039F48FE090E042
:104650000E94E50A8FE090E0BDCF87E090E00E94E5
:10466000E50A87E090E0B6CF10920B1260E086E199
:104670000E943D0460E087E10E943D0460E08AE121
:104680000E943D0460E08BE10E943D04A7CF83308F
:1046900009F094CE15FF92CE14FF74C081E0809390
:1046A000B21013FF2DC08093B41012FF2CC060E035
:1046B00086E10E943D0460E087E10E943D0460E0E5
:1046C00088E10E943D0460E089E10E943D0461E0D0
:1046D0008CE10E943D0461E08DE10E943D04812F48
:1046E0008370B9F58FEF93E00E94630A8FEF93E038
:1046F0009093B7108093B6101F7D1093B5105ECEC7
:104700001092B410D2CF10920B1280910E128F7EA5
:1047100080930E1260E08AE10E943D0460E08BE12C
:104720000E943D0460E08CE10E943D0460E08DE168
:104730000E943D0460E086E10E943D0460E087E164
:104740000E943D0461E088E10E943D0461E089E14E
:10475000C4CF813039F48FE790E00E94630A8FE77D
:1047600090E0C6CF823039F48FE090E00E94630A77
:104770008FE090E0BDCF87E090E00E94630A87E081
:1047800090E0B6CF1092B21060E088E10E943D0444
:1047900060E089E10E943D0460E08CE10E943D04FC
:1047A00060E08DE10E943D04A7CF2F923F924F928F
:1047B0005F926F927F928F929F92AF92BF92CF92B1
:1047C000DF92EF92FF920F931F93CF93DF93CDB7BA
:1047D000DEB7A2970FB6F894DEBF0FBECDBFADB661
:1047E000BEB680910B12811159C0712C8091B2100C
:1047F000882311F40C941C302091B6103091B7101E
:104800008091BA102F37310511F00C94FF2C8111D3
:1048100006C08091BB10882311F40C94092C0E94CF
:10482000220A882311F40C94092CCDB6DEB610921E
:10483000BA101092BB100E94220A8093CD10809172
:10484000CD1090E00496EDB7FEB7E81BF90B0FB65C
:10485000F894FEBF0FBEEDBF2DB73EB72F5F3F4FA1
:1048600079010E948B0580919B0EF70180838091D6
:104870009C0E818380919D0E828380919E0E838306
:1048800010E08091CD10181708F064C70E94430A09
:10489000F701E10FF11D84831F5FF3CF20910F1209
:1048A00030911012809113122F37310509F00DC28B
:1048B000811109C080911412811105C080913013BB
:1048C000882309F409C10E94830A882309F404C1DA
:1048D00010921312109214120E94830A80932612CF
:1048E0000E94830A8330C8F40E94830A833050F107
:1048F00090E080E00E94A40A439721F581E090E0D7
:104900000E94A40A892BF1F482E090E00E94A40A9C
:10491000892BC1F41092301315C090E080E00E9402
:10492000A40A439709F781E090E00E94A40A892B2A
:10493000D9F282E090E00E94A40A892BA9F281E0DA
:104940008093301380913013882309F47EC00E9435
:104950007F0500913213109133132091341330915D
:104960003513601B710B820B930B683C710581053D
:10497000910508F440C00E947F0560933213709344
:104980003313809334139093351382E0809326126F
:104990000E948B0580919B0E898380919C0E8A8357
:1049A00080919D0E8B8380919E0E8C8383E18D83FD
:1049B00090E080E00E94A40A439719F40E94C50A7F
:1049C000F7CF0E94C50A8E830091261210E00C5F7B
:1049D0001F4F9E012F5F3F4F41E067E082E00E9442
:1049E000241E409126124C5FBE016F5F7F4F82E014
:1049F0000E94E11102C00E94C50A8D81823141F4FA
:104A000080910E128E7F826380930E120E946B2122
:104A100080913813882309F44AC090913A13911178
:104A200012C190912913913009F0CCC020913E130E
:104A3000A8E2B2E1FE01359690E0291729F14D91E7
:104A40003191431380E09F5FF8CF0E948B058091E6
:104A50009B0E898380919C0E8A8380919D0E8B830F
:104A600080919E0E8C8310E080912612181708F01A
:104A7000ABCF0E94C50AE5E0F0E0EC0FFD1FE10FAF
:104A8000F11D80831F5FF0CF882319F081E08093B0
:104A9000391380913D13882351F0109228131092FE
:104AA00038131092391310923A1310923C130E944B
:104AB0007C0A80915B1390915C13A0915D13B0917F
:104AC0005E130196A11DB11D80935B1390935C133F
:104AD000A0935D13B0935E13809138138823E1F1A6
:104AE0000E94830A811138C00E947F0560939F0E47
:104AF0007093A00E8093A10E9093A20E00914B1381
:104B000010914C1320914D1330914E136B017C0189
:104B1000C01AD10AE20AF30A0091491310914A130C
:104B200030E020E0C016D106E206F306A8F060935C
:104B30004B1370934C1380934D1390934E138091AD
:104B40003913882349F080913A13811142C281E0E0
:104B500080932F131092391370902F13772009F43C
:104B600044CE0E94830A182F81113FCE20910F124C
:104B700030911012809129132F37310509F0F0C3BD
:104B8000813009F070C380912813181708F013C3FF
:104B90000E947F056B017C01E12FF0E0E55FFD4E97
:104BA000858D0E948B0A00E00E94830A181708F482
:104BB000F0C2002309F4F1C201E010E02CE432E07D
:104BC0004EEF19C3923008F464CF30913E13109128
:104BD0002813A12FB0E0A75DBD4EAE014B5F5F4F24
:104BE00020E0321741F07D91FA016191AF01761317
:104BF00080E02F5FF6CF882309F44BCF21E020938C
:104C0000391380912A138F5F80932A13E12FE30FCA
:104C1000EF5FE0932813F0E0E55FFD4E358D3093B4
:104C20003E13981336CF10922A13109228138091B6
:104C3000281280933E1380913C13882309F429CFD6
:104C400020933D1326CF2091261280913E1390E0B1
:104C500001962817190621F581E0809339131092E7
:104C60004F1380913D13882309F421CF109228130C
:104C700010923E13109238131092391310923A1377
:104C800010923C1319A282E08AA302E010E09E0178
:104C90002F5D3F4F41E066E080E00E94241E07CF79
:104CA00091E090932F1380914F138F5F80934F1358
:104CB0008B3020F09093391310924F1368EC70E012
:104CC00080E090E00E944D05CCCF2F30310509F0F7
:104CD000F9C0811105C080911412882309F4FCCE1B
:104CE0000E94830A882309F4F7CECDB6DEB610926F
:104CF0001312109214120E94830A8093261240917C
:104D0000281260E170E085E392E00E940D0A0091B4
:104D1000261210E0882309F44CC0000F111F0D5F0C
:104D20001F4F2DB73EB7201B310B0FB6F8943EBF77
:104D30000FBE2DBF8DB79EB701967C010E948B05DB
:104D400080919B0EF701808380919C0E81838091DE
:104D50009D0E828380919E0E8383809129138130E2
:104D6000C1F590902812492D60E170E085E392E052
:104D70000E940D0A882301F1F70194820E94C50A5E
:104D8000712C80912813781608F04BC0872D90E085
:104D90004C01880C991C8E0C9F1C855F9D4EFC015C
:104DA000868DF40185830E94C50AF401868373947D
:104DB000E8CF0C5F1F4FB5CF912C8091261298162B
:104DC00080F50E94C50AF701E90DF11D84839394D3
:104DD000F4CF823060F1E0912813F0E0E55FFD4E02
:104DE000868DF70184830E94C50A712C80913E1341
:104DF0007816B8F4872D90E04C01880C991C8E0C25
:104E00009F1CE0912813F0E0E55FFD4EE80FF91FCD
:104E1000878DF40185830E94C50AF401868373940B
:104E2000E5CF970142E067E082E00E94241EF7018F
:104E300084818E3F41F480910E128D7F8163809337
:104E40000E120E946B21809138138823C9F0809143
:104E50003A138111B1C090912913913009F081C0AA
:104E60009093391380913D13882351F010922813A9
:104E7000109238131092391310923A1310923C1377
:104E8000409126124C5FB70182E00E94E1110E941E
:104E90007C0A80915B1390915C13A0915D13B0919B
:104EA0005E130196A11DB11D80935B1390935C135B
:104EB000A0935D13B0935E130FB6F894DEBE0FBEE1
:104EC000CDBE0ACE811105C080911412882309F449
:104ED00003CE0E94830A882309F4FECDCDB6DEB648
:104EE00010921312109214120E94830A80932612B9
:104EF0008091261290E004962DB73EB7281B390BFF
:104F00000FB6F8943EBF0FBE2DBF8DB79EB701966A
:104F10007C010E948B0580919B0EF701808380911C
:104F20009C0E818380919D0E828380919E0E83834F
:104F300010E080912612181740F40E94C50AF7016C
:104F4000E10FF11D84831F5FF4CF0091261210E062
:104F50000C5F1F4F970141E067E082E00E94241E32
:104F600072CF923008F47ECF21E0209339138091E4
:104F70002A138F5F80932A13E091281330913E13F8
:104F8000E30FEF5FE0932813F0E0E55FFD4E358D12
:104F900030933E13981366CF10922A131092281361
:104FA0008091281280933E1380913C13882309F44A
:104FB00059CF20933D1356CF81E0809339138091D0
:104FC0003D13882309F45CCF1092281310923E13EE
:104FD0004FCF20913E13243009F04DC0809128130B
:104FE000811113C080913F13909140133091411370
:104FF00040914213409328123093291290932A1221
:1050000080932B1220932813A2CD609128127091C7
:10501000291280912A1290912B120E94B851C090AF
:105020004713D0904813F12CE12CDC01CB018C0DFF
:105030009D1DAE1DBF1DB0932812A0932912909301
:105040002A1280932B1220932813C80ED91EEA1E11
:10505000FB1E00914313109144132091451330918E
:1050600046130C151D052E053F0508F070CD81E097
:1050700080933D136CCD233009F045C080912813F7
:1050800081110DC080913F139091401330914113D5
:10509000309328129093291280932A12B3CF309123
:1050A00028128091291290E0B0E0A0E0BA2FA92F39
:1050B000982F8827A32B30912A12832B40914713D6
:1050C0005091481370E060E0840F951FA61FB71F32
:1050D000A09328129093291280932A1220932813C8
:1050E000840F951FA61FB71F40914313509144137F
:1050F0006091451370914613481759076A077B075B
:1051000008F4B5CF24CD223029F5809128138111E0
:1051100009C080913F13909140139093281280937F
:10512000291270CF40914713509148138091281253
:1051300090912912982789279827840F951F90937B
:1051400028128093291220932813840F951FB0E012
:10515000A0E0CACF213009F0FACC80912813811148
:1051600008C080913F138093281281E08093281318
:10517000EECC209147133091481380912812820F72
:105180008093281291E090932813820F932F911D02
:10519000DECF011111CD1F5FF6CC0E947F056C1987
:1051A0007D098E099F0901E0643171058105910532
:1051B00008F0FACCF8CC81E08093131290E080E004
:1051C0000E94A40A482F65E070E080E392E00E940C
:1051D0000D0A882361F10E94830A082F10E00E94C3
:1051E000830A081708F4B2C2112361F001E010E04D
:1051F0002CE432E046EF6FE080E00E94241E0E9423
:105200007C0A01C10E947F05C0902B13D0902C1303
:10521000E0902D13F0902E136C197D098E099F09D3
:1052200011E06436710581059105C8F6D7CF0E945B
:10523000830A813198F40E947F0500912B1310910D
:105240002C1320912D1330912E13601B710B820BA8
:10525000930B643671058105910548F381E08093D5
:105260001412712CD0C08230E0F3109128131F5F0C
:10527000E12EF12C8091281390E0019620913E13AD
:10528000820F911DE816F9063CF50E947F051B016F
:105290002C01F701E55FFD4E858D0E948B0A00E031
:1052A000809128136701C81AD1080E94830A8C15BF
:1052B0001D047CF4011180CC0E947F0562197309E2
:1052C0008409950901E0643171058105910540F774
:1052D000E6CF002361F270CC81E08093131290E05E
:1052E00080E00E94A40A482F65E070E080E392E02D
:1052F0000E940D0A882301F10E94830A082F10E002
:105300000E94830A081708F421C211116FCF0E946E
:105310007F05C0902B13D0902C13E0902D13F090AC
:105320002E136C197D098E099F0911E064367105F1
:105330008105910528F7E3CF0E947F0500912B138B
:1053400010912C1320912D1330912E13601B710B93
:10535000820B930B643671058105910568F37ECF4E
:105360002F30310509F040C1813009F0F4C080913F
:105370002813823070F0809129128F3F51F4E9E2B6
:10538000F2E180E081938F5F803FE1F781EF8093CE
:10539000281300912812402F60E170E085E392E02D
:1053A0000E940D0AF82E882309F454C08091281316
:1053B000181708F053CF0E947F052B013C01812F65
:1053C00090E09C01255F3D4E6901F901858D0E94A9
:1053D0008B0A00E00E94830A181758F1002369F134
:1053E000809128128983F601858D8A8302E010E07E
:1053F0009E012F5F3F4F4AEF6FE080E00E94241E26
:105400000E947C0A7F2C10922F1380915F13909141
:105410006013A0916113B09162130196A11DB11D9B
:1054200080935F1390936013A0936113B093621302
:10543000DDC90111D5CF1F5FB9CF0E947F05641967
:1054400075098609970901E06530710581059105A7
:1054500008F6BFCF053409F051C080912813181702
:1054600018F50E947F051B012C01E12FF0E0E55F9C
:10547000FD4E858D0E948B0A00E00E94830A18175A
:1054800078F0011199CB0E947F0562197309840994
:10549000950901E0653071058105910570F7ECCF44
:1054A00001118ACB1F5FD9CF00912C1210912D12C0
:1054B0001027012710270E947F051B012C010B5F7D
:1054C0001F4F0E94830A8017110688F4F11074CBD5
:1054D0000E947F056219730984099509FF24F394DA
:1054E000643F71408105910560F7F12CEACFFF2000
:1054F00009F4B4CE61CB011118C01F5F809128134D
:10550000181708F0ABCE0E947F056B017C01E12FDC
:10551000F0E0E55FFD4E858D0E948B0A00E00E9461
:10552000830A181740F3002349F08FEF898301E0C5
:1055300010E09E012F5F3F4F4AEF5DCE0E947F0536
:105540006C197D098E099F0901E0643F7140810556
:10555000910528F7E3CF823008F483CED09028134A
:10556000EE24E394ED0CD094FD2CFE0C0E2D10E0F7
:105570008091281390E0019620913E13820F911D97
:10558000081719070CF06ACE0E947F051B012C0139
:10559000F801E55FFD4E858D0E948B0A10E00E94A8
:1055A000830AF81680F0112391F0E0912813F0E0BF
:1055B000E45FFD4E858D8983EF0DF11D858D8A8316
:1055C00002E010E0B6CF1111F0CFE394CDCF0E94EE
:1055D0007F05621973098409950911E06530710529
:1055E00081059105E0F6DACF813009F046C080915F
:1055F0002813181718F50E947F056B017C01E12F15
:10560000F0E0E55FFD4E858D0E948B0A00E00E9470
:10561000830A181778F00111CFCA0E947F056C1910
:105620007D098E099F0901E06431710581059105AD
:1056300070F7ECCF0111C0CA1F5FD9CF81E0809312
:1056400013120E94830A082F0E947F056B017C01C0
:1056500010E00E94830A081708F478C01111C6CD23
:105660000E947F056C197D098E099F0911E0623344
:1056700071058105910568F7EBCF823008F4F1CD13
:10568000D0902813EE24E394ED0CD094FD2CFE0C66
:105690000E2D10E08091281390E0019620913E138A
:1056A000820F911D081719079CF50E947F051B01A9
:1056B0002C01F801E55FFD4E858D0E948B0A10E0FC
:1056C0000E94830AF81698F01123A9F0E09128139C
:1056D000F0E0E45FFD4E858D8983EF0DF11D858D32
:1056E0008A8302E010E09E012F5F3F4F69CA1111CB
:1056F000EDCFE394CBCF0E947F0562197309840933
:10570000950911E06431710581059105C8F6D7CF7F
:1057100081E0809313120E94830A082F0E947F0564
:105720006B017C0110E00E94830A081778F01111C8
:105730005DCD0E947F056C197D098E099F0911E0DE
:10574000623371058105910570F7ECCF112309F4DF
:1057500085CD4CCD0091CD1010E00C5F1F4F97010F
:1057600041E067E083E00E94241EF70184818231DA
:1057700041F48091B5108E7F82638093B5100E94B2
:105780006B219091DF11992351F18091E1118111E9
:10579000F4C02091D011213009F0B1C02091E51161
:1057A000AFECB0E1F7013496281731F04D9131910B
:1057B000431390E08F5FF8CF992319F081E0809335
:1057C000E0118091E411882351F01092CF111092D2
:1057D000DF111092E0111092E1111092E3110E947A
:1057E0001B0A8091021290910312A0910412B091B1
:1057F00005120196A11DB11D809302129093031210
:10580000A0930412B09305120FB6F894DEBE0FBE3B
:10581000CDBE8091DF118823E1F10E94220A81111F
:1058200038C00E947F0560939F0E7093A00E8093F6
:10583000A10E9093A20E0091F2111091F3112091FC
:10584000F4113091F5116B017C01C01AD10AE20A02
:10585000F30A0091F0111091F11130E020E0C01630
:10586000D106E206F306A8F06093F2117093F311EB
:105870008093F4119093F5118091E011882349F001
:105880008091E11181117DC281E08093D611109247
:10589000E0118091D611882309F4CEC30E94220A18
:1058A000182F8111C9C32091B6103091B710809183
:1058B000D0112F37310509F05CC4813009F0DAC30B
:1058C0008091CF11181708F04FC30E947F056B011C
:1058D0007C01E12FF0E0EE54FF4E858D0E942A0AF4
:1058E000712C0E94220A181708F42BC3772009F4A0
:1058F0002CC301E010E02CE432E04EEF54C3223020
:1059000008F45FCF4091E5118091CF11A82FB0E04E
:10591000A053BF4EF701349630E0431731F06D913C
:105920005191651390E03F5FF8CF992309F449CF77
:1059300031E03093E0119091D1119F5F9093D1119C
:10594000E82FE40FEF5FE093CF11F0E0EE54FF4E4D
:10595000858D8093E511291334CF1092D1111092C7
:10596000CF118091CF108093E5118091E3118823AE
:1059700009F427CF3093E41124CF2091CD108091EA
:10598000E51190E001962817190621F581E0809332
:10599000E0111092F6118091E411882309F41FCFD1
:1059A0001092CF111092E5111092DF111092E011B8
:1059B0001092E1111092E311198283E08A8302E0D0
:1059C00010E09E012F5F3F4F41E066E080E00E94C3
:1059D000241E05CF91E09093D6118091F6118F5F30
:1059E0008093F6118B3020F09093E0111092F61115
:1059F00068EC70E080E090E00E944D05CCCF2F3045
:105A0000310509F002C1811105C08091BB108823C6
:105A100009F4FFCE0E94220A882309F4FACE8DB63B
:105A20009EB61092BA101092BB100E94220A809368
:105A3000CD100091CD1010E0000F111F0D5F1F4F12
:105A40002DB73EB7201B310B0FB6F8943EBF0FBEEB
:105A50002DBF8DB79EB701967C010E948B0580916A
:105A60009B0EF701808380919C0E818380919D0E17
:105A7000828380919E0E83838091D0118130E9F4DE
:105A80008091CF1084830E94430A612C8091CF11B2
:105A90006816D8F5862D90E06C01CC0CDD1CCE0C80
:105AA000DF1C8E549F4EFC01868DF60185830E947B
:105AB000430AF60186836394E9CF823060F1E09176
:105AC000CF11F0E0EE54FF4E868DF70184830E94E3
:105AD000430A612C8091E5116816B8F4862D90E098
