:100000004DC100003DC4000010C40000E3C3000067
:10001000B6C3000089C300005CC300002FC300000A
:1000200002C300006CC100006AC1000068C100008A
:1000300066C1000064C1000062C1000060C1000030
:100040005EC100005CC100005AC1000058C1000040
:1000500056C1000054C1000052C100000C94B01001
:100060004EC100000C942D0C0C94F20B48C1000002
:1000700046C1000044C1000042C1000040C1000070
:100080003EC100003CC100003AC1000038C1000080
:100090000C94B90B0C94890B32C100001CC40000F5
:1000A0002EC100002CC100002AC1000028C10000A0
:1000B00026C1000024C1000022C1000020C10000B0
:1000C0001EC100001CC100001AC100000C944C0BA2
:1000D0000C941D0B14C100000C94E00A0C94B10A9E
:1000E0000EC10000A818F913AA18AD182819701A23
:1000F000701A701A701A701A701A701A701A701AB0
:10010000A919CA19840F870F760F7A0F7E0FBE0FB9
:100110008B0F8F0F950F990F9D0FA30FA70FAB0F8D
:10012000BE0FB10FB50FB90F2D2D2D2D2D2D2D2D4E
:100130002D2D2D2D2D2D2D2D2D2D2D2D00205343ED
:10014000414E4E45522056312E3430203230313817
:100150002000202043485259534C455220434344E9
:100160002F5343492020002D2D2D2D2D2D2D2D2DAC
:100170002D2D2D2D2D2D2D2D2D2D2D00434852595A
:10018000534C45524343445343495343414E4E45D8
:100190005200002100240027002A002D00300033E7
:1001A0000001010000040107010A010000220025EE
:1001B0000028002B002E0031003400020100000551
:1001C0000108010B010505050507050808080802D7
:1001D0000202020A0A0808040404040101010101E0
:1001E0000101010303030303030303040707070CCF
:1001F0000C0C0C0C0C0C0C02020202060606060685
:100200000606060B0B0B0B0B0B0B0B010210202031
:10021000080810204010204080020102010804025A
:1002200001010204081020408080402010080402D0
:100230000180040201804020100804020108040229
:10024000010102040810204080010204081020402F
:100250008000000A0B02090C0D0E080703040100C0
:10026000000000000000000000000000000000008E
:10027000000000000000000000000000001211104B
:10028000000000000000000000000000000000006E
:100290000000000000000000FA1CF51C11241FBE25
:1002A000CFEFD1E2DEBFCDBF00E00CBF12E0A0E097
:1002B000B2E0E8E7F4E400E00BBF02C007900D9263
:1002C000A83DB107D9F727E1A8EDB2E001C01D9222
:1002D000A33FB207E1F711E0CDE4D1E000E006C0B2
:1002E00021970109802FFE010E941721CC34D107EC
:1002F00080E00807A9F70E94FA100C942B2280CE08
:100300000895CF92DF92EF92FF920F931F93CF93B6
:10031000DF936C017A018B01C0E0D0E0CE15DF05E0
:1003200081F0D8016D918D01D601ED91FC91019084
:10033000F081E02DC6011995892B11F02196EECFA1
:100340007E01C701DF91CF911F910F91FF90EF9038
:10035000DF90CF90089585ED8093BC008091BC0024
:1003600084FDFCCF10928B17089540911417262F0F
:1003700030E0240F311D21323105DCF420918B1740
:100380002430C9F4FC0180E090E0861758F43091E5
:1003900014172191DC01AC50B94EA30FB11D2C9361
:1003A0000196F3CF80911417680F6093141780E0C3
:1003B000089581E0089582E00895089508950895CC
:1003C000E091441780914317E81730F4F0E0EB5BBD
:1003D000F84E808190E008958FEF9FEF08959091FF
:1003E000441780914317981750F4E92FF0E0EB5B26
:1003F000F84E208130E09F5F9093441702C02FEFAA
:100400003FEFC90108958091431790E02091441770
:10041000821B91090895CF92DF92EF92FF920F9382
:100420001F93CF93DF937C01CB018A0120918C171E
:10043000222389F0EB016B01C40ED51ECC15DD051E
:1004400061F06991D701ED91FC910190F081E02D6F
:10045000C7011995F3CF642F88DFC801DF91CF91D1
:100460001F910F91FF90EF90DF90CF900895CF9361
:10047000DF931F92CDB7DEB7698320918C172223BB
:10048000D1F02091AF17203240F021E030E0FC01A4
:100490003383228380E090E014C080918D17E82F91
:1004A000F0E0E257F84E998190838F5F80938D172B
:1004B0008093AF1704C061E0CE01019656DF81E062
:1004C00090E00F90DF91CF91089521E001C0220FBD
:1004D0006A95EAF7DC011C962C931C971A965C939C
:1004E0004E931997ED91FC910484F585E02D60E021
:1004F0001994DC01ED91FC910684F785E02D41E033
:10050000199581E090E0089508950895089580E098
:1005100090E0089581E08093B01608950E94FF2135
:100520000F931F93CF93DF93062F0F70423019F470
:1005300040E0602F0EC0142FEC0170E084E0759550
:1005400067958A95E1F7CE010E94270F412F602F12
:10055000CE01DF91CF911F910F910C94270FFC01D9
:1005600084858823A9F0218532852115310519F468
:10057000611106C007C02130310521F4611102C0AC
:10058000858701C015866585CF010E960C94030FF3
:1005900008950F931F9305E110E02DEE32E040E047
:1005A00061E080E00E94C30C1F910F910895CF93EA
:1005B000DF931F92CDB7DEB7198201E010E09E01F4
:1005C0002F5F3F4F40E060E080E00E94C30C60E09E
:1005D00085E20E94550FFFCF0F931F93CF93DF93B8
:1005E000EC0188819981009729F02A813B812617A7
:1005F000370788F48B016F5F7F4F0E941F210097A0
:1006000061F0998388831B830A832C813D81232B8E
:1006100011F4FC01108281E001C080E0DF91CF91F4
:100620001F910F9108951F920F920FB60F921124F0
:100630000BB60F922F933F934F935F936F937F93DC
:100640008F939F93AF93BF93EF93FF93E0910E022D
:10065000F0910F021995FF91EF91BF91AF919F918A
:100660008F917F916F915F914F913F912F910F905B
:100670000BBE0F900FBE0F901F9018951F920F92F8
:100680000FB60F9211240BB60F922F933F934F93F7
:100690005F936F937F938F939F93AF93BF93EF93EA
:1006A000FF93E0910C02F0910D021995FF91EF91EB
:1006B000BF91AF919F918F917F916F915F914F917A
:1006C0003F912F910F900BBE0F900FBE0F901F9078
:1006D00018951F920F920FB60F9211240BB60F921E
:1006E0002F933F934F935F936F937F938F939F933A
:1006F000AF93BF93EF93FF93E0910202F091030257
:100700001995FF91EF91BF91AF919F918F917F913B
:100710006F915F914F913F912F910F900BBE0F9072
:100720000FBE0F901F9018951F920F920FB60F9249
:1007300011240BB60F922F933F934F935F936F93B8
:100740007F938F939F93AF93BF93EF93FF93E0912A
:100750000002F09101021995FF91EF91BF91AF91C5
:100760009F918F917F916F915F914F913F912F91C9
:100770000F900BBE0F900FBE0F901F9018951F92F9
:100780000F920FB60F9211240BB60F922F933F9337
:100790004F935F936F937F938F939F93AF93BF9389
:1007A000EF93FF93E0910A02F0910B021995FF91EC
:1007B000EF91BF91AF919F918F917F916F915F91D9
:1007C0004F913F912F910F900BBE0F900FBE0F9046
:1007D0001F9018951F920F920FB60F9211240BB60F
:1007E0000F922F933F934F935F936F937F938F93CA
:1007F0009F93AF93BF93EF93FF93E0910802F09123
:1008000009021995FF91EF91BF91AF919F918F913F
:100810007F916F915F914F913F912F910F900BBE00
:100820000F900FBE0F901F9018951F920F920FB64A
:100830000F9211240BB60F922F933F934F935F9318
:100840006F937F938F939F93AF93BF93EF93FF9398
:10085000E0910602F09107021995FF91EF91BF9187
:10086000AF919F918F917F916F915F914F913F9148
:100870002F910F900BBE0F900FBE0F901F901895E9
:100880001F920F920FB60F9211240BB60F922F9357
:100890003F934F935F936F937F938F939F93AF9308
:1008A000BF93EF93FF93E0910402F0910502199535
:1008B000FF91EF91BF91AF919F918F917F916F9138
:1008C0005F914F913F912F910F900BBE0F900FBEF4
:1008D0000F901F9018951F920F920FB60F92112430
:1008E0000BB60F922F933F934F935F936F937F932A
:1008F0008F939F93AF93BF93EF93FF938091B90032
:10090000887F803609F49CC068F5883209F45BC0A2
:1009100090F4803109F454C038F4882309F4F6C007
:10092000883009F44DC0F5C0883109F44CC08032DC
:1009300009F45DC0EEC0803409F468C048F4803327
:1009400009F455C0883309F0E4C080938917D8C0F2
:10095000803509F44FC0883509F45DC0883409F04A
:10096000D8C0D6C0883909F4C7C0A8F4883709F4BC
:1009700067C038F4883609F463C0803709F460C072
:10098000C8C0883809F4B8C0803909F45FC080381D
:1009900009F0BFC05BC0803B09F486C038F4803AE0
:1009A00009F466C0883A09F47FC0B3C0803C09F4FA
:1009B000A7C0883C09F4A4C0883B09F48AC0A9C038
:1009C0008091661710C090918817809187179817AB
:1009D00070F5E091881781E08E0F80938817F0E022
:1009E000E959F84E80818093BB0085EC86C08093E6
:1009F00089178EC0E091881781E08E0F8093881749
:100A00008091BB00F0E0E959F84E808390918817FF
:100A1000809187176EC0E091881781E08E0F8093D8
:100A200088178091BB00F0E0E959F84E80838091EF
:100A30008A1781116DC081E08093651784EA61C0D7
:100A400083E080938B1710923617CFCF80913617A3
:100A5000803208F051C0E091361781E08E0F80930C
:100A600036178091BB00F0E0EA5EF84E8083BDCF80
:100A700085EC8093BC0010928B17809136178032E2
:100A800030F4E0913617F0E0EA5EF84E10826091A3
:100A9000361770E0E0913F17F091401786E197E13B
:100AA00019951092361735C084E080938B171092F9
:100AB000151710921417E0914117F09142171995EC
:100AC00080911417811105C081E080931417109252
:100AD000F416E091151781E08E0F80931517F0E062
:100AE000EC50F94E80818093BB0090911517809156
:100AF0001417981708F479CF85E88093BC0009C0D3
:100B000085EC8093BC0010928B1703C0109289175C
:100B100022DCFF91EF91BF91AF919F918F917F91D7
:100B20006F915F914F913F912F910F900BBE0F905E
:100B30000FBE0F901F901895DC01ED91FC9106847B
:100B4000F785E02D40E019940F931F93CF93DF9327
:100B5000EC01423018F08C8188608C834F83688769
:100B6000222329F0413019F48C8184608C8364E65F
:100B700070E080E090E00E9464106C8164FD31C000
:100B8000E881F9810684F785E02D42E063E0CE013B
:100B900019958BE496E40197F1F7E881F9810684D1
:100BA000F785E02D42E063E0CE01199503E512E000
:100BB000C8010197F1F7E881F9810684F785E02DF6
:100BC00042E063E0CE011995C8010197F1F7E88191
:100BD000F9810684F785E02D42E062E0CE011995A7
:100BE00014C06062CE01A8DF8BE496E40197F1F7B0
:100BF0006C816062CE01A0DF03E512E0C8010197BD
:100C0000F1F76C816062CE0197DFC8010197F1F7BF
:100C10006C816062CE0190DF8BEE90E00197F1F77E
:100C200084E08D836CE0CE0187DF61E0CE0184DF5C
:100C30008BE39FE10197F1F782E08E8366E0CE01BE
:100C40007BDFE881F9810484F585E02D6FEFCE012B
:100C5000DF91CF911F910F911994FF920F931F93E2
:100C6000CF93DF93EC01162F042FF22E8B85888B08
:100C70000E94D30F888991E090938C178093AE17D0
:100C800010928D171092AF17F0D691E0811190E07D
:100C9000998B811104C084EB97E1A1DB8E87898950
:100CA000882339F01F861C8260E0CE010E960E94D8
:100CB000030F2F2D402F612FCE01DF91CF911F9178
:100CC0000F91FF9041CFA0E8B0E01C92E1E8F0E086
:100CD00010821092850010928400259A8C91806475
:100CE0008C9387E090E090938900809388008081C6
:100CF00089608083089586E30E943F10BC0180E0F4
:100D000090E00E94351F20E030E040EA50E40E946D
:100D1000721F20E030EC4FE754E40E94832020E073
:100D200030E040E052E40E94721F20E030E040EAF0
:100D300050E40E94832020E030E048EC52E40E941E
:100D4000721F0E94EB20683522E0720738F410927F
:100D50001605109217051092B11608957093160596
:100D60006093170581E08093B11608950F931F9348
:100D7000CF93DF931F921F92CDB7DEB78091EA0227
:100D80008093B2168091EB028093B3168091EC02AF
:100D90008093B416809114038093B5168091150347
:100DA0008093B61680910C038093B71680910D0343
:100DB0008093B81680910E038093B91680910F032B
:100DC0008093BA16809110038093BB168091110313
:100DD0008093BC16809112038093BD1680911303FB
:100DE0008093BE16809104038093BF168091050303
:100DF0008093C016809106038093C11680910703EB
:100E00008093C216809108038093C31680910903D2
:100E10008093C41680910A038093C51680910B03BA
:100E20008093C6161092C7161092C8161092C91653
:100E30001092CA168DE58093CB168CE68093CC1663
:100E40008DE28093CD168CEE8093CE1680910303B5
:100E50008093CF16809102038093D0160E94A81031
:100E60008091B0178093D1168091B1178093D216DC
:100E70008091B2178093D3168091B3178093D416C4
:100E80002091EF173091F017CE0101962115310511
:100E900019F4835F974102C0821B930B9A83898365
:100EA00089819A819093D5168093D61624DF8091FC
:100EB000B116882321F081E08093D71602C01092EA
:100EC000D716809116058093D816809117058093C8
:100ED000D91680914002882321F081E08093DA16B0
:100EE00002C01092DA1680915E0590915F05A09184
:100EF0006005B0916105B093DB1680915E0590911D
:100F00005F05A0916005B0916105A093DC1680910A
:100F10005E0590915F05A0916005B0916105909389
:100F2000DD1680915E0590915F05A0916005B091FE
:100F300061058093DE1680915A0590915B05A09122
:100F40005C05B0915D05B093DF1680915A059091D4
:100F50005B05A0915C05B0915D05A093E0168091C2
:100F60005A0590915B05A0915C05B0915D05909349
:100F7000E11680915A0590915B05A0915C05B091B6
:100F80005D058093E216809142028093E316809182
:100F90007205909173052091740530917505309319
:100FA000E4162093E5169093E6168093E716809159
:100FB0006E0590916F052091700530917105309309
:100FC000E8162093E9169093EA168093EB16809129
:100FD00068059091690520916A0530916B05309301
:100FE000EC162093ED169093EE168093EF168091F9
:100FF00064059091650520916605309167053093F1
:10100000F0162093F1169093F2168093F31602E4F3
:1010100010E022EB36E140E062E080E0B4D40F90D3
:101020000F90DF91CF911F910F910895CF93C82F0B
:1010300060E03BD7C43279F0C532C1F0C33201F56C
:101040000E949C1060937F057093800580938105BA
:101050009093820515C00E949C1060937B0570934D
:101060007C0580937D0590937E050AC00E949C10AC
:1010700060937705709378058093790590937A054E
:10108000CF91089584E2D2DF72C40895F8948091DC
:10109000E6029091E7027894891B08952091E80276
:1010A00030E02F5F3F4FA9015527F8946091E90286
:1010B000789470E046175707C1F3FA01E055FA4EED
:1010C00080832093E8028091310180628093310116
:1010D0000895F8949091E6028091E702981304C075
:1010E000789480E092E0089578948091E70290E00F
:1010F0000196FC01FF278093E702E055FB4E20811B
:101100008091AF1490E0982F8827820F911D089549
:10111000F8941092E6021092E7021092E802109200
:10112000E902789480933401E1E3F1E080818869F9
:101130008083E2E3F1E08081866080830895F89403
:101140008091E2029091E3027894891B08952091A6
:10115000E40230E02F5F3F4FA9015527F8946091DA
:10116000E502789470E046175707C1F3FA01E1559C
:10117000FC4E80832093E4028091D10080628093B2
:10118000D1000895F8949091E2028091E3029813BF
:1011900004C0789480E092E0089578948091E3020E
:1011A00090E00196FC01FF278093E302E155FD4E9C
:1011B00020818091AE1290E0982F8827820F911D98
:1011C0000895F8941092E2021092E3021092E40261
:1011D0001092E50278948093D400E1EDF0E08081F4
:1011E00088698083E2EDF0E08081866080830895E5
:1011F0000F931F93CF93C82F87FF76C08091420231
:10120000982F9F77C6FF5FC0892F8064809342022A
:1012100060E0C5FF18C086E148D660E087E145D6AA
:1012200060E088E142D660E089E13FD661E08AE192
:101230003CD661E08BE139D681E080934302809116
:101240004202806223C08AE130D660E08BE12DD675
:1012500060E08CE12AD660E08DE127D660E088E18D
:1012600024D660E089E121D661E086E11ED661E006
:1012700087E11BD681E08093430210926D05809137
:10128000420282FD02C08F7D01C08B7D80934202AD
:1012900080917605C4FF0BC0811126C08FE091DFDD
:1012A00081E08093760580914202806109C08823A5
:1012B000D9F08FE786DF10927605809142028F7E0B
:1012C0008093420211C08F738093420210924302B6
:1012D00060E086E1EAD560E087E1E7D560E08AE199
:1012E000E4D560E08BE1E1D5C3FF76C08091420296
:1012F000982F977FC2FF5FC0892F8460809342023E
:1013000060E0C1FF18C086E1D0D560E087E1CDD5AF
:1013100060E088E1CAD560E089E1C7D561E08CE191
:10132000C4D561E08DE1C1D581E080936D058091E8
:101330004202826023C08AE1B8D560E08BE1B5D576
:1013400060E08CE1B2D560E08DE1AFD560E086E190
:10135000ACD560E087E1A9D561E088E1A6D561E080
:1013600089E1A3D581E080936D05109243028091BD
:10137000420286FD02C08D7F01C08D7B80934202B8
:1013800080916C05C0FF0BC0811126C08FE0C0DECC
:1013900081E080936C0580914202816009C08823BE
:1013A000D9F08FE7B5DE10926C05809142028E7FF6
:1013B0008093420211C0837F8093420210926D0598
:1013C00060E088E172D560E089E16FD560E08CE192
:1013D0006CD560E08DE169D58091430281110BC02D
:1013E00090916D05911107C080916D05811108C024
:1013F0001092440205C091E0909344028823A1F327
:1014000001E010E022E432E042E063E080E0BBD2A1
:10141000CF911F910F910895F8948091E0029091DF
:10142000E1027894891B8F73089581E080936305AE
:10143000F3DF809362050895F8949091E002809123
:10144000E102981304C0789480E092E008957894C3
:101450008091E10290E001968F7399278093E102D9
:10146000FC01E259FD4E208180916D1290E0982F91
:101470008827820F911D0895F8948091D802909149
:10148000D9022091DA023091DB027894821B930B0F
:10149000937008952091DC023091DD022F5F3F4F61
:1014A0003370F8944091DE025091DF027894241753
:1014B0003507B9F3F901E359F14F80833093DD0229
:1014C0002093DC028091C10080628093C100089566
:1014D000F8942091D8023091D9028091DA0290914B
:1014E000DB022817390721F4789480E092E0089510
:1014F0007894E091DA02F091DB023196F370E359CF
:10150000F54F208180916C0A90E0982F8827820FF8
:10151000911D0895F8942091D8023091D9028091BC
:10152000DA029091DB022817390721F4789480E0E1
:1015300092E0089578948091DA029091DB0201960E
:1015400093709093DB028093DA02FC01E359F54F2C
:10155000208180916C0A90E0982F8827820F911D3E
:1015600008951F920F920FB60F9211240BB60F928F
:101570008F939F93EF93FF939091E8028091E902FC
:10158000981771F08091E90290E00196FC01FF2725
:101590008093E902E055FA4E80818093360105C0C0
:1015A000809131018F7D80933101FF91EF919F9167
:1015B0008F910F900BBE0F900FBE0F901F9018953C
:1015C0001F920F920FB60F9211240BB60F922F930A
:1015D0003F934F935F936F937F938F939F93EF937B
:1015E000FF93209130013091360128718091E602FD
:1015F00090E00196AC0155276091E70270E0461734
:10160000570739F08093E602FA01E055FB4E30832C
:1016100001C024E02093AF14FF91EF919F918F912F
:101620007F916F915F914F913F912F910F900BBEE2
:101630000F900FBE0F901F9018951F920F920FB62C
:101640000F9211240BB60F928F939F93EF93FF93FA
:101650009091E4028091E502981771F08091E50283
:1016600090E00196FC01FF278093E502E155FC4ED6
:1016700080818093D60005C08091D1008F7D8093BA
:10168000D100FF91EF919F918F910F900BBE0F9022
:101690000FBE0F901F9018951F920F920FB60F92CA
:1016A00011240BB60F922F933F934F935F936F9339
:1016B0007F938F939F93EF93FF932091D00030916E
:1016C000D60028718091E20290E00196AC01552786
:1016D0006091E30270E04617570739F08093E20209
:1016E000FA01E155FD4E308301C024E02093AE1293
:1016F000FF91EF919F918F917F916F915F914F91AA
:101700003F912F910F900BBE0F900FBE0F901F9027
:1017100018951F920F920FB60F9211240BB60F92CD
:101720008F939F93EF93FF93909159058091580564
:10173000981779F08091580590E001968F7399275A
:1017400080935805FC01E85EFA4F80818093CE00BB
:1017500005C08091C9008F7D8093C900FF91EF91F2
:101760009F918F910F900BBE0F900FBE0F901F9007
:1017700018951F920F920FB60F9211240BB60F926D
:101780002F933F934F935F938F939F93EF93FF9389
:101790002091C8003091CE0028718091E00290E045
:1017A00001968F7399274091E10250E084179507C5
:1017B00039F08093E002FC01E259FD4E308301C014
:1017C00024E020936D12FF91EF919F918F915F9193
:1017D0004F913F912F910F900BBE0F900FBE0F9026
:1017E0001F9018951F920F920FB60F9211240BB6EF
:1017F0000F922F933F938F939F93EF93FF9320919B
:10180000DC023091DD028091DE029091DF02281728
:10181000390789F08091DE029091DF020196937082
:101820009093DF028093DE02FC01E359F14F808147
:101830008093C60005C08091C1008F7D8093C10058
:10184000FF91EF919F918F913F912F910F900BBE40
:101850000F900FBE0F901F9018951F920F920FB60A
:101860000F9211240BB60F922F933F934F935F93D8
:101870008F939F93EF93FF932091C0003091C60008
:1018800028718091D8029091D9020196937040916D
:10189000DA025091DB028417950749F09093D90240
:1018A0008093D802FC01E359F54F308301C024E056
:1018B00020936C0AFF91EF919F918F915F914F91CF
:1018C0003F912F910F900BBE0F900FBE0F901F9066
:1018D00018953FB7F89480913B1790913C17A091D1
:1018E0003D17B0913E1726B5A89B05C02F3F19F0B4
:1018F0000196A11DB11D3FBFBA2FA92F982F882790
:10190000820F911DA11DB11DBC01CD0142E0660FEA
:10191000771F881F991F4A95D1F70895CF93DF93BA
:10192000EC01198218821B821A821D821C8260E0DF
:1019300070E00E94EC022881398181110FC02115CD
:10194000310519F0C9010E94E61D198218821D8215
:101950001C821B821A82DF91CF9108951D821C8206
:101960006AEB72E0C901DF91CF910C941522CF93FD
:10197000DF93CDE7D2E08991882311F08BDDFBCF97
:10198000DF91CF910895AF92BF92CF92DF92EF9205
:10199000FF920F931F93CF93DF93CDB7DEB7ADB612
:1019A000BEB6680196E0C90ED11CADB7BEB7AC1982
:1019B000BD090FB6F894BEBF0FBEADBFEDB7FEB701
:1019C00031967F019DE311969C93F8013296D701E1
:1019D0001196FC9311979CEF9C0D12969C93B0E48A
:1019E0008B9F600D1124F70163834483011511055A
:1019F00061F0F901ADB7BEB71696200F311FE2179F
:101A0000F30719F081918D93FACF0B5F1F4FF70108
:101A1000319680E09F012E193F092017310718F4F5
:101A20009191890FF7CFF701E00FF11F808384E2D6
:101A3000FDDA8701C8018E199F098C159D0528F4D0
:101A4000D8018D918D0126DDF5CF0FB6F894BEBE7D
:101A50000FBEADBEDF91CF911F910F91FF90EF9020
:101A6000DF90CF90BF90AF9008953091AF17313293
:101A700008F04BC080918B178111FCCF9091AE176D
:101A800022E020938B1721E020938A172FEF2093D9
:101A900089171092881730938717EEE8F7E1A7E6C9
:101AA000B7E120E0321721F041914D932F5FFACF3B
:101AB0001092661720916617990F922B90936617D4
:101AC00090916517913061F41092651790916617A7
:101AD0009093BB009091BC0093FDF8CF95EC01C0B2
:101AE00095EE9093BC0090918B179230E1F390911A
:101AF00089179F3F79F080918917803241F080915A
:101B00008917803331F084E005C081E003C082E0B2
:101B100001C083E010928D171092AF1710928C17AE
:101B200008953F924F925F926F927F928F929F9211
:101B3000AF92BF92CF92DF92EF92FF920F931F93DB
:101B4000CF93DF934B015C016A018901AB01BC01BA
:101B5000420F531F611D711D8091E2179091E31791
:101B6000A091E417B091E51784179507A607B7076A
:101B700008F4AAC07724739466246A9495EE592ECB
:101B800025EC422E0115110509F4A0C0C091DD1706
:101B9000D091DE17CE01019788219921C81BD90B5E
:101BA000C8010132110510F080E290E08C179D070A
:101BB00008F4EC01D501C4010090DF1704C0B6950C
:101BC000A795979587950A94D2F7F090D917F82A98
:101BD00070928C17F092AE1710928D171092AF176B
:101BE0008091E0179091E117029741F499278B2D8E
:101BF0007A2D692D84EB97E10E943702682D84EBE2
:101C000097E10E94370231DF811161C080918B170B
:101C10008111FCCF9C2F70928B1770928A17609263
:101C20008917109288178C2F815080938717709294
:101C3000661780916617FF0CF82AF092661780915C
:101C40006517813069F4109265178091661780934B
:101C5000BB008091BC0083FDF8CF4092BC0002C065
:101C60005092BC0080918B178130E1F380918817EE
:101C7000891710F490918817A7E6B7E1E5E4F7E13A
:101C800080E0891721F02D9121938F5FFACF109278
:101C9000441780934317312CE32CF12CEC16FD06EE
:101CA00050F4EC0CFD1C84EB97E10E94EF01F7016E
:101CB00080833394F1CF8C0E9D1EA11CB11CCC0EE1
:101CC000DD1E0C1B1D0B5ECF89E001C080E0DF91A3
:101CD000CF911F910F91FF90EF90DF90CF90BF9029
:101CE000AF909F908F907F906F905F904F903F90BC
:101CF0000895EF92FF920F931F93CF93DF938B0181
:101D0000877098E0899FB0011124606480EC97E1AE
:101D10000E949C0583E790E00197F1F7E801085FD6
:101D20001F4F8BE9E82EF12C699180EC97E10E941E
:101D30007902C7010197F1F7C017D107A9F7DF9121
:101D4000CF911F910F91FF90EF9008950F931F93E4
:101D5000CF93DF938C01C0E0D0E0F801EC0FFD1FC2
:101D60006491662341F080EC97E10E947902892B0F
:101D700011F02196F2CFCE01DF91CF911F910F91FB
:101D80000895CF93DF93CDB7DEB728970FB6F894B9
:101D9000DEBF0FBECDBF40917502509176026091BB
:101DA0007702709178024D835E836F8378874091CC
:101DB000790250917A0260917B0270917C02498392
:101DC0005A836B837C832091C717821710F08FEFA3
:101DD000820F3091C81790E0FE01E80FF91F3031F3
:101DE00021F4243011F4618101C06581606880ECC8
:101DF00097E128960FB6F894DEBF0FBECDBFDF91F6
:101E0000CF910C949C05FC0183818823B9F0962F17
:101E10006181609569236083828191E090938C1742
:101E20008093AE1710928D171092AF1784EB97E145
:101E30000E9437021ADE282F30E002C020E030E096
:101E400081E090E0232B11F080E090E00895EF9284
:101E5000FF920F931F93CF938C01FC0184E0C0E0AD
:101E600060FF02C09589C92B66958150319681111A
:101E7000F7CF413011F4F8014489F8018585C82B6A
:101E8000C42B7801FEE0EF0EF11CF80162896C2B87
:101E9000C701B9DFF801628960956C23C701CF9152
:101EA0001F910F91FF90EF90AECF362F90E0FC0185
:101EB000EF5AFD4F4491FC01E55FFD4F2491FC0179
:101EC000EB53FE4F9491992309F46CC0442309F419
:101ED00055C050E0FA013197E231F10508F04EC0EB
:101EE0008827EE57FF4F8F4F0C9417218091800069
:101EF0008F7707C0809180008F7D03C08091800024
:101F0000877F809380003AC084B58F7702C084B504
:101F10008F7D84BD33C08091B0008F7703C08091E6
:101F2000B0008F7D8093B00029C0809190008F77A2
:101F300007C0809190008F7D03C080919000877FC3
:101F4000809390001BC08091A0008F7707C0809184
:101F5000A0008F7D03C08091A000877F8093A000A8
:101F60000DC0809120018F7707C0809120018F7D67
:101F700003C080912001877F80932001E92FF0E04A
:101F8000EE0FFF1FE555FE4FA591B4919FB7F89452
:101F9000311104C08C912095282302C0EC912E2B86
:101FA0002C939FBF089510924417109243171092DC
:101FB0008D171092AF1710928B1781E080938A17BC
:101FC0001092651761E084E170DF61E085E16DDF0B
:101FD000E9EBF0E080818E7F808380818D7F80833C
:101FE00088E48093B80085E48093BC008DED91E097
:101FF00090934217809341178EED91E09093401794
:1020000080933F170895CF93DF9390E0FC01E55F45
:10201000FD4F2491FC01EB53FE4F8491882361F125
:1020200090E0880F991FFC01EF56FE4FC591D491A7
:10203000FC01E555FE4FA591B491611109C09FB710
:10204000F8948881209582238883EC912E230BC0FD
:10205000623061F49FB7F8948881322F30958323E2
:102060008883EC912E2B2C939FBF06C08FB7F894DA
:10207000E8812E2B28838FBFDF91CF91089586337F
:1020800008F0865390917B00282F2870977F922B21
:1020900090937B0020914A0290E4299F90011124A3
:1020A0008770822B80937C0080917A00806480937B
:1020B0007A0080917A0086FDFCCF80917800209193
:1020C000790090E0922B08958F929F92AF92BF92E9
:1020D000CF92DF92EF92FF926B017C01FADB4B0112
:1020E0005C01C114D104E104F104E9F0F2DBDC018C
:1020F000CB0188199909AA09BB09883E9340A1051B
:10210000B10578F321E0C21AD108E108F10888EEA0
:10211000880E83E0981EA11CB11CC114D104E104F7
:10212000F10421F7DECFFF90EF90DF90CF90BF90CA
:10213000AF909F908F9008952FB7F89460913717C4
:10214000709138178091391790913A172FBF0895E1
:10215000F3DFE0EBF7E1908381837283638308957B
:102160001F920F920FB60F9211242F933F938F93CC
:102170009F93AF93BF938091371790913817A09199
:102180003917B0913A173091EC1723E0230F2D3710
:1021900020F40196A11DB11D05C026E8230F02966B
:1021A000A11DB11D2093EC1780933717909338171A
:1021B000A0933917B0933A1780913B1790913C1731
:1021C000A0913D17B0913E170196A11DB11D8093BE
:1021D0003B1790933C17A0933D17B0933E17BF91C8
:1021E000AF919F918F913F912F910F900FBE0F90C4
:1021F0001F901895CF93DF93CDB7DEB7A0970FB69A
:10220000F894DEBF0FBECDBF789484B5826084BDE4
:1022100084B5816084BD85B5826085BD85B58160EA
:1022200085BD80916E00816080936E001092810068
:102230008091810082608093810080918100816023
:1022400080938100809180008160809380008091E4
:10225000B10084608093B1008091B0008160809370
:10226000B0008091910082608093910080919100F4
:1022700081608093910080919000816080939000B4
:102280008091A10082608093A1008091A100816073
:102290008093A1008091A00081608093A000809134
:1022A00021018260809321018091210181608093CE
:1022B00021018091200181608093200180917A002A
:1022C000846080937A0080917A00826080937A00A3
:1022D00080917A00816080937A0080917A00806892
:1022E00080937A001092C10062E082E08CDE62E0AE
:1022F00083E089DE61E083E286DE61E084E283DE02
:1023000061E085E280DE60E086E37DDE83E20E94BC
:10231000160884E20E94160885E20E94160861E011
:1023200086E171DE61E087E16EDE61E088E16BDE0F
:1023300061E089E168DE61E08AE165DE61E08BE110
:1023400062DE61E08CE15FDE61E08DE15CDE85E113
:102350009AE0909301028093000280916A008C7F42
:10236000826080936A00EC9A8AE892E0909303027C
:102370008093020280916A00837F886080936A0064
:10238000ED9AF8941092D9021092D8021092DB02C2
:102390001092DA021092DD021092DC021092DF023B
:1023A0001092DE02789483E08093C4008091C10093
:1023B00088698093C1008091C20086608093C200CA
:1023C000F8941092E0021092E102109259051092D6
:1023D000580578948FE78093CC008091C900886974
:1023E0008093C9008091CA0086608093CA008FE7FD
:1023F0000E94E1088FE70E948808D5DD8CE0809379
:10240000B8008091D91791E090938C178093AE1704
:1024100010928D171092AF178091E0179091E117ED
:10242000029729F460E084EB97E10E94370260E0B4
:1024300084EB97E10E94370218DB8823A1F18FEF2C
:102440008B8F01E010E09E01255E3F4F4AEF6FE069
:1024500080E099DA109214031092150310920C0385
:1024600010920D0310920E0310920F03109210039E
:10247000109211031092120310921303109204038E
:10248000109205031092060310920703109208039E
:102490001092090310920A0310920B031092030387
:1024A000109202039EC022E030E044E153E060E07D
:1024B00070E0CB0136DB882371F08B8F01E010E0F8
:1024C0009E01255E3F4F4CEF6FE080E05CDA10929A
:1024D00014031092150328E030E04CE053E062E072
:1024E00070E080E090E01DDB8823D1F08B8F01E06D
:1024F00010E09E01255E3F4F4CEF6FE080E043DA35
:1025000010920C0310920D0310920E0310920F0301
:1025100010921003109211031092120310921303E1
:1025200028E030E044E053E06AE070E080E090E0D2
:10253000F8DA8823D1F08B8F01E010E09E01255E50
:102540003F4F4CEF6FE080E01EDA109204031092D0
:1025500005031092060310920703109208031092CD
:10256000090310920A0310920B0321E030E043E0CC
:1025700053E06FEF70E080E090E0D3DA882361F001
:102580008B8F01E010E09E01255E3F4F4CEF6FE026
:1025900080E0F9D91092030310920203C12CD12CD0
:1025A000760121E030E0AE014F5F5F4FC701B60119
:1025B000B8DA90E0009711F4898103C09195819574
:1025C000910990910203890F809302032FEFC21AA1
:1025D000D20AE20AF20A3FEFC316D104E104F10481
:1025E00001F720E044E064E180EC97E10E942D06D1
:1025F0006FEF80EC97E10E94AF0261E080EC97E121
:102600000E949C050BE31FE1C8010197F1F762E00E
:1026100080EC97E10E949C05C8010197F1F787E6DD
:1026200091E094DB81E0ADDB82E591E08FDB82E03D
:10263000A8DB8DE391E08ADB83E0A3DB88E291E015
:1026400085DB68E372E080E054DB60E372E081E008
:1026500050DB68E272E082E04CDB60E272E083E033
:1026600048DB68E172E084E044DB60E172E085E031
:1026700040DB81E080934A020E947B060E94630651
:1026800081E0FDDCBC01990F880B990B6115710588
:102690008105910511F00E94021FECE7F1E0ADEE1B
:1026A000B2E084918D93319643E0A230B407C9F72C
:1026B00081E2E0E0F0E080935700E491E093EA02E9
:1026C000E2E0F0E080935700E491E093EB02E4E075
:1026D000F0E08093570084918093EC02F89480910D
:1026E000DA029091DB029093D9028093D802789419
:1026F000F8948091DE029091DF029093DD02809346
:10270000DC027894F8948091E1028093E00278945E
:10271000F89480915805809359057894F8948091A5
:10272000E3028093E2027894F8948091E50280932A
:10273000E4027894F8948091E7028093E60278941A
:10274000F8948091E9028093E802789460ED77E054
:1027500080E090E0B9DC81E0898301E010E09E0137
:102760002F5F3F4F40E060E080E00DD98091420252
:102770000E94F8080E94B6069FE088E10FB6F89420
:10278000A895809360000FBE90936000A8950E946A
:102790003C0A892B09F4B7C083E20E9416080E9404
:1027A0008A0A99278D33910539F0CE9709F0ABC08D
:1027B000CE010196B3D845C04DB65EB6BDDC6B0107
:1027C0007C0110E00E943C0A029708F02DC41123FE
:1027D00009F41BC401E010E021E432E046E005C04A
:1027E00001E010E021E432E041E06FE080E0CBD88E
:1027F00002C00E94C9020FB6F8945EBE0FBE4DBE65
:1028000082C00E948A0A8A3009F18D30F9F08B8FDC
:102810001C8E0D811E810F5F1F4FB801CE010196E6
:102820000E94EC02882369F029813A818D819E8182
:10283000BE01655E7F4F820F931F0E9415221E838B
:102840000D830E943C0A892BE1F3DBCF0E94680ACA
:102850000A9711F40C94F11C0E94680A0D9711F468
:102860000C94F11C0D811E810038110510F00C94A0
:10287000C11C0115110511F00C94B51C10928405B2
:102880008091830581112BC069EB72E084E895E0AB
:102890000E940B1F06E113E0009711F00C94C61C78
:1028A0008091830581111BC09DE5E92E92E0F92EF0
:1028B00000E010E0F701619171917F0186E193E002
:1028C0000E940C22892B11F00C94E81C000F111FA0
:1028D000F801EB5AFD4F0190F081E02D199580E849
:1028E000A4E8B5E01D928A95E9F7E6E1F3E020E07F
:1028F00032E0119221503040E1F710928305898136
:102900009A810E94E61D80914002882309F457C1F4
:1029100080916305882309F499C180916205882319
:1029200009F47EC0CDB6DEB68091620590E00496D3
:102930004DB75EB7481B590B0FB6F8945EBF0FBE7C
:102940004DBF6DB77EB76F5F7F4F7B0101DC80911C
:10295000B017D7018C938091B11711968C93119772
:102960008091B21712968C9312978091B317139699
:102970008C9310E080916205181740F40E941C0AA5
:10298000F701E10FF11D84831F5FF4CF0091620511
:1029900010E00C5F1F4F970141E067E081E00E946B
:1029A000C30C8091620590914F069923F9F08C5FDA
:1029B0002DB73EB7482F50E044505109EDB7FEB750
:1029C000E41BF50B0FB6F894FEBF0FBEEDBF3196BA
:1029D000D701149694E0981720F44D9141939F5F8E
:1029E000FACF0FB6F8943EBF0FBE2DBF109262050E
:1029F00080915E0590915F05A0916005B0916105A1
:102A00000196A11DB11D80935E0590935F05A09373
:102A10006005B09361050FB6F894DEBE0FBECDBE63
:102A200080914E06882309F487C000914C061091CE
:102A30004D060115110509F47FC07EDBC0904806E4
:102A4000D0904906E0904A06F0904B069B01AC01FD
:102A50002C193D094E095F0969017A0120E030E037
:102A60000C151D052E053F0508F066C0609348064D
:102A70007093490680934A0690934B060E94B71EB6
:102A800023E030E040E050E00E942620DC01CB0152
:102A90000396A11DB11D80934706F12C0F2D10E068
:102AA0008091470690E09C012250310902171307DC
:102AB0009CF40E94B71E095F194F2DEF30E040E0F3
:102AC00050E00E942620DC01CB010196A11DB11D22
:102AD000F8018083F394E2CF0197E7E0F6E020E08D
:102AE000AF01475056404817590718F43191230F4A
:102AF000F7CFFC01E95FF94F208381E08093060660
:102B00000E94B71E20EB34E040E050E00E942620F7
:102B1000DC01CB01845D9E4FAF4FBF4F90934D06BC
:102B200080934C062091470630E001E010E041E040
:102B30006EE080E00E94C30C809106068823E1F1DC
:102B400020E080914706281700F5E22FF0E0E95FCA
:102B5000F94F30818091590590E001968F73992744
:102B6000F89440915805789450E084179507C1F384
:102B7000FC01E85EFA4F3083809359058091C900CB
:102B800080628093C9002F5FDCCF109247061092BD
:102B9000060680915A0590915B05A0915C05B09165
:102BA0005D050196A11DB11D80935A0590935B05AB
:102BB000A0935C05B0935D051092630547C00E9429
:102BC0000C0A882309F442C0CDB6DEB690E0049624
:102BD0002DB73EB7281B390B0FB6F8943EBF0FBE7A
:102BE0002DBF4DB75EB74F5F5F4F7A01B1DA80916D
:102BF000B017D7018C938091B11711968C931197D0
:102C00008091B21712968C9312978091B3171396F6
:102C10008C9310E080916205181740F40E941C0A02
:102C2000F701E10FF11D84831F5FF4CF009162056E
:102C300010E00C5F1F4F970141E067E081E00E94C8
:102C4000C30C0FB6F894DEBE0FBECDBE8091440219
:102C5000882309F456C180914302882309F4A6C051
:102C60000E949F08F82E8823C9F000E065DA60937F
:102C70005E0A70935F0A8093600A9093610A1091D4
:102C80005D0A0E94C208E12FF0E0E35AF64F80830C
:102C90001F5F10935D0A0F5FF012E8CF4DDA0091CD
:102CA0005E0A10915F0A2091600A3091610ADC018E
:102CB000CB01801B910BA20BB30BD0905D0AC39785
:102CC000A105B10518F0D11011C430C0BFEFDB125F
:102CD0002DC00CC40FB6F8943EBF0FBE2DBF80911F
:102CE0005D09C11064C4823139F480914202806D63
:102CF000809342020E94F80810925D0A809172054A
:102D000090917305A0917405B09175050196A11D70
:102D1000B11D8093720590937305A0937405B093D1
:102D200075050FB6F8947EBE0FBE6DBE80915C082F
:102D30008823E1F10E949F08882309F45FC436C00C
:102D400011111BC0B3940B2D10E080915A08909183
:102D50005B080817190788F4EFD96B017C01F801AB
:102D6000E35AF74F80810E94A70810E00E949F0855
:102D7000B81630F3112309F465C410925B08109261
:102D80005A0810925C0880916E0590916F05A09191
:102D90007005B09171050196A11DB11D80936E055E
:102DA00090936F05A0937005B093710580916D05A8
:102DB000882309F4A6C00E944608F82E8823C9F08B
:102DC00000E0BAD96093550870935608809357086D
:102DD00090935808109154080E946908E12FF0E080
:102DE000EC5AF84F80831F5F109354080F5FF01266
:102DF000E8CFA2D9009155081091560820915708A4
:102E000030915808DC01CB01801B910BA20BB30B56
:102E1000D0905408C397A105B10518F0D11082C411
:102E200030C0BFEFDB122DC07DC40FB6F8943EBF9B
:102E30000FBE2DBF80915407C110D7C4823139F421
:102E4000809142028D60809342020E94F8081092A5
:102E500054088091680590916905A0916A05B09128
:102E60006B050196A11DB11D8093680590936905BE
:102E7000A0936A05B0936B050FB6F8947EBE0FBEA3
:102E80006DBE809153068823E1F10E944608882395
:102E900009F4D7C436C011111BC0B3940B2D10E038
:102EA00080915106909152060817190788F444D969
:102EB0006B017C01F801EC5AF94F80810E944E08A9
:102EC00010E00E944608B81630F3112309F4DDC45F
:102ED000109252061092510610925306809164058A
:102EE00090916505A0916605B09167050196A11DB9
:102EF000B11D8093640590936505A0936605B0931A
:102F000067051AD96B017C016093660A7093670AA2
:102F10008093680A9093690A80914902882321F17D
:102F20008091620A9091630AA091640AB091650A47
:102F3000B701A601481B590B6A0B7B0B8091470216
:102F400090914802A0E0B0E0481759076A077B0754
:102F500058F0C092620AD092630AE092640AF0923A
:102F6000650A85E20E94160880904502909046020C
:102F7000A12CB12C80917F0590918005A0918105B5
:102F8000B0918205A7019601281B390B4A0B5B0BF8
:102F9000281539054A055B0520F061E083E20E94AF
:102FA000550F80917B0590917C05A0917D05B09196
:102FB0007E05B701A601481B590B6A0B7B0B481510
:102FC00059056A057B0520F061E084E20E94550FF7
:102FD0008091770590917805A0917905B0917A0557
:102FE000C81AD90AEA0AFB0AC814D904EA04FB047D
:102FF00020F061E085E20E94550F80E090E0892B8F
:1030000009F4C4CB0E940000C1CB96D8DC01CB01EF
:103010008C199D09AE09BF0911E0893C9105A105F4
:10302000B10508F0CFCBCDCB1111D4CB0E948A0AC9
:10303000382E0E948A0A282E38A21F8EAF8CB8A084
:10304000A80EB11C35015FEF651A750A62E0A61A79
:10305000B1087BEFA71673E0B70608F0C1CB6CD8B8
:103060006B017C0110C01111B5CB66D8DC01CB011E
:103070008C199D09AE09BF0911E085369105A1059E
:10308000B10508F410E00E943C0A8615970558F334
:103090001111A0CB0E948A0A6C010E948A0A8C013D
:1030A000C50101979E8F8D8FADB7BEB7AA19BB0919
:1030B0000FB6F894BEBF0FBEADBFEDB7FEB73196E9
:1030C0007F01A114B10479F04F010E948A0AD40152
:1030D0008D934D01CD018E199F098A159B05A8F38B
:1030E0009924939401C0912C0E948A0A320C3C0CC2
:1030F000300E992051F0F7019F012E193F092A1532
:103100003B0518F49191390EF7CF831531F001E0AA
:1031100010E021E432E045E068CB8C2D8F70F601A1
:10312000FF2744E0F595E7954A95E1F7E370E23033
:1031300009F471C1E33009F498C1E13009F430C1F8
:1031400090E0FC018827EE58FF4F8F4F0C94172119
:103150000E94D7020E94B6064ECB112701301105FE
:10316000E1F148F00230110509F460C003301105A7
:1031700009F454C074C1992009F452C0B4E0AB16EC
:10318000B10408F44DC0F701808190E0982F8827A2
:103190002181820F911D009719F41092490207C0F6
:1031A000909348028093470281E080934902D701BF
:1031B00012968C91129790E0982F882713962C9155
:1031C000820F911D009721F0909346028093450253
:1031D00004E010E0970140E01FC0992009F1F701D9
:1031E0008081882339F08130D9F4809340020E9495
:1031F00063060EC01092400210928000109281006F
:10320000109285001092840010928900109288001C
:1032100001E010E0970141E063E0E8CA91100DC0C1
:1032200001E010E021E432E044E0DFCA9920C1F37C
:10323000D7018C910E94F808DECAF70180818111C4
:1032400003C010924F060BC181E080934F0607C167
:1032500011270130110509F453C048F0023011055F
:1032600009F456C00330110509F45AC0F8C0809122
:1032700014038983809115038A8380910C038B83C7
:1032800080910D038C8380910E038D8380910F03B9
:103290008E83809110038F838091110388878091A2
:1032A00012038987809113038A87809104038B8797
:1032B000809105038C87809106038D878091070399
:1032C0008E87809108038F8780910903888B809176
:1032D0000A03898B80910B038A8B1B8A1C8A1D8AA7
:1032E0001E8A8DE58F8B8CE6888F8DE2898F8CEE20
:1032F0008A8F0AE110E09E012F5F3F4F40E01EC021
:103300000E94A81004E010E020EB37E141E016C075
:103310000E947B0602E010E026E135E042E00EC0AC
:10332000809103039091020389130AC019828A8352
:1033300002E010E09E012F5F3F4F43E065E056CA78
:1033400089839A8302E010E09E012F5F3F4F4BEF8D
:103350004CCA013009F083C0D7018C91813099F4B7
:1033600080934E0604D520EB34E040E050E06ED66A
:10337000DC01CB01845D9E4FAF4FBF4F90934D0654
:1033800080934C0638CA10924E0610924D06109249
:103390004C0631CA01E010E025E036E040E025CAE5
:1033A000863009F09DC011270130110509F063C076
:1033B000B4E06B1A7108E0E46E16710408F030CFC7
:1033C00020E0822F90E08A159B0550F4FC01E95F14
:1033D000F94FD701A80FB91F8C9180832F5FF1CFD0
:1033E000A0924706E7E0F6E080E09F0127503640D4
:1033F0004D8D5E8D2417350718F49191890FF5CF07
:10340000ED8DFE8DE95FF94F90819813808381E007
:1034100080930606F0C9863009F062C0112701309A
:10342000110549F554E0651A71086FEF66167104CD
:1034300011F008F0F5CED701EDE5F8E0CF018D559C
:1034400098408A159B0518F48D918193F7CFB0921F
:103450005B08A0925A0881E080935C08CCC901E027
:1034600010E021E432E043E0C0C98630C9F51127FD
:1034700001301105B1F00130110558F0023011058D
:1034800071F7E093040601E010E024E036E042E04A
:1034900025C0E093040601E010E024E036E040E0BF
:1034A0001DC074E0671A71088FEF6816710411F07F
:1034B00008F0B6CEF701A4E5B6E0CD0184559640FC
:1034C0008A159B0518F481918D93F7CFB09252061F
:1034D000A092510681E0809353068DC966E086C9AB
:1034E00001E010E021E432E042E07FC96DB67EB633
:1034F0008D2C912C54E0850E911C6DB77EB7681908
:1035000079090FB6F8947EBF0FBE6DBF8DB79EB719
:1035100001967C010E94A810C0907605D7011496F0
:103520005D01C1104CC08091B017F701808380917C
:10353000B11781838091B21782838091B3178383FF
:10354000ADE5B9E0F50180E0D81621F09D919193A9
:103550008F5FFACF84019701CC2011F042E001C0C7
:1035600040E067E082E00E94C30C80914F06882310
:1035700009F4B5CB44E04D0D2DB73EB7842F90E054
:1035800004976DB77EB7681B790B0FB6F8947EBFB2
:103590000FBE6DBFEDB7FEB7319684E0841708F01B
:1035A00099CBD5019D915D0191938F5FF7CF8E3FB0
:1035B00009F0A2CB809142028F7E806C99CB8091E2
:1035C000B017F70180838091B11781838091B21782
:1035D00082838091B3178383ADE5B8E0F50180E085
:1035E000D81621F09D9191938F5FFACF84019701B6
:1035F00041E067E082E00E94C30C95CF80917605A0
:103600008823F1F000915D08E5E6F2E085E792E0BD
:103610002191021731F18E179F07D1F701E010E0D9
:1036200021E432E044E06FE080E00E94C30C10929D
:103630005B0810925A0810925C0810925908A3CBAC
:10364000B12C81CB0E949C10DC01CB018C199D090F
:10365000AE09BF0911E04597A105B10508F086CB79
:1036600084CB0E949C106B017C0110E00E949F089B
:10367000811105C0112359F11092590807C0111189
:10368000FBCF0E94C20881E08093590880915908BD
:10369000882309F478CBB12C0B2D10E080915A08C7
:1036A00090915B080817190710F60E949C106B0197
:1036B0007C01F801E35AF74F80810E94A70810E0CF
:1036C0000E949F08B81650F11111B1CF19C0802F78
:1036D0000E94A70865E070E080E090E00E9464101E
:1036E0000E949C10DC01CB018C199D09AE09BF0919
:1036F00011E0893C9105A105B10508F0B7CFB5CF20
:103700000E949C10DC01CB018C199D09AE09BF09F8
:1037100011E00697A105B10598F6D1CF111187CF19
:10372000B394BACF6DB67EB68D2C912CF4E08F0E8B
:10373000911C2DB73EB7281939090FB6F8943EBF32
:103740000FBE2DBF4DB75EB74F5F5F4F7A010E942E
:10375000A810C0906C05B7016C5F7F4F5B01C11072
:103760004CC08091B017F70180838091B11781839D
:103770008091B21782838091B3178383A4E5B7E069
:10378000F50180E0D81621F09D9191938F5FFACFDB
:1037900084019701CC2011F042E001C040E067E0D5
:1037A00083E00E94C30C80914F06882309F442CB2A
:1037B00044E04D0D2DB73EB7842F90E004976DB7D0
:1037C0007EB7681B790B0FB6F8947EBF0FBE6DBF36
:1037D000EDB7FEB7319684E0841708F026CBD5010B
:1037E0009D915D0191938F5FF7CF8E3F09F02FCBB5
:1037F000809142028E7F8C6026CB8091B017D701DA
:103800008C938091B11711968C9311978091B21778
:1038100012968C9312978091B31713968C93A4E50C
:10382000B6E0FB0180E0D81621F09D9191938F5F67
:10383000FACF8401970141E067E083E00E94C30C66
:1038400090CF80916C058823F1F000915406E5E655
:10385000F2E085E792E02191021731F18E179F0780
:10386000D1F701E010E021E432E044E06FE080E0D5
:103870000E94C30C109252061092510610925306E9
:10388000109250062BCBB12C09CB0E949C10DC016E
:10389000CB018C199D09AE09BF0911E04597A1051F
:1038A000B10508F00ECB0CCB0E949C106B017C0183
:1038B00010E00E944608811105C0112359F11092B1
:1038C000500607C01111FBCF0E94690881E0809368
:1038D000500680915006882309F400CBB12C0B2DA3
:1038E00010E080915106909152060817190710F6C2
:1038F0000E949C106B017C01F801EC5AF94F808109
:103900000E944E0810E00E944608B81650F11111AE
:10391000B1CF19C0802F0E944E0865E070E080E0B2
:1039200090E00E9464100E949C10DC01CB018C1975
:103930009D09AE09BF0911E0893C9105A105B105BA
:1039400008F0B7CFB5CF0E949C10DC01CB018C19D9
:103950009D09AE09BF0911E00697A105B10598F6CA
:10396000D1CF111187CFB394BACF69817A81A801E1
:1039700084E895E061D5F801EC57FA4F10820C9479
:10398000401481E0809383050C944014A6E1B5E0D7
:10399000A017B10711F40C945014FC010190002001
:1039A000E9F73197E81BF90BE034F10560F4BC014D
:1039B000C8013BD569EB72E080E090E02CD2005C5E
:1039C0001F4F0C944C1481E0809383050C94501489
:1039D0000F5F1F4F0430110511F00C945A140C9412
:1039E0006F140E948A0A0C9432148091E617909109
:1039F000E717ECC0E4EBF7E11382128288EE93E064
:103A0000A0E0B0E084839583A683B78387E992E042
:103A10009183808386EE97E10E948E0CE9EDF7E1B9
:103A200020E230E03283218381E083833583248365
:103A300090E5908340E050E160E070E0418752877C
:103A40006387748722E030E0308727839CE0968389
:103A5000E0ECF7E11382128229EA32E0318320831D
:103A6000108A9FEF97871686118A97E293871486AC
:103A700015861286118694E0928B92E0938B848B4C
:103A800080E1858B80E2868B80E4878B80E8808F65
:103A900040E050E063E0CF010C9465020F931F9368
:103AA000CF93DF938230910510F482E090E0E091B3
:103AB000F117F091F21720E030E0A0E0B0E030978D
:103AC00019F1408151810281138148175907C8F0CB
:103AD0008417950769F4109731F012960C9312979A
:103AE00013961C9327C00093F1171093F21722C06E
:103AF0002115310519F04217530718F49A01BD0139
:103B0000EF01DF01F801DBCF21153105F9F0281BAA
:103B1000390B2430310580F48A819B816115710550
:103B200021F0FB019383828304C09093F21780936A
:103B3000F117FE01329644C0FE01E20FF31F81939C
:103B4000919322503109398328833AC02091EF178D
:103B50003091F017232B41F420914D0230914E0209
:103B60003093F0172093EF1720914B0230914C02C5
:103B70002115310541F42DB73EB740914F025091C8
:103B80005002241B350BE091EF17F091F017E2176C
:103B9000F307A0F42E1B3F0B2817390778F0AC0170
:103BA0004E5F5F4F2417350748F04E0F5F1F50934D
:103BB000F0174093EF178193919302C0E0E0F0E09B
:103BC000CF01DF91CF911F910F910895CF93DF9394
:103BD000009709F481C0FC01329713821282A091F0
:103BE000F117B091F217109781F420813181820F83
:103BF000931F2091EF173091F0172817390751F5CF
:103C0000F093F017E093EF1767C0ED0120E030E08C
:103C1000CE17DF0740F44A815B819E0141155105B3
:103C2000F1F0EA01F5CFD383C28340815181840F43
:103C3000951FC817D90759F488819981840F951F5A
:103C40000296918380838A819B819383828321154D
:103C5000310529F4F093F217E093F1173DC0E90123
:103C6000FB83EA8349915991C40FD51FEC17FD07D7
:103C700061F480819181840F951F0296E9019983F7
:103C80008883828193819B838A83E0E0F0E01296AF
:103C90008D919C911397009719F0FD01DC01F7CFEE
:103CA0008D919C9111979D012E5F3F4F820F931F25
:103CB0002091EF173091F0172817390769F43097E2
:103CC00029F41092F2171092F11702C01382128297
:103CD000B093F017A093EF17DF91CF9108958F92D3
:103CE0009F92AF92BF92CF92DF92EF92FF92CF93CB
:103CF000DF93EC01688179818A819B81611571056F
:103D00008105910521F464E279ED8BE597E02DE1E1
:103D100033EF41E050E09AD149015A019B01AC01D7
:103D2000A7EAB1E4AFD16B017C01ACEEB4EFA50121
:103D30009401B4D1DC01CB018C0D9D1DAE1DBF1DC6
:103D4000B7FF03C00197A109B04888839983AA836C
:103D5000BB83BC01CD019F77DF91CF91FF90EF90A6
:103D6000DF90CF90BF90AF909F908F9008958F92EB
:103D70009F92AF92BF92CF92DF92EF92FF926091AB
:103D80005102709152028091530290915402611538
:103D900071058105910521F464E279ED8BE597E0E9
:103DA0002DE133EF41E050E051D149015A019B012F
:103DB000AC01A7EAB1E466D16B017C01ACEEB4EFD3
:103DC000A50194016BD1DC01CB018C0D9D1DAE1DB5
:103DD000BF1DB7FF03C00197A109B04880935102EE
:103DE00090935202A0935302B0935402BC01CD01B0
:103DF0009F77FF90EF90DF90CF90BF90AF909F9014
:103E00008F900895609351027093520280935302F1
:103E10009093540208954DEE57E100C0FA01A1912C
:103E2000B081009719F41097E1F0CD01DC01CD01CC
:103E30000D90002011F4C00113C0FB012191222339
:103E400019F02015D9F7F3CFFB012191201519F4B2
:103E50001E92119606C02223C1F70D900020A1F7F3
:103E6000D001FA01A193B0830895E89409C097FBAB
:103E70003EF490958095709561957F4F8F4F9F4F41
:103E80009923A9F0F92F96E9BB279395F695879585
:103E900077956795B795F111F8CFFAF4BB0F11F448
:103EA00060FF1BC06F5F7F4F8F4F9F4F16C08823EF
:103EB00011F096E911C0772321F09EE8872F762F25
:103EC00005C0662371F096E8862F70E060E02AF066
:103ED0009A95660F771F881FDAF7880F9695879552
:103EE00097F908950BD078C069D028F06ED018F0FB
:103EF000952309F05AC05FC01124A2C07ED0A0F360
:103F0000959FD1F3950F50E0551F629FF001729F6E
:103F1000BB27F00DB11D639FAA27F00DB11DAA1F8D
:103F2000649F6627B00DA11D661F829F2227B00DDA
:103F3000A11D621F739FB00DA11D621F839FA00D65
:103F4000611D221F749F3327A00D611D231F849FB5
:103F5000600D211D822F762F6A2F11249F5750400C
:103F60008AF0E1F088234AF0EE0FFF1FBB1F661FA7
:103F7000771F881F91505040A9F79E3F510570F060
:103F800014C05EC05F3FECF3983EDCF386957795F6
:103F90006795B795F795E7959F5FC1F7FE2B880F5B
:103FA000911D9695879597F9089597F99F6780E8F1
:103FB00070E060E008959FEF80EC089500240A947B
:103FC0001616170618060906089500240A941216F4
:103FD0001306140605060895092E0394000C11F427
:103FE000882352F0BB0F40F4BF2B11F460FF04C0D4
:103FF0006F5F7F4F8F4F9F4F089557FD9058440F2D
:10400000551F59F05F3F71F04795880F97FB991F37
:1040100061F09F3F79F087950895121613061406F4
:10402000551FF2CF4695F1DF08C016161706180681
:10403000991FF1CF86957105610508940895E8945C
:10404000BB2766277727CB0197F90895052E97FBA5
:1040500016F400940FD057FD05D024D007FC02D0F1
:1040600046F408C050954095309521953F4F4F4FED
:104070005F4F089590958095709561957F4F8F4F14
:104080009F4F089531D0A59F900DB49F900DA49F90
:10409000800D911D11240895B7FFF4CFF3DF821B2B
:1040A000930B0895A1E21A2EAA1BBB1BFD010DC0A4
:1040B000AA1FBB1FEE1FFF1FA217B307E407F507D8
:1040C00020F0A21BB30BE40BF50B661F771F881FB4
:1040D000991F1A9469F760957095809590959B014A
:1040E000AC01BD01CF010895A29FB001B39FC001F3
:1040F000A39F700D811D1124911DB29F700D811D14
:104100001124911D08950CD067CF5FDF40F056DF7A
:1041100030F021F45F3F19F048CF511191CF4BCFD0
:104120006CDF98F39923C9F35523B1F3951B550B15
:10413000BB27AA2762177307840738F09F5F5F4F7A
:10414000220F331F441FAA1FA9F333D00E2E3AF0BB
:10415000E0E830D091505040E695001CCAF729D0D5
:10416000FE2F27D0660F771F881FBB1F2617370724
:104170004807AB07B0E809F0BB0B802DBF01FF2754
:1041800093585F4F2AF09E3F510568F00ECF58CFED
:104190005F3FECF3983EDCF3869577956795B7958E
:1041A000F7959F5FC9F7880F911D9695879597F9A9
:1041B0000895E1E0660F771F881FBB1F6217730722
:1041C0008407BA0720F0621B730B840BBA0BEE1F37
:1041D00088F7E095089519DF88F09F5790F0B92F80
:1041E0009927B751A0F0D1F0660F771F881F991F4C
:1041F0001AF0BA95C9F712C0B13081F020DFB1E0F2
:1042000008951DCF672F782F8827B85F39F0B93F01
:10421000CCF3869577956795B395D9F73EF490954D
:104220008095709561957F4F8F4F9F4F0895EE0F4A
:10423000FF1F881F8BBF0790F691E02D19946F9296
:104240007F928F929F92AF92BF92CF92DF92EF9226
:10425000FF920F931F93CF93DF93009781F4CB01CD
:10426000DF91CF911F910F91FF90EF90DF90CF9052
:10427000BF90AF909F908F907F906F900FCCFC017C
:10428000E60FF71F9C0122503109E217F30708F4EB
:10429000A5C0EC01D9010D911C91119706171707C4
:1042A000A8F00530110508F497C0C80104978617D7
:1042B000970708F491C002501109061B170B0193D0
:1042C00011936D937C93CF0181DC86C05B01A01AB2
:1042D000B10A4C01800E911EA091F117B091F21716
:1042E000612C712CE12CF12C109709F446C08D91B2
:1042F0009C911197A815B905B1F56C0142E0C40E67
:10430000D11CCA14DB0478F14C018A189B086401A3
:1043100042E0C40ED11C1296BC9012971396AC9139
:10432000B5E0CB16D10440F0B282A38391828082A3
:10433000D9016D937C9309C00E5F1F4F800F911FB1
:10434000F90191838083EB2DFA2FE114F10431F010
:10435000D7011396FC93EE9312973EC0F093F21799
:10436000E093F11739C06816790608F43C017D0125
:1043700012960D90BC91A02DB7CF8091EF17909120
:10438000F01788169906E1F466167706C8F480914E
:104390004B0290914C02009741F48DB79EB740912B
:1043A0004F0250915002841B950BE817F907B0F4A7
:1043B000F093F017E093EF17F901718360830CC05D
:1043C000CB016CDB7C01009749F0A801BE011BD03A
:1043D000CE01FCDBC70104C0CE0102C080E090E04A
:1043E000DF91CF911F910F91FF90EF90DF90CF90D1
:1043F000BF90AF909F908F907F906F90089581E0D5
:1044000090E0F89428C0FB01DC0102C001900D92FD
:1044100041505040D8F70895FB01DC018D91019087
:1044200080190110D9F3990B0895FB01DC0101906B
:104430000D920020E1F70895FB01DC01415050404E
:1044400048F001900D920020C9F701C01D92415023
:104450005040E0F7089511E0CDE4D1E000E005C060
:10446000802FFE01E4DE2196011DCE34D10780E0CD
:084470000807B1F7F894FFCF33
:10447800800180018001800180018001800180012C
:104488000609090600000000000105091F080400CC
:104498000004021F020400000004081F08040000B2
:1044A800000404150E04000000040E1504040000A6
:1044B80001FFC801013200881301010000F31780D1
:1044C80000010000004208D702C902B606BB02C0BC
:1044D80002C602D002F0F1F2F3F4F5F6F7F8F9FAB1
:1044E800FBFCFDFEFF00401454004010503E4920E4
:1044F800474F5420594F5552204D45535341474536
:10450800210A000000000037020B028702DF0103C6
:1045180002EF01E0010000000079028101870286B4
:10452800022D066502AF029002200068656C7000DB
:1045380072657365740068616E647368616B6500A9
:084548007374617475730000C7
:00000001FF
