:100000000C94AE040C9403360C94D8350C94AD3596
:100010000C9482350C9457350C942C350C94013586
:100020000C94D6340C94DF040C94DF040C94DF049D
:100030000C94DF040C94DF040C94DF040C94DF04B4
:100040000C94DF040C942E360C94DF040C94DF0423
:100050000C94DF040C94DF040C94DF040C948C34B7
:100060000C94DF040C9498390C9453390C94DF04ED
:100070000C94DF040C94DF040C94DF040C94DF0474
:100080000C947B360C94DF040C94DF040C94DF0496
:100090000C94CE360C949B360C94DF040C940F37E2
:1000A0000C94DF040C94DF040C94DF040C94DF0444
:1000B0000C94DF040C94DF040C94DF040C94DF0434
:1000C0000C94DF040C94DF040C94DF040C940439CA
:1000D0000C94C3380C94DF040C9474380C943338AB
:1000E0000C94DF040C948B400C94D4080C94435073
:1000F0000C94603B0C94D1090C94F6080C94E30822
:100100000C9464070C9400060C9474440C94EC0555
:100110000C9418060C94AE430C94DD050C947D45AC
:100120000C94E5050C94FD080C9410430C9448497C
:100130000C941C450C9492420C9412060C94E90504
:100140000C941C060C94E2040C94A3090C948E40AD
:100150000C9454400C94AC420C9475400C94D3080D
:100160000C9466420C9462400C94FC050C945A4624
:100170000C94E1050C9488480C944F070C940406E9
:100180000C9469050C949E440C94F6050C94E4437D
:100190000C94A2090C940E060C94F2050C944F4991
:1001A0000C943A430C94CB050C942A090C944E07FA
:1001B0000C94E1040C94930E0C940A060C94C6055E
:1001C0000C9445224343442F5343490020200020F0
:1001D0005343414E4E455220560043485259534CCA
:1001E0004552204343442F534349002D2D2D2D2D9F
:1001F0002D2D2D2D2D2D2D2D2D2D2D2D2D2D2D005C
:1002000020202020002020205343414E4E455220E4
:100210005600202043485259534C455220434344F2
:100220002F5343492020002D2D2D2D2D2D2D2D2DEB
:100230002D2D2D2D2D2D2D2D2D2D2D00202020204F
:100240003072706D0020203020432020202020308C
:100250002E306B5061002020306B6D2F68202020E5
:1002600020203072706D002020202020302E303071
:10027000306B6D20202020202020200020302E30C8
:100280002F20302E305620202020202020202020FB
:10029000002020302F20203020432020202020301C
:1002A0002E306B5061002020306B6D2F6820202095
:1002B000203072706D20202030250020202020303A
:1002C00072706D0020203020462020202020302E0B
:1002D00030707369002020306D706820202020204D
:1002E000203072706D002020202020302E303030E1
:1002F0006D6920202020202020200020302E302F4B
:1003000020302E30562020202020202020202000A9
:100310002020302F20203020462020202020302E6A
:1003200030707369002020306D70682020202020FC
:100330003072706D20202030250000002100240044
:1003400027002A002D0030003300010100000401C5
:1003500007010A0100002200250028002B002E00C2
:100360003100340002010000050108010B01050500
:100370000505070508080808020202020A0A08081B
:100380000404040401010101010101010303030349
:1003900003030303040707070C0C0C0C0C0C0C0CD8
:1003A0000202020206060606060606060B0B0B0BE9
:1003B0000B0B0B0B0102102020080810204010200E
:1003C0004080020102010804020101020408102019
:1003D0004080804020100804020180040201804017
:1003E0002010080402010804020101020408102080
:1003F0004080010204081020408000000A0B02091E
:100400000C0D0E08070304010000000000000000AE
:1004100000000000000000000000000000000000DC
:100420000000000000001211100000000000000099
:1004300000000000000000000000000000000000BC
:10044000FA000252F855B702F8E0B726B6EEF556B4
:10045000FA000244F504379C37BC000037B5009021
:100460008A00C501FA000244C503FA00024437B508
:1004700000FF8A00B0C6F5E1FA000244F522FA0056
:10048000024427F717657C0C7601B7F417EA7C0F56
:1004900027F717657C0D76427840B6F217E57C0F9A
:1004A00027F7FA00029CF845B702F8E0B770B6EEFD
:1004B000F546FA00028EFA00029C379CFA00028E82
:1004C000FA00029C17FA02AC17F502ACFA00028E91
:1004D000FA00029C17FA02AD17FC02AC17F502AD48
:1004E000FA00028EFA00029C17FA02AC17F502AC71
:1004F000FA00028EFA00029C17FA02AD17F502AD5F
:10050000FA00028E37F502AC37B800003787FF904B
:10051000C500FA00028E3C01273102ACB6EE3780EE
:10052000FF7EF5E1FA00028EF522FA00028E27F72F
:1005300017657C0C7601B7F417EA7C0F27F717656F
:100540007C0D76427840B6F217E57C0F27F7274CF2
:10055000378000ACFA000198F810B702F820B758BD
:10056000B6EEF511FA000182FA00019817FA01B00F
:1005700017F501B0FA000182FA00019817FA01B1EB
:1005800017F501B1FA000182F500379C37BC020073
:10059000FA000198CA00C500FA0001823C01273127
:1005A00001B0B6E837B50FA0FA0001A8F504379CF2
:1005B00037BC8000F514FA000182B094F521FA00EE
:1005C0000182FA000200B088FA000198FA00018264
:1005D00027F717657C0C7601B7F417EA7C0F37B55F
:1005E0000190FA0001A827F717657C0D7642784044
:1005F000B6F217E57C0F27F737B00001B6F627F7FC
:10060000274C373B00E0F50F379E37BE8000F500E2
:10061000379F37BF07F6371527FA379DF504379C04
:1006200037BC800037B5014837EA7A0028807A2144
:1006300037B500CF37EA7A4437B5040537EA7A4848
:1006400037EA7A4C37B568F037EA7A4A37B570F04E
:1006500037EA7A4E37B5FF8837EA7A5437B57830BB
:1006600037EA7A5637B5F88137EA081437E50812C1
:1006700037B7000137EA081237B5000037EA081823
:1006800027290806FFFF2729080803FF27F5373524
:10069000082427AA7C0437380838B3F217257920B4
:1006A000272808602000FA000264F522FA0001827F
:1006B0007A00010437B5408837EA7C007506176A6E
:1006C0007C0475FE176A7C057533176A7C1675F80D
:1006D000176A7C1575FE176A7C1737B5810837EAEB
:1006E0007C1837B5100037EA7C1A37B5000037EAB6
:1006F0007C1C7500176A7C1E37354242376A7D4183
:1007000037350202376A7D433735C202376A7D4585
:100710003735C242376A7D4837B5010037EA7D2454
:1007200037B5020237EA7C1CFA0002DE27F7288080
:100730007C1F29807C1A37053701B70A2A807C1F65
:10074000FFF628807C1F3706B004373B010037FCDA
:10075000F5A527F7378000ACFA000198F810B7022A
:10076000F820B758B6EEF511FA000182FA000198A8
:1007700017FA01B017F501B0FA000182FA000198EA
:1007800017FA01B117F501B1FA000182F500379CA3
:1007900037BC0200FA000198CA00C500FA000182C5
:1007A0003C01273101B0B6E837B50FA0FA0001A827
:1007B000F504379C37BC8000F514FA000182B09430
:1007C000F521FA000182FA000200B088FA000198CF
:1007D000FA00018227F717657C0C7601B7F417EA57
:1007E0007C0F37B50190FA0001A827F717657C0D3B
:1007F00076427840B6F217E57C0F27F737B0000154
:10080000B6F627F7274C373B00E0F50F379E37BE8B
:100810008000F500379F37BF07F6371527FA379D59
:10082000F504379C37BC800037B5014837EA7A00B9
:1008300028807A2137B500CF37EA7A4437B50404E7
:1008400037EA7A4837EA7A4C37B568F037EA7A4AB5
:1008500037B570F037EA7A4E37B5FF8837EA7A5401
:1008600037B5783037EA7A5637B5F88137EA081461
:1008700037E5081237B7000137EA081237B500002C
:1008800037EA081827290806FFFF2729080803FF69
:1008900027F53735082427AA7C0437380838B3F2FF
:1008A00017257920272808602000FA000264F52225
:1008B000FA0001827A00010437B5408837EA7C00EB
:1008C0007506176A7C0475FE176A7C057533176A0E
:1008D0007C1675F8176A7C1575FE176A7C1737B594
:1008E000810837EA7C1837B5100037EA7C1A37B52B
:1008F000000037EA7C1C7500176A7C1E37354242BF
:10090000376A7D4137350202376A7D433735C20287
:10091000376A7D453735C242376A7D4837B50100B1
:1009200037EA7D2437B5020237EA7C1CFA0002DE82
:1009300027F728807C1F29807C1A37053701B70AE2
:100940002A807C1FFFF628807C1F3706B004373BC7
:10095000010037FCF5A527F7603B435011241FBE6B
:10096000CFEFD1E2DEBFCDBF00E00CBF13E0A0E0CF
:10097000B2E0EAE2FCEA00E00BBF02C007900D9291
:10098000AE30B107D9F724E1AEE0B3E001C01D926B
:10099000A63DB207E1F714E0CDEAD4E000E006C0DE
:1009A00021970109802FFE010E940355CC3AD107FF
:1009B00080E00807A9F70E94B63B0C9403560C94FC
:1009C000000008950895F8949091B10F8091B00FB0
:1009D000981304C0789480E092E008957894E091B0
:1009E000B00FEF5FF0E0E055F14F20819091AF0E36
:1009F000892F90E0982F8827820F911D08952091CC
:100A0000ED0F222309F447C0E22FE695E695E6951F
:100A1000F0E0E15EFF4E808190E0277002C0959586
:100A200087952A95E2F780FD36C0809119108823BA
:100A3000A9F18091FD0F823088F1E091FD0FE15026
:100A400090E080E020E08E1740F4DC01A452B04F2B
:100A500051963C91230F0196F6CFF0E0E452F04F0F
:100A6000818928130DC080E09091FD0F891718F53A
:100A7000E82FF0E0E452F04F918990838F5FF4CF3C
:100A8000E0914110F0914210309729F060E970E058
:100A900090E080E019951092FD0F089580E090910C
:100AA000FD0F891740F4E82FF0E0E452F04F9189F0
:100AB00090838F5FF4CF6091FD0F6093EC0FE09116
:100AC0003F10F0914010309731F38CED9FE0199575
:100AD000E2CFAF92BF92CF92DF92EF92FF920F934D
:100AE0001F93CF93DF936C017B018B01040F151FC4
:100AF000EB015E01AE18BF08C017D10759F069912C
:100B0000D601ED91FC910190F081E02DC60119957F
:100B1000892B79F7C501DF91CF911F910F91FF903C
:100B2000EF90DF90CF90BF90AF900895282F30E0E6
:100B3000F901E650FC4F9491F901EC54FC4F4491BB
:100B400022593C4FF9012491222309F435C09923FD
:100B500011F191509231F8F4E92FF0E08827EC542C
:100B6000FA4F8F4F0C940355E505E905C605DD05E1
:100B7000E105CB05EC05F205F605FC0500060406CB
:100B80000A060E06CB05120618061C068091800088
:100B90008F7780938000E22FF0E0EE0FFF1FEC5A7A
:100BA000FC4FA591B4918FB7F894EC91611148C0B6
:100BB00040954E234C938FBF0895809180008F7D88
:100BC000E8CF80918000877FE4CF84B58F7784BDA4
:100BD000E2CF84B58F7DFBCF8091B0008F7780937B
:100BE000B000D9CF8091B0008F7DF9CF8091900077
:100BF0008F7780939000CFCF809190008F7DF9CF39
:100C000080919000877FF5CF8091A0008F778093AF
:100C1000A000C1CF8091A0008F7DF9CF8091A0006E
:100C2000877FF5CF809120018F7780932001B3CF0C
:100C3000809120018F7DF9CF80912001877FF5CFB2
:100C40004E2BB8CFCF93DF9390E0FC01EC54FC4FD8
:100C5000249182599C4FFC0184918823C9F090E033
:100C6000880F991FFC01E65CFC4FA591B491FC0133
:100C7000EC5AFC4FC591D49161110DC09FB7F89407
:100C80008C91209582238C938881282328839FBF71
:100C9000DF91CF910895623051F49FB7F8943C9161
:100CA000822F809583238C93E8812E2BEFCF8FB7F3
:100CB000F894EC912E2B2C938FBFEACF863308F05B
:100CC000865320917B00982F9870277F922B9093CA
:100CD0007B0020914B0290E4299F900111248770A2
:100CE000822B80937C0080917A00806480937A00CC
:100CF00080917A0086FDFCCF8091780090917900F8
:100D000008953FB7F8948091680E9091690EA09174
:100D10006A0EB0916B0E26B5A89B05C02F3F19F047
:100D20000196A11DB11D3FBFBA2FA92F982F88276B
:100D3000BC01CD01620F711D811D911D42E0660F46
:100D4000771F881F991F4A95D1F708958F929F9218
:100D5000AF92BF92CF92DF92EF92FF924B015C0174
:100D60000E9481066B017C010E9481066C197D093D
:100D70008E099F09683E734081059105A8F321E023
:100D8000821A9108A108B10888EEC80E83E0D81E27
:100D9000E11CF11C81149104A104B10429F7FF9016
:100DA000EF90DF90CF90BF90AF909F908F9008957D
:100DB0002FB7F8946091640E7091650E8091660E65
:100DC0009091670E2FBF08950E94D8066093AB0ED6
:100DD0007093AC0E8093AD0E9093AE0EE7EAFEE0FA
:100DE00090838183728363830895CF92DF92EF9221
:100DF000FF92582FFC0130E020E0261748F4419183
:100E0000D901A452B04F92964C932F5F3F4FF5CF2C
:100E100020911A102223A9F0623098F02FEF260FAC
:100E2000FC0140E03191430F3E2F351B3217D0F3C8
:100E300030E0F901E452F04F42A3820F931FFC010E
:100E4000408310920E1060930F100E94D8066B0121
:100E50007C0180E090911110911111C081111CC092
:100E60000E94D806AB01BC014C195D096E097F09CF
:100E700081E0483E53406105710560F7EACF81117A
:100E80000BC08091C90080628093C90080E0FF9010
:100E9000EF90DF90CF90089582E0F9CF08951092FF
:100EA000850010928400E1E8F0E080818560808315
:100EB000ED988EE497E09093570280935602ECED04
:100EC000FFE015AA16AA0895649B05C010921110A0
:100ED0001092121008951092950010929400809133
:100EE000910085608093910081E080931110809142
:100EF000FD0F81110C94FF0408952091400E260FE0
:100F00003327331F21323105ECF420916910FC01A5
:100F100090E080E0243069F082E00895A091400ED6
:100F20002191AC01405E514FA40FB52FB11D2C9300
:100F30000196861798F38091400E680F6093400EDB
:100F400080E0089581E008951092691081E0809317
:100F500068101092431061E084E10E94960561E000
:100F600085E10E949605E9EBF0E080818E7F808329
:100F700080818D7F808388E48093B80085E48093AE
:100F8000BC000895CF93DF9391E090931F0E8823C8
:100F9000B9F0C091B800D091BA008091BC008A7BB2
:100FA0008093BC0060E084E10E94960560E085E1EA
:100FB0000E9496050E94A407D093BA00C093B8007F
:100FC000DF91CF9108958F929F92AF92BF92CF926F
:100FD000DF92EF92FF920F931F93CF93DF93D09105
:100FE0009210D13208F0D7C0182FC09191100E94F2
:100FF00081066B017C018091691081116BC082E0D8
:1010000080936910109368108FEF8093671010928F
:101010006610D0936510A1E7B0E1E5E4F0E180E06F
:10102000D81391C01092441080914410CC0FC82B5B
:10103000C093441080914310813009F088C0109211
:1010400043100E9481066B017C01809144108093C3
:10105000BB0080916B1090916C10A0916D10B091BD
:101060006E10892B8A2B8B2BA1F00E948106009198
:101070006B1010916C1020916D1030916E106C19E6
:101080007D098E099F09061717072807390708F4F5
:1010900042C08091BC0083FDD8CF85EC8093BC001A
:1010A0000E9481066B017C0180916910823009F4F5
:1010B00050C0809167108F3F09F46FC08091671016
:1010C000803209F46CC080916710803309F469C0E4
:1010D00084E026C080916B1090916C10A0916D10EF
:1010E000B0916E10892B8A2B8B2B09F484CF0E9430
:1010F000810680906B1090906C10A0906D10B09055
:101100006E106C197D098E099F0986169706A80630
:10111000B90608F070CF80916A100E94C20785E07E
:10112000109270101092921010926F10DF91CF9168
:101130001F910F91FF90EF90DF90CF90BF90AF90F5
:101140009F908F9008959D9191938F5F69CF85EEC9
:10115000A5CF80916B1090916C10A0916D10B09103
:101160006E10892B8A2B8B2B09F49ECF0E9481064F
:1011700000916B1010916C1020916D1030916E10D9
:101180006C197D098E099F0906171707280739076B
:1011900008F08ACFC0CF81E0C3CF80E0C1CF82E02A
:1011A000BFCF83E0BDCF0895E091DB0F8091DA0FD0
:1011B000E81730F4F0E0EA54F04F808190E00895B1
:1011C0008FEF9FEF08959091DB0F8091DA0F2FEF53
:1011D0003FEF981748F4E92FF0E0EA54F04F2081F0
:1011E00030E09F5F9093DB0FC90108958091DA0F83
:1011F0009091DB0F891B990B0895CF92DF92EF92AC
:10120000FF920F931F93CF93DF937C01CB018A0151
:1012100020916F10222389F0EB016B01C40ED51EC3
:10122000CC15DD0569F06991D701ED91FC91019034
:10123000F081E02DC7011995F3CF642F0E947D073F
:10124000C801DF91CF911F910F91FF90EF90DF9038
:10125000CF900895CF93DF931F92CDB7DEB7698308
:1012600020916F102223F9F020919210203258F033
:1012700021E030E0FC013383228390E080E00F9096
:10128000DF91CF91089580917010E82FF0E0EF5832
:10129000FF4E998190838F5F80937010809392109E
:1012A00081E090E0ECCF61E0CE0101960E947D07E5
:1012B000F7CF682F83E990E10C942A091092DB0F95
:1012C0001092DA0F0E94A40781EE94E09093D70F5A
:1012D0008093D60F82EE94E09093D90F8093D80F2D
:1012E0008CE08093B8008091B11091E090936F10E2
:1012F0008093911010927010109292108091B810FB
:101300009091B910029721F490E080E00E94590971
:1013100090E080E00E94590981E00C94E307FC0111
:10132000248131E030936F1020939110109270104F
:10133000109292108385862B90E00E94590981E0DB
:101340000C94E307089590E080E00895CF93C82FB0
:1013500060E00E949605C43271F0C532B9F00E9477
:10136000D80660939F0E7093A00E8093A10E909369
:10137000A20ECF9108950E94D80660939B0E7093A1
:101380009C0E80939D0E90939E0EF3CF0E94D806E4
:101390006093970E7093980E8093990E90939A0E87
:1013A000E8CF20917613222369F060939013282FC1
:1013B000A0E8B3E1FC018E2F821B861718F48191FF
:1013C0008D93F9CF08954F925F926F927F928F9293
:1013D0009F92AF92BF92CF92DF92EF92FF92CF9304
:1013E000DF9310921B0E10921C0E10921D0E109285
:1013F0001E0E1092170E1092180E1092190E1092C7
:101400001A0EC0E8D0E087E30E945E06092E000CA9
:10141000AA0BBB0B40911B0E50911C0E60911D0E30
:1014200070911E0E4C015D01840E951EA61EB71E06
:1014300080921B0E90921C0EA0921D0EB0921E0E5A
:10144000219709F7C0E8D0E088E30E945E066C01AE
:10145000990FEE08FF088091170E9091180EA09139
:10146000190EB0911A0E8C0D9D1DAE1DBF1D8093DF
:10147000170E9093180EA093190EB0931A0E219781
:1014800019F727E0B694A794979487942A95D1F7F3
:1014900080921B0E90921C0EA0921D0EB0921E0EFA
:1014A0006C017D0137E0F694E794D794C7943A95A0
:1014B000D1F7C092170ED092180EE092190EF0924A
:1014C0001A0E6091490270914A0290E080E00E94F9
:1014D0001A5220E030E048EC52E40E9451542B01B3
:1014E0003C01C501B4010E941A52A30192010E945D
:1014F0007B5220E030EC4FE754E40E94515420E04E
:1015000030E048EC52E40E947B520E94CA54EB0146
:10151000C701B6010E941A52A30192010E947B5298
:1015200020E030EC4FE754E40E94515420E030E0DA
:1015300048EC52E40E947B520E94CA54D0938F0E12
:10154000C093900E7093910E6093920EDF91CF91A5
:10155000FF90EF90DF90CF90BF90AF909F908F90D3
:101560007F906F905F904F9008954F925F926F922F
:101570007F928F929F92AF92BF92CF92DF92EF9223
:10158000FF92CF93DF931092130E1092140E1092CD
:10159000150E1092160EC0E8D0E086E30E945E069B
:1015A0006C01990FEE08FF088091130E9091140EB4
:1015B000A091150EB091160E8C0D9D1DAE1DBF1D78
:1015C0008093130E9093140EA093150EB093160EE5
:1015D000219719F76C017D0187E0F694E794D79481
:1015E000C7948A95D1F7C092130ED092140EE09250
:1015F000150EF092160E609145027091460290E031
:1016000080E00E941A524B015C0160914902709186
:101610004A0290E080E00E941A5220E030E048EC5C
:1016200052E40E9451542B013C01C701B6010E94B3
:101630001A529B01AC01C301B2010E947B5220E00F
:1016400030EC4FE754E40E9451546B017C016091EF
:1016500047027091480290E080E00E941A52A50172
:1016600094010E94E5539B01AC01C701B6010E94A1
:101670007B52A50194010E94515420E030E048ECD7
:1016800052E40E947B520E94CA54683522E07207DD
:10169000A8F41092930E1092940E1092120EDF91F5
:1016A000CF91FF90EF90DF90CF90BF90AF909F9041
:1016B0008F907F906F905F904F9008957093930EEE
:1016C0006093940E81E08093120EE9CFFC0121918A
:1016D000241741F09F01281B390B26173707B8F351
:1016E00080E0089581E00895F8948091B00F809390
:1016F000B10F78940895F8948091B10F9091B00F44
:101700007894891B08959091820E21E0290F30E092
:10171000F8944091830E789442171306C9F32E5E15
:10172000324FF90180839F5F9093820E8091310147
:101730008062809331010895F8949091B10F809167
:10174000B00F981304C0789480E092E008957894E4
:101750008091B00FE1E0E80FF0E08F5F8093B00F71
:10176000E055F14F20819091AF0E892F90E0982F96
:101770008827820F911D0895F8941092B10F10924E
:10178000B00F1092820E1092830E789490933501D0
:1017900080933401E1E3F1E0808188698083E2E3B2
:1017A000F1E08081866080830895F8948091110D26
:1017B0008093100D7894089590918B0E21E0290F5D
:1017C00030E0F89440918C0E789442171306C9F3D8
:1017D000205F334FF90180839F5F90938B0E809140
:1017E000D10080628093D10008959C01F89490917B
:1017F000100D8091110D981304C0789480E092E050
:10180000089578949091110DE92FF0E03196E20F50
:10181000F31FFF27E05FF44F208190910F0B892F7A
:1018200090E0982F8827820F911D0895F894909149
:10183000100D8091110D981304C0789480E092E00F
:10184000089578948091110DE1E0E80FF0E08F5F4A
:101850008093110DE05FF44F208190910F0B892F41
:1018600090E0982F8827820F911D0895F894109288
:10187000100D1092110D10928B0E10928C0E789408
:101880009093D5008093D400E1EDF0E080818869E9
:101890008083E2EDF0E08081866080830895F89493
:1018A0008091870E9091880E2091890E30918A0E3A
:1018B0007894821B930B9370089520917E0E309143
:1018C0007F0E2F5F3F4F3370F8944091800E509100
:1018D000810E789424173507B9F3F901E15FF84FC9
:1018E000808330937F0E20937E0E8091C1008062B2
:1018F0008093C1000895F8942091870E3091880E4E
:101900008091890E90918A0E2817390721F47894D6
:1019100080E092E0089578948091890E90918A0EEB
:101920000196937090938A0E8093890E815F9C4FED
:10193000FC01208190910E03892F90E0982F882739
:10194000820F911D0895F8948091100D9091110DC2
:101950007894891B08952F923F924F925F926F92D5
:101960007F928F929F92AF92BF92CF92DF92EF922F
:10197000FF920F931F93CF93DF936B017C014A017A
:10198000590133243394A114B10409F41AC1C0914C
:10199000B510D091B610CE0101978C219D21C81BA6
:1019A000D90BC50121E2A216B10410F080E290E04B
:1019B0008C179D0708F4EC018091B710A7019601E0
:1019C00004C056954795379527958A95D2F720906C
:1019D000B110222A30926F10209291101092701044
:1019E000109292108091B8109091B910029741F422
:1019F00099278F2D7E2D6D2D83E990E10E942A0974
:101A00006C2D83E990E10E942A0981E00E94E3079E
:101A1000082F8111D7C00E9481062B013C018091C3
:101A20006910811166C01C2F3092691030926810C5
:101A30003FEF30936710109266108C2F8150809387
:101A400065103092441080914410220C282A209274
:101A5000441080914310813009F084C010924310EB
:101A60000E9481062B013C01809144108093BB00B1
:101A700080916B1090916C10A0916D10B0916E10D0
:101A8000892B8A2B8B2BA1F00E94810620916B1051
:101A900030916C1040916D1050916E106419750961
:101AA00086099709261737074807590708F442C0DF
:101AB0008091BC0083FDD8CF45EC4093BC000E94D0
:101AC00081062B013C0180916910813009F44EC0E0
:101AD00080916610811710F410916610E5E4F0E132
:101AE000A6EBBFE080E0811751F191919D938F5F4C
:101AF000FACF80916B1090916C10A0916D10B09105
:101B00006E10892B8A2B8B2B09F489CF0E948106BA
:101B100020916B1030916C1040916D1050916E10AF
:101B20006419750986099709261737074807590761
:101B300008F075CF80916A100E94C20710E01092E1
:101B4000DB0F1093DA0F602E712C6C167D0680F57A
:101B500083E990E10E94E308F401E60DF71D80831C
:101B60000F5FF1CF55EE5093BC00A9CF80916B1061
:101B700090916C10A0916D10B0916E10892B8A2BF2
:101B80008B2B09F4A0CF0E94810620916B1030911D
:101B90006C1040916D1050916E1064197509860992
:101BA0009709261737074807590708F08CCFC2CF87
:101BB000CC0EDD1EE11CF11C8C0E9D1EAC1ABD0A64
:101BC000E2CE00E0802FDF91CF911F910F91FF9027
:101BD000EF90DF90CF90BF90AF909F908F907F90CD
:101BE0006F905F904F903F902F900895CF92DF922B
:101BF000EF92FF920F931F93CF93DF931F92CDB776
:101C0000DEB76B017C012FEFC21AD20AE20AF20A98
:101C10000091BA101091BB102091BC103091BD10F2
:101C20000C151D052E053F05B0F021E030E0AE019A
:101C30004F5F5F4F0E94AB0C90E0009771F4898179
:101C400090E00F90DF91CF911F910F91FF90EF9057
:101C5000DF90CF90089589E0EFCF9195819591091C
:101C6000F0CF0F931F93CF938C01C62F0E948F0943
:101C70006C2F6460C8010E948F096C2F6B7FC801B4
:101C80000E948F0983EC90E00197F1F7CF911F91AB
:101C90000F9108950F931F93CF93DF938C01D62F4D
:101CA000C42F607F642B0E94310E80E1D89FB00169
:101CB00011246C2BC801DF91CF911F910F910C94CF
:101CC000310ECF93DF9300D000D01F921F92CDB77B
:101CD000DEB798E0EEE6F2E0DE01119601900D929B
:101CE0009A95E1F79091AE10961710F46FEF690F87
:101CF000262F30E0220F331F41E050E04C0F5D1FD4
:101D0000240F351FF9016081680F606840E085EAA3
:101D100090E128960FB6F894DEBF0FBECDBFDF91DD
:101D2000CF910C944A0E41E00E944A0E81E090E06F
:101D300008950F931F93CF93DF938B0198E0899FB2
:101D4000B0011124606440E085EA90E10E944A0EEF
:101D5000E801085F1F4F699185EA90E10E94930EA8
:101D6000C017D107C1F7DF91CF911F910F9108954F
:101D70000F931F93CF93DF938C01D0E0C0E0F80165
:101D8000EC0FFD1F6491662339F041E085EA90E194
:101D90000E944A0E2196F3CFCE01DF91CF911F9181
:101DA0000F91089540E061E085EA90E10E944A0EBB
:101DB0008BE39FE10197F1F708950E94D20E809185
:101DC000B30F843171F58091B20F843009F042C0B5
:101DD00060E080E00E94610E85E293E00E94B80E10
:101DE00061E080E00E94610E80E193E00E94B80E05
:101DF00062E080E00E94610E8BEF92E00E94B80EDC
:101E000063E080E00E94610E86EE92E00E94B80ED0
:101E100061E087E00E94610E65E085EA90E10C9444
:101E2000930E8031B9F48091B20F823099F460E062
:101E300080E00E94610E85ED92E00E94B80E61E0A4
:101E400080E00E94610E84EC92E00E94B80E61E096
:101E500083E0E0CF60E080E00E94610E8BEB92E0D7
:101E60000C94B80E0E94D20E8091B30F843171F59C
:101E70008091B20F843009F042C060E080E00E949F
:101E8000610E86EA92E00E94B80E61E080E00E9456
:101E9000610E81E992E00E94B80E62E080E00E944B
:101EA000610E8CE792E00E94B80E63E080E00E9431
:101EB000610E87E692E00E94B80E61E087E00E9422
:101EC000610E65E085EA90E10C94930E8031B9F4DF
:101ED0008091B20F823099F460E080E00E94610E40
:101EE00086E592E00E94B80E61E080E00E94610EFB
:101EF00085E492E00E94B80E61E083E0E0CF60E00C
:101F000080E00E94610E8CE392E00C94B80EFC011C
:101F100001900020E9F73197AF01481B590BBC0134
:101F200085EA90E10C9469058F929F92AF92BF92DF
:101F30000F931F93CF93DF93CDB7DEB7A1970FB663
:101F4000F894DEBF0FBECDBF19A2423008F44AE0BC
:101F50008E010F5D1F4F842E912CB12CA12CA50159
:101F600094010E94B353E62FB901CA01EA30F4F498
:101F7000E05DD801EE938D01232B242B252B79F7DF
:101F800090E080E0109719F0CD010E94870FA19694
:101F90000FB6F894DEBF0FBECDBFDF91CF911F917A
:101FA0000F91BF90AF909F908F900895E95CE1CF23
:101FB000BC0190E080E04AE00C94940F0C94870FF1
:101FC0004F925F926F927F928F929F92AF92BF9249
:101FD000CF92DF92EF92FF920F931F93CF936B01FB
:101FE0007C01B42EAC019B010E94FE54882399F021
:101FF00089EE92E0CF911F910F91FF90EF90DF90CB
:10200000CF90BF90AF909F908F907F906F905F9098
:102010004F900C94870F26013701E89477F82FEF43
:102020003FEF4FE75FE7C301B2010E94FE54811109
:102030000DC02FEF3FEF4FE75FE7C301B2010E94F2
:10204000155218161CF48DEE92E0D4CF2FEF3FEF0F
:102050004FE75FE4C701B6010E94F95418161CF45B
:1020600081EF92E0C7CF2FEF3FEF4FE75FECC70163
:10207000B6010E94155287FDF3CF20E030E0A901A0
:10208000C701B6010E94155210E000E087FF0CC0A6
:1020900041E06DE285EA90E10E944A0EF7FAF09481
:1020A000F7F8F09401E010E0CB2DA12C60E070E097
:1020B00080E09FE3AB1440F420E030E040E251E4E4
:1020C0000E945154A394F6CFA70196010E94E553B4
:1020D0002B013C010E94CA546B017C014AE00E9422
:1020E000940F080F191FBB20B1F1C701B6010E9460
:1020F0001A529B01AC01C301B2010E94E4534B018F
:102100005C0141E06EE285EA90E10E944A0E0F5FB9
:102110001F4FC15000F120E030E040E251E4C50122
:10212000B4010E947B522B013C010E94CA544B0116
:10213000CB010E94D80F080F191FB40190E080E076
:102140000E941A529B01AC01C301B2010E94E453E8
:102150004B015C01DECFC801CF911F910F91FF9021
:10216000EF90DF90CF90BF90AF909F908F907F9037
:102170006F905F904F9008958F929F92AF92BF9211
:10218000EF92FF920F931F93CF93DF93CDB7DEB7FC
:102190002C970FB6F894DEBF0FBECDBF81E08093C1
:1021A0004D02F090B20FE090B30F8091960E109216
:1021B000A8101092A7108093A9108E818093AA1066
:1021C0008F818093AB1088858093AC10E092AD1026
:1021D000F092AE101092AF1018E01093B010109261
:1021E000DB0F1092DA0F10927010109292100E9472
:1021F000A40781EE94E09093D70F8093D60F82EEE0
:1022000094E09093D90F8093D80F1092AA108091E8
:10221000AE10823010F01093AA109091AF10992355
:1022200039F0813029F48091AA1084608093AA103B
:1022300062E370E080E090E00E94A6066091B0103A
:1022400085EA90E10E948F0968EE73E080E090E0FB
:102250000E94A60660E385EA90E10E94310E0BE43D
:1022600016E4C8010197F1F760E385EA90E10E9466
:10227000310EC8010197F1F760E385EA90E10E9411
:10228000310E83E592E00197F1F760E285EA90E193
:102290000E94310E6091AA10606240E085EA90E1F0
:1022A0000E944A0E84E08093AB1040E06CE085EA27
:1022B00090E10E944A0E0E94D20E82E08093AC1000
:1022C00040E066E085EA90E10E944A0E40E062E06C
:1022D00085EA90E10E944A0E0BE31FE1C8010197D5
:1022E000F1F788E08093B01060E085EA90E10E9409
:1022F0008F090E94D20E40E062E085EA90E10E94E0
:102300004A0EC8010197F1F760917C0E70917D0E25
:1023100076276727762790E080E00E941A5220E017
:1023200030E048EC52E40E9451544B015C0184E1DE
:10233000E81257C084E0F8126FC087E292E00E9472
:10234000B80E61E080E00E94610E82E192E00E949E
:10235000B80E62E080E00E94610E85E092E00E948B
:10236000B80E42E050E0C501B4010E94E00F80E0E9
:1023700092E00E94B80E63E080E00E94610E8BEE56
:1023800091E00E94B80E68E272E080E00E94990E2F
:1023900060E272E081E00E94990E68E172E082E002
:1023A0000E94990E60E172E083E00E94990E68E05D
:1023B00072E084E00E94990E60E072E085E02C9665
:1023C0000FB6F894DEBF0FBECDBFDF91CF911F9146
:1023D0000F91FF90EF90BF90AF909F908F900C94D3
:1023E000990E80E1E81218C082E0F81215C08AED5B
:1023F00091E00E94B80E61E080E00E94610E8FECD7
:1024000091E00E94B80E42E050E0C501B4010E9484
:10241000E00F8CEC91E0B5CF84EC91E0B2CFCF929D
:10242000DF92EF92FF9240E054E264EF75E4409354
:10243000131050931410609315107093161080931E
:1024400017108AE08093181081E080931910809310
:102450001A101092EC0F8093111080931210F894C0
:102460001092FD0F10920E1010920F10109210107B
:1024700020E030E040E851E46091131070911410B6
:1024800080911510909116100E947B529B01AC0117
:1024900060E074E284E79BE40E94515420E030E065
:1024A00040E85FE30E94E4530E94CA547F70709337
:1024B000CD006093CC008091C90088698093C900E9
:1024C0008091CA0086608093CA00789483E090E08F
:1024D00090931E1080931D10F8941092900010920B
:1024E0009100109295001092940080911D1090918F
:1024F0001E109093990080939800809191008860BD
:102500008093910080917100826080937100789433
:10251000EFE1F0E180E2DF011D928A95E9F7809119
:10252000171062E0882309F43DC082E00E94220671
:1025300084E697E0909355028093540280916A005C
:102540008C7F816080936A00EC9A87E090E09093A2
:102550001C1080931B10F894109280001092810040
:102560001092850010928400259A809180008064EA
:102570008093800080911B1090911C109093890093
:102580008093880080916F008D7F80936F00809191
:1025900081008960809381007894FF90EF90DF90B4
:1025A000CF90089583E00E9422068FE497E09093F5
:1025B00057028093560280916A00837F88608093DF
:1025C0006A00ED9A2091131030911410409115106B
:1025D0005091161060E070E080E89FE30E94515433
:1025E00020E034E244E75BE40E947B526B017C0113
:1025F0006091181070E090E080E00E941C5220E092
:1026000030E040E251E40E94E5539B01AC01C70178
:10261000B6010E947B5220E030E040E85AE30E947D
:102620007B5220E030E040E85FE30E94E4530E94E8
:10263000CA5470931C1060931B10F8941092800081
:10264000109281001092850010928400259880914C
:102650001B1090911C1090938900809388008091AA
:10266000810088608093810080916F0082608093F8
:102670006F0092CF2F923F924F925F926F927F9214
:102680008F929F92AF92BF92CF92DF92EF92FF9282
:102690000F931F93CF93DF93CDB7DEB70DB71EB760
:1026A0009091B50F992359F12DB63EB69CEF940F3A
:1026B0002DB73EB7291B31090FB6F8943EBF0FBEA8
:1026C0002DBFEDB7FEB731967F01992311F40C941D
:1026D000761FFB013496D70124E0241720F43191B2
:1026E0003D932F5FFACF20915302213001F1223028
:1026F00009F4BEC50FB6F8943EBE0FBE2DBE0FB690
:10270000F8941EBF0FBE0DBFDF91CF911F910F91A7
:10271000FF90EF90DF90CF90BF90AF909F908F9001
:102720007F906F905F904F903F902F9008958130F1
:1027300009F7F70180818C3809F403C108F041C022
:10274000843209F49CC08234A9F6943098F26181F5
:1027500070E090E080E00E941C5226E636E646E2F9
:102760005FE30E947B526B017C0120E030E0A90115
:102770000E94F95420E030E040E05FE387FDC5C0EF
:10278000C701B6010E94E5530E94C354F62E809102
:10279000B30F843109F0AECF8091B20F843009F0CD
:1027A000A9CFF9E0FF1508F4B5C060E080E10E9410
:1027B000610E88EF92E00E94DE0F8F2D0E94803A1A
:1027C00099CF843D09F4DFC2843E09F4ABC38E3C4B
:1027D00009F090CF963008F48DCF618172818381AA
:1027E00094810E940B552091B40F211111C20E94B7
:1027F0001A5220E030E040E05EE30E947B526B0121
:102800007C0120E030E0A9010E94F95420E030E092
:1028100040E05FE387FD11C2C701B6010E94E553A6
:102820000E94C3540E941C5220E030E04AE754E466
:102830000E9451546B017C018091B30F843109F0E7
:1028400059CF8091B20F843009F054CF20E030E0AE
:1028500040E251E4C701B6010E94155287FFF2C160
:1028600063E080E00E94610E85EF92E00E94DE0F3F
:1028700043E050E0C701B6010E94E00F3BCF943027
:1028800008F438CF8091B40F811119C0F180809184
:10289000B30F8431D1F48091B20F843009F02ACF84
:1028A000F9E0FF15D8F060E080E00E94610E88EF4B
:1028B00092E00E94DE0F8F2D0E94803A1BCF813064
:1028C00011F4F280E4CFF12CE2CF803109F012CF85
:1028D0008091B20F823009F00DCFE2CF86EF8F0DDD
:1028E00060E08A3558F480E00E94610E89EF92E042
:1028F0000E94DE0F8F2D0E94803AFCCE80E00E9465
:10290000610E8F2D0E94803AF5CEC701B6010E945C
:10291000E4533ACF86EF8F0D60E08A3558F480E1BA
:102920000E94610E89EF92E00E94DE0F8F2D0E94BF
:10293000803AE0CE80E10E94610E8F2D0E94803AA5
:10294000D9CE943008F4D6CE8091B40F81117DC0D9
:10295000618170E090E080E00E941C5226E636E63D
:1029600046EE5FE30E947B5226E636E646E453E4F9
:102970000E94E4532B013C0120E030E0A9010E94B9
:10298000F95420E030E040E05FE387FD54C0C3012C
:10299000B2010E94E5530E94C3546B01F7016281AA
:1029A00070E090E080E00E941C5226E636E646EE9B
:1029B0005FE30E947B5226E636E646E453E40E943B
:1029C000E4532B013C0120E030E0A9010E94F954BE
:1029D00020E030E040E05FE387FD32C0C301B20198
:1029E0000E94E5530E94C3547B018091B30F843150
:1029F00009F0B1C08091B20F843009F07BCE9DE91F
:102A0000C9169FEFD9069CF561E080E00E94610E37
:102A10008CEF92E00E94DE0F2DE9E2162FEFF20616
:102A20000CF052C061E084E00E94610E8CEF92E0F5
:102A30000E94DE0F5FCEC301B2010E94E453ABCF10
:102A4000C301B2010E94E453CDCF813059F46181BA
:102A5000262F2058330B69016281862F8058990BED
:102A60007C01C3CFF12CE12CD12CC12CBECFC601EF
:102A70008D599F4F61E08A35910510F161E0E7EFD4
:102A8000CE16EFEFDE06B0F4FAE0CF16D10460F414
:102A900061E080E00E94610E88EF92E00E94DE0F0C
:102AA000C6010E94873AB8CFC6010A9761E08A350D
:102AB000910530F480E00E94610E89EF92E0EECF44
:102AC00080E00E94610EECCFC7018D599F4F8A357F
:102AD000910540F461E084E00E94610EC7010E940C
:102AE000873A08CE37EFE3163FEFF30660F061E078
:102AF00084E00E94610E89EF92E00E94DE0FC70120
:102B00000E94873AF7CD8AE0E816F10460F461E0AC
:102B100084E00E94610E88EF92E00E94DE0FC70100
:102B20000E94873AE7CDC7010A9761E08A3591058F
:102B300058F484E00E94610E89EF92E00E94DE0F5B
:102B4000C7010E94873AD6CD84E00E94610EC7017A
:102B50000E94873ACFCD803109F0CCCD8091B20F61
:102B6000823009F0C7CD9DE9C9169FEFD9064CF414
:102B700061E080E00E94610E8CEF92E00E94DE0F27
:102B8000B9CDC6018D599F4F8A35910540F461E05A
:102B900080E00E94610EC6010E94873AABCDE7EF4C
:102BA000CE16EFEFDE0660F061E080E00E94610E7D
:102BB00089EF92E00E94DE0FC6010E94873A9ACD0B
:102BC000FAE0CF16D10460F461E080E00E94610E6B
:102BD00088EF92E00E94DE0FC6010E94873A8ACDFC
:102BE000C6010A9761E08A35910558F480E00E9499
:102BF000610E89EF92E00E94DE0FC6010E94873AC3
:102C000079CD80E00E94610EC6010E94873A72CDA4
:102C1000C12CD12C7601213009F00ECE0E941A521F
:102C200022E03BE249EC54E40E947B5220E030E099
:102C30004AEF55E40E945154E2CDC701B6010E940B
:102C4000E453EECD20E030E040E251E4C701B601AC
:102C50000E94F95487FD19C020E030E048EC52E4AE
:102C6000C701B6010E94155287FF0FC063E080E0E4
:102C70000E94610E86EF92E00E94DE0F43E050E07A
:102C8000C701B6010E94E00F35CD20E030E048ECEE
:102C900052E4C701B6010E94F95487FD19C020E033
:102CA00030E04AE754E4C701B6010E94155287FF9D
:102CB0000FC063E080E00E94610E87EF92E00E9407
:102CC000DE0F43E050E0C701B6010E94E00F12CDD5
:102CD00020E030E04AE754E4C701B6010E94F9540D
:102CE00087FD19C020E030E44CE156E4C701B6018D
:102CF0000E94155287FF0FC063E080E00E94610EC2
:102D000088EF92E00E94DE0F43E050E0C701B60179
:102D10000E94E00FEFCC20E030E44CE156E4C70124
:102D2000B6010E94F95487FD19C020E030E543EC5C
:102D300057E4C701B6010E94155287FF0FC063E038
:102D400080E00E94610E89EF92E00E94DE0F43E076
:102D500050E0C701B6010E94E00FCCCC20E030E586
:102D600043EC57E4C701B6010E94F95487FDC2CC79
:102D700063E080E00E94610E43E050E0C701B601CD
:102D80000E94E00FB7CC943008F4B4CC618170E0BD
:102D900090E080E00E941C5220E030E040E251E4EC
:102DA0000E947B5220E030E040E85DE30E947B52CD
:102DB0002B013C0120E030E0A9010E94F95420E001
:102DC00030E040E05FE387FD7FC0C301B2010E94B5
:102DD000E5530E94C3540E941C524B015C01F70151
:102DE000628170E090E080E00E941C5220E030E0C0
:102DF00040E251E40E947B5220E030E040E85DE395
:102E00000E947B526B017C0120E030E0A9010E940E
:102E1000F95420E030E040E05FE387FD5AC0C7018D
:102E2000B6010E94E5530E94C3540E941C522B011C
:102E30003C018091B30F843109F05CCC8091B20FDA
:102E4000843009F057CC20E030E040E251E4C50185
:102E5000B4010E9451546B017C0120E030E040E25B
:102E600051E40E94155287FF39C062E080E00E9461
:102E7000610E89EF92E00E94DE0F41E050E0C70151
:102E8000B6010E94E00F20E030E040E251E4C301CF
:102E9000B2010E9451546B017C0120E030E040E21D
:102EA00051E40E94155287FF28C062E085E00E942D
:102EB000610E89EF92E00E94DE0F41E050E0C70111
:102EC000B6010E94E00F16CCC301B2010E94E45388
:102ED00080CFC701B6010E94E453A5CF20E030E0C7
:102EE00040E251E4C701B6010E94F95487FDCBCFFF
:102EF00062E080E00E94610EC0CF20E030E040E25E
:102F000051E4C701B6010E94F95487FDF3CB62E09A
:102F100085E00E94610E41E050E0C701B6010E94C9
:102F2000E00FE8CB943008F4E5CB8091B40F811129
:102F300068C0C180F0E2CF9E60011124F701628178
:102F400070E090E080E00E941C5220E030E040E21F
:102F500051E40E947B5225EB32EC44E75DE30E9492
:102F60007B522B013C0120E030E0A9010E94F95482
:102F700020E030E040E05FE387FD61C0C301B201C3
:102F80000E94E5530E94C3540E941C5220E030E08E
:102F900040E251E40E9451542B013C018091B30F57
:102FA000843109F0A6C08091B20F843009F026C1A7
:102FB000FAE0CF16D10408F047C060E088E00E9434
:102FC000610E87EF92E00E94DE0FC6010E94D80FCB
:102FD00020E030E040E251E4C301B2010E9415520A
:102FE00087FF4FC061E08DE00E94610E89EF92E0A3
:102FF0000E94DE0F41E050E0C301B2010E94E00FE9
:1030000079CB412C512C3201D12CC12C813031F69D
:10301000C180F0E2CF9E60011124F701628170E06F
:1030200090E080E00E941C5220E030E040E251E459
:103030000E947B5229ED31EA4CED50E48ACFC30166
:10304000B2010E94E4539ECFC6010A978A359105CA
:1030500038F460E088E00E94610E88EF92E0B3CF20
:10306000C6018456910960E08438934030F488E0CA
:103070000E94610E89EF92E0A6CF88E00E94610E67
:10308000A4CF20E030E040E251E4C301B2010E944D
:10309000F95487FD15C020E030E048EC52E4C3014C
:1030A000B2010E94155287FF0BC061E08DE00E94C3
:1030B000610E41E050E0C301B2010E94E00F1ACB63
:1030C00020E030E048EC52E4C301B2010E94F95420
:1030D00087FD10CB61E08DE00E94610E89EF92E0E8
:1030E0000E94DE0F50E040E0C301B2010E94E00FF9
:1030F00001CB803109F082C08091B20F823009F09B
:103100007DC03AE0C316D10420F560E089E00E945A
:10311000610E87EF92E00E94DE0FC6010E94D80F79
:1031200020E030E040E251E4C301B2010E941552B8
:1031300087FF2CC061E089E00E94610E89EF92E078
:103140000E94DE0F41E050E0C301B2010E94E00F97
:10315000D1CAC6010A978A35910538F460E089E042
:103160000E94610E88EF92E0D6CFC6018456910985
:1031700060E08438934030F489E00E94610E89EF6A
:1031800092E0C9CF89E00E94610EC7CF20E030E015
:1031900040E251E4C301B2010E94F95487FD15C019
:1031A00020E030E048EC52E4C301B2010E94155225
:1031B00087FF0BC061E089E00E94610E41E050E0B2
:1031C000C301B2010E94E00F95CA20E030E048EC54
:1031D00052E4C301B2010E94F95487FD8BCA61E039
:1031E00089E00E94610E89EF92E00E94DE0F50E0BC
:1031F00040E0C301B2010E94E00F7CCAFAE0CF16A2
:10320000D10460F460E081E00E94610E87EF92E0FB
:103210000E94DE0FC6010E94D80F6CCAC6010A9731
:103220008A35910560F460E081E00E94610E88EFCC
:1032300092E00E94DE0FC6010E94D80F5BCAC60151
:103240008456910960E08438934058F481E00E94EC
:10325000610E89EF92E00E94DE0FC6010E94D80F36
:1032600049CA81E00E94610EC6010E94D80F42CA7D
:10327000823009F03FCAF7018081843109F03ACAEF
:10328000933008F437CA81818B3009F4ADC270F5F0
:10329000853009F451C18A3009F436C2813009F011
:1032A00029CA8091B40F811188C0E280F12C8091ED
:1032B000B30F843109F0EBC08091B20F843009F074
:1032C00019CAFDE9EF16FFEFFF060CF4ABCBC701FF
:1032D0008D599F4F8A35910508F0A0C061E084E0C8
:1032E0000E94610EC7010E94873A04CA843209F421
:1032F000F7C418F5813109F0FDC9E280F0E2EF9ED4
:10330000700111248091B30F843109F066C480915B
:10331000B20F843009F0A6C42AE0E216F1040CF0E2
:103320002FC460E088E00E94610E87EF92E00E9467
:10333000DE0FC7010E94D80FDDC9813409F440C5F2
:10334000863409F0D7C9628170E090E080E00E9485
:103350001C5220E73EEC48EC5EE30E947B526B017E
:103360007C0120E030E0A9010E94F95420E030E027
:1033700040E05FE387FD9CC5C701B6010E94E553AD
:103380000E94C354F62E8091B30F843109F0B2C964
:103390008091B20F843009F0ADC9F9E0FF1508F44F
:1033A0008CC560E080E10E94610E88EF92E00E948F
:1033B000DE0F8F2D0E94803A9DC9813061F56281B8
:1033C00070E090E080E00E941C522BEE38E34EE06B
:1033D0005FE30E947B5225EE38E34EE851E40E9401
:1033E000E4536B017C0120E030E0A9010E94F95414
:1033F00020E030E040E05FE387FD08C0C701B60190
:103400000E94E5530E94C3547B0151CFC701B6010E
:103410000E94E453F7CFF12CE12C49CF27EFE216BD
:103420002FEFF20660F061E084E00E94610E89EF08
:1034300092E00E94DE0FC7010E94873A5BC93AE022
:10344000E316F10460F461E084E00E94610E88EF0D
:1034500092E00E94DE0FC7010E94873A4BC9C70164
:103460000A9761E08A35910558F484E00E94610E64
:1034700089EF92E00E94DE0FC7010E94873A3AC9A5
:1034800084E00E94610EC7010E94873A33C98031EF
:1034900009F030C98091B20F823009F02BC98DE953
:1034A000E8168FEFF8060CF4BDCAC7018D599F4F7F
:1034B0008A35910540F461E084E00E94610EC70105
:1034C0000E94873A17C997EFE9169FEFF90660F057
:1034D00061E084E00E94610E89EF92E00E94DE0FBD
:1034E000C7010E94873A06C9EAE0EE16F10460F4CB
:1034F00061E084E00E94610E88EF92E00E94DE0F9E
:10350000C7010E94873AF6C8C7010A9761E08A3569
:10351000910558F484E00E94610E89EF92E00E94C8
:10352000DE0FC7010E94873AE5C884E00E94610E61
:10353000C7010E94873ADEC88091B40F811149C04B
:10354000628170E090E080E00E941C5226E636E640
:1035500046EE5FE30E947B5226E636E646E453E4FD
:103560000E94E4536B017C0120E030E0A9010E943D
:10357000F95420E030E040E05FE387FD25C0C7015B
:10358000B6010E94E5530E94C3547B018091B30FA2
:10359000843109F062C08091B20F843009F0AAC86A
:1035A0003DE9E3163FEFF3060CF4E2CAC7018D597B
:1035B0009F4F8A359105C0F461E080E00E94610E62
:1035C000C7010E94873A96C8C701B6010E94E4531A
:1035D000DACF813031F46281262F2058330B790104
:1035E000D5CFF12CE12CD2CF87EFE8168FEFF8067C
:1035F00060F061E080E00E94610E89EF92E00E943D
:10360000DE0FC7010E94873A75C89AE0E916F104F7
:1036100060F461E080E00E94610E88EF92E00E9419
:10362000DE0FC7010E94873A65C8C7010A9761E0AB
:103630008A35910558F480E00E94610E89EF92E08E
:103640000E94DE0FC7010E94873A54C880E00E94A2
:10365000610EC7010E94873A4DC8803109F04AC8FF
:103660008091B20F823009F045C8EDE9EE16EFEF18
:10367000FE060CF47DCAC7018D599F4F8A3591050E
:1036800040F461E080E00E94610EC7010E94873A29
:1036900031C8F7EFEF16FFEFFF0660F061E080E062
:1036A0000E94610E89EF92E00E94DE0FC7010E9426
:1036B000873A20C82AE0E216F10460F461E080E075
:1036C0000E94610E88EF92E00E94DE0FC7010E9407
:1036D000873A10C8C7010A9761E08A35910560F4FE
:1036E00080E00E94610E89EF92E00E94DE0FC70128
:1036F0000E94873A0C947A1380E00E94610EC70101
:103700000E94873A0C947A13628170E090E080E026
:103710000E941C5220E030E040E251E40E947B52C3
:1037200020E030E040E85DE30E947B526B017C01C9
:1037300020E030E0A9010E94F95420E030E040E0B0
:103740005FE387FD34C0C701B6010E94E5530E94C4
:10375000C3540E941C522091B30F243111F00C94D9
:103760007A132091B20F243011F00C947A1320E0D8
:1037700030E040E251E40E9451546B017C0120E0B2
:1037800030E040E251E40E94155287FF15C062E02C
:1037900080E00E94610E89EF92E00E94DE0F41E01E
:1037A00050E0C701B6010E94E00F0C947A13C701E4
:1037B000B6010E94E453CBCF20E030E040E251E478
:1037C000C701B6010E94F95487FF02C00C947A1316
:1037D00062E080E00E94610E41E050E0C701B60166
:1037E0000E94E00F0C947A138091B40F81114EC0A7
:1037F000628170E090E080E00E941C5220E030E0A6
:1038000040E251E40E947B5225EB32EC44E75DE359
:103810000E947B526B017C0120E030E0A9010E94F4
:10382000F95420E030E040E05FE387FD3EC0C7018F
:10383000B6010E94E5530E94C3540E941C5220E02E
:1038400030E040E251E40E9451546B017C018091D0
:10385000B30F843109F0D4C08091B20F843011F0DD
:103860000C947A1320E030E046EC52ECC701B6012C
:103870000E941552181614F161E08DE00E94610E4D
:103880008BEF92E00E94DE0F0C947A13813091F45A
:10389000628170E090E080E00E941C5229ED31EAE4
:1038A0004CED50E40E947B52A9CFC701B6010E94A3
:1038B000E453C1CFC12CD12C7601C9CF20E030E038
:1038C00046EC52ECC701B6010E94F9541816D4F424
:1038D00020E030E040E251ECC701B6010E941552F1
:1038E000181684F061E08DE00E94610E89EF92E08D
:1038F0000E94DE0F50E040E0C701B6010E94E00FD9
:103900000C947A1320E030E040E251ECC701B6019C
:103910000E94F9541816ACF420E030E0A901C70168
:10392000B6010E94155287FF0CC061E08DE00E9435
:10393000610E41E050E0C701B6010E94E00F0C9417
:103940007A1320E030E0A901C701B6010E94F954C2
:1039500087FD1AC020E030E040E251E4C701B60123
:103960000E94155287FF10C061E08DE00E94610E39
:1039700089EF92E00E94DE0F41E050E0C701B601FE
:103980000E94E00F0C947A1320E030E040E251E412
:10399000C701B6010E94F95487FD16C020E030E04F
:1039A00048EC52E4C701B6010E94155287FF0CC0D3
:1039B00061E08DE00E94610E41E050E0C701B60178
:1039C0000E94E00F0C947A1320E030E048EC52E4BF
:1039D000C701B6010E94F95487FF02C00C947A1304
:1039E00061E08DE00E94610E89EF92E00E94DE0F9F
:1039F00050E040E0C701B6010E94E00F0C947A133A
:103A0000803111F00C947A138091B20F823011F052
:103A10000C947A1320E030E046EC52ECC701B6017A
:103A20000E941552181654F061E089E00E94610E60
:103A30008BEF92E00E94DE0F0C947A1320E030E0CE
:103A400046EC52ECC701B6010E94F9541816D4F4A2
:103A500020E030E040E251ECC701B6010E9415526F
:103A6000181684F061E089E00E94610E89EF92E00F
:103A70000E94DE0F50E040E0C701B6010E94E00F57
:103A80000C947A1320E030E040E251ECC701B6011B
:103A90000E94F9541816ACF420E030E0A901C701E7
:103AA000B6010E94155287FF0CC061E089E00E94B8
:103AB000610E41E050E0C701B6010E94E00F0C9496
:103AC0007A1320E030E0A901C701B6010E94F95441
:103AD00087FD1AC020E030E040E251E4C701B601A2
:103AE0000E94155287FF10C061E089E00E94610EBC
:103AF00089EF92E00E94DE0F41E050E0C701B6017D
:103B00000E94E00F0C947A1320E030E040E251E490
:103B1000C701B6010E94F95487FD16C020E030E0CD
:103B200048EC52E4C701B6010E94155287FF0CC051
:103B300061E089E00E94610E41E050E0C701B601FA
:103B40000E94E00F0C947A1320E030E048EC52E43D
:103B5000C701B6010E94F95487FF02C00C947A1382
:103B600061E089E00E94610E89EF92E00E94DE0F21
:103B700050E040E0C701B6010E94E00F0C947A13B8
:103B8000C7010A978A35910568F460E088E00E94D1
:103B9000610E88EF92E00E94DE0FC7010E94D80FED
:103BA0000C947A13C7018456910960E084389340DD
:103BB00060F488E00E94610E89EF92E00E94DE0FBF
:103BC000C7010E94D80F0C947A1388E00E94610EFE
:103BD000C7010E94D80F0C947A13803109F042C0BB
:103BE0008091B20F8230F1F58AE0E816F1046CF4AE
:103BF00060E089E00E94610E87EF92E00E94DE0F94
:103C0000C7010E94D80F0C947A13C7010A978A350E
:103C1000910568F460E089E00E94610E88EF92E00F
:103C20000E94DE0FC7010E94D80F0C947A13C701BF
:103C30008456910960E08438934060F489E00E94E2
:103C4000610E89EF92E00E94DE0FC7010E94D80F3B
:103C50000C947A1389E00E94610EC7010E94D80F6C
:103C60000C947A13FAE0EF16F1046CF460E081E052
:103C70000E94610E87EF92E00E94DE0FC7010E9452
:103C8000D80F0C947A13C7010A978A35910568F406
:103C900060E081E00E94610E88EF92E00E94DE0FFA
:103CA000C7010E94D80F0C947A13C701845691095A
:103CB00060E08438934060F481E00E94610E89EFF7
:103CC00092E00E94DE0FC7010E94D80F0C947A1375
:103CD00081E00E94610EC7010E94D80F0C947A13F4
:103CE000628170E090E080E00E941C5220E030E0B1
:103CF00040E251E40E947B5220E030E040E85DE386
:103D00000E947B526B017C0120E030E0A9010E94FF
:103D1000F95420E030E040E05FE387FD34C0C701A4
:103D2000B6010E94E5530E94C3540E941C52209188
:103D3000B30F243111F00C947A132091B20F243078
:103D400011F00C947A1320E030E040E251E40E943C
:103D500051546B017C0120E030E040E251E40E94CC
:103D6000155287FF15C062E085E00E94610E89EF61
:103D700092E00E94DE0F41E050E0C701B6010E94D0
:103D8000E00F0C947A13C701B6010E94E453CBCF25
:103D900020E030E040E251E4C701B6010E94F9544E
:103DA00087FF02C00C947A1362E085E00E94610EE6
:103DB00041E050E0C701B6010E94E00F0C947A1375
:103DC0008091B40F81113AC0628170E090E080E090
:103DD0000E941C5220E030E040E05FE30E947B52F2
:103DE0006B017C0120E030E0A9010E94F95420E041
:103DF00030E040E05FE387FD30C0C701B6010E94BC
:103E0000E5530E94C354F62E8091B30F843161F5BF
:103E10008091B20F843011F00C947A13F9E0FF1501
:103E200070F160E080E00E94610E88EF92E00E94F5
:103E3000DE0F8F2D0E94803A0C947A13813091F41A
:103E4000628170E090E080E00E941C522CEF3EEF17
:103E50004DEC5FE30E947B52BDCFC701B6010E94CB
:103E6000E453CFCFF12CD0CF803111F00C947A13E2
:103E70008091B20F823011F00C947A13CFCF86EF7D
:103E80008F0D60E08A3560F480E00E94610E89EF5A
:103E900092E00E94DE0F8F2D0E94803A0C947A13DC
:103EA00080E00E94610E8F2D0E94803A0C947A135C
:103EB000C701B6010E94E45363CA86EF8F0D60E02C
:103EC0008A3560F480E10E94610E89EF92E00E94E1
:103ED000DE0F8F2D0E94803A0C947A1380E10E94AD
:103EE000610E8F2D0E94803A0C947A130FB6F894CD
:103EF0001EBF0FBE0DBF0C947F13AF92BF92CF9227
:103F0000DF92EF92FF920F931F93CF93DF9300D036
:103F100000D01F92CDB7DEB7522F932FCDB6DEB6AD
:103F2000E091D214F091D3149E012F5F3F4F309750
:103F3000E1F5F901E65DF441FA83E983E981FA816B
:103F4000D801D896EA17FB07A8F587E0E6E7F2E084
:103F5000D90101900D928A95E1F789017E01B8E0BF
:103F6000EB0EF11CF80181918F010E945D0CE016AF
:103F7000F106C1F70FB6F894DEBE0FBECDBE0FB688
:103F8000F894DEBE0FBECDBE27960FB6F894DEBF06
:103F90000FBECDBFDF91CF911F910F91FF90EF909A
:103FA000DF90CF90BF90AF900895D901AE1BBF0BAB
:103FB000FD01C2CF5801F6E0AF0EB11C2DB73EB7E0
:103FC0002A193B090FB6F8943EBF0FBE2DBFADB7FF
:103FD000BEB711967D012DE3EDB7FEB721839801A1
:103FE0002E5F3F4F11963C9311972CEF2A0D12969E
:103FF0002C9312978295880F880F807C680F1396F8
:104000006C93139714964C9314970115110561F056
:10401000E52FF92F15969F01200F311FE217F307A7
:1040200019F081918D93FACF0B5F1F4FF7013196F5
:1040300080E09F012E193F092017310718F4919154
:10404000890FF7CF0E0D1F1DD8018C9384E20E94BB
:10405000A6098701C8018E199F098A159B0508F0DA
:1040600089CFF80181918F010E945D0CF3CF0F93EE
:104070001F93CF93DF93CDB7DEB7E7970FB6F894D2
:10408000DEBF0FBECDBF8091840E89838091850EE7
:104090008A838091860E8B8380918E0E882309F40B
:1040A0004DC181E08C831D821E820E94E4068091B6
:1040B000A70E8F838091A80E88878091A90E89878B
:1040C0008091AA0E8A872091D2143091D314CE0108
:1040D000C6962115310509F033C1865D94419FAB29
:1040E0008EAB8EA99FA99B878C870E94B50A809171
:1040F000120E882309F427C181E08D878091930EE9
:104100008E878091940E8F8780917913888B809110
:10411000C9149091CA14A091CB14B091CC14B98B4E
:104120008091C9149091CA14A091CB14B091CC1471
:10413000AA8B8091C9149091CA14A091CB14B0910C
:10414000CC149B8B8091C9149091CA14A091CB146C
:10415000B091CC148C8B8091CD149091CE14A09101
:10416000CF14B091D014BD8B8091CD149091CE140A
:10417000A091CF14B091D014AE8B8091CD149091BA
:10418000CE14A091CF14B091D0149F8B8091CD14F8
:104190009091CE14A091CF14B091D014888F8091BB
:1041A0001D12898F80916D1390916E13A0916F13E2
:1041B000B0917013BA8F80916D1390916E13A0918E
:1041C0006F13B0917013AB8F80916D1390916E133C
:1041D000A0916F13B09170139C8F80916D1390918B
:1041E0006E13A0916F13B09170138D8F8091711326
:1041F00090917213A0917313B0917413BE8F80913C
:10420000711390917213A0917313B0917413AF8FC7
:104210008091711390917213A0917313B0917413E4
:1042200098A38091711390917213A0917313B09120
:10423000741389A38091C1108AA380911112909167
:104240001212A0911312B0911412BBA380911112FB
:1042500090911212A0911312B0911412ACA38091FC
:10426000111290911212A0911312B09114129DA3E9
:104270008091111290911212A0911312B091141208
:104280008EA38091151290911612A0911712B091E1
:104290001812BFA38091151290911612A0911712B7
:1042A000B0911812A8A78091151290911612A091A2
:1042B0001712B091181299A78091151290911612A9
:1042C000A0911712B09118128AA78091B50F882378
:1042D000E1F181E08BA78091960E8CA78091B30FBE
:1042E0008DA78091B20F8EA78091950E8FA7809198
:1042F000B40F88AB8091530289AB809150029091AA
:1043000051029AAB8BAB80914E0290914F029CABC5
:104310008DAB05E310E09E012F5F3F4F40E062E070
:1043200080E00E947D1FE7960FB6F894DEBF0FBEB7
:10433000CDBFDF91CF911F910F9108951C82B3CE15
:10434000821B930BCCCE1D86D9CE1BA6C4CF0F9358
:104350001F93CF93DF93CDB7DEB76E970FB6F89468
:10436000DEBF0FBECDBFECE7FEE080818983818197
:104370008A83E4E7FEE080818B8381818C83828164
:104380008D8383818E8384818F83858188878681D5
:10439000898787818A87ECE6FEE080818B8781812F
:1043A0008C8782818D8783818E8784818F878581A9
:1043B000888B8681898B87818A8B1B8A97E09C8B6F
:1043C00085E08D8B1E8A22E62F8B2BE2288F25E23B
:1043D000298F2EE12A8F1B8E9C8F8D8F1E8E0EE1D2
:1043E00010E09E012F5F3F4F41E065E080E00E94BA
:1043F0007D1F6E960FB6F894DEBF0FBECDBFDF9166
:10440000CF911F910F9108950C944953EF92FF9211
:104410000F931F93CF93DF93EC017B018A01888177
:104420009981009729F02A813B812417350788F468
:10443000B8016F5F7F4F0E941255009791F09983EA
:1044400088831B830A832C813D81232B11F4FC017B
:1044500010821D830C83B701888199810E94FC55CD
:104460000CC088819981009711F00E94E850198250
:1044700018821D821C821B821A82CE01DF91CF918D
:104480001F910F91FF90EF900895CF93DF9300D08D
:1044900000D0CDB7DEB720917613222301F1672B30
:1044A000F1F066E073E0892B11F460E073E01A82AA
:1044B00019821C821B821E821D82FB01019000203A
:1044C000E9F73197AF01461B570BCE0101960E94C9
:1044D000062289819A81009711F00E94E850269661
:1044E0000FB6F894DEBF0FBECDBFDF91CF91089518
:1044F00085ED8093BC0080916B1090916C10A09121
:104500006D10B0916E100796A11DB11D23E0B695F8
:10451000A795979587952A95D1F72091BC0024FD02
:1045200003C010926910089540916B1050916C1067
:1045300060916D1070916E10452B462B472B69F3DF
:104540000097A105B10541F025E32A95F1F7000098
:104550000197A109B109E1CF80916A100C94C207BB
:104560001F93CF93DF93EC01162F0E944953181726
:1045700039F0612FCE01DF91CF911F910C947353CD
:10458000DF91CF911F9108950F931F93CF93DF93E6
:104590001F921F92CDB7DEB7182F81113FC18091B6
:1045A0001D1284FFD3C091E090931A1283FF8CC038
:1045B00090931C1282FF8BC060E086E10E949605FA
:1045C00060E087E10E94960560E088E10E94960520
:1045D00060E089E10E94960561E08AE10E9496050B
:1045E00061E08BE10E94960580911D12837009F0B5
:1045F00094C08FEF93E00E94360C8FEF93E090937E
:104600001F1280931E128091C11084FFF4C091E0AC
:104610009093BE1083FFADC09093C01082FFACC0DA
:1046200060E086E10E94960560E087E10E949605C1
:1046300060E088E10E94960560E089E10E949605AD
:1046400061E08CE10E94960561E08DE10E94960593
:104650008091C110837009F0B5C08FEF93E00E9484
:10466000BC0B8FEF93E09093C3108093C2106091C6
:104670001D1284E290E00E94B0226091C11085E298
:1046800090E00E94B022198280911D128A8302E07C
:1046900010E09E012F5F3F4F43E063E080E00E9407
:1046A0007D1F19828091C1108A839E012F5F3F4F29
:1046B00043E063E080E00E947D1F0F900F90DF9148
:1046C000CF911F910F91089510921C1273CF1092E9
:1046D000BE108091C1108F7E8093C11060E08AE18E
:1046E0000E94960560E08BE10E94960560E08CE1F7
:1046F0000E94960560E08DE10E94960560E088E1E9
:104700000E94960560E089E10E94960561E086E1DD
:104710000E94960561E087E165CF813039F48FE72B
:1047200090E00E94360C8FE790E069CF823039F438
:104730008FE090E00E94360C8FE090E060CF87E041
:1047400090E00E94360C87E090E059CF10921A1248
:1047500060E086E10E94960560E087E10E94960590
:1047600060E08AE10E94960560E08BE10E94960578
:104770004ACF1092C01052CF10921A1280911D127F
:104780008F7E80931D1260E08AE10E94960560E0B2
:104790008BE10E94960560E08CE10E94960560E046
:1047A0008DE10E94960560E086E10E94960560E03A
:1047B00087E10E94960561E088E10E94960561E02C
:1047C00089E144CF813039F48FE790E00E94BC0B3F
:1047D0008FE790E048CF823039F48FE090E00E947C
:1047E000BC0B8FE090E03FCF87E090E00E94BC0BD5
:1047F00087E090E038CF1092BE1060E088E10E9420
:10480000960560E089E10E94960560E08CE10E94D7
:10481000960560E08DE10E94960529CF82958695E8
:1048200086958370823009F08BC015FF20CF14FF6E
:1048300074C081E080931A1213FF2DC080931C1264
:1048400012FF2CC060E086E10E94960560E087E1DF
:104850000E94960560E088E10E94960560E089E18B
:104860000E94960561E08AE10E94960561E08BE175
:104870000E949605812F8370B9F58FEF93E00E9417
:10488000360C8FEF93E090931F1280931E121F7DC2
:1048900010931D12ECCE10921C12D2CF1092BE10AB
:1048A0008091C1108F7E8093C11060E08AE10E94E8
:1048B000960560E08BE10E94960560E08CE10E9425
:1048C000960560E08DE10E94960560E088E10E9417
:1048D000960560E089E10E94960561E086E10E940C
:1048E000960561E087E1C4CF813039F48FE790E02D
:1048F0000E94360C8FE790E0C6CF823039F48FE00B
:1049000090E00E94360C8FE090E0BDCF87E090E011
:104910000E94360C87E090E0B6CF10921A1260E049
:1049200086E10E94960560E087E10E94960560E0BE
:104930008AE10E94960560E08BE10E949605A7CF70
:10494000833009F094CE15FF92CE14FF74C081E03D
:104950008093BE1013FF2DC08093C01012FF2CC097
:1049600060E086E10E94960560E087E10E9496057E
:1049700060E088E10E94960560E089E10E9496056A
:1049800061E08CE10E94960561E08DE10E94960550
:10499000812F8370B9F58FEF93E00E94BC0B8FEFEE
:1049A00093E09093C3108093C2101F7D1093C110A9
:1049B0005ECE1092C010D2CF10921A1280911D12AA
:1049C0008F7E80931D1260E08AE10E94960560E070
:1049D0008BE10E94960560E08CE10E94960560E004
:1049E0008DE10E94960560E086E10E94960560E0F8
:1049F00087E10E94960561E088E10E94960561E0EA
:104A000089E1C4CF813039F48FE790E00E94BC0B7C
:104A10008FE790E0C6CF823039F48FE090E00E94BB
:104A2000BC0B8FE090E0BDCF87E090E00E94BC0B14
:104A300087E090E0B6CF1092BE1060E088E10E945F
:104A4000960560E089E10E94960560E08CE10E9495
:104A5000960560E08DE10E949605A7CF2F923F92C8
:104A60004F925F926F927F928F929F92AF92BF927E
:104A7000CF92DF92EF92FF920F931F93CF93DF932A
:104A8000CDB7DEB7A2970FB6F894DEBF0FBECDBF8D
:104A9000ADB6BEB680911A12811159C0712C8091A9
:104AA000BE10882311F40C9410322091C210309162
:104AB000C3108091C6102F37310511F00C94F32EDE
:104AC000811106C08091C710882311F40C94FD2D2C
:104AD0000E947B0B882311F40C94FD2DCDB6DEB61D
:104AE0001092C6101092C7100E947B0B8093D910B1
:104AF0008091D91090E004962DB73EB7281B390B52
:104B00000FB6F8943EBF0FBE2DBF8DB79EB701966E
:104B10007C010E94E4068091A70EF70180838091BA
:104B2000A80E81838091A90E82838091AA0E83832F
:104B300010E08091D910181710F00C949E2D0E944F
:104B40009C0BF701E10FF11D84831F5FF2CF2091D1
:104B50001E1230911F12809122122F37310509F059
:104B600086C281110DC080912312811109C08091EC
:104B70003F13811105C080914413882309F47EC13D
:104B80000E94A30C882309F479C11092221210927A
:104B900023120E94A30C8093351280913F13882327
:104BA000C9F00E94A30C833060F190E080E00E9485
:104BB000F50B439731F581E090E00E94F50B892BCE
:104BC00001F582E090E00E94F50B892BD1F4109260
:104BD0003F1317C00E94A30C833018F390E080E0CD
:104BE0000E94F50B4397E9F681E090E00E94F50BF7
:104BF000892BB9F281E080933F130E94160C0E942A
:104C0000160C809144138823C9F00E94A30C8330B2
:104C1000C0F190E080E00E94F50B8A9791F581E069
:104C200090E00E94F50B892B61F582E090E00E94F4
:104C3000F50B892B31F51092441323C00E94A30C6D
:104C4000843018F390E080E00E94F50B8A97E9F633
:104C500081E090E00E94F50B892BB9F282E090E0B0
:104C60000E94F50B892B89F281E08093441381E047
:104C700090E00E94F50B809345130E94160C0E9451
:104C8000160C80913F13882309F475C00E94D80642
:104C9000009140131091411320914213309143131E
:104CA000601B710B820B930B683C710581059105AC
:104CB000B8F10E94D806609340137093411380931B
:104CC00042139093431382E0809335120E94E406CE
:104CD0008091A70E89838091A80E8A838091A90E66
:104CE0008B838091AA0E8C8383E18D830E94160CA6
:104CF0008E830091351210E00C5F1F4F9E012F5FD5
:104D00003F4F41E067E082E00E947D1F40913512F5
:104D10004C5FBE016F5F7F4F82E00E943A1302C07A
:104D20000E94160C8D81823141F480911D128E7F7C
:104D3000826380931D120E94C42280914A138823AB
:104D400009F487C090914C1391114FC19091381381
:104D5000913009F009C120915013E7E3F2E1DE013F
:104D6000159690E0291709F461C041913D914313D4
:104D700080E09F5FF7CF809144138823C1F10E94A8
:104D8000D806009146131091471320914813309193
:104D90004913601B710B820B930B683C71058105F5
:104DA000910508F4BDCF0E94D80660934613709316
:104DB0004713809348139093491383E080933512EF
:104DC0000E94E4068091A70E89838091A80E8A83B1
:104DD0008091A90E8B838091AA0E8C838AE28D83A9
:104DE000809145138E830E94160C8F8382CF0E9480
:104DF000E4068091A70E89838091A80E8A83809112
:104E0000A90E8B838091AA0E8C8310E080913512BD
:104E1000181708F06ECF0E94160CE5E0F0E0EC0FDA
:104E2000FD1FE10FF11D80831F5FF0CF882319F074
:104E300081E080934B1380914F13882351F010929F
:104E4000371310924A1310924B1310924C13109276
:104E50004E130E94D50B80916D1390916E13A0910B
:104E60006F13B09170130196A11DB11D80936D1346
:104E700090936E13A0936F13B093701380914A13A5
:104E80008823E1F10E94A30C811138C00E94D8064A
:104E90006093AB0E7093AC0E8093AD0E9093AE0EFC
:104EA00000915D1310915E1320915F133091601398
:104EB0006B017C01C01AD10AE20AF30A00915B136C
:104EC00010915C1330E020E0C016D106E206F30634
:104ED000A8F060935D1370935E1380935F139093BB
:104EE000601380914B13882349F080914C138111FA
:104EF00042C281E080933E1310924B1370903E1398
:104F0000772009F4CBCD0E94A30C182F8111C6CDB8
:104F100020911E1230911F12809138132F373105C6
:104F200009F0F0C3813009F070C38091371318176E
:104F300008F013C30E94D8066B017C01E12FF0E05A
:104F4000E65EFD4E858D0E94DC0B00E00E94A30C06
:104F5000181708F4F0C2002309F4F1C201E010E0D0
:104F60002CE432E04EEF19C3923008F464CF309154
:104F7000501310913713A12FB0E0A85CBD4EAE01C5
:104F80004B5F5F4F20E0321741F07D91FA01619154
:104F9000AF01761380E02F5FF6CF882309F44BCF63
:104FA00021E020934B13809139138F5F8093391345
:104FB000E12FE30FEF5FE0933713F0E0E65EFD4E85
:104FC000358D30935013981336CF109239131092B9
:104FD0003713809137128093501380914E1388239A
:104FE00009F429CF20934F1326CF209135128091B9
:104FF000501390E001962817190621F581E080935F
:105000004B131092611380914F13882309F421CF21
:10501000109237131092501310924A1310924B13A0
:1050200010924C1310924E1319A282E08AA302E050
:1050300010E09E012F5D3F4F41E066E080E00E945E
:105040007D1F07CF91E090933E13809161138F5F96
:10505000809361138B3020F090934B131092611367
:1050600068EC70E080E090E00E94A606CCCF2F3084
:10507000310509F0F9C0811105C080912312882300
:1050800009F4FCCE0E94A30C882309F4F7CECDB618
:10509000DEB610922212109223120E94A30C80936B
:1050A00035124091371260E170E085E392E00E9492
:1050B000660B0091351210E0882309F44CC0000FF4
:1050C000111F0D5F1F4F2DB73EB7201B310B0FB6C1
:1050D000F8943EBF0FBE2DBF8DB79EB701967C01E1
:1050E0000E94E4068091A70EF70180838091A80EAC
:1050F00081838091A90E82838091AA0E83838091FF
:1051000038138130C1F590903712492D60E170E07D
:1051100085E392E00E94660B882301F1F7019482F7
:105120000E94160C712C80913713781608F04BC032
:10513000872D90E04C01880C991C8E0C9F1C865E7C
:105140009D4EFC01868DF40185830E94160CF401AE
:1051500086837394E8CF0C5F1F4FB5CF912C80915D
:105160003512981680F50E94160CF701E90DF11D15
:1051700084839394F4CF823060F1E0913713F0E0B0
:10518000E65EFD4E868DF70184830E94160C712C1D
:10519000809150137816B8F4872D90E04C01880C5C
:1051A000991C8E0C9F1CE0913713F0E0E65EFD4EDB
:1051B000E80FF91F878DF40185830E94160CF40116
:1051C00086837394E5CF970142E067E082E00E9416
:1051D0007D1FF70184818E3F41F480911D128D7FE8
:1051E000816380931D120E94C42280914A138823F8
:1051F000C9F080914C138111B1C090913813913056
:1052000009F081C090934B1380914F13882351F084
:105210001092371310924A1310924B1310924C13A2
:1052200010924E13409135124C5FB70182E00E94FC
:105230003A130E94D50B80916D1390916E13A0913B
:105240006F13B09170130196A11DB11D80936D1362
:1052500090936E13A0936F13B09370130FB6F894DE
:10526000DEBE0FBECDBE0ACE811105C080912312D5
:10527000882309F403CE0E94A30C882309F4FECDF1
:10528000CDB6DEB610922212109223120E94A30C09
:10529000809335128091351290E004962DB73EB779
:1052A000281B390B0FB6F8943EBF0FBE2DBF8DB72C
:1052B0009EB701967C010E94E4068091A70EF7013B
:1052C00080838091A80E81838091A90E8283809132
:1052D000AA0E838310E080913512181740F40E94C3
:1052E000160CF701E10FF11D84831F5FF4CF0091CD
:1052F000351210E00C5F1F4F970141E067E082E03C
:105300000E947D1F72CF923008F47ECF21E020935F
:105310004B13809139138F5F80933913E0913713CA
:1053200030915013E30FEF5FE0933713F0E0E65E48
:10533000FD4E358D30935013981366CF109239136C
:1053400010923713809137128093501380914E132F
:10535000882309F459CF20934F1356CF81E08093CF
:105360004B1380914F13882309F45CCF10923713AD
:10537000109250134FCF20915013243009F04DC09C
:1053800080913713811113C0809151139091521362
:105390003091531340915413409337123093381285
:1053A0009093391280933A1220933713A2CD6091D3
:1053B0003712709138128091391290913A120E94EE
:1053C0000B55C0905913D0905A13F12CE12CDC01ED
:1053D000CB018C0D9D1DAE1DBF1DB0933712A09348
:1053E00038129093391280933A1220933713C80ED3
:1053F000D91EEA1EFB1E00915513109156132091E1
:105400005713309158130C151D052E053F0508F054
:1054100070CD81E080934F136CCD233009F045C0EF
:105420008091371381110DC08091511390915213C7
:10543000309153133093371290933812809339126E
:10544000B3CF309137128091381290E0B0E0A0E0F5
:10545000BA2FA92F982F8827A32B30913912832B8D
:105460004091591350915A1370E060E0840F951FDA
:10547000A61FB71FA093371290933812809339124A
:1054800020933713840F951FA61FB71F4091551304
:10549000509156136091571370915813481759073C
:1054A0006A077B0708F4B5CF24CD223029F5809117
:1054B0003713811109C08091511390915213909329
:1054C00037128093381270CF4091591350915A136C
:1054D0008091371290913812982789279827840F46
:1054E000951F909337128093381220933713840FAF
:1054F000951FB0E0A0E0CACF213009F0FACC80912E
:105500003713811108C0809151138093371281E0C5
:1055100080933713EECC2091591330915A13809118
:105520003712820F8093371291E090933713820FD6
:10553000932F911DDECF011111CD1F5FF6CC0E947C
:10554000D8066C197D098E099F0901E06431710547
:105550008105910508F0FACCF8CC81E08093221205
:1055600090E080E00E94F50B482F65E070E080E35A
:1055700092E00E94660B882361F10E94A30C082F21
:1055800010E00E94A30C081708F4D4C2112361F0A4
:1055900001E010E02CE432E046EF6FE080E00E9492
:1055A0007D1F0E94D50B01C10E94D806C0903A13FE
:1055B000D0903B13E0903C13F0903D136C197D09A3
:1055C0008E099F0911E06436710581059105C8F6C1
:1055D000D7CF0E94A30C813198F40E94D806009185
:1055E0003A1310913B1320913C1330913D13601BF3
:1055F000710B820B930B643671058105910548F39D
:1056000081E080932312712CD0C08230E0F310919E
:1056100037131F5FE12EF12C8091371390E0019634
:1056200020915013820F911DE816F9063CF50E9457
:10563000D8061B012C01F701E65EFD4E858D0E9408
:10564000DC0B00E0809137136701C81AD1080E9473
:10565000A30C8C151D047CF4011180CC0E94D8068B
:10566000621973098409950901E0643171058105A6
:10567000910540F7E6CF002361F270CC81E0809382
:10568000221290E080E00E94F50B482F65E070E068
:1056900080E392E00E94660B882301F10E94A30C34
:1056A000082F10E00E94A30C081708F443C2111140
:1056B0006FCF0E94D806C0903A13D0903B13E09071
:1056C0003C13F0903D136C197D098E099F0911E080
:1056D000643671058105910528F7E3CF0E94D8064D
:1056E00000913A1310913B1320913C1330913D13DC
:1056F000601B710B820B930B64367105810591055C
:1057000068F37ECF2F30310509F062C1813009F096
:1057100012C100913712402F60E170E085E392E002
:105720000E94660BF82E882309F466C08091371317
:10573000823070F0809138128F3F51F4E8E3F2E14B
:1057400080E081938F5F803FE1F781EF8093371393
:1057500080913713181708F053CF0E94D8062B01F9
:105760003C01812F90E09C01265E3D4E6901F901CC
:10577000858D0E94DC0B00E00E94A30C181758F1E5
:10578000002369F1809137128983F601858D8A8320
:1057900002E010E09E012F5F3F4F4AEF6FE080E094
:1057A0000E947D1F0E94D50B7F2C10923E1380918A
:1057B000711390917213A0917313B09174130196A9
:1057C000A11DB11D8093711390937213A093731355
:1057D000B093741364C90111D5CF1F5FB9CF0E9474
:1057E000D806641975098609970901E065307105C5
:1057F0008105910508F6BFCF053409F052C08091AC
:105800003713181718F50E94D8061B012C01E12F39
:10581000F0E0E65EFD4E858D0E94DC0B00E00E940C
:10582000A30C181778F0011199CB0E94D8066219C1
:1058300073098409950901E06530710581059105B9
:1058400070F7ECCF01118ACB1F5FD9CF00913B12CB
:1058500010913C121027012710270E94D8061B0127
:105860002C010B5F1F4F0E94A30C8017110609F03B
:1058700088F4F11073CB0E94D80662197309840969
:105880009509FF24F394643F71408105910558F711
:10589000F12CE9CFFF2009F4B3CE60CB011118C081
:1058A0001F5F80913713181708F043C00E94D80675
:1058B0006B017C01E12FF0E0E65EFD4E858D0E94DC
:1058C000DC0B00E00E94A30C181740F3002321F129
:1058D0008FEF898301E010E09E012F5F3F4F4AEF79
:1058E0006FE080E00E947D1F0E94D50B0E94D806C9
:1058F00000913A1310913B1320913C1330913D13CA
:10590000601B710B820B930B64317105810591054E
:1059100068F371104ACF74CE0E94D8066C197D09C5
:105920008E099F0901E0643671058105910550F6E5
:10593000C8CF712CDBCF823008F465CED0903713FE
:10594000EE24E394ED0CD094FD2CFE0C0E2D10E013
:105950008091371390E0019620915013820F911D92
:10596000081719070CF04CCE0E94D8061B012C0119
:10597000F801E65EFD4E858D0E94DC0B10E00E9472
:10598000A30CF816A0F01123B1F0E0913713F0E06A
:10599000E55EFD4E858D8983EF0DF11D858D8A8332
:1059A00002E010E09E012F5F3F4F4AEFF6CD11114C
:1059B000ECCFE394C9CF0E94D80662197309840919
:1059C000950911E06530710581059105C0F6D6CFC6
:1059D000813009F046C080913713181718F50E94DE
:1059E000D8066B017C01E12FF0E0E65EFD4E858D6F
:1059F0000E94DC0B00E00E94A30C181778F0011144
:105A0000ADCA0E94D8066C197D098E099F0901E074
:105A1000643171058105910570F7ECCF01119ECAC3
:105A20001F5FD9CF81E0809322120E94A30C082F20
:105A30000E94D8066B017C0110E00E94A30C08179D
:105A400008F478C01111A4CD0E94D8066C197D0904
:105A50008E099F0911E0623371058105910568F790
:105A6000EBCF823008F4CFCDD0903713EE24E394FF
:105A7000ED0CD094FD2CFE0C0E2D10E08091371310
:105A800090E0019620915013820F911D081719077D
:105A90009CF50E94D8061B012C01F801E65EFD4E24
:105AA000858D0E94DC0B10E00E94A30CF81698F084
:105AB0001123A9F0E0913713F0E0E55EFD4E858DEE
:105AC0008983EF0DF11D858D8A8302E010E09E0130
:105AD0002F5F3F4F47CA1111EDCFE394CBCF0E9408
