:100000004DC100000C944C160C9421160C94F6155E
:100010000C94CB150C94A0150C9475150C944A15E2
:100020000C941F156CC100006AC1000068C100007B
:1000300066C1000064C1000062C1000060C1000030
:100040005EC100005CC100005AC1000058C1000040
:1000500056C1000054C1000052C100000C94B017FA
:100060004EC100000C9445130C940A1348C10000C3
:1000700046C1000044C1000042C1000040C1000070
:100080003EC100003CC100003AC1000038C1000080
:100090000C94D1120C94A11232C100000C9477166A
:1000A0002EC100002CC100002AC1000028C10000A0
:1000B00026C1000024C1000022C1000020C10000B0
:1000C0001EC100001CC100001AC100000C94641283
:1000D0000C94351214C100000C94F8110C94C91141
:1000E0000EC100001B1DB21B251D281DC11DB72000
:1000F000B720B720B720B720B720B720B720B72048
:10010000F81D411F7C0B7F0B6E0B720B760BB60B31
:10011000830B870B8D0B910B950B9B0B9F0BA30BED
:10012000B60BA90BAD0BB10B2D2D2D2D2D2D2D2D7E
:100130002D2D2D2D2D2D2D2D2D2D2D2D00205343ED
:10014000414E4E45522056312E3430203230313817
:100150002000202043485259534C455220434344E9
:100160002F5343492020002D2D2D2D2D2D2D2D2DAC
:100170002D2D2D2D2D2D2D2D2D2D2D00434852595A
:10018000534C45524343445343495343414E4E45D8
:100190005200002100240027002A002D00300033E7
:1001A0000001010000040107010A010000220025EE
:1001B0000028002B002E0031003400020100000551
:1001C0000108010B010505050507050808080802D7
:1001D0000202020A0A0808040404040101010101E0
:1001E0000101010303030303030303040707070CCF
:1001F0000C0C0C0C0C0C0C02020202060606060685
:100200000606060B0B0B0B0B0B0B0B010210202031
:10021000080810204010204080020102010804025A
:1002200001010204081020408080402010080402D0
:100230000180040201804020100804020108040229
:10024000010102040810204080010204081020402F
:100250008000000A0B02090C0D0E080703040100C0
:10026000000000000000000000000000000000008E
:10027000000000000000000000000000001211104B
:10028000000000000000000000000000000000006E
:100290000000000000000000EE22E92211241FBE31
:1002A000CFEFD1E2DEBFCDBF00E00CBF12E0A0E097
:1002B000B2E0E0EBF2E500E00BBF02C007900D9268
:1002C000A03EB107D9F729E1A0EEB2E001C01D922E
:1002D000A43DB207E1F711E0CDE4D1E000E006C0B3
:1002E00021970109802FFE010E943328CC34D107C9
:1002F00080E00807A9F70E94FA170C94472980CEDE
:1003000008950895089580E090E008950F931F9355
:10031000CF93DF93EC01423018F08C8188608C839E
:100320004F836887222329F0413019F48C8184603F
:100330008C8364E670E080E090E00E945C0C6C814D
:1003400064FD31C0E881F9810684F785E02D42E043
:1003500063E0CE0119958BE496E40197F1F7E8810B
:10036000F9810684F785E02D42E063E0CE0119951E
:1003700003E512E0C8010197F1F7E881F9810684ED
:10038000F785E02D42E063E0CE011995C8010197A1
:10039000F1F7E881F9810684F785E02D42E062E01B
:1003A000CE01199517C06062CE010E94A8178BE498
:1003B00096E40197F1F76C816062CE010E94A81764
:1003C00003E512E0C8010197F1F76C816062CE018C
:1003D0000E94A817C8010197F1F76C816062CE01F5
:1003E0000E94A8178BEE90E00197F1F784E08D83CF
:1003F0006CE0CE010E94A81761E0CE010E94A81710
:100400008BE39FE10197F1F782E08E8366E0CE01F6
:100410000E94A817E881F9810484F585E02D6FEF2B
:10042000CE01DF91CF911F910F9119944F925F925E
:100430006F927F928F929F92AF92BF92CF92DF92F4
:10044000EF92FF920F931F93CF93DF93CDB7DEB759
:1004500027970FB6F894DEBF0FBECDBFCDB6DEB680
:1004600080916202882309F469C10E94C30F882326
:10047000C1F190E0E091800EF89430915F0C2091F2
:100480005E0C321304C0789420E032E014C07894FB
:1004900020915E0C30E02F5F3F4FD901BB272093A6
:1004A0005E0CA25AB44F4C9120915D0B30E0322F7C
:1004B0002227240F311DF0E0E058F24F20832091D5
:1004C000800E2F5F2093800E9F5F8913D3CF0E94F1
:1004D000940C60937C0D70937D0D80937E0D9093B2
:1004E0007F0D8091720C81113CC000917B0D011138
:1004F0001EC080917A0D81111AC00E94940C009147
:100500007C0D10917D0D20917E0D30917F0DDC01D1
:10051000CB01801B910BA20BB30BC397A105B105B7
:1005200008F4B2C09090800E911011C2ADC00E942C
:10053000940C80907C0D90907D0DA0907E0DB090DD
:100540007F0DDC01CB0188199909AA09BB090B971A
:10055000A105B10508F498C01091800E111136C2A2
:1005600093C05090800E552009F48EC0ADB6BEB633
:10057000852C912CF4E08F0E911C2DB73EB72819D5
:1005800039090FB6F8943EBF0FBE2DBF8DB79EB789
:1005900001967C010E94A00C8091FA0ED7018C93E9
:1005A0008091FB0E11968C9311978091FC0E129600
:1005B0008C9312978091FD0E13968C93A7E1B8E06F
:1005C0003701E4E06E0E711CF30180E09D91919380
:1005D0008F5F5812FBCF8401970142E067E082E011
:1005E000ACD58091FA0ED7018C938091FB0E1196B9
:1005F0008C9311978091FC0E12968C931297809198
:10060000FD0E13968C93E0E8FDE080E09191D3011C
:100610009D933D018F5F5812F9CF8401970143E00C
:1006200067E082E08AD58091800D8E3F41F4809111
:1006300046028F7E806C809346020E941E1080913D
:100640001A09882339F080911909811103C081E0CA
:10065000809318091092800E80916E0C90916F0C0F
:10066000A091700CB091710C0196A11DB11D8093E9
:100670006E0C90936F0CA093700CB093710C0FB62E
:10068000F894BEBE0FBEADBE80911A09882369F0F2
:100690000E94C30F882309F459C207C0809316082B
:1006A00081E0809317091092180980911709882317
:1006B00009F444C00E94C30F882309F462C23EC0FB
:1006C000011118C01F5F809116081817D8F40E94F6
:1006D000940C4B015C01E12FF0E0E95EF74F808163
:1006E0000E94CB0F00E00E94C30F181748F30023AD
:1006F00009F4A4C201E010E027E432E04EEF6FE01D
:1007000080E01BD580911608823008F055C2109207
:1007100016081092170980916A0C90916B0CA091A9
:100720006C0CB0916D0C0196A11DB11D80936A0CEB
:1007300090936B0CA0936C0CB0936D0C8091690C32
:10074000882309F449C40E94780F8823C1F190E0FE
:10075000E091770DF89430915C0B20915B0B321394
:1007600004C0789420E032E014C0789420915B0BB0
:1007700030E02F5F3F4FD901BB2720935B0BA55A79
:10078000B54F4C9120915A0A30E0322F2227240F86
:10079000311DF0E0E958F34F20832091770D2F5F52
:1007A0002093770D9F5F8913D3CF0E94940C6093A1
:1007B000730C7093740C8093750C9093760C8091ED
:1007C000680C81111AC00E94940C0091730C109156
:1007D000740C2091750C3091760CDC01CB01801BE0
:1007E000910BA20BB30BC397A105B10508F493C0FD
:1007F0009090770D9110CFC28EC05090770D5520FC
:1008000009F489C0ADB6BEB6852C912C24E0820EC9
:10081000911C8DB79EB7881999090FB6F8949EBFA1
:100820000FBE8DBFADB7BEB711967D010E94A00C63
:100830008091FA0EF70180838091FB0E8183809175
:10084000FC0E82838091FD0E8383A1E1B6E0370127
:10085000F4E06F0E711CF30180E09D9191938F5F26
:100860005812FBCF8401970142E067E083E065D432
:100870008091FA0ED7018C938091FB0E11968C9388
:1008800011978091FC0E12968C9312978091FD0E19
:1008900013968C93E7E7FCE080E09191D3019D9360
:1008A0003D018F5F5812F9CF8401970143E067E063
:1008B00083E043D48091770C8E3F41F480914602CF
:1008C0008E7F8C60809346020E941E1080911407D8
:1008D000882339F080911307811103C081E0809350
:1008E00012071092770D8091640C9091650CA09185
:1008F000660CB091670C0196A11DB11D8093640C2C
:100900009093650CA093660CB093670C0FB6F894A7
:10091000BEBE0FBEADBE80911407882369F00E9451
:10092000780F882309F476C207C08093100681E00F
:10093000809311071092120780911107882309F400
:100940004BC30E94780F882309F47FC245C3ADB61C
:10095000BEB6092D10E00C5F1F4FEDB7FEB7E01BD0
:10096000F10B0FB6F894FEBF0FBEEDBF2DB73EB72B
:100970002F5F3F4F7901E4D78091FA0ED7018C9316
:100980008091FB0E11968C9311978091FC0E12961C
:100990008C9312978091FD0E13968C93A0E8BDE086
:1009A000F701349680E09D9191938F5F9812FBCF71
:1009B000970141E067E082E0C0D38091800D8231F1
:1009C00009F03DCE80914602806D35CEF090800DCD
:1009D000B3E1FB1238C08091810D811176C0809106
:1009E000820D811172C08DB69EB6A12EB12C24E06D
:1009F000A20EB11C8DB79EB78A199B090FB6F89449
:100A00009EBF0FBE8DBFADB7BEB711967D0198D703
:100A100010927B0D1092790D8091FA0EF701808370
:100A20008091FB0E81838091FC0E82838091FD0E6C
:100A30008383A0E8BDE0349680E09D9191938F5F21
:100A40001813FBCF36C0FAE2FF123FC08091810D30
:100A500081113BC08DB69EB6A12EB12C24E0A20E12
:100A6000B11C8DB79EB78A199B090FB6F8949EBF2B
:100A70000FBE8DBFADB7BEB711967D0161D7109285
:100A80007A0D1092780D8091FA0EF7018083809193
:100A9000FB0E81838091FC0E82838091FD0E838307
:100AA000A0E8BDE0349680E09D9191938F5F18138C
:100AB000FBCF8501970141E067E082E03ED30FB6AE
:100AC000F8949EBE0FBE8DBE2BC03AD78091FA0E11
:100AD00089838091FB0E8A838091FC0E8B838091A9
:100AE000FD0E8C8380917A0D002339F0811105C0B1
:100AF00083E18D838091790D08C0882339F001113D
:100B000005C08AE28D838091780D8E83FF8207E095
:100B100010E09E012F5F3F4F41E067E082E00DD380
:100B20001092800E80916E0C90916F0CA091700CC1
:100B3000B091710C0196A11DB11D80936E0C909324
:100B40006F0CA093700CB093710C9ECD809118091E
:100B5000882309F4AACD809119098111A6CD80912D
:100B60001B09282F30E0A7E1B8E0E6E1F7E0AF018C
:100B7000465157404217530708F090CD91919D93ED
:100B8000F6CF8091720C8823A9F080911708E2E5D6
:100B9000F2E09191891709F499C0B2E0E236FB07BF
:100BA000C1F701E010E027E432E049EF6FE080E0B8
:100BB000C4D2ADCD10E087CD80E090E00E94E60F7A
:100BC000439729F581E090E00E94E60F892B09F018
:100BD00043C01DC0A9D6DC01CB0188199909AA0917
:100BE000BB0911E085369105A105B105C0F10E9450
:100BF000C30F909116089817A0F1112359F301E043
:100C000010E027E432E04EEF6FE080E096D2809172
:100C10001608823008F47BCD80E090E00E94E60F59
:100C20008A9709F074CD81E090E00E94E60F892B4D
:100C300009F46DCD79D64B015C0134C075D6DC0169
:100C4000CB0188199909AA09BB0901E04597A105BB
:100C5000B10508F048CD46CD67D64B015C0110E0E8
:100C6000C6CF1111CCCF81E080937B0D8091180805
:100C70008093790D0E94BC0FCACF0E94C30F909140
:100C800016089817B8F011110FC04ED6DC01CB0131
:100C900088199909AA09BB0911E085369105A105B2
:100CA000B10558F710E0E9CF01E010E027E432E0A9
:100CB0004EEF7CCF1111F8CF81E080937A0D8091B7
:100CC00018088093780D0E94BC0F21CD80911608E2
:100CD000823070F0809118088F3F51F4E8E1F8E01D
:100CE00080E081938F5F803FE1F781EF809316086A
:100CF00010E0B12C80911608181708F008CD812F4C
:100D000090E0FC01E95EF74F7F010ED62B013C011C
:100D1000D7018C910E94CB0F00E00E94C30F1817DF
:100D2000E0F0002369F0809117088983F701808142
:100D30008A8302E010E09E012F5F3F4F4AEF36CFDB
:100D4000F3D5DC01CB0184199509A609B70901E0A7
:100D50000697A105B10508F7DFCF0111E4CF80E0C8
:100D600090E00E94E60F2091170830E08217930769
:100D700081F00E94BC0FB394FAE0BF12C6CF8091FD
:100D80001708898301E010E09E012F5F3F4F48EF75
:100D90000DCF1F5FAFCFADB6BEB6092D10E00C5F13
:100DA0001F4FEDB7FEB7E01BF10B0FB6F894FEBF77
:100DB0000FBEEDBF2DB73EB72F5F3F4F7901C0D5B6
:100DC0008091FA0ED7018C938091FB0E11968C9333
:100DD00011978091FC0E12968C9312978091FD0EC4
:100DE00013968C93A7E7BCE0F701349680E09D91C1
:100DF00091938F5F9812FBCF970141E067E083E00A
:100E00009CD18091770C823109F060CD80914602AF
:100E10008D6058CD80911207882309F48DCD809183
:100E20001307811189CD80911507282F30E0A1E1AA
:100E3000B6E0E0E1F5E0AF014051554042175307FD
:100E400008F073CD91919D93F6CF8091680C882323
:100E500009F484C020911106E2E5F2E082E692E016
:100E60003191231303C0F12CE12C29C08E179F0769
:100E7000B9F701E010E027E432E049EF54C054D55F
:100E80002B013C01F80180810E94800FB12C0E944F
:100E9000780FF816E8F4B1101EC0F89490915C0B2E
:100EA00080915B0B981369C0789480E092E0209168
:100EB000110630E02817390709F06FC0F3948091CC
:100EC0001006F81698F50F2D10E00F5E194FD7CFCA
:100ED000BB2009F472C0809111068983D8018C91DE
:100EE0008A8302E010E09E012F5F3F4F4AEF1BC054
:100EF000011114C01F5F809110061817B8F414D5A3
:100F00004B015C01E12FF0E0EF5EF94F8081F8D7F3
:100F100000E0EED7181760F3002311F101E010E0B4
:100F200027E432E04EEF6FE080E007D11092100628
:100F3000109211078091600C9091610CA091620C4D
:100F4000B091630C0196A11DB11D8093600C90932C
:100F5000610CA093620CB093630C3EC010E0CBCF49
:100F6000E3D4DC01CB0188199909AA09BB0901E086
:100F70004597A105B10568F6CBCF7894E0915B0B5E
:100F8000EF5FF0E0E55AF54F208180915A0A90E03A
:100F9000982F8827820F911D8ACFA3D7E394B9E0B9
:100FA000BE1508F06CCF80911106898301E010E036
:100FB0009E012F5F3F4F48EFB6CFB6D4DC01CB0187
:100FC00084199509A609B709BB24B3940697A1050E
:100FD000B10508F05CCF5ACF0FB6F894DEBE0FBE55
:100FE000CDBE27960FB6F894DEBF0FBECDBFDF9102
:100FF000CF911F910F91FF90EF90DF90CF90BF9016
:10100000AF909F908F907F906F905F904F900895DA
:10101000A0E8B0E01C92E1E8F0E0108210928500B8
:1010200010928400259A8C9180648C9387E090E0E4
:1010300090938900809388008081896080830895DF
:101040003FB7F8948091850E9091860EA091870EFF
:10105000B091880E26B5A89B05C02F3F19F00196C8
:10106000A11DB11D3FBFBA2FA92F982F8827820F2E
:10107000911DA11DB11DBC01CD0142E0660F771F7E
:10108000881F991F4A95D1F70895CF93DF93EC01FC
:10109000198218821B821A821D821C8260E070E015
:1010A0000E94F8142881398181110FC02115310562
:1010B00019F0C9010E949D24198218821D821C8288
:1010C0001B821A82DF91CF9108951D821C8263ECEE
:1010D00072E0C901DF91CF910C943129F8942091ED
:1010E0000113309102138091FF1290910013281781
:1010F000390721F4789480E092E008957894E091A3
:10110000FF12F09100133196F370E150F14F2081FE
:101110008091FE0E90E0982F8827820F911D0895F0
:10112000CF93DF93C6E8D2E08991882319F00E941B
:101130008411FACFDF91CF910895AF92BF92CF92F1
:10114000DF92EF92FF920F931F93CF93DF93CDB770
:10115000DEB7ADB6BEB6680196E0C90ED11CADB71C
:10116000BEB7AC19BD090FB6F894BEBF0FBEADBF78
:10117000EDB7FEB731967F019DE311969C93F80180
:101180003296D7011196FC9311979CEF9C0D129605
:101190009C93B0E48B9F600D1124F701638344831B
:1011A0000115110561F0F901ADB7BEB71696200F14
:1011B000311FE217F30719F081918D93FACF0B5F7E
:1011C0001F4FF701319680E09F012E193F0920172C
:1011D000310718F49191890FF7CFF701E00FF11F54
:1011E000808384E24AD68701C8018E199F098C1535
:1011F0009D0530F4D8018D918D010E948411F4CFAA
:101200000FB6F894BEBE0FBEADBEDF91CF911F9159
:101210000F91FF90EF90DF90CF90BF90AF90089527
:101220003091F90E313208F04BC08091D50E81110A
:10123000FCCF9091F80E22E02093D50E21E0209370
:10124000D40E2FEF2093D30E1092D20E3093D10EE6
:10125000E8EDFEE0A1EBBEE020E0321721F0419185
:101260004D932F5FFACF1092B00E2091B00E990FD0
:10127000922B9093B00E9091AF0E913061F410923A
:10128000AF0E9091B00E9093BB009091BC0093FD77
:10129000F8CF95EC01C095EE9093BC009091D50EDF
:1012A0009230E1F39091D30E9F3F79F08091D30E6D
:1012B000803241F08091D30E803331F084E005C05C
:1012C00081E003C082E001C083E01092D70E10924B
:1012D000F90E1092D60E08953F924F925F926F9240
:1012E0007F928F929F92AF92BF92CF92DF92EF92B6
:1012F000FF920F931F93CF93DF934B015C016A0121
:101300008901AB01BC01420F531F611D711D80910A
:10131000311390913213A0913313B0913413841789
:101320009507A607B70708F4AAC077247394662424
:101330006A9495EE592E25EC422E0115110509F4FB
:10134000A0C0C0912C13D0912D13CE0101978821FC
:101350009921C81BD90BC8010132110510F080E298
:1013600090E08C179D0708F4EC01D501C4010090B2
:101370002E1304C0B695A795979587950A94D2F732
:10138000F0902813F82A7092D60EF092F80E109270
:10139000D70E1092F90E80912F139091301302976F
:1013A00041F499278B2D7A2D692D83E093E10E94DA
:1013B0003814682D83E093E10E94381431DF8111E5
:1013C00061C08091D50E8111FCCF9C2F7092D50EFB
:1013D0007092D40E6092D30E1092D20E8C2F815048
:1013E0008093D10E7092B00E8091B00EFF0CF82A4F
:1013F000F092B00E8091AF0E813069F41092AF0E72
:101400008091B00E8093BB008091BC0083FDF8CF2B
:101410004092BC0002C05092BC008091D50E813039
:10142000E1F38091D20E891710F49091D20EA1EBC6
:10143000BEE0EFE8FEE080E0891721F02D912193D6
:101440008F5FFACF10928E0E80938D0E312CE32C8D
:10145000F12CEC16FD0650F4EC0CFD1C83E093E13E
:101460000E94F013F70180833394F1CF8C0E9D1E00
:10147000A11CB11CCC0EDD1E0C1B1D0B5ECF89E028
:1014800001C080E0DF91CF911F910F91FF90EF900D
:10149000DF90CF90BF90AF909F908F907F906F9094
:1014A0005F904F903F900895CF93DF931F92CDB7F9
:1014B000DEB721E030E0AE014F5F5F4F0DDF90E01F
:1014C000009719F4898190E003C091958195910965
:1014D0000F90DF91CF910895682F83E093E10C94F2
:1014E0003814EF92FF920F931F93CF93DF938B01EA
:1014F000877098E0899FB001112460648FE093E1C8
:101500000E94A81783E790E00197F1F7E801085FD0
:101510001F4F8BE9E82EF12C69918FE093E10E9437
:101520007A14C7010197F1F7C017D107A9F7DF9126
:10153000CF911F910F91FF90EF9008950F931F93FC
:10154000CF93DF938C01C0E0D0E0F801EC0FFD1FDA
:101550006491662341F08FE093E10E947A14892B15
:1015600011F02196F2CFCE01DF91CF911F910F9113
:101570000895CF93DF93CDB7DEB728970FB6F894D1
:10158000DEBF0FBECDBF40917E0250917F026091C1
:101590008002709181024D835E836F8378874091D2
:1015A0008202509183026091840270918502498386
:1015B0005A836B837C8320911613821710F08FEF70
:1015C000820F3091171390E0FE01E80FF91F3031C0
:1015D00021F4243011F4618101C0658160688FE0DD
:1015E00093E128960FB6F894DEBF0FBECDBFDF9112
:1015F000CF910C94A817FC0183818823B9F0962F12
:101600006181609569236083828191E09093D60E19
:101610008093F80E1092D70E1092F90E83E093E1AA
:101620000E943814FDDD282F30E002C020E030E0B9
:1016300081E090E0232B11F080E090E00895EF929C
:10164000FF920F931F93CF938C01FC0184E0C0E0C5
:1016500060FF02C09589C92B669581503196811132
:10166000F7CF413011F4F8014489F8018585C82B82
:10167000C42B7801FEE0EF0EF11CF80162896C2B9F
:10168000C701B9DFF801628960956C23C701CF916A
:101690001F910F91FF90EF90AECF362F90E0FC019D
:1016A000EF5AFD4F4491FC01E55FFD4F2491FC0191
:1016B000EB53FE4F9491992309F46CC0442309F431
:1016C00055C050E0FA013197E231F10508F04EC003
:1016D0008827EE57FF4F8F4F0C943328809180005E
:1016E0008F7707C0809180008F7D03C0809180003C
:1016F000877F809380003AC084B58F7702C084B51D
:101700008F7D84BD33C08091B0008F7703C08091FE
:10171000B0008F7D8093B00029C0809190008F77BA
:1017200007C0809190008F7D03C080919000877FDB
:10173000809390001BC08091A0008F7707C080919C
:10174000A0008F7D03C08091A000877F8093A000C0
:101750000DC0809120018F7707C0809120018F7D7F
:1017600003C080912001877F80932001E92FF0E062
:10177000EE0FFF1FE555FE4FA591B4919FB7F8946A
:10178000311104C08C912095282302C0EC912E2B9E
:101790002C939FBF089510928E0E10928D0E109272
:1017A000D70E1092F90E1092D50E81E08093D40ED0
:1017B0001092AF0E61E084E170DF61E085E16DDFE2
:1017C000E9EBF0E080818E7F808380818D7F808354
:1017D00088E48093B80085E48093BC008EED93E1AB
:1017E00090938C0E80938B0E8FED93E190938A0EE5
:1017F0008093890E0895CF93DF9390E0FC01E55F1D
:10180000FD4F2491FC01EB53FE4F8491882361F13D
:1018100090E0880F991FFC01EF56FE4FC591D491BF
:10182000FC01E555FE4FA591B491611109C09FB728
:10183000F8948881209582238883EC912E230BC015
:10184000623061F49FB7F8948881322F30958323FA
:101850008883EC912E2B2C939FBF06C08FB7F894F2
:10186000E8812E2B28838FBFDF91CF910895863397
:1018700008F0865390917B00282F2870977F922B39
:1018800090937B002091630290E4299F90011124A2
:101890008770822B80937C0080917A008064809393
:1018A0007A0080917A0086FDFCCF809178002091AB
:1018B000790090E0922B08958F929F92AF92BF9201
:1018C000CF92DF92EF92FF926B017C01B9DB4B016B
:1018D0005C01C114D104E104F104E9F0B1DBDC01E5
:1018E000CB0188199909AA09BB09883E9340A10533
:1018F000B10578F321E0C21AD108E108F10888EEB9
:10190000880E83E0981EA11CB11CC114D104E1040F
:10191000F10421F7DECFFF90EF90DF90CF90BF90E2
:10192000AF909F908F9008952FB7F8946091810E9B
:101930007091820E8091830E9091840E2FBF089536
:10194000F3DFEAEFFEE0908381837283638308957F
:1019500081E08093411910924A0208950F931F93DA
:1019600005E110E029EF32E040E061E080E0E5DBF6
:101970001F910F91089501E010E02DE139E040E062
:1019800060E080E0DADB60E085E287DEFFCF4F9247
:101990005F926F927F928F929F92AF92BF92CF92FF
:1019A000DF92EF92FF920F931F93CF93DF931092EA
:1019B0004219109243191092441910924519C8EE19
:1019C000D3E086E354DF092E000CAA0BBB0B409139
:1019D00042195091431960914419709145198C0135
:1019E0009D01040F151F261F371FC901B801009361
:1019F00042191093431920934419309345192197A4
:101A000001F728EE33E040E050E00E940927490149
:101A10005A0120934219309343194093441950932B
:101A20004519609110027091110280E090E00E94CF
:101A3000EC256B017C01609114027091150280E02D
:101A400090E00E94EC2520E030E048EC52E40E9457
:101A50009F272B013C01C501B4010E94EC259B018D
:101A6000AC01C301B2010E94292620E030EC4FE70F
:101A700054E40E949F274B015C0160911202709117
:101A8000130280E090E00E94EC25A70196010E94DD
:101A90003B279B01AC01C501B4010E942926A70187
:101AA00096010E949F2720E030E048EC52E40E941B
:101AB00029260E940728683512E0710738F4109231
:101AC0001E0910921F091092461907C070931E0933
:101AD00060931F0981E080934619DF91CF911F9198
:101AE0000F91FF90EF90DF90CF90BF90AF909F90BD
:101AF0008F907F906F905F904F9008950F931F93FA
:101B0000CF93DF931F921F92CDB7DEB78091F6027D
:101B1000809347198091F702809348198091F802C9
:101B2000809349198091F00280934A198091F102C3
:101B300080934B198091E80280934C198091E902BF
:101B400080934D198091EA0280934E198091EB02A7
:101B500080934F198091EC02809350198091ED028F
:101B6000809351198091EE02809352198091EF0277
:101B7000809353198091E002809354198091E1027F
:101B8000809355198091E202809356198091E30267
:101B9000809357198091E402809358198091E5024F
:101BA000809359198091E60280935A198091E70237
:101BB00080935B1910925C1910925D1910925E1956
:101BC00010925F198EE58093601989E28093611904
:101BD00082EA809362198BE78093631980911C09D4
:101BE000882321F081E08093641902C01092641967
:101BF00080910F038093651980910E03809366197D
:101C00009FDE8091FA0E809367198091FB0E80937E
:101C100068198091FC0E809369198091FD0E809364
:101C20006A192091D0193091D119CE010196211550
:101C3000310519F4845D994102C0821B930B9A838C
:101C4000898389819A8190936B1980936C199FDEA7
:101C500080914619882321F081E080936D1902C09C
:101C600010926D1980911E0980936E1980911F0941
:101C700080936F1980914B02882321F081E080933B
:101C8000701902C0109270198091690990916A09C7
:101C9000A0916B09B0916C09B09371198091690999
:101CA00090916A09A0916B09B0916C09A093721987
:101CB0008091690990916A09A0916B09B0916C09B2
:101CC000909373198091690990916A09A0916B09A9
:101CD000B0916C098093741980916509909166099F
:101CE000A0916709B0916809B09375198091650951
:101CF00090916609A0916709B0916809A09376193F
:101D00008091650990916609A0916709B091680971
:101D1000909377198091650990916609A091670960
:101D2000B09168098093781980914602809379195F
:101D300080916E0C90916F0C2091700C3091710C11
:101D400030937A1920937B1990937C1980937D1995
:101D500080916A0C90916B0C20916C0C30916D0C01
:101D600030937E1920937F19909380198093811965
:101D70008091640C9091650C2091660C3091670CF9
:101D80003093821920938319909384198093851935
:101D90008091600C9091610C2091620C3091630CE9
:101DA0003093861920938719909388198093891905
:101DB00003E410E027E439E140E062E080E0BDD9CF
:101DC0000F900F90DF91CF911F910F9108950F9376
:101DD0001F93CF93DF93CDB7DEB76A970FB6F89412
:101DE000DEBF0FBECDBFE0EFF2E08081898381814D
:101DF0008A83E8EEF2E080818B8381818C8382810B
:101E00008D8383818E8384818F838581888786817A
:101E1000898787818A87E0EEF2E080818B878181E4
:101E20008C8782818D8783818E8784818F8785814E
:101E3000888B8681898B87818A8B1B8A1C8A1D8A65
:101E40001E8A8EE58F8B89E2888F82EA898F8BE7E5
:101E50008A8F0AE110E09E012F5F3F4F41E065E06D
:101E600080E06BD96A960FB6F894DEBF0FBECDBF87
:101E7000DF91CF911F910F910895CF93C82F60E00C
:101E80000CDCC43271F0C532B1F0C332E9F44CDD80
:101E900060937709709378098093790990937A0910
:101EA00013C042DD609373097093740980937509C0
:101EB0009093760909C038DD60936F0970937009BB
:101EC0008093710990937209CF91089584E2D5DFD0
:101ED00027C90895F8948091401980933F19789408
:101EE0000895F89480915B0B80935C0B789408952F
:101EF000F89480915C0B90915B0B7894891B08950A
:101F000020913F1930E02F5F3F4FA9015527F894EA
:101F100060914019789470E046175707C1F3FA01B1
:101F2000E15CF74E808320933F19809131018062FC
:101F3000809331010895F89410925C0B10925B0B22
:101F400010923F191092401978949F709093350128
:101F500080933401E1E3F1E0808188698083E2E3EA
:101F6000F1E08081866080830895F89480913E1826
:101F700080933D1878940895F89480915E0C809336
:101F80005F0C78940895F89480915F0C90915E0CAA
:101F90007894891B089520913D1830E02F5F3F4FC2
:101FA000A9015527F89460913E18789470E046177F
:101FB0005707C1F3FA01E35CF84E808320933D1884
:101FC0008091D10080628093D1000895F89430917F
:101FD0005F0C20915E0C321304C0789480E092E094
:101FE00008957894E0915E0CF0E03196E80FF91FC7
:101FF000FF27E25AF44F208180915D0B90E0982FEB
:102000008827820F911D0895F89410925F0C10920A
:102010005E0C10923D1810923E1878949F70909329
:10202000D5008093D400E1EDF0E080818869808361
:10203000E2EDF0E080818660808308950F931F9326
:10204000CF93C82F87FF78C080914602982F9F7743
:10205000C6FF61C0892F80648093460260E0C5FF9F
:1020600018C086E11ADB60E087E117DB60E088E1F9
:1020700014DB60E089E111DB61E08AE10EDB61E005
:102080008BE10BDB81E080936202809146028062EB
:1020900023C08AE102DB60E08BE1FFDA60E08CE1E3
:1020A000FCDA60E08DE1F9DA60E088E1F6DA60E020
:1020B00089E1F3DA61E086E1F0DA61E087E1EDDA07
:1020C00081E0809362021092690C8091460282FD49
:1020D00002C08F7D01C08B7D809346028091720C7F
:1020E000C4FF0CC0811128C08FE090E08DDF81E03B
:1020F0008093720C8091460280610AC08823E1F0CF
:102100008FE790E081DF1092720C809146028F7E03
:102110008093460211C08F73809346021092620230
:1021200060E086E1BADA60E087E1B7DA60E08AE190
:10213000B4DA60E08BE1B1DAC3FF78C08091460287
:10214000982F977FC2FF61C0892F846080934602D9
:1021500060E0C1FF18C086E1A0DA60E087E19DDAA7
:1021600060E088E19ADA60E089E197DA61E08CE189
:1021700094DA61E08DE191DA81E08093690C8091DD
:102180004602826023C08AE188DA60E08BE185DA6A
:1021900060E08CE182DA60E08DE17FDA60E086E188
:1021A0007CDA60E087E179DA61E088E176DA61E0A3
:1021B00089E173DA81E08093690C10926202809168
:1021C000460286FD02C08D7F01C08D7B8093460252
:1021D0008091680CC0FF0CC0811128C08FE090E096
:1021E000AADE81E08093680C8091460281600AC07B
:1021F0008823E1F08FE790E09EDE1092680C8091DA
:1022000046028E7F8093460211C0837F80934602F0
:102210001092690C60E088E140DA60E089E13DDA23
:1022200060E08CE13ADA60E08DE137DA80916202B9
:1022300081110BC09091690C911107C08091690CBC
:10224000811108C010924C0205C091E090934C029D
:102250008823A1F301E010E026E432E043E063E0EC
:1022600080E00E949D08CF911F910F910895F894EE
:10227000809140098093410978940895F894809161
:1022800063098093640978940895F89480916409AF
:10229000909163097894891B8F71089581E08093F0
:1022A0004A0210924119F1DF80936E0980916D0905
:1022B0008F5F80936D090895F894109264091092CD
:1022C0006309109241091092400978949F7090938D
:1022D000CD008093CC00E9ECF0E0808188698083B8
:1022E000EAECF0E08081866080830895F894809124
:1022F0000113909102132091FF12309100137894F2
:10230000821B930B937008952091F2023091F30297
:102310002F5F3F4F3370F8944091F4025091F502D3
:10232000789424173507B9F3F901E35CFC4E8083F8
:102330003093F3022093F2028091C1008062809377
:10234000C1000895F89420910113309102138091F7
:10235000FF12909100132817390721F4789480E038
:1023600092E0089578948091FF1290910013019665
:102370009370909300138093FF12FC01E150F14F92
:1023800020818091FE0E90E0982F8827820F911D6A
:1023900008951F920F920FB60F9211240BB60F9251
:1023A0008F939F93EF93FF9390913F1980914019E2
:1023B000981771F08091401990E00196FC01FF2779
:1023C00080934019E15CF74E80818093360105C00F
:1023D000809131018F7D80933101FF91EF919F9129
:1023E0008F910F900BBE0F900FBE0F901F901895FE
:1023F0001F920F920FB60F9211240BB60F922F93CC
:102400003F934F935F936F937F938F939F93EF933C
:10241000FF932091300130913601287180915C0B3F
:1024200090E00196AC01552760915B0B70E0461778
:10243000570739F080935C0BFA01E55AF54F30836A
:1024400001C024E020935A0AFF91EF919F918F9150
:102450007F916F915F914F913F912F910F900BBEA4
:102460000F900FBE0F901F9018951F920F920FB6EE
:102470000F9211240BB60F928F939F93EF93FF93BC
:1024800090913D1880913E18981771F080913E18F8
:1024900090E00196FC01FF2780933E18E35CF84E24
:1024A00080818093D60005C08091D1008F7D80937C
:1024B000D100FF91EF919F918F910F900BBE0F90E4
:1024C0000FBE0F901F9018951F920F920FB60F928C
:1024D00011240BB60F922F933F934F935F936F93FB
:1024E0007F938F939F93EF93FF932091D000309130
:1024F000D600287180915F0C90E00196AC015527C1
:1025000060915E0C70E04617570739F080935F0CBE
:10251000FA01E25AF44F308301C024E020935D0BAE
:10252000FF91EF919F918F917F916F915F914F916B
:102530003F912F910F900BBE0F900FBE0F901F90E9
:1025400018951F920F920FB60F9211240BB60F928F
:102550008F939F93EF93FF9390914109809140094E
:10256000981779F08091400990E001968F71992732
:1025700080934009FC01E05EF64F80818093CE009D
:1025800005C08091C9008F7D8093C900FF91EF91B4
:102590009F918F910F900BBE0F900FBE0F901F90C9
:1025A00018951F920F920FB60F9211240BB60F922F
:1025B0002F933F934F935F938F939F93EF93FF934B
:1025C0002091C8003091CE0028718091640990E07C
:1025D00001968F7199274091630950E08417950700
:1025E00039F080936409FC01ED5BF64F308301C044
:1025F00024E020934209FF91EF919F918F915F9189
:102600004F913F912F910F900BBE0F900FBE0F90E7
:102610001F9018951F920F920FB60F9211240BB6B0
:102620000F922F933F938F939F93EF93FF9320915C
:10263000F2023091F3028091F4029091F502281792
:10264000390789F08091F4029091F5020196937018
:102650009093F5028093F402FC01E35CFC4E8081D0
:102660008093C60005C08091C1008F7D8093C1001A
:10267000FF91EF919F918F913F912F910F900BBE02
:102680000F900FBE0F901F9018951F920F920FB6CC
:102690000F9211240BB60F922F933F934F935F939A
:1026A0008F939F93EF93FF932091C0003091C600CA
:1026B00028718091011390910213019693704091BB
:1026C000FF12509100138417950749F0909302135D
:1026D00080930113FC01E150F14F308301C024E0ED
:1026E0002093FE0EFF91EF919F918F915F914F91FB
:1026F0003F912F910F900BBE0F900FBE0F901F9028
:1027000018950895CF92DF92EF92FF920F931F9347
:10271000CF93DF936C017A018B01C0E0D0E0CE153E
:10272000DF0581F0D8016D918D01D601ED91FC910D
:102730000190F081E02DC6011995892B11F02196A9
:10274000EECF7E01C701DF91CF911F910F91FF90D6
:10275000EF90DF90CF90089585ED8093BC0080913D
:10276000BC0084FDFCCF1092D50E08954091AA19AB
:10277000262F30E0240F311D21323105DCF4209169
:10278000D50E2430C9F4FC0180E090E0861758F49F
:102790003091AA192191DC01A657B64EA30FB11DA5
:1027A0002C930196F3CF8091AA19680F6093AA1910
:1027B00080E0089581E0089582E0089508950895E5
:1027C0000895E0918E0E80918D0EE81730F4F0E0C0
:1027D000E157F14F808190E008958FEF9FEF0895CA
:1027E00090918E0E80918D0E981750F4E92FF0E0A5
:1027F000E157F14F208130E09F5F90938E0E02C031
:102800002FEF3FEFC901089580918D0E90E0209148
:102810008E0E821B91090895CF92DF92EF92FF9264
:102820000F931F93CF93DF937C01CB018A012091FB
:10283000D60E222389F0EB016B01C40ED51ECC15F8
:10284000DD0561F06991D701ED91FC910190F08176
:10285000E02DC7011995F3CF642F88DFC801DF9100
:10286000CF911F910F91FF90EF90DF90CF9008953F
:10287000CF93DF931F92CDB7DEB769832091D60E39
:102880002223D1F02091F90E203240F021E030E0F7
:10289000FC013383228380E090E014C08091D70E46
:1028A000E82FF0E0E852F14F998190838F5F809399
:1028B000D70E8093F90E04C061E0CE01019656DF79
:1028C00081E090E00F90DF91CF91089521E001C069
:1028D000220F6A95EAF7DC011C962C931C971A9636
:1028E0005C934E931997ED91FC910484F585E02D4E
:1028F00060E01994DC01ED91FC910684F785E02DF0
:1029000041E0199581E090E008950E941B290F9302
:102910001F93CF93DF93062F0F70423019F440E0DE
:10292000602F0EC0142FEC0170E084E07595679560
:102930008A95E1F7CE010E941F0B412F602FCE0137
:10294000DF91CF911F910F910C941F0BFC01848597
:102950008823A9F0218532852115310519F46111EB
:1029600006C007C02130310521F4611102C08587FE
:1029700001C015866585CF010E960C94FB0A08955B
:10298000FF920F931F93CF93DF93EC01162F042F29
:10299000F22E8B85888B0E94CB0B888991E09093D7
:1029A000D60E8093F80E1092D70E1092F90E0E9458
:1029B000100991E0811190E0998B811104C083E0AE
:1029C00093E10EDF8E878989882339F01F861C8268
:1029D00060E0CE010E960E94FB0A2F2D402F612F42
:1029E000CE01DF91CF911F910F91FF900C94860142
:1029F0000F931F93CF93DF93EC0188819981009708
:102A000029F02A813B812617370788F48B016F5FF5
:102A10007F4F0E943B28009761F0998388831B8336
:102A20000A832C813D81232B11F4FC01108281E06B
:102A300001C080E0DF91CF911F910F9108951F9207
:102A40000F920FB60F9211240BB60F922F933F9354
:102A50004F935F936F937F938F939F93AF93BF93A6
:102A6000EF93FF93E0910E02F0910F021995FF9101
:102A7000EF91BF91AF919F918F917F916F915F91F6
:102A80004F913F912F910F900BBE0F900FBE0F9063
:102A90001F9018951F920F920FB60F9211240BB62C
:102AA0000F922F933F934F935F936F937F938F93E7
:102AB0009F93AF93BF93EF93FF93E0910C02F0913C
:102AC0000D021995FF91EF91BF91AF919F918F9159
:102AD0007F916F915F914F913F912F910F900BBE1E
:102AE0000F900FBE0F901F9018951F920F920FB668
:102AF0000F9211240BB60F922F933F934F935F9336
:102B00006F937F938F939F93AF93BF93EF93FF93B5
:102B1000E0910202F09103021995FF91EF91BF91AC
:102B2000AF919F918F917F916F915F914F913F9165
:102B30002F910F900BBE0F900FBE0F901F90189506
:102B40001F920F920FB60F9211240BB60F922F9374
:102B50003F934F935F936F937F938F939F93AF9325
:102B6000BF93EF93FF93E0910002F091010219955A
:102B7000FF91EF91BF91AF919F918F917F916F9155
:102B80005F914F913F912F910F900BBE0F900FBE11
:102B90000F901F9018951F920F920FB60F9211244D
:102BA0000BB60F922F933F934F935F936F937F9347
:102BB0008F939F93AF93BF93EF93FF93E0910A029C
:102BC000F0910B021995FF91EF91BF91AF919F91F9
:102BD0008F917F916F915F914F913F912F910F90C6
:102BE0000BBE0F900FBE0F901F9018951F920F9263
:102BF0000FB60F9211240BB60F922F933F934F9362
:102C00005F936F937F938F939F93AF93BF93EF9354
:102C1000FF93E0910802F09109021995FF91EF915D
:102C2000BF91AF919F918F917F916F915F914F91E4
:102C30003F912F910F900BBE0F900FBE0F901F90E2
:102C400018951F920F920FB60F9211240BB60F9288
:102C50002F933F934F935F936F937F938F939F93A4
:102C6000AF93BF93EF93FF93E0910602F0910702B9
:102C70001995FF91EF91BF91AF919F918F917F91A6
:102C80006F915F914F913F912F910F900BBE0F90DD
:102C90000FBE0F901F9018951F920F920FB60F92B4
:102CA00011240BB60F922F933F934F935F936F9323
:102CB0007F938F939F93AF93BF93EF93FF93E09195
:102CC0000402F09105021995FF91EF91BF91AF9128
:102CD0009F918F917F916F915F914F913F912F9134
:102CE0000F900BBE0F900FBE0F901F9018951F9264
:102CF0000F920FB60F9211240BB60F922F933F93A2
:102D00004F935F936F937F938F939F93AF93BF93F3
:102D1000EF93FF938091B900887F803609F49CC0BF
:102D200068F5883209F45BC090F4803109F454C02E
:102D300038F4882309F4F6C0883009F44DC0F5C092
:102D4000883109F44CC0803209F45DC0EEC0803493
:102D500009F468C048F4803309F455C0883309F099
:102D6000E4C08093D30ED8C0803509F44FC08835B5
:102D700009F45DC0883409F0D8C0D6C0883909F498
:102D8000C7C0A8F4883709F467C038F4883609F456
:102D900063C0803709F460C0C8C0883809F4B8C07F
:102DA000803909F45FC0803809F0BFC05BC0803B48
:102DB00009F486C038F4803A09F466C0883A09F408
:102DC0007FC0B3C0803C09F4A7C0883C09F4A4C00C
:102DD000883B09F48AC0A9C08091B00E10C09091C0
:102DE000D20E8091D10E981770F5E091D20E81E04D
:102DF0008E0F8093D20EF0E0EF54F14F80818093DC
:102E0000BB0085EC86C08093D30E8EC0E091D20EBD
:102E100081E08E0F8093D20E8091BB00F0E0EF54E2
:102E2000F14F80839091D20E8091D10E6EC0E091CF
:102E3000D20E81E08E0F8093D20E8091BB00F0E025
:102E4000EF54F14F80838091D40E81116DC081E0E9
:102E50008093AF0E84EA61C083E08093D50E109218
:102E6000CC19CFCF8091CC19803208F051C0E091BD
:102E7000CC1981E08E0F8093CC198091BB00F0E0DB
:102E8000E455F64E8083BDCF85EC8093BC00109254
:102E9000D50E8091CC19803230F4E091CC19F0E05D
:102EA000E455F64E10826091CC1970E0E091890EE5
:102EB000F0918A0E8CEA99E119951092CC1935C0DF
:102EC00084E08093D50E1092AB191092AA19E0916C
:102ED0008B0EF0918C0E19958091AA19811105C065
:102EE00081E08093AA1910928A19E091AB1981E0D0
:102EF0008E0F8093AB19F0E0E657F64E80818093F9
:102F0000BB009091AB198091AA19981708F479CF5A
:102F100085E88093BC0009C085EC8093BC001092CA
:102F2000D50E03C01092D30E17DCFF91EF91BF9125
:102F3000AF919F918F917F916F915F914F913F9151
:102F40002F910F900BBE0F900FBE0F901F901895F2
:102F5000DC01ED91FC910684F785E02D40E01994A9
:102F60001F920F920FB60F9211242F933F938F93BE
:102F70009F93AF93BF938091810E9091820EA09109
:102F8000830EB091840E3091CD1923E0230F2D379D
:102F900020F40196A11DB11D05C026E8230F02965D
:102FA000A11DB11D2093CD198093810E9093820EA7
:102FB000A093830EB093840E8091850E9091860E1F
:102FC000A091870EB091880E0196A11DB11D80932E
:102FD000850E9093860EA093870EB093880EBF91B6
:102FE000AF919F918F913F912F910F900FBE0F90B6
:102FF0001F901895CF93DF93CDB7DEB72C970FB600
:10300000F894DEBF0FBECDBF789484B5826084BDD6
:1030100084B5816084BD85B5826085BD85B58160DC
:1030200085BD80916E00816080936E00109281005A
:103030008091810082608093810080918100816015
:1030400080938100809180008160809380008091D6
:10305000B10084608093B1008091B0008160809362
:10306000B0008091910082608093910080919100E6
:1030700081608093910080919000816080939000A6
:103080008091A10082608093A1008091A100816065
:103090008093A1008091A00081608093A000809126
:1030A00021018260809321018091210181608093C0
:1030B00021018091200181608093200180917A001C
:1030C000846080937A0080917A00826080937A0095
:1030D00080917A00816080937A0080917A00806884
:1030E00080937A001092C10062E082E00E94FB0BA4
:1030F00062E083E00E94FB0B61E083E20E94FB0B35
:1031000061E084E20E94FB0B61E085E20E94FB0B20
:1031100060E086E30E94FB0B83E20E943D0F84E2A5
:103120000E943D0F85E20E943D0F61E086E10E9412
:10313000FB0B61E087E10E94FB0B61E088E10E94EC
:10314000FB0B61E089E10E94FB0B61E08AE10E94D8
:10315000FB0B61E08BE10E94FB0B61E08CE10E94C4
:10316000FB0B61E08DE10E94FB0B8EE491E19093FB
:1031700001028093000280916A008C7F82608093BC
:103180006A00EC9A88EA9CE0909303028093020222
:1031900080916A00837F886080936A00ED9AF8943A
:1031A0001092021310920113109200131092FF124A
:1031B0001092F3021092F2021092F5021092F402B1
:1031C00078941092C50083E08093C4008091C10080
:1031D00088698093C1008091C20086608093C2009C
:1031E0008FE790E069D88FE790E00E9404108FE7A6
:1031F00090E00E949B0F0E94CB0B8CE08093B80064
:103200008091281391E09093D60E8093F80E10923F
:10321000D70E1092F90E80912F13909130130297D0
:1032200021F480E090E00E946C0A80E090E00E942F
:103230006C0A0E941009882309F446C010921C09E8
:103240001092F0021092F1021092E8021092E9023C
:103250001092EA021092EB021092EC021092ED0230
:103260001092EE021092EF021092E0021092E10230
:103270001092E2021092E3021092E4021092E50230
:103280001092E6021092E70284EF91E0909315020B
:103290008093140288E799E69093130280931202B8
:1032A00088E893E1909311028093100210920F032B
:1032B00010920E0301E010E027E432E04BEF6FE0E4
:1032C00080E00E949D081FC181E080931C0922E0DC
:1032D00030E040EF52E060E070E0CB010E946C090A
:1032E000882369F01092F0021092F10201E010E0E0
:1032F00027E432E04CEF6FE080E00E949D0828E078
:1033000030E048EE52E062E070E080E090E00E9441
:103310006C098823C9F01092E8021092E902109219
:10332000EA021092EB021092EC021092ED0210925F
:10333000EE021092EF0201E010E027E432E04CEFE1
:103340006FE080E00E949D0828E030E040EE52E00F
:103350006AE070E080E090E00E946C098823C9F088
:103360001092E0021092E1021092E2021092E30247
:103370001092E4021092E5021092E6021092E70227
:1033800001E010E027E432E04CEF6FE080E00E94C3
:103390009D0822E030E0AE014F5F5F4F62E170E0D8
:1033A00080E090E00E946C09882381F084EF91E036
:1033B000909315028093140201E010E027E432E0BC
:1033C0004CEF6FE080E00E949D0811C089819A81D6
:1033D0009827892798279093150280931402892BA8
:1033E00031F484EF91E0909315028093140222E06F
:1033F00030E0AE014F5F5F4F64E170E080E090E04D
:103400000E946C09882381F088E799E69093130263
:103410008093120201E010E027E432E04CEF6FE00D
:1034200080E00E949D0811C089819A819827892790
:1034300098279093130280931202892B31F488E726
:1034400099E6909313028093120222E030E0AE01DD
:103450004F5F5F4F66E170E080E090E00E946C0992
:10346000882381F08CEE93E19093110280931002F7
:1034700001E010E027E432E04CEF6FE080E00E94D2
:103480009D0811C089819A81982789279827909350
:10349000110280931002892B31F48CEE93E190930A
:1034A00011028093100221E030E04FE053E06FEF13
:1034B00070E080E090E00E946C09882359F010923F
:1034C0000F0301E010E027E432E04CEF6FE080E012
:1034D0000E949D0810920E03C12CD12C7601C701C9
:1034E000B6010E94540A90910E03890F80930E0337
:1034F0002FEFC21AD20AE20AF20A3FEFC316D10432
:10350000E104F10461F720E044E064E18FE093E13D
:1035100037DA6FEF8FE093E119DA61E08FE093E142
:1035200017DD0BE31FE1C8010197F1F762E08FE0BF
:1035300093E10EDDC8010197F1F787E691E00E9463
:103540009E0A81E00E94B90A82E591E00E949E0AEB
:1035500082E00E94B90A8DE391E00E949E0A83E016
:103560000E94B90A88E291E00E949E0A6EE372E02E
:1035700080E00E94710A66E372E081E00E94710AB5
:103580006EE272E082E00E94710A66E272E083E01D
:103590000E94710A6EE172E084E00E94710A66E1A5
:1035A00072E085E00E94710A81E0809363020E94CC
:1035B000C70C0E94080881E00E94370CBC01990FDB
:1035C000880B990B611571058105910511F00E9419
:1035D000B925ECE7F1E0A9EFB2E08EE093E02491A9
:1035E0002D9331968A179B07D1F781E2E0E0F0E056
:1035F00080935700E491E093F602E2E0F0E08093DC
:103600005700E491E093F702E4E0F0E08093570084
:1036100084918093F802F8948091FF1290910013A6
:1036200090930213809301137894F8948091F4029C
:103630009091F5029093F3028093F20278940E94A5
:103640003E110E9437110E94BC0F0E94B50F0E94CC
:10365000710F0E946A0F60ED77E080E090E00E94B9
:103660005C0C81E0898301E010E09E012F5F3F4FF9
:1036700040E060E080E00E949D08809146020E9448
:103680001E100E94E70E9FE088E10FB6F894A895FF
:10369000809360000FBE90936000A8950E94761101
:1036A000892B09F46DC083E20E943D0F0E94A21194
:1036B00099278D33910541F0CE9709F061C0CE0175
:1036C00001960E94450849C0CDB6DEB6DA86C986A5
:1036D0000E94940C6B017C0110E00E94761102970D
:1036E00008F002C1112309F436C101E010E027E41B
:1036F00032E046E005C001E010E027E432E041E0BE
:103700006FE080E00E949D08C984DA840FB6F894C7
:10371000DEBE0FBECDBE34C00E94A2118A3009F4B5
:10372000D4C68D3009F4D1C68F8318860D811E81D1
:103730000F5F1F4FB801CE0101965AD9882369F057
:1037400029813A818D819E81BE01695F7F4F820F01
:10375000931F0E9431291E830D830E947611892BAD
:10376000E1F3DACF11270115110509F066C10E94B6
:10377000AE0CE984FA840FB6F894FEBE0FBEEDBE1F
:1037800080914B02882331F180914A02882311F104
:1037900080916E09882309F4F0C480916D0981300D
:1037A00009F0EBC4DBC51092270A1092260A80911B
:1037B000650990916609A0916709B0916809019621
:1037C000A11DB11D8093650990936609A0936709B7
:1037D000B093680980914C0281110E9416020E94E8
:1037E000940C6B017C016093560A7093570A809386
:1037F000580A9093590A80915102882321F18091AF
:10380000520A9091530AA091540AB091550AB701F7
:10381000A601481B590B6A0B7B0B80914F029091BC
:103820005002A0E0B0E0481759076A077B0758F03C
:10383000C092520AD092530AE092540AF092550A6A
:1038400085E20E943D0F80904D0290904E02A12C87
:10385000B12C8091770990917809A0917909B09164
:103860007A09A7019601281B390B4A0B5B0B281517
:1038700039054A055B0520F061E083E20E944D0BAB
:103880008091730990917409A0917509B09176099E
:10389000A7019601281B390B4A0B5B0B281539052C
:1038A0004A055B0520F061E084E20E944D0B8091A7
:1038B0006F0990917009A0917109B0917209C81AAD
:1038C000D90AEA0AFB0AC814D904EA04FB0420F066
:1038D00061E085E20E944D0B40E050E0452B09F489
:1038E000DCCE0E940000D9CE1111FFCE0E94A211A1
:1038F000382E0E94A211282E3C861B86CB84DC84A5
:10390000C80ED11C56012FEFA21AB20A32E0C31A18
:10391000D1084BEFC41643E0D40608F0ECCE0E9469
:10392000940C2B013C0111C01111DFCE0E94940CAC
:10393000DC01CB0184199509A609B70911E0853688
:103940009105A105B10508F410E00E9476118A15D1
:103950009B0588F4E9CF0E94940CDC01CB018C1903
:103960009D09AE09BF0911E0893C9105A105B1058A
:1039700008F0B3CEB1CE1111B8CE0E94A2113C0115
:103980000E94A2118C01260151E0451A51088DB701
:103990009EB78C199D090FB6F8949EBF0FBE8DBFC0
:1039A000ADB7BEB711967D01C114D10479F04D01B8
:1039B0000E94A211F40181934F01CF018E199F093A
:1039C0008C159D05A8F39924939401C0912C0E9415
:1039D000A211320C360C300E992051F0F7019F01E4
:1039E0002E193F092C153D0518F49191390EF7CF8A
:1039F000831531F001E010E027E432E045E080CEAD
:103A0000862D8F70F301FF2794E0F595E7959A9541
:103A1000E1F7E370E23009F4C4C2E33009F428C3EB
:103A2000E13009F434C290E0FC018827EE58FF4FE2
:103A30008F4F0C9433280E94BB0C0130110509F004
:103A400090C30E94AE0C0E94E70E0E947E0D91CEA4
:103A500011270330110509F46EC040F4013011053F
:103A600071F00230110509F442C07BC30430110526
:103A700009F469C00530110509F480C072C39920AA
:103A800021F0F4E0CF16D10450F401E010E027E477
:103A900032E044E06FE080E00E949D086ACED701EA
:103AA0008C9190E0982F882711962C91820F911D70
:103AB000009719F41092510207C09093500280931E
:103AC0004F0281E080935102F701828190E0982FAC
:103AD00088272381820F911D009721F090934E0239
:103AE00080934D0204E010E0970141E045C0992029
:103AF00061F2D7018C91882339F0813031F68093BF
:103B00004B020E94080812C010924B0210928000D3
:103B1000109281001092850010928400109289000A
:103B2000109288000E943E110E94371101E010E0BF
:103B3000970142E021C0992009F4A7CFF7018081C5
:103B40000E941E1016CE992009F49FCFF4E0CF16E4
:103B5000D10408F49ACFD7018C9190E0982F882750
:103B600011962C91820F911D9093490280934802E7
:103B700004E010E0970144E063E08DCF9110F1C2C2
:103B800084CF11270230110579F038F40130110586
:103B900009F0E7C20E94E70EECCD0330110561F099
:103BA0000430110589F0DDC20E94A00C04E010E091
:103BB0002AEF3EE042E01AC00E94C70C02E010E08B
:103BC0002EE139E043E012C080911C098823E9F01E
:103BD00090910F0380910E0321E029839A838B83B8
:103BE00003E010E09E012F5F3F4F44E065E053CFBC
:103BF00011270230110509F46EC068F00330110579
:103C000071F480911C09811181C001E010E027E46A
:103C100032E04BEF3FCF0130110531F0A2C204304A
:103C2000110509F4BFC09DC2992009F42ECFB5E05B
:103C3000CB16D10408F429CFF7018081882319F02D
:103C4000813081F022CF10922E0A1092230A109216
:103C5000220A1092250A1092240A10922D0A10921C
:103C60002C0A33C080932E0AC180D280DC24CD245C
:103C7000DC24D092230AC092220A83809480982464
:103C8000892498249092250A8092240AA12CB12C90
:103C9000E12CF12CC814D904EA04FB0494F48C1828
:103CA0009D08AE08BF0831F019D7A50194010E9404
:103CB000DD2603C060E070E0CB01C60ED71EE81E13
:103CC000F91ED0922D0AC0922C0A01E010E02DE1DD
:103CD00039E041E065C080911C09882309F495CF43
:103CE000F70100811181608171817627672776272E
:103CF00080E090E00E94540A09831A838B8303E0DA
:103D000010E09E012F5F3F4F42E04AC0D701CD90A7
:103D1000DC901197DC24CD24DC24AC901196BC906F
:103D2000119712964C916A9A7298E12CF12CC70166
:103D3000B601A8D4882351F001E010E027E432E076
:103D40004DEF6FE080E00E949D081CC0412C512C7B
:103D5000320110E0C301B2010E94540A180FBFEFF4
:103D60004B1A5B0A6B0A7B0AEFEF4E165104610493
:103D7000710481F7412F6FEF70E080E090E082D412
:103D80008111DACF729AC701B6010E94540AA98242
:103D9000BA828B8303E010E09E012F5F3F4F43E028
:103DA0006EE079CE992009F470CEF2E0CF16D104FE
:103DB00008F4DFCCD7018C91823029F1833009F4EB
:103DC00041C0813009F061CE11968C91823079F03A
:103DD00030F4813009F059CE8FEF93E00AC0833080
:103DE00079F0843009F051CE87E090E002C08FE78F
:103DF00090E00E945C110E943E110E94371141C068
:103E00008FE090E0F6CFF7018181823079F030F4D5
:103E1000813009F03ACE8FEF93E00DC0833049F046
:103E2000843009F032CE87E090E005C08FE790E063
:103E300002C08FE090E00E9404100E94BC0F0E941C
:103E4000B50F1FC0D70111968C91823079F030F4F4
:103E5000813009F01ACE8FEF93E00DC0833049F026
:103E6000843009F012CE87E090E005C08FE790E043
:103E700002C08FE090E00E949B0F0E94710F0E9491
:103E80006A0F01E010E02DE139E040E003CE86301A
:103E900009F06DC111270230110599F003301105A9
:103EA00009F43FC00130110509F05BC110921D0AF1
:103EB0001092510A1092500A10922F0A1092260A5C
:103EC000EFC0B4E0AB1AB108E0E2AE16B10408F0FE
:103ED000DCCD20E0822F90E08C159D0550F4FC0194
:103EE000E05DF54FD701A80FB91F8C9180832F5F3C
:103EF000F1CFC092270AE0E3FAE080E09F0120536F
:103F00003A402415350518F49191890FF7CFF20145
:103F1000E05DF54F90819813808381E08093260ABD
:103F200028CCF6E0AF1AB1082EE1A216B10408F0D1
:103F3000ACCDD7018C91882321F0813009F419CCC4
:103F4000A4CD22E0822F90E08C159D0550F4FC0159
:103F5000E550F64FD701A80FB91F8C9180832F5FD2
:103F6000F1CFD7011196EC91E0931D0AF0E0319763
:103F7000ADEFB9E080E09D012D5F39402E173F077E
:103F800018F49D91890FF7CFE350F64F9081981365
:103F9000808381E08093510A1092500A80932F0A07
:103FA000E8CB863009F0E3C011270230110591F00B
:103FB0000330110551F10130110509F0D2C0109202
:103FC0001B0910921A0910921909109218091092DF
:103FD000170966C0B4E0AB1AB108EFEFAE16B10432
:103FE00011F008F052CDD701E7E1F8E0CF01875199
:103FF00098408C159D0518F48D918193F7CFC09250
:10400000160881E080931709B4CBF6E0AF1AB10827
:104010002EEFA216B10408F038CDD7018C91882379
:1040200051F0813009F031CD80931A09809319093C
:10403000809318098DC022E0822F90E08C159D0599
:1040400050F4FC01EC5EF84FD701A80FB91F8C911A
:1040500080832F5FF1CFF701818180931B0981E07D
:1040600080931A09109219098093180982E06DC093
:10407000863009F07CC0112702301105C9F00330E9
:10408000110589F10130110509F06BC01092150777
:104090001092140710921307109212071092110732
:1040A000E093FC0901E010E02CEF39E041E057C05B
:1040B000F4E0AF1AB1082FEFA216B10411F008F026
:1040C000E4CCD701E1E1F6E0CF01815196408C15B7
:1040D0009D0518F48D918193F7CFC092100681E071
:1040E0008093110746CB36E0A31AB1084EEFA41611
:1040F000B10408F0CACCD7018C91882351F08130EB
:1041000009F0C3CC809314078093130780931207A0
:104110001FC022E0822F90E08C159D0550F4FC0119
:10412000E25FFA4FD701A80FB91F8C9180832F5FF0
:10413000F1CFF70181818093150781E08093140707
:10414000109213078093120783E08093FC0902C04A
:10415000E093FC0901E010E02CEF39E043E066E079
:104160009ACC01E010E027E432E043E093CC01E098
:1041700010E027E432E042E08DCC0E943E11109224
:104180006E0910926D0980912E0A882309F489C066
:1041900000912C0A10912D0A0115110509F481C016
:1041A0000E94940CC090280AD090290AE0902A0A14
:1041B000F0902B0A9B01AC012C193D094E095F09B7
:1041C00069017A0120E030E00C151D052E053F0540
:1041D00008F067C06093280A7093290A80932A0A1E
:1041E00090932B0A7BD424E030E040E050E0E5D50A
:1041F000DC01CB010396A11DB11D8093270AF12C90
:104200000F2D10E08091270A90E09C012250310987
:104210000217130764F462D4005D154F20E031E00B
:1042200040E050E0CAD5D8016C93F394E9CF0197F0
:10423000E0E3FAE020E0AF0140535A404817590745
:1042400018F43191230FF7CFFC01E05DF54F208387
:1042500081E08093260A8090240A9090250AA12C60
:10426000B12CC090220AD090230AE12CF12CC81462
:10427000D904EA04FB048CF48C189D08AE08BF082E
:1042800029F02CD4A501940198D503C060E070E01A
:10429000CB01C60ED71EE81EF91ED0922D0AC09281
:1042A0002C0A8091510A882371F10E9445118111D5
:1042B0002AC00E94940C00911E0A10911F0A20919E
:1042C000200A3091210A6B017C01C01AD10AE20A4E
:1042D000F30A9701860140914802509149026A0110
:1042E000E12CF12CC016D106E206F30660F46093CF
:1042F0001E0A70931F0A8093200A9093210A8091CE
:104300002F0A8111C5C08091260A882309F462CA48
:1043100020E08091270A281708F045CAE22FF0E034
:10432000E05DF54F30818091410990E001968F71F9
:104330009927F89440914009789450E084179507A4
:10434000C1F3FC01E05EF64F308380934109809118
:10435000C90080628093C9002F5FDBCFCDB6DEB687
:1043600080916E0990E00496ADB7BEB7A81BB90B5B
:104370000FB6F894BEBF0FBEADBFEDB7FEB7319616
:104380007F010E94A00C8091FA0ED7018C9380913E
:10439000FB0E11968C9311978091FC0E12968C93C4
:1043A00012978091FD0E13968C9320E080916E09F8
:1043B000281728F5F894909164098091630998135F
:1043C00004C0789480E092E014C0789480916309EE
:1043D00090E001968F71992780936309FC01ED5B52
:1043E000F64F30818091420990E0982F8827830F03
:1043F000911DF701E20FF11D84832F5FD7CF00914C
:104400006E0910E00C5F1F4F970142E067E081E00A
:104410000E949D088091510A8823E9F08091500AFA
:10442000811119C091E020916E09821778F4282F2C
:1044300030E0F901E05DF54FD701A20FB31F4081D5
:1044400014962C91421390E08F5FEDCF992319F0D1
:1044500081E080932F0A10926E0910926D0980916D
:10446000690990916A09A0916B09B0916C09019654
:10447000A11DB11D8093690990936A09A0936B09EE
:10448000B0936C090FB6F894DEBE0FBECDBE7BCEE6
:104490008091500A811137CF80911D0A282F30E07A
:1044A000A0E3BAE0EDEFF9E0AF014D5F59404217EC
:1044B000530718F491919D93F7CF8093270A81E0D9
:1044C0008093260A10922F0A1ECF0E946E080A9728
:1044D00009F47CC00E946E080D9709F477C00D8125
:1044E0001E810038110588F40115110519F4109288
:1044F0007C090EC069817A81A8018CE799E0B8D661
:10450000F801E458F64F108203C081E080937B09E4
:1045100080917B09811147C062EC72E08CE799E0E1
:1045200031D300E113E00097E1F025E000311207FC
:10453000C1F0FC0101900020E9F73197E81BF90B6D
:10454000E034F10558F4BC01C8018BD662EC72E08E
:1045500080E090E017D3005C1F4FE5CF81E08093AF
:104560007B0980917B0981111EC066E7E62E62E01F
:10457000F62E00E010E0D7016D917D917D0180E184
:1045800093E066D6892B51F4000F111FF801E25910
:10459000FD4F0190F081E02D199505C00F5F1F4F71
:1045A0000430110541F780E8ECE7F9E011928A95B3
:1045B000E9F7A0E1B3E0E0E0F2E01D923197E9F71E
:1045C00010927B0989819A81B8D1DAC80E94A21120
:1045D00086CF8091351390913613AFC1E3E0F3E1BC
:1045E0001382128288EE93E0A0E0B0E0848395838A
:1045F000A683B78380EA92E09183808385E393E189
:104600000E944508E8E2F3E120E230E032832183B2
:1046100081E083833583248390E5908340E050E1FB
:1046200060E070E0418752876387748722E030E062
:10463000308727839CE09683EFE0F3E113821282B8
:1046400022EB32E031832083108A9FEF9787168612
:10465000118A97E29387148615861286118694E054
:10466000928B92E0938B848B80E1858B80E2868BAA
:1046700080E4878B80E8808F40E050E063E0CF01EA
:104680000C9466143F924F925F926F927F928F923A
:104690009F92AF92BF92CF92DF92EF92FF920F93D1
:1046A0001F93CF93DF931F92CDB7DEB72B013C0151
:1046B0004983AB01BC014F5F5F4F6F4F7F4F8091CC
:1046C000311390913213A0913313B09134138417A6
:1046D0009507A607B70708F484C0CE0101967C01B0
:1046E00020E2C22ED12C992493943BECA32E37E0E8
:1046F000B32E80912C1390912D139C0121503109E0
:1047000024213521821B930B20912F1330913013DC
:104710008601021B130B11F001E010E080179107D6
:1047200008F48C01D301C20100902E1304C0B69589
:10473000A795979587950A94D2F780902813882A91
:104740009092D60E8092F80E1092D70E1092F90E1B
:104750002230310541F49927872D762D652D83E090
:1047600093E10E943814642D83E093E10E94381491
:10477000A801B70183E093E10E940C140E94100984
:10478000811130C084E6382EC5010197F1F790926F
:10479000D60E8092F80E1092D70E1092F90E8091DC
:1047A0002F1390913013029721F480E090E00E9443
:1047B0006C0A80E090E00E946C0A0E941009882335
:1047C00021F03A943110E0CF0DC0400E511E611C13
:1047D000711CE00EF11E0130110509F08ACF80E056
:1047E00001C089E00F90DF91CF911F910F91FF9051
:1047F000EF90DF90CF90BF90AF909F908F907F9081
:104800006F905F904F903F9008950F931F93CF93B9
:10481000DF938230910510F482E090E0E091D219AC
:10482000F091D31920E030E0A0E0B0E0309719F12A
:10483000408151810281138148175907C8F08417BC
:10484000950769F4109731F012960C93129713960E
:104850001C9327C00093D2191093D31922C021159D
:10486000310519F04217530718F49A01BD01EF0101
:10487000DF01F801DBCF21153105F9F0281B390BD9
:104880002430310580F48A819B816115710521F006
:10489000FB019383828304C09093D3198093D21930
:1048A000FE01329644C0FE01E20FF31F8193919303
:1048B00022503109398328833AC02091D019309190
:1048C000D119232B41F42091660230916702309375
:1048D000D1192093D01920916402309165022115DD
:1048E000310541F42DB73EB74091680250916902FD
:1048F000241B350BE091D019F091D119E217F30781
:10490000A0F42E1B3F0B2817390778F0AC014E5F3F
:104910005F4F2417350748F04E0F5F1F5093D11992
:104920004093D0198193919302C0E0E0F0E0CF0171
:10493000DF91CF911F910F910895CF93DF9300974F
:1049400009F481C0FC01329713821282A091D2191E
:10495000B091D319109781F420813181820F931F78
:104960002091D0193091D1192817390751F5F093BA
:10497000D119E093D01967C0ED0120E030E0CE17E7
:10498000DF0740F44A815B819E0141155105F1F03A
:10499000EA01F5CFD383C28340815181840F951FF3
:1049A000C817D90759F488819981840F951F0296F9
:1049B000918380838A819B81938382832115310532
:1049C00029F4F093D319E093D2193DC0E901FB8398
:1049D000EA8349915991C40FD51FEC17FD0761F483
:1049E00080819181840F951F0296E90199838883C4
:1049F000828193819B838A83E0E0F0E012968D911F
:104A00009C911397009719F0FD01DC01F7CF8D9170
:104A10009C9111979D012E5F3F4F820F931F209114
:104A2000D0193091D1192817390769F4309729F432
:104A30001092D3191092D21902C013821282B0932D
:104A4000D119A093D019DF91CF9108958F929F92A1
:104A5000AF92BF92CF92DF92EF92FF92CF93DF930C
:104A6000EC01688179818A819B81611571058105DD
:104A7000910521F464E279ED8BE597E02DE133EFC8
:104A800041E050E09AD149015A019B01AC01A7EAEB
:104A9000B1E4AFD16B017C01ACEEB4EFA5019401A0
:104AA000B4D1DC01CB018C0D9D1DAE1DBF1DB7FF28
:104AB00003C00197A109B04888839983AA83BB8367
:104AC000BC01CD019F77DF91CF91FF90EF90DF90F8
:104AD000CF90BF90AF909F908F9008958F929F92AC
:104AE000AF92BF92CF92DF92EF92FF9260916A02F3
:104AF00070916B0280916C0290916D02611571054D
:104B00008105910521F464E279ED8BE597E02DE1D3
:104B100033EF41E050E051D149015A019B01AC0112
:104B2000A7EAB1E466D16B017C01ACEEB4EFA5015C
:104B300094016BD1DC01CB018C0D9D1DAE1DBF1D01
:104B4000B7FF03C00197A109B04880936A02909310
:104B50006B02A0936C02B0936D02BC01CD019F77F4
:104B6000FF90EF90DF90CF90BF90AF909F908F908D
:104B7000089560936A0270936B0280936C02909325
:104B80006D0208954EEC59E100C0FA01A191B08187
:104B9000009719F41097E1F0CD01DC01CD010D90E3
:104BA000002011F4C00113C0FB012191222319F050
:104BB0002015D9F7F3CFFB012191201519F41E928E
:104BC000119606C02223C1F70D900020A1F7D00155
:104BD000FA01A193B0830895E89409C097FB3EF4CD
:104BE00090958095709561957F4F8F4F9F4F99233A
:104BF000A9F0F92F96E9BB279395F69587957795B8
:104C00006795B795F111F8CFFAF4BB0F11F460FF77
:104C10001BC06F5F7F4F8F4F9F4F16C0882311F0CF
:104C200096E911C0772321F09EE8872F762F05C0E3
:104C3000662371F096E8862F70E060E02AF09A957E
:104C4000660F771F881FDAF7880F9695879597F973
:104C500008950BD078C069D028F06ED018F0952355
:104C600009F05AC05FC01124A2C07ED0A0F3959F66
:104C7000D1F3950F50E0551F629FF001729FBB2743
:104C8000F00DB11D639FAA27F00DB11DAA1F649FEF
:104C90006627B00DA11D661F829F2227B00DA11DA2
:104CA000621F739FB00DA11D621F839FA00D611D28
:104CB000221F749F3327A00D611D231F849F600D49
:104CC000211D822F762F6A2F11249F5750408AF082
:104CD000E1F088234AF0EE0FFF1FBB1F661F771F0E
:104CE000881F91505040A9F79E3F510570F014C0A5
:104CF0005EC05F3FECF3983EDCF386957795679551
:104D0000B795F795E7959F5FC1F7FE2B880F911D2B
:104D10009695879597F9089597F99F6780E870E0D1
:104D200060E008959FEF80EC089500240A94161621
:104D3000170618060906089500240A941216130689
:104D4000140605060895092E0394000C11F4882317
:104D500052F0BB0F40F4BF2B11F460FF04C06F5F33
:104D60007F4F8F4F9F4F089557FD9058440F551F09
:104D700059F05F3F71F04795880F97FB991F61F0DD
:104D80009F3F79F087950895121613061406551F54
:104D9000F2CF4695F1DF08C0161617061806991FC0
:104DA000F1CF86957105610508940895E894BB27B5
:104DB00066277727CB0197F90895052E97FB16F400
:104DC00000940FD057FD05D024D007FC02D046F444
:104DD00008C050954095309521953F4F4F4F5F4FFC
:104DE000089590958095709561957F4F8F4F9F4F57
:104DF000089531D0A59F900DB49F900DA49F800D74
:104E0000911D11240895B7FFF4CFF3DF821B930B9C
:104E10000895A1E21A2EAA1BBB1BFD010DC0AA1FFB
:104E2000BB1FEE1FFF1FA217B307E407F50720F013
:104E3000A21BB30BE40BF50B661F771F881F991F8E
:104E40001A9469F760957095809590959B01AC01D7
:104E5000BD01CF010895A29FB001B39FC001A39FE0
:104E6000700D811D1124911DB29F700D811D1124A3
:104E7000911D08955058BB27AA270ED064CF55DF47
:104E800030F05ADF20F031F49F3F11F41EF44ACF86
:104E90000EF4E095E7FB40CFE92F66DF80F3BA1709
:104EA000620773078407950718F071F49EF57ECFAB
:104EB0000EF4E0950B2EBA2FA02D0B01B901900135
:104EC0000C01CA01A0011124FF27591B99F0593F79
:104ED00050F4503E68F11A16F040A22F232F342FC1
:104EE0004427585FF3CF469537952795A795F0400F
:104EF0005395C9F77EF41F16BA0B620B730B840B24
:104F0000BAF09150A1F0FF0FBB1F661F771F881FDB
:104F1000C2F70EC0BA0F621F731F841F48F4879533
:104F200077956795B795F7959E3F08F0B3CF939522
:104F3000880F08F09927EE0F9795879508950CD064
:104F400002CFFADE40F0F1DE30F021F45F3F19F0DD
:104F5000E3CE51112CCFE6CE07DF98F39923C9F3A6
:104F60005523B1F3951B550BBB27AA27621773076F
:104F7000840738F09F5F5F4F220F331F441FAA1F23
:104F8000A9F333D00E2E3AF0E0E830D091505040E3
:104F9000E695001CCAF729D0FE2F27D0660F771F91
:104FA000881FBB1F261737074807AB07B0E809F073
:104FB000BB0B802DBF01FF2793585F4F2AF09E3F08
:104FC000510568F0A9CEF3CE5F3FECF3983EDCF3D9
:104FD000869577956795B795F7959F5FC9F7880F81
:104FE000911D9695879597F90895E1E0660F771FD3
:104FF000881FBB1F621773078407BA0720F0621B64
:10500000730B840BBA0BEE1F88F7E0950895B4DE9E
:1050100088F09F5790F0B92F9927B751A0F0D1F0A1
:10502000660F771F881F991F1AF0BA95C9F712C02B
:10503000B13081F0BBDEB1E00895B8CE672F782F94
:105040008827B85F39F0B93FCCF386957795679597
:10505000B395D9F73EF490958095709561957F4F03
:105060008F4F9F4F0895EE0FFF1F881F8BBF079034
:10507000F691E02D19946F927F928F929F92AF924A
:10508000BF92CF92DF92EF92FF920F931F93CF9335
:10509000DF93009781F4CB01DF91CF911F910F91A6
:1050A000FF90EF90DF90CF90BF90AF909F908F9048
:1050B0007F906F90AACBFC01E60FF71F9C01225056
:1050C0003109E217F30708F4A5C0EC01D9010D91ED
:1050D0001C91119706171707A8F00530110508F461
:1050E00097C0C80104978617970708F491C002502B
:1050F0001109061B170B019311936D937C93CF013C
:105100001CDC86C05B01A01AB10A4C01800E911E06
:10511000A091D219B091D319612C712CE12CF12CF2
:10512000109709F446C08D919C911197A815B90567
:10513000B1F56C0142E0C40ED11CCA14DB0478F155
:105140004C018A189B08640142E0C40ED11C1296DF
:10515000BC9012971396AC91B5E0CB16D10440F0F9
:10516000B282A38391828082D9016D937C9309C01E
:105170000E5F1F4F800F911FF90191838083EB2DEC
:10518000FA2FE114F10431F0D7011396FC93EE935A
:1051900012973EC0F093D319E093D21939C0681624
:1051A000790608F43C017D0112960D90BC91A02D6A
:1051B000B7CF8091D0199091D11988169906E1F452
:1051C00066167706C8F48091640290916502009794
:1051D00041F48DB79EB74091680250916902841BDB
:1051E000950BE817F907B0F4F093D119E093D019B3
:1051F000F901718360830CC0CB0107DB7C01009750
:1052000049F0A801BE011BD0CE0197DBC70104C045
:10521000CE0102C080E090E0DF91CF911F910F910D
:10522000FF90EF90DF90CF90BF90AF909F908F90C6
:105230007F906F90089581E090E0F89428C0FB0182
:10524000DC0102C001900D9241505040D8F7089502
:10525000FB01DC018D91019080190110D9F3990BAC
:105260000895FB01DC0101900D920020E1F7089503
:10527000FB01DC014150504048F001900D920020AC
:10528000C9F701C01D9241505040E0F7089511E068
:10529000CDE4D1E000E005C0802FFE01E4DE2196E0
:1052A000011DCE34D10780E00807B1F7F894FFCF95
:1052B000811381138113811381138113811381134E
:1052C00088137869F401060909060000000000014E
:1052D00005091F0804000004021F02040000000466
:1052E000081F08040000000404150E040000000458
:1052F0000E1504040000C8FF64000101013200889B
:105300001301F0F1F2F3F4F5F6F7F8F9FAFBFCFD0E
:10531000FEFF01010000D419800001000000660FAB
:10532000BB0CAE0C7E0DC402C902CF02D9020040F4
:105330001454004010503E4920474F5420594F55B7
:1053400052204D455353414745210A0000000000BB
:1053500038140C148301E0130414F013E11300005B
:1053600000007A14821383018201C0146614A6140B
:105370008714200068656C7000726573657400683E
:10538000616E647368616B6500737461747573003A
:00000001FF
