:020000040000FA
:100000000C945B040C9428350C94FD340C94D2347D
:100010000C94A7340C947C340C9451340C942634F6
:100020000C94FB330C948C040C948C040C948C0472
:100030000C948C040C948C040C948C040C948C0400
:100040000C948C040C9453350C948C040C948C04F8
:100050000C948C040C948C040C948C040C94B1338C
:100060000C948C040C94BD380C9478380C948C044B
:100070000C948C040C948C040C948C040C948C04C0
:100080000C94A0350C948C040C948C040C948C046B
:100090000C94F3350C94C0350C948C040C943436C9
:1000A0000C948C040C948C040C948C040C948C0490
:1000B0000C948C040C948C040C948C040C948C0480
:1000C0000C948C040C948C040C948C040C9429389F
:1000D0000C94E8370C948C040C9499370C94583792
:1000E0000C948C040C948C3F0C94BB050C94164718
:1000F0000C9416440C94A9050C94400E0C946E4379
:100100000C9498430C94FB060C9490080C94A30553
:100110000C9450090C94813A0C9497410C948F04E0
:100120000C94B0410C949F050C94A3080C941047B8
:100130000C94763F0C948A050C94B7050C945345A7
:100140000C9478050C94B1050C944F090C947E091D
:100150000C943E420C948E050C9416050C941107D9
:100160000C94FC060C94F1210C9496050C94B2426C
:100170000C9481080C9499050C9480080C948F3F82
:100180000C9492050C94C9050C948E040C94AA0846
:100190000C94C5050C946B410C94014E0C947305A2
:1001A0000C94AD050C9477440C94633F0C94E84296
:1001B0000C94D7080C94553F0C9414420C94BF0532
:1001C0004343442F53434900202000205343414ED2
:1001D0004E455220560043485259534C45522043F5
:1001E00043442F534349002D2D2D2D2D2D2D2D2DE5
:1001F0002D2D2D2D2D2D2D2D2D2D2D002020202090
:10020000002020205343414E4E45522056002020CE
:1002100043485259534C4552204343442F5343497A
:100220002020002D2D2D2D2D2D2D2D2D2D2D2D2D45
:100230002D2D2D2D2D2D2D00202020203072706D84
:100240000020203020432020202020302E306B50F2
:1002500061002020306B6D2F68202020202030721C
:10026000706D002020202020302E3030306B6D202B
:10027000202020202020200020302E302F20302E43
:100280003056202020202020202020200020203038
:100290002F20203020432020202020302E306B5073
:1002A00061002020306B6D2F68202020203072707C
:1002B0006D202020302500202020203072706D001D
:1002C00020203020462020202020302E30707369DE
:1002D000002020306D706820202020202030727097
:1002E0006D002020202020302E3030306D692020FD
:1002F0002020202020200020302E302F20302E30B3
:100300005620202020202020202020002020302FB8
:1003100020203020462020202020302E307073698D
:10032000002020306D706820202020203072706DF9
:1003300020202030250000002100240027002A0072
:100340002D003000330001010000040107010A0103
:1003500000002200250028002B002E003100340070
:1003600002010000050108010B010505050507054F
:1003700008080808020202020A0A08080404040421
:10038000010101010101010103030303030303034D
:10039000040707070C0C0C0C0C0C0C0C02020202DC
:1003A00006060606060606060B0B0B0B0B0B0B0BC5
:1003B0000102102020080810204010204080020177
:1003C000020108040201010204081020408080405C
:1003D000201008040201800402018040201008045B
:1003E00002010804020101020408102040800102F9
:1003F00004081020408000000A0B02090C0D0E08B2
:1004000007030401000000000000000000000000DD
:1004100000000000000000000000000000000000DC
:100420000000121110000000000000000000000099
:100430000000000000000000000000004C0100036C
:1004400067378000B2FA00019EF810B708F820B7AD
:100450005EF845378701F2B6E8F511FA000188FA2F
:1004600000019E17FA01B617F501B6FA000188FAE5
:1004700000019E17FA01B717F501B7FA000188F5D8
:1004800000379C37BC0206FA00019ECA00C500FA7C
:100490000001883C01273101B6B6E837B50FA0FA54
:1004A0000001AEF504379C37BC8000F514FA00015A
:1004B00088B08EF521FA000188FA000206B082FAAF
:1004C00000019EFA00018827F717657C0C7601B7BA
:1004D000F417EA7C0F37B50043FA0001AE27F7178F
:1004E000657C0D76427840B6F217E57C0F27F7372A
:1004F000B00001B6F627F7274C373B00E0F50F3781
:100500009E37BE8000F500379F37BF07F6371527A7
:10051000FA379DF504379C37BC800037B501483762
:10052000EA7A0028807A2137B500CF37EA7A443753
:10053000B5040537EA7A4837EA7A4C37B568F037B8
:10054000EA7A4A37B570F037EA7A4E37B5FF88371E
:10055000EA7A5437B5783037EA7A5637B5F88137C2
:10056000EA081437E5081237B7000137EA081237EE
:10057000B5000037EA081827290806FFFF272908D1
:100580000803FF27F53735082427AA7C04373808E5
:1005900038B3F217257920272808602000FA0002D6
:1005A0006AF522FA0001887A00010437B5408837DD
:1005B000EA7C007506176A7C0475FE176A7C05756F
:1005C00033176A7C1675F8176A7C1575FE176A7CF6
:1005D0001737B5810837EA7C1837B5100037EA7C41
:1005E0001A37B5000037EA7C1C7500176A7C1E3785
:1005F000354242376A7D4137350202376A7D4337DB
:1006000035C202376A7D453735C242376A7D483781
:10061000B5010037EA7D2437B5020237EA7C1CFABF
:100620000002E427F728807C1F29807C1A370537D1
:1006300001B70A2A807C1FFFF628807C1F3706B08E
:1006400004373B010037FCF5A527F7F546FA000112
:1006500088FA00019E379CFA000188FA00019E1773
:10066000FA0366FA000188FA00019E17FA03671779
:10067000FC0366FA000188FA00019E17FA01B6FA37
:10068000000188FA00019E17FA01B7377501B6FA22
:10069000000188C500FA0001883C0127763787FDF4
:1006A000A237300001B0E8274C4C0100030337802B
:1006B00000ACFA000198F810B702F820B758B6EE6F
:1006C000F511FA000182FA00019817FA01B017F546
:1006D00001B0FA000182FA00019817FA01B117F58A
:1006E00001B1FA000182F500379C37BC0200FA0024
:1006F0000198CA00C500FA0001823C01273101B00F
:10070000B6E837B50FA0FA0001A8F504379C37BC4E
:100710008000F514FA000182B094F521FA000182FC
:10072000FA000200B088FA000198FA00018227F767
:1007300017657C0C7601B7F417EA7C0F37B501908A
:10074000FA0001A827F717657C0D76427840B6F2CB
:1007500017E57C0F27F737B00001B6F627F7274CCF
:10076000373B00E0F50F379E37BE8000F500379F1E
:1007700037BF07F6371527FA379DF504379C37BC86
:10078000800037B5014837EA7A0028807A2137B5EA
:1007900000CF37EA7A4437B5040537EA7A4837EAB2
:1007A0007A4C37B568F037EA7A4A37B570F037EAED
:1007B0007A4E37B5FF8837EA7A5437B5783037EA5A
:1007C0007A5637B5F88137EA081437E5081237B793
:1007D000000137EA081237B5000037EA0818272960
:1007E0000806FFFF2729080803FF27F537350824E7
:1007F00027AA7C0437380838B3F217257920272830
:1008000008602000FA000264F522FA0001827A00F2
:10081000010437B5408837EA7C007506176A7C0406
:1008200075FE176A7C057533176A7C1675F8176AAA
:100830007C1575FE176A7C1737B5810837EA7C1876
:1008400037B5100037EA7C1A37B5000037EA7C1C50
:100850007500176A7C1E37354242376A7D4137354D
:100860000202376A7D433735C202376A7D45373524
:10087000C242376A7D4837B5010037EA7D2437B573
:10088000020237EA7C1CFA0002DE27F728807C1F70
:1008900029807C1A37053701B70A2A807C1FFFF6AA
:1008A00028807C1F3706B004373B010037FCF5A5D4
:1008B00027F7813A014E11241FBECFEFD1E2DEBFF0
:1008C000CDBF00E00CBF13E0A0E0B2E0E6EAF7EA3B
:1008D00000E00BBF02C007900D92A230B107D9F71C
:1008E00024E1A2E0B3E001C01D92A13CB207E1F710
:1008F00014E0CAE5D4E000E006C021970109802F8A
:10090000FE010E94C152C935D10780E00807A9F74E
:100910000E94D73A0C94C1530C9400000895089596
:10092000F8949091A50F8091A40F981304C0789427
:1009300080E092E008957894E091A40FEF5FF0E0FA
:10094000EC55F14F20819091A30E892F90E0982FC4
:100950008827820F911D08952091E10F222309F429
:1009600047C0E22FE695E695E695F0E0ED5EFF4E96
:10097000808190E0277002C0959587952A95E2F7CF
:1009800080FD36C080910D108823A9F18091F10F70
:10099000823088F1E091F10FE15090E080E020E0BA
:1009A0008E1740F4DC01A053B04F51963C91230FB9
:1009B0000196F6CFF0E0E053F04F818928130DC087
:1009C00080E09091F10F891718F5E82FF0E0E053DF
:1009D000F04F918990838F5FF4CFE0913510F091C3
:1009E0003610309729F060E970E090E080E01995CA
:1009F0001092F10F089580E09091F10F891740F463
:100A0000E82FF0E0E053F04F918990838F5FF4CFAF
:100A10006091F10F6093E00FE0913310F09134108A
:100A2000309731F380ED9FE01995E2CFAF92BF92FE
:100A3000CF92DF92EF92FF920F931F93CF93DF93AA
:100A40006C017B018B01040F151FEB015E01AE18D9
:100A5000BF08C017D10759F06991D601ED91FC91FB
:100A60000190F081E02DC6011995892B79F7C50118
:100A7000DF91CF911F910F91FF90EF90DF90CF907A
:100A8000BF90AF900895282F30E0F901EA50FC4F55
:100A90009491F901E055FC4F449126593C4FF901DE
:100AA0002491222309F435C0992311F191509231F8
:100AB000F8F4E92FF0E08827EF59FA4F8F4F0C94A4
:100AC000C1529205960573058A058E05780599052C
:100AD0009F05A305A905AD05B105B705BB057805BB
:100AE000BF05C505C905809180008F778093800080
:100AF000E22FF0E0EE0FFF1FE05BFC4FA591B491F9
:100B00008FB7F894EC91611148C040954E234C93F7
:100B10008FBF0895809180008F7DE8CF8091800005
:100B2000877FE4CF84B58F7784BDE2CF84B58F7D96
:100B3000FBCF8091B0008F778093B000D9CF8091A8
:100B4000B0008F7DF9CF809190008F7780939000D7
:100B5000CFCF809190008F7DF9CF80919000877FDB
:100B6000F5CF8091A0008F778093A000C1CF8091B6
:100B7000A0008F7DF9CF8091A000877FF5CF809175
:100B800020018F7780932001B3CF809120018F7D4A
:100B9000F9CF80912001877FF5CF4E2BB8CFCF932F
:100BA000DF9390E0FC01E055FC4F249186599C4F67
:100BB000FC0184918823C9F090E0880F991FFC0103
:100BC000EA5CFC4FA591B491FC01E05BFC4FC59140
:100BD000D49161110DC09FB7F8948C912095822318
:100BE0008C938881282328839FBFDF91CF9108951C
:100BF000623051F49FB7F8943C91822F8095832303
:100C00008C93E8812E2BEFCF8FB7F894EC912E2B9D
:100C10002C938FBFEACF863308F0865320917B0058
:100C2000982F9870277F922B90937B0020914B02F6
:100C300090E4299F900111248770822B80937C007F
:100C400080917A00806480937A0080917A0086FD9A
:100C5000FCCF809178009091790008953FB7F89487
:100C600080915C0E90915D0EA0915E0EB0915F0E32
:100C700026B5A89B05C02F3F19F00196A11DB11DF7
:100C80003FBFBA2FA92F982F8827BC01CD01620F33
:100C9000711D811D911D42E0660F771F881F991FEE
:100CA0004A95D1F708958F929F92AF92BF92CF92BB
:100CB000DF92EF92FF924B015C010E942E066B01C6
:100CC0007C010E942E066C197D098E099F09683EE1
:100CD000734081059105A8F321E0821A9108A108CB
:100CE000B10888EEC80E83E0D81EE11CF11C811407
:100CF0009104A104B10429F7FF90EF90DF90CF9009
:100D0000BF90AF909F908F9008952FB7F894609107
:100D1000580E7091590E80915A0E90915B0E2FBF14
:100D200008950E94850660939F0E7093A00E809395
:100D3000A10E9093A20EEBE9FEE090838183728373
:100D400063830895CF92DF92EF92FF92582FFC01B8
:100D500030E020E0261748F44191D901A053B04F6C
:100D600092964C932F5F3F4FF5CF20910E10222388
:100D7000A9F0623098F02FEF260FFC0140E031918E
:100D8000430F3E2F351B3217D0F330E0F901E0530B
:100D9000F04F42A3820F931FFC0140831092021078
:100DA000609303100E9485066B017C0180E09091A6
:100DB0000510911111C081111CC00E948506AB0164
:100DC000BC014C195D096E097F0981E0483E534022
:100DD0006105710560F7EACF81110BC08091C900F0
:100DE00080628093C90080E0FF90EF90DF90CF9009
:100DF000089582E0F9CF0895109285001092840042
:100E0000E1E8F0E0808185608083ED988BEF96E0EB
:100E10009093570280935602E0EDFFE015AA16AAC0
:100E20000895649B05C01092051010920610089555
:100E300010929500109294008091910085608093AB
:100E4000910081E0809305108091F10F81110C9445
:100E5000AC0408952091340E260F3327331F21321E
:100E60003105ECF420915D10FC0190E080E024302D
:100E700069F082E00895A091340E2191AC014C5E9E
:100E8000514FA40FB52FB11D2C930196861798F3DF
:100E90008091340E680F6093340E80E0089581E0F5
:100EA000089510925D1081E080935C1010923710CD
:100EB00061E084E10E94430561E085E10E94430511
:100EC000E9EBF0E080818E7F808380818D7F80835D
:100ED00088E48093B80085E48093BC000895CF93A4
:100EE000DF9391E09093130E8823B9F0C091B8007E
:100EF000D091BA008091BC008A7B8093BC0060E0F6
:100F000084E10E94430560E085E10E9443050E9460
:100F10005107D093BA00C093B800DF91CF910895E4
:100F20008F929F92AF92BF92CF92DF92EF92FF92F9
:100F30000F931F93CF93DF93D0918610D13208F097
:100F4000D7C0182FC09185100E942E066B017C011E
:100F500080915D1081116BC082E080935D101093D1
:100F60005C108FEF80935B1010925A10D093591041
:100F7000A5E6B0E1E9E3F0E180E0D81391C010927A
:100F8000381080913810CC0FC82BC0933810809146
:100F90003710813009F088C0109237100E942E0659
:100FA0006B017C01809138108093BB0080915F10B1
:100FB00090916010A0916110B0916210892B8A2BE2
:100FC0008B2BA1F00E942E0600915F1010916010F3
:100FD00020916110309162106C197D098E099F0972
:100FE000061717072807390708F442C08091BC008C
:100FF00083FDD8CF85EC8093BC000E942E066B0148
:101000007C0180915D10823009F450C080915B10AA
:101010008F3F09F46FC080915B10803209F46CC07F
:1010200080915B10803309F469C084E026C0809110
:101030005F1090916010A0916110B0916210892BA7
:101040008A2B8B2B09F484CF0E942E0680905F1090
:1010500090906010A0906110B09062106C197D09A2
:101060008E099F0986169706A806B90608F070CF64
:1010700080915E100E946F0785E0109264101092BC
:10108000861010926310DF91CF911F910F91FF9006
:10109000EF90DF90CF90BF90AF909F908F9008958A
:1010A0009D9191938F5F69CF85EEA5CF80915F1061
:1010B00090916010A0916110B0916210892B8A2BE1
:1010C0008B2B09F49ECF0E942E0600915F10109189
:1010D000601020916110309162106C197D098E09A9
:1010E0009F09061717072807390708F08ACFC0CFCE
:1010F00081E0C3CF80E0C1CF82E0BFCF83E0BDCF2E
:101100000895E091CF0F8091CE0FE81730F4F0E012
:10111000E655F04F808190E008958FEF9FEF08959E
:101120009091CF0F8091CE0F2FEF3FEF981748F49B
:10113000E92FF0E0E655F04F208130E09F5F90937B
:10114000CF0FC90108958091CE0F9091CF0F891BC9
:10115000990B0895CF92DF92EF92FF920F931F9316
:10116000CF93DF937C01CB018A012091631022236E
:1011700089F0EB016B01C40ED51ECC15DD0569F0BD
:101180006991D701ED91FC910190F081E02DC701AB
:101190001995F3CF642F0E942A07C801DF91CF91E0
:1011A0001F910F91FF90EF90DF90CF900895CF9314
:1011B000DF931F92CDB7DEB769832091631022239E
:1011C000F9F020918610203258F021E030E0FC0147
:1011D0003383228390E080E00F90DF91CF910895D8
:1011E00080916410E82FF0E0EB59FF4E99819083D5
:1011F0008F5F809364108093861081E090E0ECCF45
:1012000061E0CE0101960E942A07F7CF682F87E898
:1012100090E10C94D7081092CF0F1092CE0F0E943D
:1012200051078EE894E09093CB0F8093CA0F8FE81C
:1012300094E09093CD0F8093CC0F8CE08093B80016
:101240008091A51091E09093631080938510109287
:101250006410109286108091AC109091AD1002979E
:1012600021F490E080E00E94060990E080E00E9476
:10127000060981E00C949007FC01248131E0309351
:10128000631020938510109264101092861083854D
:10129000862B90E00E94060981E00C949007089547
:1012A00090E080E00895CF93C82F60E00E9443054E
:1012B000C43271F0C532B9F00E9485066093930E76
:1012C0007093940E8093950E9093960ECF910895FF
:1012D0000E94850660938F0E7093900E8093910EFE
:1012E0009093920EF3CF0E94850660938B0E7093BD
:1012F0008C0E80938D0E90938E0EE8CF2091641308
:10130000222369F060937E13282FAEE6B3E1FC013F
:101310008E2F821B861718F481918D93F9CF089533
:101320004F925F926F927F928F929F92AF92BF92F5
:10133000CF92DF92EF92FF92CF93DF9310920F0E36
:101340001092100E1092110E1092120E10920B0E9F
:1013500010920C0E10920D0E10920E0EC0E8D0E0FE
:1013600087E30E940B06092E000CAA0BBB0B4091D1
:101370000F0E5091100E6091110E7091120E4C01D3
:101380005D01840E951EA61EB71E80920F0E9092D0
:10139000100EA092110EB092120E219709F7C0E81C
:1013A000D0E088E30E940B066C01990FEE08FF085D
:1013B00080910B0E90910C0EA0910D0EB0910E0E1F
:1013C0008C0D9D1DAE1DBF1D80930B0E90930C0EBA
:1013D000A0930D0EB0930E0E219719F727E0B69447
:1013E000A794979487942A95D1F780920F0E9092A4
:1013F000100EA092110EB092120E6C017D0137E01A
:10140000F694E794D794C7943A95D1F7C0920B0E0F
:10141000D0920C0EE0920D0EF0920E0E60914902E9
:1014200070914A0290E080E00E94D84F20E030E0C6
:1014300048EC52E40E940F522B013C01C501B4015B
:101440000E94D84FA30192010E94395020E030EC55
:101450004FE754E40E940F5220E030E048EC52E4A1
:101460000E9439500E948852EB01C701B6010E94C8
:10147000D84FA30192010E94395020E030EC4FE791
:1014800054E40E940F5220E030E048EC52E40E9405
:1014900039500E948852D093830EC093840E70936B
:1014A000850E6093860EDF91CF91FF90EF90DF90D5
:1014B000CF90BF90AF909F908F907F906F905F90F4
:1014C0004F9008954F925F926F927F928F929F926A
:1014D000AF92BF92CF92DF92EF92FF92CF93DF93C2
:1014E0001092070E1092080E1092090E10920A0E1A
:1014F000C0E8D0E086E30E940B066C01990FEE086D
:10150000FF088091070E9091080EA091090EB091EE
:101510000A0E8C0D9D1DAE1DBF1D8093070E90936E
:10152000080EA093090EB0930A0E219719F76C01CB
:101530007D0187E0F694E794D794C7948A95D1F714
:10154000C092070ED092080EE092090EF0920A0E99
:10155000609145027091460290E080E00E94D84F71
:101560004B015C016091490270914A0290E080E079
:101570000E94D84F20E030E048EC52E40E940F5225
:101580002B013C01C701B6010E94D84F9B01AC0161
:10159000C301B2010E94395020E030EC4FE754E41F
:1015A0000E940F526B017C016091470270914802CA
:1015B00090E080E00E94D84FA50194010E94A351C1
:1015C0009B01AC01C701B6010E943950A5019401ED
:1015D0000E940F5220E030E048EC52E40E94395063
:1015E0000E948852683522E07207A8F41092870E94
:1015F0001092880E1092060EDF91CF91FF90EF901F
:10160000DF90CF90BF90AF909F908F907F906F9022
:101610005F904F9008957093870E6093880E81E0DD
:101620008093060EE9CFFC012191241741F09F0120
:10163000281B390B26173707B8F380E0089581E09F
:101640000895F8948091A40F8093A50F789408953D
:10165000F8948091A50F9091A40F7894891B089518
:101660009091760E21E0290F30E0F8944091770EAA
:10167000789442171306C9F32A5F324FF901808329
:101680009F5F9093760E809131018062809331014B
:101690000895F8949091A50F8091A40F981304C019
:1016A000789480E092E0089578948091A40FE1E02E
:1016B000E80FF0E08F5F8093A40FEC55F14F20818D
:1016C0009091A30E892F90E0982F8827820F911D6B
:1016D0000895F8941092A50F1092A40F1092760E10
:1016E0001092770E78949093350180933401E1E362
:1016F000F1E0808188698083E2E3F1E080818660A7
:1017000080830895F8948091050D8093040D78945A
:101710000895F8948091040D9091050D7894891B9B
:10172000089590917F0E21E0290F30E0F8944091C8
:10173000800E789442171306C9F32C5F334FF901DA
:1017400080839F5F90937F0E8091D1008062809311
:10175000D10008959C01F8949091040D8091050D9D
:10176000981304C0789480E092E008957894909162
:10177000050DE92FF0E03196E20FF31FFF27EC5F34
:10178000F44F20819091030B892F90E0982F8827A8
:10179000820F911D0895F8949091040D8091050D8C
:1017A000981304C0789480E092E008957894809132
:1017B000050DE1E0E80FF0E08F5F8093050DEC5F31
:1017C000F44F20819091030B892F90E0982F882768
:1017D000820F911D0895F8941092040D1092050D3A
:1017E00010927F0E1092800E78949093D500809383
:1017F000D400E1EDF0E0808188698083E2EDF0E0E3
:101800008081866080830895F89480917B0E90910A
:101810007C0E20917D0E30917E0E7894821B930B6E
:10182000937008952091720E3091730E2F5F3F4F89
:101830003370F8944091740E5091750E789424177B
:101840003507B9F3F901ED5FF84F80833093730EDC
:101850002093720E8091C10080628093C100089530
:10186000F89420917B0E30917C0E80917D0E9091AA
:101870007E0E2817390721F4789480E092E00895CD
:10188000789480917D0E90917E0E01969370909346
:101890007E0E80937D0E8D5F9C4FFC012081909188
:1018A0000203892F90E0982F8827820F911D0895B9
:1018B0002F923F924F925F926F927F928F929F9260
:1018C000AF92BF92CF92DF92EF92FF920F931F934E
:1018D000CF93DF936B017C014A0159013324339488
:1018E000A114B10409F41AC1C091A910D091AA1091
:1018F000CE0101978C219D21C81BD90BC50121E286
:10190000A216B10410F080E290E08C179D0708F455
:10191000EC018091AB10A701960104C05695479544
:10192000379527958A95D2F72090A510222A3092D4
:10193000631020928510109264101092861080918E
:10194000AC109091AD10029741F499278F2D7E2D08
:101950006D2D87E890E10E94D7086C2D87E890E113
:101960000E94D70881E00E949007082F8111D7C0FC
:101970000E942E062B013C0180915D10811166C0F2
:101980001C2F30925D1030925C103FEF30935B1053
:1019900010925A108C2F8150809359103092381029
:1019A00080913810220C282A20923810809137100C
:1019B000813009F084C0109237100E942E062B014E
:1019C0003C01809138108093BB0080915F10909112
:1019D0006010A0916110B0916210892B8A2B8B2B23
:1019E000A1F00E942E0620915F103091601040916E
:1019F00061105091621064197509860997092617BC
:101A000037074807590708F442C08091BC0083FD9E
:101A1000D8CF45EC4093BC000E942E062B013C0120
:101A200080915D10813009F44EC080915A10811769
:101A300010F410915A10E9E3F0E1AAEABFE080E067
:101A4000811751F191919D938F5FFACF80915F1033
:101A500090916010A0916110B0916210892B8A2B37
:101A60008B2B09F489CF0E942E0620915F103091B4
:101A700060104091611050916210641975098609D7
:101A80009709261737074807590708F075CF80913F
:101A90005E100E946F0710E01092CF0F1093CE0FD0
:101AA000602E712C6C167D0680F587E890E10E940F
:101AB0009008F401E60DF71D80830F5FF1CF55EE1E
:101AC0005093BC00A9CF80915F1090916010A091BD
:101AD0006110B0916210892B8A2B8B2B09F4A0CF57
:101AE0000E942E0620915F1030916010409161108D
:101AF00050916210641975098609970926173707EE
:101B00004807590708F08CCFC2CFCC0EDD1EE11C70
:101B1000F11C8C0E9D1EAC1ABD0AE2CE00E0802F97
:101B2000DF91CF911F910F91FF90EF90DF90CF90B9
:101B3000BF90AF909F908F907F906F905F904F90ED
:101B40003F902F900895CF92DF92EF92FF920F93E4
:101B50001F93CF93DF931F92CDB7DEB76B017C014C
:101B60002FEFC21AD20AE20AF20A0091AE101091C7
:101B7000AF102091B0103091B1100C151D052E053D
:101B80003F05B0F021E030E0AE014F5F5F4F0E94B3
:101B9000580C90E0009771F4898190E00F90DF91EC
:101BA000CF911F910F91FF90EF90DF90CF9008950C
:101BB00089E0EFCF919581959109F0CF0F931F9315
:101BC000CF938C01C62F0E943C096C2F6460C80122
:101BD0000E943C096C2F6B7FC8010E943C0983EC7A
:101BE00090E00197F1F7CF911F910F9108950F9316
:101BF0001F93CF93DF938C01D62FC42F607F642B6C
:101C00000E94DE0D80E1D89FB00111246C2BC80129
:101C1000DF91CF911F910F910C94DE0DCF93DF9345
:101C200000D000D01F921F92CDB7DEB798E0EEE64D
:101C3000F2E0DE01119601900D929A95E1F79091F4
:101C4000A210961710F46FEF690F262F30E0220FC5
:101C5000331F41E050E04C0F5D1F240F351FF90189
:101C60006081680F606840E089E990E128960FB6CE
:101C7000F894DEBF0FBECDBFDF91CF910C94F70D6E
:101C800041E00E94F70D81E090E008950F931F93CB
:101C9000CF93DF938B0198E0899FB001112460649A
:101CA00040E089E990E10E94F70DE801085F1F4FCD
:101CB000699189E990E10E94400EC017D107C1F7F0
:101CC000DF91CF911F910F9108950F931F93CF93A1
:101CD000DF938C01D0E0C0E0F801EC0FFD1F6491B0
:101CE000662339F041E089E990E10E94F70D2196E1
:101CF000F3CFCE01DF91CF911F910F91089540E076
:101D000061E089E990E10E94F70D8BE39FE1019783
:101D1000F1F708950E947F0E8091A70F843171F52D
:101D20008091A60F843009F042C060E080E00E94FC
:101D30000E0E81E293E00E94650E61E080E00E9459
:101D40000E0E8CE093E00E94650E62E080E00E943F
:101D50000E0E87EF92E00E94650E63E080E00E9425
:101D60000E0E82EE92E00E94650E61E087E00E9416
:101D70000E0E65E089E990E10C94400E8031B9F4D3
:101D80008091A60F823099F460E080E00E940E0EF0
:101D900081ED92E00E94650E61E080E00E940E0EEF
:101DA00080EC92E00E94650E61E083E0E0CF60E0AD
:101DB00080E00E940E0E87EB92E00C94650E0E946C
:101DC0007F0E8091A70F843171F58091A60F84302A
:101DD00009F042C060E080E00E940E0E82EA92E0CC
:101DE0000E94650E61E080E00E940E0E8DE892E098
:101DF0000E94650E62E080E00E940E0E88E792E08D
:101E00000E94650E63E080E00E940E0E83E692E081
:101E10000E94650E61E087E00E940E0E65E089E990
:101E200090E10C94400E8031B9F48091A60F82307D
:101E300099F460E080E00E940E0E82E592E00E943C
:101E4000650E61E080E00E940E0E81E492E00E9447
:101E5000650E61E083E0E0CF60E080E00E940E0E5E
:101E600088E392E00C94650EFC0101900020E9F7F4
:101E70003197AF01481B590BBC0189E990E10C94E3
:101E800016058F929F92AF92BF920F931F93CF939D
:101E9000DF93CDB7DEB7A1970FB6F894DEBF0FBEC4
:101EA000CDBF19A2423008F44AE08E010F5D1F4FEA
:101EB000842E912CB12CA12CA50194010E9471516A
:101EC000E62FB901CA01EA30F4F4E05DD801EE93DF
:101ED0008D01232B242B252B79F790E080E01097A0
:101EE00019F0CD010E94340FA1960FB6F894DEBF11
:101EF0000FBECDBFDF91CF911F910F91BF90AF90DB
:101F00009F908F900895E95CE1CFBC0190E080E064
:101F10004AE00C94410F0C94340F4F925F926F92F1
:101F20007F928F929F92AF92BF92CF92DF92EF9269
:101F3000FF920F931F93CF936B017C01B42EAC01E2
:101F40009B010E94BC52882399F08EED92E0CF91C4
:101F50001F910F91FF90EF90DF90CF90BF90AF90C7
:101F60009F908F907F906F905F904F900C94340F64
:101F700026013701E89477F82FEF3FEF4FE75FE74F
:101F8000C301B2010E94BC5281110DC02FEF3FEF7F
:101F90004FE75FE7C301B2010E94D34F18161CF44C
:101FA00082EE92E0D4CF2FEF3FEF4FE75FE4C7011F
:101FB000B6010E94B75218161CF486EE92E0C7CF05
:101FC0002FEF3FEF4FE75FECC701B6010E94D34F01
:101FD00087FDF3CF20E030E0A901C701B6010E94E0
:101FE000D34F10E000E087FF0CC041E06DE289E9CB
:101FF00090E10E94F70DF7FAF094F7F8F09401E001
:1020000010E0CB2DA12C60E070E080E09FE3AB14EA
:1020100040F420E030E040E251E40E940F52A394EB
:10202000F6CFA70196010E94A3512B013C010E940B
:1020300088526B017C014AE00E94410F080F191F72
:10204000BB20B1F1C701B6010E94D84F9B01AC0182
:10205000C301B2010E94A2514B015C0141E06EE25A
:1020600089E990E10E94F70D0F5F1F4FC15000F109
:1020700020E030E040E251E4C501B4010E94395053
:102080002B013C010E9488524B01CB010E94850F1D
:10209000080F191FB40190E080E00E94D84F9B0107
:1020A000AC01C301B2010E94A2514B015C01DECF21
:1020B000C801CF911F910F91FF90EF90DF90CF90CB
:1020C000BF90AF909F908F907F906F905F904F9058
:1020D00008958F929F92AF92BF92EF92FF920F93CB
:1020E0001F93CF93DF93CDB7DEB72C970FB6F8943D
:1020F000DEBF0FBECDBF81E080934D02F090A60FF2
:10210000E090A70F80918A0E10929C1010929B1065
:1021100080939D108E8180939E108F8180939F105D
:1021200088858093A010E092A110F092A2101092E6
:10213000A31018E01093A4101092CF0F1092CE0F9E
:1021400010926410109286100E9451078EE894E05D
:102150009093CB0F8093CA0F8FE894E09093CD0FAC
:102160008093CC0F10929E108091A210823010F0BC
:1021700010939E109091A310992339F0813029F487
:1021800080919E10846080939E1062E370E080E0F6
:1021900090E00E9453066091A41089E990E10E94AA
:1021A0003C0968EE73E080E090E00E94530660E333
:1021B00089E990E10E94DE0D0BE416E4C801019765
:1021C000F1F760E389E990E10E94DE0DC801019713
:1021D000F1F760E389E990E10E94DE0D83E592E08A
:1021E0000197F1F760E289E990E10E94DE0D6091CC
:1021F0009E10606240E089E990E10E94F70D84E062
:1022000080939F1040E06CE089E990E10E94F70D17
:102210000E947F0E82E08093A01040E066E089E992
:1022200090E10E94F70D40E062E089E990E10E94B0
:10223000F70D0BE31FE1C8010197F1F788E08093E8
:10224000A41060E089E990E10E943C090E947F0EA1
:1022500040E062E089E990E10E94F70DC801019732
:10226000F1F76091700E7091710E762767277627CF
:1022700090E080E00E94D84F20E030E048EC52E44B
:102280000E940F524B015C0184E1E81257C084E0C8
:10229000F8126FC083E292E00E94650E61E080E078
:1022A0000E940E0E8EE092E00E94650E62E080E0D9
:1022B0000E940E0E81E092E00E94650E42E050E026
:1022C000C501B4010E948D0F8CEF91E00E94650E54
:1022D00063E080E00E940E0E87EE91E00E94650EA2
:1022E00068E272E080E00E94460E60E272E081E007
:1022F0000E94460E68E172E082E00E94460E60E1B4
:1023000072E083E00E94460E68E072E084E00E9482
:10231000460E60E072E085E02C960FB6F894DEBFC2
:102320000FBECDBFDF91CF911F910F91FF90EF9026
:10233000BF90AF909F908F900C94460E80E1E81272
:1023400018C082E0F81215C086ED91E00E94650E7B
:1023500061E080E00E940E0E8BEC91E00E94650E21
:1023600042E050E0C501B4010E948D0F88EC91E07D
:10237000B5CF80EC91E0B2CFCF92DF92EF92FF9297
:1023800040E054E264EF75E4409307105093081066
:102390006093091070930A1080930B108AE0809369
:1023A0000C1081E080930D1080930E101092E00FBE
:1023B0008093051080930610F8941092F10F1092FC
:1023C0000210109203101092041020E030E040E858
:1023D00051E460910710709108108091091090915C
:1023E0000A100E9439509B01AC0160E074E284E75E
:1023F0009BE40E940F5220E030E040E85FE30E943F
:10240000A2510E9488527F707093CD006093CC00DF
:102410008091C90088698093C9008091CA00866054
:102420008093CA00789483E090E090931210809398
:102430001110F89410929000109291001092950053
:102440001092940080911110909112109093990025
:102450008093980080919100886080939100809192
:1024600071008260809371007894E3E1F0E180E292
:10247000DF011D928A95E9F780910B1062E08823B5
:1024800009F43DC082E00E94CF0581E197E090937E
:1024900055028093540280916A008C7F8160809302
:1024A0006A00EC9A87E090E09093101080930F10F0
:1024B000F894109280001092810010928500109282
:1024C0008400259A809180008064809380008091B0
:1024D0000F10909110109093890080938800809144
:1024E0006F008D7F80936F00809181008960809361
:1024F00081007894FF90EF90DF90CF90089583E073
:102500000E94CF058CEF96E090935702809356027D
:1025100080916A00837F886080936A00ED9A2091A1
:102520000710309108104091091050910A1060E096
:1025300070E080E89FE30E940F5220E034E244E71D
:102540005BE40E9439506B017C0160910C1070E0DB
:1025500090E080E00E94DA4F20E030E040E251E479
:102560000E94A3519B01AC01C701B6010E943950E2
:1025700020E030E040E85AE30E94395020E030E0AB
:1025800040E85FE30E94A2510E94885270931010AD
:1025900060930F10F89410928000109281001092B6
:1025A000850010928400259880910F109091101052
:1025B0009093890080938800809181008860809347
:1025C000810080916F00826080936F0092CF2F9284
:1025D0003F924F925F926F927F928F929F92AF92B3
:1025E000BF92CF92DF92EF92FF920F931F93CF9300
:1025F000DF93CDB7DEB70DB71EB79091A90F992322
:1026000059F12DB63EB69CEF940F2DB73EB7291B5E
:1026100031090FB6F8943EBF0FBE2DBFEDB7FEB720
:1026200031967F01992311F40C94231FFB013496FA
:10263000D70124E0241720F431913D932F5FFACF86
:1026400020915302213001F1223009F4BEC50FB6AA
:10265000F8943EBE0FBE2DBE0FB6F8941EBF0FBE3F
:102660000DBFDF91CF911F910F91FF90EF90DF9001
:10267000CF90BF90AF909F908F907F906F905F9022
:102680004F903F902F900895813009F7F701808196
:102690008C3809F403C108F041C0843209F49CC0AD
:1026A0008234A9F6943098F2618170E090E080E085
:1026B0000E94DA4F26E636E646E25FE30E94395092
:1026C0006B017C0120E030E0A9010E94B75220E0BC
:1026D00030E040E05FE387FDC5C0C701B6010E945E
:1026E000A3510E948152F62E8091A70F843109F0E8
:1026F000AECF8091A60F843009F0A9CFF9E0FF1585
:1027000008F4B5C060E080E10E940E0E8DEE92E00C
:102710000E948B0F8F2D0E94A53999CF843D09F41B
:10272000DFC2843E09F4ABC38E3C09F090CF9630F3
:1027300008F48DCF61817281838194810E94C95296
:102740002091A80F211111C20E94D84F20E030E043
:1027500040E05EE30E9439506B017C0120E030E0F4
:10276000A9010E94B75220E030E040E05FE387FD1E
:1027700011C2C701B6010E94A3510E9481520E945A
:10278000DA4F20E030E04AE754E40E940F526B0138
:102790007C018091A70F843109F059CF8091A60F59
:1027A000843009F054CF20E030E040E251E4C7012A
:1027B000B6010E94D34F87FFF2C163E080E00E9420
:1027C0000E0E8AEE92E00E948B0F43E050E0C701AC
:1027D000B6010E948D0F3BCF943008F438CF809122
:1027E000A80F811119C0F1808091A70F8431D1F415
:1027F0008091A60F843009F02ACFF9E0FF15D8F0B8
:1028000060E080E00E940E0E8DEE92E00E948B0F41
:102810008F2D0E94A5391BCF813011F4F280E4CFB7
:10282000F12CE2CF803109F012CF8091A60F8230D7
:1028300009F00DCFE2CF86EF8F0D60E08A3558F4B6
:1028400080E00E940E0E8EEE92E00E948B0F8F2D84
:102850000E94A539FCCE80E00E940E0E8F2D0E94B2
:10286000A539F5CEC701B6010E94A2513ACF86EF35
:102870008F0D60E08A3558F480E10E940E0E8EEED6
:1028800092E00E948B0F8F2D0E94A539E0CE80E14F
:102890000E940E0E8F2D0E94A539D9CE943008F4D7
:1028A000D6CE8091A80F81117DC0618170E090E04B
:1028B00080E00E94DA4F26E636E646EE5FE30E94AD
:1028C000395026E636E646E453E40E94A2512B0135
:1028D0003C0120E030E0A9010E94B75220E030E046
:1028E00040E05FE387FD54C0C301B2010E94A351E1
:1028F0000E9481526B01F701628170E090E080E0FC
:102900000E94DA4F26E636E646EE5FE30E94395033
:1029100026E636E646E453E40E94A2512B013C0130
:1029200020E030E0A9010E94B75220E030E040E012
:102930005FE387FD32C0C301B2010E94A3510E9430
:1029400081527B018091A70F843109F0B1C0809141
:10295000A60F843009F07BCE9DE9C9169FEFD906FA
:102960009CF561E080E00E940E0E81EF92E00E94F3
:102970008B0F2DE9E2162FEFF2060CF052C061E04A
:1029800084E00E940E0E81EF92E00E948B0F5FCEDA
:10299000C301B2010E94A251ABCFC301B2010E9498
:1029A000A251CDCF813059F46181262F2058330BAD
:1029B00069016281862F8058990B7C01C3CFF12C6D
:1029C000E12CD12CC12CBECFC6018D599F4F61E0A7
:1029D0008A35910510F161E0E7EFCE16EFEFDE06E4
:1029E000B0F4FAE0CF16D10460F461E080E00E9418
:1029F0000E0E8DEE92E00E948B0FC6010E94AC3944
:102A0000B8CFC6010A9761E08A35910530F480E0BD
:102A10000E940E0E8EEE92E0EECF80E00E940E0E2F
:102A2000ECCFC7018D599F4F8A35910540F461E085
:102A300084E00E940E0EC7010E94AC3908CE37EF29
:102A4000E3163FEFF30660F061E084E00E940E0EB3
:102A50008EEE92E00E948B0FC7010E94AC39F7CD39
:102A60008AE0E816F10460F461E084E00E940E0E52
:102A70008DEE92E00E948B0FC7010E94AC39E7CD2A
:102A8000C7010A9761E08A35910558F484E00E94F5
:102A90000E0E8EEE92E00E948B0FC7010E94AC39A1
:102AA000D6CD84E00E940E0EC7010E94AC39CFCD76
:102AB000803109F0CCCD8091A60F823009F0C7CDCE
:102AC0009DE9C9169FEFD9064CF461E080E00E94B1
:102AD0000E0E81EF92E00E948B0FB9CDC6018D5989
:102AE0009F4F8A35910540F461E080E00E940E0E10
:102AF000C6010E94AC39ABCDE7EFCE16EFEFDE0694
:102B000060F061E080E00E940E0E8EEE92E00E9486
:102B10008B0FC6010E94AC399ACDFAE0CF16D104D2
:102B200060F461E080E00E940E0E8DEE92E00E9463
:102B30008B0FC6010E94AC398ACDC6010A9761E0AD
:102B40008A35910558F480E00E940E0E8EEE92E0D8
:102B50000E948B0FC6010E94AC3979CD80E00E94A3
:102B60000E0EC6010E94AC3972CDC12CD12C76015B
:102B7000213009F00ECE0E94D84F22E03BE249EC12
:102B800054E40E94395020E030E04AEF55E40E94BE
:102B90000F52E2CDC701B6010E94A251EECD20E056
:102BA00030E040E251E4C701B6010E94B75287FD10
:102BB00019C020E030E048EC52E4C701B6010E94A1
:102BC000D34F87FF0FC063E080E00E940E0E8BEEB4
:102BD00092E00E948B0F43E050E0C701B6010E94D3
:102BE0008D0F35CD20E030E048EC52E4C701B6014E
:102BF0000E94B75287FD19C020E030E04AE754E454
:102C0000C701B6010E94D34F87FF0FC063E080E089
:102C10000E940E0E8CEE92E00E948B0F43E050E07B
:102C2000C701B6010E948D0F12CD20E030E04AE7C7
:102C300054E4C701B6010E94B75287FD19C020E0D5
:102C400030E44CE156E4C701B6010E94D34F87FF40
:102C50000FC063E080E00E940E0E8DEE92E00E94B5
:102C60008B0F43E050E0C701B6010E948D0FEFCCFF
:102C700020E030E44CE156E4C701B6010E94B752AF
:102C800087FD19C020E030E543EC57E4C701B601E9
:102C90000E94D34F87FF0FC063E080E00E940E0EBA
:102CA0008EEE92E00E948B0F43E050E0C701B60128
:102CB0000E948D0FCCCC20E030E543EC57E4C701F7
:102CC000B6010E94B75287FDC2CC63E080E00E944B
:102CD0000E0E43E050E0C701B6010E948D0FB7CC45
:102CE000943008F4B4CC618170E090E080E00E9400
:102CF000DA4F20E030E040E251E40E94395020E019
:102D000030E040E85DE30E9439502B013C0120E0B7
:102D100030E0A9010E94B75220E030E040E05FE3DC
:102D200087FD7FC0C301B2010E94A3510E9481525E
:102D30000E94DA4F4B015C01F701628170E090E084
:102D400080E00E94DA4F20E030E040E251E40E944F
:102D5000395020E030E040E85DE30E9439506B01DB
:102D60007C0120E030E0A9010E94B75220E030E071
:102D700040E05FE387FD5AC0C701B6010E94A3513E
:102D80000E9481520E94DA4F2B013C018091A70FD3
:102D9000843109F05CCC8091A60F843009F057CCC7
:102DA00020E030E040E251E4C501B4010E940F523E
:102DB0006B017C0120E030E040E251E40E94D34FFF
:102DC00087FF39C062E080E00E940E0E8EEE92E036
:102DD0000E948B0F41E050E0C701B6010E948D0FA9
:102DE00020E030E040E251E4C301B2010E940F5202
:102DF0006B017C0120E030E040E251E40E94D34FBF
:102E000087FF28C062E085E00E940E0E8EEE92E001
:102E10000E948B0F41E050E0C701B6010E948D0F68
:102E200016CCC301B2010E94A25180CFC701B601E6
:102E30000E94A251A5CF20E030E040E251E4C7015A
:102E4000B6010E94B75287FDCBCF62E080E00E94BE
:102E50000E0EC0CF20E030E040E251E4C701B601E1
:102E60000E94B75287FDF3CB62E085E00E940E0E10
:102E700041E050E0C701B6010E948D0FE8CB9430CD
:102E800008F4E5CB8091A80F811168C0C180F0E201
:102E9000CF9E60011124F701628170E090E080E034
:102EA0000E94DA4F20E030E040E251E40E943950C5
:102EB00025EB32EC44E75DE30E9439502B013C01E5
:102EC00020E030E0A9010E94B75220E030E040E06D
:102ED0005FE387FD61C0C301B2010E94A3510E945C
:102EE00081520E94DA4F20E030E040E251E40E943B
:102EF0000F522B013C018091A70F843109F0A6C02D
:102F00008091A60F843009F026C1FAE0CF16D104D3
:102F100008F047C060E088E00E940E0E8CEE92E060
:102F20000E948B0FC6010E94850F20E030E040E236
:102F300051E4C301B2010E94D34F87FF4FC061E04B
:102F40008DE00E940E0E8EEE92E00E948B0F41E00B
:102F500050E0C301B2010E948D0F79CB412C512C5E
:102F60003201D12CC12C813031F6C180F0E2CF9EEC
:102F700060011124F701628170E090E080E00E941E
:102F8000DA4F20E030E040E251E40E94395029ED70
:102F900031EA4CED50E48ACFC301B2010E94A25144
:102FA0009ECFC6010A978A35910538F460E088E023
:102FB0000E940E0E8DEE92E0B3CFC60184569109A9
:102FC00060E08438934030F488E00E940E0E8EEE6C
:102FD00092E0A6CF88E00E940E0EA4CF20E030E061
:102FE00040E251E4C301B2010E94B75287FD15C00F
:102FF00020E030E048EC52E4C301B2010E94D34F1C
:1030000087FF0BC061E08DE00E940E0E41E050E0B2
:10301000C301B2010E948D0F1ACB20E030E048ECD2
:1030200052E4C301B2010E94B75287FD10CB61E0A8
:103030008DE00E940E0E8EEE92E00E948B0F50E00B
:1030400040E0C301B2010E948D0F01CB803109F035
:1030500082C08091A60F823009F07DC03AE0C3168D
:10306000D10420F560E089E00E940E0E8CEE92E023
:103070000E948B0FC6010E94850F20E030E040E2E5
:1030800051E4C301B2010E94D34F87FF2CC061E01D
:1030900089E00E940E0E8EEE92E00E948B0F41E0BE
:1030A00050E0C301B2010E948D0FD1CAC6010A9738
:1030B0008A35910538F460E089E00E940E0E8DEEAD
:1030C00092E0D6CFC6018456910960E084389340DF
:1030D00030F489E00E940E0E8EEE92E0C9CF89E0B6
:1030E0000E940E0EC7CF20E030E040E251E4C30161
:1030F000B2010E94B75287FD15C020E030E048ECD5
:1031000052E4C301B2010E94D34F87FF0BC061E0BC
:1031100089E00E940E0E41E050E0C301B2010E941E
:103120008D0F95CA20E030E048EC52E4C301B201B3
:103130000E94B75287FD8BCA61E089E00E940E0EA3
:103140008EEE92E00E948B0F50E040E0C301B2018E
:103150000E948D0F7CCAFAE0CF16D10460F460E0C3
:1031600081E00E940E0E8CEE92E00E948B0FC60151
:103170000E94850F6CCAC6010A978A35910560F4D2
:1031800060E081E00E940E0E8DEE92E00E948B0FB7
:10319000C6010E94850F5BCAC6018456910960E092
:1031A0008438934058F481E00E940E0E8EEE92E037
:1031B0000E948B0FC6010E94850F49CA81E00E94C0
:1031C0000E0EC6010E94850F42CA823009F03FCA26
:1031D000F7018081843109F03ACA933008F437CA84
:1031E00081818B3009F4ADC270F5853009F451C18D
:1031F0008A3009F436C2813009F029CA8091A80FBB
:10320000811188C0E280F12C8091A70F843109F0F0
:10321000EBC08091A60F843009F019CAFDE9EF16C2
:10322000FFEFFF060CF4ABCBC7018D599F4F8A35DA
:10323000910508F0A0C061E084E00E940E0EC70175
:103240000E94AC3904CA843209F4F7C418F58131FC
:1032500009F0FDC9E280F0E2EF9E70011124809137
:10326000A70F843109F066C48091A60F843009F05D
:10327000A6C42AE0E216F1040CF02FC460E088E056
:103280000E940E0E8CEE92E00E948B0FC7010E94EE
:10329000850FDDC9813409F440C5863409F0D7C9EA
:1032A000628170E090E080E00E94DA4F20E73EEC1F
:1032B00048EC5EE30E9439506B017C0120E030E075
:1032C000A9010E94B75220E030E040E05FE387FDB3
:1032D0009CC5C701B6010E94A3510E948152F62EDF
:1032E0008091A70F843109F0B2C98091A60F843074
:1032F00009F0ADC9F9E0FF1508F48CC560E080E184
:103300000E940E0E8DEE92E00E948B0F8F2D0E9478
:10331000A5399DC9813061F5628170E090E080E05F
:103320000E94DA4F2BEE38E34EE05FE30E94395003
:1033300025EE38E34EE851E40E94A2516B017C0176
:1033400020E030E0A9010E94B75220E030E040E0E8
:103350005FE387FD08C0C701B6010E94A3510E9428
:1033600081527B0151CFC701B6010E94A251F7CF14
:10337000F12CE12C49CF27EFE2162FEFF20660F097
:1033800061E084E00E940E0E8EEE92E00E948B0FB0
:10339000C7010E94AC395BC93AE0E316F10460F45E
:1033A00061E084E00E940E0E8DEE92E00E948B0F91
:1033B000C7010E94AC394BC9C7010A9761E08A3541
:1033C000910558F484E00E940E0E8EEE92E00E9469
:1033D0008B0FC7010E94AC393AC984E00E940E0EDF
:1033E000C7010E94AC3933C9803109F030C98091DE
:1033F000A60F823009F02BC98DE9E8168FEFF80689
:103400000CF4BDCAC7018D599F4F8A35910540F410
:1034100061E084E00E940E0EC7010E94AC3917C91A
:1034200097EFE9169FEFF90660F061E084E00E94F3
:103430000E0E8EEE92E00E948B0FC7010E94AC39F7
:1034400006C9EAE0EE16F10460F461E084E00E944F
:103450000E0E8DEE92E00E948B0FC7010E94AC39D8
:10346000F6C8C7010A9761E08A35910558F484E0EF
:103470000E940E0E8EEE92E00E948B0FC7010E94FA
:10348000AC39E5C884E00E940E0EC7010E94AC3939
:10349000DEC88091A80F811149C0628170E090E080
:1034A00080E00E94DA4F26E636E646EE5FE30E94B1
:1034B000395026E636E646E453E40E94A2516B01F9
:1034C0007C0120E030E0A9010E94B75220E030E00A
:1034D00040E05FE387FD25C0C701B6010E94A3510C
:1034E0000E9481527B018091A70F843109F062C054
:1034F0008091A60F843009F0AAC83DE9E3163FEF9A
:10350000F3060CF4E2CAC7018D599F4F8A35910525
:10351000C0F461E080E00E940E0EC7010E94AC3949
:1035200096C8C701B6010E94A251DACF813031F4AA
:103530006281262F2058330B7901D5CFF12CE12C55
:10354000D2CF87EFE8168FEFF80660F061E080E0F9
:103550000E940E0E8EEE92E00E948B0FC7010E9419
:10356000AC3975C89AE0E916F10460F461E080E0D6
:103570000E940E0E8DEE92E00E948B0FC7010E94FA
:10358000AC3965C8C7010A9761E08A35910558F4DE
:1035900080E00E940E0E8EEE92E00E948B0FC7011B
:1035A0000E94AC3954C880E00E940E0EC7010E94F0
:1035B000AC394DC8803109F04AC88091A60F8230DD
:1035C00009F045C8EDE9EE16EFEFFE060CF47DCAF2
:1035D000C7018D599F4F8A35910540F461E080E025
:1035E0000E940E0EC7010E94AC3931C8F7EFEF16EA
:1035F000FFEFFF0660F061E080E00E940E0E8EEEAD
:1036000092E00E948B0FC7010E94AC3920C82AE0CB
:10361000E216F10460F461E080E00E940E0E8DEE8F
:1036200092E00E948B0FC7010E94AC3910C8C701FD
:103630000A9761E08A35910560F480E00E940E0EE1
:103640008EEE92E00E948B0FC7010E94AC390C9461
:10365000271380E00E940E0EC7010E94AC390C9423
:103660002713628170E090E080E00E94DA4F20E052
:1036700030E040E251E40E94395020E030E040E880
:103680005DE30E9439506B017C0120E030E0A9012C
:103690000E94B75220E030E040E05FE387FD34C095
:1036A000C701B6010E94A3510E9481520E94DA4FC5
:1036B0002091A70F243111F00C9427132091A60F0D
:1036C000243011F00C94271320E030E040E251E464
:1036D0000E940F526B017C0120E030E040E251E497
:1036E0000E94D34F87FF15C062E080E00E940E0E5B
:1036F0008EEE92E00E948B0F41E050E0C701B601D0
:103700000E948D0F0C942713C701B6010E94A2518D
:10371000CBCF20E030E040E251E4C701B6010E9487
:10372000B75287FF02C00C94271362E080E00E942A
:103730000E0E41E050E0C701B6010E948D0F0C94BF
:1037400027138091A80F81114EC0628170E090E034
:1037500080E00E94DA4F20E030E040E251E40E9435
:10376000395025EB32EC44E75DE30E9439506B01A0
:103770007C0120E030E0A9010E94B75220E030E057
:1037800040E05FE387FD3EC0C701B6010E94A35140
:103790000E9481520E94DA4F20E030E040E251E482
:1037A0000E940F526B017C018091A70F843109F0B8
:1037B000D4C08091A60F843011F00C94271320E020
:1037C00030E046EC52ECC701B6010E94D34F181608
:1037D00014F161E08DE00E940E0E80EF92E00E94F5
:1037E0008B0F0C942713813091F4628170E090E08C
:1037F00080E00E94DA4F29ED31EA4CED50E40E945E
:103800003950A9CFC701B6010E94A251C1CFC12C26
:10381000D12C7601C9CF20E030E046EC52ECC70154
:10382000B6010E94B7521816D4F420E030E040E20E
:1038300051ECC701B6010E94D34F181684F061E025
:103840008DE00E940E0E8EEE92E00E948B0F50E0F3
:1038500040E0C701B6010E948D0F0C94271320E0B1
:1038600030E040E251ECC701B6010E94B752181691
:10387000ACF420E030E0A901C701B6010E94D34FAB
:1038800087FF0CC061E08DE00E940E0E41E050E029
:10389000C701B6010E948D0F0C94271320E030E081
:1038A000A901C701B6010E94B75287FD1AC020E0E6
:1038B00030E040E251E4C701B6010E94D34F87FFD8
:1038C00010C061E08DE00E940E0E8EEE92E00E942C
:1038D0008B0F41E050E0C701B6010E948D0F0C94A0
:1038E000271320E030E040E251E4C701B6010E9416
:1038F000B75287FD16C020E030E048EC52E4C70123
:10390000B6010E94D34F87FF0CC061E08DE00E949A
:103910000E0E41E050E0C701B6010E948D0F0C94DD
:10392000271320E030E048EC52E4C701B6010E94C2
:10393000B75287FF02C00C94271361E08DE00E940C
:103940000E0E8EEE92E00E948B0F50E040E0C70119
:10395000B6010E948D0F0C942713803111F00C9446
:1039600027138091A60F823011F00C94271320E0CA
:1039700030E046EC52ECC701B6010E94D34F181656
:1039800054F061E089E00E940E0E80EF92E00E9408
:103990008B0F0C94271320E030E046EC52ECC7016B
:1039A000B6010E94B7521816D4F420E030E040E28D
:1039B00051ECC701B6010E94D34F181684F061E0A4
:1039C00089E00E940E0E8EEE92E00E948B0F50E076
:1039D00040E0C701B6010E948D0F0C94271320E030
:1039E00030E040E251ECC701B6010E94B752181610
:1039F000ACF420E030E0A901C701B6010E94D34F2A
:103A000087FF0CC061E089E00E940E0E41E050E0AB
:103A1000C701B6010E948D0F0C94271320E030E0FF
:103A2000A901C701B6010E94B75287FD1AC020E064
:103A300030E040E251E4C701B6010E94D34F87FF56
:103A400010C061E089E00E940E0E8EEE92E00E94AE
:103A50008B0F41E050E0C701B6010E948D0F0C941E
:103A6000271320E030E040E251E4C701B6010E9494
:103A7000B75287FD16C020E030E048EC52E4C701A1
:103A8000B6010E94D34F87FF0CC061E089E00E941D
:103A90000E0E41E050E0C701B6010E948D0F0C945C
:103AA000271320E030E048EC52E4C701B6010E9441
:103AB000B75287FF02C00C94271361E089E00E948F
:103AC0000E0E8EEE92E00E948B0F50E040E0C70198
:103AD000B6010E948D0F0C942713C7010A978A35EF
:103AE000910568F460E088E00E940E0E8DEE92E091
:103AF0000E948B0FC7010E94850F0C942713C701EA
:103B00008456910960E08438934060F488E00E9414
:103B10000E0E8EEE92E00E948B0FC7010E94850F61
:103B20000C94271388E00E940E0EC7010E94850F97
:103B30000C942713803109F042C08091A60F823087
:103B4000F1F58AE0E816F1046CF460E089E00E9487
:103B50000E0E8CEE92E00E948B0FC7010E94850F23
:103B60000C942713C7010A978A35910568F460E021
:103B700089E00E940E0E8DEE92E00E948B0FC7012D
:103B80000E94850F0C942713C7018456910960E0A9
:103B90008438934060F489E00E940E0E8EEE92E02D
:103BA0000E948B0FC7010E94850F0C94271389E098
:103BB0000E940E0EC7010E94850F0C942713FAE095
:103BC000EF16F1046CF460E081E00E940E0E8CEEC2
:103BD00092E00E948B0FC7010E94850F0C9427135F
:103BE000C7010A978A35910568F460E081E00E9478
:103BF0000E0E8DEE92E00E948B0FC7010E94850F82
:103C00000C942713C7018456910960E084389340CF
:103C100060F481E00E940E0E8EEE92E00E948B0F07
:103C2000C7010E94850F0C94271381E00E940E0E9D
:103C3000C7010E94850F0C942713628170E090E009
:103C400080E00E94DA4F20E030E040E251E40E9440
:103C5000395020E030E040E85DE30E9439506B01CC
:103C60007C0120E030E0A9010E94B75220E030E062
:103C700040E05FE387FD34C0C701B6010E94A35155
:103C80000E9481520E94DA4F2091A70F243111F037
:103C90000C9427132091A60F243011F00C942713B5
:103CA00020E030E040E251E40E940F526B017C01C1
:103CB00020E030E040E251E40E94D34F87FF15C07E
:103CC00062E085E00E940E0E8EEE92E00E948B0F65
:103CD00041E050E0C701B6010E948D0F0C942713FC
:103CE000C701B6010E94A251CBCF20E030E040E2F4
:103CF00051E4C701B6010E94B75287FF02C00C947D
:103D0000271362E085E00E940E0E41E050E0C701FB
:103D1000B6010E948D0F0C9427138091A80F81117A
:103D20003AC0628170E090E080E00E94DA4F20E0CB
:103D300030E040E05FE30E9439506B017C0120E0FD
:103D400030E0A9010E94B75220E030E040E05FE39C
:103D500087FD30C0C701B6010E94A3510E94815265
:103D6000F62E8091A70F843161F58091A60F8430E3
:103D700011F00C942713F9E0FF1570F160E080E07A
:103D80000E940E0E8DEE92E00E948B0F8F2D0E94EE
:103D9000A5390C942713813091F4628170E090E092
:103DA00080E00E94DA4F2CEF3EEF4DEC5FE30E9483
:103DB0003950BDCFC701B6010E94A251CFCFF12C1F
:103DC000D0CF803111F00C9427138091A60F823050
:103DD00011F00C942713CFCF86EF8F0D60E08A355A
:103DE00060F480E00E940E0E8EEE92E00E948B0F37
:103DF0008F2D0E94A5390C94271380E00E940E0E8F
:103E00008F2D0E94A5390C942713C701B6010E947B
:103E1000A25163CA86EF8F0D60E08A3560F480E1BD
:103E20000E940E0E8EEE92E00E948B0F8F2D0E944C
:103E3000A5390C94271380E10E940E0E8F2D0E944D
:103E4000A5390C9427130FB6F8941EBF0FBE0DBFF3
:103E50000C942C13AF92BF92CF92DF92EF92FF920D
:103E60000F931F93CF93DF9300D000D01F92CDB755
:103E7000DEB7522F932FCDB6DEB6E091BD14F09190
:103E8000BE149E012F5F3F4F3097E1F5F901E15CD1
:103E9000F441FA83E983E981FA81D801D896EA17D7
:103EA000FB07A8F587E0E6E7F2E0D90101900D9263
:103EB0008A95E1F789017E01B8E0EB0EF11CF8016B
:103EC00081918F010E94120CE016F106C1F70FB626
:103ED000F894DEBE0FBECDBE0FB6F894DEBE0FBEA8
:103EE000CDBE27960FB6F894DEBF0FBECDBFDF91D3
:103EF000CF911F910F91FF90EF90DF90CF90BF90E7
:103F0000AF900895D901AE1BBF0BFD01C2CF580180
:103F1000F6E0AF0EB11C2DB73EB72A193B090FB61C
:103F2000F8943EBF0FBE2DBFADB7BEB711967D0151
:103F30002DE3EDB7FEB7218398012E5F3F4F119619
:103F40003C9311972CEF2A0D12962C931297829581
:103F5000880F880F807C680F13966C9313971496C4
:103F60004C9314970115110561F0E52FF92F159663
:103F70009F01200F311FE217F30719F081918D93F4
:103F8000FACF0B5F1F4FF701319680E09F012E198A
:103F90003F092017310718F49191890FF7CF0E0DC3
:103FA0001F1DD8018C9384E20E9453098701C80128
:103FB0008E199F098A159B0508F089CFF801819118
:103FC0008F010E94120CF3CF0F931F93CF93DF93B7
:103FD000CDB7DEB7E7970FB6F894DEBF0FBECDBF03
:103FE0008091780E89838091790E8A8380917A0EF0
:103FF0008B838091820E882309F44DC181E08C83EC
:104000001D821E820E94910680919B0E8F8380915B
:104010009C0E888780919D0E898780919E0E8A874D
:104020002091BD143091BE14CE01C69621153105E4
:1040300009F033C1815C94419FAB8EAB8EA99FA9DF
:104040009B878C870E94620A8091060E882309F460
:1040500027C181E08D878091870E8E878091880EA1
:104060008F8780916713888B8091B4149091B514D9
:10407000A091B614B091B714B98B8091B4149091FB
:10408000B514A091B614B091B714AA8B8091B41452
:104090009091B514A091B614B091B7149B8B8091F8
:1040A000B4149091B514A091B614B091B7148C8B40
:1040B0008091B8149091B914A091BA14B091BB1426
:1040C000BD8B8091B8149091B914A091BA14B0919D
:1040D000BB14AE8B8091B8149091B914A091BA140E
:1040E000B091BB149F8B8091B8149091B914A0919A
:1040F000BA14B091BB14888F80910E12898F809171
:104100005B1390915C13A0915D13B0915E13BA8F15
:1041100080915B1390915C13A0915D13B0915E133D
:10412000AB8F80915B1390915C13A0915D13B09164
:104130005E139C8F80915B1390915C13A0915D1333
:10414000B0915E138D8F80915F1390916013A09159
:104150006113B0916213BE8F80915F1390916013D1
:10416000A0916113B0916213AF8F80915F13909112
:104170006013A0916113B091621398A380915F13B3
:1041800090916013A0916113B091621389A3809103
:10419000B5108AA38091021290910312A09104128B
:1041A000B0910512BBA38091021290910312A091CD
:1041B0000412B0910512ACA38091021290910312E7
:1041C000A0910412B09105129DA3809102129091CA
:1041D0000312A0910412B09105128EA380910612D1
:1041E00090910712A0910812B0910912BFA380917B
:1041F000061290910712A0910812B0910912A8A777
:104200008091061290910712A0910812B0910912A4
:1042100099A78091061290910712A0910812B0916F
:1042200009128AA78091A90F8823E1F181E08BA769
:1042300080918A0E8CA78091A70F8DA78091A60FE1
:104240008EA78091890E8FA78091A80F88AB80914F
:10425000530289AB80915002909151029AAB8BAB83
:1042600080914E0290914F029CAB8DAB05E310E024
:104270009E012F5F3F4F40E062E080E00E942A1FD6
:10428000E7960FB6F894DEBF0FBECDBFDF91CF919A
:104290001F910F9108951C82B3CE821B930BCCCE3D
:1042A0001D86D9CE1BA6C4CF0F931F93CF93DF9348
:1042B000CDB7DEB76E970FB6F894DEBF0FBECDBF99
:1042C000E0E7FEE08081898381818A83E8E6FEE081
:1042D00080818B8381818C8382818D8383818E8396
:1042E00084818F83858188878681898787818A8772
:1042F000E0E6FEE080818B8781818C8782818D87DB
:1043000083818E8784818F878581888B8681898B45
:1043100087818A8B1B8A87E08C8B1D8A1E8A92E696
:104320009F8B9FE1988F9CE2998F93E09A8F1B8ED1
:104330008C8F1D8E1E8E0EE110E09E012F5F3F4F71
:1043400041E065E080E00E942A1F6E960FB6F89467
:10435000DEBF0FBECDBFDF91CF911F910F910895AA
:104360000C940751EF92FF920F931F93CF93DF931B
:10437000EC017B018A0188819981009729F02A81CB
:104380003B812417350788F4B8016F5F7F4F0E9487
:10439000D052009791F0998388831B830A832C81E4
:1043A0003D81232B11F4FC0110821D830C83B70186
:1043B000888199810E94BA530CC0888199810097A5
:1043C00011F00E94A64E198218821D821C821B8247
:1043D0001A82CE01DF91CF911F910F91FF90EF9044
:1043E0000895CF93DF9300D000D0CDB7DEB72091F2
:1043F0006413222301F1672BF1F06BEF72E0892B3C
:1044000011F465EF72E01A8219821C821B821E82EF
:104410001D82FB0101900020E9F73197AF01461B97
:10442000570BCE0101960E94B22189819A81009793
:1044300011F00E94A64E26960FB6F894DEBF0FBE6E
:10444000CDBFDF91CF91089585ED8093BC00809121
:104450005F1090916010A0916110B091621007966A
:10446000A11DB11D23E0B695A795979587952A952F
:10447000D1F72091BC0024FD03C010925D10089577
:1044800040915F10509160106091611070916210C6
:10449000452B462B472B69F30097A105B10541F049
:1044A00025E32A95F1F700000197A109B109E1CFB1
:1044B00080915E100C946F071F93CF93DF93EC01F4
:1044C000162F0E940751181739F0612FCE01DF9186
:1044D000CF911F910C943151DF91CF911F9108958D
:1044E0000F931F93CF93DF931F921F92CDB7DEB729
:1044F000182F81113FC180910E1284FFD3C091E02B
:1045000090930B1283FF8CC090930D1282FF8BC08F
:1045100060E086E10E94430560E087E10E94430578
:1045200060E088E10E94430560E089E10E94430564
:1045300061E08AE10E94430561E08BE10E9443054E
:1045400080910E12837009F094C08FEF93E00E9467
:10455000EB0B8FEF93E09093101280930F128091EA
:10456000B51084FFF4C091E09093B21083FFADC00A
:104570009093B41082FFACC060E086E10E944305D6
:1045800060E087E10E94430560E088E10E94430506
:1045900060E089E10E94430561E08CE10E944305EF
:1045A00061E08DE10E9443058091B510837009F0B0
:1045B000B5C08FEF93E00E94690B8FEF93E090936B
:1045C000B7108093B61060910E1284E290E00E94C2
:1045D0005C226091B51085E290E00E945C22198215
:1045E00080910E128A8302E010E09E012F5F3F4F00
:1045F00043E063E080E00E942A1F19828091B51099
:104600008A839E012F5F3F4F43E063E080E00E947A
:104610002A1F0F900F90DF91CF911F910F91089556
:1046200010920D1273CF1092B2108091B5108F7E40
:104630008093B51060E08AE10E94430560E08BE161
:104640000E94430560E08CE10E94430560E08DE13B
:104650000E94430560E088E10E94430560E089E133
:104660000E94430561E086E10E94430561E087E125
:1046700065CF813039F48FE790E00E94EB0B8FE734
:1046800090E069CF823039F48FE090E00E94EB0B2C
:104690008FE090E060CF87E090E00E94EB0B87E036
:1046A00090E059CF10920B1260E086E10E94430522
:1046B00060E087E10E94430560E08AE10E944305D3
:1046C00060E08BE10E9443054ACF1092B41052CFB4
:1046D00010920B1280910E128F7E80930E1260E06A
:1046E0008AE10E94430560E08BE10E94430560E09F
:1046F0008CE10E94430560E08DE10E94430560E08B
:1047000086E10E94430560E087E10E94430561E085
:1047100088E10E94430561E089E144CF813039F4AA
:104720008FE790E00E94690B8FE790E048CF8230DE
:1047300039F48FE090E00E94690B8FE090E03FCF6A
:1047400087E090E00E94690B87E090E038CF1092FC
:10475000B21060E088E10E94430560E089E10E94B8
:10476000430560E08CE10E94430560E08DE10E941A
:10477000430529CF8295869586958370823009F00E
:104780008BC015FF20CF14FF74C081E080930B1203
:1047900013FF2DC080930D1212FF2CC060E086E144
:1047A0000E94430560E087E10E94430560E088E1E4
:1047B0000E94430560E089E10E94430561E08AE1CF
:1047C0000E94430561E08BE10E944305812F8370C5
:1047D000B9F58FEF93E00E94EB0B8FEF93E090938E
:1047E000101280930F121F7D10930E12ECCE1092B8
:1047F0000D12D2CF1092B2108091B5108F7E80939F
:10480000B51060E08AE10E94430560E08BE10E9400
:10481000430560E08CE10E94430560E08DE10E9469
:10482000430560E088E10E94430560E089E10E9461
:10483000430561E086E10E94430561E087E1C4CF62
:10484000813039F48FE790E00E94EB0B8FE790E026
:10485000C6CF823039F48FE090E00E94EB0B8FE0FE
:1048600090E0BDCF87E090E00E94EB0B87E090E006
:10487000B6CF10920B1260E086E10E94430560E023
:1048800087E10E94430560E08AE10E94430560E001
:104890008BE10E944305A7CF833009F094CE15FF2A
:1048A00092CE14FF74C081E08093B21013FF2DC02C
:1048B0008093B41012FF2CC060E086E10E94430593
:1048C00060E087E10E94430560E088E10E944305C3
:1048D00060E089E10E94430561E08CE10E944305AC
:1048E00061E08DE10E944305812F8370B9F58FEF60
:1048F00093E00E94690B8FEF93E09093B710809341
:10490000B6101F7D1093B5105ECE1092B410D2CFAA
:1049100010920B1280910E128F7E80930E1260E027
:104920008AE10E94430560E08BE10E94430560E05C
:104930008CE10E94430560E08DE10E94430560E048
:1049400086E10E94430560E087E10E94430561E043
:1049500088E10E94430561E089E1C4CF813039F4E8
:104960008FE790E00E94690B8FE790E0C6CF82301E
:1049700039F48FE090E00E94690B8FE090E0BDCFAA
:1049800087E090E00E94690B87E090E0B6CF10923C
:10499000B21060E088E10E94430560E089E10E9476
:1049A000430560E08CE10E94430560E08DE10E94D8
:1049B0004305A7CF2F923F924F925F926F927F92C3
:1049C0008F929F92AF92BF92CF92DF92EF92FF921F
:1049D0000F931F93CF93DF93CDB7DEB7A2970FB698
:1049E000F894DEBF0FBECDBFADB6BEB680910B1240
:1049F000811159C0712C8091B210882311F40C944C
:104A000035312091B6103091B7108091BA102F3700
:104A1000310511F00C94182E811106C08091BB1045
:104A2000882311F40C94222D0E94280B882311F462
:104A30000C94222DCDB6DEB61092BA101092BB1097
:104A40000E94280B8093CD108091CD1090E00496A9
:104A5000EDB7FEB7E81BF90B0FB6F894FEBF0FBE1B
:104A6000EDBF2DB73EB72F5F3F4F79010E949106F2
:104A700080919B0EF701808380919C0E81838091B1
:104A80009D0E828380919E0E838310E08091CD10D5
:104A9000181708F078C70E94490BF701E10FF11DC4
:104AA00084831F5FF3CF20910F12309110128091F9
:104AB00013122F37310509F00DC2811109C0809101
:104AC0001412811105C080913013882309F409C1A3
:104AD0000E94890B882309F404C1109213121092CA
:104AE00014120E94890B809326120E94890B833036
:104AF000C8F40E94890B833050F190E080E00E945E
:104B0000AA0B439721F581E090E00E94AA0B892B24
:104B1000F1F482E090E00E94AA0B892BC1F410927C
:104B2000301315C090E080E00E94AA0B439709F76C
:104B300081E090E00E94AA0B892BD9F282E090E0FC
:104B40000E94AA0B892BA9F281E0809330138091F7
:104B50003013882309F47EC00E9485060091321329
:104B6000109133132091341330913513601B710B66
:104B7000820B930B683C71058105910508F440C0D8
:104B80000E9485066093321370933313809334131D
:104B90009093351382E0809326120E9491068091B3
:104BA0009B0E898380919C0E8A8380919D0E8B83BE
:104BB00080919E0E8C8383E18D8390E080E00E9443
:104BC000AA0B439719F40E94CB0BF7CF0E94CB0B93
:104BD0008E830091261210E00C5F1F4F9E012F5F05
:104BE0003F4F41E067E082E00E942A1F4091261279
:104BF0004C5FBE016F5F7F4F82E00E94E71202C0F0
:104C00000E94CB0B8D81823141F480910E128E7FF8
:104C1000826380930E120E94702280913813882341
:104C200009F44AC090913A13911112C1909129133D
:104C3000913009F0CCC020913E13E8E2F2E1DE01B0
:104C4000159690E0291729F141913D91431380E099
:104C50009F5FF8CF0E94910680919B0E898380917F
:104C60009C0E8A8380919D0E8B8380919E0E8C83F7
:104C700010E080912612181708F0ABCF0E94CB0BE2
:104C8000E5E0F0E0EC0FFD1FE10FF11D80831F5FF9
:104C9000F0CF882319F081E08093391380913D1380
:104CA000882351F010922813109238131092391360
:104CB00010923A1310923C130E94820B80915B1366
:104CC00090915C13A0915D13B0915E130196A11DAC
:104CD000B11D80935B1390935C13A0935D13B0930D
:104CE0005E13809138138823E1F10E94890B8111B2
:104CF00038C00E94850660939F0E7093A00E80932B
:104D0000A10E9093A20E00914B1310914C13209181
:104D10004D1330914E136B017C01C01AD10AE20A87
:104D2000F30A0091491310914A1330E020E0C016B5
:104D3000D106E206F306A8F060934B1370934C1370
:104D400080934D1390934E1380913913882349F02B
:104D500080913A13811142C281E080932F13109207
:104D6000391370902F13772009F444CE0E94890BD9
:104D7000182F81113FCE20910F1230911012809187
:104D800029132F37310509F0F0C3813009F070C3C2
:104D900080912813181708F013C30E9485066B0131
:104DA0007C01E12FF0E0E55FFD4E858D0E94910BC7
:104DB00000E00E94890B181708F4F0C2002309F4E0
:104DC000F1C201E010E02CE432E04EEF19C3923062
:104DD00008F464CF30913E1310912813A12FB0E056
:104DE000A75DBD4EAE014B5F5F4F20E0321741F033
:104DF0007D91FA016191AF01761380E02F5FF6CFCC
:104E0000882309F44BCF21E02093391380912A1392
:104E10008F5F80932A13E12FE30FEF5FE093281356
:104E2000F0E0E55FFD4E358D30933E13981336CF9D
:104E300010922A13109228138091281280933E1307
:104E400080913C13882309F429CF20933D1326CF6A
:104E50002091261280913E1390E0019628171906A2
:104E600021F581E08093391310924F1380913D1307
:104E7000882309F421CF1092281310923E13109228
:104E800038131092391310923A1310923C1319A24E
:104E900082E08AA302E010E09E012F5D3F4F41E0D7
:104EA00066E080E00E942A1F07CF91E090932F13C5
:104EB00080914F138F5F80934F138B3020F090932E
:104EC000391310924F1368EC70E080E090E00E947C
:104ED0005306CCCF2F30310509F0F9C0811105C040
:104EE00080911412882309F4FCCE0E94890B882338
:104EF00009F4F7CECDB6DEB610921312109214124A
:104F00000E94890B809326124091281260E170E084
:104F100085E392E00E94130B0091261210E0882393
:104F200009F44CC0000F111F0D5F1F4F2DB73EB786
:104F3000201B310B0FB6F8943EBF0FBE2DBF8DB7AF
:104F40009EB701967C010E94910680919B0EF7010D
:104F5000808380919C0E818380919D0E82838091BD
:104F60009E0E8383809129138130C1F59090281281
:104F7000492D60E170E085E392E00E94130B8823E5
:104F800001F1F70194820E94CB0B712C80912813C0
:104F9000781608F04BC0872D90E04C01880C991CC6
:104FA0008E0C9F1C855F9D4EFC01868DF4018583D0
:104FB0000E94CB0BF40186837394E8CF0C5F1F4FE4
:104FC000B5CF912C80912612981680F50E94CB0BBC
:104FD000F701E90DF11D84839394F4CF823060F1E1
:104FE000E0912813F0E0E55FFD4E868DF7018483A4
:104FF0000E94CB0B712C80913E137816B8F4872D4C
:1050000090E04C01880C991C8E0C9F1CE091281399
:10501000F0E0E55FFD4EE80FF91F878DF401858311
:105020000E94CB0BF40186837394E5CF970142E095
:1050300067E082E00E942A1FF70184818E3F41F4DD
:1050400080910E128D7F816380930E120E947022D8
:10505000809138138823C9F080913A138111B1C02F
:1050600090912913913009F081C090933913809168
:105070003D13882351F01092281310923813109288
:10508000391310923A1310923C13409126124C5F40
:10509000B70182E00E94E7120E94820B80915B13AD
:1050A00090915C13A0915D13B0915E130196A11DC8
:1050B000B11D80935B1390935C13A0935D13B09329
:1050C0005E130FB6F894DEBE0FBECDBE0ACE8111C0
:1050D00005C080911412882309F403CE0E94890B25
:1050E000882309F4FECDCDB6DEB6109213121092CD
:1050F00014120E94890B809326128091261290E050
:1051000004962DB73EB7281B390B0FB6F8943EBF57
:105110000FBE2DBF8DB79EB701967C010E949106F0
:1051200080919B0EF701808380919C0E81838091FA
:105130009D0E828380919E0E838310E080912612C3
:10514000181740F40E94CB0BF701E10FF11D848387
:105150001F5FF4CF0091261210E00C5F1F4F9701E4
:1051600041E067E082E00E942A1F72CF923008F48B
:105170007ECF21E02093391380912A138F5F809393
:105180002A13E091281330913E13E30FEF5FE09371
:105190002813F0E0E55FFD4E358D30933E139813F4
:1051A00066CF10922A1310922813809128128093B0
:1051B0003E1380913C13882309F459CF20933D136B
:1051C00056CF81E08093391380913D13882309F4F1
:1051D0005CCF1092281310923E134FCF20913E13B4
:1051E000243009F04DC080912813811113C08091A3
:1051F0003F139091401330914113409142134093DB
:1052000028123093291290932A1280932B12209304
:105210002813A2CD609128127091291280912A1230
:1052200090912B120E94C952C0904713D0904813FE
:10523000F12CE12CDC01CB018C0D9D1DAE1DBF1DA1
:10524000B0932812A093291290932A1280932B12C4
:1052500020932813C80ED91EEA1EFB1E009143138B
:105260001091441320914513309146130C151D05E0
:105270002E053F0508F070CD81E080933D136CCD85
:10528000233009F045C08091281381110DC0809111
:105290003F13909140133091411330932812909313
:1052A000291280932A12B3CF3091281280912912AB
:1052B00090E0B0E0A0E0BA2FA92F982F8827A32B69
:1052C00030912A12832B409147135091481370E07C
:1052D00060E0840F951FA61FB71FA093281290931C
:1052E000291280932A1220932813840F951FA61F3A
:1052F000B71F40914313509144136091451370912F
:105300004613481759076A077B0708F4B5CF24CD21
:10531000223029F580912813811109C080913F1313
:1053200090914013909328128093291270CF40914E
:105330004713509148138091281290912912982771
:1053400089279827840F951F9093281280932912FC
:1053500020932813840F951FB0E0A0E0CACF21301E
:1053600009F0FACC80912813811108C080913F1375
:105370008093281281E080932813EECC209147136C
:105380003091481380912812820F8093281291E067
:1053900090932813820F932F911DDECF011111CD11
:1053A0001F5FF6CC0E9485066C197D098E099F0946
:1053B00001E0643171058105910508F0FACCF8CC63
:1053C00081E08093131290E080E00E94AA0B482FA6
:1053D00065E070E080E392E00E94130B882361F1A6
:1053E0000E94890B082F10E00E94890B081708F40F
:1053F000C6C2112361F001E010E02CE432E046EF78
:105400006FE080E00E942A1F0E94820B01C10E946F
:105410008506C0902B13D0902C13E0902D13F090A4
:105420002E136C197D098E099F0911E064367105F0
:1054300081059105C8F6D7CF0E94890B813198F478
:105440000E94850600912B1310912C1320912D138F
:1054500030912E13601B710B820B930B6436710518
:105460008105910548F381E080931412712CD0C01E
:105470008230E0F3109128131F5FE12EF12C809110
:10548000281390E0019620913E13820F911DE8169B
:10549000F9063CF50E9485061B012C01F701E55F2A
:1054A000FD4E858D0E94910B00E0809128136701CD
:1054B000C81AD1080E94890B8C151D047CF40111B7
:1054C00080CC0E948506621973098409950901E060
:1054D000643171058105910540F7E6CF002361F243
:1054E00070CC81E08093131290E080E00E94AA0BC0
:1054F000482F65E070E080E392E00E94130B882360
:1055000001F10E94890B082F10E00E94890B0817F7
:1055100008F435C211116FCF0E948506C0902B137D
:10552000D0902C13E0902D13F0902E136C197D0960
:105530008E099F0911E0643671058105910528F7F0
:10554000E3CF0E94850600912B1310912C1320911C
:105550002D1330912E13601B710B820B930B64364D
:1055600071058105910568F37ECF2F30310509F073
:1055700054C1813009F004C100912812402F60E12C
:1055800070E085E392E00E94130BF82E882309F463
:1055900066C080912813823070F0809129128F3F6D
:1055A00051F4E9E2F2E180E081938F5F803FE1F71F
:1055B00081EF8093281380912813181708F053CF98
:1055C0000E9485062B013C01812F90E09C01255F04
:1055D0003D4E6901F901858D0E94910B00E00E940A
:1055E000890B181758F1002369F1809128128983DB
:1055F000F601858D8A8302E010E09E012F5F3F4F08
:105600004AEF6FE080E00E942A1F0E94820B7F2CED
:1056100010922F1380915F1390916013A0916113EA
:10562000B09162130196A11DB11D80935F139093F9
:105630006013A0936113B0936213DDC90111D5CF3C
:105640001F5FB9CF0E9485066419750986099709FD
:1056500001E0653071058105910508F6BFCF05347D
:1056600009F052C080912813181718F50E9485067A
:105670001B012C01E12FF0E0E55FFD4E858D0E94BE
:10568000910B00E00E94890B181778F0011199CB5B
:105690000E948506621973098409950901E0653045
:1056A00071058105910570F7ECCF01118ACB1F5F61
:1056B000D9CF00912C1210912D12102701271027FD
:1056C0000E9485061B012C010B5F1F4F0E94890B56
:1056D0008017110609F088F4F11073CB0E9485063B
:1056E0006219730984099509FF24F394643F71409A
:1056F0008105910558F7F12CE9CFFF2009F4B3CECD
:1057000060CB011117C01F5F809128131817B0F5E7
:105710000E9485066B017C01E12FF0E0E55FFD4E04
:10572000858D0E94910B00E00E94890B181748F3A9
:105730000023B9F08FEF898301E010E09E012F5F15
:105740003F4F4AEF6FE080E00E942A1F0E94820BC9
:1057500064E670E080E090E00E945306711058CF3C
:1057600082CE0E9485066C197D098E099F0901E091
:10577000643F714081059105B8F6D5CF712CE8CF13
:10578000823008F473CED0902813EE24E394ED0C0D
:10579000D094FD2CFE0C0E2D10E08091281390E08B
:1057A000019620913E13820F911D081719070CF0E6
:1057B0005ACE0E9485061B012C01F801E55FFD4EC3
:1057C000858D0E94910B10E00E94890BF816A0F0C5
:1057D0001123B1F0E0912813F0E0E45FFD4E858DD8
:1057E0008983EF0DF11D858D8A8302E010E09E0113
:1057F0002F5F3F4F4AEF04CE1111ECCFE394C9CF96
:105800000E948506621973098409950911E06530C3
:10581000710581059105C0F6D6CF813009F046C0EB
:1058200080912813181718F50E9485066B017C01DA
:10583000E12FF0E0E55FFD4E858D0E94910B00E0C9
:105840000E94890B181778F00111BBCA0E948506C7
:105850006C197D098E099F0901E06431710581058C
:10586000910570F7ECCF0111ACCA1F5FD9CF81E071
:10587000809313120E94890B082F0E9485066B01EA
:105880007C0110E00E94890B081708F478C0111100
:10589000B2CD0E9485066C197D098E099F0911E021
:1058A000623371058105910568F7EBCF823008F40A
:1058B000DDCDD0902813EE24E394ED0CD094FD2C94
:1058C000FE0C0E2D10E08091281390E0019620919F
:1058D0003E13820F911D081719079CF50E9485063B
:1058E0001B012C01F801E55FFD4E858D0E94910B97
:1058F00010E00E94890BF81698F01123A9F0E091AE
:105900002813F0E0E45FFD4E858D8983EF0DF11DD6
:10591000858D8A8302E010E09E012F5F3F4F55CABC
:105920001111EDCFE394CBCF0E9485066219730964
:105930008409950911E06431710581059105C8F666
:10594000D7CF81E0809313120E94890B082F0E9409
:1059500085066B017C0110E00E94890B081778F026
:10596000111149CD0E9485066C197D098E099F0988
:1059700011E0623371058105910570F7ECCF1123B9
:1059800009F471CD38CD0091CD1010E00C5F1F4FA0
:10599000970141E067E083E00E942A1FF7018481BC
:1059A000823141F48091B5108E7F82638093B5106F
:1059B0000E9470229091DF11992351F18091E111A1
:1059C0008111F4C02091D011213009F0B1C0209193
:1059D000E511AFECB0E1F7013496281731F04D91A5
:1059E0003191431390E08F5FF8CF992319F081E054
:1059F0008093E0118091E411882351F01092CF112F
:105A00001092DF111092E0111092E1111092E31147
:105A10000E94210B8091021290910312A091041216
:105A2000B09105120196A11DB11D809302129093B1
:105A30000312A0930412B09305120FB6F894DEBEC1
:105A40000FBECDBE8091DF118823E1F10E94280BAB
:105A5000811138C00E94850660939F0E7093A00E3E
:105A60008093A10E9093A20E0091F2111091F31168
:105A70002091F4113091F5116B017C01C01AD10A0B
:105A8000E20AF30A0091F0111091F11130E020E0E8
:105A9000C016D106E206F306A8F06093F2117093E7
:105AA000F3118093F4119093F5118091E011882304
:105AB00049F08091E11181117DC281E08093D6117E
:105AC0001092E0118091D611882309F4CEC30E9470
:105AD000280B182F8111C9C32091B6103091B7102F
