:10000000B4C100000C9433300C9408300C94DD2FF4
:100010000C94B22F0C94872F0C945C2F0C94312FDE
:100020000C94062FD3C10000D1C10000CFC1000045
:10003000CDC10000CBC10000C9C10000C7C1000094
:10004000C5C10000C3C10000C1C10000BFC10000A4
:10005000BDC10000BBC10000B9C100000C94BC2EA2
:10006000B5C100000C9488330C944D33AFC100002F
:10007000ADC10000ABC10000A9C10000A7C10000D4
:100080000C94F631A3C10000A1C100009FC1000083
:100090000C94B5310C94823199C100000C945E30FF
:1000A00095C1000093C1000091C100008FC1000004
:1000B0008DC100008BC1000089C1000087C1000014
:1000C00085C1000083C1000081C100000C94FE3294
:1000D0000C94BD327BC100000C946E320C942D3216
:1000E00075C100004343442F53434900205343410B
:1000F0004E4E45522056312E34582020004348524F
:1001000059534C4552204343442F534349002D2D0E
:100110002D2D2D2D2D2D2D2D2D2D2D2D2D2D2D2D0F
:100120002D2D002020205343414E4E455220563164
:100130002E34582020202000202043485259534C70
:100140004552204343442F5343492020002D2D2D59
:100150002D2D2D2D2D2D2D2D2D2D2D2D2D2D2D2DCF
:100160002D00202020203072706D00202030204390
:100170002020202020302E306B5061002020306B5A
:100180006D2F6820202020203072706D00202020EC
:100190002020302E3030306B6D2020202020202079
:1001A000200020302E302F20302E305620202020CE
:1001B000202020202020002020302F20203020430D
:1001C0002020202020302E306B5061002020306B0A
:1001D0006D2F68202020203072706D202020302567
:1001E00000202020203072706D002020302046201A
:1001F00020202020302E30707369002020306D7058
:10020000682020202020203072706D0020202020C7
:1002100020302E3030306D692020202020202020FA
:100220000020302E302F20302E305620202020204D
:100230002020202020002020302F20203020462089
:1002400020202020302E30707369002020306D7007
:100250006820202020203072706D20202030250062
:1002600000002100240027002A002D003000330068
:1002700001010000040107010A010000220025001D
:1002800028002B002E00310034000201000005017F
:1002900008010B0105050505070508080808020205
:1002A00002020A0A08080404040401010101010110
:1002B00001010303030303030303040707070C0CF3
:1002C0000C0C0C0C0C0C02020202060606060606BA
:1002D00006060B0B0B0B0B0B0B0B0102102020085F
:1002E0000810204010204080020102010804020191
:1002F0000102040810204080804020100804020100
:100300008004020180402010080402010804020158
:1003100001020408102040800102040810204080DF
:1003200000000A0B02090C0D0E080703040100006F
:1003300000000000000000000000000000000000BD
:10034000000000000000000000000000121110007A
:10035000000000000000000000000000000000009D
:100360000000000000002436714711241FBECFEFAB
:10037000D1E2DEBFCDBF00E00CBF13E0A0E0B2E0F1
:10038000EEE7FAE900E00BBF02C007900D92A4303F
:10039000B107D9F727E1A4E0B3E001C01D92A3386B
:1003A000B207E1F711E0C4EBD1E000E006C021970D
:1003B0000109802FFE010E941B4CC33BD10780E046
:1003C0000807A9F70E946C360C942E4D19CE08959B
:1003D000982F2091181381E0213208F043C08091BA
:1003E000F4128111FCCF8091171332E03093F41294
:1003F0009093F3129FEF9093F2121092F1122093C8
:10040000F012A7EFB2E1E0EDF2E190E0291331C084
:100410001092CF129091CF12880F892B8093CF1218
:100420008091CE12813049F51092CE128091CF1278
:100430008093BB008091BC0083FDF8CF85EC809356
:10044000BC008091F4128230E1F38091F2128F3F70
:10045000B1F08091F2128032A1F08091F2128033DB
:1004600091F084E01092F612109218131092F51287
:1004700008953D9131939F5FC9CF85EEE0CF80E035
:10048000F1CF82E0EFCF83E0EDCFF8942091CC1252
:100490003091CD128091CA129091CB122817390752
:1004A00021F4789480E092E008957894E091CA1263
:1004B000F091CB123196F370E653F14F2081909179
:1004C000C90E892F90E0982F8827820F911D0895DB
:1004D000F8949091C80E8091C70E981304C0789438
:1004E00080E092E008957894E091C70EEF5FF0E02D
:1004F000E953F24F20819091C60D892F90E0982FFB
:100500008827820F911D08950895089580915613AC
:10051000882371F180913A13823050F1E0913A13BF
:10052000E15090E080E020E08E1740F4DC01A75E0F
:10053000BC4E51963C91230F0196F6CFF0E0E75E5A
:10054000FC4E818928130DC080E090913A138917E1
:10055000E0F4E82FF0E0E75EFC4E918990838F5F36
:10056000F4CF1092291310923A1310924F1308955A
:1005700080E090913A13891740F4E82FF0E0E75EAD
:10058000FC4E918990838F5FF4CF80913A138093D2
:100590002913E9CFAF92BF92CF92DF92EF92FF92F1
:1005A0000F931F93CF93DF936C017B018B01040F9B
:1005B000151FEB015E01AE18BF08C017D10759F037
:1005C0006991D601ED91FC910190F081E02DC60179
:1005D0001995892B79F7C501DF91CF911F910F9163
:1005E000FF90EF90DF90CF90BF90AF900895282FAD
:1005F00030E0F901E05EFC4F9491F901E652FD4FC5
:1006000044912C563D4FF9012491222309F435C021
:10061000992311F191509231F8F4E92FF0E08827F5
:10062000EB5EFC4F8F4F0C941B4C46034A03270391
:100630003E0342032C034D03530357035D03610341
:1006400065036B036F032C03730379037D038091B0
:1006500080008F7780938000E22FF0E0EE0FFF1F85
:10066000E658FD4FA591B4918FB7F894EC916111C4
:1006700048C040954E234C938FBF089580918000D1
:100680008F7DE8CF80918000877FE4CF84B58F771E
:1006900084BDE2CF84B58F7DFBCF8091B0008F7792
:1006A0008093B000D9CF8091B0008F7DF9CF809139
:1006B00090008F7780939000CFCF809190008F7DB6
:1006C000F9CF80919000877FF5CF8091A0008F7740
:1006D0008093A000C1CF8091A0008F7DF9CF809141
:1006E000A000877FF5CF809120018F778093200134
:1006F000B3CF809120018F7DF9CF80912001877F3A
:10070000F5CF4E2BB8CF1092A10D1092A00D1092E4
:10071000F612109218131092F41281E08093F312E3
:100720001092CE1261E084E162DF61E085E15FDF7B
:10073000E9EBF0E080818E7F808380818D7F8083F4
:1007400088E48093B80085E48093BC0084E892E05C
:1007500090939F0D80939E0D85E892E090939D0D60
:1007600080939C0D0895CF93DF9390E0FC01E652B7
:10077000FD4F24918C569D4FFC0184918823C9F034
:1007800090E0880F991FFC01E05AFD4FA591B491AC
:10079000FC01E658FD4FC591D49161110DC09FB782
:1007A000F8948C91209582238C9388812823288328
:1007B0009FBFDF91CF910895623051F49FB7F894B5
:1007C0003C91822F809583238C93E8812E2BEFCF51
:1007D0008FB7F894EC912E2B2C938FBFEACFCF924A
:1007E000DF92EF92FF9240E054E264EF75E44093B1
:1007F000501350935113609352137093531380937B
:1008000054138AE08093551381E0809356138093AC
:1008100057131092291380934F13F89410923A13A0
:1008200010924B1310924C1310924D137894109217
:10083000CD008FE78093CC008091C90088698093B8
:10084000C9008091CA0086608093CA0080915413C9
:10085000882309F454C087E090E090935913809363
:100860005813F89410928000109281001092850025
:1008700010928400259A809180008064809380008B
:100880008091581390915913909389008093880018
:100890008091810089608093810062E082E063DF63
:1008A00062E083E060DF8DE696E090934F028093F4
:1008B0004E0280916A008C7F826080936A00EC9A7D
:1008C00086E596E0909351028093500280916A00F1
:1008D000837F886080936A00ED9A7894809191007C
:1008E0008A7F80939100109295001092940081E08D
:1008F00080934E13FF90EF90DF90CF900895F8947F
:100900001092800010928100109285001092840055
:10091000109289001092880062E083E024DF86E56F
:1009200096E0909351028093500280916A00837FF9
:10093000886080936A00ED9AEC9887EE91E090933E
:100940004F0280934E0278942091501330915113AE
:10095000409152135091531360E070E080E89FE3A0
:100960000E947A4B20E034E244E75BE40E94CB49EA
:100970006B017C016091551370E090E080E00E9473
:100980006C4920E030E040E251E40E94164B9B01AC
:10099000AC01C701B6010E94CB4920E030E040E83D
:1009A0005AE30E94CB4920E030E040E85FE30E9438
:1009B000154B0E94E74B70935B1360935A13F894A6
:1009C0001092900010929100109295001092940055
:1009D00080915A1390915B139093990080939800A3
:1009E000809191008D608093910080917100826070
:1009F0008093710078947BCF863308F086532091E2
:100A00007B00982F9870277F922B90937B002091EA
:100A1000460290E4299F900111248770822B8093D5
:100A20007C0080917A00806480937A0080917A00C3
:100A300086FDFCCF809178009091790008953FB7B2
:100A4000F8948091E80A9091E90AA091EA0AB0919D
:100A5000EB0A26B5A89B05C02F3F19F00196A11DF2
:100A6000B11D3FBFBA2FA92F982F8827BC01CD01F8
:100A7000620F711D811D911D42E0660F771F881F57
:100A8000991F4A95D1F708958F929F92AF92BF9286
:100A9000CF92DF92EF92FF924B015C01D0DF6B01AE
:100AA0007C01CDDF6C197D098E099F09683E73407A
:100AB00081059105B0F321E0821A9108A108B108DF
:100AC00088EEC80E83E0D81EE11CF11C811491044D
:100AD000A104B10431F7FF90EF90DF90CF90BF9069
:100AE000AF909F908F9008952FB7F8946091E40A8B
:100AF0007091E50A8091E60A9091E70A2FBF089568
:100B0000F3DFE2ECFDE090838183728363830895D9
:100B100085ED8093BC008091BC0084FDFCCF1092D9
:100B2000F41208952091C00A260F3327331F213273
:100B30003105ECF42091F412FC0190E080E02430C7
:100B400069F082E00895A091C00A2191AC0140565D
:100B5000554FA40FB52FB11D2C930196861798F30E
:100B60008091C00A680F6093C00A80E0089581E018
:100B700008950895E091A10D8091A00DE81730F43B
:100B8000F0E0EE55F24F808190E008958FEF9FEFF7
:100B900008959091A10D8091A00D2FEF3FEF981730
:100BA00048F4E92FF0E0EE55F24F208130E09F5FEE
:100BB0009093A10DC90108958091A00D9091A10D70
:100BC000891B990B0895CF92DF92EF92FF920F93BA
:100BD0001F93CF93DF937C01CB018A012091F51203
:100BE000222389F0EB016B01C40ED51ECC15DD0567
:100BF00061F06991D701ED91FC910190F081E02DB8
:100C0000C7011995F3CF642F8DDFC801DF91CF9114
:100C10001F910F91FF90EF90DF90CF900895CF93A9
:100C2000DF931F92CDB7DEB769832091F51222239F
:100C3000F9F020911813203258F021E030E0FC0147
:100C40003383228390E080E00F90DF91CF9108956D
:100C50008091F612E82FF0E0E950FD4E99819083E3
:100C60008F5F8093F6128093181381E090E0ECCFB1
:100C700061E0CE01019656DFF8CF682F8CE593E155
:100C8000CECFFC01248131E03093F512209317136D
:100C90001092F612109218138385862B90E0EDDFE8
:100CA00081E096CB089590E080E008958091541300
:100CB000811110C0ED9887EE91E0909351028093DE
:100CC00050021092950010929400809191008560DE
:100CD0008093910010924E13089581E080934E13FB
:100CE00080913A13811112CC08954F925F926F92C6
:100CF0007F928F929F92AF92BF92CF92DF92EF92AC
:100D0000FF92CF93DF931092660A1092670A1092B7
:100D1000680A1092690A1092620A1092630A10928D
:100D2000640A1092650AC8ECD0E087E365DE092EFC
:100D3000000CAA0BBB0B4091660A5091670A6091A8
:100D4000680A7091690A4C015D01840E951EA61E09
:100D5000B71E8092660A9092670AA092680AB092C3
:100D6000690A219711F7C8ECD0E088E345DE092E27
:100D7000000CAA0BBB0B4091620A5091630A609170
:100D8000640A7091650A6C017D01C40ED51EE61ED1
:100D9000F71EC092620AD092630AE092640AF0924F
:100DA000650A219711F788EC482E512C612C712C83
:100DB000C501B401A30192010E94E44A49015A010C
:100DC0008092660A9092670AA092680AB092690AB5
:100DD000C701B601A30192010E94E44A69017A01A8
:100DE000C092620AD092630AE092640AF092650AA5
:100DF000609104027091050290E080E00E946A49CF
:100E000020E030E048EC52E40E947A4B2B013C0198
:100E1000C501B4010E946A49A30192010E94CB4915
:100E200020E030EC4FE754E40E947A4B20E030E0C1
:100E300048EC52E40E94CB490E94E74BEB01C7010A
:100E4000B6010E946A49A30192010E94CB4920E0A9
:100E500030EC4FE754E40E947A4B20E030E048EC5D
:100E600052E40E94CB490E94E74BD0937A0DC09385
:100E70007B0D70937C0D60937D0DDF91CF91FF9082
:100E8000EF90DF90CF90BF90AF909F908F907F902A
:100E90006F905F904F9008954F925F926F927F9204
:100EA0008F929F92AF92BF92CF92DF92EF92FF927A
:100EB000CF93DF9310925E0A10925F0A1092600A3D
:100EC0001092610AC8ECD0E086E396DDBC01990F70
:100ED000880B990BC0905E0AD0905F0AE090600A80
:100EE000F090610A6C0D7D1D8E1D9F1D60935E0A42
:100EF00070935F0A8093600A9093610A219721F7AB
:100F000028EC30E040E050E00E94E44A49015A01F8
:100F100080925E0A90925F0AA092600AB092610A83
:100F2000609100027091010290E080E00E946A49A5
:100F30006B017C01609104027091050290E080E0F9
:100F40000E946A4920E030E048EC52E40E947A4B6B
:100F50002B013C01C501B4010E946A499B01AC010F
:100F6000C301B2010E94CB4920E030EC4FE754E4CA
:100F70000E947A4B4B015C01609102027091030266
:100F800090E080E00E946A49A70196010E94164BFA
:100F90009B01AC01C501B4010E94CB49A701960198
:100FA0000E947A4B20E030E048EC52E40E94CB49AA
:100FB0000E94E74B683522E07207A8F410927E0D7C
:100FC00010927F0D10926A0ADF91CF91FF90EF90FF
:100FD000DF90CF90BF90AF909F908F907F906F9059
:100FE0005F904F90089570937E0D60937F0D81E028
:100FF00080936A0AE9CFCF93C82F60E0F8DAC43251
:1010000069F0C532A9F070DD60938C0D70938D0D81
:1010100080938E0D90938F0DCF91089565DD609331
:10102000880D7093890D80938A0D90938B0DF4CF6A
:101030005BDD6093840D7093850D8093860D909396
:10104000870DEACFF89480914D0A80934C0A7894EA
:101050000895F8948091C70E8093C80E78940895EF
:10106000F8948091C80E9091C70E7894891B0895CA
:1010700090914C0A21E0290F30E0F89440914D0AFC
:10108000789442171306C9F3245B364FF901808325
:101090009F5F90934C0A809131018062809331016F
:1010A0000895F8949091C80E8091C70E981304C0CB
:1010B000789480E092E0089578948091C70EE1E002
:1010C000E80FF0E08F5F8093C70EE953F24F208165
:1010D0009091C60D892F90E0982F8827820F911D3F
:1010E0000895F8941092C80E1092C70E10924C0AF0
:1010F00010924D0A78949093350180933401E1E386
:10110000F1E0808188698083E2E3F1E0808186609C
:1011100080830895F89480914B0980934A097894CC
:101120000895F89480914A0990914B097894891B0D
:1011300008959091F20A21E0290F30E0F89440914F
:10114000F30A789442171306C9F3265B374FF90167
:1011500080839F5F9093F20A8091D1008062809398
:10116000D10008959C01F89490914A0980914B090F
:10117000981304C0789480E092E008957894909158
:101180004B09E92FF0E03196E20FF31FFF27E65BF2
:10119000F84F208190914907892F90E0982F882758
:1011A000820F911D0895F89490914A0980914B09FE
:1011B000981304C0789480E092E008957894809128
:1011C0004B09E1E0E80FF0E08F5F80934B09E65BAD
:1011D000F84F208190914907892F90E0982F882718
:1011E000820F911D0895F89410924A0910924B09AC
:1011F0001092F20A1092F30A78949093D50080939B
:10120000D400E1EDF0E0808188698083E2EDF0E0D8
:101210008081866080830895F8948091CC129091AB
:10122000CD122091CA123091CB127894821B930B6D
:10123000937008952091EE0A3091EF0A2F5F3F4F8F
:101240003370F8944091F00A5091F10A7894241781
:101250003507B9F3F901E75BFC4F80833093EF0A60
:101260002093EE0A8091C10080628093C1000895AE
:10127000CF93DF93CCE9D2E08991882311F0DADFB4
:10128000FBCFDF91CF910895F8942091CC1230914B
:10129000CD128091CA129091CB122817390721F4F0
:1012A000789480E092E0089578948091CA129091A9
:1012B000CB12019693709093CB128093CA128653EF
:1012C000914FFC0120819091C90E892F90E0982FB9
:1012D0008827820F911D08953F924F925F926F92DF
:1012E0007F928F929F92AF92BF92CF92DF92EF92B6
:1012F000FF920F931F93CF93DF932B013C015A0171
:101300007901BC01A201420F531F611D711D809123
:101310007D1390917E13A0917F13B091801319E0FB
:1013200084179507A607B70708F4A9C001E033247E
:101330003A9495EE992E25EC822EE114F10409F4ED
:101340009DC0C0917813D0917913CE01019784216B
:101350009521C81BD90BC70121E2E216F10410F058
:1013600080E290E08C179D0708F4EC0180917A13DD
:10137000A301920104C056954795379527958A9504
:10138000D2F7D0907413D22A0093F512D09217138B
:101390001092F6121092181380917B1390917C1387
:1013A000029739F49927872D762D652D8CE593E1E9
:1013B00036DC642D8CE593E132DC81E009D8182F0E
:1013C00081115DC08091F4128111FCCF9C2F00939C
:1013D000F4120093F3123092F2121092F1128C2F49
:1013E00081508093F0120093CF128091CF12DD0CC8
:1013F000D82AD092CF128091CE12813079F51092F6
:10140000CE128091CF128093BB008091BC0083FDEF
:10141000F8CF8092BC008091F4128130E1F380918A
:10142000F112891710F49091F112E0EDF2E1A2EAC5
:10143000BDE080E0891315C01092A10D8093A00D2E
:10144000C12ED12CCC16DD0680F48CE593E1A1DB16
:10145000F501EC0DFD1D80831F5FF2CF9092BC0063
:10146000DACF21912D938F5FE5CF4C0E5D1E611C6D
:10147000711CAC0EBD1EEC1AFD0A5FCF10E0812F6F
:10148000DF91CF911F910F91FF90EF90DF90CF9060
:10149000BF90AF909F908F907F906F905F904F9094
:1014A0003F900895CF93DF931F92CDB7DEB721E031
:1014B00030E0AE014F5F5F4F0FDF90E0009731F4F7
:1014C000898190E00F90DF91CF910895919581955A
:1014D0009109F8CF0F931F93CF938C01C62FD1DBC7
:1014E0006C2F6460C801CDDB6C2F6B7FC801C9DB3A
:1014F00083EC90E00197F1F7CF911F910F91089540
:101500000F931F93CF93DF938C01D62FC42F607F4F
:10151000642BE0DF80E1D89FB00111246C2BC8015F
:10152000DF91CF911F910F91D5CFCF93DF9300D053
:1015300000D01F921F92CDB7DEB798E0E8E6F2E048
:10154000DE01119601900D929A95E1F79091711339
:10155000961710F46FEF690F262F30E0220F331F1C
:1015600041E050E04C0F5D1F240F351FF9016081F1
:10157000680F606840E088E693E128960FB6F8941B
:10158000DEBF0FBECDBFDF91CF91BACF41E0B8DF54
:1015900081E090E008950F931F93CF93DF938B0129
:1015A00098E0899FB0011124606440E088E693E1EF
:1015B000A7DFE801085F1F4F699188E693E1E6DF46
:1015C000C017D107C9F7DF91CF911F910F910895EF
:1015D0000F931F93CF93DF938C01D0E0C0E0F8010D
:1015E000EC0FFD1F6491662331F041E088E693E142
:1015F00087DF2196F4CFCE01DF91CF911F910F911C
:10160000089540E061E088E693E17ADF8BE39FE1B3
:101610000197F1F70895F5DF8091990D843121F557
:101620008091980D843009F034C060E080E07DDF67
:101630008BE492E0CDDF61E080E077DF86E392E04B
:10164000C7DF62E080E071DF81E292E0C1DF63E04A
:1016500080E06BDF8CE092E0BBDF61E087E065DF7C
:1016600065E088E693E192CF803199F48091980DFE
:10167000823079F460E080E058DF8BEF91E0A8DF02
:1016800061E080E052DF8AEE91E0A2DF61E083E07A
:10169000E6CF60E080E049DF81EE91E099CFB1DFF5
:1016A0008091990D843121F58091980D843009F055
:1016B00034C060E080E039DF8CEC91E089DF61E0EC
:1016C00080E033DF87EB91E083DF62E080E02DDFB5
:1016D00082EA91E07DDF63E080E027DF8DE891E042
:1016E00077DF61E087E021DF65E088E693E14ECFB8
:1016F000803199F48091980D823079F460E080E037
:1017000014DF8CE791E064DF61E080E00EDF8BE6C0
:1017100091E05EDF61E083E0E6CF60E080E005DF3E
:1017200082E691E055CFEF92FF920F931F93CF93F4
:10173000DF93CDB7DEB72C970FB6F894DEBF0FBEA0
:10174000CDBFF090980DE090990D8091810D109291
:101750006B1310926A1380936C138E8180936D13B8
:101760008F8180936E13888580936F13E09270133E
:10177000F09271131092721318E0109373130E9479
:10178000830310926D1380917113823010F01093C7
:101790006D1390917213992339F0813029F480915F
:1017A0006D13846080936D1362E370E080E090E0DD
:1017B0006BD96091731388E693E163DA68EE73E0A6
:1017C00080E090E061D960E388E693E183DE0BE49A
:1017D00016E4C8010197F1F760E388E693E17ADE49
:1017E000C8010197F1F760E388E693E173DE83E5D2
:1017F00092E00197F1F760E288E693E16BDE609199
:101800006D13606240E088E693E17ADE84E08093C5
:101810006E1340E06CE088E693E172DEF2DE82E077
:1018200080936F1340E066E088E693E169DE40E074
:1018300062E088E693E164DE0BE31FE1C8010197F3
:10184000F1F788E08093731360E088E693E119DA9A
:10185000D8DE40E062E088E693E152DEC8010197FD
:10186000F1F784E1E8123CC084E0F81248C08DE44E
:1018700091E0AEDE61E080E058DE88E391E0A8DE32
:1018800062E080E052DE83E291E0A2DE63E080E08D
:101890004CDE8EE091E09CDE6EE272E080E07BDE6A
:1018A00066E272E081E077DE6EE172E082E073DE94
:1018B00066E172E083E06FDE6EE072E084E06BDE92
:1018C00066E072E085E02C960FB6F894DEBF0FBE9E
:1018D000CDBFDF91CF911F910F91FF90EF905BCE25
:1018E00080E1E8120CC082E0F81209C08DEF90E0B0
:1018F0006FDE61E080E019DE8CEE90E0CCCF84EE0C
:1019000090E0C9CFFC0101900020E9F73197AF01C9
:10191000481B590BBC0188E693E10C94CA028F92D4
:101920009F92AF92BF920F931F93CF93DF93CDB748
:10193000DEB7A1970FB6F894DEBF0FBECDBF19A2D8
:10194000423008F44AE08E010F5D1F4F842E912C27
:10195000B12CA12CA50194010E94E44AE62FB90103
:10196000CA01EA30ECF4E05DD801EE938D01232B3F
:10197000242B252B79F790E080E0109711F0CD0112
:10198000C1DFA1960FB6F894DEBF0FBECDBFDF91C9
:10199000CF911F910F91BF90AF909F908F9008951E
:1019A000E95CE2CFBC0190E080E04AE0B8CFAACF8A
:1019B000AF92BF92CF92DF92EF92FF920F931F935D
:1019C000CF93DF9300D000D01F92CDB7DEB7522F58
:1019D000932FCDB6DEB6E0917F17F09180179E0170
:1019E0002F5F3F4F3097D9F5F901E358F741FA835C
:1019F000E983E981FA81D801D896EA17FB07A0F5B7
:101A000087E0E0E7F2E0D90101900D928A95E1F7D5
:101A100089017E01B8E0EB0EF11CF80181918F0184
:101A200009DCE016F106C9F70FB6F894DEBE0FBE6A
:101A3000CDBE0FB6F894DEBE0FBECDBE27960FB654
:101A4000F894DEBF0FBECDBFDF91CF911F910F91F4
:101A5000FF90EF90DF90CF90BF90AF900895D901A5
:101A6000AE1BBF0BFD01C3CF5801F6E0AF0EB11C9A
:101A70002DB73EB72A193B090FB6F8943EBF0FBEEB
:101A80002DBFADB7BEB711967D012DE3EDB7FEB703
:101A9000218398012E5F3F4F11963C9311972CEFB5
:101AA0002A0D12962C9312978295880F880F807CAE
:101AB000680F13966C93139714964C931497011513
:101AC000110561F0E52FF92F15969F01200F311FA9
:101AD000E217F30719F081918D93FACF0B5F1F4F37
:101AE000F701319680E09F012E193F092017310739
:101AF00018F49191890FF7CF0E0D1F1DD8018C930B
:101B000084E279DA8701C8018E199F098A159B053D
:101B100008F08ACFF80181918F018CDBF4CF0F930D
:101B20001F93CF93DF931F921F92CDB7DEB78091A3
:101B3000F40A80936B0A8091F50A80936C0A809175
:101B4000F60A80936D0A8091790D882309F47FC18C
:101B500081E080936E0A8091830D80936F0A80915B
:101B6000820D8093700A0E9480058091C20D80933F
:101B7000710A8091C30D8093720A8091C40D809385
:101B8000730A8091C50D8093740A20917F1730915C
:101B90008017CE0101962115310509F05BC18358EC
:101BA00097419A83898389819A819093750A80935A
:101BB000760A72D980916A0A882309F44EC181E0BD
:101BC0008093770A80917E0D8093780A80917F0DB3
:101BD0008093790A80912E1680937A0A80917517E6
:101BE00090917617A0917717B0917817B0937B0AF0
:101BF0008091751790917617A0917717B09178170B
:101C0000A0937C0A8091751790917617A091771711
:101C1000B091781790937D0A8091751790917617FF
:101C2000A0917717B091781780937E0A80917917E9
:101C300090917A17A0917B17B0917C17B0937F0A8F
:101C40008091791790917A17A0917B17B0917C17AA
:101C5000A093800A8091791790917A17A0917B17B1
:101C6000B0917C179093810A8091791790917A179F
:101C7000A0917B17B0917C178093820A8091DC142D
:101C80008093830A8091231690912416A0912516A3
:101C9000B0912616B093840A809123169091241651
:101CA000A0912516B0912616A093850A809123163F
:101CB00090912416A0912516B09126169093860A2D
:101CC0008091231690912416A0912516B091261686
:101CD0008093870A8091271690912816A091291643
:101CE000B0912A16B093880A8091271690912816F1
:101CF000A0912916B0912A16A093890A80912716DF
:101D000090912816A0912916B0912A1690938A0ACC
:101D10008091271690912816A0912916B0912A1625
:101D200080938B0A80918A1380938C0A8091D114BE
:101D30009091D214A091D314B091D414B0938D0A81
:101D40008091D1149091D214A091D314B091D41455
:101D5000A0938E0A8091D1149091D214A091D314A3
:101D6000B091D41490938F0A8091D1149091D21491
:101D7000A091D314B091D4148093900A8091D5147B
:101D80009091D614A091D714B091D814B093910A21
:101D90008091D5149091D614A091D714B091D814F5
:101DA000A093920A8091D5149091D614A091D71443
:101DB000B091D8149093930A8091D5149091D61431
:101DC000A091D714B091D8148093940A80919B0D60
:101DD000882309F445C081E08093950A8091810DA4
:101DE0008093960A8091990D8093970A8091980D1F
:101DF0008093980A8091800D8093990A80919A0D22
:101E000080939A0A80914D0280939B0A80914A02A6
:101E100090914B0290939C0A80939D0A8091480276
:101E20009091490290939E0A80939F0A05E310E0E7
:101E30002BE63AE040E062E080E0BADD90E080E04E
:101E40000F900F90DF91CF911F910F9108951092F5
:101E50006E0A81CE821B930BA4CE1092770AB2CE6B
:101E60001092950ABBCF0F931F93CF93DF93CDB7FB
:101E7000DEB765970FB6F894DEBF0FBECDBF85E124
:101E8000E7E7F2E0DE01119601900D928A95E1F705
:101E900005E110E09E012F5F3F4F40E061E080E0F0
:101EA00087DD90E080E065960FB6F894DEBF0FBE48
:101EB000CDBFDF91CF911F910F91089501E010E008
:101EC00028E73DE040E060E080E072DD60E085E230
:101ED0000E94F702FFCF0F931F93CF93DF93CDB7ED
:101EE000DEB76E970FB6F894DEBF0FBECDBFECEE37
:101EF000FAE08081898381818A83E6E5FAE0808146
:101F00008B8381818C8382818D8383818E83848185
:101F10008F83858188878681898787818A87EEE498
:101F2000FAE080818B8781818C8782818D87838194
:101F30008E8784818F878581888B8681898B878135
:101F40008A8B1B8A83E08C8B1D8A1E8A9FE59F8B60
:101F50009FEB988F9AE7998F9CE89A8F1B8E8C8FB6
:101F60001D8E1E8E0EE110E09E012F5F3F4F41E05F
:101F700065E080E01DDD6E960FB6F894DEBF0FBE03
:101F8000CDBFDF91CF911F910F910895CF92DF9236
:101F9000EF92FF920F931F93CF93DF931F921F92A5
:101FA000CDB7DEB70E9483038CE08093B8008091A8
:101FB000741391E09093F512809317131092F61218
:101FC0001092181380917B1390917C13029721F447
:101FD00090E080E00E943D0690E080E00E943D0697
:101FE00081E00E94E801882309F460C01092790D15
:101FF0001092EC0A80E98093ED0A1092560A109232
:10200000570A1092580A1092590A10925A0A1092BE
:102010005B0A10925C0A10925D0A10924E0A1092AE
:102020004F0A1092500A1092510A1092520A1092BE
:10203000530A1092540A1092550A84EF91E090933B
:1020400005028093040288E799E690930302809347
:10205000020288E893E190930102809300021092BB
:102060009B0D87E28093810D84E18093990D84E03C
:102070008093980D81E08093800D10929A0D1092BC
:10208000830D1092820D01E010E027E432E04BEF67
:102090006FE080E08DDC0F900F90DF91CF911F916A
:1020A0000F91FF90EF90DF90CF90089581E08093A3
:1020B000790D22E030E04CEE5AE060E070E0CB01B8
:1020C0000BD9882361F01092EC0A1092ED0A01E01E
:1020D00010E027E432E04CEF6FE080E069DC28E0BC
:1020E00030E046E55AE062E070E080E090E0F4D84D
:1020F0008823C1F01092560A1092570A1092580A7B
:102100001092590A10925A0A10925B0A10925C0AB5
:1021100010925D0A01E010E027E432E04CEF6FE03E
:1021200080E046DC28E030E04EE45AE06AE070E00F
:1021300080E090E0D1D88823C1F010924E0A10922E
:102140004F0A1092500A1092510A1092520A10929D
:10215000530A1092540A1092550A01E010E027E445
:1021600032E04CEF6FE080E023DC22E030E0AE01B3
:102170004F5F5F4F62E170E080E090E0ADD8882370
:1021800009F454C184EF91E0909305028093040216
:1021900001E010E027E432E04CEF6FE080E008DC83
:1021A00022E030E0AE014F5F5F4F64E170E080E01D
:1021B00090E092D8882309F448C188E799E6909383
:1021C00003028093020201E010E027E432E04CEFCA
:1021D0006FE080E0EDDB22E030E0AE014F5F5F4F6B
:1021E00066E170E080E090E077D8882309F43CC194
:1021F0008CEE93E1909301028093000201E010E0E5
:1022000027E432E04CEF6FE080E0D2DB21E030E009
:10221000AE014F5F5F4F68E170E080E090E05CD816
:10222000882309F430C110929B0D01E010E027E4EF
:1022300032E04CEF6FE080E0BBDB21E030E0AE014C
:102240004F5F5F4F69E170E080E090E045D8882300
:1022500009F423C187E28093810D01E010E027E4B7
:1022600032E04CEF6FE080E0A3DB21E030E0AE0134
:102270004F5F5F4F6AE170E080E090E02DD88823E7
:1022800009F413C184E18093990D01E010E027E483
:1022900032E04CEF6FE080E08BDB21E030E0AE011C
:1022A0004F5F5F4F6BE170E080E090E015D88823CE
:1022B00009F403C184E08093980D01E010E027E465
:1022C00032E04CEF6FE080E073DB21E030E0AE0104
:1022D0004F5F5F4F6CE170E080E090E00E946C091E
:1022E000882309F4F2C084E18093800D01E010E0BE
:1022F00027E432E04CEF6FE080E05ADB21E030E091
:10230000AE014F5F5F4F6DE170E080E090E00E94B2
:102310006C09882309F4E1C010929A0D01E010E0E5
:1023200027E432E04CEF6FE080E042DB21E030E078
:10233000AE014F5F5F4F6EE170E080E090E00E9481
:102340006C09882309F4D2C081E080934D0201E03A
:1023500010E027E432E04CEF6FE080E029DB22E080
:1023600030E0AE014F5F5F4F6FE170E080E090E0E2
:102370000E946C09882309F4C3C088E893E1909314
:102380004B0280934A0201E010E027E432E04CEF78
:102390006FE080E00DDB22E030E0AE014F5F5F4F89
:1023A00061E270E080E090E00E946C09882309F40B
:1023B000BBC082E390E0909349028093480201E021
:1023C00010E027E432E04CEF6FE080E0F1DA21E04A
:1023D00030E043E85DE06FEF70E080E090E00E9465
:1023E0006C09882351F01092830D01E010E027E47E
:1023F00032E04CEF6FE080E0DBDA1092820DC12C0E
:10240000D12C7601C701B6014DD89091820D890F6C
:102410008093820D8FEFC81AD80AE80AF80A8FEF66
:10242000C816D104E104F10469F735CE89819A8197
:10243000982789279827009729F090930502809381
:102440000402AECE84EF91E0F8CF89819A8198277B
:1024500089279827009729F090930302809302021E
:10246000BACE88E799E6F8CF89819A81982789279B
:102470009827009729F09093010280930002C6CE1E
:102480008CEE93E1F8CF898180FF04C081E08093D6
:102490009B0DD3CE10929B0DD0CE8981882319F04D
:1024A0008093810DE2CE87E2FBCF8981882319F0EA
:1024B0008093990DF2CE84E1FBCF8981882319F0B6
:1024C0008093980D02CF84E0FBCF8981882319F097
:1024D0008093800D13CF84E1FBCF8981823018F483
:1024E00080939A0D23CF10929A0D20CF89819FEF70
:1024F000980F933018F480934D0231CF81E0FBCFD9
:10250000898190E0982F88272A81820F911D9093CE
:102510004B0280934A02892B21F081E080934C0288
:102520003ACF10924C0237CF898190E0982F8827BC
:102530002A81820F911D009729F090934902809380
:10254000480245CF82E390E0F8CF0F931F93CF93DB
:10255000DF931F921F92CDB7DEB7182F81110FC0E6
:1025600001E010E027E432E043E063E080E020DABD
:102570000F900F90DF91CF911F910F910895829549
:10258000869586958370823009F0A0C015FF34C00F
:1025900014FF89C081E08093D91413FF42C0809357
:1025A000DB1412FF41C060E086E10E94F70260E0A8
:1025B00087E10E94F70260E088E10E94F70260E094
:1025C00089E10E94F70261E08AE10E94F70261E07E
:1025D0008BE10E94F702812F837009F04BC08FEFCF
:1025E00093E00E94F3088FEF93E09093DE148093C2
:1025F000DD141F7D1093DC1419828091DC148A8312
:1026000002E010E09E012F5F3F4F43E063E080E077
:10261000CFD9198280918A138A839E012F5F3F4F01
:10262000A3CF1092DB14BDCF1092871380918A1331
:102630008F7E80938A1360E08AE10E94F70260E057
:102640008BE10E94F70260E08CE10E94F70260E0FB
:102650008DE10E94F70260E088E10E94F70260E0ED
:1026600089E10E94F70261E086E10E94F70261E0E1
:1026700087E1AFCF813039F48FE790E00E94F30813
:102680008FE790E0B2CF823039F48FE090E00E9483
:10269000F3088FE090E0A9CF87E090E00E94F30874
:1026A00087E090E0A2CF1092D91460E086E10E940A
:1026B000F70260E087E10E94F70260E08AE10E9491
:1026C000F70260E08BE10E94F70293CF833009F0BC
:1026D00093CF15FF91CF14FF84C081E080938713BF
:1026E00013FF31C08093891312FF30C060E086E190
:1026F0000E94F70260E087E10E94F70260E088E153
:102700000E94F70260E089E10E94F70261E08CE13B
:102710000E94F70261E08DE10E94F702812F837031
:10272000D9F58FEF93E00E9471080E9429080E945A
:1027300022088FEF93E090938C1380938B131F7D6F
:1027400010938A1359CF10928913CECF1092D914B7
:102750008091DC148F7E8093DC1460E08AE10E941B
:10276000F70260E08BE10E94F70260E08CE10E94DA
:10277000F70260E08DE10E94F70260E086E10E94CE
:10278000F70260E087E10E94F70261E088E10E94C1
:10279000F70261E089E1C0CF813059F48FE790E022
:1027A0000E9471080E9429080E9422088FE790E089
:1027B000C2CF823059F48FE090E00E9471080E94ED
:1027C00029080E9422088FE090E0B5CF87E090E0D2
:1027D0000E9471080E9429080E94220887E090E068
:1027E000AACF1092871360E088E10E94F70260E0B0
:1027F00089E10E94F70260E08CE10E94F70260E04C
:102800008DE10E94F7029BCF4F925F926F927F9271
:102810008F929F92AF92BF92CF92DF92EF92FF92F0
:102820000F931F93CF93DF93CDB7DEB7ADB6BEB690
:1028300090919B0D992359F18DB69EB69CEF940F04
:102840002DB73EB7291B31090FB6F8943EBF0FBE16
:102850002DBF0DB71EB70F5F1F4F992311F40C94B6
:102860004220FB013496D80124E0241720F4319152
:102870003D932F5FFACF20914D022130F1F02230AD
:1028800009F4D2C50FB6F8949EBE0FBE8DBE0FB62A
:10289000F894BEBE0FBEADBEDF91CF911F910F91D8
:1028A000FF90EF90DF90CF90BF90AF909F908F9070
:1028B0007F906F905F904F900895813019F7F801E5
:1028C00080818C3809F41EC108F03FC0843209F4BD
:1028D000B8C08234B9F69430A8F2618170E090E01B
:1028E00080E00E946C4926E636E646E25FE30E94FD
:1028F000CB496B017C0120E030E0A9010E94134C20
:1029000020E030E040E05FE387FDE0C0C701B601B2
:102910000E94164B0E94E24B162F8091990D843134
:1029200009F0B0CF8091980D843009F0ABCF1A3008
:1029300008F0D1C060E080E10E94950A8FED92E03E
:1029400036D8812F0E94A2349DCF843D09F4F7C26E
:10295000843E09F4C3C38E3C09F094CF963008F44A
:1029600091CF618170E090E080E0962F88277727F3
:102970006627C280D12CF12CE12C7601DD24CC24F9
:102980006C0D7D1D8E1D9F1D2481620F711D811D8B
:10299000911D038110E030E020E0322F212F102F15
:1029A0000027600F711F821F931F20919A0D211124
:1029B0000BC20E946A4920E030E040E05EE30E94E2
:1029C000CB496B017C0120E030E0A9010E94134C4F
:1029D00020E030E040E05FE387FD0BC2C701B601B5
:1029E0000E94164B0E94E24B0E946C4920E030E0AE
:1029F0004AE754E40E947A4B6B017C018091990D67
:102A0000843109F03FCF8091980D843009F03ACF9E
:102A100020E030E040E251E4C701B6010E9466497F
:102A200087FFECC163E080E00E94950A8CED92E0A4
:102A30000E94D70C43E050E0C701B6010E94D23497
:102A400021CF943008F41ECF80919A0D811118C0C7
:102A500011818091990D8431C9F48091980D843051
:102A600009F010CF1A30D8F460E080E00E94950A97
:102A70008FED92E00E94D70C812F0E94A23402CFEA
:102A8000813011F41281E5CF10E0E3CF803109F0FD
:102A9000F9CE8091980D823009F0F4CEE3CF86EF25
:102AA000810F60E08A3558F480E00E94950A80EE3C
:102AB00092E00E94D70C812F0E94A234E3CE80E0E6
:102AC0000E94950A812F0E94A234DCCEC701B60174
:102AD0000E94154B1FCF86EF810F60E08A3558F4B6
:102AE00080E10E94950A80EE92E00E94D70C812F2F
:102AF0000E94A234C7CE80E10E94950A812F0E94D5
:102B0000A234C0CE943008F4BDCE80919A0D8111CC
:102B10007CC0618170E090E080E00E946C4926E614
:102B200036E646EE5FE30E94CB4926E636E646E40B
:102B300053E40E94154B6B017C0120E030E0A901B9
:102B40000E94134C20E030E040E05FE387FD53C07B
:102B5000C701B6010E94164B0E94E24B7B01F801AF
:102B6000628170E090E080E00E946C4926E636E6E3
:102B700046EE5FE30E94CB4926E636E646E453E4A0
:102B80000E94154B2B013C0120E030E0A9010E947E
:102B9000134C20E030E040E05FE387FD31C0C3012B
:102BA000B2010E94164B0E94E24B8B018091990D5D
:102BB000843109F0ACC08091980D843009F062CE68
:102BC0003DE9E3163FEFF30684F561E080E00E9403
:102BD000950A83EE92E00E94D70C0D39EFEF1E07A5
:102BE0000CF050C061E084E00E94950A83EE92E010
:102BF0000E94D70C47CEC701B6010E94154BACCF3F
:102C0000C301B2010E94154BCECF813049F46181DE
:102C1000262F2058330B790102810058110BC6CFA3
:102C200010E000E0F12CE12CC1CFC7018D599F4F7E
:102C300061E08A35910510F161E087EFE8168FEFCA
:102C4000F806B0F49AE0E916F10460F461E080E07F
:102C50000E94950A8FED92E00E94D70CC7010E9456
:102C6000A934BBCFC7010A9761E08A35910530F4DA
:102C700080E00E94950A80EE92E0EECF80E00E9414
:102C8000950AECCFC8018D599F4F8A35910540F4C4
:102C900061E084E00E94950AC8010E94A934F2CD47
:102CA000073FFFEF1F0760F061E084E00E94950A94
:102CB00080EE92E00E94D70CC8010E94A934E2CDB8
:102CC0000A30110560F461E084E00E94950A8FEDFE
:102CD00092E00E94D70CC8010E94A934D3CDC8014C
:102CE0000A9761E08A35910558F484E00E94950ABC
:102CF00080EE92E00E94D70CC8010E94A934C2CD98
:102D000084E00E94950AC8010E94A934BBCD80319D
:102D100009F0B8CD8091980D823009F0B3CD2DE93E
:102D2000E2162FEFF2064CF461E080E00E94950A73
:102D300083EE92E00E94D70CA5CDC7018D599F4F1D
:102D40008A35910540F461E080E00E94950AC70150
:102D50000E94A93497CD37EFE3163FEFF30660F0FA
:102D600061E080E00E94950A80EE92E00E94D70C1C
:102D7000C7010E94A93486CD8AE0E816F10460F408
:102D800061E080E00E94950A8FED92E00E94D70CEE
:102D9000C7010E94A93476CDC7010A9761E08A3540
:102DA000910558F480E00E94950A80EE92E00E941E
:102DB000D70CC7010E94A93465CD80E00E94950A16
:102DC000C7010E94A9345ECDC12CD12C76012130DF
:102DD00009F014CE0E946A4921EB3AE249EC54E42E
:102DE0000E94CB4920E030E04AEF55E40E947A4B44
:102DF000E8CDC701B6010E94154BF4CD20E030E0CC
:102E000040E251E4C701B6010E94134C87FD19C08E
:102E100020E030E048EC52E4C701B6010E94664968
:102E200087FF0FC063E080E00E94950A8DED92E07D
:102E30000E94D70C43E050E0C701B6010E94D23493
:102E400021CD20E030E048EC52E4C701B6010E94F9
:102E5000134C87FD19C020E030E04AE754E4C70175
:102E6000B6010E94664987FF0FC063E080E00E94C0
:102E7000950A8EED92E00E94D70C43E050E0C70126
:102E8000B6010E94D234FECC20E030E04AE754E4A0
:102E9000C701B6010E94134C87FD19C020E030E441
:102EA0004CE156E4C701B6010E94664987FF0FC096
:102EB00063E080E00E94950A8FED92E00E94D70CBB
:102EC00043E050E0C701B6010E94D234DBCC20E0E1
:102ED00030E44CE156E4C701B6010E94134C87FD73
:102EE00019C020E030E543EC57E4C701B6010E9469
:102EF000664987FF0FC063E080E00E94950A80EE7C
:102F000092E00E94D70C43E050E0C701B6010E9456
:102F1000D234B8CC20E030E543EC57E4C701B60129
:102F20000E94134C87FDAECC63E080E00E94950ABE
:102F300043E050E0C701B6010E94D234A3CC9430E4
:102F400008F4A0CC618170E090E080E00E946C49C0
:102F500020E030E040E251E40E94CB4923EB3BE724
:102F600042E75DE30E94CB496B017C0120E030E049
:102F7000A9010E94134C20E030E040E05FE387FDB0
:102F80007FC0C701B6010E94164B0E94E24B0E940F
:102F90006C496B017C01F801628170E090E080E097
:102FA0000E946C4920E030E040E251E40E94CB49AD
:102FB00023EB3BE742E75DE30E94CB492B013C0159
:102FC00020E030E0A9010E94134C20E030E040E016
:102FD0005FE387FD5AC0C301B2010E94164B0E94F5
:102FE000E24B0E946C492B013C018091990D843188
:102FF00009F048CC8091980D843009F043CC20E052
:1030000030E040E251E4C701B6010E947A4B6B0107
:103010007C0120E030E040E251E40E94664987FFF5
:1030200039C062E080E00E94950A80EE92E00E9442
:10303000D70C41E050E0C701B6010E94D23420E035
:1030400030E040E251E4C301B2010E947A4B6B01CF
:103050007C0120E030E040E251E40E94664987FFB5
:1030600028C062E085E00E94950A80EE92E00E940E
:10307000D70C41E050E0C701B6010E94D23402CC27
:10308000C701B6010E94154B80CFC301B2010E9457
:10309000154BA5CF20E030E040E251E4C701B60176
:1030A0000E94134C87FDCBCF62E080E00E94950A1E
:1030B000C0CF20E030E040E251E4C701B6010E94F9
:1030C000134C87FDDFCB62E085E00E94950A41E06A
:1030D00050E0C701B6010E94D234D4CB943008F43A
:1030E000D1CB80919A0D811168C0E180F0E2EF9E12
:1030F00070011124F801628170E090E080E00E948C
:103100006C4920E030E040E251E40E94CB4925EBDD
:1031100032EC44E75DE30E94CB492B013C0120E007
:1031200030E0A9010E94134C20E030E040E05FE372
:1031300087FD61C0C301B2010E94164B0E94E24BA1
:103140000E946C4920E030E040E251E40E947A4B5A
:103150002B013C018091990D843109F0A6C080912A
:10316000980D843009F026C1FAE0EF16F10408F05A
:1031700047C060E088E00E94950A8EED92E00E94D0
:10318000D70CC7010E94D20C20E030E040E251E4AD
:10319000C301B2010E94664987FF4FC061E08DE024
:1031A0000E94950A80EE92E00E94D70C41E050E028
:1031B000C301B2010E94D23465CB412C512C3201A3
:1031C000F12CE12C813031F6E180F0E2EF9E7001CC
:1031D0001124F801628170E090E080E00E946C4967
:1031E00020E030E040E251E40E94CB4929ED31EA91
:1031F0004CED50E48ACFC301B2010E94154B9ECF23
:10320000C7010A978A35910538F460E088E00E948A
:10321000950A8FED92E0B3CFC7018456910960E023
:103220008438934030F488E00E94950A80EE92E062
:10323000A6CF88E00E94950AA4CF20E030E040E2CB
:1032400051E4C301B2010E94134C87FD15C020E078
:1032500030E048EC52E4C301B2010E94664987FFA6
:103260000BC061E08DE00E94950A41E050E0C3018F
:10327000B2010E94D23406CB20E030E048EC52E4A8
:10328000C301B2010E94134C87FDFCCA61E08DE0CE
:103290000E94950A80EE92E00E94D70C50E040E038
:1032A000C301B2010E94D234EDCA803109F082C05C
:1032B0008091980D823009F07DC03AE0E316F10468
:1032C00020F560E089E00E94950A8EED92E00E9470
:1032D000D70CC7010E94D20C20E030E040E251E45C
:1032E000C301B2010E94664987FF2CC061E089E0FA
:1032F0000E94950A80EE92E00E94D70C41E050E0D7
:10330000C301B2010E94D234BDCAC7010A978A35EF
:10331000910538F460E089E00E94950A8FED92E013
:10332000D6CFC7018456910960E08438934030F4C9
:1033300089E00E94950A80EE92E0C9CF89E00E9460
:10334000950AC7CF20E030E040E251E4C301B2016A
:103350000E94134C87FD15C020E030E048EC52E499
:10336000C301B2010E94664987FF0BC061E089E09A
:103370000E94950A41E050E0C301B2010E94D2349C
:1033800081CA20E030E048EC52E4C301B2010E945F
:10339000134C87FD77CA61E089E00E94950A80EEB0
:1033A00092E00E94D70C50E040E0C301B2010E94BD
:1033B000D23468CAFAE0EF16F10460F460E081E00C
:1033C0000E94950A8EED92E00E94D70CC7010E94E0
:1033D000D20C58CAC7010A978A35910560F460E09B
:1033E00081E00E94950A8FED92E00E94D70CC70100
:1033F0000E94D20C47CAC7018456910960E0843804
:10340000934058F481E00E94950A80EE92E00E9479
:10341000D70CC7010E94D20C35CA81E00E94950AE0
:10342000C7010E94D20C2ECA823009F02BCAF801C3
:103430008081843109F026CA933008F423CA81813F
:103440008B3009F49DC268F5853009F449C18A3092
:1034500009F426C2813009F015CA80919A0D8111B4
:1034600085C0028110E08091990D843109F0E6C099
:103470008091980D843009F005CA0D39FFEF1F07C0
:103480000CF4B0CBC8018D599F4F8A35910508F0D7
:103490009EC061E084E00E94950AC8010E94A934A0
:1034A000F1C9843209F4E9C410F5813109F0EAC99F
:1034B0000281F0E20F9F800111248091990D8431E7
:1034C00009F05AC48091980D843009F099C40A30EB
:1034D00011050CF024C460E088E00E94950A8EED8E
:1034E00092E00E94D70CC8010E94D20CCBC9813453
:1034F00009F433C5863409F0C5C9628170E090E0F3
:1035000080E00E946C4920E73EEC48EC5EE30E94BC
:10351000CB496B017C0120E030E0A9010E94134CF3
:1035200020E030E040E05FE387FD8EC5C701B601D3
:103530000E94164B0E94E24B162F8091990D843108
:1035400009F0A0C98091980D843009F09BC91A3008
:1035500008F07FC560E080E10E94950A8FED92E05F
:103560000E94D70C812F0E94A2348CC9813061F552
:10357000628170E090E080E00E946C492BEE38E3BD
:103580004EE05FE30E94CB4925EE38E34EE851E47C
:103590000E94154B6B017C0120E030E0A9010E94E4
:1035A000134C20E030E040E05FE387FD08C0C70136
:1035B000B6010E94164B0E94E24B8B0154CFC7010B
:1035C000B6010E94154BF7CF10E000E04CCF073F4B
:1035D0002FEF120760F061E084E00E94950A80EE10
:1035E00092E00E94D70CC8010E94A9344BC90A304E
:1035F000110560F461E084E00E94950A8FED92E08D
:103600000E94D70CC8010E94A9343CC9C8010A977E
:1036100061E08A35910558F484E00E94950A80EEB5
:1036200092E00E94D70CC8010E94A9342BC984E003
:103630000E94950AC8010E94A93424C9803109F06A
:1036400021C98091980D823009F01CC90D393FEFD6
:1036500013070CF4C7CAC8018D599F4F8A359105CD
:1036600040F461E084E00E94950AC8010E94A934F8
:1036700009C9073F8FEF180760F061E084E00E94FE
:10368000950A80EE92E00E94D70CC8010E94A934EE
:10369000F9C80A30110560F461E084E00E94950ADF
:1036A0008FED92E00E94D70CC8010E94A934EAC8AD
:1036B000C8010A9761E08A35910558F484E00E94B8
:1036C000950A80EE92E00E94D70CC8010E94A934AE
:1036D000D9C884E00E94950AC8010E94A934D2C8C2
:1036E00080919A0D811148C0628170E090E080E085
:1036F0000E946C4926E636E646EE5FE30E94CB491F
:1037000026E636E646E453E40E94154B6B017C0145
:1037100020E030E0A9010E94134C20E030E040E0BE
:103720005FE387FD24C0C701B6010E94164B0E94CB
:10373000E24B8B018091990D843109F05DC080913D
:10374000980D843009F09EC80D39FFEF1F070CF467
:10375000EBCAC8018D599F4F8A359105B0F461E0DD
:1037600080E00E94950AC8010E94A9348BC8C70155
:10377000B6010E94154BDBCF813021F40281005845
:10378000110BD8CF10E000E0D5CF073F2FEF120785
:1037900060F061E080E00E94950A80EE92E00E9475
:1037A000D70CC8010E94A9346DC80A30110560F415
:1037B00061E080E00E94950A8FED92E00E94D70CB4
:1037C000C8010E94A9345EC8C8010A9761E08A3521
:1037D000910558F480E00E94950A80EE92E00E94E4
:1037E000D70CC8010E94A9344DC880E00E94950AF8
:1037F000C8010E94A93446C8803109F043C88091AD
:10380000980D823009F03EC80D393FEF13070CF4D4
:103810008BCAC8018D599F4F8A35910540F461E0EC
:1038200080E00E94950AC8010E94A9342BC8073F76
:103830008FEF180760F061E080E00E94950A80EE4B
:1038400092E00E94D70CC8010E94A9341BC80A301C
:10385000110560F461E080E00E94950A8FED92E02E
:103860000E94D70CC8010E94A9340CC8C8010A974D
:1038700061E08A35910560F480E00E94950A80EE4F
:1038800092E00E94D70CC8010E94A9340C94421403
:1038900080E00E94950AC8010E94A9340C94421449
:1038A000628170E090E080E00E946C4920E030E0AE
:1038B00040E251E40E94CB4923EB3BE742E75DE362
:1038C0000E94CB496B017C0120E030E0A9010E94FD
:1038D000134C20E030E040E05FE387FD34C0C701D7
:1038E000B6010E94164B0E94E24B0E946C49209147
:1038F000990D243111F00C9442142091980D24302C
:1039000011F00C94421420E030E040E251E40E94B7
:103910007A4B6B017C0120E030E040E251E40E94F0
:10392000664987FF15C062E080E00E94950A80EE3C
:1039300092E00E94D70C41E050E0C701B6010E941E
:10394000D2340C944214C701B6010E94154BCBCF60
:1039500020E030E040E251E4C701B6010E94134C80
:1039600087FF02C00C94421462E080E00E94950A36
:1039700041E050E0C701B6010E94D2340C944214D9
:1039800080919A0D81114EC0628170E090E080E0DC
:103990000E946C4925EB32EC44E75DE30E94CB4981
:1039A00020E030E040E251E40E94CB496B017C0111
:1039B00020E030E0A9010E94134C20E030E040E01C
:1039C0005FE387FD45C0C701B6010E94164B0E9408
:1039D000E24B0E946C4920E030E040E251E40E945A
:1039E0007A4B6B017C018091990D843109F0D7C02D
:1039F0008091980D843011F00C94421420E030E056
:103A000046EC52ECC701B6010E94664918162CF12B
:103A100061E08DE00E94950A82EE92E00E94D70C50
:103A20000C944214C12CD12C76018130E1F66281D4
:103A300070E090E080E00E946C4925EB32EC44E7B6
:103A40005DE30E94CB4929ED31EA4CED50E4A6CF6D
:103A5000C701B6010E94154BBACF20E030E046EC1A
:103A600052ECC701B6010E94134C1816D4F420E0A2
:103A700030E040E251ECC701B6010E9466491816D9
:103A800084F061E08DE00E94950A80EE92E00E9451
:103A9000D70C50E040E0C701B6010E94D2340C942C
:103AA000421420E030E040E251ECC701B6010E9430
:103AB000134C1816ACF420E030E0A901C701B601A0
:103AC0000E94664987FF0CC061E08DE00E94950A64
:103AD00041E050E0C701B6010E94D2340C94421478
:103AE00020E030E0A901C701B6010E94134C87FD18
:103AF0001AC020E030E040E251E4C701B6010E9464
:103B0000664987FF10C061E08DE00E94950A80EE53
:103B100092E00E94D70C41E050E0C701B6010E943C
:103B2000D2340C94421420E030E040E251E4C7016A
:103B3000B6010E94134C87FD16C020E030E048EC2F
:103B400052E4C701B6010E94664987FF0CC061E0DC
:103B50008DE00E94950A41E050E0C701B6010E9445
:103B6000D2340C94421420E030E048EC52E4C70117
:103B7000B6010E94134C87FF02C00C94421461E00E
:103B80008DE00E94950A80EE92E00E94D70C50E0F2
:103B900040E0C701B6010E94D2340C944214803137
:103BA00011F00C9442148091980D823011F00C9415
:103BB000421420E030E046EC52ECC701B6010E940E
:103BC0006649181654F061E089E00E94950A82EE79
:103BD00092E00E94D70C0C94421420E030E046ECB6
:103BE00052ECC701B6010E94134C1816D4F420E021
:103BF00030E040E251ECC701B6010E946649181658
:103C000084F061E089E00E94950A80EE92E00E94D3
:103C1000D70C50E040E0C701B6010E94D2340C94AA
:103C2000421420E030E040E251ECC701B6010E94AE
:103C3000134C1816ACF420E030E0A901C701B6011E
:103C40000E94664987FF0CC061E089E00E94950AE6
:103C500041E050E0C701B6010E94D2340C944214F6
:103C600020E030E0A901C701B6010E94134C87FD96
:103C70001AC020E030E040E251E4C701B6010E94E2
:103C8000664987FF10C061E089E00E94950A80EED6
:103C900092E00E94D70C41E050E0C701B6010E94BB
:103CA000D2340C94421420E030E040E251E4C701E9
:103CB000B6010E94134C87FD16C020E030E048ECAE
:103CC00052E4C701B6010E94664987FF0CC061E05B
:103CD00089E00E94950A41E050E0C701B6010E94C8
:103CE000D2340C94421420E030E048EC52E4C70196
:103CF000B6010E94134C87FF02C00C94421461E08D
:103D000089E00E94950A80EE92E00E94D70C50E074
:103D100040E0C701B6010E94D2340C944214C8019D
:103D20000A978A35910568F460E088E00E94950A58
:103D30008FED92E00E94D70CC8010E94D20C0C9427
:103D40004214C8018456910960E08438934060F4BD
:103D500088E00E94950A80EE92E00E94D70CC8018C
:103D60000E94D20C0C94421488E00E94950AC8016B
:103D70000E94D20C0C944214803109F041C0809111
:103D8000980D8230E9F50A3011056CF460E089E0A5
:103D90000E94950A8EED92E00E94D70CC8010E9405
:103DA000D20C0C944214C8010A978A35910568F424
:103DB00060E089E00E94950A8FED92E00E94D70CA6
:103DC000C8010E94D20C0C944214C8018456910977
:103DD00060E08438934060F489E00E94950A80EEA8
:103DE00092E00E94D70CC8010E94D20C0C9442149D
:103DF00089E00E94950AC8010E94D20C0C944214DA
:103E00000A3011056CF460E081E00E94950A8EEDA5
:103E100092E00E94D70CC8010E94D20C0C9442146C
:103E2000C8010A978A35910568F460E081E00E9434
:103E3000950A8FED92E00E94D70CC8010E94D20C27
:103E40000C944214C8018456910960E08438934070
:103E500060F481E00E94950A80EE92E00E94D70C07
:103E6000C8010E94D20C0C94421481E00E94950A71
:103E7000C8010E94D20C0C944214628170E090E060
:103E800080E00E946C4920E030E040E251E40E9472
:103E9000CB4923EB3BE742E75DE30E94CB496B0153
:103EA0007C0120E030E0A9010E94134C20E030E0CA
:103EB00040E05FE387FD34C0C701B6010E94164BA6
:103EC0000E94E24B0E946C492091990D243111F01F
:103ED0000C9442142091980D243011F00C9442144B
:103EE00020E030E040E251E40E947A4B6B017C011B
:103EF00020E030E040E251E40E94664987FF15C0AF
:103F000062E085E00E94950A80EE92E00E94D70C64
:103F100041E050E0C701B6010E94D2340C94421433
:103F2000C701B6010E94154BCBCF20E030E040E244
:103F300051E4C701B6010E94134C87FF02C00C94E4
:103F4000421462E085E00E94950A41E050E0C7011A
:103F5000B6010E94D2340C94421480919A0D8111C2
:103F600039C0628170E090E080E00E946C4920E0FE
:103F700030E040E05FE30E94CB496B017C0120E030
:103F800030E0A9010E94134C20E030E040E05FE304
:103F900087FD2FC0C701B6010E94164B0E94E24B5D
:103FA000162F8091990D843159F58091980D8430A8
:103FB00011F00C9442141A3070F560E080E00E9419
:103FC000950A8FED92E00E94D70C812F0E94A234B7
:103FD0000C944214813091F4628170E090E080E0B2
:103FE0000E946C492CEF3EEF4DEC5FE30E94CB4901
:103FF000BECFC701B6010E94154BD0CF10E0D1CF84
:10400000803111F00C9442148091980D823011F09F
:104010000C944214D0CF86EF810F60E08A3560F4B3
:1040200080E00E94950A80EE92E00E94D70C812FDA
:104030000E94A2340C94421480E00E94950A812FC1
:104040000E94A2340C944214C701B6010E94154B81
:1040500071CA86EF810F60E08A3560F480E10E94CA
:10406000950A80EE92E00E94D70C812F0E94A23424
:104070000C94421480E10E94950A812F0E94A23480
:104080000C9442140FB6F894BEBE0FBEADBE0C9495
:1040900047144F925F926F927F928F929F92AF924E
:1040A000BF92CF92DF92EF92FF920F931F93CF9325
:1040B000DF9300D000D01F92CDB7DEB7CDB6DEB60D
:1040C0008091D914882309F49DC58091DD149091C5
:1040D000DE148F37910509F026C38091FC158111FC
:1040E00038C18091FE15811134C10E947405009180
:1040F000F7151091F8152091F9153091FA15601BFC
:10410000710B820B930B633371058105910508F4E4
:104110001BC20E949108882309F416C2ADB6BEB630
:104120000E9491088093F2148091F21490E004961A
:104130008DB69EB6881A990A0FB6F8949EBE0FBE29
:104140008DBE2DB73EB72F5F3F4F79010E9480058E
:104150008091C20DF70180838091C30D818380918E
:10416000C40D82838091C50D838310E08091F21489
:10417000181740F40E94D308F701E10FF11D848362
:104180001F5FF4CF0091F21410E00C5F1F4F9701F6
:1041900041E067E082E00E94D80C4091F2144C5F4D
:1041A000B70182E00E940414F7018481823141F456
:1041B0008091DC148E7F82638093DC140E94A512B0
:1041C00090910016992349F18091021681117DC0CA
:1041D0002091F5152130E1F520910616E4EFF4E188
:1041E000D7011496281731F041913D91431390E087
:1041F0008F5FF8CF992319F081E0809301168091A9
:104200000516882351F01092F415109200161092A2
:10421000011610920216109204160E948A088091CC
:10422000231690912416A0912516B091261601967A
:10423000A11DB11D8093231690932416A0932516DB
:10424000B09326160FB6F894BEBE0FBEADBE7CC1AD
:104250002230A8F2409106168091F415A82FB0E004
:10426000AB50BB4EF701349630E0431731F06D91FF
:104270005191651390E03F5FF8CF992309F4BFCFC8
:1042800031E0309301169091F6159F5F9093F615EB
:10429000E82FE40FEF5FE093F415F0E0E752FB4EF8
:1042A000838D809306162913AACF1092F6151092CB
:1042B000F4158091F41480930616809104168823D7
:1042C00009F49DCF309305169ACF2091F214809176
:1042D000061690E001962817190621F581E08093D3
:1042E00001161092171680910516882309F495CFB0
:1042F0001092F415109206161092001610920116E4
:104300001092021610920416198282E08A8302E04B
:1043100010E09E012F5F3F4F41E066E080E00E9489
:10432000D80C7BCF91E09093FB15809117168F5F8F
:10433000809317168B3030F010920016909305166C
:104340001092171664EF71E080E090E00E9444053F
:10435000CACF0E9474050091F7151091F8152091AD
:10436000F9153091FA15601B710B820B930B6B30B2
:1043700071058105910508F4E7C00E949108882322
:1043800009F4E2C090E080E00E94B208439709F48B
:1043900047C090E080E00E94B2088A9709F086C08A
:1043A00081E090E00E94B208892B09F07FC0ADB691
:1043B000BEB60E9491088093F2148091F21490E0AE
:1043C00004968DB69EB6881A990A0FB6F8949EBECA
:1043D0000FBE8DBE2DB73EB72F5F3F4F79010E94B4
:1043E00080051092FE151092FF158091C20DF70105
:1043F00080838091C30D81838091C40D82838091DD
:10440000C50D838310E08091F214181708F070C076
:104410000E94D308F701E10FF11D84831F5FF3CFE2
:1044200081E090E00E94B208892B09F0B2CF82E0CF
:1044300090E00E94B208892B09F0ABCFADB6BEB6B2
:104440000E9491088093F2148091F21490E00496F7
:104450008DB69EB6881A990A0FB6F8949EBE0FBE06
:104460008DBE2DB73EB72F5F3F4F79010E9480056B
:104470001092FC151092FD158091C20DF7018083FA
:104480008091C30D81838091C40D82838091C50D7D
:10449000838310E08091F214181750F50E94D3081E
:1044A000F701E10FF11D84831F5FF4CF0E94910893
:1044B0008093F2140E9480058091C20D89838091BF
:1044C000C30D8A838091C40D8B838091C50D8C832D
:1044D0008091FC159091FE15811107C1992309F473
:1044E0000BC1811109C18AE28D838091FF1503C13F
:1044F0000091F21410E00C5F1F4F970141E067E05C
:1045000082E00E94D80C4091F2144C5FB70182E027
:104510000E9404140FB6F894BEBE0FBEADBE0E943A
:104520008A088091231690912416A0912516B091A7
:1045300026160196A11DB11D809323169093241673
:10454000A0932516B0932616809100168823B9F102
:104550000E949108811133C00E94740500911316C6
:104560001091141620911516309116164B015C010E
:10457000801A910AA20AB30A95018401409111168A
:10458000509112164A01B12CA12C80169106A20658
:10459000B306A8F46093131670931416809315163F
:1045A0009093161680910116882349F08091021687
:1045B0008111FCC181E08093FB151092011680915E
:1045C000FB15882309F41EC30E949108182F81113E
:1045D00019C32091DD143091DE148091F5152F3729
:1045E000310509F0B3C3813009F075C38091F4152A
:1045F0001817E8F40E9474054B015C01E12FF0E00C
:10460000E752FB4E838D0E94990800E00E949108BA
:10461000181708F4ABC2002309F4ACC201E010E0A3
:1046200027E432E04EEF6FE080E00E94D80C8091EA
:10463000F415823008F4D1C20E949108823020F132
:1046400090E080E00E94B2084397F1F481E090E0AE
:104650000E94B208892BC1F00E9474054B015C01D5
:1046600010E00E9491089091F415981708F490C2F8
:10467000112309F499C201E010E027E432E04EEF83
:104680006FE080E00E94D80C8091F415823008F42D
:10469000A4C20E949108823008F49FC290E080E09A
:1046A0000E94B2088A9709F098C281E090E00E94C7
:1046B000B208892B09F491C20E9474054B015C0178
:1046C00010E00E9491089091F415981708F47AC2AE
:1046D000112309F4F2C201E010E027E432E04EEFCA
:1046E0006FE080E00E94D80C78C29111F7CE83E190
:1046F0008D838091FD158E830E94D3088F8307E000
:1047000010E09E012F5F3F4F41E067E082E00E9492
:10471000D80C4091F2144C5FBE016F5F7F4F82E076
:104720000E940414FCCE0F9709F0AFC00E949108BC
:10473000882309F409CFADB6BEB60E9491088093D4
:10474000F2140091F21410E0000F111F0D5F1F4FC3
:104750008DB69EB6801A910A0FB6F8949EBE0FBE13
:104760008DBE2DB73EB72F5F3F4F79010E94800568
:104770008091C20DF70180838091C30D8183809168
:10478000C40D82838091C50D83838091F51581309E
:10479000E9F48091F41484830E94D308712C8091F1
:1047A000F4157816D8F5872D90E04C01880C991CEB
:1047B0008E0C9F1C87529B4EFC01848DF4018583D7
:1047C0000E94D308F40186837394E9CF823060F1AC
:1047D000E091F415F0E0E752FB4E848DF7018483FD
:1047E0000E94D308712C809106167816B8F4872D94
:1047F00090E04C01880C991C8E0C9F1CE091F415E4
:10480000F0E0E752FB4EE80FF91F858DF401858338
:104810000E94D308F40186837394E5CF970142E0A8
:1048200067E082E00E94D80CF70184818E3F41F45A
:104830008091DC148D7F81638093DC140E94A5122B
:10484000809100168823C9F0809102168111A1C0C1
:104850009091F515913009F071C0909301168091F7
:104860000516882351F01092F4151092001610923C
:10487000011610920216109204164091F2144C5F29
:10488000B70182E00E940414C8CC0E947405009114
:10489000F7151091F8152091F9153091FA15601B54
:1048A000710B820B930B633371058105910508F43D
:1048B0004BCE0E949108882309F446CEADB6BEB611
:1048C0000E9491088093F2148091F21490E0049673
:1048D0008DB69EB6881A990A0FB6F8949EBE0FBE82
:1048E0008DBE2DB73EB72F5F3F4F79010E948005E7
:1048F0008091C20DF70180838091C30D81838091E7
:10490000C40D82838091C50D838310E08091F214E1
:10491000181740F40E94D308F701E10FF11D8483BA
:104920001F5FF4CF0091F21410E00C5F1F4F97014E
:1049300041E067E082E00E94D80C82CF923008F418
:104940008ECF21E0209301168091F6158F5F809322
:10495000F615E091F41530910616E30FEF5FE09342
:10496000F415F0E0E752FB4E338D309306169813A2
:1049700076CF1092F6151092F4158091F41480936E
:10498000061680910416882309F469CF2093051632
:1049900066CF81E08093011680910516882309F483
:1049A0006CCF1092F415109206165FCF2091061668
:1049B000243009F04DC08091F415811113C080910D
:1049C0000716909108163091091640910A164093E7
:1049D000F4143093F5149093F6148093F714209305
:1049E000F415E8CD6091F4147091F5148091F614EB
:1049F0009091F7140E94234C80900F1690901016FF
:104A0000B12CA12CDC01CB01880D991DAA1DBB1D69
:104A1000B093F414A093F5149093F6148093F714C4
:104A20002093F415880E991EAA1EBB1E00910B162A
:104A300010910C1620910D1630910E1608151905BF
:104A40002A053B0508F0B6CD81E080930516B2CD6E
:104A5000233009F045C08091F41581110DC080917B
:104A6000071690910816309109163093F41490931C
:104A7000F5148093F614B3CF3091F4148091F514AB
:104A800090E0B0E0A0E0BA2FA92F982F8827A32BA1
:104A90003091F614832B40910F165091101670E050
:104AA00060E0840F951FA61FB71FA093F414909386
:104AB000F5148093F6142093F415840F951FA61F08
:104AC000B71F40910B1650910C1660910D16709106
:104AD0000E16481759076A077B0708F4B5CF6ACD49
:104AE000223029F58091F415811109C080910716B3
:104AF000909108169093F4148093F51470CF409120
:104B00000F16509110168091F4149091F514982777
:104B100089279827840F951F9093F4148093F51498
:104B20002093F415840F951FB0E0A0E0CACF213088
:104B300009F040CD8091F415811108C080910716CD
:104B40008093F41481E08093F41534CD20910F16F6
:104B5000309110168091F414820F8093F41491E038
:104B60009093F415820F932F911DDECF011156CD36
:104B70001F5F3CCD0E947405681979098A099B0959
:104B800001E0653171058105910508F03FCD3DCD0E
:104B9000111171CD81E08093FC158091F514809303
:104BA000FD150E948A0870CD0E9474056819790964
:104BB0008A099B0911E0653671058105910508F0A8
:104BC00050CD4ECD111187CD81E08093FE1580919F
:104BD000F5148093FF150E948A081092FB158091AE
:104BE000271690912816A0912916B0912A160196A1
:104BF000A11DB11D8093271690932816A093291606
:104C0000B0932A1680918713882309F4A4C2809157
:104C10008B1390918C138F37910509F03AC30E9442
:104C200074050091A5141091A6142091A714309139
:104C3000A814601B710B820B930B63337105810504
:104C4000910508F400C20E943008882309F4FBC1D2
:104C5000ADB6BEB60E9430088093A0138091A01319
:104C600090E004968DB69EB6881A990A0FB6F8940D
:104C70009EBE0FBE8DBE2DB73EB72F5F3F4F790151
:104C80000E9480058091C20DF70180838091C30D41
:104C900081838091C40D82838091C50D838310E050
:104CA0008091A013181708F068C10E945108F701FD
:104CB000E10FF11D84831F5FF3CF0E947405681913
:104CC00079098A099B0911E065367105810591050D
:104CD00008F0F7CCF5CC823008F47FCF1091F415B2
:104CE0001F5FE12EF12C8091F41590E00196209148
:104CF0000616820F911DE816F9060CF06ECF0E9481
:104D000074052B013C01F701E752FB4E838D0E9495
:104D1000990800E08091F4155701A81AB1080E9483
:104D200091088A151B047CF40111D5CC0E947405EE
:104D3000641975098609970901E0653171058105D6
:104D4000910540F7E6CF002359F2C5CC2F3031054D
:104D500009F0A4C08130D1F58091F414E6E3F2E0CB
:104D60009191891709F419C622E0E634F207C1F7D8
:104D700001E010E024EF34E149EFB2CCB11040C6BD
:104D800090E080E00E94B2082091F41428171906E0
:104D9000D9F00E948A081F5F1A3008F420C601E08B
:104DA00010E024EF34E148EF9BCC0E9474056419B5
:104DB000750986099709BB24B3946630710581058E
:104DC000910508F015C613C60F5FFAC5823008F4C6
:104DD00004CF0091F415E02FF0E0E752FB4E248D54
:104DE000E6E3F2E086E492E03191231709F416C677
:104DF0008E179F07C9F7BCCF911046C090E080E0A6
:104E00000E94B208E091F415F0E0E752FB4E248DC9
:104E100028171906A1F00E948A081F5F1A3020F196
:104E2000BECF0E94740564197509860997099924F3
:104E300093946630710581059105F8F41DC0A39423
:104E4000B02EBA0C4A2D50E08091F41590E00196F6
:104E500020910616820F911D481759070CF0BDCE00
:104E60009A012C503B4E79010E9474052B013C01A4
:104E7000F70180810E949908912C0E949108B81630
:104E800008F4BACF992069F2E091F415F0E0E65207
:104E9000FB4E838D8983EB0DF11DB6C5813041F545
:104EA0008091F415181708F098CE0E9474054B01F4
:104EB0005C01E12FF0E0E752FB4E838D0E949908E0
:104EC00000E00E949108181778F0011104CC0E94AC
:104ED0007405681979098A099B0901E06531710532
:104EE0008105910570F7ECCF0111F5CB1F5FD8CF8D
:104EF000823008F472CEB090F41511E01B0DB0941E
:104F00000B2D010FE12EF12C8091F41590E001960C
:104F100020910616820F911DE816F9060CF05DCE61
:104F20000E9474052B013C01F701E752FB4E838D73
:104F30000E949908F12C0E949108081760F0FF2048
:104F400071F0E091F415F0E0E652FB4E838D898319
:104F5000E00FF11D59C5F110F4CF1F5FD1CF0E94B2
:104F600074056419750986099709FF24F39465315E
:104F7000710581059105F8F6DDCF0091A01310E0D1
:104F80000C5F1F4F970141E067E083E00E94D80C5F
:104F90004091A0134C5FB70183E00E940414F70115
:104FA0008481823141F480918A138E7F8263809361
:104FB0008A130E94A5129091AE14992351F1809109
:104FC000B014811122C12091A314213009F0DFC057
:104FD0002091B414A2EAB3E1F7013496281731F016
:104FE0004D913191431390E08F5FF8CF992319F0E1
:104FF00081E08093AF148091B314882351F0109214
:10500000A2141092AE141092AF141092B014109219
:10501000B2140E9429088091D1149091D214A091C9
:10502000D314B091D4140196A11DB11D8093D11455
:105030009093D214A093D314B093D4140FB6F894D1
:10504000BEBE0FBEADBE8091AE148823B9F10E94E2
:105050003008811133C00E9474050091C114109171
:10506000C2142091C3143091C4144B015C01801A06
:10507000910AA20AB30A950184014091BF1450918C
:10508000C0144A01B12CA12C80169106A206B306C9
:10509000A8F46093C1147093C2148093C3149093C6
:1050A000C4148091AF14882349F08091B014811109
:1050B00033C281E08093A9141092AF148091A91497
:1050C000882309F448C00E943008182F811143C07A
:1050D00020918B1330918C138091A3142F373105BD
:1050E00009F047C3813009F009C38091A214181751
:1050F000E8F40E9474054B015C01E12FF0E0E957F0
:10510000FC4E838D0E94380800E00E94300818177A
:1051100008F4E2C2002309F4E3C201E010E027E44E
:1051200032E04EEF6FE080E00E94D80C1092A9149C
:105130008091D5149091D614A091D714B091D81421
:105140000196A11DB11D8093D5149093D614A09300
:10515000D714B093D8140FB6F894DEBE0FBECDBEF0
:1051600027960FB6F894DEBF0FBECDBFDF91CF916B
:105170001F910F91FF90EF90DF90CF90BF90AF9075
:105180009F908F907F906F905F904F900895223006
:1051900008F431CF4091B4148091A214A82FB0E04C
:1051A000AD55BC4EF701349630E0431731F06D91A8
:1051B0005191651390E03F5FF8CF992309F41BCF1D
:1051C00031E03093AF149091A4149F5F9093A41496
:1051D000E82FE40FEF5FE093A214F0E0E957FC4EF4
:1051E000838D8093B414291306CF1092A4141092C7
:1051F000A2148091A2138093B4148091B2148823D6
:1052000009F4F9CE3093B314F6CE2091A013809117
:10521000B41490E001962817190621F581E08093D7
:10522000AF141092C5148091B314882309F4F1CE01
:105230001092A2141092B4141092AE141092AF14E3
:105240001092B0141092B214198283E08A8302E0A3
:1052500010E09E012F5F3F4F41E066E080E00E943A
:10526000D80CD7CE91E09093A9148091C5148F5F8C
:105270008093C5148B3030F01092AE149093B31419
:105280001092C51464EF71E080E090E00E94440544
:10529000CACF0F9709F0AFC00E943008882309F4E5
:1052A000D2CEADB6BEB60E9430088093A013009156
:1052B000A01310E0000F111F0D5F1F4F8DB69EB69B
:1052C000801A910A0FB6F8949EBE0FBE8DBE2DB700
:1052D0003EB72F5F3F4F79010E9480058091C20D3C
:1052E000F70180838091C30D81838091C40D8283F7
:1052F0008091C50D83838091A3148130E9F480915E
:10530000A21384830E945108712C8091A2147816F4
:10531000D8F5872D90E04C01880C991C8E0C9F1CB1
:1053200089579C4EFC01848DF40185830E945108AD
:10533000F40186837394E9CF823060F1E091A21486
:10534000F0E0E957FC4E848DF70184830E945108F8
:10535000712C8091B4147816B8F4872D90E04C012C
:10536000880C991C8E0C9F1CE091A214F0E0E95768
:10537000FC4EE80FF91F858DF40185830E945108CA
:10538000F40186837394E5CF970142E067E083E000
:105390000E94D80CF70184818E3F41F480918A13DA
:1053A0008D7F816380938A130E94A5128091AE1431
:1053B0008823C9F08091B0148111A1C09091A314E9
:1053C000913009F071C09093AF148091B314882389
:1053D00051F01092A2141092AE141092AF141092C9
:1053E000B0141092B2144091A0134C5FB70183E047
:1053F0000E9404140ECE0E9474050091A514109111
:10540000A6142091A7143091A814601B710B820B75
:10541000930B633371058105910508F414CE0E9446
:105420003008882309F40FCEADB6BEB60E9430080E
:105430008093A0138091A01390E004968DB69EB641
:10544000881A990A0FB6F8949EBE0FBE8DBE2DB76E
:105450003EB72F5F3F4F79010E9480058091C20DBA
:10546000F70180838091C30D81838091C40D828375
:105470008091C50D838310E08091A013181740F42C
:105480000E945108F701E10FF11D84831F5FF4CFE3
:105490000091A01310E00C5F1F4F970141E067E0FF
:1054A00083E00E94D80C82CF923008F48ECF21E0A6
:1054B0002093AF148091A4148F5F8093A414E09183
:1054C000A2143091B414E30FEF5FE093A214F0E064
:1054D000E957FC4E338D3093B414981376CF109265
:1054E000A4141092A2148091A2138093B4148091FA
:1054F000B214882309F469CF2093B31466CF81E0F6
:105500008093AF148091B314882309F46CCF109268
:10551000A2141092B4145FCF2091B414243009F077
:105520004DC08091A214811113C08091B514909147
:10553000B6143091B7144091B8144093A21330932D
:10554000A3139093A4138093A5132093A214B1CD19
:105550006091A2137091A3138091A4139091A5134D
:105560000E94234C8090BD149090BE14B12CA12CAD
:10557000DC01CB01880D991DAA1DBB1DB093A213A0
:10558000A093A3139093A4138093A5132093A21424
:10559000880E991EAA1EBB1E0091B9141091BA1450
:1055A0002091BB143091BC14081519052A053B0540
:1055B00008F07FCD81E08093B3147BCD233009F0D8
:1055C00045C08091A21481110DC08091B5149091B5
:1055D000B6143091B7143093A2139093A313809311
:1055E000A413B3CF3091A2138091A31390E0B0E045
:1055F000A0E0BA2FA92F982F8827A32B3091A413AE
:10560000832B4091BD145091BE1470E060E0840F74
:10561000951FA61FB71FA093A2139093A313809367
:10562000A4132093A214840F951FA61FB71F4091A7
:10563000B9145091BA146091BB147091BC144817FE
:1056400059076A077B0708F4B5CF33CD223029F517
:105650008091A214811109C08091B5149091B61463
:105660009093A2138093A31370CF4091BD145091D7
:10567000BE148091A2139091A3139827892798278D
:10568000840F951F9093A2138093A3132093A214C9
:10569000840F951FB0E0A0E0CACF213009F009CDFA
:1056A0008091A214811108C08091B5148093A21337
:1056B00081E08093A214FDCC2091BD143091BE14E2
:1056C0008091A213820F8093A21391E09093A21471
:1056D000820F932F911DDECF01111FCD1F5F05CDCE
:1056E0000E947405681979098A099B0901E06531EE
:1056F00071058105910508F008CD06CD823008F4CA
:1057000015CD1091A2141F5FE12EF12C8091A214EF
:1057100090E001962091B414820F911DE816F906CD
:105720000CF004CD0E9474052B013C01F701E957F0
:10573000FC4E838D0E94380800E08091A21457012E
:10574000A81AB1080E9430088A151B047CF40111C4
:10575000E4CC0E947405641975098609970901E073
:10576000653171058105910540F7E6CF002359F2B7
:10577000D4CC2F30310509F0A1C08130C9F520917A
:10578000A213E6E3F2E086E492E03191231709F4F4
:105790004AC18E179F07C9F701E010E022EA33E102
:1057A00049EFC0CCB11072C10E9468022091A213CF
:1057B00028171906D9F00E9429081F5F1A3008F42B
:1057C00054C101E010E022EA33E148EFABCC0E9483
:1057D00074056419750986099709BB24B39466306A
:1057E00071058105910508F049C147C10F5F2EC1C0
:1057F000823008F49BCC0091A214E02FF0E0E9572E
:10580000FC4E248DE6E3F2E086E492E0319123172A
:1058100009F449C18E179F07C9F7BECF911044C044
:105820000E946802E091A214F0E0E957FC4E248D3A
:1058300028171906A1F00E9429081F5F1A3020F1CD
:10584000C0CF0E94740564197509860997099924C7
:1058500093946630710581059105F8F41DC0A394F9
:10586000B02EBA0C4A2D50E08091A21490E001961F
:105870002091B414820F911D481759070CF056CC93
:105880009A012E553C4E79010E9474052B013C0172
:10589000F70180810E943808912C0E943008B816C8
:1058A00008F4BCCF992069F2E091A214F0E0E85727
:1058B000FC4E838D8983EB0DF11DECC0813041F5E9
:1058C0008091A214181708F031CC0E9474054B0186
:1058D0005C01E12FF0E0E957FC4E838D0E9438080F
:1058E00000E00E943008181778F0011116CC0E94D1
:1058F0007405681979098A099B0901E06531710508
:105900008105910570F7ECCF011107CC1F5FD8CF4F
:10591000823008F40BCCB090A21411E01B0DB094AF
:105920000B2D010FE12EF12C8091A21490E0019635
:105930002091B414820F911DE816F9060CF0F6CBF5
:105940000E9474052B013C01F701E957FC4E838D41
:105950000E943808F12C0E943008081760F0FF20E0
:1059600071F0E091A214F0E0E857FC4E838D89833A
:10597000E00FF11D8FC0F110F4CF1F5FD1CF0E9457
:1059800074056419750986099709FF24F394653134
:10599000710581059105F8F6DDCF8091F41582300F
:1059A00070F08091F5148F3F51F4E5EFF4E180E061
:1059B00081938F5F803FE1F781EF8093F41500E0E2
:1059C0008091F415081708F008C9802F90E0FC01B9
:1059D000E752FB4E7F014F01FBE18F0E911C0E94AD
:1059E00074052B013C01F40180810E949908B12CBF
:1059F0000E949108081708F4C1C9BB2009F4D5C951
:105A00008091F4148983F701838D8A8302E010E08A
:105A10009E012F5F3F4F4AEF0C947023AA24A3945A
:105A2000A00E00950DCA8091A214823070F0809172
:105A3000A3138F3F51F4E3EAF3E180E081938F5F9A
:105A4000803FE1F781EF8093A21400E08091A214DF
:105A5000081708F06BCB802F90E09C0129573C4E33
:105A6000790149013BE1830E911C0E9474052B01D1
:105A70003C01F40180810E943808B12C0E9430085A
:105A8000081708F48FCEBB2009F4A1CE8091A21391
:105A90008983F701838D8A8302E010E09E012F5FE6
:105AA0003F4F4AEF3FCBAA24A394A00E0095D8CE37
:105AB000CF92DF92EF92FF92CF93DF93582FFC01AA
:105AC00030E020E0261748F44191D901A75EBC4E92
:105AD00092964C932F5F3F4FF5CF2091571322237F
